{
	"v2-core-master/contracts/FeeTo.sol": {
		"FeeTo": {
			"abi": [
				{
					"inputs": [
						{
							"internalType": "address",
							"name": "owner_",
							"type": "address"
						}
					],
					"payable": false,
					"stateMutability": "nonpayable",
					"type": "constructor"
				},
				{
					"constant": false,
					"inputs": [
						{
							"internalType": "address",
							"name": "pair",
							"type": "address"
						}
					],
					"name": "claim",
					"outputs": [
						{
							"internalType": "uint256",
							"name": "value",
							"type": "uint256"
						}
					],
					"payable": false,
					"stateMutability": "nonpayable",
					"type": "function"
				},
				{
					"constant": true,
					"inputs": [],
					"name": "feeRecipient",
					"outputs": [
						{
							"internalType": "address",
							"name": "",
							"type": "address"
						}
					],
					"payable": false,
					"stateMutability": "view",
					"type": "function"
				},
				{
					"constant": true,
					"inputs": [],
					"name": "owner",
					"outputs": [
						{
							"internalType": "address",
							"name": "",
							"type": "address"
						}
					],
					"payable": false,
					"stateMutability": "view",
					"type": "function"
				},
				{
					"constant": true,
					"inputs": [
						{
							"internalType": "address",
							"name": "",
							"type": "address"
						}
					],
					"name": "pairAllowStates",
					"outputs": [
						{
							"internalType": "uint128",
							"name": "token0DisallowCount",
							"type": "uint128"
						},
						{
							"internalType": "uint128",
							"name": "token1DisallowCount",
							"type": "uint128"
						}
					],
					"payable": false,
					"stateMutability": "view",
					"type": "function"
				},
				{
					"constant": false,
					"inputs": [
						{
							"internalType": "address",
							"name": "pair",
							"type": "address"
						}
					],
					"name": "renounce",
					"outputs": [
						{
							"internalType": "uint256",
							"name": "value",
							"type": "uint256"
						}
					],
					"payable": false,
					"stateMutability": "nonpayable",
					"type": "function"
				},
				{
					"constant": false,
					"inputs": [
						{
							"internalType": "address",
							"name": "feeRecipient_",
							"type": "address"
						}
					],
					"name": "setFeeRecipient",
					"outputs": [],
					"payable": false,
					"stateMutability": "nonpayable",
					"type": "function"
				},
				{
					"constant": false,
					"inputs": [
						{
							"internalType": "address",
							"name": "owner_",
							"type": "address"
						}
					],
					"name": "setOwner",
					"outputs": [],
					"payable": false,
					"stateMutability": "nonpayable",
					"type": "function"
				},
				{
					"constant": true,
					"inputs": [
						{
							"internalType": "address",
							"name": "",
							"type": "address"
						}
					],
					"name": "tokenAllowStates",
					"outputs": [
						{
							"internalType": "bool",
							"name": "allowed",
							"type": "bool"
						},
						{
							"internalType": "uint128",
							"name": "disallowCount",
							"type": "uint128"
						}
					],
					"payable": false,
					"stateMutability": "view",
					"type": "function"
				},
				{
					"constant": false,
					"inputs": [
						{
							"internalType": "address",
							"name": "token",
							"type": "address"
						},
						{
							"internalType": "bool",
							"name": "allowed",
							"type": "bool"
						}
					],
					"name": "updateTokenAllowState",
					"outputs": [],
					"payable": false,
					"stateMutability": "nonpayable",
					"type": "function"
				},
				{
					"constant": false,
					"inputs": [
						{
							"internalType": "address[]",
							"name": "tokens",
							"type": "address[]"
						},
						{
							"internalType": "bool",
							"name": "allowed",
							"type": "bool"
						}
					],
					"name": "updateTokenAllowStates",
					"outputs": [],
					"payable": false,
					"stateMutability": "nonpayable",
					"type": "function"
				}
			],
			"devdoc": {
				"methods": {}
			},
			"evm": {
				"assembly": "    /* \"v2-core-master/contracts/FeeTo.sol\":319:5572  contract FeeTo {\r... */\n  mstore(0x40, 0x80)\n    /* \"v2-core-master/contracts/FeeTo.sol\":745:813  constructor(address owner_) public {\r... */\n  callvalue\n    /* \"--CODEGEN--\":8:17   */\n  dup1\n    /* \"--CODEGEN--\":5:7   */\n  iszero\n  tag_1\n  jumpi\n    /* \"--CODEGEN--\":30:31   */\n  0x00\n    /* \"--CODEGEN--\":27:28   */\n  dup1\n    /* \"--CODEGEN--\":20:32   */\n  revert\n    /* \"--CODEGEN--\":5:7   */\ntag_1:\n    /* \"v2-core-master/contracts/FeeTo.sol\":745:813  constructor(address owner_) public {\r... */\n  pop\n  mload(0x40)\n  sub(codesize, bytecodeSize)\n  dup1\n  bytecodeSize\n  dup4\n  codecopy\n  dup2\n  dup2\n  add\n  0x40\n  mstore\n    /* \"--CODEGEN--\":13:15   */\n  0x20\n    /* \"--CODEGEN--\":8:11   */\n  dup2\n    /* \"--CODEGEN--\":5:16   */\n  lt\n    /* \"--CODEGEN--\":2:4   */\n  iszero\n  tag_2\n  jumpi\n    /* \"--CODEGEN--\":29:30   */\n  0x00\n    /* \"--CODEGEN--\":26:27   */\n  dup1\n    /* \"--CODEGEN--\":19:31   */\n  revert\n    /* \"--CODEGEN--\":2:4   */\ntag_2:\n  pop\n    /* \"v2-core-master/contracts/FeeTo.sol\":745:813  constructor(address owner_) public {\r... */\n  mload\n    /* \"v2-core-master/contracts/FeeTo.sol\":791:796  owner */\n  0x00\n    /* \"v2-core-master/contracts/FeeTo.sol\":791:805  owner = owner_ */\n  dup1\n  sload\n  sub(shl(0xa0, 0x01), 0x01)\n  swap1\n  swap3\n  and\n  not(sub(shl(0xa0, 0x01), 0x01))\n  swap1\n  swap3\n  and\n  swap2\n  swap1\n  swap2\n  or\n  swap1\n  sstore\n    /* \"v2-core-master/contracts/FeeTo.sol\":319:5572  contract FeeTo {\r... */\n  dataSize(sub_0)\n  dup1\n  dataOffset(sub_0)\n  0x00\n  codecopy\n  0x00\n  return\nstop\n\nsub_0: assembly {\n        /* \"v2-core-master/contracts/FeeTo.sol\":319:5572  contract FeeTo {\r... */\n      mstore(0x40, 0x80)\n      callvalue\n        /* \"--CODEGEN--\":8:17   */\n      dup1\n        /* \"--CODEGEN--\":5:7   */\n      iszero\n      tag_1\n      jumpi\n        /* \"--CODEGEN--\":30:31   */\n      0x00\n        /* \"--CODEGEN--\":27:28   */\n      dup1\n        /* \"--CODEGEN--\":20:32   */\n      revert\n        /* \"--CODEGEN--\":5:7   */\n    tag_1:\n        /* \"v2-core-master/contracts/FeeTo.sol\":319:5572  contract FeeTo {\r... */\n      pop\n      jumpi(tag_2, lt(calldatasize, 0x04))\n      shr(0xe0, calldataload(0x00))\n      dup1\n      0x8d976172\n      gt\n      tag_13\n      jumpi\n      dup1\n      0x8d976172\n      eq\n      tag_8\n      jumpi\n      dup1\n      0x8da5cb5b\n      eq\n      tag_9\n      jumpi\n      dup1\n      0xdf8ca76a\n      eq\n      tag_10\n      jumpi\n      dup1\n      0xe359f0ed\n      eq\n      tag_11\n      jumpi\n      dup1\n      0xe74b981b\n      eq\n      tag_12\n      jumpi\n      jump(tag_2)\n    tag_13:\n      dup1\n      0x13af4035\n      eq\n      tag_3\n      jumpi\n      dup1\n      0x1e83409a\n      eq\n      tag_4\n      jumpi\n      dup1\n      0x1f76a7af\n      eq\n      tag_5\n      jumpi\n      dup1\n      0x3e2f3f2b\n      eq\n      tag_6\n      jumpi\n      dup1\n      0x46904840\n      eq\n      tag_7\n      jumpi\n    tag_2:\n      0x00\n      dup1\n      revert\n        /* \"v2-core-master/contracts/FeeTo.sol\":821:966  function setOwner(address owner_) public {\r... */\n    tag_3:\n      tag_14\n      0x04\n      dup1\n      calldatasize\n      sub\n        /* \"--CODEGEN--\":13:15   */\n      0x20\n        /* \"--CODEGEN--\":8:11   */\n      dup2\n        /* \"--CODEGEN--\":5:16   */\n      lt\n        /* \"--CODEGEN--\":2:4   */\n      iszero\n      tag_15\n      jumpi\n        /* \"--CODEGEN--\":29:30   */\n      0x00\n        /* \"--CODEGEN--\":26:27   */\n      dup1\n        /* \"--CODEGEN--\":19:31   */\n      revert\n        /* \"--CODEGEN--\":2:4   */\n    tag_15:\n      pop\n        /* \"v2-core-master/contracts/FeeTo.sol\":821:966  function setOwner(address owner_) public {\r... */\n      calldataload\n      sub(shl(0xa0, 0x01), 0x01)\n      and\n      tag_16\n      jump\t// in\n    tag_14:\n      stop\n        /* \"v2-core-master/contracts/FeeTo.sol\":4219:5569  function claim(address pair) public returns (uint value) {\r... */\n    tag_4:\n      tag_17\n      0x04\n      dup1\n      calldatasize\n      sub\n        /* \"--CODEGEN--\":13:15   */\n      0x20\n        /* \"--CODEGEN--\":8:11   */\n      dup2\n        /* \"--CODEGEN--\":5:16   */\n      lt\n        /* \"--CODEGEN--\":2:4   */\n      iszero\n      tag_18\n      jumpi\n        /* \"--CODEGEN--\":29:30   */\n      0x00\n        /* \"--CODEGEN--\":26:27   */\n      dup1\n        /* \"--CODEGEN--\":19:31   */\n      revert\n        /* \"--CODEGEN--\":2:4   */\n    tag_18:\n      pop\n        /* \"v2-core-master/contracts/FeeTo.sol\":4219:5569  function claim(address pair) public returns (uint value) {\r... */\n      calldataload\n      sub(shl(0xa0, 0x01), 0x01)\n      and\n      tag_19\n      jump\t// in\n    tag_17:\n      0x40\n      dup1\n      mload\n      swap2\n      dup3\n      mstore\n      mload\n      swap1\n      dup2\n      swap1\n      sub\n      0x20\n      add\n      swap1\n      return\n        /* \"v2-core-master/contracts/FeeTo.sol\":2283:4211  function renounce(address pair) public returns (uint value) {\r... */\n    tag_5:\n      tag_17\n      0x04\n      dup1\n      calldatasize\n      sub\n        /* \"--CODEGEN--\":13:15   */\n      0x20\n        /* \"--CODEGEN--\":8:11   */\n      dup2\n        /* \"--CODEGEN--\":5:16   */\n      lt\n        /* \"--CODEGEN--\":2:4   */\n      iszero\n      tag_21\n      jumpi\n        /* \"--CODEGEN--\":29:30   */\n      0x00\n        /* \"--CODEGEN--\":26:27   */\n      dup1\n        /* \"--CODEGEN--\":19:31   */\n      revert\n        /* \"--CODEGEN--\":2:4   */\n    tag_21:\n      pop\n        /* \"v2-core-master/contracts/FeeTo.sol\":2283:4211  function renounce(address pair) public returns (uint value) {\r... */\n      calldataload\n      sub(shl(0xa0, 0x01), 0x01)\n      and\n      tag_22\n      jump\t// in\n        /* \"v2-core-master/contracts/FeeTo.sol\":499:558  mapping(address => TokenAllowState) public tokenAllowStates */\n    tag_6:\n      tag_23\n      0x04\n      dup1\n      calldatasize\n      sub\n        /* \"--CODEGEN--\":13:15   */\n      0x20\n        /* \"--CODEGEN--\":8:11   */\n      dup2\n        /* \"--CODEGEN--\":5:16   */\n      lt\n        /* \"--CODEGEN--\":2:4   */\n      iszero\n      tag_24\n      jumpi\n        /* \"--CODEGEN--\":29:30   */\n      0x00\n        /* \"--CODEGEN--\":26:27   */\n      dup1\n        /* \"--CODEGEN--\":19:31   */\n      revert\n        /* \"--CODEGEN--\":2:4   */\n    tag_24:\n      pop\n        /* \"v2-core-master/contracts/FeeTo.sol\":499:558  mapping(address => TokenAllowState) public tokenAllowStates */\n      calldataload\n      sub(shl(0xa0, 0x01), 0x01)\n      and\n      tag_25\n      jump\t// in\n    tag_23:\n      0x40\n      dup1\n      mload\n      swap3\n      iszero\n      iszero\n      dup4\n      mstore\n      sub(shl(0x80, 0x01), 0x01)\n      swap1\n      swap2\n      and\n      0x20\n      dup4\n      add\n      mstore\n      dup1\n      mload\n      swap2\n      dup3\n      swap1\n      sub\n      add\n      swap1\n      return\n        /* \"v2-core-master/contracts/FeeTo.sol\":368:395  address public feeRecipient */\n    tag_7:\n      tag_26\n      tag_27\n      jump\t// in\n    tag_26:\n      0x40\n      dup1\n      mload\n      sub(shl(0xa0, 0x01), 0x01)\n      swap1\n      swap3\n      and\n      dup3\n      mstore\n      mload\n      swap1\n      dup2\n      swap1\n      sub\n      0x20\n      add\n      swap1\n      return\n        /* \"v2-core-master/contracts/FeeTo.sol\":2074:2275  function updateTokenAllowStates(address[] memory tokens, bool allowed) public {\r... */\n    tag_8:\n      tag_14\n      0x04\n      dup1\n      calldatasize\n      sub\n        /* \"--CODEGEN--\":13:15   */\n      0x40\n        /* \"--CODEGEN--\":8:11   */\n      dup2\n        /* \"--CODEGEN--\":5:16   */\n      lt\n        /* \"--CODEGEN--\":2:4   */\n      iszero\n      tag_29\n      jumpi\n        /* \"--CODEGEN--\":29:30   */\n      0x00\n        /* \"--CODEGEN--\":26:27   */\n      dup1\n        /* \"--CODEGEN--\":19:31   */\n      revert\n        /* \"--CODEGEN--\":2:4   */\n    tag_29:\n        /* \"v2-core-master/contracts/FeeTo.sol\":2074:2275  function updateTokenAllowStates(address[] memory tokens, bool allowed) public {\r... */\n      dup2\n      add\n      swap1\n      0x20\n      dup2\n      add\n      dup2\n      calldataload\n        /* \"--CODEGEN--\":21:32   */\n      0x0100000000\n        /* \"--CODEGEN--\":5:33   */\n      dup2\n      gt\n        /* \"--CODEGEN--\":2:4   */\n      iszero\n      tag_30\n      jumpi\n        /* \"--CODEGEN--\":46:47   */\n      0x00\n        /* \"--CODEGEN--\":43:44   */\n      dup1\n        /* \"--CODEGEN--\":36:48   */\n      revert\n        /* \"--CODEGEN--\":2:4   */\n    tag_30:\n        /* \"v2-core-master/contracts/FeeTo.sol\":2074:2275  function updateTokenAllowStates(address[] memory tokens, bool allowed) public {\r... */\n      dup3\n      add\n        /* \"--CODEGEN--\":35:44   */\n      dup4\n        /* \"--CODEGEN--\":28:32   */\n      0x20\n        /* \"--CODEGEN--\":12:26   */\n      dup3\n        /* \"--CODEGEN--\":8:33   */\n      add\n        /* \"--CODEGEN--\":5:45   */\n      gt\n        /* \"--CODEGEN--\":2:4   */\n      iszero\n      tag_31\n      jumpi\n        /* \"--CODEGEN--\":58:59   */\n      0x00\n        /* \"--CODEGEN--\":55:56   */\n      dup1\n        /* \"--CODEGEN--\":48:60   */\n      revert\n        /* \"--CODEGEN--\":2:4   */\n    tag_31:\n        /* \"v2-core-master/contracts/FeeTo.sol\":2074:2275  function updateTokenAllowStates(address[] memory tokens, bool allowed) public {\r... */\n      dup1\n      calldataload\n      swap1\n      0x20\n      add\n      swap2\n        /* \"--CODEGEN--\":101:110   */\n      dup5\n        /* \"--CODEGEN--\":95:97   */\n      0x20\n        /* \"--CODEGEN--\":81:93   */\n      dup4\n        /* \"--CODEGEN--\":77:98   */\n      mul\n        /* \"--CODEGEN--\":67:75   */\n      dup5\n        /* \"--CODEGEN--\":63:99   */\n      add\n        /* \"--CODEGEN--\":60:111   */\n      gt\n        /* \"--CODEGEN--\":39:50   */\n      0x0100000000\n        /* \"--CODEGEN--\":25:37   */\n      dup4\n        /* \"--CODEGEN--\":22:51   */\n      gt\n        /* \"--CODEGEN--\":11:119   */\n      or\n        /* \"--CODEGEN--\":8:10   */\n      iszero\n      tag_32\n      jumpi\n        /* \"--CODEGEN--\":132:133   */\n      0x00\n        /* \"--CODEGEN--\":129:130   */\n      dup1\n        /* \"--CODEGEN--\":122:134   */\n      revert\n        /* \"--CODEGEN--\":8:10   */\n    tag_32:\n        /* \"v2-core-master/contracts/FeeTo.sol\":2074:2275  function updateTokenAllowStates(address[] memory tokens, bool allowed) public {\r... */\n      swap2\n      swap1\n      dup1\n      dup1\n      0x20\n      mul\n      0x20\n      add\n      mload(0x40)\n      swap1\n      dup2\n      add\n      0x40\n      mstore\n      dup1\n      swap4\n      swap3\n      swap2\n      swap1\n      dup2\n      dup2\n      mstore\n      0x20\n      add\n      dup4\n      dup4\n      0x20\n      mul\n        /* \"--CODEGEN--\":30:33   */\n      dup1\n        /* \"--CODEGEN--\":22:28   */\n      dup3\n        /* \"--CODEGEN--\":14:20   */\n      dup5\n        /* \"--CODEGEN--\":1:34   */\n      calldatacopy\n        /* \"--CODEGEN--\":99:100   */\n      0x00\n        /* \"--CODEGEN--\":81:97   */\n      swap3\n      add\n        /* \"--CODEGEN--\":74:101   */\n      swap2\n      swap1\n      swap2\n      mstore\n      pop\n        /* \"v2-core-master/contracts/FeeTo.sol\":2074:2275  function updateTokenAllowStates(address[] memory tokens, bool allowed) public {\r... */\n      swap3\n      swap6\n      pop\n      pop\n      pop\n      pop\n      calldataload\n      iszero\n      iszero\n      swap1\n      pop\n      tag_33\n      jump\t// in\n        /* \"v2-core-master/contracts/FeeTo.sol\":341:361  address public owner */\n    tag_9:\n      tag_26\n      tag_35\n      jump\t// in\n        /* \"v2-core-master/contracts/FeeTo.sol\":1162:2066  function updateTokenAllowState(address token, bool allowed) public {\r... */\n    tag_10:\n      tag_14\n      0x04\n      dup1\n      calldatasize\n      sub\n        /* \"--CODEGEN--\":13:15   */\n      0x40\n        /* \"--CODEGEN--\":8:11   */\n      dup2\n        /* \"--CODEGEN--\":5:16   */\n      lt\n        /* \"--CODEGEN--\":2:4   */\n      iszero\n      tag_37\n      jumpi\n        /* \"--CODEGEN--\":29:30   */\n      0x00\n        /* \"--CODEGEN--\":26:27   */\n      dup1\n        /* \"--CODEGEN--\":19:31   */\n      revert\n        /* \"--CODEGEN--\":2:4   */\n    tag_37:\n      pop\n      sub(shl(0xa0, 0x01), 0x01)\n        /* \"v2-core-master/contracts/FeeTo.sol\":1162:2066  function updateTokenAllowState(address token, bool allowed) public {\r... */\n      dup2\n      calldataload\n      and\n      swap1\n      0x20\n      add\n      calldataload\n      iszero\n      iszero\n      tag_38\n      jump\t// in\n        /* \"v2-core-master/contracts/FeeTo.sol\":679:736  mapping(address => PairAllowState) public pairAllowStates */\n    tag_11:\n      tag_39\n      0x04\n      dup1\n      calldatasize\n      sub\n        /* \"--CODEGEN--\":13:15   */\n      0x20\n        /* \"--CODEGEN--\":8:11   */\n      dup2\n        /* \"--CODEGEN--\":5:16   */\n      lt\n        /* \"--CODEGEN--\":2:4   */\n      iszero\n      tag_40\n      jumpi\n        /* \"--CODEGEN--\":29:30   */\n      0x00\n        /* \"--CODEGEN--\":26:27   */\n      dup1\n        /* \"--CODEGEN--\":19:31   */\n      revert\n        /* \"--CODEGEN--\":2:4   */\n    tag_40:\n      pop\n        /* \"v2-core-master/contracts/FeeTo.sol\":679:736  mapping(address => PairAllowState) public pairAllowStates */\n      calldataload\n      sub(shl(0xa0, 0x01), 0x01)\n      and\n      tag_41\n      jump\t// in\n    tag_39:\n      0x40\n      dup1\n      mload\n      sub(shl(0x80, 0x01), 0x01)\n      swap4\n      dup5\n      and\n      dup2\n      mstore\n      swap2\n      swap1\n      swap3\n      and\n      0x20\n      dup3\n      add\n      mstore\n      dup2\n      mload\n      swap1\n      dup2\n      swap1\n      sub\n      swap1\n      swap2\n      add\n      swap1\n      return\n        /* \"v2-core-master/contracts/FeeTo.sol\":974:1154  function setFeeRecipient(address feeRecipient_) public {\r... */\n    tag_12:\n      tag_14\n      0x04\n      dup1\n      calldatasize\n      sub\n        /* \"--CODEGEN--\":13:15   */\n      0x20\n        /* \"--CODEGEN--\":8:11   */\n      dup2\n        /* \"--CODEGEN--\":5:16   */\n      lt\n        /* \"--CODEGEN--\":2:4   */\n      iszero\n      tag_43\n      jumpi\n        /* \"--CODEGEN--\":29:30   */\n      0x00\n        /* \"--CODEGEN--\":26:27   */\n      dup1\n        /* \"--CODEGEN--\":19:31   */\n      revert\n        /* \"--CODEGEN--\":2:4   */\n    tag_43:\n      pop\n        /* \"v2-core-master/contracts/FeeTo.sol\":974:1154  function setFeeRecipient(address feeRecipient_) public {\r... */\n      calldataload\n      sub(shl(0xa0, 0x01), 0x01)\n      and\n      tag_44\n      jump\t// in\n        /* \"v2-core-master/contracts/FeeTo.sol\":821:966  function setOwner(address owner_) public {\r... */\n    tag_16:\n        /* \"v2-core-master/contracts/FeeTo.sol\":895:900  owner */\n      and(sub(shl(0xa0, 0x01), 0x01), sload(0x00))\n        /* \"v2-core-master/contracts/FeeTo.sol\":881:891  msg.sender */\n      caller\n        /* \"v2-core-master/contracts/FeeTo.sol\":881:900  msg.sender == owner */\n      eq\n        /* \"v2-core-master/contracts/FeeTo.sol\":873:933  require(msg.sender == owner, 'FeeTo::setOwner: not allowed') */\n      tag_46\n      jumpi\n      0x40\n      dup1\n      mload\n      shl(0xe5, 0x461bcd)\n      dup2\n      mstore\n      0x20\n      0x04\n      dup3\n      add\n      mstore\n      0x1c\n      0x24\n      dup3\n      add\n      mstore\n      0x466565546f3a3a7365744f776e65723a206e6f7420616c6c6f77656400000000\n      0x44\n      dup3\n      add\n      mstore\n      swap1\n      mload\n      swap1\n      dup2\n      swap1\n      sub\n      0x64\n      add\n      swap1\n      revert\n    tag_46:\n        /* \"v2-core-master/contracts/FeeTo.sol\":944:949  owner */\n      0x00\n        /* \"v2-core-master/contracts/FeeTo.sol\":944:958  owner = owner_ */\n      dup1\n      sload\n      not(sub(shl(0xa0, 0x01), 0x01))\n      and\n      sub(shl(0xa0, 0x01), 0x01)\n      swap3\n      swap1\n      swap3\n      and\n      swap2\n      swap1\n      swap2\n      or\n      swap1\n      sstore\n        /* \"v2-core-master/contracts/FeeTo.sol\":821:966  function setOwner(address owner_) public {\r... */\n      jump\t// out\n        /* \"v2-core-master/contracts/FeeTo.sol\":4219:5569  function claim(address pair) public returns (uint value) {\r... */\n    tag_19:\n        /* \"v2-core-master/contracts/FeeTo.sol\":4264:4274  uint value */\n      0x00\n        /* \"v2-core-master/contracts/FeeTo.sol\":4287:4324  PairAllowState storage pairAllowState */\n      dup1\n        /* \"v2-core-master/contracts/FeeTo.sol\":4327:4342  pairAllowStates */\n      0x03\n        /* \"v2-core-master/contracts/FeeTo.sol\":4327:4348  pairAllowStates[pair] */\n      0x00\n        /* \"v2-core-master/contracts/FeeTo.sol\":4343:4347  pair */\n      dup5\n      sub(shl(0xa0, 0x01), 0x01)\n        /* \"v2-core-master/contracts/FeeTo.sol\":4327:4348  pairAllowStates[pair] */\n      and\n      sub(shl(0xa0, 0x01), 0x01)\n      and\n      dup2\n      mstore\n      0x20\n      add\n      swap1\n      dup2\n      mstore\n      0x20\n      add\n      0x00\n      keccak256\n        /* \"v2-core-master/contracts/FeeTo.sol\":4287:4348  PairAllowState storage pairAllowState = pairAllowStates[pair] */\n      swap1\n      pop\n        /* \"v2-core-master/contracts/FeeTo.sol\":4359:4399  TokenAllowState storage token0AllowState */\n      0x00\n        /* \"v2-core-master/contracts/FeeTo.sol\":4402:4418  tokenAllowStates */\n      0x02\n        /* \"v2-core-master/contracts/FeeTo.sol\":4402:4449  tokenAllowStates[IUniswapV2Pair(pair).token0()] */\n      0x00\n        /* \"v2-core-master/contracts/FeeTo.sol\":4434:4438  pair */\n      dup6\n      sub(shl(0xa0, 0x01), 0x01)\n        /* \"v2-core-master/contracts/FeeTo.sol\":4419:4446  IUniswapV2Pair(pair).token0 */\n      and\n      0x0dfe1681\n        /* \"v2-core-master/contracts/FeeTo.sol\":4419:4448  IUniswapV2Pair(pair).token0() */\n      mload(0x40)\n      dup2\n      0xffffffff\n      and\n      0xe0\n      shl\n      dup2\n      mstore\n      0x04\n      add\n      0x20\n      mload(0x40)\n      dup1\n      dup4\n      sub\n      dup2\n      dup7\n      dup1\n      extcodesize\n      iszero\n        /* \"--CODEGEN--\":8:17   */\n      dup1\n        /* \"--CODEGEN--\":5:7   */\n      iszero\n      tag_48\n      jumpi\n        /* \"--CODEGEN--\":30:31   */\n      0x00\n        /* \"--CODEGEN--\":27:28   */\n      dup1\n        /* \"--CODEGEN--\":20:32   */\n      revert\n        /* \"--CODEGEN--\":5:7   */\n    tag_48:\n        /* \"v2-core-master/contracts/FeeTo.sol\":4419:4448  IUniswapV2Pair(pair).token0() */\n      pop\n      gas\n      staticcall\n      iszero\n        /* \"--CODEGEN--\":8:17   */\n      dup1\n        /* \"--CODEGEN--\":5:7   */\n      iszero\n      tag_49\n      jumpi\n        /* \"--CODEGEN--\":45:61   */\n      returndatasize\n        /* \"--CODEGEN--\":42:43   */\n      0x00\n        /* \"--CODEGEN--\":39:40   */\n      dup1\n        /* \"--CODEGEN--\":24:62   */\n      returndatacopy\n        /* \"--CODEGEN--\":77:93   */\n      returndatasize\n        /* \"--CODEGEN--\":74:75   */\n      0x00\n        /* \"--CODEGEN--\":67:94   */\n      revert\n        /* \"--CODEGEN--\":5:7   */\n    tag_49:\n        /* \"v2-core-master/contracts/FeeTo.sol\":4419:4448  IUniswapV2Pair(pair).token0() */\n      pop\n      pop\n      pop\n      pop\n      mload(0x40)\n      returndatasize\n        /* \"--CODEGEN--\":13:15   */\n      0x20\n        /* \"--CODEGEN--\":8:11   */\n      dup2\n        /* \"--CODEGEN--\":5:16   */\n      lt\n        /* \"--CODEGEN--\":2:4   */\n      iszero\n      tag_50\n      jumpi\n        /* \"--CODEGEN--\":29:30   */\n      0x00\n        /* \"--CODEGEN--\":26:27   */\n      dup1\n        /* \"--CODEGEN--\":19:31   */\n      revert\n        /* \"--CODEGEN--\":2:4   */\n    tag_50:\n        /* \"v2-core-master/contracts/FeeTo.sol\":4419:4448  IUniswapV2Pair(pair).token0() */\n      dup2\n      add\n      swap1\n      dup1\n      dup1\n      mload\n      swap1\n      0x20\n      add\n      swap1\n      swap3\n      swap2\n      swap1\n      pop\n      pop\n      pop\n      sub(shl(0xa0, 0x01), 0x01)\n        /* \"v2-core-master/contracts/FeeTo.sol\":4402:4449  tokenAllowStates[IUniswapV2Pair(pair).token0()] */\n      and\n      sub(shl(0xa0, 0x01), 0x01)\n      and\n      dup2\n      mstore\n      0x20\n      add\n      swap1\n      dup2\n      mstore\n      0x20\n      add\n      0x00\n      keccak256\n        /* \"v2-core-master/contracts/FeeTo.sol\":4359:4449  TokenAllowState storage token0AllowState = tokenAllowStates[IUniswapV2Pair(pair).token0()] */\n      swap1\n      pop\n        /* \"v2-core-master/contracts/FeeTo.sol\":4460:4500  TokenAllowState storage token1AllowState */\n      0x00\n        /* \"v2-core-master/contracts/FeeTo.sol\":4503:4519  tokenAllowStates */\n      0x02\n        /* \"v2-core-master/contracts/FeeTo.sol\":4503:4550  tokenAllowStates[IUniswapV2Pair(pair).token1()] */\n      0x00\n        /* \"v2-core-master/contracts/FeeTo.sol\":4535:4539  pair */\n      dup7\n      sub(shl(0xa0, 0x01), 0x01)\n        /* \"v2-core-master/contracts/FeeTo.sol\":4520:4547  IUniswapV2Pair(pair).token1 */\n      and\n      0xd21220a7\n        /* \"v2-core-master/contracts/FeeTo.sol\":4520:4549  IUniswapV2Pair(pair).token1() */\n      mload(0x40)\n      dup2\n      0xffffffff\n      and\n      0xe0\n      shl\n      dup2\n      mstore\n      0x04\n      add\n      0x20\n      mload(0x40)\n      dup1\n      dup4\n      sub\n      dup2\n      dup7\n      dup1\n      extcodesize\n      iszero\n        /* \"--CODEGEN--\":8:17   */\n      dup1\n        /* \"--CODEGEN--\":5:7   */\n      iszero\n      tag_51\n      jumpi\n        /* \"--CODEGEN--\":30:31   */\n      0x00\n        /* \"--CODEGEN--\":27:28   */\n      dup1\n        /* \"--CODEGEN--\":20:32   */\n      revert\n        /* \"--CODEGEN--\":5:7   */\n    tag_51:\n        /* \"v2-core-master/contracts/FeeTo.sol\":4520:4549  IUniswapV2Pair(pair).token1() */\n      pop\n      gas\n      staticcall\n      iszero\n        /* \"--CODEGEN--\":8:17   */\n      dup1\n        /* \"--CODEGEN--\":5:7   */\n      iszero\n      tag_52\n      jumpi\n        /* \"--CODEGEN--\":45:61   */\n      returndatasize\n        /* \"--CODEGEN--\":42:43   */\n      0x00\n        /* \"--CODEGEN--\":39:40   */\n      dup1\n        /* \"--CODEGEN--\":24:62   */\n      returndatacopy\n        /* \"--CODEGEN--\":77:93   */\n      returndatasize\n        /* \"--CODEGEN--\":74:75   */\n      0x00\n        /* \"--CODEGEN--\":67:94   */\n      revert\n        /* \"--CODEGEN--\":5:7   */\n    tag_52:\n        /* \"v2-core-master/contracts/FeeTo.sol\":4520:4549  IUniswapV2Pair(pair).token1() */\n      pop\n      pop\n      pop\n      pop\n      mload(0x40)\n      returndatasize\n        /* \"--CODEGEN--\":13:15   */\n      0x20\n        /* \"--CODEGEN--\":8:11   */\n      dup2\n        /* \"--CODEGEN--\":5:16   */\n      lt\n        /* \"--CODEGEN--\":2:4   */\n      iszero\n      tag_53\n      jumpi\n        /* \"--CODEGEN--\":29:30   */\n      0x00\n        /* \"--CODEGEN--\":26:27   */\n      dup1\n        /* \"--CODEGEN--\":19:31   */\n      revert\n        /* \"--CODEGEN--\":2:4   */\n    tag_53:\n      pop\n        /* \"v2-core-master/contracts/FeeTo.sol\":4520:4549  IUniswapV2Pair(pair).token1() */\n      mload\n      sub(shl(0xa0, 0x01), 0x01)\n        /* \"v2-core-master/contracts/FeeTo.sol\":4503:4550  tokenAllowStates[IUniswapV2Pair(pair).token1()] */\n      and\n      dup2\n      mstore\n        /* \"v2-core-master/contracts/FeeTo.sol\":4520:4549  IUniswapV2Pair(pair).token1() */\n      0x20\n        /* \"v2-core-master/contracts/FeeTo.sol\":4503:4550  tokenAllowStates[IUniswapV2Pair(pair).token1()] */\n      dup2\n      add\n      swap2\n      swap1\n      swap2\n      mstore\n      0x40\n      add\n      0x00\n      keccak256\n        /* \"v2-core-master/contracts/FeeTo.sol\":4957:4981  token0AllowState.allowed */\n      dup3\n      sload\n        /* \"v2-core-master/contracts/FeeTo.sol\":4503:4550  tokenAllowStates[IUniswapV2Pair(pair).token1()] */\n      swap1\n      swap2\n      pop\n        /* \"v2-core-master/contracts/FeeTo.sol\":4957:4981  token0AllowState.allowed */\n      0xff\n      and\n        /* \"v2-core-master/contracts/FeeTo.sol\":4957:5022  token0AllowState.allowed &&\r... */\n      dup1\n      iszero\n      tag_54\n      jumpi\n      pop\n        /* \"v2-core-master/contracts/FeeTo.sol\":4998:5022  token1AllowState.allowed */\n      dup1\n      sload\n      0xff\n      and\n        /* \"v2-core-master/contracts/FeeTo.sol\":4957:5022  token0AllowState.allowed &&\r... */\n    tag_54:\n        /* \"v2-core-master/contracts/FeeTo.sol\":4957:5107  token0AllowState.allowed &&\r... */\n      dup1\n      iszero\n      tag_55\n      jumpi\n      pop\n        /* \"v2-core-master/contracts/FeeTo.sol\":5073:5107  pairAllowState.token0DisallowCount */\n      dup3\n      sload\n        /* \"v2-core-master/contracts/FeeTo.sol\":5039:5069  token0AllowState.disallowCount */\n      dup3\n      sload\n        /* \"v2-core-master/contracts/FeeTo.sol\":5073:5107  pairAllowState.token0DisallowCount */\n      0x0100\n        /* \"v2-core-master/contracts/FeeTo.sol\":5039:5069  token0AllowState.disallowCount */\n      swap1\n      div\n      sub(shl(0x80, 0x01), 0x01)\n      swap1\n      dup2\n      and\n        /* \"v2-core-master/contracts/FeeTo.sol\":5073:5107  pairAllowState.token0DisallowCount */\n      swap2\n      and\n        /* \"v2-core-master/contracts/FeeTo.sol\":5039:5107  token0AllowState.disallowCount == pairAllowState.token0DisallowCount */\n      eq\n        /* \"v2-core-master/contracts/FeeTo.sol\":4957:5107  token0AllowState.allowed &&\r... */\n    tag_55:\n        /* \"v2-core-master/contracts/FeeTo.sol\":4957:5192  token0AllowState.allowed &&\r... */\n      dup1\n      iszero\n      tag_56\n      jumpi\n      pop\n        /* \"v2-core-master/contracts/FeeTo.sol\":5158:5192  pairAllowState.token1DisallowCount */\n      dup3\n      sload\n        /* \"v2-core-master/contracts/FeeTo.sol\":5124:5154  token1AllowState.disallowCount */\n      dup2\n      sload\n        /* \"v2-core-master/contracts/FeeTo.sol\":5158:5192  pairAllowState.token1DisallowCount */\n      0x0100\n        /* \"v2-core-master/contracts/FeeTo.sol\":5124:5154  token1AllowState.disallowCount */\n      swap1\n      div\n      sub(shl(0x80, 0x01), 0x01)\n      swap1\n      dup2\n      and\n      shl(0x80, 0x01)\n        /* \"v2-core-master/contracts/FeeTo.sol\":5158:5192  pairAllowState.token1DisallowCount */\n      swap1\n      swap3\n      div\n      and\n        /* \"v2-core-master/contracts/FeeTo.sol\":5124:5192  token1AllowState.disallowCount == pairAllowState.token1DisallowCount */\n      eq\n        /* \"v2-core-master/contracts/FeeTo.sol\":4957:5192  token0AllowState.allowed &&\r... */\n    tag_56:\n        /* \"v2-core-master/contracts/FeeTo.sol\":4957:5235  token0AllowState.allowed &&\r... */\n      dup1\n      iszero\n      tag_57\n      jumpi\n      pop\n        /* \"v2-core-master/contracts/FeeTo.sol\":5209:5221  feeRecipient */\n      and(sub(shl(0xa0, 0x01), 0x01), sload(0x01))\n        /* \"v2-core-master/contracts/FeeTo.sol\":5209:5235  feeRecipient != address(0) */\n      iszero\n      iszero\n        /* \"v2-core-master/contracts/FeeTo.sol\":4957:5235  token0AllowState.allowed &&\r... */\n    tag_57:\n        /* \"v2-core-master/contracts/FeeTo.sol\":4939:5562  if (\r... */\n      iszero\n      tag_66\n      jumpi\n        /* \"v2-core-master/contracts/FeeTo.sol\":5270:5315  IUniswapV2Pair(pair).balanceOf(address(this)) */\n      0x40\n      dup1\n      mload\n      shl(0xe0, 0x70a08231)\n      dup2\n      mstore\n        /* \"v2-core-master/contracts/FeeTo.sol\":5309:5313  this */\n      address\n        /* \"v2-core-master/contracts/FeeTo.sol\":5270:5315  IUniswapV2Pair(pair).balanceOf(address(this)) */\n      0x04\n      dup3\n      add\n      mstore\n      swap1\n      mload\n      sub(shl(0xa0, 0x01), 0x01)\n        /* \"v2-core-master/contracts/FeeTo.sol\":5270:5300  IUniswapV2Pair(pair).balanceOf */\n      dup8\n      and\n      swap2\n      0x70a08231\n      swap2\n        /* \"v2-core-master/contracts/FeeTo.sol\":5270:5315  IUniswapV2Pair(pair).balanceOf(address(this)) */\n      0x24\n      dup1\n      dup4\n      add\n      swap3\n      0x20\n      swap3\n      swap2\n      swap1\n      dup3\n      swap1\n      sub\n      add\n      dup2\n        /* \"v2-core-master/contracts/FeeTo.sol\":5270:5300  IUniswapV2Pair(pair).balanceOf */\n      dup7\n        /* \"v2-core-master/contracts/FeeTo.sol\":5270:5315  IUniswapV2Pair(pair).balanceOf(address(this)) */\n      dup1\n      extcodesize\n      iszero\n        /* \"--CODEGEN--\":5:7   */\n      dup1\n      iszero\n      tag_59\n      jumpi\n        /* \"--CODEGEN--\":30:31   */\n      0x00\n        /* \"--CODEGEN--\":27:28   */\n      dup1\n        /* \"--CODEGEN--\":20:32   */\n      revert\n        /* \"--CODEGEN--\":5:7   */\n    tag_59:\n        /* \"v2-core-master/contracts/FeeTo.sol\":5270:5315  IUniswapV2Pair(pair).balanceOf(address(this)) */\n      pop\n      gas\n      staticcall\n      iszero\n        /* \"--CODEGEN--\":8:17   */\n      dup1\n        /* \"--CODEGEN--\":5:7   */\n      iszero\n      tag_60\n      jumpi\n        /* \"--CODEGEN--\":45:61   */\n      returndatasize\n        /* \"--CODEGEN--\":42:43   */\n      0x00\n        /* \"--CODEGEN--\":39:40   */\n      dup1\n        /* \"--CODEGEN--\":24:62   */\n      returndatacopy\n        /* \"--CODEGEN--\":77:93   */\n      returndatasize\n        /* \"--CODEGEN--\":74:75   */\n      0x00\n        /* \"--CODEGEN--\":67:94   */\n      revert\n        /* \"--CODEGEN--\":5:7   */\n    tag_60:\n        /* \"v2-core-master/contracts/FeeTo.sol\":5270:5315  IUniswapV2Pair(pair).balanceOf(address(this)) */\n      pop\n      pop\n      pop\n      pop\n      mload(0x40)\n      returndatasize\n        /* \"--CODEGEN--\":13:15   */\n      0x20\n        /* \"--CODEGEN--\":8:11   */\n      dup2\n        /* \"--CODEGEN--\":5:16   */\n      lt\n        /* \"--CODEGEN--\":2:4   */\n      iszero\n      tag_61\n      jumpi\n        /* \"--CODEGEN--\":29:30   */\n      0x00\n        /* \"--CODEGEN--\":26:27   */\n      dup1\n        /* \"--CODEGEN--\":19:31   */\n      revert\n        /* \"--CODEGEN--\":2:4   */\n    tag_61:\n      pop\n        /* \"v2-core-master/contracts/FeeTo.sol\":5270:5315  IUniswapV2Pair(pair).balanceOf(address(this)) */\n      mload\n      swap4\n      pop\n        /* \"v2-core-master/contracts/FeeTo.sol\":5334:5343  value > 0 */\n      dup4\n      iszero\n        /* \"v2-core-master/contracts/FeeTo.sol\":5330:5551  if (value > 0) {\r... */\n      tag_66\n      jumpi\n        /* \"v2-core-master/contracts/FeeTo.sol\":5514:5526  feeRecipient */\n      sload(0x01)\n        /* \"v2-core-master/contracts/FeeTo.sol\":5484:5534  IUniswapV2Pair(pair).transfer(feeRecipient, value) */\n      0x40\n      dup1\n      mload\n      shl(0xe0, 0xa9059cbb)\n      dup2\n      mstore\n      sub(shl(0xa0, 0x01), 0x01)\n        /* \"v2-core-master/contracts/FeeTo.sol\":5514:5526  feeRecipient */\n      swap3\n      dup4\n      and\n        /* \"v2-core-master/contracts/FeeTo.sol\":5484:5534  IUniswapV2Pair(pair).transfer(feeRecipient, value) */\n      0x04\n      dup3\n      add\n      mstore\n      0x24\n      dup2\n      add\n      dup8\n      swap1\n      mstore\n      swap1\n      mload\n        /* \"v2-core-master/contracts/FeeTo.sol\":5484:5513  IUniswapV2Pair(pair).transfer */\n      swap2\n      dup8\n      and\n      swap2\n      0xa9059cbb\n      swap2\n        /* \"v2-core-master/contracts/FeeTo.sol\":5484:5534  IUniswapV2Pair(pair).transfer(feeRecipient, value) */\n      0x44\n      dup1\n      dup3\n      add\n      swap3\n      0x20\n      swap3\n      swap1\n      swap2\n      swap1\n      dup3\n      swap1\n      sub\n      add\n      dup2\n        /* \"v2-core-master/contracts/FeeTo.sol\":5514:5526  feeRecipient */\n      0x00\n        /* \"v2-core-master/contracts/FeeTo.sol\":5484:5513  IUniswapV2Pair(pair).transfer */\n      dup8\n        /* \"v2-core-master/contracts/FeeTo.sol\":5484:5534  IUniswapV2Pair(pair).transfer(feeRecipient, value) */\n      dup1\n      extcodesize\n      iszero\n        /* \"--CODEGEN--\":5:7   */\n      dup1\n      iszero\n      tag_63\n      jumpi\n        /* \"--CODEGEN--\":30:31   */\n      0x00\n        /* \"--CODEGEN--\":27:28   */\n      dup1\n        /* \"--CODEGEN--\":20:32   */\n      revert\n        /* \"--CODEGEN--\":5:7   */\n    tag_63:\n        /* \"v2-core-master/contracts/FeeTo.sol\":5484:5534  IUniswapV2Pair(pair).transfer(feeRecipient, value) */\n      pop\n      gas\n      call\n      iszero\n        /* \"--CODEGEN--\":8:17   */\n      dup1\n        /* \"--CODEGEN--\":5:7   */\n      iszero\n      tag_64\n      jumpi\n        /* \"--CODEGEN--\":45:61   */\n      returndatasize\n        /* \"--CODEGEN--\":42:43   */\n      0x00\n        /* \"--CODEGEN--\":39:40   */\n      dup1\n        /* \"--CODEGEN--\":24:62   */\n      returndatacopy\n        /* \"--CODEGEN--\":77:93   */\n      returndatasize\n        /* \"--CODEGEN--\":74:75   */\n      0x00\n        /* \"--CODEGEN--\":67:94   */\n      revert\n        /* \"--CODEGEN--\":5:7   */\n    tag_64:\n        /* \"v2-core-master/contracts/FeeTo.sol\":5484:5534  IUniswapV2Pair(pair).transfer(feeRecipient, value) */\n      pop\n      pop\n      pop\n      pop\n      mload(0x40)\n      returndatasize\n        /* \"--CODEGEN--\":13:15   */\n      0x20\n        /* \"--CODEGEN--\":8:11   */\n      dup2\n        /* \"--CODEGEN--\":5:16   */\n      lt\n        /* \"--CODEGEN--\":2:4   */\n      iszero\n      tag_65\n      jumpi\n        /* \"--CODEGEN--\":29:30   */\n      0x00\n        /* \"--CODEGEN--\":26:27   */\n      dup1\n        /* \"--CODEGEN--\":19:31   */\n      revert\n        /* \"--CODEGEN--\":2:4   */\n    tag_65:\n      pop\n        /* \"v2-core-master/contracts/FeeTo.sol\":5484:5534  IUniswapV2Pair(pair).transfer(feeRecipient, value) */\n      mload\n        /* \"v2-core-master/contracts/FeeTo.sol\":5477:5535  assert(IUniswapV2Pair(pair).transfer(feeRecipient, value)) */\n      tag_66\n      jumpi\n      invalid\n    tag_66:\n        /* \"v2-core-master/contracts/FeeTo.sol\":4219:5569  function claim(address pair) public returns (uint value) {\r... */\n      pop\n      pop\n      pop\n      swap2\n      swap1\n      pop\n      jump\t// out\n        /* \"v2-core-master/contracts/FeeTo.sol\":2283:4211  function renounce(address pair) public returns (uint value) {\r... */\n    tag_22:\n        /* \"v2-core-master/contracts/FeeTo.sol\":2331:2341  uint value */\n      0x00\n        /* \"v2-core-master/contracts/FeeTo.sol\":2354:2391  PairAllowState storage pairAllowState */\n      dup1\n        /* \"v2-core-master/contracts/FeeTo.sol\":2394:2409  pairAllowStates */\n      0x03\n        /* \"v2-core-master/contracts/FeeTo.sol\":2394:2415  pairAllowStates[pair] */\n      0x00\n        /* \"v2-core-master/contracts/FeeTo.sol\":2410:2414  pair */\n      dup5\n      sub(shl(0xa0, 0x01), 0x01)\n        /* \"v2-core-master/contracts/FeeTo.sol\":2394:2415  pairAllowStates[pair] */\n      and\n      sub(shl(0xa0, 0x01), 0x01)\n      and\n      dup2\n      mstore\n      0x20\n      add\n      swap1\n      dup2\n      mstore\n      0x20\n      add\n      0x00\n      keccak256\n        /* \"v2-core-master/contracts/FeeTo.sol\":2354:2415  PairAllowState storage pairAllowState = pairAllowStates[pair] */\n      swap1\n      pop\n        /* \"v2-core-master/contracts/FeeTo.sol\":2426:2466  TokenAllowState storage token0AllowState */\n      0x00\n        /* \"v2-core-master/contracts/FeeTo.sol\":2469:2485  tokenAllowStates */\n      0x02\n        /* \"v2-core-master/contracts/FeeTo.sol\":2469:2516  tokenAllowStates[IUniswapV2Pair(pair).token0()] */\n      0x00\n        /* \"v2-core-master/contracts/FeeTo.sol\":2501:2505  pair */\n      dup6\n      sub(shl(0xa0, 0x01), 0x01)\n        /* \"v2-core-master/contracts/FeeTo.sol\":2486:2513  IUniswapV2Pair(pair).token0 */\n      and\n      0x0dfe1681\n        /* \"v2-core-master/contracts/FeeTo.sol\":2486:2515  IUniswapV2Pair(pair).token0() */\n      mload(0x40)\n      dup2\n      0xffffffff\n      and\n      0xe0\n      shl\n      dup2\n      mstore\n      0x04\n      add\n      0x20\n      mload(0x40)\n      dup1\n      dup4\n      sub\n      dup2\n      dup7\n      dup1\n      extcodesize\n      iszero\n        /* \"--CODEGEN--\":8:17   */\n      dup1\n        /* \"--CODEGEN--\":5:7   */\n      iszero\n      tag_68\n      jumpi\n        /* \"--CODEGEN--\":30:31   */\n      0x00\n        /* \"--CODEGEN--\":27:28   */\n      dup1\n        /* \"--CODEGEN--\":20:32   */\n      revert\n        /* \"--CODEGEN--\":5:7   */\n    tag_68:\n        /* \"v2-core-master/contracts/FeeTo.sol\":2486:2515  IUniswapV2Pair(pair).token0() */\n      pop\n      gas\n      staticcall\n      iszero\n        /* \"--CODEGEN--\":8:17   */\n      dup1\n        /* \"--CODEGEN--\":5:7   */\n      iszero\n      tag_69\n      jumpi\n        /* \"--CODEGEN--\":45:61   */\n      returndatasize\n        /* \"--CODEGEN--\":42:43   */\n      0x00\n        /* \"--CODEGEN--\":39:40   */\n      dup1\n        /* \"--CODEGEN--\":24:62   */\n      returndatacopy\n        /* \"--CODEGEN--\":77:93   */\n      returndatasize\n        /* \"--CODEGEN--\":74:75   */\n      0x00\n        /* \"--CODEGEN--\":67:94   */\n      revert\n        /* \"--CODEGEN--\":5:7   */\n    tag_69:\n        /* \"v2-core-master/contracts/FeeTo.sol\":2486:2515  IUniswapV2Pair(pair).token0() */\n      pop\n      pop\n      pop\n      pop\n      mload(0x40)\n      returndatasize\n        /* \"--CODEGEN--\":13:15   */\n      0x20\n        /* \"--CODEGEN--\":8:11   */\n      dup2\n        /* \"--CODEGEN--\":5:16   */\n      lt\n        /* \"--CODEGEN--\":2:4   */\n      iszero\n      tag_70\n      jumpi\n        /* \"--CODEGEN--\":29:30   */\n      0x00\n        /* \"--CODEGEN--\":26:27   */\n      dup1\n        /* \"--CODEGEN--\":19:31   */\n      revert\n        /* \"--CODEGEN--\":2:4   */\n    tag_70:\n        /* \"v2-core-master/contracts/FeeTo.sol\":2486:2515  IUniswapV2Pair(pair).token0() */\n      dup2\n      add\n      swap1\n      dup1\n      dup1\n      mload\n      swap1\n      0x20\n      add\n      swap1\n      swap3\n      swap2\n      swap1\n      pop\n      pop\n      pop\n      sub(shl(0xa0, 0x01), 0x01)\n        /* \"v2-core-master/contracts/FeeTo.sol\":2469:2516  tokenAllowStates[IUniswapV2Pair(pair).token0()] */\n      and\n      sub(shl(0xa0, 0x01), 0x01)\n      and\n      dup2\n      mstore\n      0x20\n      add\n      swap1\n      dup2\n      mstore\n      0x20\n      add\n      0x00\n      keccak256\n        /* \"v2-core-master/contracts/FeeTo.sol\":2426:2516  TokenAllowState storage token0AllowState = tokenAllowStates[IUniswapV2Pair(pair).token0()] */\n      swap1\n      pop\n        /* \"v2-core-master/contracts/FeeTo.sol\":2527:2567  TokenAllowState storage token1AllowState */\n      0x00\n        /* \"v2-core-master/contracts/FeeTo.sol\":2570:2586  tokenAllowStates */\n      0x02\n        /* \"v2-core-master/contracts/FeeTo.sol\":2570:2617  tokenAllowStates[IUniswapV2Pair(pair).token1()] */\n      0x00\n        /* \"v2-core-master/contracts/FeeTo.sol\":2602:2606  pair */\n      dup7\n      sub(shl(0xa0, 0x01), 0x01)\n        /* \"v2-core-master/contracts/FeeTo.sol\":2587:2614  IUniswapV2Pair(pair).token1 */\n      and\n      0xd21220a7\n        /* \"v2-core-master/contracts/FeeTo.sol\":2587:2616  IUniswapV2Pair(pair).token1() */\n      mload(0x40)\n      dup2\n      0xffffffff\n      and\n      0xe0\n      shl\n      dup2\n      mstore\n      0x04\n      add\n      0x20\n      mload(0x40)\n      dup1\n      dup4\n      sub\n      dup2\n      dup7\n      dup1\n      extcodesize\n      iszero\n        /* \"--CODEGEN--\":8:17   */\n      dup1\n        /* \"--CODEGEN--\":5:7   */\n      iszero\n      tag_71\n      jumpi\n        /* \"--CODEGEN--\":30:31   */\n      0x00\n        /* \"--CODEGEN--\":27:28   */\n      dup1\n        /* \"--CODEGEN--\":20:32   */\n      revert\n        /* \"--CODEGEN--\":5:7   */\n    tag_71:\n        /* \"v2-core-master/contracts/FeeTo.sol\":2587:2616  IUniswapV2Pair(pair).token1() */\n      pop\n      gas\n      staticcall\n      iszero\n        /* \"--CODEGEN--\":8:17   */\n      dup1\n        /* \"--CODEGEN--\":5:7   */\n      iszero\n      tag_72\n      jumpi\n        /* \"--CODEGEN--\":45:61   */\n      returndatasize\n        /* \"--CODEGEN--\":42:43   */\n      0x00\n        /* \"--CODEGEN--\":39:40   */\n      dup1\n        /* \"--CODEGEN--\":24:62   */\n      returndatacopy\n        /* \"--CODEGEN--\":77:93   */\n      returndatasize\n        /* \"--CODEGEN--\":74:75   */\n      0x00\n        /* \"--CODEGEN--\":67:94   */\n      revert\n        /* \"--CODEGEN--\":5:7   */\n    tag_72:\n        /* \"v2-core-master/contracts/FeeTo.sol\":2587:2616  IUniswapV2Pair(pair).token1() */\n      pop\n      pop\n      pop\n      pop\n      mload(0x40)\n      returndatasize\n        /* \"--CODEGEN--\":13:15   */\n      0x20\n        /* \"--CODEGEN--\":8:11   */\n      dup2\n        /* \"--CODEGEN--\":5:16   */\n      lt\n        /* \"--CODEGEN--\":2:4   */\n      iszero\n      tag_73\n      jumpi\n        /* \"--CODEGEN--\":29:30   */\n      0x00\n        /* \"--CODEGEN--\":26:27   */\n      dup1\n        /* \"--CODEGEN--\":19:31   */\n      revert\n        /* \"--CODEGEN--\":2:4   */\n    tag_73:\n      pop\n        /* \"v2-core-master/contracts/FeeTo.sol\":2587:2616  IUniswapV2Pair(pair).token1() */\n      mload\n      sub(shl(0xa0, 0x01), 0x01)\n        /* \"v2-core-master/contracts/FeeTo.sol\":2570:2617  tokenAllowStates[IUniswapV2Pair(pair).token1()] */\n      and\n      dup2\n      mstore\n        /* \"v2-core-master/contracts/FeeTo.sol\":2587:2616  IUniswapV2Pair(pair).token1() */\n      0x20\n        /* \"v2-core-master/contracts/FeeTo.sol\":2570:2617  tokenAllowStates[IUniswapV2Pair(pair).token1()] */\n      dup2\n      add\n      swap2\n      swap1\n      swap2\n      mstore\n      0x40\n      add\n      0x00\n      keccak256\n        /* \"v2-core-master/contracts/FeeTo.sol\":3001:3025  token0AllowState.allowed */\n      dup3\n      sload\n        /* \"v2-core-master/contracts/FeeTo.sol\":2570:2617  tokenAllowStates[IUniswapV2Pair(pair).token1()] */\n      swap1\n      swap2\n      pop\n        /* \"v2-core-master/contracts/FeeTo.sol\":3001:3025  token0AllowState.allowed */\n      0xff\n      and\n        /* \"v2-core-master/contracts/FeeTo.sol\":3001:3034  token0AllowState.allowed == false */\n      iszero\n      dup1\n        /* \"v2-core-master/contracts/FeeTo.sol\":3001:3084  token0AllowState.allowed == false ||\r... */\n      tag_74\n      jumpi\n      pop\n        /* \"v2-core-master/contracts/FeeTo.sol\":3051:3075  token1AllowState.allowed */\n      dup1\n      sload\n      0xff\n      and\n        /* \"v2-core-master/contracts/FeeTo.sol\":3051:3084  token1AllowState.allowed == false */\n      iszero\n        /* \"v2-core-master/contracts/FeeTo.sol\":3001:3084  token0AllowState.allowed == false ||\r... */\n    tag_74:\n        /* \"v2-core-master/contracts/FeeTo.sol\":3001:3168  token0AllowState.allowed == false ||\r... */\n      dup1\n      tag_75\n      jumpi\n      pop\n        /* \"v2-core-master/contracts/FeeTo.sol\":3134:3168  pairAllowState.token0DisallowCount */\n      dup3\n      sload\n        /* \"v2-core-master/contracts/FeeTo.sol\":3101:3131  token0AllowState.disallowCount */\n      dup3\n      sload\n      sub(shl(0x80, 0x01), 0x01)\n        /* \"v2-core-master/contracts/FeeTo.sol\":3134:3168  pairAllowState.token0DisallowCount */\n      swap2\n      dup3\n      and\n      0x0100\n        /* \"v2-core-master/contracts/FeeTo.sol\":3101:3131  token0AllowState.disallowCount */\n      swap1\n      swap2\n      div\n      swap1\n      swap2\n      and\n        /* \"v2-core-master/contracts/FeeTo.sol\":3101:3168  token0AllowState.disallowCount > pairAllowState.token0DisallowCount */\n      gt\n        /* \"v2-core-master/contracts/FeeTo.sol\":3001:3168  token0AllowState.allowed == false ||\r... */\n    tag_75:\n        /* \"v2-core-master/contracts/FeeTo.sol\":3001:3252  token0AllowState.allowed == false ||\r... */\n      dup1\n      tag_76\n      jumpi\n      pop\n        /* \"v2-core-master/contracts/FeeTo.sol\":3218:3252  pairAllowState.token1DisallowCount */\n      dup3\n      sload\n        /* \"v2-core-master/contracts/FeeTo.sol\":3185:3215  token1AllowState.disallowCount */\n      dup2\n      sload\n      shl(0x80, 0x01)\n        /* \"v2-core-master/contracts/FeeTo.sol\":3218:3252  pairAllowState.token1DisallowCount */\n      swap1\n      swap2\n      div\n      sub(shl(0x80, 0x01), 0x01)\n      swap1\n      dup2\n      and\n      0x0100\n        /* \"v2-core-master/contracts/FeeTo.sol\":3185:3215  token1AllowState.disallowCount */\n      swap1\n      swap3\n      div\n      and\n        /* \"v2-core-master/contracts/FeeTo.sol\":3185:3252  token1AllowState.disallowCount > pairAllowState.token1DisallowCount */\n      gt\n        /* \"v2-core-master/contracts/FeeTo.sol\":3001:3252  token0AllowState.allowed == false ||\r... */\n    tag_76:\n        /* \"v2-core-master/contracts/FeeTo.sol\":2983:4204  if (\r... */\n      iszero\n      tag_66\n      jumpi\n        /* \"v2-core-master/contracts/FeeTo.sol\":3287:3332  IUniswapV2Pair(pair).balanceOf(address(this)) */\n      0x40\n      dup1\n      mload\n      shl(0xe0, 0x70a08231)\n      dup2\n      mstore\n        /* \"v2-core-master/contracts/FeeTo.sol\":3326:3330  this */\n      address\n        /* \"v2-core-master/contracts/FeeTo.sol\":3287:3332  IUniswapV2Pair(pair).balanceOf(address(this)) */\n      0x04\n      dup3\n      add\n      mstore\n      swap1\n      mload\n      sub(shl(0xa0, 0x01), 0x01)\n        /* \"v2-core-master/contracts/FeeTo.sol\":3287:3317  IUniswapV2Pair(pair).balanceOf */\n      dup8\n      and\n      swap2\n      0x70a08231\n      swap2\n        /* \"v2-core-master/contracts/FeeTo.sol\":3287:3332  IUniswapV2Pair(pair).balanceOf(address(this)) */\n      0x24\n      dup1\n      dup4\n      add\n      swap3\n      0x20\n      swap3\n      swap2\n      swap1\n      dup3\n      swap1\n      sub\n      add\n      dup2\n        /* \"v2-core-master/contracts/FeeTo.sol\":3287:3317  IUniswapV2Pair(pair).balanceOf */\n      dup7\n        /* \"v2-core-master/contracts/FeeTo.sol\":3287:3332  IUniswapV2Pair(pair).balanceOf(address(this)) */\n      dup1\n      extcodesize\n      iszero\n        /* \"--CODEGEN--\":5:7   */\n      dup1\n      iszero\n      tag_78\n      jumpi\n        /* \"--CODEGEN--\":30:31   */\n      0x00\n        /* \"--CODEGEN--\":27:28   */\n      dup1\n        /* \"--CODEGEN--\":20:32   */\n      revert\n        /* \"--CODEGEN--\":5:7   */\n    tag_78:\n        /* \"v2-core-master/contracts/FeeTo.sol\":3287:3332  IUniswapV2Pair(pair).balanceOf(address(this)) */\n      pop\n      gas\n      staticcall\n      iszero\n        /* \"--CODEGEN--\":8:17   */\n      dup1\n        /* \"--CODEGEN--\":5:7   */\n      iszero\n      tag_79\n      jumpi\n        /* \"--CODEGEN--\":45:61   */\n      returndatasize\n        /* \"--CODEGEN--\":42:43   */\n      0x00\n        /* \"--CODEGEN--\":39:40   */\n      dup1\n        /* \"--CODEGEN--\":24:62   */\n      returndatacopy\n        /* \"--CODEGEN--\":77:93   */\n      returndatasize\n        /* \"--CODEGEN--\":74:75   */\n      0x00\n        /* \"--CODEGEN--\":67:94   */\n      revert\n        /* \"--CODEGEN--\":5:7   */\n    tag_79:\n        /* \"v2-core-master/contracts/FeeTo.sol\":3287:3332  IUniswapV2Pair(pair).balanceOf(address(this)) */\n      pop\n      pop\n      pop\n      pop\n      mload(0x40)\n      returndatasize\n        /* \"--CODEGEN--\":13:15   */\n      0x20\n        /* \"--CODEGEN--\":8:11   */\n      dup2\n        /* \"--CODEGEN--\":5:16   */\n      lt\n        /* \"--CODEGEN--\":2:4   */\n      iszero\n      tag_80\n      jumpi\n        /* \"--CODEGEN--\":29:30   */\n      0x00\n        /* \"--CODEGEN--\":26:27   */\n      dup1\n        /* \"--CODEGEN--\":19:31   */\n      revert\n        /* \"--CODEGEN--\":2:4   */\n    tag_80:\n      pop\n        /* \"v2-core-master/contracts/FeeTo.sol\":3287:3332  IUniswapV2Pair(pair).balanceOf(address(this)) */\n      mload\n      swap4\n      pop\n        /* \"v2-core-master/contracts/FeeTo.sol\":3351:3360  value > 0 */\n      dup4\n      iszero\n        /* \"v2-core-master/contracts/FeeTo.sol\":3347:3693  if (value > 0) {\r... */\n      tag_81\n      jumpi\n        /* \"v2-core-master/contracts/FeeTo.sol\":3584:3626  IUniswapV2Pair(pair).transfer(pair, value) */\n      0x40\n      dup1\n      mload\n      shl(0xe0, 0xa9059cbb)\n      dup2\n      mstore\n      sub(shl(0xa0, 0x01), 0x01)\n        /* \"v2-core-master/contracts/FeeTo.sol\":3584:3613  IUniswapV2Pair(pair).transfer */\n      dup8\n      and\n        /* \"v2-core-master/contracts/FeeTo.sol\":3584:3626  IUniswapV2Pair(pair).transfer(pair, value) */\n      0x04\n      dup3\n      add\n      dup2\n      swap1\n      mstore\n      0x24\n      dup3\n      add\n      dup8\n      swap1\n      mstore\n      swap2\n      mload\n        /* \"v2-core-master/contracts/FeeTo.sol\":3584:3613  IUniswapV2Pair(pair).transfer */\n      0xa9059cbb\n      swap2\n        /* \"v2-core-master/contracts/FeeTo.sol\":3584:3626  IUniswapV2Pair(pair).transfer(pair, value) */\n      0x44\n      dup1\n      dup3\n      add\n      swap3\n      0x20\n      swap3\n      swap1\n      swap2\n      swap1\n      dup3\n      swap1\n      sub\n      add\n      dup2\n      0x00\n        /* \"v2-core-master/contracts/FeeTo.sol\":3584:3613  IUniswapV2Pair(pair).transfer */\n      dup8\n        /* \"v2-core-master/contracts/FeeTo.sol\":3584:3626  IUniswapV2Pair(pair).transfer(pair, value) */\n      dup1\n      extcodesize\n      iszero\n        /* \"--CODEGEN--\":5:7   */\n      dup1\n      iszero\n      tag_82\n      jumpi\n        /* \"--CODEGEN--\":30:31   */\n      0x00\n        /* \"--CODEGEN--\":27:28   */\n      dup1\n        /* \"--CODEGEN--\":20:32   */\n      revert\n        /* \"--CODEGEN--\":5:7   */\n    tag_82:\n        /* \"v2-core-master/contracts/FeeTo.sol\":3584:3626  IUniswapV2Pair(pair).transfer(pair, value) */\n      pop\n      gas\n      call\n      iszero\n        /* \"--CODEGEN--\":8:17   */\n      dup1\n        /* \"--CODEGEN--\":5:7   */\n      iszero\n      tag_83\n      jumpi\n        /* \"--CODEGEN--\":45:61   */\n      returndatasize\n        /* \"--CODEGEN--\":42:43   */\n      0x00\n        /* \"--CODEGEN--\":39:40   */\n      dup1\n        /* \"--CODEGEN--\":24:62   */\n      returndatacopy\n        /* \"--CODEGEN--\":77:93   */\n      returndatasize\n        /* \"--CODEGEN--\":74:75   */\n      0x00\n        /* \"--CODEGEN--\":67:94   */\n      revert\n        /* \"--CODEGEN--\":5:7   */\n    tag_83:\n        /* \"v2-core-master/contracts/FeeTo.sol\":3584:3626  IUniswapV2Pair(pair).transfer(pair, value) */\n      pop\n      pop\n      pop\n      pop\n      mload(0x40)\n      returndatasize\n        /* \"--CODEGEN--\":13:15   */\n      0x20\n        /* \"--CODEGEN--\":8:11   */\n      dup2\n        /* \"--CODEGEN--\":5:16   */\n      lt\n        /* \"--CODEGEN--\":2:4   */\n      iszero\n      tag_84\n      jumpi\n        /* \"--CODEGEN--\":29:30   */\n      0x00\n        /* \"--CODEGEN--\":26:27   */\n      dup1\n        /* \"--CODEGEN--\":19:31   */\n      revert\n        /* \"--CODEGEN--\":2:4   */\n    tag_84:\n      pop\n        /* \"v2-core-master/contracts/FeeTo.sol\":3584:3626  IUniswapV2Pair(pair).transfer(pair, value) */\n      mload\n        /* \"v2-core-master/contracts/FeeTo.sol\":3577:3627  assert(IUniswapV2Pair(pair).transfer(pair, value)) */\n      tag_85\n      jumpi\n      invalid\n    tag_85:\n        /* \"v2-core-master/contracts/FeeTo.sol\":3646:3677  IUniswapV2Pair(pair).burn(pair) */\n      0x40\n      dup1\n      mload\n      shl(0xe2, 0x226bf2d1)\n      dup2\n      mstore\n      sub(shl(0xa0, 0x01), 0x01)\n        /* \"v2-core-master/contracts/FeeTo.sol\":3646:3671  IUniswapV2Pair(pair).burn */\n      dup8\n      and\n        /* \"v2-core-master/contracts/FeeTo.sol\":3646:3677  IUniswapV2Pair(pair).burn(pair) */\n      0x04\n      dup3\n      add\n      dup2\n      swap1\n      mstore\n      dup3\n      mload\n        /* \"v2-core-master/contracts/FeeTo.sol\":3646:3671  IUniswapV2Pair(pair).burn */\n      swap1\n      swap3\n      0x89afcb44\n      swap3\n        /* \"v2-core-master/contracts/FeeTo.sol\":3646:3677  IUniswapV2Pair(pair).burn(pair) */\n      0x24\n      dup1\n      dup3\n      add\n      swap4\n      swap2\n      dup3\n      swap1\n      sub\n      add\n      dup2\n      0x00\n        /* \"v2-core-master/contracts/FeeTo.sol\":3646:3671  IUniswapV2Pair(pair).burn */\n      dup8\n        /* \"v2-core-master/contracts/FeeTo.sol\":3646:3677  IUniswapV2Pair(pair).burn(pair) */\n      dup1\n      extcodesize\n      iszero\n        /* \"--CODEGEN--\":5:7   */\n      dup1\n      iszero\n      tag_86\n      jumpi\n        /* \"--CODEGEN--\":30:31   */\n      0x00\n        /* \"--CODEGEN--\":27:28   */\n      dup1\n        /* \"--CODEGEN--\":20:32   */\n      revert\n        /* \"--CODEGEN--\":5:7   */\n    tag_86:\n        /* \"v2-core-master/contracts/FeeTo.sol\":3646:3677  IUniswapV2Pair(pair).burn(pair) */\n      pop\n      gas\n      call\n      iszero\n        /* \"--CODEGEN--\":8:17   */\n      dup1\n        /* \"--CODEGEN--\":5:7   */\n      iszero\n      tag_87\n      jumpi\n        /* \"--CODEGEN--\":45:61   */\n      returndatasize\n        /* \"--CODEGEN--\":42:43   */\n      0x00\n        /* \"--CODEGEN--\":39:40   */\n      dup1\n        /* \"--CODEGEN--\":24:62   */\n      returndatacopy\n        /* \"--CODEGEN--\":77:93   */\n      returndatasize\n        /* \"--CODEGEN--\":74:75   */\n      0x00\n        /* \"--CODEGEN--\":67:94   */\n      revert\n        /* \"--CODEGEN--\":5:7   */\n    tag_87:\n        /* \"v2-core-master/contracts/FeeTo.sol\":3646:3677  IUniswapV2Pair(pair).burn(pair) */\n      pop\n      pop\n      pop\n      pop\n      mload(0x40)\n      returndatasize\n        /* \"--CODEGEN--\":13:15   */\n      0x40\n        /* \"--CODEGEN--\":8:11   */\n      dup2\n        /* \"--CODEGEN--\":5:16   */\n      lt\n        /* \"--CODEGEN--\":2:4   */\n      iszero\n      tag_88\n      jumpi\n        /* \"--CODEGEN--\":29:30   */\n      0x00\n        /* \"--CODEGEN--\":26:27   */\n      dup1\n        /* \"--CODEGEN--\":19:31   */\n      revert\n        /* \"--CODEGEN--\":2:4   */\n    tag_88:\n      pop\n      pop\n        /* \"v2-core-master/contracts/FeeTo.sol\":3347:3693  if (value > 0) {\r... */\n    tag_81:\n        /* \"v2-core-master/contracts/FeeTo.sol\":3816:3840  token0AllowState.allowed */\n      dup2\n      sload\n      0xff\n      and\n        /* \"v2-core-master/contracts/FeeTo.sol\":3812:3944  if (token0AllowState.allowed) {\r... */\n      iszero\n      tag_89\n      jumpi\n        /* \"v2-core-master/contracts/FeeTo.sol\":3898:3928  token0AllowState.disallowCount */\n      dup2\n      sload\n        /* \"v2-core-master/contracts/FeeTo.sol\":3861:3928  pairAllowState.token0DisallowCount = token0AllowState.disallowCount */\n      dup4\n      sload\n        /* \"v2-core-master/contracts/FeeTo.sol\":3898:3928  token0AllowState.disallowCount */\n      0x0100\n      swap1\n      swap2\n      div\n      sub(shl(0x80, 0x01), 0x01)\n      and\n      not(0xffffffffffffffffffffffffffffffff)\n        /* \"v2-core-master/contracts/FeeTo.sol\":3861:3928  pairAllowState.token0DisallowCount = token0AllowState.disallowCount */\n      swap1\n      swap2\n      and\n      or\n      dup4\n      sstore\n        /* \"v2-core-master/contracts/FeeTo.sol\":3812:3944  if (token0AllowState.allowed) {\r... */\n    tag_89:\n        /* \"v2-core-master/contracts/FeeTo.sol\":4065:4089  token1AllowState.allowed */\n      dup1\n      sload\n      0xff\n      and\n        /* \"v2-core-master/contracts/FeeTo.sol\":4061:4193  if (token1AllowState.allowed) {\r... */\n      iszero\n      tag_66\n      jumpi\n        /* \"v2-core-master/contracts/FeeTo.sol\":4147:4177  token1AllowState.disallowCount */\n      sload\n        /* \"v2-core-master/contracts/FeeTo.sol\":4110:4177  pairAllowState.token1DisallowCount = token1AllowState.disallowCount */\n      dup3\n      sload\n      sub(shl(0x80, 0x01), 0x01)\n      swap1\n      dup2\n      and\n        /* \"v2-core-master/contracts/FeeTo.sol\":4147:4177  token1AllowState.disallowCount */\n      0x0100\n      swap1\n      swap3\n      div\n      and\n      shl(0x80, 0x01)\n        /* \"v2-core-master/contracts/FeeTo.sol\":4110:4177  pairAllowState.token1DisallowCount = token1AllowState.disallowCount */\n      mul\n      or\n      swap1\n      swap2\n      sstore\n      pop\n        /* \"v2-core-master/contracts/FeeTo.sol\":2283:4211  function renounce(address pair) public returns (uint value) {\r... */\n      swap2\n      swap1\n      pop\n      jump\t// out\n        /* \"v2-core-master/contracts/FeeTo.sol\":499:558  mapping(address => TokenAllowState) public tokenAllowStates */\n    tag_25:\n      mstore(0x20, 0x02)\n      0x00\n      swap1\n      dup2\n      mstore\n      0x40\n      swap1\n      keccak256\n      sload\n      0xff\n      dup2\n      and\n      swap1\n      0x0100\n      swap1\n      div\n      sub(shl(0x80, 0x01), 0x01)\n      and\n      dup3\n      jump\t// out\n        /* \"v2-core-master/contracts/FeeTo.sol\":368:395  address public feeRecipient */\n    tag_27:\n      and(sub(shl(0xa0, 0x01), 0x01), sload(0x01))\n      dup2\n      jump\t// out\n        /* \"v2-core-master/contracts/FeeTo.sol\":2074:2275  function updateTokenAllowStates(address[] memory tokens, bool allowed) public {\r... */\n    tag_33:\n        /* \"v2-core-master/contracts/FeeTo.sol\":2168:2174  uint i */\n      0x00\n        /* \"v2-core-master/contracts/FeeTo.sol\":2163:2268  for (uint i; i < tokens.length; i++) {\r... */\n    tag_92:\n        /* \"v2-core-master/contracts/FeeTo.sol\":2180:2186  tokens */\n      dup3\n        /* \"v2-core-master/contracts/FeeTo.sol\":2180:2193  tokens.length */\n      mload\n        /* \"v2-core-master/contracts/FeeTo.sol\":2176:2177  i */\n      dup2\n        /* \"v2-core-master/contracts/FeeTo.sol\":2176:2193  i < tokens.length */\n      lt\n        /* \"v2-core-master/contracts/FeeTo.sol\":2163:2268  for (uint i; i < tokens.length; i++) {\r... */\n      iszero\n      tag_93\n      jumpi\n        /* \"v2-core-master/contracts/FeeTo.sol\":2215:2256  updateTokenAllowState(tokens[i], allowed) */\n      tag_95\n        /* \"v2-core-master/contracts/FeeTo.sol\":2237:2243  tokens */\n      dup4\n        /* \"v2-core-master/contracts/FeeTo.sol\":2244:2245  i */\n      dup3\n        /* \"v2-core-master/contracts/FeeTo.sol\":2237:2246  tokens[i] */\n      dup2\n      mload\n      dup2\n      lt\n      tag_96\n      jumpi\n      invalid\n    tag_96:\n      0x20\n      mul\n      0x20\n      add\n      add\n      mload\n        /* \"v2-core-master/contracts/FeeTo.sol\":2248:2255  allowed */\n      dup4\n        /* \"v2-core-master/contracts/FeeTo.sol\":2215:2236  updateTokenAllowState */\n      tag_38\n        /* \"v2-core-master/contracts/FeeTo.sol\":2215:2256  updateTokenAllowState(tokens[i], allowed) */\n      jump\t// in\n    tag_95:\n        /* \"v2-core-master/contracts/FeeTo.sol\":2195:2198  i++ */\n      0x01\n      add\n        /* \"v2-core-master/contracts/FeeTo.sol\":2163:2268  for (uint i; i < tokens.length; i++) {\r... */\n      jump(tag_92)\n    tag_93:\n      pop\n        /* \"v2-core-master/contracts/FeeTo.sol\":2074:2275  function updateTokenAllowStates(address[] memory tokens, bool allowed) public {\r... */\n      pop\n      pop\n      jump\t// out\n        /* \"v2-core-master/contracts/FeeTo.sol\":341:361  address public owner */\n    tag_35:\n      and(sub(shl(0xa0, 0x01), 0x01), sload(0x00))\n      dup2\n      jump\t// out\n        /* \"v2-core-master/contracts/FeeTo.sol\":1162:2066  function updateTokenAllowState(address token, bool allowed) public {\r... */\n    tag_38:\n        /* \"v2-core-master/contracts/FeeTo.sol\":1262:1267  owner */\n      and(sub(shl(0xa0, 0x01), 0x01), sload(0x00))\n        /* \"v2-core-master/contracts/FeeTo.sol\":1248:1258  msg.sender */\n      caller\n        /* \"v2-core-master/contracts/FeeTo.sol\":1248:1267  msg.sender == owner */\n      eq\n        /* \"v2-core-master/contracts/FeeTo.sol\":1240:1313  require(msg.sender == owner, 'FeeTo::updateTokenAllowState: not allowed') */\n      tag_98\n      jumpi\n      mload(0x40)\n      shl(0xe5, 0x461bcd)\n      dup2\n      mstore\n      0x04\n      add\n      dup1\n      dup1\n      0x20\n      add\n      dup3\n      dup2\n      sub\n      dup3\n      mstore\n      0x29\n      dup2\n      mstore\n      0x20\n      add\n      dup1\n      data_b4bed03e1ae11dc2c3fb104a5833337d688ebaf962183caa90f79f56b534444f\n      0x29\n      swap2\n      codecopy\n      0x40\n      add\n      swap2\n      pop\n      pop\n      mload(0x40)\n      dup1\n      swap2\n      sub\n      swap1\n      revert\n    tag_98:\n      sub(shl(0xa0, 0x01), 0x01)\n        /* \"v2-core-master/contracts/FeeTo.sol\":1366:1389  tokenAllowStates[token] */\n      dup3\n      and\n        /* \"v2-core-master/contracts/FeeTo.sol\":1324:1363  TokenAllowState storage tokenAllowState */\n      0x00\n        /* \"v2-core-master/contracts/FeeTo.sol\":1366:1389  tokenAllowStates[token] */\n      swap1\n      dup2\n      mstore\n        /* \"v2-core-master/contracts/FeeTo.sol\":1366:1382  tokenAllowStates */\n      0x02\n        /* \"v2-core-master/contracts/FeeTo.sol\":1366:1389  tokenAllowStates[token] */\n      0x20\n      mstore\n      0x40\n      swap1\n      keccak256\n        /* \"v2-core-master/contracts/FeeTo.sol\":1479:1502  tokenAllowState.allowed */\n      dup1\n      sload\n      0xff\n      and\n        /* \"v2-core-master/contracts/FeeTo.sol\":1468:1502  allowed != tokenAllowState.allowed */\n      iszero\n      iszero\n      dup3\n      iszero\n      iszero\n      eq\n        /* \"v2-core-master/contracts/FeeTo.sol\":1464:2059  if (allowed != tokenAllowState.allowed) {\r... */\n      tag_93\n      jumpi\n        /* \"v2-core-master/contracts/FeeTo.sol\":1519:1552  tokenAllowState.allowed = allowed */\n      dup1\n      sload\n      not(0xff)\n      and\n      dup3\n      iszero\n      iszero\n      or\n      dup1\n      dup3\n      sstore\n      0x0100\n        /* \"v2-core-master/contracts/FeeTo.sol\":1847:1876  tokenAllowState.disallowCount */\n      swap1\n      div\n      sub(shl(0x80, 0x01), 0x01)\n      and\n        /* \"v2-core-master/contracts/FeeTo.sol\":1843:2048  if (tokenAllowState.disallowCount == 0) {\r... */\n      tag_100\n      jumpi\n        /* \"v2-core-master/contracts/FeeTo.sol\":1902:1935  tokenAllowState.disallowCount = 1 */\n      dup1\n      sload\n      not(sub(shl(0x88, 0x01), 0x0100))\n      and\n      0x0100\n      or\n      dup2\n      sstore\n        /* \"v2-core-master/contracts/FeeTo.sol\":1843:2048  if (tokenAllowState.disallowCount == 0) {\r... */\n      jump(tag_93)\n    tag_100:\n        /* \"v2-core-master/contracts/FeeTo.sol\":1961:1977  allowed == false */\n      dup2\n        /* \"v2-core-master/contracts/FeeTo.sol\":1957:2048  if (allowed == false) {\r... */\n      tag_93\n      jumpi\n        /* \"v2-core-master/contracts/FeeTo.sol\":1998:2032  tokenAllowState.disallowCount += 1 */\n      dup1\n      sload\n      sub(shl(0x80, 0x01), 0x01)\n      0x0100\n      dup1\n      dup4\n      div\n      dup3\n      and\n        /* \"v2-core-master/contracts/FeeTo.sol\":2031:2032  1 */\n      0x01\n        /* \"v2-core-master/contracts/FeeTo.sol\":1998:2032  tokenAllowState.disallowCount += 1 */\n      add\n      swap1\n      swap2\n      and\n      mul\n      not(sub(shl(0x88, 0x01), 0x0100))\n      swap1\n      swap2\n      and\n      or\n      dup2\n      sstore\n        /* \"v2-core-master/contracts/FeeTo.sol\":1162:2066  function updateTokenAllowState(address token, bool allowed) public {\r... */\n      pop\n      pop\n      pop\n      jump\t// out\n        /* \"v2-core-master/contracts/FeeTo.sol\":679:736  mapping(address => PairAllowState) public pairAllowStates */\n    tag_41:\n      mstore(0x20, 0x03)\n      0x00\n      swap1\n      dup2\n      mstore\n      0x40\n      swap1\n      keccak256\n      sload\n      sub(shl(0x80, 0x01), 0x01)\n      dup1\n      dup3\n      and\n      swap2\n      shl(0x80, 0x01)\n      swap1\n      div\n      and\n      dup3\n      jump\t// out\n        /* \"v2-core-master/contracts/FeeTo.sol\":974:1154  function setFeeRecipient(address feeRecipient_) public {\r... */\n    tag_44:\n        /* \"v2-core-master/contracts/FeeTo.sol\":1062:1067  owner */\n      and(sub(shl(0xa0, 0x01), 0x01), sload(0x00))\n        /* \"v2-core-master/contracts/FeeTo.sol\":1048:1058  msg.sender */\n      caller\n        /* \"v2-core-master/contracts/FeeTo.sol\":1048:1067  msg.sender == owner */\n      eq\n        /* \"v2-core-master/contracts/FeeTo.sol\":1040:1107  require(msg.sender == owner, 'FeeTo::setFeeRecipient: not allowed') */\n      tag_104\n      jumpi\n      mload(0x40)\n      shl(0xe5, 0x461bcd)\n      dup2\n      mstore\n      0x04\n      add\n      dup1\n      dup1\n      0x20\n      add\n      dup3\n      dup2\n      sub\n      dup3\n      mstore\n      0x23\n      dup2\n      mstore\n      0x20\n      add\n      dup1\n      data_763ff1f102bada5aa52b1cec87d5b4c73ddce91823ce8eeea8fef7747bdd3226\n      0x23\n      swap2\n      codecopy\n      0x40\n      add\n      swap2\n      pop\n      pop\n      mload(0x40)\n      dup1\n      swap2\n      sub\n      swap1\n      revert\n    tag_104:\n        /* \"v2-core-master/contracts/FeeTo.sol\":1118:1130  feeRecipient */\n      0x01\n        /* \"v2-core-master/contracts/FeeTo.sol\":1118:1146  feeRecipient = feeRecipient_ */\n      dup1\n      sload\n      not(sub(shl(0xa0, 0x01), 0x01))\n      and\n      sub(shl(0xa0, 0x01), 0x01)\n      swap3\n      swap1\n      swap3\n      and\n      swap2\n      swap1\n      swap2\n      or\n      swap1\n      sstore\n        /* \"v2-core-master/contracts/FeeTo.sol\":974:1154  function setFeeRecipient(address feeRecipient_) public {\r... */\n      jump\t// out\n    stop\n    data_763ff1f102bada5aa52b1cec87d5b4c73ddce91823ce8eeea8fef7747bdd3226 466565546f3a3a736574466565526563697069656e743a206e6f7420616c6c6f776564\n    data_b4bed03e1ae11dc2c3fb104a5833337d688ebaf962183caa90f79f56b534444f 466565546f3a3a757064617465546f6b656e416c6c6f7753746174653a206e6f7420616c6c6f776564\n\n    auxdata: 0xa265627a7a7231582087d534ab3fc46f633794d26597f977532f17b5b47343d4151087f2aa15e2c6ef64736f6c63430005100032\n}\n",
				"bytecode": {
					"linkReferences": {},
					"object": "608060405234801561001057600080fd5b50604051610c76380380610c768339818101604052602081101561003357600080fd5b5051600080546001600160a01b039092166001600160a01b0319909216919091179055610c11806100656000396000f3fe608060405234801561001057600080fd5b506004361061009e5760003560e01c80638d976172116100665780638d976172146101965780638da5cb5b1461023b578063df8ca76a14610243578063e359f0ed14610271578063e74b981b146102bd5761009e565b806313af4035146100a35780631e83409a146100cb5780631f76a7af146101035780633e2f3f2b146101295780634690484014610172575b600080fd5b6100c9600480360360208110156100b957600080fd5b50356001600160a01b03166102e3565b005b6100f1600480360360208110156100e157600080fd5b50356001600160a01b0316610364565b60408051918252519081900360200190f35b6100f16004803603602081101561011957600080fd5b50356001600160a01b031661062d565b61014f6004803603602081101561013f57600080fd5b50356001600160a01b03166109ac565b6040805192151583526001600160801b0390911660208301528051918290030190f35b61017a6109d1565b604080516001600160a01b039092168252519081900360200190f35b6100c9600480360360408110156101ac57600080fd5b8101906020810181356401000000008111156101c757600080fd5b8201836020820111156101d957600080fd5b803590602001918460208302840111640100000000831117156101fb57600080fd5b91908080602002602001604051908101604052809392919081815260200183836020028082843760009201919091525092955050505035151590506109e0565b61017a610a16565b6100c96004803603604081101561025957600080fd5b506001600160a01b0381351690602001351515610a25565b6102976004803603602081101561028757600080fd5b50356001600160a01b0316610aff565b604080516001600160801b03938416815291909216602082015281519081900390910190f35b6100c9600480360360208110156102d357600080fd5b50356001600160a01b0316610b25565b6000546001600160a01b03163314610342576040805162461bcd60e51b815260206004820152601c60248201527f466565546f3a3a7365744f776e65723a206e6f7420616c6c6f77656400000000604482015290519081900360640190fd5b600080546001600160a01b0319166001600160a01b0392909216919091179055565b60008060036000846001600160a01b03166001600160a01b031681526020019081526020016000209050600060026000856001600160a01b0316630dfe16816040518163ffffffff1660e01b815260040160206040518083038186803b1580156103cd57600080fd5b505afa1580156103e1573d6000803e3d6000fd5b505050506040513d60208110156103f757600080fd5b81019080805190602001909291905050506001600160a01b03166001600160a01b031681526020019081526020016000209050600060026000866001600160a01b031663d21220a76040518163ffffffff1660e01b815260040160206040518083038186803b15801561046957600080fd5b505afa15801561047d573d6000803e3d6000fd5b505050506040513d602081101561049357600080fd5b50516001600160a01b031681526020810191909152604001600020825490915060ff1680156104c35750805460ff165b80156104e257508254825461010090046001600160801b039081169116145b801561050857508254815461010090046001600160801b03908116600160801b90920416145b801561051e57506001546001600160a01b031615155b1561062557604080516370a0823160e01b815230600482015290516001600160a01b038716916370a08231916024808301926020929190829003018186803b15801561056957600080fd5b505afa15801561057d573d6000803e3d6000fd5b505050506040513d602081101561059357600080fd5b505193508315610625576001546040805163a9059cbb60e01b81526001600160a01b0392831660048201526024810187905290519187169163a9059cbb916044808201926020929091908290030181600087803b1580156105f357600080fd5b505af1158015610607573d6000803e3d6000fd5b505050506040513d602081101561061d57600080fd5b505161062557fe5b505050919050565b60008060036000846001600160a01b03166001600160a01b031681526020019081526020016000209050600060026000856001600160a01b0316630dfe16816040518163ffffffff1660e01b815260040160206040518083038186803b15801561069657600080fd5b505afa1580156106aa573d6000803e3d6000fd5b505050506040513d60208110156106c057600080fd5b81019080805190602001909291905050506001600160a01b03166001600160a01b031681526020019081526020016000209050600060026000866001600160a01b031663d21220a76040518163ffffffff1660e01b815260040160206040518083038186803b15801561073257600080fd5b505afa158015610746573d6000803e3d6000fd5b505050506040513d602081101561075c57600080fd5b50516001600160a01b031681526020810191909152604001600020825490915060ff16158061078d5750805460ff16155b806107ad5750825482546001600160801b03918216610100909104909116115b806107d3575082548154600160801b9091046001600160801b0390811661010090920416115b1561062557604080516370a0823160e01b815230600482015290516001600160a01b038716916370a08231916024808301926020929190829003018186803b15801561081e57600080fd5b505afa158015610832573d6000803e3d6000fd5b505050506040513d602081101561084857600080fd5b505193508315610947576040805163a9059cbb60e01b81526001600160a01b0387166004820181905260248201879052915163a9059cbb916044808201926020929091908290030181600087803b1580156108a257600080fd5b505af11580156108b6573d6000803e3d6000fd5b505050506040513d60208110156108cc57600080fd5b50516108d457fe5b6040805163226bf2d160e21b81526001600160a01b03871660048201819052825190926389afcb4492602480820193918290030181600087803b15801561091a57600080fd5b505af115801561092e573d6000803e3d6000fd5b505050506040513d604081101561094457600080fd5b50505b815460ff161561097d57815483546101009091046001600160801b03166fffffffffffffffffffffffffffffffff199091161783555b805460ff1615610625575482546001600160801b0390811661010090920416600160801b021790915550919050565b60026020526000908152604090205460ff81169061010090046001600160801b031682565b6001546001600160a01b031681565b60005b8251811015610a1157610a098382815181106109fb57fe5b602002602001015183610a25565b6001016109e3565b505050565b6000546001600160a01b031681565b6000546001600160a01b03163314610a6e5760405162461bcd60e51b8152600401808060200182810382526029815260200180610bb46029913960400191505060405180910390fd5b6001600160a01b0382166000908152600260205260409020805460ff16151582151514610a1157805460ff19168215151780825561010090046001600160801b0316610acc578054610100600160881b031916610100178155610a11565b81610a115780546001600160801b03610100808304821660010190911602610100600160881b0319909116178155505050565b6003602052600090815260409020546001600160801b0380821691600160801b90041682565b6000546001600160a01b03163314610b6e5760405162461bcd60e51b8152600401808060200182810382526023815260200180610b916023913960400191505060405180910390fd5b600180546001600160a01b0319166001600160a01b039290921691909117905556fe466565546f3a3a736574466565526563697069656e743a206e6f7420616c6c6f776564466565546f3a3a757064617465546f6b656e416c6c6f7753746174653a206e6f7420616c6c6f776564a265627a7a7231582087d534ab3fc46f633794d26597f977532f17b5b47343d4151087f2aa15e2c6ef64736f6c63430005100032",
					"opcodes": "PUSH1 0x80 PUSH1 0x40 MSTORE CALLVALUE DUP1 ISZERO PUSH2 0x10 JUMPI PUSH1 0x0 DUP1 REVERT JUMPDEST POP PUSH1 0x40 MLOAD PUSH2 0xC76 CODESIZE SUB DUP1 PUSH2 0xC76 DUP4 CODECOPY DUP2 DUP2 ADD PUSH1 0x40 MSTORE PUSH1 0x20 DUP2 LT ISZERO PUSH2 0x33 JUMPI PUSH1 0x0 DUP1 REVERT JUMPDEST POP MLOAD PUSH1 0x0 DUP1 SLOAD PUSH1 0x1 PUSH1 0x1 PUSH1 0xA0 SHL SUB SWAP1 SWAP3 AND PUSH1 0x1 PUSH1 0x1 PUSH1 0xA0 SHL SUB NOT SWAP1 SWAP3 AND SWAP2 SWAP1 SWAP2 OR SWAP1 SSTORE PUSH2 0xC11 DUP1 PUSH2 0x65 PUSH1 0x0 CODECOPY PUSH1 0x0 RETURN INVALID PUSH1 0x80 PUSH1 0x40 MSTORE CALLVALUE DUP1 ISZERO PUSH2 0x10 JUMPI PUSH1 0x0 DUP1 REVERT JUMPDEST POP PUSH1 0x4 CALLDATASIZE LT PUSH2 0x9E JUMPI PUSH1 0x0 CALLDATALOAD PUSH1 0xE0 SHR DUP1 PUSH4 0x8D976172 GT PUSH2 0x66 JUMPI DUP1 PUSH4 0x8D976172 EQ PUSH2 0x196 JUMPI DUP1 PUSH4 0x8DA5CB5B EQ PUSH2 0x23B JUMPI DUP1 PUSH4 0xDF8CA76A EQ PUSH2 0x243 JUMPI DUP1 PUSH4 0xE359F0ED EQ PUSH2 0x271 JUMPI DUP1 PUSH4 0xE74B981B EQ PUSH2 0x2BD JUMPI PUSH2 0x9E JUMP JUMPDEST DUP1 PUSH4 0x13AF4035 EQ PUSH2 0xA3 JUMPI DUP1 PUSH4 0x1E83409A EQ PUSH2 0xCB JUMPI DUP1 PUSH4 0x1F76A7AF EQ PUSH2 0x103 JUMPI DUP1 PUSH4 0x3E2F3F2B EQ PUSH2 0x129 JUMPI DUP1 PUSH4 0x46904840 EQ PUSH2 0x172 JUMPI JUMPDEST PUSH1 0x0 DUP1 REVERT JUMPDEST PUSH2 0xC9 PUSH1 0x4 DUP1 CALLDATASIZE SUB PUSH1 0x20 DUP2 LT ISZERO PUSH2 0xB9 JUMPI PUSH1 0x0 DUP1 REVERT JUMPDEST POP CALLDATALOAD PUSH1 0x1 PUSH1 0x1 PUSH1 0xA0 SHL SUB AND PUSH2 0x2E3 JUMP JUMPDEST STOP JUMPDEST PUSH2 0xF1 PUSH1 0x4 DUP1 CALLDATASIZE SUB PUSH1 0x20 DUP2 LT ISZERO PUSH2 0xE1 JUMPI PUSH1 0x0 DUP1 REVERT JUMPDEST POP CALLDATALOAD PUSH1 0x1 PUSH1 0x1 PUSH1 0xA0 SHL SUB AND PUSH2 0x364 JUMP JUMPDEST PUSH1 0x40 DUP1 MLOAD SWAP2 DUP3 MSTORE MLOAD SWAP1 DUP2 SWAP1 SUB PUSH1 0x20 ADD SWAP1 RETURN JUMPDEST PUSH2 0xF1 PUSH1 0x4 DUP1 CALLDATASIZE SUB PUSH1 0x20 DUP2 LT ISZERO PUSH2 0x119 JUMPI PUSH1 0x0 DUP1 REVERT JUMPDEST POP CALLDATALOAD PUSH1 0x1 PUSH1 0x1 PUSH1 0xA0 SHL SUB AND PUSH2 0x62D JUMP JUMPDEST PUSH2 0x14F PUSH1 0x4 DUP1 CALLDATASIZE SUB PUSH1 0x20 DUP2 LT ISZERO PUSH2 0x13F JUMPI PUSH1 0x0 DUP1 REVERT JUMPDEST POP CALLDATALOAD PUSH1 0x1 PUSH1 0x1 PUSH1 0xA0 SHL SUB AND PUSH2 0x9AC JUMP JUMPDEST PUSH1 0x40 DUP1 MLOAD SWAP3 ISZERO ISZERO DUP4 MSTORE PUSH1 0x1 PUSH1 0x1 PUSH1 0x80 SHL SUB SWAP1 SWAP2 AND PUSH1 0x20 DUP4 ADD MSTORE DUP1 MLOAD SWAP2 DUP3 SWAP1 SUB ADD SWAP1 RETURN JUMPDEST PUSH2 0x17A PUSH2 0x9D1 JUMP JUMPDEST PUSH1 0x40 DUP1 MLOAD PUSH1 0x1 PUSH1 0x1 PUSH1 0xA0 SHL SUB SWAP1 SWAP3 AND DUP3 MSTORE MLOAD SWAP1 DUP2 SWAP1 SUB PUSH1 0x20 ADD SWAP1 RETURN JUMPDEST PUSH2 0xC9 PUSH1 0x4 DUP1 CALLDATASIZE SUB PUSH1 0x40 DUP2 LT ISZERO PUSH2 0x1AC JUMPI PUSH1 0x0 DUP1 REVERT JUMPDEST DUP2 ADD SWAP1 PUSH1 0x20 DUP2 ADD DUP2 CALLDATALOAD PUSH5 0x100000000 DUP2 GT ISZERO PUSH2 0x1C7 JUMPI PUSH1 0x0 DUP1 REVERT JUMPDEST DUP3 ADD DUP4 PUSH1 0x20 DUP3 ADD GT ISZERO PUSH2 0x1D9 JUMPI PUSH1 0x0 DUP1 REVERT JUMPDEST DUP1 CALLDATALOAD SWAP1 PUSH1 0x20 ADD SWAP2 DUP5 PUSH1 0x20 DUP4 MUL DUP5 ADD GT PUSH5 0x100000000 DUP4 GT OR ISZERO PUSH2 0x1FB JUMPI PUSH1 0x0 DUP1 REVERT JUMPDEST SWAP2 SWAP1 DUP1 DUP1 PUSH1 0x20 MUL PUSH1 0x20 ADD PUSH1 0x40 MLOAD SWAP1 DUP2 ADD PUSH1 0x40 MSTORE DUP1 SWAP4 SWAP3 SWAP2 SWAP1 DUP2 DUP2 MSTORE PUSH1 0x20 ADD DUP4 DUP4 PUSH1 0x20 MUL DUP1 DUP3 DUP5 CALLDATACOPY PUSH1 0x0 SWAP3 ADD SWAP2 SWAP1 SWAP2 MSTORE POP SWAP3 SWAP6 POP POP POP POP CALLDATALOAD ISZERO ISZERO SWAP1 POP PUSH2 0x9E0 JUMP JUMPDEST PUSH2 0x17A PUSH2 0xA16 JUMP JUMPDEST PUSH2 0xC9 PUSH1 0x4 DUP1 CALLDATASIZE SUB PUSH1 0x40 DUP2 LT ISZERO PUSH2 0x259 JUMPI PUSH1 0x0 DUP1 REVERT JUMPDEST POP PUSH1 0x1 PUSH1 0x1 PUSH1 0xA0 SHL SUB DUP2 CALLDATALOAD AND SWAP1 PUSH1 0x20 ADD CALLDATALOAD ISZERO ISZERO PUSH2 0xA25 JUMP JUMPDEST PUSH2 0x297 PUSH1 0x4 DUP1 CALLDATASIZE SUB PUSH1 0x20 DUP2 LT ISZERO PUSH2 0x287 JUMPI PUSH1 0x0 DUP1 REVERT JUMPDEST POP CALLDATALOAD PUSH1 0x1 PUSH1 0x1 PUSH1 0xA0 SHL SUB AND PUSH2 0xAFF JUMP JUMPDEST PUSH1 0x40 DUP1 MLOAD PUSH1 0x1 PUSH1 0x1 PUSH1 0x80 SHL SUB SWAP4 DUP5 AND DUP2 MSTORE SWAP2 SWAP1 SWAP3 AND PUSH1 0x20 DUP3 ADD MSTORE DUP2 MLOAD SWAP1 DUP2 SWAP1 SUB SWAP1 SWAP2 ADD SWAP1 RETURN JUMPDEST PUSH2 0xC9 PUSH1 0x4 DUP1 CALLDATASIZE SUB PUSH1 0x20 DUP2 LT ISZERO PUSH2 0x2D3 JUMPI PUSH1 0x0 DUP1 REVERT JUMPDEST POP CALLDATALOAD PUSH1 0x1 PUSH1 0x1 PUSH1 0xA0 SHL SUB AND PUSH2 0xB25 JUMP JUMPDEST PUSH1 0x0 SLOAD PUSH1 0x1 PUSH1 0x1 PUSH1 0xA0 SHL SUB AND CALLER EQ PUSH2 0x342 JUMPI PUSH1 0x40 DUP1 MLOAD PUSH3 0x461BCD PUSH1 0xE5 SHL DUP2 MSTORE PUSH1 0x20 PUSH1 0x4 DUP3 ADD MSTORE PUSH1 0x1C PUSH1 0x24 DUP3 ADD MSTORE PUSH32 0x466565546F3A3A7365744F776E65723A206E6F7420616C6C6F77656400000000 PUSH1 0x44 DUP3 ADD MSTORE SWAP1 MLOAD SWAP1 DUP2 SWAP1 SUB PUSH1 0x64 ADD SWAP1 REVERT JUMPDEST PUSH1 0x0 DUP1 SLOAD PUSH1 0x1 PUSH1 0x1 PUSH1 0xA0 SHL SUB NOT AND PUSH1 0x1 PUSH1 0x1 PUSH1 0xA0 SHL SUB SWAP3 SWAP1 SWAP3 AND SWAP2 SWAP1 SWAP2 OR SWAP1 SSTORE JUMP JUMPDEST PUSH1 0x0 DUP1 PUSH1 0x3 PUSH1 0x0 DUP5 PUSH1 0x1 PUSH1 0x1 PUSH1 0xA0 SHL SUB AND PUSH1 0x1 PUSH1 0x1 PUSH1 0xA0 SHL SUB AND DUP2 MSTORE PUSH1 0x20 ADD SWAP1 DUP2 MSTORE PUSH1 0x20 ADD PUSH1 0x0 KECCAK256 SWAP1 POP PUSH1 0x0 PUSH1 0x2 PUSH1 0x0 DUP6 PUSH1 0x1 PUSH1 0x1 PUSH1 0xA0 SHL SUB AND PUSH4 0xDFE1681 PUSH1 0x40 MLOAD DUP2 PUSH4 0xFFFFFFFF AND PUSH1 0xE0 SHL DUP2 MSTORE PUSH1 0x4 ADD PUSH1 0x20 PUSH1 0x40 MLOAD DUP1 DUP4 SUB DUP2 DUP7 DUP1 EXTCODESIZE ISZERO DUP1 ISZERO PUSH2 0x3CD JUMPI PUSH1 0x0 DUP1 REVERT JUMPDEST POP GAS STATICCALL ISZERO DUP1 ISZERO PUSH2 0x3E1 JUMPI RETURNDATASIZE PUSH1 0x0 DUP1 RETURNDATACOPY RETURNDATASIZE PUSH1 0x0 REVERT JUMPDEST POP POP POP POP PUSH1 0x40 MLOAD RETURNDATASIZE PUSH1 0x20 DUP2 LT ISZERO PUSH2 0x3F7 JUMPI PUSH1 0x0 DUP1 REVERT JUMPDEST DUP2 ADD SWAP1 DUP1 DUP1 MLOAD SWAP1 PUSH1 0x20 ADD SWAP1 SWAP3 SWAP2 SWAP1 POP POP POP PUSH1 0x1 PUSH1 0x1 PUSH1 0xA0 SHL SUB AND PUSH1 0x1 PUSH1 0x1 PUSH1 0xA0 SHL SUB AND DUP2 MSTORE PUSH1 0x20 ADD SWAP1 DUP2 MSTORE PUSH1 0x20 ADD PUSH1 0x0 KECCAK256 SWAP1 POP PUSH1 0x0 PUSH1 0x2 PUSH1 0x0 DUP7 PUSH1 0x1 PUSH1 0x1 PUSH1 0xA0 SHL SUB AND PUSH4 0xD21220A7 PUSH1 0x40 MLOAD DUP2 PUSH4 0xFFFFFFFF AND PUSH1 0xE0 SHL DUP2 MSTORE PUSH1 0x4 ADD PUSH1 0x20 PUSH1 0x40 MLOAD DUP1 DUP4 SUB DUP2 DUP7 DUP1 EXTCODESIZE ISZERO DUP1 ISZERO PUSH2 0x469 JUMPI PUSH1 0x0 DUP1 REVERT JUMPDEST POP GAS STATICCALL ISZERO DUP1 ISZERO PUSH2 0x47D JUMPI RETURNDATASIZE PUSH1 0x0 DUP1 RETURNDATACOPY RETURNDATASIZE PUSH1 0x0 REVERT JUMPDEST POP POP POP POP PUSH1 0x40 MLOAD RETURNDATASIZE PUSH1 0x20 DUP2 LT ISZERO PUSH2 0x493 JUMPI PUSH1 0x0 DUP1 REVERT JUMPDEST POP MLOAD PUSH1 0x1 PUSH1 0x1 PUSH1 0xA0 SHL SUB AND DUP2 MSTORE PUSH1 0x20 DUP2 ADD SWAP2 SWAP1 SWAP2 MSTORE PUSH1 0x40 ADD PUSH1 0x0 KECCAK256 DUP3 SLOAD SWAP1 SWAP2 POP PUSH1 0xFF AND DUP1 ISZERO PUSH2 0x4C3 JUMPI POP DUP1 SLOAD PUSH1 0xFF AND JUMPDEST DUP1 ISZERO PUSH2 0x4E2 JUMPI POP DUP3 SLOAD DUP3 SLOAD PUSH2 0x100 SWAP1 DIV PUSH1 0x1 PUSH1 0x1 PUSH1 0x80 SHL SUB SWAP1 DUP2 AND SWAP2 AND EQ JUMPDEST DUP1 ISZERO PUSH2 0x508 JUMPI POP DUP3 SLOAD DUP2 SLOAD PUSH2 0x100 SWAP1 DIV PUSH1 0x1 PUSH1 0x1 PUSH1 0x80 SHL SUB SWAP1 DUP2 AND PUSH1 0x1 PUSH1 0x80 SHL SWAP1 SWAP3 DIV AND EQ JUMPDEST DUP1 ISZERO PUSH2 0x51E JUMPI POP PUSH1 0x1 SLOAD PUSH1 0x1 PUSH1 0x1 PUSH1 0xA0 SHL SUB AND ISZERO ISZERO JUMPDEST ISZERO PUSH2 0x625 JUMPI PUSH1 0x40 DUP1 MLOAD PUSH4 0x70A08231 PUSH1 0xE0 SHL DUP2 MSTORE ADDRESS PUSH1 0x4 DUP3 ADD MSTORE SWAP1 MLOAD PUSH1 0x1 PUSH1 0x1 PUSH1 0xA0 SHL SUB DUP8 AND SWAP2 PUSH4 0x70A08231 SWAP2 PUSH1 0x24 DUP1 DUP4 ADD SWAP3 PUSH1 0x20 SWAP3 SWAP2 SWAP1 DUP3 SWAP1 SUB ADD DUP2 DUP7 DUP1 EXTCODESIZE ISZERO DUP1 ISZERO PUSH2 0x569 JUMPI PUSH1 0x0 DUP1 REVERT JUMPDEST POP GAS STATICCALL ISZERO DUP1 ISZERO PUSH2 0x57D JUMPI RETURNDATASIZE PUSH1 0x0 DUP1 RETURNDATACOPY RETURNDATASIZE PUSH1 0x0 REVERT JUMPDEST POP POP POP POP PUSH1 0x40 MLOAD RETURNDATASIZE PUSH1 0x20 DUP2 LT ISZERO PUSH2 0x593 JUMPI PUSH1 0x0 DUP1 REVERT JUMPDEST POP MLOAD SWAP4 POP DUP4 ISZERO PUSH2 0x625 JUMPI PUSH1 0x1 SLOAD PUSH1 0x40 DUP1 MLOAD PUSH4 0xA9059CBB PUSH1 0xE0 SHL DUP2 MSTORE PUSH1 0x1 PUSH1 0x1 PUSH1 0xA0 SHL SUB SWAP3 DUP4 AND PUSH1 0x4 DUP3 ADD MSTORE PUSH1 0x24 DUP2 ADD DUP8 SWAP1 MSTORE SWAP1 MLOAD SWAP2 DUP8 AND SWAP2 PUSH4 0xA9059CBB SWAP2 PUSH1 0x44 DUP1 DUP3 ADD SWAP3 PUSH1 0x20 SWAP3 SWAP1 SWAP2 SWAP1 DUP3 SWAP1 SUB ADD DUP2 PUSH1 0x0 DUP8 DUP1 EXTCODESIZE ISZERO DUP1 ISZERO PUSH2 0x5F3 JUMPI PUSH1 0x0 DUP1 REVERT JUMPDEST POP GAS CALL ISZERO DUP1 ISZERO PUSH2 0x607 JUMPI RETURNDATASIZE PUSH1 0x0 DUP1 RETURNDATACOPY RETURNDATASIZE PUSH1 0x0 REVERT JUMPDEST POP POP POP POP PUSH1 0x40 MLOAD RETURNDATASIZE PUSH1 0x20 DUP2 LT ISZERO PUSH2 0x61D JUMPI PUSH1 0x0 DUP1 REVERT JUMPDEST POP MLOAD PUSH2 0x625 JUMPI INVALID JUMPDEST POP POP POP SWAP2 SWAP1 POP JUMP JUMPDEST PUSH1 0x0 DUP1 PUSH1 0x3 PUSH1 0x0 DUP5 PUSH1 0x1 PUSH1 0x1 PUSH1 0xA0 SHL SUB AND PUSH1 0x1 PUSH1 0x1 PUSH1 0xA0 SHL SUB AND DUP2 MSTORE PUSH1 0x20 ADD SWAP1 DUP2 MSTORE PUSH1 0x20 ADD PUSH1 0x0 KECCAK256 SWAP1 POP PUSH1 0x0 PUSH1 0x2 PUSH1 0x0 DUP6 PUSH1 0x1 PUSH1 0x1 PUSH1 0xA0 SHL SUB AND PUSH4 0xDFE1681 PUSH1 0x40 MLOAD DUP2 PUSH4 0xFFFFFFFF AND PUSH1 0xE0 SHL DUP2 MSTORE PUSH1 0x4 ADD PUSH1 0x20 PUSH1 0x40 MLOAD DUP1 DUP4 SUB DUP2 DUP7 DUP1 EXTCODESIZE ISZERO DUP1 ISZERO PUSH2 0x696 JUMPI PUSH1 0x0 DUP1 REVERT JUMPDEST POP GAS STATICCALL ISZERO DUP1 ISZERO PUSH2 0x6AA JUMPI RETURNDATASIZE PUSH1 0x0 DUP1 RETURNDATACOPY RETURNDATASIZE PUSH1 0x0 REVERT JUMPDEST POP POP POP POP PUSH1 0x40 MLOAD RETURNDATASIZE PUSH1 0x20 DUP2 LT ISZERO PUSH2 0x6C0 JUMPI PUSH1 0x0 DUP1 REVERT JUMPDEST DUP2 ADD SWAP1 DUP1 DUP1 MLOAD SWAP1 PUSH1 0x20 ADD SWAP1 SWAP3 SWAP2 SWAP1 POP POP POP PUSH1 0x1 PUSH1 0x1 PUSH1 0xA0 SHL SUB AND PUSH1 0x1 PUSH1 0x1 PUSH1 0xA0 SHL SUB AND DUP2 MSTORE PUSH1 0x20 ADD SWAP1 DUP2 MSTORE PUSH1 0x20 ADD PUSH1 0x0 KECCAK256 SWAP1 POP PUSH1 0x0 PUSH1 0x2 PUSH1 0x0 DUP7 PUSH1 0x1 PUSH1 0x1 PUSH1 0xA0 SHL SUB AND PUSH4 0xD21220A7 PUSH1 0x40 MLOAD DUP2 PUSH4 0xFFFFFFFF AND PUSH1 0xE0 SHL DUP2 MSTORE PUSH1 0x4 ADD PUSH1 0x20 PUSH1 0x40 MLOAD DUP1 DUP4 SUB DUP2 DUP7 DUP1 EXTCODESIZE ISZERO DUP1 ISZERO PUSH2 0x732 JUMPI PUSH1 0x0 DUP1 REVERT JUMPDEST POP GAS STATICCALL ISZERO DUP1 ISZERO PUSH2 0x746 JUMPI RETURNDATASIZE PUSH1 0x0 DUP1 RETURNDATACOPY RETURNDATASIZE PUSH1 0x0 REVERT JUMPDEST POP POP POP POP PUSH1 0x40 MLOAD RETURNDATASIZE PUSH1 0x20 DUP2 LT ISZERO PUSH2 0x75C JUMPI PUSH1 0x0 DUP1 REVERT JUMPDEST POP MLOAD PUSH1 0x1 PUSH1 0x1 PUSH1 0xA0 SHL SUB AND DUP2 MSTORE PUSH1 0x20 DUP2 ADD SWAP2 SWAP1 SWAP2 MSTORE PUSH1 0x40 ADD PUSH1 0x0 KECCAK256 DUP3 SLOAD SWAP1 SWAP2 POP PUSH1 0xFF AND ISZERO DUP1 PUSH2 0x78D JUMPI POP DUP1 SLOAD PUSH1 0xFF AND ISZERO JUMPDEST DUP1 PUSH2 0x7AD JUMPI POP DUP3 SLOAD DUP3 SLOAD PUSH1 0x1 PUSH1 0x1 PUSH1 0x80 SHL SUB SWAP2 DUP3 AND PUSH2 0x100 SWAP1 SWAP2 DIV SWAP1 SWAP2 AND GT JUMPDEST DUP1 PUSH2 0x7D3 JUMPI POP DUP3 SLOAD DUP2 SLOAD PUSH1 0x1 PUSH1 0x80 SHL SWAP1 SWAP2 DIV PUSH1 0x1 PUSH1 0x1 PUSH1 0x80 SHL SUB SWAP1 DUP2 AND PUSH2 0x100 SWAP1 SWAP3 DIV AND GT JUMPDEST ISZERO PUSH2 0x625 JUMPI PUSH1 0x40 DUP1 MLOAD PUSH4 0x70A08231 PUSH1 0xE0 SHL DUP2 MSTORE ADDRESS PUSH1 0x4 DUP3 ADD MSTORE SWAP1 MLOAD PUSH1 0x1 PUSH1 0x1 PUSH1 0xA0 SHL SUB DUP8 AND SWAP2 PUSH4 0x70A08231 SWAP2 PUSH1 0x24 DUP1 DUP4 ADD SWAP3 PUSH1 0x20 SWAP3 SWAP2 SWAP1 DUP3 SWAP1 SUB ADD DUP2 DUP7 DUP1 EXTCODESIZE ISZERO DUP1 ISZERO PUSH2 0x81E JUMPI PUSH1 0x0 DUP1 REVERT JUMPDEST POP GAS STATICCALL ISZERO DUP1 ISZERO PUSH2 0x832 JUMPI RETURNDATASIZE PUSH1 0x0 DUP1 RETURNDATACOPY RETURNDATASIZE PUSH1 0x0 REVERT JUMPDEST POP POP POP POP PUSH1 0x40 MLOAD RETURNDATASIZE PUSH1 0x20 DUP2 LT ISZERO PUSH2 0x848 JUMPI PUSH1 0x0 DUP1 REVERT JUMPDEST POP MLOAD SWAP4 POP DUP4 ISZERO PUSH2 0x947 JUMPI PUSH1 0x40 DUP1 MLOAD PUSH4 0xA9059CBB PUSH1 0xE0 SHL DUP2 MSTORE PUSH1 0x1 PUSH1 0x1 PUSH1 0xA0 SHL SUB DUP8 AND PUSH1 0x4 DUP3 ADD DUP2 SWAP1 MSTORE PUSH1 0x24 DUP3 ADD DUP8 SWAP1 MSTORE SWAP2 MLOAD PUSH4 0xA9059CBB SWAP2 PUSH1 0x44 DUP1 DUP3 ADD SWAP3 PUSH1 0x20 SWAP3 SWAP1 SWAP2 SWAP1 DUP3 SWAP1 SUB ADD DUP2 PUSH1 0x0 DUP8 DUP1 EXTCODESIZE ISZERO DUP1 ISZERO PUSH2 0x8A2 JUMPI PUSH1 0x0 DUP1 REVERT JUMPDEST POP GAS CALL ISZERO DUP1 ISZERO PUSH2 0x8B6 JUMPI RETURNDATASIZE PUSH1 0x0 DUP1 RETURNDATACOPY RETURNDATASIZE PUSH1 0x0 REVERT JUMPDEST POP POP POP POP PUSH1 0x40 MLOAD RETURNDATASIZE PUSH1 0x20 DUP2 LT ISZERO PUSH2 0x8CC JUMPI PUSH1 0x0 DUP1 REVERT JUMPDEST POP MLOAD PUSH2 0x8D4 JUMPI INVALID JUMPDEST PUSH1 0x40 DUP1 MLOAD PUSH4 0x226BF2D1 PUSH1 0xE2 SHL DUP2 MSTORE PUSH1 0x1 PUSH1 0x1 PUSH1 0xA0 SHL SUB DUP8 AND PUSH1 0x4 DUP3 ADD DUP2 SWAP1 MSTORE DUP3 MLOAD SWAP1 SWAP3 PUSH4 0x89AFCB44 SWAP3 PUSH1 0x24 DUP1 DUP3 ADD SWAP4 SWAP2 DUP3 SWAP1 SUB ADD DUP2 PUSH1 0x0 DUP8 DUP1 EXTCODESIZE ISZERO DUP1 ISZERO PUSH2 0x91A JUMPI PUSH1 0x0 DUP1 REVERT JUMPDEST POP GAS CALL ISZERO DUP1 ISZERO PUSH2 0x92E JUMPI RETURNDATASIZE PUSH1 0x0 DUP1 RETURNDATACOPY RETURNDATASIZE PUSH1 0x0 REVERT JUMPDEST POP POP POP POP PUSH1 0x40 MLOAD RETURNDATASIZE PUSH1 0x40 DUP2 LT ISZERO PUSH2 0x944 JUMPI PUSH1 0x0 DUP1 REVERT JUMPDEST POP POP JUMPDEST DUP2 SLOAD PUSH1 0xFF AND ISZERO PUSH2 0x97D JUMPI DUP2 SLOAD DUP4 SLOAD PUSH2 0x100 SWAP1 SWAP2 DIV PUSH1 0x1 PUSH1 0x1 PUSH1 0x80 SHL SUB AND PUSH16 0xFFFFFFFFFFFFFFFFFFFFFFFFFFFFFFFF NOT SWAP1 SWAP2 AND OR DUP4 SSTORE JUMPDEST DUP1 SLOAD PUSH1 0xFF AND ISZERO PUSH2 0x625 JUMPI SLOAD DUP3 SLOAD PUSH1 0x1 PUSH1 0x1 PUSH1 0x80 SHL SUB SWAP1 DUP2 AND PUSH2 0x100 SWAP1 SWAP3 DIV AND PUSH1 0x1 PUSH1 0x80 SHL MUL OR SWAP1 SWAP2 SSTORE POP SWAP2 SWAP1 POP JUMP JUMPDEST PUSH1 0x2 PUSH1 0x20 MSTORE PUSH1 0x0 SWAP1 DUP2 MSTORE PUSH1 0x40 SWAP1 KECCAK256 SLOAD PUSH1 0xFF DUP2 AND SWAP1 PUSH2 0x100 SWAP1 DIV PUSH1 0x1 PUSH1 0x1 PUSH1 0x80 SHL SUB AND DUP3 JUMP JUMPDEST PUSH1 0x1 SLOAD PUSH1 0x1 PUSH1 0x1 PUSH1 0xA0 SHL SUB AND DUP2 JUMP JUMPDEST PUSH1 0x0 JUMPDEST DUP3 MLOAD DUP2 LT ISZERO PUSH2 0xA11 JUMPI PUSH2 0xA09 DUP4 DUP3 DUP2 MLOAD DUP2 LT PUSH2 0x9FB JUMPI INVALID JUMPDEST PUSH1 0x20 MUL PUSH1 0x20 ADD ADD MLOAD DUP4 PUSH2 0xA25 JUMP JUMPDEST PUSH1 0x1 ADD PUSH2 0x9E3 JUMP JUMPDEST POP POP POP JUMP JUMPDEST PUSH1 0x0 SLOAD PUSH1 0x1 PUSH1 0x1 PUSH1 0xA0 SHL SUB AND DUP2 JUMP JUMPDEST PUSH1 0x0 SLOAD PUSH1 0x1 PUSH1 0x1 PUSH1 0xA0 SHL SUB AND CALLER EQ PUSH2 0xA6E JUMPI PUSH1 0x40 MLOAD PUSH3 0x461BCD PUSH1 0xE5 SHL DUP2 MSTORE PUSH1 0x4 ADD DUP1 DUP1 PUSH1 0x20 ADD DUP3 DUP2 SUB DUP3 MSTORE PUSH1 0x29 DUP2 MSTORE PUSH1 0x20 ADD DUP1 PUSH2 0xBB4 PUSH1 0x29 SWAP2 CODECOPY PUSH1 0x40 ADD SWAP2 POP POP PUSH1 0x40 MLOAD DUP1 SWAP2 SUB SWAP1 REVERT JUMPDEST PUSH1 0x1 PUSH1 0x1 PUSH1 0xA0 SHL SUB DUP3 AND PUSH1 0x0 SWAP1 DUP2 MSTORE PUSH1 0x2 PUSH1 0x20 MSTORE PUSH1 0x40 SWAP1 KECCAK256 DUP1 SLOAD PUSH1 0xFF AND ISZERO ISZERO DUP3 ISZERO ISZERO EQ PUSH2 0xA11 JUMPI DUP1 SLOAD PUSH1 0xFF NOT AND DUP3 ISZERO ISZERO OR DUP1 DUP3 SSTORE PUSH2 0x100 SWAP1 DIV PUSH1 0x1 PUSH1 0x1 PUSH1 0x80 SHL SUB AND PUSH2 0xACC JUMPI DUP1 SLOAD PUSH2 0x100 PUSH1 0x1 PUSH1 0x88 SHL SUB NOT AND PUSH2 0x100 OR DUP2 SSTORE PUSH2 0xA11 JUMP JUMPDEST DUP2 PUSH2 0xA11 JUMPI DUP1 SLOAD PUSH1 0x1 PUSH1 0x1 PUSH1 0x80 SHL SUB PUSH2 0x100 DUP1 DUP4 DIV DUP3 AND PUSH1 0x1 ADD SWAP1 SWAP2 AND MUL PUSH2 0x100 PUSH1 0x1 PUSH1 0x88 SHL SUB NOT SWAP1 SWAP2 AND OR DUP2 SSTORE POP POP POP JUMP JUMPDEST PUSH1 0x3 PUSH1 0x20 MSTORE PUSH1 0x0 SWAP1 DUP2 MSTORE PUSH1 0x40 SWAP1 KECCAK256 SLOAD PUSH1 0x1 PUSH1 0x1 PUSH1 0x80 SHL SUB DUP1 DUP3 AND SWAP2 PUSH1 0x1 PUSH1 0x80 SHL SWAP1 DIV AND DUP3 JUMP JUMPDEST PUSH1 0x0 SLOAD PUSH1 0x1 PUSH1 0x1 PUSH1 0xA0 SHL SUB AND CALLER EQ PUSH2 0xB6E JUMPI PUSH1 0x40 MLOAD PUSH3 0x461BCD PUSH1 0xE5 SHL DUP2 MSTORE PUSH1 0x4 ADD DUP1 DUP1 PUSH1 0x20 ADD DUP3 DUP2 SUB DUP3 MSTORE PUSH1 0x23 DUP2 MSTORE PUSH1 0x20 ADD DUP1 PUSH2 0xB91 PUSH1 0x23 SWAP2 CODECOPY PUSH1 0x40 ADD SWAP2 POP POP PUSH1 0x40 MLOAD DUP1 SWAP2 SUB SWAP1 REVERT JUMPDEST PUSH1 0x1 DUP1 SLOAD PUSH1 0x1 PUSH1 0x1 PUSH1 0xA0 SHL SUB NOT AND PUSH1 0x1 PUSH1 0x1 PUSH1 0xA0 SHL SUB SWAP3 SWAP1 SWAP3 AND SWAP2 SWAP1 SWAP2 OR SWAP1 SSTORE JUMP INVALID CHAINID PUSH6 0x65546F3A3A73 PUSH6 0x744665655265 PUSH4 0x69706965 PUSH15 0x743A206E6F7420616C6C6F77656446 PUSH6 0x65546F3A3A75 PUSH17 0x64617465546F6B656E416C6C6F77537461 PUSH21 0x653A206E6F7420616C6C6F776564A265627A7A7231 PC KECCAK256 DUP8 0xD5 CALLVALUE 0xAB EXTCODEHASH 0xC4 PUSH16 0x633794D26597F977532F17B5B47343D4 ISZERO LT DUP8 CALLCODE 0xAA ISZERO 0xE2 0xC6 0xEF PUSH5 0x736F6C6343 STOP SDIV LT STOP ORIGIN "
				},
				"gasEstimates": {
					"creation": {
						"codeDepositCost": "617800",
						"executionCost": "infinite",
						"totalCost": "infinite"
					},
					"external": {
						"claim(address)": "infinite",
						"feeRecipient()": "1126",
						"owner()": "1059",
						"pairAllowStates(address)": "1291",
						"renounce(address)": "infinite",
						"setFeeRecipient(address)": "infinite",
						"setOwner(address)": "21914",
						"tokenAllowStates(address)": "1277",
						"updateTokenAllowState(address,bool)": "infinite",
						"updateTokenAllowStates(address[],bool)": "infinite"
					}
				},
				"methodIdentifiers": {
					"claim(address)": "1e83409a",
					"feeRecipient()": "46904840",
					"owner()": "8da5cb5b",
					"pairAllowStates(address)": "e359f0ed",
					"renounce(address)": "1f76a7af",
					"setFeeRecipient(address)": "e74b981b",
					"setOwner(address)": "13af4035",
					"tokenAllowStates(address)": "3e2f3f2b",
					"updateTokenAllowState(address,bool)": "df8ca76a",
					"updateTokenAllowStates(address[],bool)": "8d976172"
				}
			},
			"storageLayout": {
				"storage": [
					{
						"astId": 3,
						"contract": "v2-core-master/contracts/FeeTo.sol:FeeTo",
						"label": "owner",
						"offset": 0,
						"slot": "0",
						"type": "t_address"
					},
					{
						"astId": 5,
						"contract": "v2-core-master/contracts/FeeTo.sol:FeeTo",
						"label": "feeRecipient",
						"offset": 0,
						"slot": "1",
						"type": "t_address"
					},
					{
						"astId": 14,
						"contract": "v2-core-master/contracts/FeeTo.sol:FeeTo",
						"label": "tokenAllowStates",
						"offset": 0,
						"slot": "2",
						"type": "t_mapping(t_address,t_struct(TokenAllowState)10_storage)"
					},
					{
						"astId": 23,
						"contract": "v2-core-master/contracts/FeeTo.sol:FeeTo",
						"label": "pairAllowStates",
						"offset": 0,
						"slot": "3",
						"type": "t_mapping(t_address,t_struct(PairAllowState)19_storage)"
					}
				],
				"types": {
					"t_address": {
						"encoding": "inplace",
						"label": "address",
						"numberOfBytes": "20"
					},
					"t_bool": {
						"encoding": "inplace",
						"label": "bool",
						"numberOfBytes": "1"
					},
					"t_mapping(t_address,t_struct(PairAllowState)19_storage)": {
						"encoding": "mapping",
						"key": "t_address",
						"label": "mapping(address => struct FeeTo.PairAllowState)",
						"numberOfBytes": "32",
						"value": "t_struct(PairAllowState)19_storage"
					},
					"t_mapping(t_address,t_struct(TokenAllowState)10_storage)": {
						"encoding": "mapping",
						"key": "t_address",
						"label": "mapping(address => struct FeeTo.TokenAllowState)",
						"numberOfBytes": "32",
						"value": "t_struct(TokenAllowState)10_storage"
					},
					"t_struct(PairAllowState)19_storage": {
						"encoding": "inplace",
						"label": "struct FeeTo.PairAllowState",
						"members": [
							{
								"astId": 16,
								"contract": "v2-core-master/contracts/FeeTo.sol:FeeTo",
								"label": "token0DisallowCount",
								"offset": 0,
								"slot": "0",
								"type": "t_uint128"
							},
							{
								"astId": 18,
								"contract": "v2-core-master/contracts/FeeTo.sol:FeeTo",
								"label": "token1DisallowCount",
								"offset": 16,
								"slot": "0",
								"type": "t_uint128"
							}
						],
						"numberOfBytes": "32"
					},
					"t_struct(TokenAllowState)10_storage": {
						"encoding": "inplace",
						"label": "struct FeeTo.TokenAllowState",
						"members": [
							{
								"astId": 7,
								"contract": "v2-core-master/contracts/FeeTo.sol:FeeTo",
								"label": "allowed",
								"offset": 0,
								"slot": "0",
								"type": "t_bool"
							},
							{
								"astId": 9,
								"contract": "v2-core-master/contracts/FeeTo.sol:FeeTo",
								"label": "disallowCount",
								"offset": 1,
								"slot": "0",
								"type": "t_uint128"
							}
						],
						"numberOfBytes": "32"
					},
					"t_uint128": {
						"encoding": "inplace",
						"label": "uint128",
						"numberOfBytes": "16"
					}
				}
			},
			"userdoc": {
				"methods": {}
			}
		}
	}
}