{
	"bitlime-core/contracts/BitlimeV2Pair.sol": {
		"BitlimeV2Pair": {
			"abi": [
				{
					"inputs": [
						{
							"internalType": "uint256",
							"name": "_commission",
							"type": "uint256"
						}
					],
					"payable": false,
					"stateMutability": "nonpayable",
					"type": "constructor"
				},
				{
					"anonymous": false,
					"inputs": [
						{
							"indexed": true,
							"internalType": "address",
							"name": "owner",
							"type": "address"
						},
						{
							"indexed": true,
							"internalType": "address",
							"name": "spender",
							"type": "address"
						},
						{
							"indexed": false,
							"internalType": "uint256",
							"name": "value",
							"type": "uint256"
						}
					],
					"name": "Approval",
					"type": "event"
				},
				{
					"anonymous": false,
					"inputs": [
						{
							"indexed": true,
							"internalType": "address",
							"name": "sender",
							"type": "address"
						},
						{
							"indexed": false,
							"internalType": "uint256",
							"name": "amount0",
							"type": "uint256"
						},
						{
							"indexed": false,
							"internalType": "uint256",
							"name": "amount1",
							"type": "uint256"
						},
						{
							"indexed": true,
							"internalType": "address",
							"name": "to",
							"type": "address"
						}
					],
					"name": "Burn",
					"type": "event"
				},
				{
					"anonymous": false,
					"inputs": [
						{
							"indexed": true,
							"internalType": "address",
							"name": "sender",
							"type": "address"
						},
						{
							"indexed": false,
							"internalType": "uint256",
							"name": "amount0",
							"type": "uint256"
						},
						{
							"indexed": false,
							"internalType": "uint256",
							"name": "amount1",
							"type": "uint256"
						}
					],
					"name": "Mint",
					"type": "event"
				},
				{
					"anonymous": false,
					"inputs": [
						{
							"indexed": true,
							"internalType": "address",
							"name": "sender",
							"type": "address"
						},
						{
							"indexed": false,
							"internalType": "uint256",
							"name": "amount0In",
							"type": "uint256"
						},
						{
							"indexed": false,
							"internalType": "uint256",
							"name": "amount1In",
							"type": "uint256"
						},
						{
							"indexed": false,
							"internalType": "uint256",
							"name": "amount0Out",
							"type": "uint256"
						},
						{
							"indexed": false,
							"internalType": "uint256",
							"name": "amount1Out",
							"type": "uint256"
						},
						{
							"indexed": true,
							"internalType": "address",
							"name": "to",
							"type": "address"
						}
					],
					"name": "Swap",
					"type": "event"
				},
				{
					"anonymous": false,
					"inputs": [
						{
							"indexed": false,
							"internalType": "uint112",
							"name": "reserve0",
							"type": "uint112"
						},
						{
							"indexed": false,
							"internalType": "uint112",
							"name": "reserve1",
							"type": "uint112"
						}
					],
					"name": "Sync",
					"type": "event"
				},
				{
					"anonymous": false,
					"inputs": [
						{
							"indexed": true,
							"internalType": "address",
							"name": "from",
							"type": "address"
						},
						{
							"indexed": true,
							"internalType": "address",
							"name": "to",
							"type": "address"
						},
						{
							"indexed": false,
							"internalType": "uint256",
							"name": "value",
							"type": "uint256"
						}
					],
					"name": "Transfer",
					"type": "event"
				},
				{
					"constant": true,
					"inputs": [],
					"name": "DOMAIN_SEPARATOR",
					"outputs": [
						{
							"internalType": "bytes32",
							"name": "",
							"type": "bytes32"
						}
					],
					"payable": false,
					"stateMutability": "view",
					"type": "function"
				},
				{
					"constant": true,
					"inputs": [],
					"name": "MINIMUM_LIQUIDITY",
					"outputs": [
						{
							"internalType": "uint256",
							"name": "",
							"type": "uint256"
						}
					],
					"payable": false,
					"stateMutability": "view",
					"type": "function"
				},
				{
					"constant": true,
					"inputs": [],
					"name": "PERMIT_TYPEHASH",
					"outputs": [
						{
							"internalType": "bytes32",
							"name": "",
							"type": "bytes32"
						}
					],
					"payable": false,
					"stateMutability": "view",
					"type": "function"
				},
				{
					"constant": true,
					"inputs": [
						{
							"internalType": "address",
							"name": "",
							"type": "address"
						},
						{
							"internalType": "address",
							"name": "",
							"type": "address"
						}
					],
					"name": "allowance",
					"outputs": [
						{
							"internalType": "uint256",
							"name": "",
							"type": "uint256"
						}
					],
					"payable": false,
					"stateMutability": "view",
					"type": "function"
				},
				{
					"constant": false,
					"inputs": [
						{
							"internalType": "address",
							"name": "spender",
							"type": "address"
						},
						{
							"internalType": "uint256",
							"name": "value",
							"type": "uint256"
						}
					],
					"name": "approve",
					"outputs": [
						{
							"internalType": "bool",
							"name": "",
							"type": "bool"
						}
					],
					"payable": false,
					"stateMutability": "nonpayable",
					"type": "function"
				},
				{
					"constant": true,
					"inputs": [
						{
							"internalType": "address",
							"name": "",
							"type": "address"
						}
					],
					"name": "balanceOf",
					"outputs": [
						{
							"internalType": "uint256",
							"name": "",
							"type": "uint256"
						}
					],
					"payable": false,
					"stateMutability": "view",
					"type": "function"
				},
				{
					"constant": false,
					"inputs": [
						{
							"internalType": "address",
							"name": "to",
							"type": "address"
						}
					],
					"name": "burn",
					"outputs": [
						{
							"internalType": "uint256",
							"name": "amount0",
							"type": "uint256"
						},
						{
							"internalType": "uint256",
							"name": "amount1",
							"type": "uint256"
						}
					],
					"payable": false,
					"stateMutability": "nonpayable",
					"type": "function"
				},
				{
					"constant": false,
					"inputs": [
						{
							"internalType": "uint256",
							"name": "newCommission",
							"type": "uint256"
						}
					],
					"name": "changeCommission",
					"outputs": [],
					"payable": false,
					"stateMutability": "nonpayable",
					"type": "function"
				},
				{
					"constant": true,
					"inputs": [],
					"name": "commission",
					"outputs": [
						{
							"internalType": "uint256",
							"name": "",
							"type": "uint256"
						}
					],
					"payable": false,
					"stateMutability": "view",
					"type": "function"
				},
				{
					"constant": true,
					"inputs": [],
					"name": "decimals",
					"outputs": [
						{
							"internalType": "uint8",
							"name": "",
							"type": "uint8"
						}
					],
					"payable": false,
					"stateMutability": "view",
					"type": "function"
				},
				{
					"constant": true,
					"inputs": [],
					"name": "factory",
					"outputs": [
						{
							"internalType": "address",
							"name": "",
							"type": "address"
						}
					],
					"payable": false,
					"stateMutability": "view",
					"type": "function"
				},
				{
					"constant": true,
					"inputs": [],
					"name": "getReserves",
					"outputs": [
						{
							"internalType": "uint112",
							"name": "_reserve0",
							"type": "uint112"
						},
						{
							"internalType": "uint112",
							"name": "_reserve1",
							"type": "uint112"
						},
						{
							"internalType": "uint32",
							"name": "_blockTimestampLast",
							"type": "uint32"
						}
					],
					"payable": false,
					"stateMutability": "view",
					"type": "function"
				},
				{
					"constant": false,
					"inputs": [
						{
							"internalType": "address",
							"name": "_token0",
							"type": "address"
						},
						{
							"internalType": "address",
							"name": "_token1",
							"type": "address"
						}
					],
					"name": "initialize",
					"outputs": [],
					"payable": false,
					"stateMutability": "nonpayable",
					"type": "function"
				},
				{
					"constant": true,
					"inputs": [],
					"name": "kLast",
					"outputs": [
						{
							"internalType": "uint256",
							"name": "",
							"type": "uint256"
						}
					],
					"payable": false,
					"stateMutability": "view",
					"type": "function"
				},
				{
					"constant": false,
					"inputs": [
						{
							"internalType": "address",
							"name": "to",
							"type": "address"
						}
					],
					"name": "mint",
					"outputs": [
						{
							"internalType": "uint256",
							"name": "liquidity",
							"type": "uint256"
						}
					],
					"payable": false,
					"stateMutability": "nonpayable",
					"type": "function"
				},
				{
					"constant": true,
					"inputs": [],
					"name": "name",
					"outputs": [
						{
							"internalType": "string",
							"name": "",
							"type": "string"
						}
					],
					"payable": false,
					"stateMutability": "view",
					"type": "function"
				},
				{
					"constant": true,
					"inputs": [
						{
							"internalType": "address",
							"name": "",
							"type": "address"
						}
					],
					"name": "nonces",
					"outputs": [
						{
							"internalType": "uint256",
							"name": "",
							"type": "uint256"
						}
					],
					"payable": false,
					"stateMutability": "view",
					"type": "function"
				},
				{
					"constant": false,
					"inputs": [
						{
							"internalType": "address",
							"name": "owner",
							"type": "address"
						},
						{
							"internalType": "address",
							"name": "spender",
							"type": "address"
						},
						{
							"internalType": "uint256",
							"name": "value",
							"type": "uint256"
						},
						{
							"internalType": "uint256",
							"name": "deadline",
							"type": "uint256"
						},
						{
							"internalType": "uint8",
							"name": "v",
							"type": "uint8"
						},
						{
							"internalType": "bytes32",
							"name": "r",
							"type": "bytes32"
						},
						{
							"internalType": "bytes32",
							"name": "s",
							"type": "bytes32"
						}
					],
					"name": "permit",
					"outputs": [],
					"payable": false,
					"stateMutability": "nonpayable",
					"type": "function"
				},
				{
					"constant": true,
					"inputs": [],
					"name": "price0CumulativeLast",
					"outputs": [
						{
							"internalType": "uint256",
							"name": "",
							"type": "uint256"
						}
					],
					"payable": false,
					"stateMutability": "view",
					"type": "function"
				},
				{
					"constant": true,
					"inputs": [],
					"name": "price1CumulativeLast",
					"outputs": [
						{
							"internalType": "uint256",
							"name": "",
							"type": "uint256"
						}
					],
					"payable": false,
					"stateMutability": "view",
					"type": "function"
				},
				{
					"constant": false,
					"inputs": [
						{
							"internalType": "address",
							"name": "to",
							"type": "address"
						}
					],
					"name": "skim",
					"outputs": [],
					"payable": false,
					"stateMutability": "nonpayable",
					"type": "function"
				},
				{
					"constant": false,
					"inputs": [
						{
							"internalType": "uint256",
							"name": "amount0Out",
							"type": "uint256"
						},
						{
							"internalType": "uint256",
							"name": "amount1Out",
							"type": "uint256"
						},
						{
							"internalType": "address",
							"name": "to",
							"type": "address"
						},
						{
							"internalType": "bytes",
							"name": "data",
							"type": "bytes"
						}
					],
					"name": "swap",
					"outputs": [],
					"payable": false,
					"stateMutability": "nonpayable",
					"type": "function"
				},
				{
					"constant": true,
					"inputs": [],
					"name": "symbol",
					"outputs": [
						{
							"internalType": "string",
							"name": "",
							"type": "string"
						}
					],
					"payable": false,
					"stateMutability": "view",
					"type": "function"
				},
				{
					"constant": false,
					"inputs": [],
					"name": "sync",
					"outputs": [],
					"payable": false,
					"stateMutability": "nonpayable",
					"type": "function"
				},
				{
					"constant": true,
					"inputs": [],
					"name": "token0",
					"outputs": [
						{
							"internalType": "address",
							"name": "",
							"type": "address"
						}
					],
					"payable": false,
					"stateMutability": "view",
					"type": "function"
				},
				{
					"constant": true,
					"inputs": [],
					"name": "token1",
					"outputs": [
						{
							"internalType": "address",
							"name": "",
							"type": "address"
						}
					],
					"payable": false,
					"stateMutability": "view",
					"type": "function"
				},
				{
					"constant": true,
					"inputs": [],
					"name": "totalSupply",
					"outputs": [
						{
							"internalType": "uint256",
							"name": "",
							"type": "uint256"
						}
					],
					"payable": false,
					"stateMutability": "view",
					"type": "function"
				},
				{
					"constant": false,
					"inputs": [
						{
							"internalType": "address",
							"name": "to",
							"type": "address"
						},
						{
							"internalType": "uint256",
							"name": "value",
							"type": "uint256"
						}
					],
					"name": "transfer",
					"outputs": [
						{
							"internalType": "bool",
							"name": "",
							"type": "bool"
						}
					],
					"payable": false,
					"stateMutability": "nonpayable",
					"type": "function"
				},
				{
					"constant": false,
					"inputs": [
						{
							"internalType": "address",
							"name": "from",
							"type": "address"
						},
						{
							"internalType": "address",
							"name": "to",
							"type": "address"
						},
						{
							"internalType": "uint256",
							"name": "value",
							"type": "uint256"
						}
					],
					"name": "transferFrom",
					"outputs": [
						{
							"internalType": "bool",
							"name": "",
							"type": "bool"
						}
					],
					"payable": false,
					"stateMutability": "nonpayable",
					"type": "function"
				}
			],
			"devdoc": {
				"methods": {}
			},
			"evm": {
				"assembly": "    /* \"bitlime-core/contracts/BitlimeV2Pair.sol\":300:10266  contract BitlimeV2Pair is IBitlimeV2Pair, BitlimeV2ERC20 {\r... */\n  mstore(0x40, 0x80)\n    /* \"bitlime-core/contracts/BitlimeV2Pair.sol\":1200:1201  1 */\n  0x01\n    /* \"bitlime-core/contracts/BitlimeV2Pair.sol\":1176:1201  uint private unlocked = 1 */\n  0x0d\n  sstore\n    /* \"bitlime-core/contracts/BitlimeV2Pair.sol\":2287:2398  constructor(uint _commission) public {\r... */\n  callvalue\n    /* \"--CODEGEN--\":8:17   */\n  dup1\n    /* \"--CODEGEN--\":5:7   */\n  iszero\n  tag_1\n  jumpi\n    /* \"--CODEGEN--\":30:31   */\n  0x00\n    /* \"--CODEGEN--\":27:28   */\n  dup1\n    /* \"--CODEGEN--\":20:32   */\n  revert\n    /* \"--CODEGEN--\":5:7   */\ntag_1:\n    /* \"bitlime-core/contracts/BitlimeV2Pair.sol\":2287:2398  constructor(uint _commission) public {\r... */\n  pop\n  mload(0x40)\n  sub(codesize, bytecodeSize)\n  dup1\n  bytecodeSize\n  dup4\n  codecopy\n  dup2\n  dup2\n  add\n  0x40\n  mstore\n    /* \"--CODEGEN--\":13:15   */\n  0x20\n    /* \"--CODEGEN--\":8:11   */\n  dup2\n    /* \"--CODEGEN--\":5:16   */\n  lt\n    /* \"--CODEGEN--\":2:4   */\n  iszero\n  tag_2\n  jumpi\n    /* \"--CODEGEN--\":29:30   */\n  0x00\n    /* \"--CODEGEN--\":26:27   */\n  dup1\n    /* \"--CODEGEN--\":19:31   */\n  revert\n    /* \"--CODEGEN--\":2:4   */\ntag_2:\n  pop\n    /* \"bitlime-core/contracts/BitlimeV2Pair.sol\":2287:2398  constructor(uint _commission) public {\r... */\n  mload\n    /* \"bitlime-core/contracts/BitlimeV2ERC20.sol\":1133:1228  keccak256('EIP712Domain(string name,string version,uint256 chainId,address verifyingContract)') */\n  mload(0x40)\n    /* \"bitlime-core/contracts/BitlimeV2ERC20.sol\":1033:1040  chainid */\n  chainid\n  swap1\n    /* \"bitlime-core/contracts/BitlimeV2ERC20.sol\":1133:1228  keccak256('EIP712Domain(string name,string version,uint256 chainId,address verifyingContract)') */\n  dup1\n  0x52\n  data_8b73c3c69bb8fe3d512ecc4cf759cc79239f7b179b0ffacaa9a75d522b39400f\n  dup3\n  codecopy\n  0x40\n  dup1\n  mload\n  swap2\n  dup3\n  swap1\n  sub\n  0x52\n  add\n  dup3\n  keccak256\n    /* \"bitlime-core/contracts/BitlimeV2ERC20.sol\":1263:1267  name */\n  dup3\n  dup3\n  add\n  dup3\n  mstore\n  0x0a\n  dup4\n  mstore\n  shl(0xb1, 0x2134ba3634b6b2902b19)\n  0x20\n  swap4\n  dup5\n  add\n  mstore\n    /* \"bitlime-core/contracts/BitlimeV2ERC20.sol\":1298:1308  bytes('1') */\n  dup2\n  mload\n  dup1\n  dup4\n  add\n  dup4\n  mstore\n  0x01\n  dup2\n  mstore\n  shl(0xf8, 0x31)\n  swap1\n  dup5\n  add\n  mstore\n    /* \"bitlime-core/contracts/BitlimeV2ERC20.sol\":1104:1382  abi.encode(\r... */\n  dup2\n  mload\n  dup1\n  dup5\n  add\n  swap2\n  swap1\n  swap2\n  mstore\n    /* \"bitlime-core/contracts/BitlimeV2ERC20.sol\":1247:1269  keccak256(bytes(name)) */\n  0x446e80230380561d906573d2b5dbfc9fadb3f5adee8411e56a4c6511d92876e3\n    /* \"bitlime-core/contracts/BitlimeV2ERC20.sol\":1104:1382  abi.encode(\r... */\n  dup2\n  dup4\n  add\n  mstore\n    /* \"bitlime-core/contracts/BitlimeV2ERC20.sol\":1288:1309  keccak256(bytes('1')) */\n  0xc89efdaa54c0f20c7adf612882df0950f5a951637e0307cdcb4c672f298b8bc6\n    /* \"bitlime-core/contracts/BitlimeV2ERC20.sol\":1104:1382  abi.encode(\r... */\n  0x60\n  dup3\n  add\n  mstore\n  0x80\n  dup2\n  add\n  swap5\n  swap1\n  swap5\n  mstore\n    /* \"bitlime-core/contracts/BitlimeV2ERC20.sol\":1362:1366  this */\n  address\n    /* \"bitlime-core/contracts/BitlimeV2ERC20.sol\":1104:1382  abi.encode(\r... */\n  0xa0\n  dup1\n  dup7\n  add\n  swap2\n  swap1\n  swap2\n  mstore\n  dup2\n  mload\n    /* \"--CODEGEN--\":26:47   */\n  dup1\n  dup7\n  sub\n    /* \"--CODEGEN--\":22:54   */\n  swap1\n  swap2\n  add\n    /* \"--CODEGEN--\":6:55   */\n  dup2\n  mstore\n    /* \"bitlime-core/contracts/BitlimeV2ERC20.sol\":1104:1382  abi.encode(\r... */\n  0xc0\n  swap1\n  swap5\n  add\n  swap1\n  mstore\n    /* \"bitlime-core/contracts/BitlimeV2ERC20.sol\":1080:1393  keccak256(\r... */\n  dup3\n  mload\n  swap3\n  add\n  swap2\n  swap1\n  swap2\n  keccak256\n    /* \"bitlime-core/contracts/BitlimeV2ERC20.sol\":1061:1077  DOMAIN_SEPARATOR */\n  0x03\n    /* \"bitlime-core/contracts/BitlimeV2ERC20.sol\":1061:1393  DOMAIN_SEPARATOR = keccak256(\r... */\n  sstore\n  pop\n    /* \"bitlime-core/contracts/BitlimeV2Pair.sol\":2335:2342  factory */\n  0x06\n    /* \"bitlime-core/contracts/BitlimeV2Pair.sol\":2335:2355  factory = msg.sender */\n  dup1\n  sload\n  not(sub(shl(0xa0, 0x01), 0x01))\n  and\n    /* \"bitlime-core/contracts/BitlimeV2Pair.sol\":2345:2355  msg.sender */\n  caller\n    /* \"bitlime-core/contracts/BitlimeV2Pair.sol\":2335:2355  factory = msg.sender */\n  or\n  swap1\n  sstore\n    /* \"bitlime-core/contracts/BitlimeV2Pair.sol\":2366:2376  commission */\n  0x05\n    /* \"bitlime-core/contracts/BitlimeV2Pair.sol\":2366:2390  commission = _commission */\n  sstore\n  0x232e\n  dup1\n    /* \"bitlime-core/contracts/BitlimeV2Pair.sol\":300:10266  contract BitlimeV2Pair is IBitlimeV2Pair, BitlimeV2ERC20 {\r... */\n  dataOffset(sub_0)\n  0x00\n  codecopy\n  0x00\n  return\nstop\ndata_8b73c3c69bb8fe3d512ecc4cf759cc79239f7b179b0ffacaa9a75d522b39400f 454950373132446f6d61696e28737472696e67206e616d652c737472696e672076657273696f6e2c75696e7432353620636861696e49642c6164647265737320766572696679696e67436f6e747261637429\n\nsub_0: assembly {\n        /* \"bitlime-core/contracts/BitlimeV2Pair.sol\":300:10266  contract BitlimeV2Pair is IBitlimeV2Pair, BitlimeV2ERC20 {\r... */\n      mstore(0x40, 0x80)\n      callvalue\n        /* \"--CODEGEN--\":8:17   */\n      dup1\n        /* \"--CODEGEN--\":5:7   */\n      iszero\n      tag_1\n      jumpi\n        /* \"--CODEGEN--\":30:31   */\n      0x00\n        /* \"--CODEGEN--\":27:28   */\n      dup1\n        /* \"--CODEGEN--\":20:32   */\n      revert\n        /* \"--CODEGEN--\":5:7   */\n    tag_1:\n        /* \"bitlime-core/contracts/BitlimeV2Pair.sol\":300:10266  contract BitlimeV2Pair is IBitlimeV2Pair, BitlimeV2ERC20 {\r... */\n      pop\n      jumpi(tag_2, lt(calldatasize, 0x04))\n      shr(0xe0, calldataload(0x00))\n      dup1\n      0x70a08231\n      gt\n      tag_32\n      jumpi\n      dup1\n      0xbc25cf77\n      gt\n      tag_33\n      jumpi\n      dup1\n      0xdd62ed3e\n      gt\n      tag_34\n      jumpi\n      dup1\n      0xdd62ed3e\n      eq\n      tag_28\n      jumpi\n      dup1\n      0xdf922f3a\n      eq\n      tag_29\n      jumpi\n      dup1\n      0xe1489191\n      eq\n      tag_30\n      jumpi\n      dup1\n      0xfff6cae9\n      eq\n      tag_31\n      jumpi\n      jump(tag_2)\n    tag_34:\n      dup1\n      0xbc25cf77\n      eq\n      tag_24\n      jumpi\n      dup1\n      0xc45a0155\n      eq\n      tag_25\n      jumpi\n      dup1\n      0xd21220a7\n      eq\n      tag_26\n      jumpi\n      dup1\n      0xd505accf\n      eq\n      tag_27\n      jumpi\n      jump(tag_2)\n    tag_33:\n      dup1\n      0x89afcb44\n      gt\n      tag_35\n      jumpi\n      dup1\n      0x89afcb44\n      eq\n      tag_20\n      jumpi\n      dup1\n      0x95d89b41\n      eq\n      tag_21\n      jumpi\n      dup1\n      0xa9059cbb\n      eq\n      tag_22\n      jumpi\n      dup1\n      0xba9a7a56\n      eq\n      tag_23\n      jumpi\n      jump(tag_2)\n    tag_35:\n      dup1\n      0x70a08231\n      eq\n      tag_17\n      jumpi\n      dup1\n      0x7464fc3d\n      eq\n      tag_18\n      jumpi\n      dup1\n      0x7ecebe00\n      eq\n      tag_19\n      jumpi\n      jump(tag_2)\n    tag_32:\n      dup1\n      0x30adf81f\n      gt\n      tag_36\n      jumpi\n      dup1\n      0x485cc955\n      gt\n      tag_37\n      jumpi\n      dup1\n      0x485cc955\n      eq\n      tag_13\n      jumpi\n      dup1\n      0x5909c0d5\n      eq\n      tag_14\n      jumpi\n      dup1\n      0x5a3d5493\n      eq\n      tag_15\n      jumpi\n      dup1\n      0x6a627842\n      eq\n      tag_16\n      jumpi\n      jump(tag_2)\n    tag_37:\n      dup1\n      0x30adf81f\n      eq\n      tag_10\n      jumpi\n      dup1\n      0x313ce567\n      eq\n      tag_11\n      jumpi\n      dup1\n      0x3644e515\n      eq\n      tag_12\n      jumpi\n      jump(tag_2)\n    tag_36:\n      dup1\n      0x095ea7b3\n      gt\n      tag_38\n      jumpi\n      dup1\n      0x095ea7b3\n      eq\n      tag_6\n      jumpi\n      dup1\n      0x0dfe1681\n      eq\n      tag_7\n      jumpi\n      dup1\n      0x18160ddd\n      eq\n      tag_8\n      jumpi\n      dup1\n      0x23b872dd\n      eq\n      tag_9\n      jumpi\n      jump(tag_2)\n    tag_38:\n      dup1\n      0x022c0d9f\n      eq\n      tag_3\n      jumpi\n      dup1\n      0x06fdde03\n      eq\n      tag_4\n      jumpi\n      dup1\n      0x0902f1ac\n      eq\n      tag_5\n      jumpi\n    tag_2:\n      0x00\n      dup1\n      revert\n        /* \"bitlime-core/contracts/BitlimeV2Pair.sol\":7780:9673  function swap(uint amount0Out, uint amount1Out, address to, bytes calldata data) external lock {\r... */\n    tag_3:\n      tag_39\n      0x04\n      dup1\n      calldatasize\n      sub\n        /* \"--CODEGEN--\":13:16   */\n      0x80\n        /* \"--CODEGEN--\":8:11   */\n      dup2\n        /* \"--CODEGEN--\":5:17   */\n      lt\n        /* \"--CODEGEN--\":2:4   */\n      iszero\n      tag_40\n      jumpi\n        /* \"--CODEGEN--\":30:31   */\n      0x00\n        /* \"--CODEGEN--\":27:28   */\n      dup1\n        /* \"--CODEGEN--\":20:32   */\n      revert\n        /* \"--CODEGEN--\":2:4   */\n    tag_40:\n        /* \"bitlime-core/contracts/BitlimeV2Pair.sol\":7780:9673  function swap(uint amount0Out, uint amount1Out, address to, bytes calldata data) external lock {\r... */\n      dup2\n      calldataload\n      swap2\n      0x20\n      dup2\n      add\n      calldataload\n      swap2\n      0x40\n      dup3\n      add\n      calldataload\n      sub(shl(0xa0, 0x01), 0x01)\n      and\n      swap2\n      swap1\n      dup2\n      add\n      swap1\n      0x80\n      dup2\n      add\n      0x60\n      dup3\n      add\n      calldataload\n        /* \"--CODEGEN--\":21:32   */\n      0x0100000000\n        /* \"--CODEGEN--\":5:33   */\n      dup2\n      gt\n        /* \"--CODEGEN--\":2:4   */\n      iszero\n      tag_41\n      jumpi\n        /* \"--CODEGEN--\":46:47   */\n      0x00\n        /* \"--CODEGEN--\":43:44   */\n      dup1\n        /* \"--CODEGEN--\":36:48   */\n      revert\n        /* \"--CODEGEN--\":2:4   */\n    tag_41:\n        /* \"bitlime-core/contracts/BitlimeV2Pair.sol\":7780:9673  function swap(uint amount0Out, uint amount1Out, address to, bytes calldata data) external lock {\r... */\n      dup3\n      add\n        /* \"--CODEGEN--\":35:44   */\n      dup4\n        /* \"--CODEGEN--\":28:32   */\n      0x20\n        /* \"--CODEGEN--\":12:26   */\n      dup3\n        /* \"--CODEGEN--\":8:33   */\n      add\n        /* \"--CODEGEN--\":5:45   */\n      gt\n        /* \"--CODEGEN--\":2:4   */\n      iszero\n      tag_42\n      jumpi\n        /* \"--CODEGEN--\":58:59   */\n      0x00\n        /* \"--CODEGEN--\":55:56   */\n      dup1\n        /* \"--CODEGEN--\":48:60   */\n      revert\n        /* \"--CODEGEN--\":2:4   */\n    tag_42:\n        /* \"bitlime-core/contracts/BitlimeV2Pair.sol\":7780:9673  function swap(uint amount0Out, uint amount1Out, address to, bytes calldata data) external lock {\r... */\n      dup1\n      calldataload\n      swap1\n      0x20\n      add\n      swap2\n        /* \"--CODEGEN--\":100:109   */\n      dup5\n        /* \"--CODEGEN--\":95:96   */\n      0x01\n        /* \"--CODEGEN--\":81:93   */\n      dup4\n        /* \"--CODEGEN--\":77:97   */\n      mul\n        /* \"--CODEGEN--\":67:75   */\n      dup5\n        /* \"--CODEGEN--\":63:98   */\n      add\n        /* \"--CODEGEN--\":60:110   */\n      gt\n        /* \"--CODEGEN--\":39:50   */\n      0x0100000000\n        /* \"--CODEGEN--\":25:37   */\n      dup4\n        /* \"--CODEGEN--\":22:51   */\n      gt\n        /* \"--CODEGEN--\":11:118   */\n      or\n        /* \"--CODEGEN--\":8:10   */\n      iszero\n      tag_43\n      jumpi\n        /* \"--CODEGEN--\":131:132   */\n      0x00\n        /* \"--CODEGEN--\":128:129   */\n      dup1\n        /* \"--CODEGEN--\":121:133   */\n      revert\n        /* \"--CODEGEN--\":8:10   */\n    tag_43:\n      pop\n        /* \"bitlime-core/contracts/BitlimeV2Pair.sol\":7780:9673  function swap(uint amount0Out, uint amount1Out, address to, bytes calldata data) external lock {\r... */\n      swap1\n      swap3\n      pop\n      swap1\n      pop\n      tag_44\n      jump\t// in\n    tag_39:\n      stop\n        /* \"bitlime-core/contracts/BitlimeV2ERC20.sol\":192:234  string public constant name = 'Bitlime V2' */\n    tag_4:\n      tag_45\n      tag_46\n      jump\t// in\n    tag_45:\n      0x40\n      dup1\n      mload\n      0x20\n      dup1\n      dup3\n      mstore\n      dup4\n      mload\n      dup2\n      dup4\n      add\n      mstore\n      dup4\n      mload\n      swap2\n      swap3\n      dup4\n      swap3\n      swap1\n      dup4\n      add\n      swap2\n      dup6\n      add\n      swap1\n      dup1\n      dup4\n      dup4\n      0x00\n        /* \"--CODEGEN--\":8:108   */\n    tag_47:\n        /* \"--CODEGEN--\":33:36   */\n      dup4\n        /* \"--CODEGEN--\":30:31   */\n      dup2\n        /* \"--CODEGEN--\":27:37   */\n      lt\n        /* \"--CODEGEN--\":8:108   */\n      iszero\n      tag_49\n      jumpi\n        /* \"--CODEGEN--\":90:101   */\n      dup2\n      dup2\n      add\n        /* \"--CODEGEN--\":84:102   */\n      mload\n        /* \"--CODEGEN--\":71:82   */\n      dup4\n      dup3\n      add\n        /* \"--CODEGEN--\":64:103   */\n      mstore\n        /* \"--CODEGEN--\":52:54   */\n      0x20\n        /* \"--CODEGEN--\":45:55   */\n      add\n        /* \"--CODEGEN--\":8:108   */\n      jump(tag_47)\n    tag_49:\n        /* \"--CODEGEN--\":12:26   */\n      pop\n        /* \"bitlime-core/contracts/BitlimeV2ERC20.sol\":192:234  string public constant name = 'Bitlime V2' */\n      pop\n      pop\n      pop\n      swap1\n      pop\n      swap1\n      dup2\n      add\n      swap1\n      0x1f\n      and\n      dup1\n      iszero\n      tag_50\n      jumpi\n      dup1\n      dup3\n      sub\n      dup1\n      mload\n      0x01\n      dup4\n      0x20\n      sub\n      0x0100\n      exp\n      sub\n      not\n      and\n      dup2\n      mstore\n      0x20\n      add\n      swap2\n      pop\n    tag_50:\n      pop\n      swap3\n      pop\n      pop\n      pop\n      mload(0x40)\n      dup1\n      swap2\n      sub\n      swap1\n      return\n        /* \"bitlime-core/contracts/BitlimeV2Pair.sol\":1352:1583  function getReserves() public view returns (uint112 _reserve0, uint112 _reserve1, uint32 _blockTimestampLast) {\r... */\n    tag_5:\n      tag_51\n      tag_52\n      jump\t// in\n    tag_51:\n      0x40\n      dup1\n      mload\n      sub(shl(0x70, 0x01), 0x01)\n      swap5\n      dup6\n      and\n      dup2\n      mstore\n      swap3\n      swap1\n      swap4\n      and\n      0x20\n      dup4\n      add\n      mstore\n      0xffffffff\n      and\n      dup2\n      dup4\n      add\n      mstore\n      swap1\n      mload\n      swap1\n      dup2\n      swap1\n      sub\n      0x60\n      add\n      swap1\n      return\n        /* \"bitlime-core/contracts/BitlimeV2ERC20.sol\":2240:2387  function approve(address spender, uint value) external returns (bool) {\r... */\n    tag_6:\n      tag_53\n      0x04\n      dup1\n      calldatasize\n      sub\n        /* \"--CODEGEN--\":13:15   */\n      0x40\n        /* \"--CODEGEN--\":8:11   */\n      dup2\n        /* \"--CODEGEN--\":5:16   */\n      lt\n        /* \"--CODEGEN--\":2:4   */\n      iszero\n      tag_54\n      jumpi\n        /* \"--CODEGEN--\":29:30   */\n      0x00\n        /* \"--CODEGEN--\":26:27   */\n      dup1\n        /* \"--CODEGEN--\":19:31   */\n      revert\n        /* \"--CODEGEN--\":2:4   */\n    tag_54:\n      pop\n        /* \"bitlime-core/contracts/BitlimeV2ERC20.sol\":2240:2387  function approve(address spender, uint value) external returns (bool) {\r... */\n      dup1\n      calldataload\n      sub(shl(0xa0, 0x01), 0x01)\n      and\n      swap1\n      0x20\n      add\n      calldataload\n      tag_55\n      jump\t// in\n    tag_53:\n      0x40\n      dup1\n      mload\n      swap2\n      iszero\n      iszero\n      dup3\n      mstore\n      mload\n      swap1\n      dup2\n      swap1\n      sub\n      0x20\n      add\n      swap1\n      return\n        /* \"bitlime-core/contracts/BitlimeV2Pair.sol\":641:662  address public token0 */\n    tag_7:\n      tag_56\n      tag_57\n      jump\t// in\n    tag_56:\n      0x40\n      dup1\n      mload\n      0x01\n      dup1\n      0xa0\n      shl\n      sub\n      swap1\n      swap3\n      and\n      dup3\n      mstore\n      mload\n      swap1\n      dup2\n      swap1\n      sub\n      0x20\n      add\n      swap1\n      return\n        /* \"bitlime-core/contracts/BitlimeV2ERC20.sol\":331:355  uint  public totalSupply */\n    tag_8:\n      tag_58\n      tag_59\n      jump\t// in\n    tag_58:\n      0x40\n      dup1\n      mload\n      swap2\n      dup3\n      mstore\n      mload\n      swap1\n      dup2\n      swap1\n      sub\n      0x20\n      add\n      swap1\n      return\n        /* \"bitlime-core/contracts/BitlimeV2ERC20.sol\":2542:2843  function transferFrom(address from, address to, uint value) external returns (bool) {\r... */\n    tag_9:\n      tag_53\n      0x04\n      dup1\n      calldatasize\n      sub\n        /* \"--CODEGEN--\":13:15   */\n      0x60\n        /* \"--CODEGEN--\":8:11   */\n      dup2\n        /* \"--CODEGEN--\":5:16   */\n      lt\n        /* \"--CODEGEN--\":2:4   */\n      iszero\n      tag_61\n      jumpi\n        /* \"--CODEGEN--\":29:30   */\n      0x00\n        /* \"--CODEGEN--\":26:27   */\n      dup1\n        /* \"--CODEGEN--\":19:31   */\n      revert\n        /* \"--CODEGEN--\":2:4   */\n    tag_61:\n      pop\n      sub(shl(0xa0, 0x01), 0x01)\n        /* \"bitlime-core/contracts/BitlimeV2ERC20.sol\":2542:2843  function transferFrom(address from, address to, uint value) external returns (bool) {\r... */\n      dup2\n      calldataload\n      dup2\n      and\n      swap2\n      0x20\n      dup2\n      add\n      calldataload\n      swap1\n      swap2\n      and\n      swap1\n      0x40\n      add\n      calldataload\n      tag_62\n      jump\t// in\n        /* \"bitlime-core/contracts/BitlimeV2ERC20.sol\":623:731  bytes32 public constant PERMIT_TYPEHASH = 0x6e71edae12b1b97f4d1f60370fef10105fa2faae0126114a169c64845d6126c9 */\n    tag_10:\n      tag_58\n      tag_64\n      jump\t// in\n        /* \"bitlime-core/contracts/BitlimeV2ERC20.sol\":289:324  uint8 public constant decimals = 18 */\n    tag_11:\n      tag_65\n      tag_66\n      jump\t// in\n    tag_65:\n      0x40\n      dup1\n      mload\n      0xff\n      swap1\n      swap3\n      and\n      dup3\n      mstore\n      mload\n      swap1\n      dup2\n      swap1\n      sub\n      0x20\n      add\n      swap1\n      return\n        /* \"bitlime-core/contracts/BitlimeV2ERC20.sol\":480:511  bytes32 public DOMAIN_SEPARATOR */\n    tag_12:\n      tag_58\n      tag_68\n      jump\t// in\n        /* \"bitlime-core/contracts/BitlimeV2Pair.sol\":2463:2673  function initialize(address _token0, address _token1) external {\r... */\n    tag_13:\n      tag_39\n      0x04\n      dup1\n      calldatasize\n      sub\n        /* \"--CODEGEN--\":13:15   */\n      0x40\n        /* \"--CODEGEN--\":8:11   */\n      dup2\n        /* \"--CODEGEN--\":5:16   */\n      lt\n        /* \"--CODEGEN--\":2:4   */\n      iszero\n      tag_70\n      jumpi\n        /* \"--CODEGEN--\":29:30   */\n      0x00\n        /* \"--CODEGEN--\":26:27   */\n      dup1\n        /* \"--CODEGEN--\":19:31   */\n      revert\n        /* \"--CODEGEN--\":2:4   */\n    tag_70:\n      pop\n      sub(shl(0xa0, 0x01), 0x01)\n        /* \"bitlime-core/contracts/BitlimeV2Pair.sol\":2463:2673  function initialize(address _token0, address _token1) external {\r... */\n      dup2\n      calldataload\n      dup2\n      and\n      swap2\n      0x20\n      add\n      calldataload\n      and\n      tag_71\n      jump\t// in\n        /* \"bitlime-core/contracts/BitlimeV2Pair.sol\":992:1024  uint public price0CumulativeLast */\n    tag_14:\n      tag_58\n      tag_73\n      jump\t// in\n        /* \"bitlime-core/contracts/BitlimeV2Pair.sol\":1031:1063  uint public price1CumulativeLast */\n    tag_15:\n      tag_58\n      tag_75\n      jump\t// in\n        /* \"bitlime-core/contracts/BitlimeV2Pair.sol\":4850:6090  function mint(address to) external lock returns (uint liquidity) {\r... */\n    tag_16:\n      tag_58\n      0x04\n      dup1\n      calldatasize\n      sub\n        /* \"--CODEGEN--\":13:15   */\n      0x20\n        /* \"--CODEGEN--\":8:11   */\n      dup2\n        /* \"--CODEGEN--\":5:16   */\n      lt\n        /* \"--CODEGEN--\":2:4   */\n      iszero\n      tag_77\n      jumpi\n        /* \"--CODEGEN--\":29:30   */\n      0x00\n        /* \"--CODEGEN--\":26:27   */\n      dup1\n        /* \"--CODEGEN--\":19:31   */\n      revert\n        /* \"--CODEGEN--\":2:4   */\n    tag_77:\n      pop\n        /* \"bitlime-core/contracts/BitlimeV2Pair.sol\":4850:6090  function mint(address to) external lock returns (uint liquidity) {\r... */\n      calldataload\n      sub(shl(0xa0, 0x01), 0x01)\n      and\n      tag_78\n      jump\t// in\n        /* \"bitlime-core/contracts/BitlimeV2ERC20.sol\":362:403  mapping(address => uint) public balanceOf */\n    tag_17:\n      tag_58\n      0x04\n      dup1\n      calldatasize\n      sub\n        /* \"--CODEGEN--\":13:15   */\n      0x20\n        /* \"--CODEGEN--\":8:11   */\n      dup2\n        /* \"--CODEGEN--\":5:16   */\n      lt\n        /* \"--CODEGEN--\":2:4   */\n      iszero\n      tag_80\n      jumpi\n        /* \"--CODEGEN--\":29:30   */\n      0x00\n        /* \"--CODEGEN--\":26:27   */\n      dup1\n        /* \"--CODEGEN--\":19:31   */\n      revert\n        /* \"--CODEGEN--\":2:4   */\n    tag_80:\n      pop\n        /* \"bitlime-core/contracts/BitlimeV2ERC20.sol\":362:403  mapping(address => uint) public balanceOf */\n      calldataload\n      sub(shl(0xa0, 0x01), 0x01)\n      and\n      tag_81\n      jump\t// in\n        /* \"bitlime-core/contracts/BitlimeV2Pair.sol\":1070:1087  uint public kLast */\n    tag_18:\n      tag_58\n      tag_83\n      jump\t// in\n        /* \"bitlime-core/contracts/BitlimeV2ERC20.sol\":738:776  mapping(address => uint) public nonces */\n    tag_19:\n      tag_58\n      0x04\n      dup1\n      calldatasize\n      sub\n        /* \"--CODEGEN--\":13:15   */\n      0x20\n        /* \"--CODEGEN--\":8:11   */\n      dup2\n        /* \"--CODEGEN--\":5:16   */\n      lt\n        /* \"--CODEGEN--\":2:4   */\n      iszero\n      tag_85\n      jumpi\n        /* \"--CODEGEN--\":29:30   */\n      0x00\n        /* \"--CODEGEN--\":26:27   */\n      dup1\n        /* \"--CODEGEN--\":19:31   */\n      revert\n        /* \"--CODEGEN--\":2:4   */\n    tag_85:\n      pop\n        /* \"bitlime-core/contracts/BitlimeV2ERC20.sol\":738:776  mapping(address => uint) public nonces */\n      calldataload\n      sub(shl(0xa0, 0x01), 0x01)\n      and\n      tag_86\n      jump\t// in\n        /* \"bitlime-core/contracts/BitlimeV2Pair.sol\":6202:7668  function burn(address to) external lock returns (uint amount0, uint amount1) {\r... */\n    tag_20:\n      tag_87\n      0x04\n      dup1\n      calldatasize\n      sub\n        /* \"--CODEGEN--\":13:15   */\n      0x20\n        /* \"--CODEGEN--\":8:11   */\n      dup2\n        /* \"--CODEGEN--\":5:16   */\n      lt\n        /* \"--CODEGEN--\":2:4   */\n      iszero\n      tag_88\n      jumpi\n        /* \"--CODEGEN--\":29:30   */\n      0x00\n        /* \"--CODEGEN--\":26:27   */\n      dup1\n        /* \"--CODEGEN--\":19:31   */\n      revert\n        /* \"--CODEGEN--\":2:4   */\n    tag_88:\n      pop\n        /* \"bitlime-core/contracts/BitlimeV2Pair.sol\":6202:7668  function burn(address to) external lock returns (uint amount0, uint amount1) {\r... */\n      calldataload\n      sub(shl(0xa0, 0x01), 0x01)\n      and\n      tag_89\n      jump\t// in\n    tag_87:\n      0x40\n      dup1\n      mload\n      swap3\n      dup4\n      mstore\n      0x20\n      dup4\n      add\n      swap2\n      swap1\n      swap2\n      mstore\n      dup1\n      mload\n      swap2\n      dup3\n      swap1\n      sub\n      add\n      swap1\n      return\n        /* \"bitlime-core/contracts/BitlimeV2ERC20.sol\":241:282  string public constant symbol = 'LIME-V2' */\n    tag_21:\n      tag_45\n      tag_91\n      jump\t// in\n        /* \"bitlime-core/contracts/BitlimeV2ERC20.sol\":2395:2534  function transfer(address to, uint value) external returns (bool) {\r... */\n    tag_22:\n      tag_53\n      0x04\n      dup1\n      calldatasize\n      sub\n        /* \"--CODEGEN--\":13:15   */\n      0x40\n        /* \"--CODEGEN--\":8:11   */\n      dup2\n        /* \"--CODEGEN--\":5:16   */\n      lt\n        /* \"--CODEGEN--\":2:4   */\n      iszero\n      tag_97\n      jumpi\n        /* \"--CODEGEN--\":29:30   */\n      0x00\n        /* \"--CODEGEN--\":26:27   */\n      dup1\n        /* \"--CODEGEN--\":19:31   */\n      revert\n        /* \"--CODEGEN--\":2:4   */\n    tag_97:\n      pop\n        /* \"bitlime-core/contracts/BitlimeV2ERC20.sol\":2395:2534  function transfer(address to, uint value) external returns (bool) {\r... */\n      dup1\n      calldataload\n      sub(shl(0xa0, 0x01), 0x01)\n      and\n      swap1\n      0x20\n      add\n      calldataload\n      tag_98\n      jump\t// in\n        /* \"bitlime-core/contracts/BitlimeV2Pair.sol\":462:508  uint public constant MINIMUM_LIQUIDITY = 10**3 */\n    tag_23:\n      tag_58\n      tag_100\n      jump\t// in\n        /* \"bitlime-core/contracts/BitlimeV2Pair.sol\":9722:10056  function skim(address to) external lock {\r... */\n    tag_24:\n      tag_39\n      0x04\n      dup1\n      calldatasize\n      sub\n        /* \"--CODEGEN--\":13:15   */\n      0x20\n        /* \"--CODEGEN--\":8:11   */\n      dup2\n        /* \"--CODEGEN--\":5:16   */\n      lt\n        /* \"--CODEGEN--\":2:4   */\n      iszero\n      tag_102\n      jumpi\n        /* \"--CODEGEN--\":29:30   */\n      0x00\n        /* \"--CODEGEN--\":26:27   */\n      dup1\n        /* \"--CODEGEN--\":19:31   */\n      revert\n        /* \"--CODEGEN--\":2:4   */\n    tag_102:\n      pop\n        /* \"bitlime-core/contracts/BitlimeV2Pair.sol\":9722:10056  function skim(address to) external lock {\r... */\n      calldataload\n      sub(shl(0xa0, 0x01), 0x01)\n      and\n      tag_103\n      jump\t// in\n        /* \"bitlime-core/contracts/BitlimeV2Pair.sol\":612:634  address public factory */\n    tag_25:\n      tag_56\n      tag_105\n      jump\t// in\n        /* \"bitlime-core/contracts/BitlimeV2Pair.sol\":669:690  address public token1 */\n    tag_26:\n      tag_56\n      tag_107\n      jump\t// in\n        /* \"bitlime-core/contracts/BitlimeV2ERC20.sol\":2851:3525  function permit(address owner, address spender, uint value, uint deadline, uint8 v, bytes32 r, bytes32 s) external {\r... */\n    tag_27:\n      tag_39\n      0x04\n      dup1\n      calldatasize\n      sub\n        /* \"--CODEGEN--\":13:16   */\n      0xe0\n        /* \"--CODEGEN--\":8:11   */\n      dup2\n        /* \"--CODEGEN--\":5:17   */\n      lt\n        /* \"--CODEGEN--\":2:4   */\n      iszero\n      tag_109\n      jumpi\n        /* \"--CODEGEN--\":30:31   */\n      0x00\n        /* \"--CODEGEN--\":27:28   */\n      dup1\n        /* \"--CODEGEN--\":20:32   */\n      revert\n        /* \"--CODEGEN--\":2:4   */\n    tag_109:\n      pop\n      sub(shl(0xa0, 0x01), 0x01)\n        /* \"bitlime-core/contracts/BitlimeV2ERC20.sol\":2851:3525  function permit(address owner, address spender, uint value, uint deadline, uint8 v, bytes32 r, bytes32 s) external {\r... */\n      dup2\n      calldataload\n      dup2\n      and\n      swap2\n      0x20\n      dup2\n      add\n      calldataload\n      swap1\n      swap2\n      and\n      swap1\n      0x40\n      dup2\n      add\n      calldataload\n      swap1\n      0x60\n      dup2\n      add\n      calldataload\n      swap1\n      0xff\n      0x80\n      dup3\n      add\n      calldataload\n      and\n      swap1\n      0xa0\n      dup2\n      add\n      calldataload\n      swap1\n      0xc0\n      add\n      calldataload\n      tag_110\n      jump\t// in\n        /* \"bitlime-core/contracts/BitlimeV2ERC20.sol\":410:471  mapping(address => mapping(address => uint)) public allowance */\n    tag_28:\n      tag_58\n      0x04\n      dup1\n      calldatasize\n      sub\n        /* \"--CODEGEN--\":13:15   */\n      0x40\n        /* \"--CODEGEN--\":8:11   */\n      dup2\n        /* \"--CODEGEN--\":5:16   */\n      lt\n        /* \"--CODEGEN--\":2:4   */\n      iszero\n      tag_112\n      jumpi\n        /* \"--CODEGEN--\":29:30   */\n      0x00\n        /* \"--CODEGEN--\":26:27   */\n      dup1\n        /* \"--CODEGEN--\":19:31   */\n      revert\n        /* \"--CODEGEN--\":2:4   */\n    tag_112:\n      pop\n      sub(shl(0xa0, 0x01), 0x01)\n        /* \"bitlime-core/contracts/BitlimeV2ERC20.sol\":410:471  mapping(address => mapping(address => uint)) public allowance */\n      dup2\n      calldataload\n      dup2\n      and\n      swap2\n      0x20\n      add\n      calldataload\n      and\n      tag_113\n      jump\t// in\n        /* \"bitlime-core/contracts/BitlimeV2Pair.sol\":2681:2866  function changeCommission(uint newCommission) external {\r... */\n    tag_29:\n      tag_39\n      0x04\n      dup1\n      calldatasize\n      sub\n        /* \"--CODEGEN--\":13:15   */\n      0x20\n        /* \"--CODEGEN--\":8:11   */\n      dup2\n        /* \"--CODEGEN--\":5:16   */\n      lt\n        /* \"--CODEGEN--\":2:4   */\n      iszero\n      tag_115\n      jumpi\n        /* \"--CODEGEN--\":29:30   */\n      0x00\n        /* \"--CODEGEN--\":26:27   */\n      dup1\n        /* \"--CODEGEN--\":19:31   */\n      revert\n        /* \"--CODEGEN--\":2:4   */\n    tag_115:\n      pop\n        /* \"bitlime-core/contracts/BitlimeV2Pair.sol\":2681:2866  function changeCommission(uint newCommission) external {\r... */\n      calldataload\n      tag_116\n      jump\t// in\n        /* \"bitlime-core/contracts/BitlimeV2Pair.sol\":431:453  uint public commission */\n    tag_30:\n      tag_58\n      tag_118\n      jump\t// in\n        /* \"bitlime-core/contracts/BitlimeV2Pair.sol\":10105:10263  function sync() external lock {\r... */\n    tag_31:\n      tag_39\n      tag_120\n      jump\t// in\n        /* \"bitlime-core/contracts/BitlimeV2Pair.sol\":7780:9673  function swap(uint amount0Out, uint amount1Out, address to, bytes calldata data) external lock {\r... */\n    tag_44:\n        /* \"bitlime-core/contracts/BitlimeV2Pair.sol\":1243:1251  unlocked */\n      sload(0x0d)\n        /* \"bitlime-core/contracts/BitlimeV2Pair.sol\":1255:1256  1 */\n      0x01\n        /* \"bitlime-core/contracts/BitlimeV2Pair.sol\":1243:1256  unlocked == 1 */\n      eq\n        /* \"bitlime-core/contracts/BitlimeV2Pair.sol\":1235:1278  require(unlocked == 1, 'BitlimeV2: LOCKED') */\n      tag_122\n      jumpi\n      0x40\n      dup1\n      mload\n      shl(0xe5, 0x461bcd)\n      dup2\n      mstore\n      0x20\n      0x04\n      dup3\n      add\n      mstore\n      0x11\n      0x24\n      dup3\n      add\n      mstore\n      shl(0x7a, 0x109a5d1b1a5b59558c8e881313d0d2d151)\n      0x44\n      dup3\n      add\n      mstore\n      swap1\n      mload\n      swap1\n      dup2\n      swap1\n      sub\n      0x64\n      add\n      swap1\n      revert\n    tag_122:\n        /* \"bitlime-core/contracts/BitlimeV2Pair.sol\":1300:1301  0 */\n      0x00\n        /* \"bitlime-core/contracts/BitlimeV2Pair.sol\":1289:1297  unlocked */\n      0x0d\n        /* \"bitlime-core/contracts/BitlimeV2Pair.sol\":1289:1301  unlocked = 0 */\n      sstore\n        /* \"bitlime-core/contracts/BitlimeV2Pair.sol\":7894:7908  amount0Out > 0 */\n      dup5\n      iszero\n      iszero\n      dup1\n        /* \"bitlime-core/contracts/BitlimeV2Pair.sol\":7894:7926  amount0Out > 0 || amount1Out > 0 */\n      tag_124\n      jumpi\n      pop\n        /* \"bitlime-core/contracts/BitlimeV2Pair.sol\":7925:7926  0 */\n      0x00\n        /* \"bitlime-core/contracts/BitlimeV2Pair.sol\":7912:7922  amount1Out */\n      dup5\n        /* \"bitlime-core/contracts/BitlimeV2Pair.sol\":7912:7926  amount1Out > 0 */\n      gt\n        /* \"bitlime-core/contracts/BitlimeV2Pair.sol\":7894:7926  amount0Out > 0 || amount1Out > 0 */\n    tag_124:\n        /* \"bitlime-core/contracts/BitlimeV2Pair.sol\":7886:7968  require(amount0Out > 0 || amount1Out > 0, 'BitlimeV2: INSUFFICIENT_OUTPUT_AMOUNT') */\n      tag_125\n      jumpi\n      mload(0x40)\n      shl(0xe5, 0x461bcd)\n      dup2\n      mstore\n      0x04\n      add\n      dup1\n      dup1\n      0x20\n      add\n      dup3\n      dup2\n      sub\n      dup3\n      mstore\n      0x25\n      dup2\n      mstore\n      0x20\n      add\n      dup1\n      data_9c31f546836fef68e48c77674d61c5187863c856fd31a93ea5e92163d3264089\n      0x25\n      swap2\n      codecopy\n      0x40\n      add\n      swap2\n      pop\n      pop\n      mload(0x40)\n      dup1\n      swap2\n      sub\n      swap1\n      revert\n    tag_125:\n        /* \"bitlime-core/contracts/BitlimeV2Pair.sol\":7980:7997  uint112 _reserve0 */\n      0x00\n        /* \"bitlime-core/contracts/BitlimeV2Pair.sol\":7999:8016  uint112 _reserve1 */\n      dup1\n        /* \"bitlime-core/contracts/BitlimeV2Pair.sol\":8021:8034  getReserves() */\n      tag_126\n        /* \"bitlime-core/contracts/BitlimeV2Pair.sol\":8021:8032  getReserves */\n      tag_52\n        /* \"bitlime-core/contracts/BitlimeV2Pair.sol\":8021:8034  getReserves() */\n      jump\t// in\n    tag_126:\n      pop\n        /* \"bitlime-core/contracts/BitlimeV2Pair.sol\":7979:8034  (uint112 _reserve0, uint112 _reserve1,) = getReserves() */\n      swap1\n      swap3\n      pop\n      swap1\n      pop\n      sub(shl(0x70, 0x01), 0x01)\n        /* \"bitlime-core/contracts/BitlimeV2Pair.sol\":8068:8090  amount0Out < _reserve0 */\n      dup3\n      and\n      dup8\n      lt\n        /* \"bitlime-core/contracts/BitlimeV2Pair.sol\":8068:8116  amount0Out < _reserve0 && amount1Out < _reserve1 */\n      dup1\n      iszero\n      tag_127\n      jumpi\n      pop\n      sub(shl(0x70, 0x01), 0x01)\n        /* \"bitlime-core/contracts/BitlimeV2Pair.sol\":8094:8116  amount1Out < _reserve1 */\n      dup2\n      and\n      dup7\n      lt\n        /* \"bitlime-core/contracts/BitlimeV2Pair.sol\":8068:8116  amount0Out < _reserve0 && amount1Out < _reserve1 */\n    tag_127:\n        /* \"bitlime-core/contracts/BitlimeV2Pair.sol\":8060:8154  require(amount0Out < _reserve0 && amount1Out < _reserve1, 'BitlimeV2: INSUFFICIENT_LIQUIDITY') */\n      tag_128\n      jumpi\n      mload(0x40)\n      shl(0xe5, 0x461bcd)\n      dup2\n      mstore\n      0x04\n      add\n      dup1\n      dup1\n      0x20\n      add\n      dup3\n      dup2\n      sub\n      dup3\n      mstore\n      0x21\n      dup2\n      mstore\n      0x20\n      add\n      dup1\n      data_d5323258f0a8544d611f8358491cb469df3ed77d3f47339d7596e213964c6862\n      0x21\n      swap2\n      codecopy\n      0x40\n      add\n      swap2\n      pop\n      pop\n      mload(0x40)\n      dup1\n      swap2\n      sub\n      swap1\n      revert\n    tag_128:\n        /* \"bitlime-core/contracts/BitlimeV2Pair.sol\":8299:8305  token0 */\n      sload(0x07)\n        /* \"bitlime-core/contracts/BitlimeV2Pair.sol\":8334:8340  token1 */\n      sload(0x08)\n        /* \"bitlime-core/contracts/BitlimeV2Pair.sol\":8167:8180  uint balance0 */\n      0x00\n      swap2\n      dup3\n      swap2\n      sub(shl(0xa0, 0x01), 0x01)\n        /* \"bitlime-core/contracts/BitlimeV2Pair.sol\":8299:8305  token0 */\n      swap2\n      dup3\n      and\n      swap2\n        /* \"bitlime-core/contracts/BitlimeV2Pair.sol\":8334:8340  token1 */\n      swap1\n      dup2\n      and\n      swap1\n        /* \"bitlime-core/contracts/BitlimeV2Pair.sol\":8359:8372  to != _token0 */\n      dup10\n      and\n      dup3\n      eq\n      dup1\n      iszero\n      swap1\n        /* \"bitlime-core/contracts/BitlimeV2Pair.sol\":8359:8389  to != _token0 && to != _token1 */\n      tag_129\n      jumpi\n      pop\n      sub(shl(0xa0, 0x01), 0x01)\n        /* \"bitlime-core/contracts/BitlimeV2Pair.sol\":8376:8389  to != _token1 */\n      dup10\n      dup2\n      and\n      swap1\n      dup3\n      and\n      eq\n      iszero\n        /* \"bitlime-core/contracts/BitlimeV2Pair.sol\":8359:8389  to != _token0 && to != _token1 */\n    tag_129:\n        /* \"bitlime-core/contracts/BitlimeV2Pair.sol\":8351:8415  require(to != _token0 && to != _token1, 'BitlimeV2: INVALID_TO') */\n      tag_130\n      jumpi\n      0x40\n      dup1\n      mload\n      shl(0xe5, 0x461bcd)\n      dup2\n      mstore\n      0x20\n      0x04\n      dup3\n      add\n      mstore\n      0x15\n      0x24\n      dup3\n      add\n      mstore\n      shl(0x58, 0x4269746c696d6556323a20494e56414c49445f544f)\n      0x44\n      dup3\n      add\n      mstore\n      swap1\n      mload\n      swap1\n      dup2\n      swap1\n      sub\n      0x64\n      add\n      swap1\n      revert\n    tag_130:\n        /* \"bitlime-core/contracts/BitlimeV2Pair.sol\":8430:8444  amount0Out > 0 */\n      dup11\n      iszero\n        /* \"bitlime-core/contracts/BitlimeV2Pair.sol\":8426:8484  if (amount0Out > 0) _safeTransfer(_token0, to, amount0Out) */\n      tag_132\n      jumpi\n        /* \"bitlime-core/contracts/BitlimeV2Pair.sol\":8446:8484  _safeTransfer(_token0, to, amount0Out) */\n      tag_132\n        /* \"bitlime-core/contracts/BitlimeV2Pair.sol\":8460:8467  _token0 */\n      dup3\n        /* \"bitlime-core/contracts/BitlimeV2Pair.sol\":8469:8471  to */\n      dup11\n        /* \"bitlime-core/contracts/BitlimeV2Pair.sol\":8473:8483  amount0Out */\n      dup14\n        /* \"bitlime-core/contracts/BitlimeV2Pair.sol\":8446:8459  _safeTransfer */\n      tag_133\n        /* \"bitlime-core/contracts/BitlimeV2Pair.sol\":8446:8484  _safeTransfer(_token0, to, amount0Out) */\n      jump\t// in\n    tag_132:\n        /* \"bitlime-core/contracts/BitlimeV2Pair.sol\":8533:8547  amount1Out > 0 */\n      dup10\n      iszero\n        /* \"bitlime-core/contracts/BitlimeV2Pair.sol\":8529:8587  if (amount1Out > 0) _safeTransfer(_token1, to, amount1Out) */\n      tag_135\n      jumpi\n        /* \"bitlime-core/contracts/BitlimeV2Pair.sol\":8549:8587  _safeTransfer(_token1, to, amount1Out) */\n      tag_135\n        /* \"bitlime-core/contracts/BitlimeV2Pair.sol\":8563:8570  _token1 */\n      dup2\n        /* \"bitlime-core/contracts/BitlimeV2Pair.sol\":8572:8574  to */\n      dup11\n        /* \"bitlime-core/contracts/BitlimeV2Pair.sol\":8576:8586  amount1Out */\n      dup13\n        /* \"bitlime-core/contracts/BitlimeV2Pair.sol\":8549:8562  _safeTransfer */\n      tag_133\n        /* \"bitlime-core/contracts/BitlimeV2Pair.sol\":8549:8587  _safeTransfer(_token1, to, amount1Out) */\n      jump\t// in\n    tag_135:\n        /* \"bitlime-core/contracts/BitlimeV2Pair.sol\":8636:8651  data.length > 0 */\n      dup7\n      iszero\n        /* \"bitlime-core/contracts/BitlimeV2Pair.sol\":8632:8729  if (data.length > 0) IBitlimeV2Callee(to).BitlimeV2Call(msg.sender, amount0Out, amount1Out, data) */\n      tag_136\n      jumpi\n        /* \"bitlime-core/contracts/BitlimeV2Pair.sol\":8670:8672  to */\n      dup9\n      0x01\n      dup1\n      0xa0\n      shl\n      sub\n        /* \"bitlime-core/contracts/BitlimeV2Pair.sol\":8653:8687  IBitlimeV2Callee(to).BitlimeV2Call */\n      and\n      0x42dc568e\n        /* \"bitlime-core/contracts/BitlimeV2Pair.sol\":8688:8698  msg.sender */\n      caller\n        /* \"bitlime-core/contracts/BitlimeV2Pair.sol\":8700:8710  amount0Out */\n      dup14\n        /* \"bitlime-core/contracts/BitlimeV2Pair.sol\":8712:8722  amount1Out */\n      dup14\n        /* \"bitlime-core/contracts/BitlimeV2Pair.sol\":8724:8728  data */\n      dup13\n      dup13\n        /* \"bitlime-core/contracts/BitlimeV2Pair.sol\":8653:8729  IBitlimeV2Callee(to).BitlimeV2Call(msg.sender, amount0Out, amount1Out, data) */\n      mload(0x40)\n      dup7\n      0xffffffff\n      and\n      0xe0\n      shl\n      dup2\n      mstore\n      0x04\n      add\n      dup1\n      dup7\n      0x01\n      dup1\n      0xa0\n      shl\n      sub\n      and\n      0x01\n      dup1\n      0xa0\n      shl\n      sub\n      and\n      dup2\n      mstore\n      0x20\n      add\n      dup6\n      dup2\n      mstore\n      0x20\n      add\n      dup5\n      dup2\n      mstore\n      0x20\n      add\n      dup1\n      0x20\n      add\n      dup3\n      dup2\n      sub\n      dup3\n      mstore\n      dup5\n      dup5\n      dup3\n      dup2\n      dup2\n      mstore\n      0x20\n      add\n      swap3\n      pop\n        /* \"--CODEGEN--\":30:33   */\n      dup1\n        /* \"--CODEGEN--\":22:28   */\n      dup3\n        /* \"--CODEGEN--\":14:20   */\n      dup5\n        /* \"--CODEGEN--\":1:34   */\n      calldatacopy\n        /* \"--CODEGEN--\":99:100   */\n      0x00\n        /* \"--CODEGEN--\":93:96   */\n      dup2\n        /* \"--CODEGEN--\":85:91   */\n      dup5\n        /* \"--CODEGEN--\":81:97   */\n      add\n        /* \"--CODEGEN--\":74:101   */\n      mstore\n        /* \"--CODEGEN--\":137:141   */\n      0x1f\n        /* \"--CODEGEN--\":133:142   */\n      not\n        /* \"--CODEGEN--\":126:130   */\n      0x1f\n        /* \"--CODEGEN--\":121:124   */\n      dup3\n        /* \"--CODEGEN--\":117:131   */\n      add\n        /* \"--CODEGEN--\":113:143   */\n      and\n        /* \"--CODEGEN--\":106:143   */\n      swap1\n      pop\n        /* \"--CODEGEN--\":169:172   */\n      dup1\n        /* \"--CODEGEN--\":161:167   */\n      dup4\n        /* \"--CODEGEN--\":157:173   */\n      add\n        /* \"--CODEGEN--\":147:173   */\n      swap3\n      pop\n        /* \"bitlime-core/contracts/BitlimeV2Pair.sol\":8653:8729  IBitlimeV2Callee(to).BitlimeV2Call(msg.sender, amount0Out, amount1Out, data) */\n      pop\n      pop\n      swap7\n      pop\n      pop\n      pop\n      pop\n      pop\n      pop\n      pop\n      0x00\n      mload(0x40)\n      dup1\n      dup4\n      sub\n      dup2\n      0x00\n      dup8\n      dup1\n      extcodesize\n      iszero\n        /* \"--CODEGEN--\":8:17   */\n      dup1\n        /* \"--CODEGEN--\":5:7   */\n      iszero\n      tag_137\n      jumpi\n        /* \"--CODEGEN--\":30:31   */\n      0x00\n        /* \"--CODEGEN--\":27:28   */\n      dup1\n        /* \"--CODEGEN--\":20:32   */\n      revert\n        /* \"--CODEGEN--\":5:7   */\n    tag_137:\n        /* \"bitlime-core/contracts/BitlimeV2Pair.sol\":8653:8729  IBitlimeV2Callee(to).BitlimeV2Call(msg.sender, amount0Out, amount1Out, data) */\n      pop\n      gas\n      call\n      iszero\n        /* \"--CODEGEN--\":8:17   */\n      dup1\n        /* \"--CODEGEN--\":5:7   */\n      iszero\n      tag_138\n      jumpi\n        /* \"--CODEGEN--\":45:61   */\n      returndatasize\n        /* \"--CODEGEN--\":42:43   */\n      0x00\n        /* \"--CODEGEN--\":39:40   */\n      dup1\n        /* \"--CODEGEN--\":24:62   */\n      returndatacopy\n        /* \"--CODEGEN--\":77:93   */\n      returndatasize\n        /* \"--CODEGEN--\":74:75   */\n      0x00\n        /* \"--CODEGEN--\":67:94   */\n      revert\n        /* \"--CODEGEN--\":5:7   */\n    tag_138:\n        /* \"bitlime-core/contracts/BitlimeV2Pair.sol\":8653:8729  IBitlimeV2Callee(to).BitlimeV2Call(msg.sender, amount0Out, amount1Out, data) */\n      pop\n      pop\n      pop\n      pop\n        /* \"bitlime-core/contracts/BitlimeV2Pair.sol\":8632:8729  if (data.length > 0) IBitlimeV2Callee(to).BitlimeV2Call(msg.sender, amount0Out, amount1Out, data) */\n    tag_136:\n        /* \"bitlime-core/contracts/BitlimeV2Pair.sol\":8751:8791  IERC20(_token0).balanceOf(address(this)) */\n      0x40\n      dup1\n      mload\n      shl(0xe0, 0x70a08231)\n      dup2\n      mstore\n        /* \"bitlime-core/contracts/BitlimeV2Pair.sol\":8785:8789  this */\n      address\n        /* \"bitlime-core/contracts/BitlimeV2Pair.sol\":8751:8791  IERC20(_token0).balanceOf(address(this)) */\n      0x04\n      dup3\n      add\n      mstore\n      swap1\n      mload\n      sub(shl(0xa0, 0x01), 0x01)\n        /* \"bitlime-core/contracts/BitlimeV2Pair.sol\":8751:8776  IERC20(_token0).balanceOf */\n      dup5\n      and\n      swap2\n      0x70a08231\n      swap2\n        /* \"bitlime-core/contracts/BitlimeV2Pair.sol\":8751:8791  IERC20(_token0).balanceOf(address(this)) */\n      0x24\n      dup1\n      dup4\n      add\n      swap3\n      0x20\n      swap3\n      swap2\n      swap1\n      dup3\n      swap1\n      sub\n      add\n      dup2\n        /* \"bitlime-core/contracts/BitlimeV2Pair.sol\":8751:8776  IERC20(_token0).balanceOf */\n      dup7\n        /* \"bitlime-core/contracts/BitlimeV2Pair.sol\":8751:8791  IERC20(_token0).balanceOf(address(this)) */\n      dup1\n      extcodesize\n      iszero\n        /* \"--CODEGEN--\":5:7   */\n      dup1\n      iszero\n      tag_139\n      jumpi\n        /* \"--CODEGEN--\":30:31   */\n      0x00\n        /* \"--CODEGEN--\":27:28   */\n      dup1\n        /* \"--CODEGEN--\":20:32   */\n      revert\n        /* \"--CODEGEN--\":5:7   */\n    tag_139:\n        /* \"bitlime-core/contracts/BitlimeV2Pair.sol\":8751:8791  IERC20(_token0).balanceOf(address(this)) */\n      pop\n      gas\n      staticcall\n      iszero\n        /* \"--CODEGEN--\":8:17   */\n      dup1\n        /* \"--CODEGEN--\":5:7   */\n      iszero\n      tag_140\n      jumpi\n        /* \"--CODEGEN--\":45:61   */\n      returndatasize\n        /* \"--CODEGEN--\":42:43   */\n      0x00\n        /* \"--CODEGEN--\":39:40   */\n      dup1\n        /* \"--CODEGEN--\":24:62   */\n      returndatacopy\n        /* \"--CODEGEN--\":77:93   */\n      returndatasize\n        /* \"--CODEGEN--\":74:75   */\n      0x00\n        /* \"--CODEGEN--\":67:94   */\n      revert\n        /* \"--CODEGEN--\":5:7   */\n    tag_140:\n        /* \"bitlime-core/contracts/BitlimeV2Pair.sol\":8751:8791  IERC20(_token0).balanceOf(address(this)) */\n      pop\n      pop\n      pop\n      pop\n      mload(0x40)\n      returndatasize\n        /* \"--CODEGEN--\":13:15   */\n      0x20\n        /* \"--CODEGEN--\":8:11   */\n      dup2\n        /* \"--CODEGEN--\":5:16   */\n      lt\n        /* \"--CODEGEN--\":2:4   */\n      iszero\n      tag_141\n      jumpi\n        /* \"--CODEGEN--\":29:30   */\n      0x00\n        /* \"--CODEGEN--\":26:27   */\n      dup1\n        /* \"--CODEGEN--\":19:31   */\n      revert\n        /* \"--CODEGEN--\":2:4   */\n    tag_141:\n      pop\n        /* \"bitlime-core/contracts/BitlimeV2Pair.sol\":8751:8791  IERC20(_token0).balanceOf(address(this)) */\n      mload\n        /* \"bitlime-core/contracts/BitlimeV2Pair.sol\":8813:8853  IERC20(_token1).balanceOf(address(this)) */\n      0x40\n      dup1\n      mload\n      shl(0xe0, 0x70a08231)\n      dup2\n      mstore\n        /* \"bitlime-core/contracts/BitlimeV2Pair.sol\":8847:8851  this */\n      address\n        /* \"bitlime-core/contracts/BitlimeV2Pair.sol\":8813:8853  IERC20(_token1).balanceOf(address(this)) */\n      0x04\n      dup3\n      add\n      mstore\n      swap1\n      mload\n        /* \"bitlime-core/contracts/BitlimeV2Pair.sol\":8751:8791  IERC20(_token0).balanceOf(address(this)) */\n      swap2\n      swap6\n      pop\n      sub(shl(0xa0, 0x01), 0x01)\n        /* \"bitlime-core/contracts/BitlimeV2Pair.sol\":8813:8838  IERC20(_token1).balanceOf */\n      dup4\n      and\n      swap2\n      0x70a08231\n      swap2\n        /* \"bitlime-core/contracts/BitlimeV2Pair.sol\":8813:8853  IERC20(_token1).balanceOf(address(this)) */\n      0x24\n      dup1\n      dup3\n      add\n      swap3\n        /* \"bitlime-core/contracts/BitlimeV2Pair.sol\":8751:8791  IERC20(_token0).balanceOf(address(this)) */\n      0x20\n      swap3\n        /* \"bitlime-core/contracts/BitlimeV2Pair.sol\":8813:8853  IERC20(_token1).balanceOf(address(this)) */\n      swap1\n      swap2\n      swap1\n      dup3\n      swap1\n      sub\n      add\n      dup2\n        /* \"bitlime-core/contracts/BitlimeV2Pair.sol\":8813:8838  IERC20(_token1).balanceOf */\n      dup7\n        /* \"bitlime-core/contracts/BitlimeV2Pair.sol\":8813:8853  IERC20(_token1).balanceOf(address(this)) */\n      dup1\n      extcodesize\n      iszero\n        /* \"--CODEGEN--\":5:7   */\n      dup1\n      iszero\n      tag_142\n      jumpi\n        /* \"--CODEGEN--\":30:31   */\n      0x00\n        /* \"--CODEGEN--\":27:28   */\n      dup1\n        /* \"--CODEGEN--\":20:32   */\n      revert\n        /* \"--CODEGEN--\":5:7   */\n    tag_142:\n        /* \"bitlime-core/contracts/BitlimeV2Pair.sol\":8813:8853  IERC20(_token1).balanceOf(address(this)) */\n      pop\n      gas\n      staticcall\n      iszero\n        /* \"--CODEGEN--\":8:17   */\n      dup1\n        /* \"--CODEGEN--\":5:7   */\n      iszero\n      tag_143\n      jumpi\n        /* \"--CODEGEN--\":45:61   */\n      returndatasize\n        /* \"--CODEGEN--\":42:43   */\n      0x00\n        /* \"--CODEGEN--\":39:40   */\n      dup1\n        /* \"--CODEGEN--\":24:62   */\n      returndatacopy\n        /* \"--CODEGEN--\":77:93   */\n      returndatasize\n        /* \"--CODEGEN--\":74:75   */\n      0x00\n        /* \"--CODEGEN--\":67:94   */\n      revert\n        /* \"--CODEGEN--\":5:7   */\n    tag_143:\n        /* \"bitlime-core/contracts/BitlimeV2Pair.sol\":8813:8853  IERC20(_token1).balanceOf(address(this)) */\n      pop\n      pop\n      pop\n      pop\n      mload(0x40)\n      returndatasize\n        /* \"--CODEGEN--\":13:15   */\n      0x20\n        /* \"--CODEGEN--\":8:11   */\n      dup2\n        /* \"--CODEGEN--\":5:16   */\n      lt\n        /* \"--CODEGEN--\":2:4   */\n      iszero\n      tag_144\n      jumpi\n        /* \"--CODEGEN--\":29:30   */\n      0x00\n        /* \"--CODEGEN--\":26:27   */\n      dup1\n        /* \"--CODEGEN--\":19:31   */\n      revert\n        /* \"--CODEGEN--\":2:4   */\n    tag_144:\n      pop\n        /* \"bitlime-core/contracts/BitlimeV2Pair.sol\":8813:8853  IERC20(_token1).balanceOf(address(this)) */\n      mload\n      swap3\n      pop\n        /* \"bitlime-core/contracts/BitlimeV2Pair.sol\":8875:8889  uint amount0In */\n      0x00\n      swap2\n      pop\n      pop\n      sub(shl(0x70, 0x01), 0x01)\n        /* \"bitlime-core/contracts/BitlimeV2Pair.sol\":8903:8925  _reserve0 - amount0Out */\n      dup6\n      and\n      dup11\n      swap1\n      sub\n        /* \"bitlime-core/contracts/BitlimeV2Pair.sol\":8892:8925  balance0 > _reserve0 - amount0Out */\n      dup4\n      gt\n        /* \"bitlime-core/contracts/BitlimeV2Pair.sol\":8892:8967  balance0 > _reserve0 - amount0Out ? balance0 - (_reserve0 - amount0Out) : 0 */\n      tag_145\n      jumpi\n        /* \"bitlime-core/contracts/BitlimeV2Pair.sol\":8966:8967  0 */\n      0x00\n        /* \"bitlime-core/contracts/BitlimeV2Pair.sol\":8892:8967  balance0 > _reserve0 - amount0Out ? balance0 - (_reserve0 - amount0Out) : 0 */\n      jump(tag_146)\n    tag_145:\n      sub(shl(0x70, 0x01), 0x01)\n        /* \"bitlime-core/contracts/BitlimeV2Pair.sol\":8940:8962  _reserve0 - amount0Out */\n      dup6\n      and\n      dup11\n      swap1\n      sub\n        /* \"bitlime-core/contracts/BitlimeV2Pair.sol\":8928:8963  balance0 - (_reserve0 - amount0Out) */\n      dup4\n      sub\n        /* \"bitlime-core/contracts/BitlimeV2Pair.sol\":8892:8967  balance0 > _reserve0 - amount0Out ? balance0 - (_reserve0 - amount0Out) : 0 */\n    tag_146:\n        /* \"bitlime-core/contracts/BitlimeV2Pair.sol\":8875:8967  uint amount0In = balance0 > _reserve0 - amount0Out ? balance0 - (_reserve0 - amount0Out) : 0 */\n      swap1\n      pop\n        /* \"bitlime-core/contracts/BitlimeV2Pair.sol\":8978:8992  uint amount1In */\n      0x00\n      sub(shl(0x70, 0x01), 0x01)\n        /* \"bitlime-core/contracts/BitlimeV2Pair.sol\":9006:9028  _reserve1 - amount1Out */\n      dup6\n      and\n      dup11\n      swap1\n      sub\n        /* \"bitlime-core/contracts/BitlimeV2Pair.sol\":8995:9028  balance1 > _reserve1 - amount1Out */\n      dup4\n      gt\n        /* \"bitlime-core/contracts/BitlimeV2Pair.sol\":8995:9070  balance1 > _reserve1 - amount1Out ? balance1 - (_reserve1 - amount1Out) : 0 */\n      tag_147\n      jumpi\n        /* \"bitlime-core/contracts/BitlimeV2Pair.sol\":9069:9070  0 */\n      0x00\n        /* \"bitlime-core/contracts/BitlimeV2Pair.sol\":8995:9070  balance1 > _reserve1 - amount1Out ? balance1 - (_reserve1 - amount1Out) : 0 */\n      jump(tag_148)\n    tag_147:\n      sub(shl(0x70, 0x01), 0x01)\n        /* \"bitlime-core/contracts/BitlimeV2Pair.sol\":9043:9065  _reserve1 - amount1Out */\n      dup6\n      and\n      dup11\n      swap1\n      sub\n        /* \"bitlime-core/contracts/BitlimeV2Pair.sol\":9031:9066  balance1 - (_reserve1 - amount1Out) */\n      dup4\n      sub\n        /* \"bitlime-core/contracts/BitlimeV2Pair.sol\":8995:9070  balance1 > _reserve1 - amount1Out ? balance1 - (_reserve1 - amount1Out) : 0 */\n    tag_148:\n        /* \"bitlime-core/contracts/BitlimeV2Pair.sol\":8978:9070  uint amount1In = balance1 > _reserve1 - amount1Out ? balance1 - (_reserve1 - amount1Out) : 0 */\n      swap1\n      pop\n        /* \"bitlime-core/contracts/BitlimeV2Pair.sol\":9101:9102  0 */\n      0x00\n        /* \"bitlime-core/contracts/BitlimeV2Pair.sol\":9089:9098  amount0In */\n      dup3\n        /* \"bitlime-core/contracts/BitlimeV2Pair.sol\":9089:9102  amount0In > 0 */\n      gt\n        /* \"bitlime-core/contracts/BitlimeV2Pair.sol\":9089:9119  amount0In > 0 || amount1In > 0 */\n      dup1\n      tag_149\n      jumpi\n      pop\n        /* \"bitlime-core/contracts/BitlimeV2Pair.sol\":9118:9119  0 */\n      0x00\n        /* \"bitlime-core/contracts/BitlimeV2Pair.sol\":9106:9115  amount1In */\n      dup2\n        /* \"bitlime-core/contracts/BitlimeV2Pair.sol\":9106:9119  amount1In > 0 */\n      gt\n        /* \"bitlime-core/contracts/BitlimeV2Pair.sol\":9089:9119  amount0In > 0 || amount1In > 0 */\n    tag_149:\n        /* \"bitlime-core/contracts/BitlimeV2Pair.sol\":9081:9160  require(amount0In > 0 || amount1In > 0, 'BitlimeV2: INSUFFICIENT_INPUT_AMOUNT') */\n      tag_150\n      jumpi\n      mload(0x40)\n      shl(0xe5, 0x461bcd)\n      dup2\n      mstore\n      0x04\n      add\n      dup1\n      dup1\n      0x20\n      add\n      dup3\n      dup2\n      sub\n      dup3\n      mstore\n      0x24\n      dup2\n      mstore\n      0x20\n      add\n      dup1\n      data_2e659678d10ece155b14bdac98ce93e7bff4499e732071af82c61e52a437e847\n      0x24\n      swap2\n      codecopy\n      0x40\n      add\n      swap2\n      pop\n      pop\n      mload(0x40)\n      dup1\n      swap2\n      sub\n      swap1\n      revert\n    tag_150:\n        /* \"bitlime-core/contracts/BitlimeV2Pair.sol\":9246:9267  uint balance0Adjusted */\n      0x00\n        /* \"bitlime-core/contracts/BitlimeV2Pair.sol\":9270:9312  balance0.mul(10000).sub(amount0In.mul(25)) */\n      tag_151\n        /* \"bitlime-core/contracts/BitlimeV2Pair.sol\":9294:9311  amount0In.mul(25) */\n      tag_152\n        /* \"bitlime-core/contracts/BitlimeV2Pair.sol\":9294:9303  amount0In */\n      dup5\n        /* \"bitlime-core/contracts/BitlimeV2Pair.sol\":9308:9310  25 */\n      0x19\n        /* \"bitlime-core/contracts/BitlimeV2Pair.sol\":9294:9311  amount0In.mul(25) */\n      0xffffffff\n        /* \"bitlime-core/contracts/BitlimeV2Pair.sol\":9294:9307  amount0In.mul */\n      tag_153\n        /* \"bitlime-core/contracts/BitlimeV2Pair.sol\":9294:9311  amount0In.mul(25) */\n      and\n      jump\t// in\n    tag_152:\n        /* \"bitlime-core/contracts/BitlimeV2Pair.sol\":9270:9289  balance0.mul(10000) */\n      tag_154\n        /* \"bitlime-core/contracts/BitlimeV2Pair.sol\":9270:9278  balance0 */\n      dup8\n        /* \"bitlime-core/contracts/BitlimeV2Pair.sol\":9283:9288  10000 */\n      0x2710\n        /* \"bitlime-core/contracts/BitlimeV2Pair.sol\":9270:9289  balance0.mul(10000) */\n      0xffffffff\n        /* \"bitlime-core/contracts/BitlimeV2Pair.sol\":9270:9282  balance0.mul */\n      tag_153\n        /* \"bitlime-core/contracts/BitlimeV2Pair.sol\":9270:9289  balance0.mul(10000) */\n      and\n      jump\t// in\n    tag_154:\n        /* \"bitlime-core/contracts/BitlimeV2Pair.sol\":9270:9293  balance0.mul(10000).sub */\n      swap1\n        /* \"bitlime-core/contracts/BitlimeV2Pair.sol\":9270:9312  balance0.mul(10000).sub(amount0In.mul(25)) */\n      0xffffffff\n        /* \"bitlime-core/contracts/BitlimeV2Pair.sol\":9270:9293  balance0.mul(10000).sub */\n      tag_155\n        /* \"bitlime-core/contracts/BitlimeV2Pair.sol\":9270:9312  balance0.mul(10000).sub(amount0In.mul(25)) */\n      and\n      jump\t// in\n    tag_151:\n        /* \"bitlime-core/contracts/BitlimeV2Pair.sol\":9246:9312  uint balance0Adjusted = balance0.mul(10000).sub(amount0In.mul(25)) */\n      swap1\n      pop\n        /* \"bitlime-core/contracts/BitlimeV2Pair.sol\":9323:9344  uint balance1Adjusted */\n      0x00\n        /* \"bitlime-core/contracts/BitlimeV2Pair.sol\":9347:9389  balance1.mul(10000).sub(amount1In.mul(25)) */\n      tag_156\n        /* \"bitlime-core/contracts/BitlimeV2Pair.sol\":9371:9388  amount1In.mul(25) */\n      tag_152\n        /* \"bitlime-core/contracts/BitlimeV2Pair.sol\":9371:9380  amount1In */\n      dup5\n        /* \"bitlime-core/contracts/BitlimeV2Pair.sol\":9385:9387  25 */\n      0x19\n        /* \"bitlime-core/contracts/BitlimeV2Pair.sol\":9371:9388  amount1In.mul(25) */\n      0xffffffff\n        /* \"bitlime-core/contracts/BitlimeV2Pair.sol\":9371:9384  amount1In.mul */\n      tag_153\n        /* \"bitlime-core/contracts/BitlimeV2Pair.sol\":9371:9388  amount1In.mul(25) */\n      and\n      jump\t// in\n        /* \"bitlime-core/contracts/BitlimeV2Pair.sol\":9347:9389  balance1.mul(10000).sub(amount1In.mul(25)) */\n    tag_156:\n        /* \"bitlime-core/contracts/BitlimeV2Pair.sol\":9323:9389  uint balance1Adjusted = balance1.mul(10000).sub(amount1In.mul(25)) */\n      swap1\n      pop\n        /* \"bitlime-core/contracts/BitlimeV2Pair.sol\":9450:9493  uint(_reserve0).mul(_reserve1).mul(1000**2) */\n      tag_159\n        /* \"bitlime-core/contracts/BitlimeV2Pair.sol\":9485:9492  1000**2 */\n      0x0f4240\n        /* \"bitlime-core/contracts/BitlimeV2Pair.sol\":9450:9480  uint(_reserve0).mul(_reserve1) */\n      tag_160\n      sub(shl(0x70, 0x01), 0x01)\n        /* \"bitlime-core/contracts/BitlimeV2Pair.sol\":9450:9465  uint(_reserve0) */\n      dup12\n      dup2\n      and\n      swap1\n        /* \"bitlime-core/contracts/BitlimeV2Pair.sol\":9450:9480  uint(_reserve0).mul(_reserve1) */\n      dup12\n      and\n        /* \"bitlime-core/contracts/BitlimeV2Pair.sol\":9450:9469  uint(_reserve0).mul */\n      tag_153\n        /* \"bitlime-core/contracts/BitlimeV2Pair.sol\":9450:9480  uint(_reserve0).mul(_reserve1) */\n      jump\t// in\n    tag_160:\n        /* \"bitlime-core/contracts/BitlimeV2Pair.sol\":9450:9484  uint(_reserve0).mul(_reserve1).mul */\n      swap1\n        /* \"bitlime-core/contracts/BitlimeV2Pair.sol\":9450:9493  uint(_reserve0).mul(_reserve1).mul(1000**2) */\n      0xffffffff\n        /* \"bitlime-core/contracts/BitlimeV2Pair.sol\":9450:9484  uint(_reserve0).mul(_reserve1).mul */\n      tag_153\n        /* \"bitlime-core/contracts/BitlimeV2Pair.sol\":9450:9493  uint(_reserve0).mul(_reserve1).mul(1000**2) */\n      and\n      jump\t// in\n    tag_159:\n        /* \"bitlime-core/contracts/BitlimeV2Pair.sol\":9408:9446  balance0Adjusted.mul(balance1Adjusted) */\n      tag_161\n        /* \"bitlime-core/contracts/BitlimeV2Pair.sol\":9408:9424  balance0Adjusted */\n      dup4\n        /* \"bitlime-core/contracts/BitlimeV2Pair.sol\":9429:9445  balance1Adjusted */\n      dup4\n        /* \"bitlime-core/contracts/BitlimeV2Pair.sol\":9408:9446  balance0Adjusted.mul(balance1Adjusted) */\n      0xffffffff\n        /* \"bitlime-core/contracts/BitlimeV2Pair.sol\":9408:9428  balance0Adjusted.mul */\n      tag_153\n        /* \"bitlime-core/contracts/BitlimeV2Pair.sol\":9408:9446  balance0Adjusted.mul(balance1Adjusted) */\n      and\n      jump\t// in\n    tag_161:\n        /* \"bitlime-core/contracts/BitlimeV2Pair.sol\":9408:9493  balance0Adjusted.mul(balance1Adjusted) >= uint(_reserve0).mul(_reserve1).mul(1000**2) */\n      lt\n      iszero\n        /* \"bitlime-core/contracts/BitlimeV2Pair.sol\":9400:9510  require(balance0Adjusted.mul(balance1Adjusted) >= uint(_reserve0).mul(_reserve1).mul(1000**2), 'BitlimeV2: K') */\n      tag_162\n      jumpi\n      0x40\n      dup1\n      mload\n      shl(0xe5, 0x461bcd)\n      dup2\n      mstore\n      0x20\n      0x04\n      dup3\n      add\n      mstore\n      0x0c\n      0x24\n      dup3\n      add\n      mstore\n      shl(0xa0, 0x4269746c696d6556323a204b)\n      0x44\n      dup3\n      add\n      mstore\n      swap1\n      mload\n      swap1\n      dup2\n      swap1\n      sub\n      0x64\n      add\n      swap1\n      revert\n    tag_162:\n        /* \"bitlime-core/contracts/BitlimeV2Pair.sol\":1312:1313  _ */\n      pop\n      pop\n        /* \"bitlime-core/contracts/BitlimeV2Pair.sol\":9534:9583  _update(balance0, balance1, _reserve0, _reserve1) */\n      tag_163\n        /* \"bitlime-core/contracts/BitlimeV2Pair.sol\":9542:9550  balance0 */\n      dup5\n        /* \"bitlime-core/contracts/BitlimeV2Pair.sol\":9552:9560  balance1 */\n      dup5\n        /* \"bitlime-core/contracts/BitlimeV2Pair.sol\":9562:9571  _reserve0 */\n      dup9\n        /* \"bitlime-core/contracts/BitlimeV2Pair.sol\":9573:9582  _reserve1 */\n      dup9\n        /* \"bitlime-core/contracts/BitlimeV2Pair.sol\":9534:9541  _update */\n      tag_164\n        /* \"bitlime-core/contracts/BitlimeV2Pair.sol\":9534:9583  _update(balance0, balance1, _reserve0, _reserve1) */\n      jump\t// in\n    tag_163:\n        /* \"bitlime-core/contracts/BitlimeV2Pair.sol\":9599:9665  Swap(msg.sender, amount0In, amount1In, amount0Out, amount1Out, to) */\n      0x40\n      dup1\n      mload\n      dup4\n      dup2\n      mstore\n      0x20\n      dup2\n      add\n      dup4\n      swap1\n      mstore\n      dup1\n      dup3\n      add\n      dup14\n      swap1\n      mstore\n      0x60\n      dup2\n      add\n      dup13\n      swap1\n      mstore\n      swap1\n      mload\n      sub(shl(0xa0, 0x01), 0x01)\n      dup12\n      and\n      swap2\n        /* \"bitlime-core/contracts/BitlimeV2Pair.sol\":9604:9614  msg.sender */\n      caller\n      swap2\n        /* \"bitlime-core/contracts/BitlimeV2Pair.sol\":9599:9665  Swap(msg.sender, amount0In, amount1In, amount0Out, amount1Out, to) */\n      0xd78ad95fa46c994b6551d0da85fc275fe613ce37657fb8d5e3d130840159d822\n      swap2\n      dup2\n      swap1\n      sub\n      0x80\n      add\n      swap1\n      log3\n      pop\n      pop\n        /* \"bitlime-core/contracts/BitlimeV2Pair.sol\":1335:1336  1 */\n      0x01\n        /* \"bitlime-core/contracts/BitlimeV2Pair.sol\":1324:1332  unlocked */\n      0x0d\n        /* \"bitlime-core/contracts/BitlimeV2Pair.sol\":1324:1336  unlocked = 1 */\n      sstore\n      pop\n      pop\n      pop\n      pop\n      pop\n      pop\n      pop\n      pop\n      pop\n        /* \"bitlime-core/contracts/BitlimeV2Pair.sol\":7780:9673  function swap(uint amount0Out, uint amount1Out, address to, bytes calldata data) external lock {\r... */\n      jump\t// out\n        /* \"bitlime-core/contracts/BitlimeV2ERC20.sol\":192:234  string public constant name = 'Bitlime V2' */\n    tag_46:\n      0x40\n      dup1\n      mload\n      dup1\n      dup3\n      add\n      swap1\n      swap2\n      mstore\n      0x0a\n      dup2\n      mstore\n      shl(0xb1, 0x2134ba3634b6b2902b19)\n      0x20\n      dup3\n      add\n      mstore\n      dup2\n      jump\t// out\n        /* \"bitlime-core/contracts/BitlimeV2Pair.sol\":1352:1583  function getReserves() public view returns (uint112 _reserve0, uint112 _reserve1, uint32 _blockTimestampLast) {\r... */\n    tag_52:\n        /* \"bitlime-core/contracts/BitlimeV2Pair.sol\":1485:1493  reserve0 */\n      sload(0x09)\n      sub(shl(0x70, 0x01), 0x01)\n      dup1\n      dup3\n      and\n      swap3\n      shl(0x70, 0x01)\n        /* \"bitlime-core/contracts/BitlimeV2Pair.sol\":1516:1524  reserve1 */\n      dup4\n      div\n      swap1\n      swap2\n      and\n      swap2\n      shl(0xe0, 0x01)\n        /* \"bitlime-core/contracts/BitlimeV2Pair.sol\":1557:1575  blockTimestampLast */\n      swap1\n      div\n      0xffffffff\n      and\n      swap1\n        /* \"bitlime-core/contracts/BitlimeV2Pair.sol\":1352:1583  function getReserves() public view returns (uint112 _reserve0, uint112 _reserve1, uint32 _blockTimestampLast) {\r... */\n      jump\t// out\n        /* \"bitlime-core/contracts/BitlimeV2ERC20.sol\":2240:2387  function approve(address spender, uint value) external returns (bool) {\r... */\n    tag_55:\n        /* \"bitlime-core/contracts/BitlimeV2ERC20.sol\":2304:2308  bool */\n      0x00\n        /* \"bitlime-core/contracts/BitlimeV2ERC20.sol\":2321:2357  _approve(msg.sender, spender, value) */\n      tag_167\n        /* \"bitlime-core/contracts/BitlimeV2ERC20.sol\":2330:2340  msg.sender */\n      caller\n        /* \"bitlime-core/contracts/BitlimeV2ERC20.sol\":2342:2349  spender */\n      dup5\n        /* \"bitlime-core/contracts/BitlimeV2ERC20.sol\":2351:2356  value */\n      dup5\n        /* \"bitlime-core/contracts/BitlimeV2ERC20.sol\":2321:2329  _approve */\n      tag_168\n        /* \"bitlime-core/contracts/BitlimeV2ERC20.sol\":2321:2357  _approve(msg.sender, spender, value) */\n      jump\t// in\n    tag_167:\n      pop\n        /* \"bitlime-core/contracts/BitlimeV2ERC20.sol\":2375:2379  true */\n      0x01\n        /* \"bitlime-core/contracts/BitlimeV2ERC20.sol\":2240:2387  function approve(address spender, uint value) external returns (bool) {\r... */\n    tag_166:\n      swap3\n      swap2\n      pop\n      pop\n      jump\t// out\n        /* \"bitlime-core/contracts/BitlimeV2Pair.sol\":641:662  address public token0 */\n    tag_57:\n      and(sub(shl(0xa0, 0x01), 0x01), sload(0x07))\n      dup2\n      jump\t// out\n        /* \"bitlime-core/contracts/BitlimeV2ERC20.sol\":331:355  uint  public totalSupply */\n    tag_59:\n      sload(0x00)\n      dup2\n      jump\t// out\n        /* \"bitlime-core/contracts/BitlimeV2ERC20.sol\":2542:2843  function transferFrom(address from, address to, uint value) external returns (bool) {\r... */\n    tag_62:\n      sub(shl(0xa0, 0x01), 0x01)\n        /* \"bitlime-core/contracts/BitlimeV2ERC20.sol\":2641:2656  allowance[from] */\n      dup4\n      and\n        /* \"bitlime-core/contracts/BitlimeV2ERC20.sol\":2620:2624  bool */\n      0x00\n        /* \"bitlime-core/contracts/BitlimeV2ERC20.sol\":2641:2656  allowance[from] */\n      swap1\n      dup2\n      mstore\n        /* \"bitlime-core/contracts/BitlimeV2ERC20.sol\":2641:2650  allowance */\n      0x02\n        /* \"bitlime-core/contracts/BitlimeV2ERC20.sol\":2641:2656  allowance[from] */\n      0x20\n      swap1\n      dup2\n      mstore\n      0x40\n      dup1\n      dup4\n      keccak256\n        /* \"bitlime-core/contracts/BitlimeV2ERC20.sol\":2657:2667  msg.sender */\n      caller\n        /* \"bitlime-core/contracts/BitlimeV2ERC20.sol\":2641:2668  allowance[from][msg.sender] */\n      dup5\n      mstore\n      swap1\n      swap2\n      mstore\n      dup2\n      keccak256\n      sload\n      not(0x00)\n        /* \"bitlime-core/contracts/BitlimeV2ERC20.sol\":2641:2680  allowance[from][msg.sender] != uint(-1) */\n      eq\n        /* \"bitlime-core/contracts/BitlimeV2ERC20.sol\":2637:2777  if (allowance[from][msg.sender] != uint(-1)) {\r... */\n      tag_170\n      jumpi\n      sub(shl(0xa0, 0x01), 0x01)\n        /* \"bitlime-core/contracts/BitlimeV2ERC20.sol\":2727:2742  allowance[from] */\n      dup5\n      and\n      0x00\n      swap1\n      dup2\n      mstore\n        /* \"bitlime-core/contracts/BitlimeV2ERC20.sol\":2727:2736  allowance */\n      0x02\n        /* \"bitlime-core/contracts/BitlimeV2ERC20.sol\":2727:2742  allowance[from] */\n      0x20\n      swap1\n      dup2\n      mstore\n      0x40\n      dup1\n      dup4\n      keccak256\n        /* \"bitlime-core/contracts/BitlimeV2ERC20.sol\":2743:2753  msg.sender */\n      caller\n        /* \"bitlime-core/contracts/BitlimeV2ERC20.sol\":2727:2754  allowance[from][msg.sender] */\n      dup5\n      mstore\n      swap1\n      swap2\n      mstore\n      swap1\n      keccak256\n      sload\n        /* \"bitlime-core/contracts/BitlimeV2ERC20.sol\":2727:2765  allowance[from][msg.sender].sub(value) */\n      tag_171\n      swap1\n        /* \"bitlime-core/contracts/BitlimeV2ERC20.sol\":2759:2764  value */\n      dup4\n        /* \"bitlime-core/contracts/BitlimeV2ERC20.sol\":2727:2758  allowance[from][msg.sender].sub */\n      tag_155\n        /* \"bitlime-core/contracts/BitlimeV2ERC20.sol\":2727:2765  allowance[from][msg.sender].sub(value) */\n      jump\t// in\n    tag_171:\n      sub(shl(0xa0, 0x01), 0x01)\n        /* \"bitlime-core/contracts/BitlimeV2ERC20.sol\":2697:2712  allowance[from] */\n      dup6\n      and\n      0x00\n      swap1\n      dup2\n      mstore\n        /* \"bitlime-core/contracts/BitlimeV2ERC20.sol\":2697:2706  allowance */\n      0x02\n        /* \"bitlime-core/contracts/BitlimeV2ERC20.sol\":2697:2712  allowance[from] */\n      0x20\n      swap1\n      dup2\n      mstore\n      0x40\n      dup1\n      dup4\n      keccak256\n        /* \"bitlime-core/contracts/BitlimeV2ERC20.sol\":2713:2723  msg.sender */\n      caller\n        /* \"bitlime-core/contracts/BitlimeV2ERC20.sol\":2697:2724  allowance[from][msg.sender] */\n      dup5\n      mstore\n      swap1\n      swap2\n      mstore\n      swap1\n      keccak256\n        /* \"bitlime-core/contracts/BitlimeV2ERC20.sol\":2697:2765  allowance[from][msg.sender] = allowance[from][msg.sender].sub(value) */\n      sstore\n        /* \"bitlime-core/contracts/BitlimeV2ERC20.sol\":2637:2777  if (allowance[from][msg.sender] != uint(-1)) {\r... */\n    tag_170:\n        /* \"bitlime-core/contracts/BitlimeV2ERC20.sol\":2787:2813  _transfer(from, to, value) */\n      tag_172\n        /* \"bitlime-core/contracts/BitlimeV2ERC20.sol\":2797:2801  from */\n      dup5\n        /* \"bitlime-core/contracts/BitlimeV2ERC20.sol\":2803:2805  to */\n      dup5\n        /* \"bitlime-core/contracts/BitlimeV2ERC20.sol\":2807:2812  value */\n      dup5\n        /* \"bitlime-core/contracts/BitlimeV2ERC20.sol\":2787:2796  _transfer */\n      tag_173\n        /* \"bitlime-core/contracts/BitlimeV2ERC20.sol\":2787:2813  _transfer(from, to, value) */\n      jump\t// in\n    tag_172:\n      pop\n        /* \"bitlime-core/contracts/BitlimeV2ERC20.sol\":2831:2835  true */\n      0x01\n        /* \"bitlime-core/contracts/BitlimeV2ERC20.sol\":2542:2843  function transferFrom(address from, address to, uint value) external returns (bool) {\r... */\n      swap4\n      swap3\n      pop\n      pop\n      pop\n      jump\t// out\n        /* \"bitlime-core/contracts/BitlimeV2ERC20.sol\":623:731  bytes32 public constant PERMIT_TYPEHASH = 0x6e71edae12b1b97f4d1f60370fef10105fa2faae0126114a169c64845d6126c9 */\n    tag_64:\n        /* \"bitlime-core/contracts/BitlimeV2ERC20.sol\":665:731  0x6e71edae12b1b97f4d1f60370fef10105fa2faae0126114a169c64845d6126c9 */\n      0x6e71edae12b1b97f4d1f60370fef10105fa2faae0126114a169c64845d6126c9\n        /* \"bitlime-core/contracts/BitlimeV2ERC20.sol\":623:731  bytes32 public constant PERMIT_TYPEHASH = 0x6e71edae12b1b97f4d1f60370fef10105fa2faae0126114a169c64845d6126c9 */\n      dup2\n      jump\t// out\n        /* \"bitlime-core/contracts/BitlimeV2ERC20.sol\":289:324  uint8 public constant decimals = 18 */\n    tag_66:\n        /* \"bitlime-core/contracts/BitlimeV2ERC20.sol\":322:324  18 */\n      0x12\n        /* \"bitlime-core/contracts/BitlimeV2ERC20.sol\":289:324  uint8 public constant decimals = 18 */\n      dup2\n      jump\t// out\n        /* \"bitlime-core/contracts/BitlimeV2ERC20.sol\":480:511  bytes32 public DOMAIN_SEPARATOR */\n    tag_68:\n      sload(0x03)\n      dup2\n      jump\t// out\n        /* \"bitlime-core/contracts/BitlimeV2Pair.sol\":2463:2673  function initialize(address _token0, address _token1) external {\r... */\n    tag_71:\n        /* \"bitlime-core/contracts/BitlimeV2Pair.sol\":2559:2566  factory */\n      and(sub(shl(0xa0, 0x01), 0x01), sload(0x06))\n        /* \"bitlime-core/contracts/BitlimeV2Pair.sol\":2545:2555  msg.sender */\n      caller\n        /* \"bitlime-core/contracts/BitlimeV2Pair.sol\":2545:2566  msg.sender == factory */\n      eq\n        /* \"bitlime-core/contracts/BitlimeV2Pair.sol\":2537:2591  require(msg.sender == factory, 'BitlimeV2: FORBIDDEN') */\n      tag_175\n      jumpi\n      0x40\n      dup1\n      mload\n      shl(0xe5, 0x461bcd)\n      dup2\n      mstore\n      0x20\n      0x04\n      dup3\n      add\n      mstore\n      0x14\n      0x24\n      dup3\n      add\n      mstore\n      shl(0x61, 0x2134ba3634b6b2ab191d102327a92124a22222a7)\n      0x44\n      dup3\n      add\n      mstore\n      swap1\n      mload\n      swap1\n      dup2\n      swap1\n      sub\n      0x64\n      add\n      swap1\n      revert\n    tag_175:\n        /* \"bitlime-core/contracts/BitlimeV2Pair.sol\":2622:2628  token0 */\n      0x07\n        /* \"bitlime-core/contracts/BitlimeV2Pair.sol\":2622:2638  token0 = _token0 */\n      dup1\n      sload\n      sub(shl(0xa0, 0x01), 0x01)\n      swap4\n      dup5\n      and\n      not(sub(shl(0xa0, 0x01), 0x01))\n      swap2\n      dup3\n      and\n      or\n      swap1\n      swap2\n      sstore\n        /* \"bitlime-core/contracts/BitlimeV2Pair.sol\":2649:2655  token1 */\n      0x08\n        /* \"bitlime-core/contracts/BitlimeV2Pair.sol\":2649:2665  token1 = _token1 */\n      dup1\n      sload\n      swap3\n      swap1\n      swap4\n      and\n      swap2\n      and\n      or\n      swap1\n      sstore\n        /* \"bitlime-core/contracts/BitlimeV2Pair.sol\":2463:2673  function initialize(address _token0, address _token1) external {\r... */\n      jump\t// out\n        /* \"bitlime-core/contracts/BitlimeV2Pair.sol\":992:1024  uint public price0CumulativeLast */\n    tag_73:\n      sload(0x0a)\n      dup2\n      jump\t// out\n        /* \"bitlime-core/contracts/BitlimeV2Pair.sol\":1031:1063  uint public price1CumulativeLast */\n    tag_75:\n      sload(0x0b)\n      dup2\n      jump\t// out\n        /* \"bitlime-core/contracts/BitlimeV2Pair.sol\":4850:6090  function mint(address to) external lock returns (uint liquidity) {\r... */\n    tag_78:\n        /* \"bitlime-core/contracts/BitlimeV2Pair.sol\":4899:4913  uint liquidity */\n      0x00\n        /* \"bitlime-core/contracts/BitlimeV2Pair.sol\":1243:1251  unlocked */\n      sload(0x0d)\n        /* \"bitlime-core/contracts/BitlimeV2Pair.sol\":1255:1256  1 */\n      0x01\n        /* \"bitlime-core/contracts/BitlimeV2Pair.sol\":1243:1256  unlocked == 1 */\n      eq\n        /* \"bitlime-core/contracts/BitlimeV2Pair.sol\":1235:1278  require(unlocked == 1, 'BitlimeV2: LOCKED') */\n      tag_177\n      jumpi\n      0x40\n      dup1\n      mload\n      shl(0xe5, 0x461bcd)\n      dup2\n      mstore\n      0x20\n      0x04\n      dup3\n      add\n      mstore\n      0x11\n      0x24\n      dup3\n      add\n      mstore\n      shl(0x7a, 0x109a5d1b1a5b59558c8e881313d0d2d151)\n      0x44\n      dup3\n      add\n      mstore\n      swap1\n      mload\n      swap1\n      dup2\n      swap1\n      sub\n      0x64\n      add\n      swap1\n      revert\n    tag_177:\n        /* \"bitlime-core/contracts/BitlimeV2Pair.sol\":1300:1301  0 */\n      0x00\n        /* \"bitlime-core/contracts/BitlimeV2Pair.sol\":1289:1297  unlocked */\n      0x0d\n        /* \"bitlime-core/contracts/BitlimeV2Pair.sol\":1289:1301  unlocked = 0 */\n      dup2\n      swap1\n      sstore\n        /* \"bitlime-core/contracts/BitlimeV2Pair.sol\":1300:1301  0 */\n      dup1\n        /* \"bitlime-core/contracts/BitlimeV2Pair.sol\":4968:4981  getReserves() */\n      tag_179\n        /* \"bitlime-core/contracts/BitlimeV2Pair.sol\":4968:4979  getReserves */\n      tag_52\n        /* \"bitlime-core/contracts/BitlimeV2Pair.sol\":4968:4981  getReserves() */\n      jump\t// in\n    tag_179:\n      pop\n        /* \"bitlime-core/contracts/BitlimeV2Pair.sol\":5030:5036  token0 */\n      sload(0x07)\n        /* \"bitlime-core/contracts/BitlimeV2Pair.sol\":5023:5062  IERC20(token0).balanceOf(address(this)) */\n      0x40\n      dup1\n      mload\n      shl(0xe0, 0x70a08231)\n      dup2\n      mstore\n        /* \"bitlime-core/contracts/BitlimeV2Pair.sol\":5056:5060  this */\n      address\n        /* \"bitlime-core/contracts/BitlimeV2Pair.sol\":5023:5062  IERC20(token0).balanceOf(address(this)) */\n      0x04\n      dup3\n      add\n      mstore\n      swap1\n      mload\n        /* \"bitlime-core/contracts/BitlimeV2Pair.sol\":4926:4981  (uint112 _reserve0, uint112 _reserve1,) = getReserves() */\n      swap4\n      swap6\n      pop\n      swap2\n      swap4\n      pop\n      0x00\n      swap3\n      sub(shl(0xa0, 0x01), 0x01)\n        /* \"bitlime-core/contracts/BitlimeV2Pair.sol\":5030:5036  token0 */\n      swap1\n      swap2\n      and\n      swap2\n      0x70a08231\n      swap2\n        /* \"bitlime-core/contracts/BitlimeV2Pair.sol\":5023:5062  IERC20(token0).balanceOf(address(this)) */\n      0x24\n      dup1\n      dup4\n      add\n      swap3\n      0x20\n      swap3\n      swap2\n      swap1\n      dup3\n      swap1\n      sub\n      add\n      dup2\n        /* \"bitlime-core/contracts/BitlimeV2Pair.sol\":5030:5036  token0 */\n      dup7\n        /* \"bitlime-core/contracts/BitlimeV2Pair.sol\":5023:5062  IERC20(token0).balanceOf(address(this)) */\n      dup1\n      extcodesize\n      iszero\n        /* \"--CODEGEN--\":5:7   */\n      dup1\n      iszero\n      tag_180\n      jumpi\n        /* \"--CODEGEN--\":30:31   */\n      0x00\n        /* \"--CODEGEN--\":27:28   */\n      dup1\n        /* \"--CODEGEN--\":20:32   */\n      revert\n        /* \"--CODEGEN--\":5:7   */\n    tag_180:\n        /* \"bitlime-core/contracts/BitlimeV2Pair.sol\":5023:5062  IERC20(token0).balanceOf(address(this)) */\n      pop\n      gas\n      staticcall\n      iszero\n        /* \"--CODEGEN--\":8:17   */\n      dup1\n        /* \"--CODEGEN--\":5:7   */\n      iszero\n      tag_181\n      jumpi\n        /* \"--CODEGEN--\":45:61   */\n      returndatasize\n        /* \"--CODEGEN--\":42:43   */\n      0x00\n        /* \"--CODEGEN--\":39:40   */\n      dup1\n        /* \"--CODEGEN--\":24:62   */\n      returndatacopy\n        /* \"--CODEGEN--\":77:93   */\n      returndatasize\n        /* \"--CODEGEN--\":74:75   */\n      0x00\n        /* \"--CODEGEN--\":67:94   */\n      revert\n        /* \"--CODEGEN--\":5:7   */\n    tag_181:\n        /* \"bitlime-core/contracts/BitlimeV2Pair.sol\":5023:5062  IERC20(token0).balanceOf(address(this)) */\n      pop\n      pop\n      pop\n      pop\n      mload(0x40)\n      returndatasize\n        /* \"--CODEGEN--\":13:15   */\n      0x20\n        /* \"--CODEGEN--\":8:11   */\n      dup2\n        /* \"--CODEGEN--\":5:16   */\n      lt\n        /* \"--CODEGEN--\":2:4   */\n      iszero\n      tag_182\n      jumpi\n        /* \"--CODEGEN--\":29:30   */\n      0x00\n        /* \"--CODEGEN--\":26:27   */\n      dup1\n        /* \"--CODEGEN--\":19:31   */\n      revert\n        /* \"--CODEGEN--\":2:4   */\n    tag_182:\n      pop\n        /* \"bitlime-core/contracts/BitlimeV2Pair.sol\":5023:5062  IERC20(token0).balanceOf(address(this)) */\n      mload\n        /* \"bitlime-core/contracts/BitlimeV2Pair.sol\":5096:5102  token1 */\n      sload(0x08)\n        /* \"bitlime-core/contracts/BitlimeV2Pair.sol\":5089:5128  IERC20(token1).balanceOf(address(this)) */\n      0x40\n      dup1\n      mload\n      shl(0xe0, 0x70a08231)\n      dup2\n      mstore\n        /* \"bitlime-core/contracts/BitlimeV2Pair.sol\":5122:5126  this */\n      address\n        /* \"bitlime-core/contracts/BitlimeV2Pair.sol\":5089:5128  IERC20(token1).balanceOf(address(this)) */\n      0x04\n      dup3\n      add\n      mstore\n      swap1\n      mload\n        /* \"bitlime-core/contracts/BitlimeV2Pair.sol\":5023:5062  IERC20(token0).balanceOf(address(this)) */\n      swap3\n      swap4\n      pop\n      0x00\n      swap3\n      sub(shl(0xa0, 0x01), 0x01)\n        /* \"bitlime-core/contracts/BitlimeV2Pair.sol\":5096:5102  token1 */\n      swap1\n      swap3\n      and\n      swap2\n      0x70a08231\n      swap2\n        /* \"bitlime-core/contracts/BitlimeV2Pair.sol\":5089:5128  IERC20(token1).balanceOf(address(this)) */\n      0x24\n      dup1\n      dup3\n      add\n      swap3\n        /* \"bitlime-core/contracts/BitlimeV2Pair.sol\":5023:5062  IERC20(token0).balanceOf(address(this)) */\n      0x20\n      swap3\n        /* \"bitlime-core/contracts/BitlimeV2Pair.sol\":5089:5128  IERC20(token1).balanceOf(address(this)) */\n      swap1\n      swap2\n      swap1\n      dup3\n      swap1\n      sub\n      add\n      dup2\n        /* \"bitlime-core/contracts/BitlimeV2Pair.sol\":5096:5102  token1 */\n      dup7\n        /* \"bitlime-core/contracts/BitlimeV2Pair.sol\":5089:5128  IERC20(token1).balanceOf(address(this)) */\n      dup1\n      extcodesize\n      iszero\n        /* \"--CODEGEN--\":5:7   */\n      dup1\n      iszero\n      tag_183\n      jumpi\n        /* \"--CODEGEN--\":30:31   */\n      0x00\n        /* \"--CODEGEN--\":27:28   */\n      dup1\n        /* \"--CODEGEN--\":20:32   */\n      revert\n        /* \"--CODEGEN--\":5:7   */\n    tag_183:\n        /* \"bitlime-core/contracts/BitlimeV2Pair.sol\":5089:5128  IERC20(token1).balanceOf(address(this)) */\n      pop\n      gas\n      staticcall\n      iszero\n        /* \"--CODEGEN--\":8:17   */\n      dup1\n        /* \"--CODEGEN--\":5:7   */\n      iszero\n      tag_184\n      jumpi\n        /* \"--CODEGEN--\":45:61   */\n      returndatasize\n        /* \"--CODEGEN--\":42:43   */\n      0x00\n        /* \"--CODEGEN--\":39:40   */\n      dup1\n        /* \"--CODEGEN--\":24:62   */\n      returndatacopy\n        /* \"--CODEGEN--\":77:93   */\n      returndatasize\n        /* \"--CODEGEN--\":74:75   */\n      0x00\n        /* \"--CODEGEN--\":67:94   */\n      revert\n        /* \"--CODEGEN--\":5:7   */\n    tag_184:\n        /* \"bitlime-core/contracts/BitlimeV2Pair.sol\":5089:5128  IERC20(token1).balanceOf(address(this)) */\n      pop\n      pop\n      pop\n      pop\n      mload(0x40)\n      returndatasize\n        /* \"--CODEGEN--\":13:15   */\n      0x20\n        /* \"--CODEGEN--\":8:11   */\n      dup2\n        /* \"--CODEGEN--\":5:16   */\n      lt\n        /* \"--CODEGEN--\":2:4   */\n      iszero\n      tag_185\n      jumpi\n        /* \"--CODEGEN--\":29:30   */\n      0x00\n        /* \"--CODEGEN--\":26:27   */\n      dup1\n        /* \"--CODEGEN--\":19:31   */\n      revert\n        /* \"--CODEGEN--\":2:4   */\n    tag_185:\n      pop\n        /* \"bitlime-core/contracts/BitlimeV2Pair.sol\":5089:5128  IERC20(token1).balanceOf(address(this)) */\n      mload\n      swap1\n      pop\n        /* \"bitlime-core/contracts/BitlimeV2Pair.sol\":5139:5151  uint amount0 */\n      0x00\n        /* \"bitlime-core/contracts/BitlimeV2Pair.sol\":5154:5177  balance0.sub(_reserve0) */\n      tag_186\n        /* \"bitlime-core/contracts/BitlimeV2Pair.sol\":5154:5162  balance0 */\n      dup4\n      sub(shl(0x70, 0x01), 0x01)\n        /* \"bitlime-core/contracts/BitlimeV2Pair.sol\":5154:5177  balance0.sub(_reserve0) */\n      dup8\n      and\n        /* \"bitlime-core/contracts/BitlimeV2Pair.sol\":5154:5166  balance0.sub */\n      tag_155\n        /* \"bitlime-core/contracts/BitlimeV2Pair.sol\":5154:5177  balance0.sub(_reserve0) */\n      jump\t// in\n    tag_186:\n        /* \"bitlime-core/contracts/BitlimeV2Pair.sol\":5139:5177  uint amount0 = balance0.sub(_reserve0) */\n      swap1\n      pop\n        /* \"bitlime-core/contracts/BitlimeV2Pair.sol\":5188:5200  uint amount1 */\n      0x00\n        /* \"bitlime-core/contracts/BitlimeV2Pair.sol\":5203:5226  balance1.sub(_reserve1) */\n      tag_187\n        /* \"bitlime-core/contracts/BitlimeV2Pair.sol\":5203:5211  balance1 */\n      dup4\n      sub(shl(0x70, 0x01), 0x01)\n        /* \"bitlime-core/contracts/BitlimeV2Pair.sol\":5203:5226  balance1.sub(_reserve1) */\n      dup8\n      and\n        /* \"bitlime-core/contracts/BitlimeV2Pair.sol\":5203:5215  balance1.sub */\n      tag_155\n        /* \"bitlime-core/contracts/BitlimeV2Pair.sol\":5203:5226  balance1.sub(_reserve1) */\n      jump\t// in\n    tag_187:\n        /* \"bitlime-core/contracts/BitlimeV2Pair.sol\":5188:5226  uint amount1 = balance1.sub(_reserve1) */\n      swap1\n      pop\n        /* \"bitlime-core/contracts/BitlimeV2Pair.sol\":5239:5249  bool feeOn */\n      0x00\n        /* \"bitlime-core/contracts/BitlimeV2Pair.sol\":5252:5282  _mintFee(_reserve0, _reserve1) */\n      tag_188\n        /* \"bitlime-core/contracts/BitlimeV2Pair.sol\":5261:5270  _reserve0 */\n      dup8\n        /* \"bitlime-core/contracts/BitlimeV2Pair.sol\":5272:5281  _reserve1 */\n      dup8\n        /* \"bitlime-core/contracts/BitlimeV2Pair.sol\":5252:5260  _mintFee */\n      tag_189\n        /* \"bitlime-core/contracts/BitlimeV2Pair.sol\":5252:5282  _mintFee(_reserve0, _reserve1) */\n      jump\t// in\n    tag_188:\n        /* \"bitlime-core/contracts/BitlimeV2Pair.sol\":5293:5310  uint _totalSupply */\n      0x00\n        /* \"bitlime-core/contracts/BitlimeV2Pair.sol\":5313:5324  totalSupply */\n      sload\n        /* \"bitlime-core/contracts/BitlimeV2Pair.sol\":5239:5282  bool feeOn = _mintFee(_reserve0, _reserve1) */\n      swap1\n      swap2\n      pop\n        /* \"bitlime-core/contracts/BitlimeV2Pair.sol\":5417:5434  _totalSupply == 0 */\n      dup1\n        /* \"bitlime-core/contracts/BitlimeV2Pair.sol\":5413:5765  if (_totalSupply == 0) {\r... */\n      tag_190\n      jumpi\n        /* \"bitlime-core/contracts/BitlimeV2Pair.sol\":5463:5517  Math.sqrt(amount0.mul(amount1)).sub(MINIMUM_LIQUIDITY) */\n      tag_191\n        /* \"bitlime-core/contracts/BitlimeV2Pair.sol\":503:508  10**3 */\n      0x03e8\n        /* \"bitlime-core/contracts/BitlimeV2Pair.sol\":5463:5494  Math.sqrt(amount0.mul(amount1)) */\n      tag_154\n        /* \"bitlime-core/contracts/BitlimeV2Pair.sol\":5473:5493  amount0.mul(amount1) */\n      tag_193\n        /* \"bitlime-core/contracts/BitlimeV2Pair.sol\":5473:5480  amount0 */\n      dup8\n        /* \"bitlime-core/contracts/BitlimeV2Pair.sol\":5485:5492  amount1 */\n      dup8\n        /* \"bitlime-core/contracts/BitlimeV2Pair.sol\":5473:5493  amount0.mul(amount1) */\n      0xffffffff\n        /* \"bitlime-core/contracts/BitlimeV2Pair.sol\":5473:5484  amount0.mul */\n      tag_153\n        /* \"bitlime-core/contracts/BitlimeV2Pair.sol\":5473:5493  amount0.mul(amount1) */\n      and\n      jump\t// in\n    tag_193:\n        /* \"bitlime-core/contracts/BitlimeV2Pair.sol\":5463:5472  Math.sqrt */\n      tag_194\n        /* \"bitlime-core/contracts/BitlimeV2Pair.sol\":5463:5494  Math.sqrt(amount0.mul(amount1)) */\n      jump\t// in\n        /* \"bitlime-core/contracts/BitlimeV2Pair.sol\":5463:5517  Math.sqrt(amount0.mul(amount1)).sub(MINIMUM_LIQUIDITY) */\n    tag_191:\n        /* \"bitlime-core/contracts/BitlimeV2Pair.sol\":5451:5517  liquidity = Math.sqrt(amount0.mul(amount1)).sub(MINIMUM_LIQUIDITY) */\n      swap9\n      pop\n        /* \"bitlime-core/contracts/BitlimeV2Pair.sol\":5531:5567  _mint(address(0), MINIMUM_LIQUIDITY) */\n      tag_195\n        /* \"bitlime-core/contracts/BitlimeV2Pair.sol\":5545:5546  0 */\n      0x00\n        /* \"bitlime-core/contracts/BitlimeV2Pair.sol\":503:508  10**3 */\n      0x03e8\n        /* \"bitlime-core/contracts/BitlimeV2Pair.sol\":5531:5536  _mint */\n      tag_196\n        /* \"bitlime-core/contracts/BitlimeV2Pair.sol\":5531:5567  _mint(address(0), MINIMUM_LIQUIDITY) */\n      jump\t// in\n    tag_195:\n        /* \"bitlime-core/contracts/BitlimeV2Pair.sol\":5413:5765  if (_totalSupply == 0) {\r... */\n      jump(tag_197)\n    tag_190:\n        /* \"bitlime-core/contracts/BitlimeV2Pair.sol\":5667:5753  Math.min(amount0.mul(_totalSupply) / _reserve0, amount1.mul(_totalSupply) / _reserve1) */\n      tag_198\n      sub(shl(0x70, 0x01), 0x01)\n        /* \"bitlime-core/contracts/BitlimeV2Pair.sol\":5676:5713  amount0.mul(_totalSupply) / _reserve0 */\n      dup10\n      and\n        /* \"bitlime-core/contracts/BitlimeV2Pair.sol\":5676:5701  amount0.mul(_totalSupply) */\n      tag_199\n        /* \"bitlime-core/contracts/BitlimeV2Pair.sol\":5676:5683  amount0 */\n      dup7\n        /* \"bitlime-core/contracts/BitlimeV2Pair.sol\":5688:5700  _totalSupply */\n      dup5\n        /* \"bitlime-core/contracts/BitlimeV2Pair.sol\":5676:5687  amount0.mul */\n      tag_153\n        /* \"bitlime-core/contracts/BitlimeV2Pair.sol\":5676:5701  amount0.mul(_totalSupply) */\n      jump\t// in\n    tag_199:\n        /* \"bitlime-core/contracts/BitlimeV2Pair.sol\":5676:5713  amount0.mul(_totalSupply) / _reserve0 */\n      dup2\n      tag_200\n      jumpi\n      invalid\n    tag_200:\n      div\n      sub(shl(0x70, 0x01), 0x01)\n        /* \"bitlime-core/contracts/BitlimeV2Pair.sol\":5715:5752  amount1.mul(_totalSupply) / _reserve1 */\n      dup10\n      and\n        /* \"bitlime-core/contracts/BitlimeV2Pair.sol\":5715:5740  amount1.mul(_totalSupply) */\n      tag_201\n        /* \"bitlime-core/contracts/BitlimeV2Pair.sol\":5715:5722  amount1 */\n      dup7\n        /* \"bitlime-core/contracts/BitlimeV2Pair.sol\":5727:5739  _totalSupply */\n      dup6\n        /* \"bitlime-core/contracts/BitlimeV2Pair.sol\":5715:5726  amount1.mul */\n      tag_153\n        /* \"bitlime-core/contracts/BitlimeV2Pair.sol\":5715:5740  amount1.mul(_totalSupply) */\n      jump\t// in\n    tag_201:\n        /* \"bitlime-core/contracts/BitlimeV2Pair.sol\":5715:5752  amount1.mul(_totalSupply) / _reserve1 */\n      dup2\n      tag_202\n      jumpi\n      invalid\n    tag_202:\n      div\n        /* \"bitlime-core/contracts/BitlimeV2Pair.sol\":5667:5675  Math.min */\n      tag_203\n        /* \"bitlime-core/contracts/BitlimeV2Pair.sol\":5667:5753  Math.min(amount0.mul(_totalSupply) / _reserve0, amount1.mul(_totalSupply) / _reserve1) */\n      jump\t// in\n    tag_198:\n        /* \"bitlime-core/contracts/BitlimeV2Pair.sol\":5655:5753  liquidity = Math.min(amount0.mul(_totalSupply) / _reserve0, amount1.mul(_totalSupply) / _reserve1) */\n      swap9\n      pop\n        /* \"bitlime-core/contracts/BitlimeV2Pair.sol\":5413:5765  if (_totalSupply == 0) {\r... */\n    tag_197:\n        /* \"bitlime-core/contracts/BitlimeV2Pair.sol\":5795:5796  0 */\n      0x00\n        /* \"bitlime-core/contracts/BitlimeV2Pair.sol\":5783:5792  liquidity */\n      dup10\n        /* \"bitlime-core/contracts/BitlimeV2Pair.sol\":5783:5796  liquidity > 0 */\n      gt\n        /* \"bitlime-core/contracts/BitlimeV2Pair.sol\":5775:5841  require(liquidity > 0, 'BitlimeV2: INSUFFICIENT_LIQUIDITY_MINTED') */\n      tag_204\n      jumpi\n      mload(0x40)\n      shl(0xe5, 0x461bcd)\n      dup2\n      mstore\n      0x04\n      add\n      dup1\n      dup1\n      0x20\n      add\n      dup3\n      dup2\n      sub\n      dup3\n      mstore\n      0x28\n      dup2\n      mstore\n      0x20\n      add\n      dup1\n      data_11aae1451e92178ca9557b0da8e89c1a0cb66439f2c79e2c015b2b1c66f8c10e\n      0x28\n      swap2\n      codecopy\n      0x40\n      add\n      swap2\n      pop\n      pop\n      mload(0x40)\n      dup1\n      swap2\n      sub\n      swap1\n      revert\n    tag_204:\n        /* \"bitlime-core/contracts/BitlimeV2Pair.sol\":5852:5872  _mint(to, liquidity) */\n      tag_205\n        /* \"bitlime-core/contracts/BitlimeV2Pair.sol\":5858:5860  to */\n      dup11\n        /* \"bitlime-core/contracts/BitlimeV2Pair.sol\":5862:5871  liquidity */\n      dup11\n        /* \"bitlime-core/contracts/BitlimeV2Pair.sol\":5852:5857  _mint */\n      tag_196\n        /* \"bitlime-core/contracts/BitlimeV2Pair.sol\":5852:5872  _mint(to, liquidity) */\n      jump\t// in\n    tag_205:\n        /* \"bitlime-core/contracts/BitlimeV2Pair.sol\":5885:5934  _update(balance0, balance1, _reserve0, _reserve1) */\n      tag_206\n        /* \"bitlime-core/contracts/BitlimeV2Pair.sol\":5893:5901  balance0 */\n      dup7\n        /* \"bitlime-core/contracts/BitlimeV2Pair.sol\":5903:5911  balance1 */\n      dup7\n        /* \"bitlime-core/contracts/BitlimeV2Pair.sol\":5913:5922  _reserve0 */\n      dup11\n        /* \"bitlime-core/contracts/BitlimeV2Pair.sol\":5924:5933  _reserve1 */\n      dup11\n        /* \"bitlime-core/contracts/BitlimeV2Pair.sol\":5885:5892  _update */\n      tag_164\n        /* \"bitlime-core/contracts/BitlimeV2Pair.sol\":5885:5934  _update(balance0, balance1, _reserve0, _reserve1) */\n      jump\t// in\n    tag_206:\n        /* \"bitlime-core/contracts/BitlimeV2Pair.sol\":5949:5954  feeOn */\n      dup2\n        /* \"bitlime-core/contracts/BitlimeV2Pair.sol\":5945:5992  if (feeOn) kLast = uint(reserve0).mul(reserve1) */\n      iszero\n      tag_207\n      jumpi\n        /* \"bitlime-core/contracts/BitlimeV2Pair.sol\":5983:5991  reserve1 */\n      sload(0x09)\n        /* \"bitlime-core/contracts/BitlimeV2Pair.sol\":5964:5992  uint(reserve0).mul(reserve1) */\n      tag_208\n      swap1\n      sub(shl(0x70, 0x01), 0x01)\n        /* \"bitlime-core/contracts/BitlimeV2Pair.sol\":5969:5977  reserve0 */\n      dup1\n      dup3\n      and\n      swap2\n      shl(0x70, 0x01)\n        /* \"bitlime-core/contracts/BitlimeV2Pair.sol\":5983:5991  reserve1 */\n      swap1\n      div\n      and\n        /* \"bitlime-core/contracts/BitlimeV2Pair.sol\":5964:5982  uint(reserve0).mul */\n      tag_153\n        /* \"bitlime-core/contracts/BitlimeV2Pair.sol\":5964:5992  uint(reserve0).mul(reserve1) */\n      jump\t// in\n    tag_208:\n        /* \"bitlime-core/contracts/BitlimeV2Pair.sol\":5956:5961  kLast */\n      0x0c\n        /* \"bitlime-core/contracts/BitlimeV2Pair.sol\":5956:5992  kLast = uint(reserve0).mul(reserve1) */\n      sstore\n        /* \"bitlime-core/contracts/BitlimeV2Pair.sol\":5945:5992  if (feeOn) kLast = uint(reserve0).mul(reserve1) */\n    tag_207:\n        /* \"bitlime-core/contracts/BitlimeV2Pair.sol\":6048:6082  Mint(msg.sender, amount0, amount1) */\n      0x40\n      dup1\n      mload\n      dup6\n      dup2\n      mstore\n      0x20\n      dup2\n      add\n      dup6\n      swap1\n      mstore\n      dup2\n      mload\n        /* \"bitlime-core/contracts/BitlimeV2Pair.sol\":6053:6063  msg.sender */\n      caller\n      swap3\n        /* \"bitlime-core/contracts/BitlimeV2Pair.sol\":6048:6082  Mint(msg.sender, amount0, amount1) */\n      0x4c209b5fc8ad50758f13e2e1088ba56a560dff690a1c6fef26394f4c03821c4f\n      swap3\n      dup3\n      swap1\n      sub\n      add\n      swap1\n      log2\n      pop\n      pop\n        /* \"bitlime-core/contracts/BitlimeV2Pair.sol\":1335:1336  1 */\n      0x01\n        /* \"bitlime-core/contracts/BitlimeV2Pair.sol\":1324:1332  unlocked */\n      0x0d\n        /* \"bitlime-core/contracts/BitlimeV2Pair.sol\":1324:1336  unlocked = 1 */\n      sstore\n      pop\n        /* \"bitlime-core/contracts/BitlimeV2Pair.sol\":4850:6090  function mint(address to) external lock returns (uint liquidity) {\r... */\n      swap5\n      swap7\n      swap6\n      pop\n      pop\n      pop\n      pop\n      pop\n      pop\n      jump\t// out\n        /* \"bitlime-core/contracts/BitlimeV2ERC20.sol\":362:403  mapping(address => uint) public balanceOf */\n    tag_81:\n      mstore(0x20, 0x01)\n      0x00\n      swap1\n      dup2\n      mstore\n      0x40\n      swap1\n      keccak256\n      sload\n      dup2\n      jump\t// out\n        /* \"bitlime-core/contracts/BitlimeV2Pair.sol\":1070:1087  uint public kLast */\n    tag_83:\n      sload(0x0c)\n      dup2\n      jump\t// out\n        /* \"bitlime-core/contracts/BitlimeV2ERC20.sol\":738:776  mapping(address => uint) public nonces */\n    tag_86:\n      mstore(0x20, 0x04)\n      0x00\n      swap1\n      dup2\n      mstore\n      0x40\n      swap1\n      keccak256\n      sload\n      dup2\n      jump\t// out\n        /* \"bitlime-core/contracts/BitlimeV2Pair.sol\":6202:7668  function burn(address to) external lock returns (uint amount0, uint amount1) {\r... */\n    tag_89:\n        /* \"bitlime-core/contracts/BitlimeV2Pair.sol\":6251:6263  uint amount0 */\n      0x00\n        /* \"bitlime-core/contracts/BitlimeV2Pair.sol\":6265:6277  uint amount1 */\n      dup1\n        /* \"bitlime-core/contracts/BitlimeV2Pair.sol\":1243:1251  unlocked */\n      sload(0x0d)\n        /* \"bitlime-core/contracts/BitlimeV2Pair.sol\":1255:1256  1 */\n      0x01\n        /* \"bitlime-core/contracts/BitlimeV2Pair.sol\":1243:1256  unlocked == 1 */\n      eq\n        /* \"bitlime-core/contracts/BitlimeV2Pair.sol\":1235:1278  require(unlocked == 1, 'BitlimeV2: LOCKED') */\n      tag_210\n      jumpi\n      0x40\n      dup1\n      mload\n      shl(0xe5, 0x461bcd)\n      dup2\n      mstore\n      0x20\n      0x04\n      dup3\n      add\n      mstore\n      0x11\n      0x24\n      dup3\n      add\n      mstore\n      shl(0x7a, 0x109a5d1b1a5b59558c8e881313d0d2d151)\n      0x44\n      dup3\n      add\n      mstore\n      swap1\n      mload\n      swap1\n      dup2\n      swap1\n      sub\n      0x64\n      add\n      swap1\n      revert\n    tag_210:\n        /* \"bitlime-core/contracts/BitlimeV2Pair.sol\":1300:1301  0 */\n      0x00\n        /* \"bitlime-core/contracts/BitlimeV2Pair.sol\":1289:1297  unlocked */\n      0x0d\n        /* \"bitlime-core/contracts/BitlimeV2Pair.sol\":1289:1301  unlocked = 0 */\n      dup2\n      swap1\n      sstore\n        /* \"bitlime-core/contracts/BitlimeV2Pair.sol\":1300:1301  0 */\n      dup1\n        /* \"bitlime-core/contracts/BitlimeV2Pair.sol\":6332:6345  getReserves() */\n      tag_212\n        /* \"bitlime-core/contracts/BitlimeV2Pair.sol\":6332:6343  getReserves */\n      tag_52\n        /* \"bitlime-core/contracts/BitlimeV2Pair.sol\":6332:6345  getReserves() */\n      jump\t// in\n    tag_212:\n      pop\n        /* \"bitlime-core/contracts/BitlimeV2Pair.sol\":6389:6395  token0 */\n      sload(0x07)\n        /* \"bitlime-core/contracts/BitlimeV2Pair.sol\":6470:6476  token1 */\n      sload(0x08)\n        /* \"bitlime-core/contracts/BitlimeV2Pair.sol\":6549:6589  IERC20(_token0).balanceOf(address(this)) */\n      0x40\n      dup1\n      mload\n      shl(0xe0, 0x70a08231)\n      dup2\n      mstore\n        /* \"bitlime-core/contracts/BitlimeV2Pair.sol\":6583:6587  this */\n      address\n        /* \"bitlime-core/contracts/BitlimeV2Pair.sol\":6549:6589  IERC20(_token0).balanceOf(address(this)) */\n      0x04\n      dup3\n      add\n      mstore\n      swap1\n      mload\n        /* \"bitlime-core/contracts/BitlimeV2Pair.sol\":6290:6345  (uint112 _reserve0, uint112 _reserve1,) = getReserves() */\n      swap5\n      swap7\n      pop\n      swap3\n      swap5\n      pop\n      sub(shl(0xa0, 0x01), 0x01)\n        /* \"bitlime-core/contracts/BitlimeV2Pair.sol\":6389:6395  token0 */\n      swap2\n      dup3\n      and\n      swap4\n        /* \"bitlime-core/contracts/BitlimeV2Pair.sol\":6470:6476  token1 */\n      swap2\n      and\n      swap2\n      0x00\n      swap2\n        /* \"bitlime-core/contracts/BitlimeV2Pair.sol\":6389:6395  token0 */\n      dup5\n      swap2\n      0x70a08231\n      swap2\n        /* \"bitlime-core/contracts/BitlimeV2Pair.sol\":6549:6589  IERC20(_token0).balanceOf(address(this)) */\n      0x24\n      dup1\n      dup4\n      add\n      swap3\n      0x20\n      swap3\n      swap2\n      swap1\n      dup3\n      swap1\n      sub\n      add\n      dup2\n        /* \"bitlime-core/contracts/BitlimeV2Pair.sol\":6389:6395  token0 */\n      dup7\n        /* \"bitlime-core/contracts/BitlimeV2Pair.sol\":6549:6589  IERC20(_token0).balanceOf(address(this)) */\n      dup1\n      extcodesize\n      iszero\n        /* \"--CODEGEN--\":5:7   */\n      dup1\n      iszero\n      tag_213\n      jumpi\n        /* \"--CODEGEN--\":30:31   */\n      0x00\n        /* \"--CODEGEN--\":27:28   */\n      dup1\n        /* \"--CODEGEN--\":20:32   */\n      revert\n        /* \"--CODEGEN--\":5:7   */\n    tag_213:\n        /* \"bitlime-core/contracts/BitlimeV2Pair.sol\":6549:6589  IERC20(_token0).balanceOf(address(this)) */\n      pop\n      gas\n      staticcall\n      iszero\n        /* \"--CODEGEN--\":8:17   */\n      dup1\n        /* \"--CODEGEN--\":5:7   */\n      iszero\n      tag_214\n      jumpi\n        /* \"--CODEGEN--\":45:61   */\n      returndatasize\n        /* \"--CODEGEN--\":42:43   */\n      0x00\n        /* \"--CODEGEN--\":39:40   */\n      dup1\n        /* \"--CODEGEN--\":24:62   */\n      returndatacopy\n        /* \"--CODEGEN--\":77:93   */\n      returndatasize\n        /* \"--CODEGEN--\":74:75   */\n      0x00\n        /* \"--CODEGEN--\":67:94   */\n      revert\n        /* \"--CODEGEN--\":5:7   */\n    tag_214:\n        /* \"bitlime-core/contracts/BitlimeV2Pair.sol\":6549:6589  IERC20(_token0).balanceOf(address(this)) */\n      pop\n      pop\n      pop\n      pop\n      mload(0x40)\n      returndatasize\n        /* \"--CODEGEN--\":13:15   */\n      0x20\n        /* \"--CODEGEN--\":8:11   */\n      dup2\n        /* \"--CODEGEN--\":5:16   */\n      lt\n        /* \"--CODEGEN--\":2:4   */\n      iszero\n      tag_215\n      jumpi\n        /* \"--CODEGEN--\":29:30   */\n      0x00\n        /* \"--CODEGEN--\":26:27   */\n      dup1\n        /* \"--CODEGEN--\":19:31   */\n      revert\n        /* \"--CODEGEN--\":2:4   */\n    tag_215:\n      pop\n        /* \"bitlime-core/contracts/BitlimeV2Pair.sol\":6549:6589  IERC20(_token0).balanceOf(address(this)) */\n      mload\n        /* \"bitlime-core/contracts/BitlimeV2Pair.sol\":6616:6656  IERC20(_token1).balanceOf(address(this)) */\n      0x40\n      dup1\n      mload\n      shl(0xe0, 0x70a08231)\n      dup2\n      mstore\n        /* \"bitlime-core/contracts/BitlimeV2Pair.sol\":6650:6654  this */\n      address\n        /* \"bitlime-core/contracts/BitlimeV2Pair.sol\":6616:6656  IERC20(_token1).balanceOf(address(this)) */\n      0x04\n      dup3\n      add\n      mstore\n      swap1\n      mload\n        /* \"bitlime-core/contracts/BitlimeV2Pair.sol\":6549:6589  IERC20(_token0).balanceOf(address(this)) */\n      swap2\n      swap3\n      pop\n      0x00\n      swap2\n      sub(shl(0xa0, 0x01), 0x01)\n        /* \"bitlime-core/contracts/BitlimeV2Pair.sol\":6616:6641  IERC20(_token1).balanceOf */\n      dup6\n      and\n      swap2\n      0x70a08231\n      swap2\n        /* \"bitlime-core/contracts/BitlimeV2Pair.sol\":6616:6656  IERC20(_token1).balanceOf(address(this)) */\n      0x24\n      dup1\n      dup4\n      add\n      swap3\n        /* \"bitlime-core/contracts/BitlimeV2Pair.sol\":6549:6589  IERC20(_token0).balanceOf(address(this)) */\n      0x20\n      swap3\n        /* \"bitlime-core/contracts/BitlimeV2Pair.sol\":6616:6656  IERC20(_token1).balanceOf(address(this)) */\n      swap2\n      swap1\n      dup3\n      swap1\n      sub\n      add\n      dup2\n        /* \"bitlime-core/contracts/BitlimeV2Pair.sol\":6616:6641  IERC20(_token1).balanceOf */\n      dup7\n        /* \"bitlime-core/contracts/BitlimeV2Pair.sol\":6616:6656  IERC20(_token1).balanceOf(address(this)) */\n      dup1\n      extcodesize\n      iszero\n        /* \"--CODEGEN--\":5:7   */\n      dup1\n      iszero\n      tag_216\n      jumpi\n        /* \"--CODEGEN--\":30:31   */\n      0x00\n        /* \"--CODEGEN--\":27:28   */\n      dup1\n        /* \"--CODEGEN--\":20:32   */\n      revert\n        /* \"--CODEGEN--\":5:7   */\n    tag_216:\n        /* \"bitlime-core/contracts/BitlimeV2Pair.sol\":6616:6656  IERC20(_token1).balanceOf(address(this)) */\n      pop\n      gas\n      staticcall\n      iszero\n        /* \"--CODEGEN--\":8:17   */\n      dup1\n        /* \"--CODEGEN--\":5:7   */\n      iszero\n      tag_217\n      jumpi\n        /* \"--CODEGEN--\":45:61   */\n      returndatasize\n        /* \"--CODEGEN--\":42:43   */\n      0x00\n        /* \"--CODEGEN--\":39:40   */\n      dup1\n        /* \"--CODEGEN--\":24:62   */\n      returndatacopy\n        /* \"--CODEGEN--\":77:93   */\n      returndatasize\n        /* \"--CODEGEN--\":74:75   */\n      0x00\n        /* \"--CODEGEN--\":67:94   */\n      revert\n        /* \"--CODEGEN--\":5:7   */\n    tag_217:\n        /* \"bitlime-core/contracts/BitlimeV2Pair.sol\":6616:6656  IERC20(_token1).balanceOf(address(this)) */\n      pop\n      pop\n      pop\n      pop\n      mload(0x40)\n      returndatasize\n        /* \"--CODEGEN--\":13:15   */\n      0x20\n        /* \"--CODEGEN--\":8:11   */\n      dup2\n        /* \"--CODEGEN--\":5:16   */\n      lt\n        /* \"--CODEGEN--\":2:4   */\n      iszero\n      tag_218\n      jumpi\n        /* \"--CODEGEN--\":29:30   */\n      0x00\n        /* \"--CODEGEN--\":26:27   */\n      dup1\n        /* \"--CODEGEN--\":19:31   */\n      revert\n        /* \"--CODEGEN--\":2:4   */\n    tag_218:\n      pop\n        /* \"bitlime-core/contracts/BitlimeV2Pair.sol\":6616:6656  IERC20(_token1).balanceOf(address(this)) */\n      mload\n        /* \"bitlime-core/contracts/BitlimeV2Pair.sol\":6702:6706  this */\n      address\n        /* \"bitlime-core/contracts/BitlimeV2Pair.sol\":6667:6681  uint liquidity */\n      0x00\n        /* \"bitlime-core/contracts/BitlimeV2Pair.sol\":6684:6708  balanceOf[address(this)] */\n      swap1\n      dup2\n      mstore\n        /* \"bitlime-core/contracts/BitlimeV2Pair.sol\":6684:6693  balanceOf */\n      0x01\n        /* \"bitlime-core/contracts/BitlimeV2Pair.sol\":6616:6656  IERC20(_token1).balanceOf(address(this)) */\n      0x20\n        /* \"bitlime-core/contracts/BitlimeV2Pair.sol\":6684:6708  balanceOf[address(this)] */\n      mstore\n      0x40\n      dup2\n      keccak256\n      sload\n        /* \"bitlime-core/contracts/BitlimeV2Pair.sol\":6616:6656  IERC20(_token1).balanceOf(address(this)) */\n      swap2\n      swap3\n      pop\n        /* \"bitlime-core/contracts/BitlimeV2Pair.sol\":6734:6764  _mintFee(_reserve0, _reserve1) */\n      tag_219\n        /* \"bitlime-core/contracts/BitlimeV2Pair.sol\":6743:6752  _reserve0 */\n      dup9\n        /* \"bitlime-core/contracts/BitlimeV2Pair.sol\":6754:6763  _reserve1 */\n      dup9\n        /* \"bitlime-core/contracts/BitlimeV2Pair.sol\":6734:6742  _mintFee */\n      tag_189\n        /* \"bitlime-core/contracts/BitlimeV2Pair.sol\":6734:6764  _mintFee(_reserve0, _reserve1) */\n      jump\t// in\n    tag_219:\n        /* \"bitlime-core/contracts/BitlimeV2Pair.sol\":6775:6792  uint _totalSupply */\n      0x00\n        /* \"bitlime-core/contracts/BitlimeV2Pair.sol\":6795:6806  totalSupply */\n      sload\n        /* \"bitlime-core/contracts/BitlimeV2Pair.sol\":6721:6764  bool feeOn = _mintFee(_reserve0, _reserve1) */\n      swap1\n      swap2\n      pop\n        /* \"bitlime-core/contracts/BitlimeV2Pair.sol\":6795:6806  totalSupply */\n      dup1\n        /* \"bitlime-core/contracts/BitlimeV2Pair.sol\":6905:6928  liquidity.mul(balance0) */\n      tag_220\n        /* \"bitlime-core/contracts/BitlimeV2Pair.sol\":6905:6914  liquidity */\n      dup5\n        /* \"bitlime-core/contracts/BitlimeV2Pair.sol\":6919:6927  balance0 */\n      dup8\n        /* \"bitlime-core/contracts/BitlimeV2Pair.sol\":6905:6928  liquidity.mul(balance0) */\n      0xffffffff\n        /* \"bitlime-core/contracts/BitlimeV2Pair.sol\":6905:6918  liquidity.mul */\n      tag_153\n        /* \"bitlime-core/contracts/BitlimeV2Pair.sol\":6905:6928  liquidity.mul(balance0) */\n      and\n      jump\t// in\n    tag_220:\n        /* \"bitlime-core/contracts/BitlimeV2Pair.sol\":6905:6943  liquidity.mul(balance0) / _totalSupply */\n      dup2\n      tag_221\n      jumpi\n      invalid\n    tag_221:\n      div\n      swap11\n      pop\n        /* \"bitlime-core/contracts/BitlimeV2Pair.sol\":7038:7050  _totalSupply */\n      dup1\n        /* \"bitlime-core/contracts/BitlimeV2Pair.sol\":7012:7035  liquidity.mul(balance1) */\n      tag_222\n        /* \"bitlime-core/contracts/BitlimeV2Pair.sol\":7012:7021  liquidity */\n      dup5\n        /* \"bitlime-core/contracts/BitlimeV2Pair.sol\":7026:7034  balance1 */\n      dup7\n        /* \"bitlime-core/contracts/BitlimeV2Pair.sol\":7012:7035  liquidity.mul(balance1) */\n      0xffffffff\n        /* \"bitlime-core/contracts/BitlimeV2Pair.sol\":7012:7025  liquidity.mul */\n      tag_153\n        /* \"bitlime-core/contracts/BitlimeV2Pair.sol\":7012:7035  liquidity.mul(balance1) */\n      and\n      jump\t// in\n    tag_222:\n        /* \"bitlime-core/contracts/BitlimeV2Pair.sol\":7012:7050  liquidity.mul(balance1) / _totalSupply */\n      dup2\n      tag_223\n      jumpi\n      invalid\n    tag_223:\n      div\n        /* \"bitlime-core/contracts/BitlimeV2Pair.sol\":7002:7050  amount1 = liquidity.mul(balance1) / _totalSupply */\n      swap10\n      pop\n        /* \"bitlime-core/contracts/BitlimeV2Pair.sol\":7127:7128  0 */\n      0x00\n        /* \"bitlime-core/contracts/BitlimeV2Pair.sol\":7117:7124  amount0 */\n      dup12\n        /* \"bitlime-core/contracts/BitlimeV2Pair.sol\":7117:7128  amount0 > 0 */\n      gt\n        /* \"bitlime-core/contracts/BitlimeV2Pair.sol\":7117:7143  amount0 > 0 && amount1 > 0 */\n      dup1\n      iszero\n      tag_224\n      jumpi\n      pop\n        /* \"bitlime-core/contracts/BitlimeV2Pair.sol\":7142:7143  0 */\n      0x00\n        /* \"bitlime-core/contracts/BitlimeV2Pair.sol\":7132:7139  amount1 */\n      dup11\n        /* \"bitlime-core/contracts/BitlimeV2Pair.sol\":7132:7143  amount1 > 0 */\n      gt\n        /* \"bitlime-core/contracts/BitlimeV2Pair.sol\":7117:7143  amount0 > 0 && amount1 > 0 */\n    tag_224:\n        /* \"bitlime-core/contracts/BitlimeV2Pair.sol\":7109:7188  require(amount0 > 0 && amount1 > 0, 'BitlimeV2: INSUFFICIENT_LIQUIDITY_BURNED') */\n      tag_225\n      jumpi\n      mload(0x40)\n      shl(0xe5, 0x461bcd)\n      dup2\n      mstore\n      0x04\n      add\n      dup1\n      dup1\n      0x20\n      add\n      dup3\n      dup2\n      sub\n      dup3\n      mstore\n      0x28\n      dup2\n      mstore\n      0x20\n      add\n      dup1\n      data_ad84f473b4861a87a7c2e9e59f92cb79221bbc15014bdee38cdd94fc09af824b\n      0x28\n      swap2\n      codecopy\n      0x40\n      add\n      swap2\n      pop\n      pop\n      mload(0x40)\n      dup1\n      swap2\n      sub\n      swap1\n      revert\n    tag_225:\n        /* \"bitlime-core/contracts/BitlimeV2Pair.sol\":7199:7230  _burn(address(this), liquidity) */\n      tag_226\n        /* \"bitlime-core/contracts/BitlimeV2Pair.sol\":7213:7217  this */\n      address\n        /* \"bitlime-core/contracts/BitlimeV2Pair.sol\":7220:7229  liquidity */\n      dup5\n        /* \"bitlime-core/contracts/BitlimeV2Pair.sol\":7199:7204  _burn */\n      tag_227\n        /* \"bitlime-core/contracts/BitlimeV2Pair.sol\":7199:7230  _burn(address(this), liquidity) */\n      jump\t// in\n    tag_226:\n        /* \"bitlime-core/contracts/BitlimeV2Pair.sol\":7241:7276  _safeTransfer(_token0, to, amount0) */\n      tag_228\n        /* \"bitlime-core/contracts/BitlimeV2Pair.sol\":7255:7262  _token0 */\n      dup8\n        /* \"bitlime-core/contracts/BitlimeV2Pair.sol\":7264:7266  to */\n      dup14\n        /* \"bitlime-core/contracts/BitlimeV2Pair.sol\":7268:7275  amount0 */\n      dup14\n        /* \"bitlime-core/contracts/BitlimeV2Pair.sol\":7241:7254  _safeTransfer */\n      tag_133\n        /* \"bitlime-core/contracts/BitlimeV2Pair.sol\":7241:7276  _safeTransfer(_token0, to, amount0) */\n      jump\t// in\n    tag_228:\n        /* \"bitlime-core/contracts/BitlimeV2Pair.sol\":7287:7322  _safeTransfer(_token1, to, amount1) */\n      tag_229\n        /* \"bitlime-core/contracts/BitlimeV2Pair.sol\":7301:7308  _token1 */\n      dup7\n        /* \"bitlime-core/contracts/BitlimeV2Pair.sol\":7310:7312  to */\n      dup14\n        /* \"bitlime-core/contracts/BitlimeV2Pair.sol\":7314:7321  amount1 */\n      dup13\n        /* \"bitlime-core/contracts/BitlimeV2Pair.sol\":7287:7300  _safeTransfer */\n      tag_133\n        /* \"bitlime-core/contracts/BitlimeV2Pair.sol\":7287:7322  _safeTransfer(_token1, to, amount1) */\n      jump\t// in\n    tag_229:\n        /* \"bitlime-core/contracts/BitlimeV2Pair.sol\":7344:7384  IERC20(_token0).balanceOf(address(this)) */\n      0x40\n      dup1\n      mload\n      shl(0xe0, 0x70a08231)\n      dup2\n      mstore\n        /* \"bitlime-core/contracts/BitlimeV2Pair.sol\":7378:7382  this */\n      address\n        /* \"bitlime-core/contracts/BitlimeV2Pair.sol\":7344:7384  IERC20(_token0).balanceOf(address(this)) */\n      0x04\n      dup3\n      add\n      mstore\n      swap1\n      mload\n      sub(shl(0xa0, 0x01), 0x01)\n        /* \"bitlime-core/contracts/BitlimeV2Pair.sol\":7344:7369  IERC20(_token0).balanceOf */\n      dup10\n      and\n      swap2\n      0x70a08231\n      swap2\n        /* \"bitlime-core/contracts/BitlimeV2Pair.sol\":7344:7384  IERC20(_token0).balanceOf(address(this)) */\n      0x24\n      dup1\n      dup4\n      add\n      swap3\n      0x20\n      swap3\n      swap2\n      swap1\n      dup3\n      swap1\n      sub\n      add\n      dup2\n        /* \"bitlime-core/contracts/BitlimeV2Pair.sol\":7344:7369  IERC20(_token0).balanceOf */\n      dup7\n        /* \"bitlime-core/contracts/BitlimeV2Pair.sol\":7344:7384  IERC20(_token0).balanceOf(address(this)) */\n      dup1\n      extcodesize\n      iszero\n        /* \"--CODEGEN--\":5:7   */\n      dup1\n      iszero\n      tag_230\n      jumpi\n        /* \"--CODEGEN--\":30:31   */\n      0x00\n        /* \"--CODEGEN--\":27:28   */\n      dup1\n        /* \"--CODEGEN--\":20:32   */\n      revert\n        /* \"--CODEGEN--\":5:7   */\n    tag_230:\n        /* \"bitlime-core/contracts/BitlimeV2Pair.sol\":7344:7384  IERC20(_token0).balanceOf(address(this)) */\n      pop\n      gas\n      staticcall\n      iszero\n        /* \"--CODEGEN--\":8:17   */\n      dup1\n        /* \"--CODEGEN--\":5:7   */\n      iszero\n      tag_231\n      jumpi\n        /* \"--CODEGEN--\":45:61   */\n      returndatasize\n        /* \"--CODEGEN--\":42:43   */\n      0x00\n        /* \"--CODEGEN--\":39:40   */\n      dup1\n        /* \"--CODEGEN--\":24:62   */\n      returndatacopy\n        /* \"--CODEGEN--\":77:93   */\n      returndatasize\n        /* \"--CODEGEN--\":74:75   */\n      0x00\n        /* \"--CODEGEN--\":67:94   */\n      revert\n        /* \"--CODEGEN--\":5:7   */\n    tag_231:\n        /* \"bitlime-core/contracts/BitlimeV2Pair.sol\":7344:7384  IERC20(_token0).balanceOf(address(this)) */\n      pop\n      pop\n      pop\n      pop\n      mload(0x40)\n      returndatasize\n        /* \"--CODEGEN--\":13:15   */\n      0x20\n        /* \"--CODEGEN--\":8:11   */\n      dup2\n        /* \"--CODEGEN--\":5:16   */\n      lt\n        /* \"--CODEGEN--\":2:4   */\n      iszero\n      tag_232\n      jumpi\n        /* \"--CODEGEN--\":29:30   */\n      0x00\n        /* \"--CODEGEN--\":26:27   */\n      dup1\n        /* \"--CODEGEN--\":19:31   */\n      revert\n        /* \"--CODEGEN--\":2:4   */\n    tag_232:\n      pop\n        /* \"bitlime-core/contracts/BitlimeV2Pair.sol\":7344:7384  IERC20(_token0).balanceOf(address(this)) */\n      mload\n        /* \"bitlime-core/contracts/BitlimeV2Pair.sol\":7406:7446  IERC20(_token1).balanceOf(address(this)) */\n      0x40\n      dup1\n      mload\n      shl(0xe0, 0x70a08231)\n      dup2\n      mstore\n        /* \"bitlime-core/contracts/BitlimeV2Pair.sol\":7440:7444  this */\n      address\n        /* \"bitlime-core/contracts/BitlimeV2Pair.sol\":7406:7446  IERC20(_token1).balanceOf(address(this)) */\n      0x04\n      dup3\n      add\n      mstore\n      swap1\n      mload\n        /* \"bitlime-core/contracts/BitlimeV2Pair.sol\":7344:7384  IERC20(_token0).balanceOf(address(this)) */\n      swap2\n      swap7\n      pop\n      sub(shl(0xa0, 0x01), 0x01)\n        /* \"bitlime-core/contracts/BitlimeV2Pair.sol\":7406:7431  IERC20(_token1).balanceOf */\n      dup9\n      and\n      swap2\n      0x70a08231\n      swap2\n        /* \"bitlime-core/contracts/BitlimeV2Pair.sol\":7406:7446  IERC20(_token1).balanceOf(address(this)) */\n      0x24\n      dup1\n      dup3\n      add\n      swap3\n        /* \"bitlime-core/contracts/BitlimeV2Pair.sol\":7344:7384  IERC20(_token0).balanceOf(address(this)) */\n      0x20\n      swap3\n        /* \"bitlime-core/contracts/BitlimeV2Pair.sol\":7406:7446  IERC20(_token1).balanceOf(address(this)) */\n      swap1\n      swap2\n      swap1\n      dup3\n      swap1\n      sub\n      add\n      dup2\n        /* \"bitlime-core/contracts/BitlimeV2Pair.sol\":7406:7431  IERC20(_token1).balanceOf */\n      dup7\n        /* \"bitlime-core/contracts/BitlimeV2Pair.sol\":7406:7446  IERC20(_token1).balanceOf(address(this)) */\n      dup1\n      extcodesize\n      iszero\n        /* \"--CODEGEN--\":5:7   */\n      dup1\n      iszero\n      tag_233\n      jumpi\n        /* \"--CODEGEN--\":30:31   */\n      0x00\n        /* \"--CODEGEN--\":27:28   */\n      dup1\n        /* \"--CODEGEN--\":20:32   */\n      revert\n        /* \"--CODEGEN--\":5:7   */\n    tag_233:\n        /* \"bitlime-core/contracts/BitlimeV2Pair.sol\":7406:7446  IERC20(_token1).balanceOf(address(this)) */\n      pop\n      gas\n      staticcall\n      iszero\n        /* \"--CODEGEN--\":8:17   */\n      dup1\n        /* \"--CODEGEN--\":5:7   */\n      iszero\n      tag_234\n      jumpi\n        /* \"--CODEGEN--\":45:61   */\n      returndatasize\n        /* \"--CODEGEN--\":42:43   */\n      0x00\n        /* \"--CODEGEN--\":39:40   */\n      dup1\n        /* \"--CODEGEN--\":24:62   */\n      returndatacopy\n        /* \"--CODEGEN--\":77:93   */\n      returndatasize\n        /* \"--CODEGEN--\":74:75   */\n      0x00\n        /* \"--CODEGEN--\":67:94   */\n      revert\n        /* \"--CODEGEN--\":5:7   */\n    tag_234:\n        /* \"bitlime-core/contracts/BitlimeV2Pair.sol\":7406:7446  IERC20(_token1).balanceOf(address(this)) */\n      pop\n      pop\n      pop\n      pop\n      mload(0x40)\n      returndatasize\n        /* \"--CODEGEN--\":13:15   */\n      0x20\n        /* \"--CODEGEN--\":8:11   */\n      dup2\n        /* \"--CODEGEN--\":5:16   */\n      lt\n        /* \"--CODEGEN--\":2:4   */\n      iszero\n      tag_235\n      jumpi\n        /* \"--CODEGEN--\":29:30   */\n      0x00\n        /* \"--CODEGEN--\":26:27   */\n      dup1\n        /* \"--CODEGEN--\":19:31   */\n      revert\n        /* \"--CODEGEN--\":2:4   */\n    tag_235:\n      pop\n        /* \"bitlime-core/contracts/BitlimeV2Pair.sol\":7406:7446  IERC20(_token1).balanceOf(address(this)) */\n      mload\n      swap4\n      pop\n        /* \"bitlime-core/contracts/BitlimeV2Pair.sol\":7459:7508  _update(balance0, balance1, _reserve0, _reserve1) */\n      tag_236\n        /* \"bitlime-core/contracts/BitlimeV2Pair.sol\":7467:7475  balance0 */\n      dup6\n        /* \"bitlime-core/contracts/BitlimeV2Pair.sol\":7406:7446  IERC20(_token1).balanceOf(address(this)) */\n      dup6\n        /* \"bitlime-core/contracts/BitlimeV2Pair.sol\":7487:7496  _reserve0 */\n      dup12\n        /* \"bitlime-core/contracts/BitlimeV2Pair.sol\":7498:7507  _reserve1 */\n      dup12\n        /* \"bitlime-core/contracts/BitlimeV2Pair.sol\":7459:7466  _update */\n      tag_164\n        /* \"bitlime-core/contracts/BitlimeV2Pair.sol\":7459:7508  _update(balance0, balance1, _reserve0, _reserve1) */\n      jump\t// in\n    tag_236:\n        /* \"bitlime-core/contracts/BitlimeV2Pair.sol\":7523:7528  feeOn */\n      dup2\n        /* \"bitlime-core/contracts/BitlimeV2Pair.sol\":7519:7566  if (feeOn) kLast = uint(reserve0).mul(reserve1) */\n      iszero\n      tag_237\n      jumpi\n        /* \"bitlime-core/contracts/BitlimeV2Pair.sol\":7557:7565  reserve1 */\n      sload(0x09)\n        /* \"bitlime-core/contracts/BitlimeV2Pair.sol\":7538:7566  uint(reserve0).mul(reserve1) */\n      tag_238\n      swap1\n      sub(shl(0x70, 0x01), 0x01)\n        /* \"bitlime-core/contracts/BitlimeV2Pair.sol\":7543:7551  reserve0 */\n      dup1\n      dup3\n      and\n      swap2\n      shl(0x70, 0x01)\n        /* \"bitlime-core/contracts/BitlimeV2Pair.sol\":7557:7565  reserve1 */\n      swap1\n      div\n      and\n        /* \"bitlime-core/contracts/BitlimeV2Pair.sol\":7538:7556  uint(reserve0).mul */\n      tag_153\n        /* \"bitlime-core/contracts/BitlimeV2Pair.sol\":7538:7566  uint(reserve0).mul(reserve1) */\n      jump\t// in\n    tag_238:\n        /* \"bitlime-core/contracts/BitlimeV2Pair.sol\":7530:7535  kLast */\n      0x0c\n        /* \"bitlime-core/contracts/BitlimeV2Pair.sol\":7530:7566  kLast = uint(reserve0).mul(reserve1) */\n      sstore\n        /* \"bitlime-core/contracts/BitlimeV2Pair.sol\":7519:7566  if (feeOn) kLast = uint(reserve0).mul(reserve1) */\n    tag_237:\n        /* \"bitlime-core/contracts/BitlimeV2Pair.sol\":7622:7660  Burn(msg.sender, amount0, amount1, to) */\n      0x40\n      dup1\n      mload\n      dup13\n      dup2\n      mstore\n      0x20\n      dup2\n      add\n      dup13\n      swap1\n      mstore\n      dup2\n      mload\n      sub(shl(0xa0, 0x01), 0x01)\n      dup16\n      and\n      swap3\n        /* \"bitlime-core/contracts/BitlimeV2Pair.sol\":7627:7637  msg.sender */\n      caller\n      swap3\n        /* \"bitlime-core/contracts/BitlimeV2Pair.sol\":7622:7660  Burn(msg.sender, amount0, amount1, to) */\n      0xdccd412f0b1252819cb1fd330b93224ca42612892bb3f4f789976e6d81936496\n      swap3\n      swap1\n      dup2\n      swap1\n      sub\n      swap1\n      swap2\n      add\n      swap1\n      log3\n        /* \"bitlime-core/contracts/BitlimeV2Pair.sol\":1312:1313  _ */\n      pop\n      pop\n      pop\n      pop\n      pop\n      pop\n      pop\n      pop\n      pop\n        /* \"bitlime-core/contracts/BitlimeV2Pair.sol\":1335:1336  1 */\n      0x01\n        /* \"bitlime-core/contracts/BitlimeV2Pair.sol\":1324:1332  unlocked */\n      0x0d\n        /* \"bitlime-core/contracts/BitlimeV2Pair.sol\":1324:1336  unlocked = 1 */\n      dup2\n      swap1\n      sstore\n      pop\n        /* \"bitlime-core/contracts/BitlimeV2Pair.sol\":6202:7668  function burn(address to) external lock returns (uint amount0, uint amount1) {\r... */\n      swap2\n      pop\n      swap2\n      jump\t// out\n        /* \"bitlime-core/contracts/BitlimeV2ERC20.sol\":241:282  string public constant symbol = 'LIME-V2' */\n    tag_91:\n      0x40\n      dup1\n      mload\n      dup1\n      dup3\n      add\n      swap1\n      swap2\n      mstore\n      0x07\n      dup2\n      mstore\n      shl(0xc9, 0x2624a6a296ab19)\n      0x20\n      dup3\n      add\n      mstore\n      dup2\n      jump\t// out\n        /* \"bitlime-core/contracts/BitlimeV2ERC20.sol\":2395:2534  function transfer(address to, uint value) external returns (bool) {\r... */\n    tag_98:\n        /* \"bitlime-core/contracts/BitlimeV2ERC20.sol\":2455:2459  bool */\n      0x00\n        /* \"bitlime-core/contracts/BitlimeV2ERC20.sol\":2472:2504  _transfer(msg.sender, to, value) */\n      tag_167\n        /* \"bitlime-core/contracts/BitlimeV2ERC20.sol\":2482:2492  msg.sender */\n      caller\n        /* \"bitlime-core/contracts/BitlimeV2ERC20.sol\":2494:2496  to */\n      dup5\n        /* \"bitlime-core/contracts/BitlimeV2ERC20.sol\":2498:2503  value */\n      dup5\n        /* \"bitlime-core/contracts/BitlimeV2ERC20.sol\":2472:2481  _transfer */\n      tag_173\n        /* \"bitlime-core/contracts/BitlimeV2ERC20.sol\":2472:2504  _transfer(msg.sender, to, value) */\n      jump\t// in\n        /* \"bitlime-core/contracts/BitlimeV2Pair.sol\":462:508  uint public constant MINIMUM_LIQUIDITY = 10**3 */\n    tag_100:\n        /* \"bitlime-core/contracts/BitlimeV2Pair.sol\":503:508  10**3 */\n      0x03e8\n        /* \"bitlime-core/contracts/BitlimeV2Pair.sol\":462:508  uint public constant MINIMUM_LIQUIDITY = 10**3 */\n      dup2\n      jump\t// out\n        /* \"bitlime-core/contracts/BitlimeV2Pair.sol\":9722:10056  function skim(address to) external lock {\r... */\n    tag_103:\n        /* \"bitlime-core/contracts/BitlimeV2Pair.sol\":1243:1251  unlocked */\n      sload(0x0d)\n        /* \"bitlime-core/contracts/BitlimeV2Pair.sol\":1255:1256  1 */\n      0x01\n        /* \"bitlime-core/contracts/BitlimeV2Pair.sol\":1243:1256  unlocked == 1 */\n      eq\n        /* \"bitlime-core/contracts/BitlimeV2Pair.sol\":1235:1278  require(unlocked == 1, 'BitlimeV2: LOCKED') */\n      tag_242\n      jumpi\n      0x40\n      dup1\n      mload\n      shl(0xe5, 0x461bcd)\n      dup2\n      mstore\n      0x20\n      0x04\n      dup3\n      add\n      mstore\n      0x11\n      0x24\n      dup3\n      add\n      mstore\n      shl(0x7a, 0x109a5d1b1a5b59558c8e881313d0d2d151)\n      0x44\n      dup3\n      add\n      mstore\n      swap1\n      mload\n      swap1\n      dup2\n      swap1\n      sub\n      0x64\n      add\n      swap1\n      revert\n    tag_242:\n        /* \"bitlime-core/contracts/BitlimeV2Pair.sol\":1300:1301  0 */\n      0x00\n        /* \"bitlime-core/contracts/BitlimeV2Pair.sol\":1289:1297  unlocked */\n      0x0d\n        /* \"bitlime-core/contracts/BitlimeV2Pair.sol\":1289:1301  unlocked = 0 */\n      sstore\n        /* \"bitlime-core/contracts/BitlimeV2Pair.sol\":9791:9797  token0 */\n      sload(0x07)\n        /* \"bitlime-core/contracts/BitlimeV2Pair.sol\":9841:9847  token1 */\n      sload(0x08)\n        /* \"bitlime-core/contracts/BitlimeV2Pair.sol\":9945:9953  reserve0 */\n      sload(0x09)\n        /* \"bitlime-core/contracts/BitlimeV2Pair.sol\":9900:9940  IERC20(_token0).balanceOf(address(this)) */\n      0x40\n      dup1\n      mload\n      shl(0xe0, 0x70a08231)\n      dup2\n      mstore\n        /* \"bitlime-core/contracts/BitlimeV2Pair.sol\":9934:9938  this */\n      address\n        /* \"bitlime-core/contracts/BitlimeV2Pair.sol\":9900:9940  IERC20(_token0).balanceOf(address(this)) */\n      0x04\n      dup3\n      add\n      mstore\n      swap1\n      mload\n      sub(shl(0xa0, 0x01), 0x01)\n        /* \"bitlime-core/contracts/BitlimeV2Pair.sol\":9791:9797  token0 */\n      swap5\n      dup6\n      and\n      swap5\n        /* \"bitlime-core/contracts/BitlimeV2Pair.sol\":9841:9847  token1 */\n      swap1\n      swap4\n      and\n      swap3\n        /* \"bitlime-core/contracts/BitlimeV2Pair.sol\":9873:9955  _safeTransfer(_token0, to, IERC20(_token0).balanceOf(address(this)).sub(reserve0)) */\n      tag_244\n      swap3\n        /* \"bitlime-core/contracts/BitlimeV2Pair.sol\":9791:9797  token0 */\n      dup6\n      swap3\n        /* \"bitlime-core/contracts/BitlimeV2Pair.sol\":9896:9898  to */\n      dup8\n      swap3\n        /* \"bitlime-core/contracts/BitlimeV2Pair.sol\":9900:9954  IERC20(_token0).balanceOf(address(this)).sub(reserve0) */\n      tag_245\n      swap3\n      sub(shl(0x70, 0x01), 0x01)\n        /* \"bitlime-core/contracts/BitlimeV2Pair.sol\":9945:9953  reserve0 */\n      and\n      swap2\n        /* \"bitlime-core/contracts/BitlimeV2Pair.sol\":9791:9797  token0 */\n      dup6\n      swap2\n      0x70a08231\n      swap2\n        /* \"bitlime-core/contracts/BitlimeV2Pair.sol\":9900:9940  IERC20(_token0).balanceOf(address(this)) */\n      0x24\n      dup1\n      dup3\n      add\n      swap3\n      0x20\n      swap3\n      swap1\n      swap2\n      swap1\n      dup3\n      swap1\n      sub\n      add\n      dup2\n        /* \"bitlime-core/contracts/BitlimeV2Pair.sol\":9791:9797  token0 */\n      dup7\n        /* \"bitlime-core/contracts/BitlimeV2Pair.sol\":9900:9940  IERC20(_token0).balanceOf(address(this)) */\n      dup1\n      extcodesize\n      iszero\n        /* \"--CODEGEN--\":5:7   */\n      dup1\n      iszero\n      tag_246\n      jumpi\n        /* \"--CODEGEN--\":30:31   */\n      0x00\n        /* \"--CODEGEN--\":27:28   */\n      dup1\n        /* \"--CODEGEN--\":20:32   */\n      revert\n        /* \"--CODEGEN--\":5:7   */\n    tag_246:\n        /* \"bitlime-core/contracts/BitlimeV2Pair.sol\":9900:9940  IERC20(_token0).balanceOf(address(this)) */\n      pop\n      gas\n      staticcall\n      iszero\n        /* \"--CODEGEN--\":8:17   */\n      dup1\n        /* \"--CODEGEN--\":5:7   */\n      iszero\n      tag_247\n      jumpi\n        /* \"--CODEGEN--\":45:61   */\n      returndatasize\n        /* \"--CODEGEN--\":42:43   */\n      0x00\n        /* \"--CODEGEN--\":39:40   */\n      dup1\n        /* \"--CODEGEN--\":24:62   */\n      returndatacopy\n        /* \"--CODEGEN--\":77:93   */\n      returndatasize\n        /* \"--CODEGEN--\":74:75   */\n      0x00\n        /* \"--CODEGEN--\":67:94   */\n      revert\n        /* \"--CODEGEN--\":5:7   */\n    tag_247:\n        /* \"bitlime-core/contracts/BitlimeV2Pair.sol\":9900:9940  IERC20(_token0).balanceOf(address(this)) */\n      pop\n      pop\n      pop\n      pop\n      mload(0x40)\n      returndatasize\n        /* \"--CODEGEN--\":13:15   */\n      0x20\n        /* \"--CODEGEN--\":8:11   */\n      dup2\n        /* \"--CODEGEN--\":5:16   */\n      lt\n        /* \"--CODEGEN--\":2:4   */\n      iszero\n      tag_248\n      jumpi\n        /* \"--CODEGEN--\":29:30   */\n      0x00\n        /* \"--CODEGEN--\":26:27   */\n      dup1\n        /* \"--CODEGEN--\":19:31   */\n      revert\n        /* \"--CODEGEN--\":2:4   */\n    tag_248:\n      pop\n        /* \"bitlime-core/contracts/BitlimeV2Pair.sol\":9900:9940  IERC20(_token0).balanceOf(address(this)) */\n      mload\n      swap1\n        /* \"bitlime-core/contracts/BitlimeV2Pair.sol\":9900:9954  IERC20(_token0).balanceOf(address(this)).sub(reserve0) */\n      0xffffffff\n        /* \"bitlime-core/contracts/BitlimeV2Pair.sol\":9900:9944  IERC20(_token0).balanceOf(address(this)).sub */\n      tag_155\n        /* \"bitlime-core/contracts/BitlimeV2Pair.sol\":9900:9954  IERC20(_token0).balanceOf(address(this)).sub(reserve0) */\n      and\n      jump\t// in\n    tag_245:\n        /* \"bitlime-core/contracts/BitlimeV2Pair.sol\":9873:9886  _safeTransfer */\n      tag_133\n        /* \"bitlime-core/contracts/BitlimeV2Pair.sol\":9873:9955  _safeTransfer(_token0, to, IERC20(_token0).balanceOf(address(this)).sub(reserve0)) */\n      jump\t// in\n    tag_244:\n        /* \"bitlime-core/contracts/BitlimeV2Pair.sol\":10038:10046  reserve1 */\n      sload(0x09)\n        /* \"bitlime-core/contracts/BitlimeV2Pair.sol\":9993:10033  IERC20(_token1).balanceOf(address(this)) */\n      0x40\n      dup1\n      mload\n      shl(0xe0, 0x70a08231)\n      dup2\n      mstore\n        /* \"bitlime-core/contracts/BitlimeV2Pair.sol\":10027:10031  this */\n      address\n        /* \"bitlime-core/contracts/BitlimeV2Pair.sol\":9993:10033  IERC20(_token1).balanceOf(address(this)) */\n      0x04\n      dup3\n      add\n      mstore\n      swap1\n      mload\n        /* \"bitlime-core/contracts/BitlimeV2Pair.sol\":9966:10048  _safeTransfer(_token1, to, IERC20(_token1).balanceOf(address(this)).sub(reserve1)) */\n      tag_249\n      swap3\n        /* \"bitlime-core/contracts/BitlimeV2Pair.sol\":9980:9987  _token1 */\n      dup5\n      swap3\n        /* \"bitlime-core/contracts/BitlimeV2Pair.sol\":9989:9991  to */\n      dup8\n      swap3\n        /* \"bitlime-core/contracts/BitlimeV2Pair.sol\":9993:10047  IERC20(_token1).balanceOf(address(this)).sub(reserve1) */\n      tag_245\n      swap3\n      shl(0x70, 0x01)\n        /* \"bitlime-core/contracts/BitlimeV2Pair.sol\":10038:10046  reserve1 */\n      swap1\n      div\n      sub(shl(0x70, 0x01), 0x01)\n      and\n      swap2\n      sub(shl(0xa0, 0x01), 0x01)\n        /* \"bitlime-core/contracts/BitlimeV2Pair.sol\":9993:10018  IERC20(_token1).balanceOf */\n      dup7\n      and\n      swap2\n      0x70a08231\n      swap2\n        /* \"bitlime-core/contracts/BitlimeV2Pair.sol\":9993:10033  IERC20(_token1).balanceOf(address(this)) */\n      0x24\n      dup1\n      dup3\n      add\n      swap3\n      0x20\n      swap3\n      swap1\n      swap2\n      swap1\n      dup3\n      swap1\n      sub\n      add\n      dup2\n        /* \"bitlime-core/contracts/BitlimeV2Pair.sol\":9993:10018  IERC20(_token1).balanceOf */\n      dup7\n        /* \"bitlime-core/contracts/BitlimeV2Pair.sol\":9993:10033  IERC20(_token1).balanceOf(address(this)) */\n      dup1\n      extcodesize\n      iszero\n        /* \"--CODEGEN--\":5:7   */\n      dup1\n      iszero\n      tag_246\n      jumpi\n        /* \"--CODEGEN--\":30:31   */\n      0x00\n        /* \"--CODEGEN--\":27:28   */\n      dup1\n        /* \"--CODEGEN--\":20:32   */\n      revert\n        /* \"bitlime-core/contracts/BitlimeV2Pair.sol\":9966:10048  _safeTransfer(_token1, to, IERC20(_token1).balanceOf(address(this)).sub(reserve1)) */\n    tag_249:\n      pop\n      pop\n        /* \"bitlime-core/contracts/BitlimeV2Pair.sol\":1335:1336  1 */\n      0x01\n        /* \"bitlime-core/contracts/BitlimeV2Pair.sol\":1324:1332  unlocked */\n      0x0d\n        /* \"bitlime-core/contracts/BitlimeV2Pair.sol\":1324:1336  unlocked = 1 */\n      sstore\n      pop\n        /* \"bitlime-core/contracts/BitlimeV2Pair.sol\":9722:10056  function skim(address to) external lock {\r... */\n      jump\t// out\n        /* \"bitlime-core/contracts/BitlimeV2Pair.sol\":612:634  address public factory */\n    tag_105:\n      and(sub(shl(0xa0, 0x01), 0x01), sload(0x06))\n      dup2\n      jump\t// out\n        /* \"bitlime-core/contracts/BitlimeV2Pair.sol\":669:690  address public token1 */\n    tag_107:\n      and(sub(shl(0xa0, 0x01), 0x01), sload(0x08))\n      dup2\n      jump\t// out\n        /* \"bitlime-core/contracts/BitlimeV2ERC20.sol\":2851:3525  function permit(address owner, address spender, uint value, uint deadline, uint8 v, bytes32 r, bytes32 s) external {\r... */\n    tag_110:\n        /* \"bitlime-core/contracts/BitlimeV2ERC20.sol\":2997:3012  block.timestamp */\n      timestamp\n        /* \"bitlime-core/contracts/BitlimeV2ERC20.sol\":2985:2993  deadline */\n      dup5\n        /* \"bitlime-core/contracts/BitlimeV2ERC20.sol\":2985:3012  deadline >= block.timestamp */\n      lt\n      iszero\n        /* \"bitlime-core/contracts/BitlimeV2ERC20.sol\":2977:3035  require(deadline >= block.timestamp, 'BitlimeV2: EXPIRED') */\n      tag_255\n      jumpi\n      0x40\n      dup1\n      mload\n      shl(0xe5, 0x461bcd)\n      dup2\n      mstore\n      0x20\n      0x04\n      dup3\n      add\n      mstore\n      0x12\n      0x24\n      dup3\n      add\n      mstore\n      shl(0x72, 0x109a5d1b1a5b59558c8e8811561412549151)\n      0x44\n      dup3\n      add\n      mstore\n      swap1\n      mload\n      swap1\n      dup2\n      swap1\n      sub\n      0x64\n      add\n      swap1\n      revert\n    tag_255:\n        /* \"bitlime-core/contracts/BitlimeV2ERC20.sol\":3151:3167  DOMAIN_SEPARATOR */\n      sload(0x03)\n      sub(shl(0xa0, 0x01), 0x01)\n        /* \"bitlime-core/contracts/BitlimeV2ERC20.sol\":3247:3260  nonces[owner] */\n      dup9\n      dup2\n      and\n        /* \"bitlime-core/contracts/BitlimeV2ERC20.sol\":3046:3060  bytes32 digest */\n      0x00\n        /* \"bitlime-core/contracts/BitlimeV2ERC20.sol\":3247:3260  nonces[owner] */\n      dup2\n      dup2\n      mstore\n        /* \"bitlime-core/contracts/BitlimeV2ERC20.sol\":3247:3253  nonces */\n      0x04\n        /* \"bitlime-core/contracts/BitlimeV2ERC20.sol\":3247:3260  nonces[owner] */\n      0x20\n      swap1\n      dup2\n      mstore\n      0x40\n      dup1\n      dup4\n      keccak256\n        /* \"bitlime-core/contracts/BitlimeV2ERC20.sol\":3247:3262  nonces[owner]++ */\n      dup1\n      sload\n      0x01\n      dup2\n      dup2\n      add\n      swap1\n      swap3\n      sstore\n        /* \"bitlime-core/contracts/BitlimeV2ERC20.sol\":3196:3273  abi.encode(PERMIT_TYPEHASH, owner, spender, value, nonces[owner]++, deadline) */\n      dup3\n      mload\n        /* \"bitlime-core/contracts/BitlimeV2ERC20.sol\":665:731  0x6e71edae12b1b97f4d1f60370fef10105fa2faae0126114a169c64845d6126c9 */\n      0x6e71edae12b1b97f4d1f60370fef10105fa2faae0126114a169c64845d6126c9\n        /* \"bitlime-core/contracts/BitlimeV2ERC20.sol\":3196:3273  abi.encode(PERMIT_TYPEHASH, owner, spender, value, nonces[owner]++, deadline) */\n      dup2\n      dup7\n      add\n      mstore\n      dup1\n      dup5\n      add\n      swap7\n      swap1\n      swap7\n      mstore\n      swap6\n      dup14\n      and\n      0x60\n      dup7\n      add\n      mstore\n      0x80\n      dup6\n      add\n      dup13\n      swap1\n      mstore\n      0xa0\n      dup6\n      add\n      swap6\n      swap1\n      swap6\n      mstore\n      0xc0\n      dup1\n      dup6\n      add\n      dup12\n      swap1\n      mstore\n      dup2\n      mload\n        /* \"--CODEGEN--\":26:47   */\n      dup1\n      dup7\n      sub\n        /* \"--CODEGEN--\":22:54   */\n      swap1\n      swap2\n      add\n        /* \"--CODEGEN--\":6:55   */\n      dup2\n      mstore\n        /* \"bitlime-core/contracts/BitlimeV2ERC20.sol\":3196:3273  abi.encode(PERMIT_TYPEHASH, owner, spender, value, nonces[owner]++, deadline) */\n      0xe0\n      dup6\n      add\n      dup3\n      mstore\n        /* \"bitlime-core/contracts/BitlimeV2ERC20.sol\":3186:3274  keccak256(abi.encode(PERMIT_TYPEHASH, owner, spender, value, nonces[owner]++, deadline)) */\n      dup1\n      mload\n      swap1\n      dup4\n      add\n      keccak256\n      shl(0xf0, 0x1901)\n        /* \"bitlime-core/contracts/BitlimeV2ERC20.sol\":3087:3289  abi.encodePacked(\r... */\n      0x0100\n      dup7\n      add\n      mstore\n      0x0102\n      dup6\n      add\n      swap7\n      swap1\n      swap7\n      mstore\n      0x0122\n      dup1\n      dup6\n      add\n      swap7\n      swap1\n      swap7\n      mstore\n      dup1\n      mload\n        /* \"--CODEGEN--\":26:47   */\n      dup1\n      dup6\n      sub\n        /* \"--CODEGEN--\":22:54   */\n      swap1\n      swap7\n      add\n        /* \"--CODEGEN--\":6:55   */\n      dup7\n      mstore\n        /* \"bitlime-core/contracts/BitlimeV2ERC20.sol\":3087:3289  abi.encodePacked(\r... */\n      0x0142\n      dup5\n      add\n      dup1\n      dup3\n      mstore\n        /* \"bitlime-core/contracts/BitlimeV2ERC20.sol\":3063:3300  keccak256(\r... */\n      dup7\n      mload\n      swap7\n      dup4\n      add\n      swap7\n      swap1\n      swap7\n      keccak256\n        /* \"bitlime-core/contracts/BitlimeV2ERC20.sol\":3338:3364  ecrecover(digest, v, r, s) */\n      swap6\n      dup4\n      swap1\n      mstore\n      0x0162\n      dup5\n      add\n      dup1\n      dup3\n      mstore\n      dup7\n      swap1\n      mstore\n      0xff\n      dup10\n      and\n      0x0182\n      dup6\n      add\n      mstore\n      0x01a2\n      dup5\n      add\n      dup9\n      swap1\n      mstore\n      0x01c2\n      dup5\n      add\n      dup8\n      swap1\n      mstore\n      mload\n        /* \"bitlime-core/contracts/BitlimeV2ERC20.sol\":3046:3060  bytes32 digest */\n      swap2\n      swap4\n      swap3\n        /* \"bitlime-core/contracts/BitlimeV2ERC20.sol\":3338:3364  ecrecover(digest, v, r, s) */\n      0x01e2\n      dup1\n      dup3\n      add\n      swap4\n      not(0x1f)\n      dup2\n      add\n      swap3\n      dup2\n      swap1\n      sub\n      swap1\n      swap2\n      add\n      swap1\n      dup6\n      gas\n      staticcall\n      iszero\n        /* \"--CODEGEN--\":8:17   */\n      dup1\n        /* \"--CODEGEN--\":5:7   */\n      iszero\n      tag_256\n      jumpi\n        /* \"--CODEGEN--\":45:61   */\n      returndatasize\n        /* \"--CODEGEN--\":42:43   */\n      0x00\n        /* \"--CODEGEN--\":39:40   */\n      dup1\n        /* \"--CODEGEN--\":24:62   */\n      returndatacopy\n        /* \"--CODEGEN--\":77:93   */\n      returndatasize\n        /* \"--CODEGEN--\":74:75   */\n      0x00\n        /* \"--CODEGEN--\":67:94   */\n      revert\n        /* \"--CODEGEN--\":5:7   */\n    tag_256:\n      pop\n      pop\n        /* \"bitlime-core/contracts/BitlimeV2ERC20.sol\":3338:3364  ecrecover(digest, v, r, s) */\n      mload(add(not(0x1f), mload(0x40)))\n      swap2\n      pop\n      pop\n      sub(shl(0xa0, 0x01), 0x01)\n        /* \"bitlime-core/contracts/BitlimeV2ERC20.sol\":3383:3413  recoveredAddress != address(0) */\n      dup2\n      and\n      iszero\n      dup1\n      iszero\n      swap1\n        /* \"bitlime-core/contracts/BitlimeV2ERC20.sol\":3383:3442  recoveredAddress != address(0) && recoveredAddress == owner */\n      tag_257\n      jumpi\n      pop\n      sub(shl(0xa0, 0x01), 0x01)\n        /* \"bitlime-core/contracts/BitlimeV2ERC20.sol\":3417:3442  recoveredAddress == owner */\n      dup2\n      dup2\n      and\n      swap1\n      dup11\n      and\n      eq\n        /* \"bitlime-core/contracts/BitlimeV2ERC20.sol\":3383:3442  recoveredAddress != address(0) && recoveredAddress == owner */\n    tag_257:\n        /* \"bitlime-core/contracts/BitlimeV2ERC20.sol\":3375:3475  require(recoveredAddress != address(0) && recoveredAddress == owner, 'BitlimeV2: INVALID_SIGNATURE') */\n      tag_258\n      jumpi\n      0x40\n      dup1\n      mload\n      shl(0xe5, 0x461bcd)\n      dup2\n      mstore\n      0x20\n      0x04\n      dup3\n      add\n      mstore\n      0x1c\n      0x24\n      dup3\n      add\n      mstore\n      0x4269746c696d6556323a20494e56414c49445f5349474e415455524500000000\n      0x44\n      dup3\n      add\n      mstore\n      swap1\n      mload\n      swap1\n      dup2\n      swap1\n      sub\n      0x64\n      add\n      swap1\n      revert\n    tag_258:\n        /* \"bitlime-core/contracts/BitlimeV2ERC20.sol\":3486:3517  _approve(owner, spender, value) */\n      tag_259\n        /* \"bitlime-core/contracts/BitlimeV2ERC20.sol\":3495:3500  owner */\n      dup10\n        /* \"bitlime-core/contracts/BitlimeV2ERC20.sol\":3502:3509  spender */\n      dup10\n        /* \"bitlime-core/contracts/BitlimeV2ERC20.sol\":3511:3516  value */\n      dup10\n        /* \"bitlime-core/contracts/BitlimeV2ERC20.sol\":3486:3494  _approve */\n      tag_168\n        /* \"bitlime-core/contracts/BitlimeV2ERC20.sol\":3486:3517  _approve(owner, spender, value) */\n      jump\t// in\n    tag_259:\n        /* \"bitlime-core/contracts/BitlimeV2ERC20.sol\":2851:3525  function permit(address owner, address spender, uint value, uint deadline, uint8 v, bytes32 r, bytes32 s) external {\r... */\n      pop\n      pop\n      pop\n      pop\n      pop\n      pop\n      pop\n      pop\n      pop\n      jump\t// out\n        /* \"bitlime-core/contracts/BitlimeV2ERC20.sol\":410:471  mapping(address => mapping(address => uint)) public allowance */\n    tag_113:\n      0x02\n      0x20\n      swap1\n      dup2\n      mstore\n      0x00\n      swap3\n      dup4\n      mstore\n      0x40\n      dup1\n      dup5\n      keccak256\n      swap1\n      swap2\n      mstore\n      swap1\n      dup3\n      mstore\n      swap1\n      keccak256\n      sload\n      dup2\n      jump\t// out\n        /* \"bitlime-core/contracts/BitlimeV2Pair.sol\":2681:2866  function changeCommission(uint newCommission) external {\r... */\n    tag_116:\n        /* \"bitlime-core/contracts/BitlimeV2Pair.sol\":2769:2776  factory */\n      and(sub(shl(0xa0, 0x01), 0x01), sload(0x06))\n        /* \"bitlime-core/contracts/BitlimeV2Pair.sol\":2755:2765  msg.sender */\n      caller\n        /* \"bitlime-core/contracts/BitlimeV2Pair.sol\":2755:2776  msg.sender == factory */\n      eq\n        /* \"bitlime-core/contracts/BitlimeV2Pair.sol\":2747:2801  require(msg.sender == factory, 'BitlimeV2: FORBIDDEN') */\n      tag_261\n      jumpi\n      0x40\n      dup1\n      mload\n      shl(0xe5, 0x461bcd)\n      dup2\n      mstore\n      0x20\n      0x04\n      dup3\n      add\n      mstore\n      0x14\n      0x24\n      dup3\n      add\n      mstore\n      shl(0x61, 0x2134ba3634b6b2ab191d102327a92124a22222a7)\n      0x44\n      dup3\n      add\n      mstore\n      swap1\n      mload\n      swap1\n      dup2\n      swap1\n      sub\n      0x64\n      add\n      swap1\n      revert\n    tag_261:\n        /* \"bitlime-core/contracts/BitlimeV2Pair.sol\":2832:2842  commission */\n      0x05\n        /* \"bitlime-core/contracts/BitlimeV2Pair.sol\":2832:2858  commission = newCommission */\n      sstore\n        /* \"bitlime-core/contracts/BitlimeV2Pair.sol\":2681:2866  function changeCommission(uint newCommission) external {\r... */\n      jump\t// out\n        /* \"bitlime-core/contracts/BitlimeV2Pair.sol\":431:453  uint public commission */\n    tag_118:\n      sload(0x05)\n      dup2\n      jump\t// out\n        /* \"bitlime-core/contracts/BitlimeV2Pair.sol\":10105:10263  function sync() external lock {\r... */\n    tag_120:\n        /* \"bitlime-core/contracts/BitlimeV2Pair.sol\":1243:1251  unlocked */\n      sload(0x0d)\n        /* \"bitlime-core/contracts/BitlimeV2Pair.sol\":1255:1256  1 */\n      0x01\n        /* \"bitlime-core/contracts/BitlimeV2Pair.sol\":1243:1256  unlocked == 1 */\n      eq\n        /* \"bitlime-core/contracts/BitlimeV2Pair.sol\":1235:1278  require(unlocked == 1, 'BitlimeV2: LOCKED') */\n      tag_263\n      jumpi\n      0x40\n      dup1\n      mload\n      shl(0xe5, 0x461bcd)\n      dup2\n      mstore\n      0x20\n      0x04\n      dup3\n      add\n      mstore\n      0x11\n      0x24\n      dup3\n      add\n      mstore\n      shl(0x7a, 0x109a5d1b1a5b59558c8e881313d0d2d151)\n      0x44\n      dup3\n      add\n      mstore\n      swap1\n      mload\n      swap1\n      dup2\n      swap1\n      sub\n      0x64\n      add\n      swap1\n      revert\n    tag_263:\n        /* \"bitlime-core/contracts/BitlimeV2Pair.sol\":1300:1301  0 */\n      0x00\n        /* \"bitlime-core/contracts/BitlimeV2Pair.sol\":1289:1297  unlocked */\n      0x0d\n        /* \"bitlime-core/contracts/BitlimeV2Pair.sol\":1289:1301  unlocked = 0 */\n      sstore\n        /* \"bitlime-core/contracts/BitlimeV2Pair.sol\":10161:10167  token0 */\n      sload(0x07)\n        /* \"bitlime-core/contracts/BitlimeV2Pair.sol\":10154:10193  IERC20(token0).balanceOf(address(this)) */\n      0x40\n      dup1\n      mload\n      shl(0xe0, 0x70a08231)\n      dup2\n      mstore\n        /* \"bitlime-core/contracts/BitlimeV2Pair.sol\":10187:10191  this */\n      address\n        /* \"bitlime-core/contracts/BitlimeV2Pair.sol\":10154:10193  IERC20(token0).balanceOf(address(this)) */\n      0x04\n      dup3\n      add\n      mstore\n      swap1\n      mload\n        /* \"bitlime-core/contracts/BitlimeV2Pair.sol\":10146:10255  _update(IERC20(token0).balanceOf(address(this)), IERC20(token1).balanceOf(address(this)), reserve0, reserve1) */\n      tag_265\n      swap3\n      sub(shl(0xa0, 0x01), 0x01)\n        /* \"bitlime-core/contracts/BitlimeV2Pair.sol\":10161:10167  token0 */\n      and\n      swap2\n      0x70a08231\n      swap2\n        /* \"bitlime-core/contracts/BitlimeV2Pair.sol\":10154:10193  IERC20(token0).balanceOf(address(this)) */\n      0x24\n      dup1\n      dup4\n      add\n      swap3\n      0x20\n      swap3\n      swap2\n      swap1\n      dup3\n      swap1\n      sub\n      add\n      dup2\n        /* \"bitlime-core/contracts/BitlimeV2Pair.sol\":10161:10167  token0 */\n      dup7\n        /* \"bitlime-core/contracts/BitlimeV2Pair.sol\":10154:10193  IERC20(token0).balanceOf(address(this)) */\n      dup1\n      extcodesize\n      iszero\n        /* \"--CODEGEN--\":5:7   */\n      dup1\n      iszero\n      tag_266\n      jumpi\n        /* \"--CODEGEN--\":30:31   */\n      0x00\n        /* \"--CODEGEN--\":27:28   */\n      dup1\n        /* \"--CODEGEN--\":20:32   */\n      revert\n        /* \"--CODEGEN--\":5:7   */\n    tag_266:\n        /* \"bitlime-core/contracts/BitlimeV2Pair.sol\":10154:10193  IERC20(token0).balanceOf(address(this)) */\n      pop\n      gas\n      staticcall\n      iszero\n        /* \"--CODEGEN--\":8:17   */\n      dup1\n        /* \"--CODEGEN--\":5:7   */\n      iszero\n      tag_267\n      jumpi\n        /* \"--CODEGEN--\":45:61   */\n      returndatasize\n        /* \"--CODEGEN--\":42:43   */\n      0x00\n        /* \"--CODEGEN--\":39:40   */\n      dup1\n        /* \"--CODEGEN--\":24:62   */\n      returndatacopy\n        /* \"--CODEGEN--\":77:93   */\n      returndatasize\n        /* \"--CODEGEN--\":74:75   */\n      0x00\n        /* \"--CODEGEN--\":67:94   */\n      revert\n        /* \"--CODEGEN--\":5:7   */\n    tag_267:\n        /* \"bitlime-core/contracts/BitlimeV2Pair.sol\":10154:10193  IERC20(token0).balanceOf(address(this)) */\n      pop\n      pop\n      pop\n      pop\n      mload(0x40)\n      returndatasize\n        /* \"--CODEGEN--\":13:15   */\n      0x20\n        /* \"--CODEGEN--\":8:11   */\n      dup2\n        /* \"--CODEGEN--\":5:16   */\n      lt\n        /* \"--CODEGEN--\":2:4   */\n      iszero\n      tag_268\n      jumpi\n        /* \"--CODEGEN--\":29:30   */\n      0x00\n        /* \"--CODEGEN--\":26:27   */\n      dup1\n        /* \"--CODEGEN--\":19:31   */\n      revert\n        /* \"--CODEGEN--\":2:4   */\n    tag_268:\n      pop\n        /* \"bitlime-core/contracts/BitlimeV2Pair.sol\":10154:10193  IERC20(token0).balanceOf(address(this)) */\n      mload\n        /* \"bitlime-core/contracts/BitlimeV2Pair.sol\":10202:10208  token1 */\n      sload(0x08)\n        /* \"bitlime-core/contracts/BitlimeV2Pair.sol\":10195:10234  IERC20(token1).balanceOf(address(this)) */\n      0x40\n      dup1\n      mload\n      shl(0xe0, 0x70a08231)\n      dup2\n      mstore\n        /* \"bitlime-core/contracts/BitlimeV2Pair.sol\":10228:10232  this */\n      address\n        /* \"bitlime-core/contracts/BitlimeV2Pair.sol\":10195:10234  IERC20(token1).balanceOf(address(this)) */\n      0x04\n      dup3\n      add\n      mstore\n      swap1\n      mload\n      sub(shl(0xa0, 0x01), 0x01)\n        /* \"bitlime-core/contracts/BitlimeV2Pair.sol\":10202:10208  token1 */\n      swap1\n      swap3\n      and\n      swap2\n      0x70a08231\n      swap2\n        /* \"bitlime-core/contracts/BitlimeV2Pair.sol\":10195:10234  IERC20(token1).balanceOf(address(this)) */\n      0x24\n      dup1\n      dup3\n      add\n      swap3\n        /* \"bitlime-core/contracts/BitlimeV2Pair.sol\":10154:10193  IERC20(token0).balanceOf(address(this)) */\n      0x20\n      swap3\n        /* \"bitlime-core/contracts/BitlimeV2Pair.sol\":10195:10234  IERC20(token1).balanceOf(address(this)) */\n      swap1\n      swap2\n      swap1\n      dup3\n      swap1\n      sub\n      add\n      dup2\n        /* \"bitlime-core/contracts/BitlimeV2Pair.sol\":10202:10208  token1 */\n      dup7\n        /* \"bitlime-core/contracts/BitlimeV2Pair.sol\":10195:10234  IERC20(token1).balanceOf(address(this)) */\n      dup1\n      extcodesize\n      iszero\n        /* \"--CODEGEN--\":5:7   */\n      dup1\n      iszero\n      tag_269\n      jumpi\n        /* \"--CODEGEN--\":30:31   */\n      0x00\n        /* \"--CODEGEN--\":27:28   */\n      dup1\n        /* \"--CODEGEN--\":20:32   */\n      revert\n        /* \"--CODEGEN--\":5:7   */\n    tag_269:\n        /* \"bitlime-core/contracts/BitlimeV2Pair.sol\":10195:10234  IERC20(token1).balanceOf(address(this)) */\n      pop\n      gas\n      staticcall\n      iszero\n        /* \"--CODEGEN--\":8:17   */\n      dup1\n        /* \"--CODEGEN--\":5:7   */\n      iszero\n      tag_270\n      jumpi\n        /* \"--CODEGEN--\":45:61   */\n      returndatasize\n        /* \"--CODEGEN--\":42:43   */\n      0x00\n        /* \"--CODEGEN--\":39:40   */\n      dup1\n        /* \"--CODEGEN--\":24:62   */\n      returndatacopy\n        /* \"--CODEGEN--\":77:93   */\n      returndatasize\n        /* \"--CODEGEN--\":74:75   */\n      0x00\n        /* \"--CODEGEN--\":67:94   */\n      revert\n        /* \"--CODEGEN--\":5:7   */\n    tag_270:\n        /* \"bitlime-core/contracts/BitlimeV2Pair.sol\":10195:10234  IERC20(token1).balanceOf(address(this)) */\n      pop\n      pop\n      pop\n      pop\n      mload(0x40)\n      returndatasize\n        /* \"--CODEGEN--\":13:15   */\n      0x20\n        /* \"--CODEGEN--\":8:11   */\n      dup2\n        /* \"--CODEGEN--\":5:16   */\n      lt\n        /* \"--CODEGEN--\":2:4   */\n      iszero\n      tag_271\n      jumpi\n        /* \"--CODEGEN--\":29:30   */\n      0x00\n        /* \"--CODEGEN--\":26:27   */\n      dup1\n        /* \"--CODEGEN--\":19:31   */\n      revert\n        /* \"--CODEGEN--\":2:4   */\n    tag_271:\n      pop\n        /* \"bitlime-core/contracts/BitlimeV2Pair.sol\":10195:10234  IERC20(token1).balanceOf(address(this)) */\n      mload\n        /* \"bitlime-core/contracts/BitlimeV2Pair.sol\":10236:10244  reserve0 */\n      sload(0x09)\n      sub(shl(0x70, 0x01), 0x01)\n      dup1\n      dup3\n      and\n      swap2\n      shl(0x70, 0x01)\n        /* \"bitlime-core/contracts/BitlimeV2Pair.sol\":10246:10254  reserve1 */\n      swap1\n      div\n      and\n        /* \"bitlime-core/contracts/BitlimeV2Pair.sol\":10146:10153  _update */\n      tag_164\n        /* \"bitlime-core/contracts/BitlimeV2Pair.sol\":10146:10255  _update(IERC20(token0).balanceOf(address(this)), IERC20(token1).balanceOf(address(this)), reserve0, reserve1) */\n      jump\t// in\n    tag_265:\n        /* \"bitlime-core/contracts/BitlimeV2Pair.sol\":1335:1336  1 */\n      0x01\n        /* \"bitlime-core/contracts/BitlimeV2Pair.sol\":1324:1332  unlocked */\n      0x0d\n        /* \"bitlime-core/contracts/BitlimeV2Pair.sol\":1324:1336  unlocked = 1 */\n      sstore\n        /* \"bitlime-core/contracts/BitlimeV2Pair.sol\":10105:10263  function sync() external lock {\r... */\n      jump\t// out\n        /* \"bitlime-core/contracts/BitlimeV2Pair.sol\":1591:1878  function _safeTransfer(address token, address to, uint value) private {\r... */\n    tag_133:\n        /* \"bitlime-core/contracts/BitlimeV2Pair.sol\":567:601  bytes('transfer(address,uint256)') */\n      0x40\n      dup1\n      mload\n      dup1\n      dup3\n      add\n      dup3\n      mstore\n      0x19\n      dup2\n      mstore\n      0x7472616e7366657228616464726573732c75696e743235362900000000000000\n      0x20\n      swap2\n      dup3\n      add\n      mstore\n        /* \"bitlime-core/contracts/BitlimeV2Pair.sol\":1719:1762  abi.encodeWithSelector(SELECTOR, to, value) */\n      dup2\n      mload\n      sub(shl(0xa0, 0x01), 0x01)\n      dup6\n      dup2\n      and\n      0x24\n      dup4\n      add\n      mstore\n      0x44\n      dup1\n      dup4\n      add\n      dup7\n      swap1\n      mstore\n      dup5\n      mload\n        /* \"--CODEGEN--\":26:47   */\n      dup1\n      dup5\n      sub\n        /* \"--CODEGEN--\":22:54   */\n      swap1\n      swap2\n      add\n        /* \"--CODEGEN--\":6:55   */\n      dup2\n      mstore\n        /* \"bitlime-core/contracts/BitlimeV2Pair.sol\":1719:1762  abi.encodeWithSelector(SELECTOR, to, value) */\n      0x64\n      swap1\n      swap3\n      add\n      dup5\n      mstore\n        /* \"--CODEGEN--\":25:43   */\n      swap2\n      dup2\n      add\n        /* \"--CODEGEN--\":61:78   */\n      dup1\n      mload\n      sub(shl(0xe0, 0x01), 0x01)\n        /* \"--CODEGEN--\":182:197   */\n      and\n      shl(0xe0, 0xa9059cbb)\n        /* \"--CODEGEN--\":179:208   */\n      or\n        /* \"--CODEGEN--\":160:209   */\n      dup2\n      mstore\n        /* \"bitlime-core/contracts/BitlimeV2Pair.sol\":1708:1763  token.call(abi.encodeWithSelector(SELECTOR, to, value)) */\n      swap3\n      mload\n      dup2\n      mload\n      0x00\n      swap5\n        /* \"bitlime-core/contracts/BitlimeV2Pair.sol\":1687:1704  bytes memory data */\n      0x60\n      swap5\n        /* \"bitlime-core/contracts/BitlimeV2Pair.sol\":1708:1718  token.call */\n      dup10\n      and\n      swap4\n        /* \"bitlime-core/contracts/BitlimeV2Pair.sol\":1719:1762  abi.encodeWithSelector(SELECTOR, to, value) */\n      swap3\n        /* \"bitlime-core/contracts/BitlimeV2Pair.sol\":1708:1763  token.call(abi.encodeWithSelector(SELECTOR, to, value)) */\n      swap2\n      dup3\n      swap2\n        /* \"--CODEGEN--\":25:43   */\n      swap1\n        /* \"bitlime-core/contracts/BitlimeV2Pair.sol\":1708:1763  token.call(abi.encodeWithSelector(SELECTOR, to, value)) */\n      dup1\n      dup4\n        /* \"--CODEGEN--\":25:43   */\n      dup4\n        /* \"--CODEGEN--\":36:189   */\n    tag_273:\n        /* \"--CODEGEN--\":66:68   */\n      0x20\n        /* \"--CODEGEN--\":61:64   */\n      dup4\n        /* \"--CODEGEN--\":58:69   */\n      lt\n        /* \"--CODEGEN--\":36:189   */\n      tag_275\n      jumpi\n        /* \"--CODEGEN--\":176:186   */\n      dup1\n      mload\n        /* \"--CODEGEN--\":164:187   */\n      dup3\n      mstore\n      not(0x1f)\n        /* \"--CODEGEN--\":139:151   */\n      swap1\n      swap3\n      add\n      swap2\n        /* \"--CODEGEN--\":98:100   */\n      0x20\n        /* \"--CODEGEN--\":89:101   */\n      swap2\n      dup3\n      add\n      swap2\n        /* \"--CODEGEN--\":114:126   */\n      add\n        /* \"--CODEGEN--\":36:189   */\n      jump(tag_273)\n    tag_275:\n        /* \"--CODEGEN--\":274:275   */\n      0x01\n        /* \"--CODEGEN--\":267:270   */\n      dup4\n        /* \"--CODEGEN--\":263:265   */\n      0x20\n        /* \"--CODEGEN--\":259:271   */\n      sub\n        /* \"--CODEGEN--\":254:257   */\n      0x0100\n        /* \"--CODEGEN--\":250:272   */\n      exp\n        /* \"--CODEGEN--\":246:276   */\n      sub\n        /* \"--CODEGEN--\":315:319   */\n      dup1\n        /* \"--CODEGEN--\":311:320   */\n      not\n        /* \"--CODEGEN--\":305:308   */\n      dup3\n        /* \"--CODEGEN--\":299:309   */\n      mload\n        /* \"--CODEGEN--\":295:321   */\n      and\n        /* \"--CODEGEN--\":356:360   */\n      dup2\n        /* \"--CODEGEN--\":350:353   */\n      dup5\n        /* \"--CODEGEN--\":344:354   */\n      mload\n        /* \"--CODEGEN--\":340:361   */\n      and\n        /* \"--CODEGEN--\":389:396   */\n      dup1\n        /* \"--CODEGEN--\":380:387   */\n      dup3\n        /* \"--CODEGEN--\":377:397   */\n      or\n        /* \"--CODEGEN--\":372:375   */\n      dup6\n        /* \"--CODEGEN--\":365:398   */\n      mstore\n        /* \"--CODEGEN--\":3:402   */\n      pop\n      pop\n      pop\n        /* \"bitlime-core/contracts/BitlimeV2Pair.sol\":1708:1763  token.call(abi.encodeWithSelector(SELECTOR, to, value)) */\n      pop\n      pop\n      pop\n      swap1\n      pop\n      add\n      swap2\n      pop\n      pop\n      0x00\n      mload(0x40)\n      dup1\n      dup4\n      sub\n      dup2\n      0x00\n      dup7\n      gas\n      call\n      swap2\n      pop\n      pop\n      returndatasize\n        /* \"--CODEGEN--\":14:15   */\n      dup1\n        /* \"--CODEGEN--\":21:22   */\n      0x00\n        /* \"--CODEGEN--\":16:47   */\n      dup2\n      eq\n      tag_277\n      jumpi\n        /* \"--CODEGEN--\":75:79   */\n      0x40\n        /* \"--CODEGEN--\":69:80   */\n      mload\n        /* \"--CODEGEN--\":64:80   */\n      swap2\n      pop\n        /* \"--CODEGEN--\":144:148   */\n      0x1f\n        /* \"--CODEGEN--\":140:149   */\n      not\n        /* \"--CODEGEN--\":133:137   */\n      0x3f\n        /* \"--CODEGEN--\":115:131   */\n      returndatasize\n        /* \"--CODEGEN--\":111:138   */\n      add\n        /* \"--CODEGEN--\":107:150   */\n      and\n        /* \"--CODEGEN--\":104:105   */\n      dup3\n        /* \"--CODEGEN--\":100:151   */\n      add\n        /* \"--CODEGEN--\":94:98   */\n      0x40\n        /* \"--CODEGEN--\":87:152   */\n      mstore\n        /* \"--CODEGEN--\":169:185   */\n      returndatasize\n        /* \"--CODEGEN--\":166:167   */\n      dup3\n        /* \"--CODEGEN--\":159:186   */\n      mstore\n        /* \"--CODEGEN--\":225:241   */\n      returndatasize\n        /* \"--CODEGEN--\":222:223   */\n      0x00\n        /* \"--CODEGEN--\":215:219   */\n      0x20\n        /* \"--CODEGEN--\":212:213   */\n      dup5\n        /* \"--CODEGEN--\":208:220   */\n      add\n        /* \"--CODEGEN--\":193:242   */\n      returndatacopy\n        /* \"--CODEGEN--\":7:249   */\n      jump(tag_276)\n        /* \"--CODEGEN--\":16:47   */\n    tag_277:\n        /* \"--CODEGEN--\":36:40   */\n      0x60\n        /* \"--CODEGEN--\":31:40   */\n      swap2\n      pop\n        /* \"--CODEGEN--\":7:249   */\n    tag_276:\n      pop\n        /* \"bitlime-core/contracts/BitlimeV2Pair.sol\":1672:1763  (bool success, bytes memory data) = token.call(abi.encodeWithSelector(SELECTOR, to, value)) */\n      swap2\n      pop\n      swap2\n      pop\n        /* \"bitlime-core/contracts/BitlimeV2Pair.sol\":1782:1789  success */\n      dup2\n        /* \"bitlime-core/contracts/BitlimeV2Pair.sol\":1782:1839  success && (data.length == 0 || abi.decode(data, (bool))) */\n      dup1\n      iszero\n      tag_279\n      jumpi\n      pop\n        /* \"bitlime-core/contracts/BitlimeV2Pair.sol\":1794:1805  data.length */\n      dup1\n      mload\n        /* \"bitlime-core/contracts/BitlimeV2Pair.sol\":1794:1810  data.length == 0 */\n      iszero\n      dup1\n        /* \"bitlime-core/contracts/BitlimeV2Pair.sol\":1794:1838  data.length == 0 || abi.decode(data, (bool)) */\n      tag_279\n      jumpi\n      pop\n        /* \"bitlime-core/contracts/BitlimeV2Pair.sol\":1825:1829  data */\n      dup1\n        /* \"bitlime-core/contracts/BitlimeV2Pair.sol\":1814:1838  abi.decode(data, (bool)) */\n      dup1\n      0x20\n      add\n      swap1\n      mload\n        /* \"--CODEGEN--\":13:15   */\n      0x20\n        /* \"--CODEGEN--\":8:11   */\n      dup2\n        /* \"--CODEGEN--\":5:16   */\n      lt\n        /* \"--CODEGEN--\":2:4   */\n      iszero\n      tag_280\n      jumpi\n        /* \"--CODEGEN--\":29:30   */\n      0x00\n        /* \"--CODEGEN--\":26:27   */\n      dup1\n        /* \"--CODEGEN--\":19:31   */\n      revert\n        /* \"--CODEGEN--\":2:4   */\n    tag_280:\n      pop\n        /* \"bitlime-core/contracts/BitlimeV2Pair.sol\":1814:1838  abi.decode(data, (bool)) */\n      mload\n        /* \"bitlime-core/contracts/BitlimeV2Pair.sol\":1794:1838  data.length == 0 || abi.decode(data, (bool)) */\n    tag_279:\n        /* \"bitlime-core/contracts/BitlimeV2Pair.sol\":1774:1870  require(success && (data.length == 0 || abi.decode(data, (bool))), 'BitlimeV2: TRANSFER_FAILED') */\n      tag_281\n      jumpi\n      0x40\n      dup1\n      mload\n      shl(0xe5, 0x461bcd)\n      dup2\n      mstore\n      0x20\n      0x04\n      dup3\n      add\n      mstore\n      0x1a\n      0x24\n      dup3\n      add\n      mstore\n      0x4269746c696d6556323a205452414e534645525f4641494c4544000000000000\n      0x44\n      dup3\n      add\n      mstore\n      swap1\n      mload\n      swap1\n      dup2\n      swap1\n      sub\n      0x64\n      add\n      swap1\n      revert\n    tag_281:\n        /* \"bitlime-core/contracts/BitlimeV2Pair.sol\":1591:1878  function _safeTransfer(address token, address to, uint value) private {\r... */\n      pop\n      pop\n      pop\n      pop\n      pop\n      jump\t// out\n        /* \"bitlime-core/contracts/libraries/SafeMath.sol\":433:575  function mul(uint x, uint y) internal pure returns (uint z) {\r... */\n    tag_153:\n        /* \"bitlime-core/contracts/libraries/SafeMath.sol\":485:491  uint z */\n      0x00\n        /* \"bitlime-core/contracts/libraries/SafeMath.sol\":512:518  y == 0 */\n      dup2\n      iszero\n      dup1\n        /* \"bitlime-core/contracts/libraries/SafeMath.sol\":512:542  y == 0 || (z = x * y) / y == x */\n      tag_283\n      jumpi\n      pop\n      pop\n        /* \"bitlime-core/contracts/libraries/SafeMath.sol\":527:532  x * y */\n      dup1\n      dup3\n      mul\n        /* \"bitlime-core/contracts/libraries/SafeMath.sol\":541:542  x */\n      dup3\n        /* \"bitlime-core/contracts/libraries/SafeMath.sol\":536:537  y */\n      dup3\n        /* \"bitlime-core/contracts/libraries/SafeMath.sol\":527:532  x * y */\n      dup3\n        /* \"bitlime-core/contracts/libraries/SafeMath.sol\":536:537  y */\n      dup2\n        /* \"bitlime-core/contracts/libraries/SafeMath.sol\":522:537  (z = x * y) / y */\n      tag_284\n      jumpi\n      invalid\n    tag_284:\n      div\n        /* \"bitlime-core/contracts/libraries/SafeMath.sol\":522:542  (z = x * y) / y == x */\n      eq\n        /* \"bitlime-core/contracts/libraries/SafeMath.sol\":512:542  y == 0 || (z = x * y) / y == x */\n    tag_283:\n        /* \"bitlime-core/contracts/libraries/SafeMath.sol\":504:567  require(y == 0 || (z = x * y) / y == x, 'ds-math-mul-overflow') */\n      tag_166\n      jumpi\n      0x40\n      dup1\n      mload\n      shl(0xe5, 0x461bcd)\n      dup2\n      mstore\n      0x20\n      0x04\n      dup3\n      add\n      mstore\n      0x14\n      0x24\n      dup3\n      add\n      mstore\n      shl(0x60, 0x64732d6d6174682d6d756c2d6f766572666c6f77)\n      0x44\n      dup3\n      add\n      mstore\n      swap1\n      mload\n      swap1\n      dup2\n      swap1\n      sub\n      0x64\n      add\n      swap1\n      revert\n        /* \"bitlime-core/contracts/libraries/SafeMath.sol\":296:425  function sub(uint x, uint y) internal pure returns (uint z) {\r... */\n    tag_155:\n        /* \"bitlime-core/contracts/libraries/SafeMath.sol\":380:385  x - y */\n      dup1\n      dup3\n      sub\n        /* \"bitlime-core/contracts/libraries/SafeMath.sol\":375:391  (z = x - y) <= x */\n      dup3\n      dup2\n      gt\n      iszero\n        /* \"bitlime-core/contracts/libraries/SafeMath.sol\":367:417  require((z = x - y) <= x, 'ds-math-sub-underflow') */\n      tag_166\n      jumpi\n      0x40\n      dup1\n      mload\n      shl(0xe5, 0x461bcd)\n      dup2\n      mstore\n      0x20\n      0x04\n      dup3\n      add\n      mstore\n      0x15\n      0x24\n      dup3\n      add\n      mstore\n      shl(0x58, 0x64732d6d6174682d7375622d756e646572666c6f77)\n      0x44\n      dup3\n      add\n      mstore\n      swap1\n      mload\n      swap1\n      dup2\n      swap1\n      sub\n      0x64\n      add\n      swap1\n      revert\n        /* \"bitlime-core/contracts/BitlimeV2Pair.sol\":2951:3811  function _update(uint balance0, uint balance1, uint112 _reserve0, uint112 _reserve1) private {\r... */\n    tag_164:\n      sub(shl(0x70, 0x01), 0x01)\n        /* \"bitlime-core/contracts/BitlimeV2Pair.sol\":3063:3086  balance0 <= uint112(-1) */\n      dup5\n      gt\n      dup1\n      iszero\n      swap1\n        /* \"bitlime-core/contracts/BitlimeV2Pair.sol\":3063:3113  balance0 <= uint112(-1) && balance1 <= uint112(-1) */\n      tag_289\n      jumpi\n      pop\n      sub(shl(0x70, 0x01), 0x01)\n        /* \"bitlime-core/contracts/BitlimeV2Pair.sol\":3090:3113  balance1 <= uint112(-1) */\n      dup4\n      gt\n      iszero\n        /* \"bitlime-core/contracts/BitlimeV2Pair.sol\":3063:3113  balance0 <= uint112(-1) && balance1 <= uint112(-1) */\n    tag_289:\n        /* \"bitlime-core/contracts/BitlimeV2Pair.sol\":3055:3137  require(balance0 <= uint112(-1) && balance1 <= uint112(-1), 'BitlimeV2: OVERFLOW') */\n      tag_290\n      jumpi\n      0x40\n      dup1\n      mload\n      shl(0xe5, 0x461bcd)\n      dup2\n      mstore\n      0x20\n      0x04\n      dup3\n      add\n      mstore\n      0x13\n      0x24\n      dup3\n      add\n      mstore\n      shl(0x68, 0x4269746c696d6556323a204f564552464c4f57)\n      0x44\n      dup3\n      add\n      mstore\n      swap1\n      mload\n      swap1\n      dup2\n      swap1\n      sub\n      0x64\n      add\n      swap1\n      revert\n    tag_290:\n        /* \"bitlime-core/contracts/BitlimeV2Pair.sol\":3252:3270  blockTimestampLast */\n      sload(0x09)\n        /* \"bitlime-core/contracts/BitlimeV2Pair.sol\":3179:3202  block.timestamp % 2**32 */\n      0xffffffff\n        /* \"bitlime-core/contracts/BitlimeV2Pair.sol\":3179:3194  block.timestamp */\n      timestamp\n        /* \"bitlime-core/contracts/BitlimeV2Pair.sol\":3179:3202  block.timestamp % 2**32 */\n      dup2\n      and\n      swap2\n      shl(0xe0, 0x01)\n        /* \"bitlime-core/contracts/BitlimeV2Pair.sol\":3252:3270  blockTimestampLast */\n      swap1\n      div\n      dup2\n      and\n        /* \"bitlime-core/contracts/BitlimeV2Pair.sol\":3235:3270  blockTimestamp - blockTimestampLast */\n      dup3\n      sub\n      swap1\n        /* \"bitlime-core/contracts/BitlimeV2Pair.sol\":3308:3323  timeElapsed > 0 */\n      dup2\n      and\n      iszero\n      dup1\n      iszero\n      swap1\n        /* \"bitlime-core/contracts/BitlimeV2Pair.sol\":3308:3341  timeElapsed > 0 && _reserve0 != 0 */\n      tag_292\n      jumpi\n      pop\n      sub(shl(0x70, 0x01), 0x01)\n        /* \"bitlime-core/contracts/BitlimeV2Pair.sol\":3327:3341  _reserve0 != 0 */\n      dup5\n      and\n      iszero\n      iszero\n        /* \"bitlime-core/contracts/BitlimeV2Pair.sol\":3308:3341  timeElapsed > 0 && _reserve0 != 0 */\n    tag_292:\n        /* \"bitlime-core/contracts/BitlimeV2Pair.sol\":3308:3359  timeElapsed > 0 && _reserve0 != 0 && _reserve1 != 0 */\n      dup1\n      iszero\n      tag_293\n      jumpi\n      pop\n      sub(shl(0x70, 0x01), 0x01)\n        /* \"bitlime-core/contracts/BitlimeV2Pair.sol\":3345:3359  _reserve1 != 0 */\n      dup4\n      and\n      iszero\n      iszero\n        /* \"bitlime-core/contracts/BitlimeV2Pair.sol\":3308:3359  timeElapsed > 0 && _reserve0 != 0 && _reserve1 != 0 */\n    tag_293:\n        /* \"bitlime-core/contracts/BitlimeV2Pair.sol\":3304:3640  if (timeElapsed > 0 && _reserve0 != 0 && _reserve1 != 0) {\r... */\n      iszero\n      tag_294\n      jumpi\n        /* \"bitlime-core/contracts/BitlimeV2Pair.sol\":3514:3525  timeElapsed */\n      dup1\n        /* \"bitlime-core/contracts/BitlimeV2Pair.sol\":3461:3525  uint(UQ112x112.encode(_reserve1).uqdiv(_reserve0)) * timeElapsed */\n      0xffffffff\n      and\n        /* \"bitlime-core/contracts/BitlimeV2Pair.sol\":3466:3510  UQ112x112.encode(_reserve1).uqdiv(_reserve0) */\n      tag_295\n        /* \"bitlime-core/contracts/BitlimeV2Pair.sol\":3500:3509  _reserve0 */\n      dup6\n        /* \"bitlime-core/contracts/BitlimeV2Pair.sol\":3466:3493  UQ112x112.encode(_reserve1) */\n      tag_296\n        /* \"bitlime-core/contracts/BitlimeV2Pair.sol\":3483:3492  _reserve1 */\n      dup7\n        /* \"bitlime-core/contracts/BitlimeV2Pair.sol\":3466:3482  UQ112x112.encode */\n      tag_297\n        /* \"bitlime-core/contracts/BitlimeV2Pair.sol\":3466:3493  UQ112x112.encode(_reserve1) */\n      jump\t// in\n    tag_296:\n      sub(shl(0xe0, 0x01), 0x01)\n        /* \"bitlime-core/contracts/BitlimeV2Pair.sol\":3466:3499  UQ112x112.encode(_reserve1).uqdiv */\n      and\n      swap1\n      tag_298\n        /* \"bitlime-core/contracts/BitlimeV2Pair.sol\":3466:3510  UQ112x112.encode(_reserve1).uqdiv(_reserve0) */\n      jump\t// in\n    tag_295:\n        /* \"bitlime-core/contracts/BitlimeV2Pair.sol\":3437:3457  price0CumulativeLast */\n      0x0a\n        /* \"bitlime-core/contracts/BitlimeV2Pair.sol\":3437:3525  price0CumulativeLast += uint(UQ112x112.encode(_reserve1).uqdiv(_reserve0)) * timeElapsed */\n      dup1\n      sload\n      sub(shl(0xe0, 0x01), 0x01)\n        /* \"bitlime-core/contracts/BitlimeV2Pair.sol\":3461:3511  uint(UQ112x112.encode(_reserve1).uqdiv(_reserve0)) */\n      swap3\n      swap1\n      swap3\n      and\n        /* \"bitlime-core/contracts/BitlimeV2Pair.sol\":3461:3525  uint(UQ112x112.encode(_reserve1).uqdiv(_reserve0)) * timeElapsed */\n      swap3\n      swap1\n      swap3\n      mul\n        /* \"bitlime-core/contracts/BitlimeV2Pair.sol\":3437:3525  price0CumulativeLast += uint(UQ112x112.encode(_reserve1).uqdiv(_reserve0)) * timeElapsed */\n      add\n      swap1\n      sstore\n        /* \"bitlime-core/contracts/BitlimeV2Pair.sol\":3564:3628  uint(UQ112x112.encode(_reserve0).uqdiv(_reserve1)) * timeElapsed */\n      0xffffffff\n      dup2\n      and\n        /* \"bitlime-core/contracts/BitlimeV2Pair.sol\":3569:3613  UQ112x112.encode(_reserve0).uqdiv(_reserve1) */\n      tag_299\n        /* \"bitlime-core/contracts/BitlimeV2Pair.sol\":3603:3612  _reserve1 */\n      dup5\n        /* \"bitlime-core/contracts/BitlimeV2Pair.sol\":3569:3596  UQ112x112.encode(_reserve0) */\n      tag_296\n        /* \"bitlime-core/contracts/BitlimeV2Pair.sol\":3586:3595  _reserve0 */\n      dup8\n        /* \"bitlime-core/contracts/BitlimeV2Pair.sol\":3569:3585  UQ112x112.encode */\n      tag_297\n        /* \"bitlime-core/contracts/BitlimeV2Pair.sol\":3569:3596  UQ112x112.encode(_reserve0) */\n      jump\t// in\n        /* \"bitlime-core/contracts/BitlimeV2Pair.sol\":3569:3613  UQ112x112.encode(_reserve0).uqdiv(_reserve1) */\n    tag_299:\n        /* \"bitlime-core/contracts/BitlimeV2Pair.sol\":3540:3560  price1CumulativeLast */\n      0x0b\n        /* \"bitlime-core/contracts/BitlimeV2Pair.sol\":3540:3628  price1CumulativeLast += uint(UQ112x112.encode(_reserve0).uqdiv(_reserve1)) * timeElapsed */\n      dup1\n      sload\n      sub(shl(0xe0, 0x01), 0x01)\n        /* \"bitlime-core/contracts/BitlimeV2Pair.sol\":3564:3614  uint(UQ112x112.encode(_reserve0).uqdiv(_reserve1)) */\n      swap3\n      swap1\n      swap3\n      and\n        /* \"bitlime-core/contracts/BitlimeV2Pair.sol\":3564:3628  uint(UQ112x112.encode(_reserve0).uqdiv(_reserve1)) * timeElapsed */\n      swap3\n      swap1\n      swap3\n      mul\n        /* \"bitlime-core/contracts/BitlimeV2Pair.sol\":3540:3628  price1CumulativeLast += uint(UQ112x112.encode(_reserve0).uqdiv(_reserve1)) * timeElapsed */\n      add\n      swap1\n      sstore\n        /* \"bitlime-core/contracts/BitlimeV2Pair.sol\":3304:3640  if (timeElapsed > 0 && _reserve0 != 0 && _reserve1 != 0) {\r... */\n    tag_294:\n        /* \"bitlime-core/contracts/BitlimeV2Pair.sol\":3650:3658  reserve0 */\n      0x09\n        /* \"bitlime-core/contracts/BitlimeV2Pair.sol\":3650:3678  reserve0 = uint112(balance0) */\n      dup1\n      sload\n      not(0xffffffffffffffffffffffffffff)\n      and\n      sub(shl(0x70, 0x01), 0x01)\n      dup9\n      dup2\n      and\n      swap2\n      swap1\n      swap2\n      or\n      not(shl(0x70, 0xffffffffffffffffffffffffffff))\n        /* \"bitlime-core/contracts/BitlimeV2Pair.sol\":3689:3717  reserve1 = uint112(balance1) */\n      and\n      shl(0x70, 0x01)\n      dup9\n      dup4\n      and\n      dup2\n      mul\n      swap2\n      swap1\n      swap2\n      or\n      sub(shl(0xe0, 0x01), 0x01)\n        /* \"bitlime-core/contracts/BitlimeV2Pair.sol\":3728:3763  blockTimestampLast = blockTimestamp */\n      and\n      shl(0xe0, 0x01)\n      0xffffffff\n      dup8\n      and\n      mul\n      or\n      swap3\n      dup4\n      swap1\n      sstore\n        /* \"bitlime-core/contracts/BitlimeV2Pair.sol\":3779:3803  Sync(reserve0, reserve1) */\n      0x40\n      dup1\n      mload\n        /* \"bitlime-core/contracts/BitlimeV2Pair.sol\":3784:3792  reserve0 */\n      dup5\n      dup5\n      and\n        /* \"bitlime-core/contracts/BitlimeV2Pair.sol\":3779:3803  Sync(reserve0, reserve1) */\n      dup2\n      mstore\n        /* \"bitlime-core/contracts/BitlimeV2Pair.sol\":3794:3802  reserve1 */\n      swap2\n      swap1\n      swap4\n      div\n      swap1\n      swap2\n      and\n        /* \"bitlime-core/contracts/BitlimeV2Pair.sol\":3779:3803  Sync(reserve0, reserve1) */\n      0x20\n      dup3\n      add\n      mstore\n      dup2\n      mload\n      0x1c411e9a96e071241c2f21f7726b17ae89e3cab4c78be50e062b03a9fffbbad1\n      swap3\n      swap2\n      dup2\n      swap1\n      sub\n      swap1\n      swap2\n      add\n      swap1\n      log1\n        /* \"bitlime-core/contracts/BitlimeV2Pair.sol\":2951:3811  function _update(uint balance0, uint balance1, uint112 _reserve0, uint112 _reserve1) private {\r... */\n      pop\n      pop\n      pop\n      pop\n      pop\n      pop\n      jump\t// out\n        /* \"bitlime-core/contracts/BitlimeV2ERC20.sol\":1835:2004  function _approve(address owner, address spender, uint value) private {\r... */\n    tag_168:\n      sub(shl(0xa0, 0x01), 0x01)\n        /* \"bitlime-core/contracts/BitlimeV2ERC20.sol\":1916:1932  allowance[owner] */\n      dup4\n      dup2\n      and\n      0x00\n      dup2\n      dup2\n      mstore\n        /* \"bitlime-core/contracts/BitlimeV2ERC20.sol\":1916:1925  allowance */\n      0x02\n        /* \"bitlime-core/contracts/BitlimeV2ERC20.sol\":1916:1932  allowance[owner] */\n      0x20\n      swap1\n      dup2\n      mstore\n      0x40\n      dup1\n      dup4\n      keccak256\n        /* \"bitlime-core/contracts/BitlimeV2ERC20.sol\":1916:1941  allowance[owner][spender] */\n      swap5\n      dup8\n      and\n      dup1\n      dup5\n      mstore\n      swap5\n      dup3\n      mstore\n      swap2\n      dup3\n      swap1\n      keccak256\n        /* \"bitlime-core/contracts/BitlimeV2ERC20.sol\":1916:1949  allowance[owner][spender] = value */\n      dup6\n      swap1\n      sstore\n        /* \"bitlime-core/contracts/BitlimeV2ERC20.sol\":1965:1996  Approval(owner, spender, value) */\n      dup2\n      mload\n      dup6\n      dup2\n      mstore\n      swap2\n      mload\n      0x8c5be1e5ebec7d5bd14f71427d1e84f3dd0314c0f7b2291e5b200ac8c7c3b925\n      swap3\n      dup2\n      swap1\n      sub\n      swap1\n      swap2\n      add\n      swap1\n      log3\n        /* \"bitlime-core/contracts/BitlimeV2ERC20.sol\":1835:2004  function _approve(address owner, address spender, uint value) private {\r... */\n      pop\n      pop\n      pop\n      jump\t// out\n        /* \"bitlime-core/contracts/BitlimeV2ERC20.sol\":2012:2232  function _transfer(address from, address to, uint value) private {\r... */\n    tag_173:\n      sub(shl(0xa0, 0x01), 0x01)\n        /* \"bitlime-core/contracts/BitlimeV2ERC20.sol\":2106:2121  balanceOf[from] */\n      dup4\n      and\n      0x00\n      swap1\n      dup2\n      mstore\n      mstore(0x20, 0x01)\n      0x40\n      swap1\n      keccak256\n      sload\n        /* \"bitlime-core/contracts/BitlimeV2ERC20.sol\":2106:2132  balanceOf[from].sub(value) */\n      tag_303\n      swap1\n        /* \"bitlime-core/contracts/BitlimeV2ERC20.sol\":2126:2131  value */\n      dup3\n        /* \"bitlime-core/contracts/BitlimeV2ERC20.sol\":2106:2125  balanceOf[from].sub */\n      tag_155\n        /* \"bitlime-core/contracts/BitlimeV2ERC20.sol\":2106:2132  balanceOf[from].sub(value) */\n      jump\t// in\n    tag_303:\n      sub(shl(0xa0, 0x01), 0x01)\n        /* \"bitlime-core/contracts/BitlimeV2ERC20.sol\":2088:2103  balanceOf[from] */\n      dup5\n      dup2\n      and\n      0x00\n      swap1\n      dup2\n      mstore\n      mstore(0x20, 0x01)\n      0x40\n      dup1\n      dup3\n      keccak256\n        /* \"bitlime-core/contracts/BitlimeV2ERC20.sol\":2088:2132  balanceOf[from] = balanceOf[from].sub(value) */\n      swap4\n      swap1\n      swap4\n      sstore\n        /* \"bitlime-core/contracts/BitlimeV2ERC20.sol\":2159:2172  balanceOf[to] */\n      swap1\n      dup5\n      and\n      dup2\n      mstore\n      keccak256\n      sload\n        /* \"bitlime-core/contracts/BitlimeV2ERC20.sol\":2159:2183  balanceOf[to].add(value) */\n      tag_304\n      swap1\n        /* \"bitlime-core/contracts/BitlimeV2ERC20.sol\":2177:2182  value */\n      dup3\n        /* \"bitlime-core/contracts/BitlimeV2ERC20.sol\":2159:2176  balanceOf[to].add */\n      tag_305\n        /* \"bitlime-core/contracts/BitlimeV2ERC20.sol\":2159:2183  balanceOf[to].add(value) */\n      jump\t// in\n    tag_304:\n      sub(shl(0xa0, 0x01), 0x01)\n        /* \"bitlime-core/contracts/BitlimeV2ERC20.sol\":2143:2156  balanceOf[to] */\n      dup4\n      dup2\n      and\n      0x00\n      dup2\n      dup2\n      mstore\n      0x01\n      0x20\n      swap1\n      dup2\n      mstore\n      0x40\n      swap2\n      dup3\n      swap1\n      keccak256\n        /* \"bitlime-core/contracts/BitlimeV2ERC20.sol\":2143:2183  balanceOf[to] = balanceOf[to].add(value) */\n      swap5\n      swap1\n      swap5\n      sstore\n        /* \"bitlime-core/contracts/BitlimeV2ERC20.sol\":2199:2224  Transfer(from, to, value) */\n      dup1\n      mload\n      dup6\n      dup2\n      mstore\n      swap1\n      mload\n        /* \"bitlime-core/contracts/BitlimeV2ERC20.sol\":2143:2156  balanceOf[to] */\n      swap2\n      swap4\n        /* \"bitlime-core/contracts/BitlimeV2ERC20.sol\":2199:2224  Transfer(from, to, value) */\n      swap3\n      dup8\n      and\n      swap3\n      0xddf252ad1be2c89b69c2b068fc378daa952ba7f163c4a11628f55a4df523b3ef\n      swap3\n      swap2\n      dup3\n      swap1\n      sub\n      add\n      swap1\n      log3\n        /* \"bitlime-core/contracts/BitlimeV2ERC20.sol\":2012:2232  function _transfer(address from, address to, uint value) private {\r... */\n      pop\n      pop\n      pop\n      jump\t// out\n        /* \"bitlime-core/contracts/BitlimeV2Pair.sol\":3901:4738  function _mintFee(uint112 _reserve0, uint112 _reserve1) private returns (bool feeOn) {\r... */\n    tag_189:\n        /* \"bitlime-core/contracts/BitlimeV2Pair.sol\":4031:4038  factory */\n      sload(0x06)\n        /* \"bitlime-core/contracts/BitlimeV2Pair.sol\":4013:4047  IBitlimeV2Factory(factory).feeTo() */\n      0x40\n      dup1\n      mload\n      shl(0xe3, 0x2fcfcb)\n      dup2\n      mstore\n      swap1\n      mload\n        /* \"bitlime-core/contracts/BitlimeV2Pair.sol\":3974:3984  bool feeOn */\n      0x00\n      swap3\n      dup4\n      swap3\n      sub(shl(0xa0, 0x01), 0x01)\n        /* \"bitlime-core/contracts/BitlimeV2Pair.sol\":4031:4038  factory */\n      swap1\n      swap2\n      and\n      swap2\n        /* \"bitlime-core/contracts/BitlimeV2Pair.sol\":4013:4045  IBitlimeV2Factory(factory).feeTo */\n      0x017e7e58\n      swap2\n        /* \"bitlime-core/contracts/BitlimeV2Pair.sol\":4013:4047  IBitlimeV2Factory(factory).feeTo() */\n      0x04\n      dup1\n      dup3\n      add\n      swap3\n      0x20\n      swap3\n      swap1\n      swap2\n      swap1\n      dup3\n      swap1\n      sub\n      add\n      dup2\n        /* \"bitlime-core/contracts/BitlimeV2Pair.sol\":4031:4038  factory */\n      dup7\n        /* \"bitlime-core/contracts/BitlimeV2Pair.sol\":4013:4047  IBitlimeV2Factory(factory).feeTo() */\n      dup1\n      extcodesize\n      iszero\n        /* \"--CODEGEN--\":5:7   */\n      dup1\n      iszero\n      tag_307\n      jumpi\n        /* \"--CODEGEN--\":30:31   */\n      0x00\n        /* \"--CODEGEN--\":27:28   */\n      dup1\n        /* \"--CODEGEN--\":20:32   */\n      revert\n        /* \"--CODEGEN--\":5:7   */\n    tag_307:\n        /* \"bitlime-core/contracts/BitlimeV2Pair.sol\":4013:4047  IBitlimeV2Factory(factory).feeTo() */\n      pop\n      gas\n      staticcall\n      iszero\n        /* \"--CODEGEN--\":8:17   */\n      dup1\n        /* \"--CODEGEN--\":5:7   */\n      iszero\n      tag_308\n      jumpi\n        /* \"--CODEGEN--\":45:61   */\n      returndatasize\n        /* \"--CODEGEN--\":42:43   */\n      0x00\n        /* \"--CODEGEN--\":39:40   */\n      dup1\n        /* \"--CODEGEN--\":24:62   */\n      returndatacopy\n        /* \"--CODEGEN--\":77:93   */\n      returndatasize\n        /* \"--CODEGEN--\":74:75   */\n      0x00\n        /* \"--CODEGEN--\":67:94   */\n      revert\n        /* \"--CODEGEN--\":5:7   */\n    tag_308:\n        /* \"bitlime-core/contracts/BitlimeV2Pair.sol\":4013:4047  IBitlimeV2Factory(factory).feeTo() */\n      pop\n      pop\n      pop\n      pop\n      mload(0x40)\n      returndatasize\n        /* \"--CODEGEN--\":13:15   */\n      0x20\n        /* \"--CODEGEN--\":8:11   */\n      dup2\n        /* \"--CODEGEN--\":5:16   */\n      lt\n        /* \"--CODEGEN--\":2:4   */\n      iszero\n      tag_309\n      jumpi\n        /* \"--CODEGEN--\":29:30   */\n      0x00\n        /* \"--CODEGEN--\":26:27   */\n      dup1\n        /* \"--CODEGEN--\":19:31   */\n      revert\n        /* \"--CODEGEN--\":2:4   */\n    tag_309:\n      pop\n        /* \"bitlime-core/contracts/BitlimeV2Pair.sol\":4013:4047  IBitlimeV2Factory(factory).feeTo() */\n      mload\n        /* \"bitlime-core/contracts/BitlimeV2Pair.sol\":4110:4115  kLast */\n      sload(0x0c)\n      sub(shl(0xa0, 0x01), 0x01)\n        /* \"bitlime-core/contracts/BitlimeV2Pair.sol\":4066:4085  feeTo != address(0) */\n      dup3\n      and\n      iszero\n      dup1\n      iszero\n      swap5\n      pop\n        /* \"bitlime-core/contracts/BitlimeV2Pair.sol\":4013:4047  IBitlimeV2Factory(factory).feeTo() */\n      swap2\n      swap3\n      pop\n        /* \"bitlime-core/contracts/BitlimeV2Pair.sol\":4110:4115  kLast */\n      swap1\n        /* \"bitlime-core/contracts/BitlimeV2Pair.sol\":4141:4731  if (feeOn) {\r... */\n      tag_310\n      jumpi\n        /* \"bitlime-core/contracts/BitlimeV2Pair.sol\":4171:4182  _kLast != 0 */\n      dup1\n      iszero\n        /* \"bitlime-core/contracts/BitlimeV2Pair.sol\":4167:4661  if (_kLast != 0) {\r... */\n      tag_311\n      jumpi\n        /* \"bitlime-core/contracts/BitlimeV2Pair.sol\":4203:4213  uint rootK */\n      0x00\n        /* \"bitlime-core/contracts/BitlimeV2Pair.sol\":4216:4257  Math.sqrt(uint(_reserve0).mul(_reserve1)) */\n      tag_312\n        /* \"bitlime-core/contracts/BitlimeV2Pair.sol\":4226:4256  uint(_reserve0).mul(_reserve1) */\n      tag_193\n      sub(shl(0x70, 0x01), 0x01)\n        /* \"bitlime-core/contracts/BitlimeV2Pair.sol\":4226:4241  uint(_reserve0) */\n      dup9\n      dup2\n      and\n      swap1\n        /* \"bitlime-core/contracts/BitlimeV2Pair.sol\":4226:4256  uint(_reserve0).mul(_reserve1) */\n      dup9\n      and\n        /* \"bitlime-core/contracts/BitlimeV2Pair.sol\":4226:4245  uint(_reserve0).mul */\n      tag_153\n        /* \"bitlime-core/contracts/BitlimeV2Pair.sol\":4226:4256  uint(_reserve0).mul(_reserve1) */\n      jump\t// in\n        /* \"bitlime-core/contracts/BitlimeV2Pair.sol\":4216:4257  Math.sqrt(uint(_reserve0).mul(_reserve1)) */\n    tag_312:\n        /* \"bitlime-core/contracts/BitlimeV2Pair.sol\":4203:4257  uint rootK = Math.sqrt(uint(_reserve0).mul(_reserve1)) */\n      swap1\n      pop\n        /* \"bitlime-core/contracts/BitlimeV2Pair.sol\":4276:4290  uint rootKLast */\n      0x00\n        /* \"bitlime-core/contracts/BitlimeV2Pair.sol\":4293:4310  Math.sqrt(_kLast) */\n      tag_314\n        /* \"bitlime-core/contracts/BitlimeV2Pair.sol\":4303:4309  _kLast */\n      dup4\n        /* \"bitlime-core/contracts/BitlimeV2Pair.sol\":4293:4302  Math.sqrt */\n      tag_194\n        /* \"bitlime-core/contracts/BitlimeV2Pair.sol\":4293:4310  Math.sqrt(_kLast) */\n      jump\t// in\n    tag_314:\n        /* \"bitlime-core/contracts/BitlimeV2Pair.sol\":4276:4310  uint rootKLast = Math.sqrt(_kLast) */\n      swap1\n      pop\n        /* \"bitlime-core/contracts/BitlimeV2Pair.sol\":4341:4350  rootKLast */\n      dup1\n        /* \"bitlime-core/contracts/BitlimeV2Pair.sol\":4333:4338  rootK */\n      dup3\n        /* \"bitlime-core/contracts/BitlimeV2Pair.sol\":4333:4350  rootK > rootKLast */\n      gt\n        /* \"bitlime-core/contracts/BitlimeV2Pair.sol\":4329:4646  if (rootK > rootKLast) {\r... */\n      iszero\n      tag_315\n      jumpi\n        /* \"bitlime-core/contracts/BitlimeV2Pair.sol\":4375:4389  uint numerator */\n      0x00\n        /* \"bitlime-core/contracts/BitlimeV2Pair.sol\":4392:4429  totalSupply.mul(rootK.sub(rootKLast)) */\n      tag_316\n        /* \"bitlime-core/contracts/BitlimeV2Pair.sol\":4408:4428  rootK.sub(rootKLast) */\n      tag_317\n        /* \"bitlime-core/contracts/BitlimeV2Pair.sol\":4408:4413  rootK */\n      dup5\n        /* \"bitlime-core/contracts/BitlimeV2Pair.sol\":4418:4427  rootKLast */\n      dup5\n        /* \"bitlime-core/contracts/BitlimeV2Pair.sol\":4408:4428  rootK.sub(rootKLast) */\n      0xffffffff\n        /* \"bitlime-core/contracts/BitlimeV2Pair.sol\":4408:4417  rootK.sub */\n      tag_155\n        /* \"bitlime-core/contracts/BitlimeV2Pair.sol\":4408:4428  rootK.sub(rootKLast) */\n      and\n      jump\t// in\n    tag_317:\n        /* \"bitlime-core/contracts/BitlimeV2Pair.sol\":4392:4403  totalSupply */\n      sload(0x00)\n      swap1\n        /* \"bitlime-core/contracts/BitlimeV2Pair.sol\":4392:4429  totalSupply.mul(rootK.sub(rootKLast)) */\n      0xffffffff\n        /* \"bitlime-core/contracts/BitlimeV2Pair.sol\":4392:4407  totalSupply.mul */\n      tag_153\n        /* \"bitlime-core/contracts/BitlimeV2Pair.sol\":4392:4429  totalSupply.mul(rootK.sub(rootKLast)) */\n      and\n      jump\t// in\n    tag_316:\n        /* \"bitlime-core/contracts/BitlimeV2Pair.sol\":4375:4429  uint numerator = totalSupply.mul(rootK.sub(rootKLast)) */\n      swap1\n      pop\n        /* \"bitlime-core/contracts/BitlimeV2Pair.sol\":4452:4468  uint denominator */\n      0x00\n        /* \"bitlime-core/contracts/BitlimeV2Pair.sol\":4471:4498  rootK.mul(5).add(rootKLast) */\n      tag_318\n        /* \"bitlime-core/contracts/BitlimeV2Pair.sol\":4488:4497  rootKLast */\n      dup4\n        /* \"bitlime-core/contracts/BitlimeV2Pair.sol\":4471:4483  rootK.mul(5) */\n      tag_319\n        /* \"bitlime-core/contracts/BitlimeV2Pair.sol\":4471:4476  rootK */\n      dup7\n        /* \"bitlime-core/contracts/BitlimeV2Pair.sol\":4481:4482  5 */\n      0x05\n        /* \"bitlime-core/contracts/BitlimeV2Pair.sol\":4471:4483  rootK.mul(5) */\n      0xffffffff\n        /* \"bitlime-core/contracts/BitlimeV2Pair.sol\":4471:4480  rootK.mul */\n      tag_153\n        /* \"bitlime-core/contracts/BitlimeV2Pair.sol\":4471:4483  rootK.mul(5) */\n      and\n      jump\t// in\n    tag_319:\n        /* \"bitlime-core/contracts/BitlimeV2Pair.sol\":4471:4487  rootK.mul(5).add */\n      swap1\n        /* \"bitlime-core/contracts/BitlimeV2Pair.sol\":4471:4498  rootK.mul(5).add(rootKLast) */\n      0xffffffff\n        /* \"bitlime-core/contracts/BitlimeV2Pair.sol\":4471:4487  rootK.mul(5).add */\n      tag_305\n        /* \"bitlime-core/contracts/BitlimeV2Pair.sol\":4471:4498  rootK.mul(5).add(rootKLast) */\n      and\n      jump\t// in\n    tag_318:\n        /* \"bitlime-core/contracts/BitlimeV2Pair.sol\":4452:4498  uint denominator = rootK.mul(5).add(rootKLast) */\n      swap1\n      pop\n        /* \"bitlime-core/contracts/BitlimeV2Pair.sol\":4521:4535  uint liquidity */\n      0x00\n        /* \"bitlime-core/contracts/BitlimeV2Pair.sol\":4550:4561  denominator */\n      dup2\n        /* \"bitlime-core/contracts/BitlimeV2Pair.sol\":4538:4547  numerator */\n      dup4\n        /* \"bitlime-core/contracts/BitlimeV2Pair.sol\":4538:4561  numerator / denominator */\n      dup2\n      tag_320\n      jumpi\n      invalid\n    tag_320:\n      div\n      swap1\n      pop\n        /* \"bitlime-core/contracts/BitlimeV2Pair.sol\":4588:4601  liquidity > 0 */\n      dup1\n      iszero\n        /* \"bitlime-core/contracts/BitlimeV2Pair.sol\":4584:4626  if (liquidity > 0) _mint(feeTo, liquidity) */\n      tag_322\n      jumpi\n        /* \"bitlime-core/contracts/BitlimeV2Pair.sol\":4603:4626  _mint(feeTo, liquidity) */\n      tag_322\n        /* \"bitlime-core/contracts/BitlimeV2Pair.sol\":4609:4614  feeTo */\n      dup8\n        /* \"bitlime-core/contracts/BitlimeV2Pair.sol\":4616:4625  liquidity */\n      dup3\n        /* \"bitlime-core/contracts/BitlimeV2Pair.sol\":4603:4608  _mint */\n      tag_196\n        /* \"bitlime-core/contracts/BitlimeV2Pair.sol\":4603:4626  _mint(feeTo, liquidity) */\n      jump\t// in\n    tag_322:\n        /* \"bitlime-core/contracts/BitlimeV2Pair.sol\":4329:4646  if (rootK > rootKLast) {\r... */\n      pop\n      pop\n      pop\n    tag_315:\n        /* \"bitlime-core/contracts/BitlimeV2Pair.sol\":4167:4661  if (_kLast != 0) {\r... */\n      pop\n      pop\n    tag_311:\n        /* \"bitlime-core/contracts/BitlimeV2Pair.sol\":4141:4731  if (feeOn) {\r... */\n      jump(tag_324)\n    tag_310:\n        /* \"bitlime-core/contracts/BitlimeV2Pair.sol\":4682:4693  _kLast != 0 */\n      dup1\n      iszero\n        /* \"bitlime-core/contracts/BitlimeV2Pair.sol\":4678:4731  if (_kLast != 0) {\r... */\n      tag_324\n      jumpi\n        /* \"bitlime-core/contracts/BitlimeV2Pair.sol\":4718:4719  0 */\n      0x00\n        /* \"bitlime-core/contracts/BitlimeV2Pair.sol\":4710:4715  kLast */\n      0x0c\n        /* \"bitlime-core/contracts/BitlimeV2Pair.sol\":4710:4719  kLast = 0 */\n      sstore\n        /* \"bitlime-core/contracts/BitlimeV2Pair.sol\":4678:4731  if (_kLast != 0) {\r... */\n    tag_324:\n        /* \"bitlime-core/contracts/BitlimeV2Pair.sol\":3901:4738  function _mintFee(uint112 _reserve0, uint112 _reserve1) private returns (bool feeOn) {\r... */\n      pop\n      pop\n      swap3\n      swap2\n      pop\n      pop\n      jump\t// out\n        /* \"bitlime-core/contracts/libraries/Math.sol\":317:620  function sqrt(uint y) internal pure returns (uint z) {\r... */\n    tag_194:\n        /* \"bitlime-core/contracts/libraries/Math.sol\":362:368  uint z */\n      0x00\n        /* \"bitlime-core/contracts/libraries/Math.sol\":389:390  3 */\n      0x03\n        /* \"bitlime-core/contracts/libraries/Math.sol\":385:386  y */\n      dup3\n        /* \"bitlime-core/contracts/libraries/Math.sol\":385:390  y > 3 */\n      gt\n        /* \"bitlime-core/contracts/libraries/Math.sol\":381:613  if (y > 3) {\r... */\n      iszero\n      tag_326\n      jumpi\n      pop\n        /* \"bitlime-core/contracts/libraries/Math.sol\":411:412  y */\n      dup1\n        /* \"bitlime-core/contracts/libraries/Math.sol\":444:445  1 */\n      0x01\n        /* \"bitlime-core/contracts/libraries/Math.sol\":440:441  2 */\n      0x02\n        /* \"bitlime-core/contracts/libraries/Math.sol\":436:441  y / 2 */\n      dup3\n      div\n        /* \"bitlime-core/contracts/libraries/Math.sol\":436:445  y / 2 + 1 */\n      add\n        /* \"bitlime-core/contracts/libraries/Math.sol\":460:552  while (x < z) {\r... */\n    tag_328:\n        /* \"bitlime-core/contracts/libraries/Math.sol\":471:472  z */\n      dup2\n        /* \"bitlime-core/contracts/libraries/Math.sol\":467:468  x */\n      dup2\n        /* \"bitlime-core/contracts/libraries/Math.sol\":467:472  x < z */\n      lt\n        /* \"bitlime-core/contracts/libraries/Math.sol\":460:552  while (x < z) {\r... */\n      iszero\n      tag_329\n      jumpi\n        /* \"bitlime-core/contracts/libraries/Math.sol\":497:498  x */\n      dup1\n        /* \"bitlime-core/contracts/libraries/Math.sol\":493:498  z = x */\n      swap2\n      pop\n        /* \"bitlime-core/contracts/libraries/Math.sol\":535:536  2 */\n      0x02\n        /* \"bitlime-core/contracts/libraries/Math.sol\":530:531  x */\n      dup2\n        /* \"bitlime-core/contracts/libraries/Math.sol\":526:527  x */\n      dup3\n        /* \"bitlime-core/contracts/libraries/Math.sol\":522:523  y */\n      dup6\n        /* \"bitlime-core/contracts/libraries/Math.sol\":522:527  y / x */\n      dup2\n      tag_330\n      jumpi\n      invalid\n    tag_330:\n      div\n        /* \"bitlime-core/contracts/libraries/Math.sol\":522:531  y / x + x */\n      add\n        /* \"bitlime-core/contracts/libraries/Math.sol\":521:536  (y / x + x) / 2 */\n      dup2\n      tag_331\n      jumpi\n      invalid\n    tag_331:\n      div\n        /* \"bitlime-core/contracts/libraries/Math.sol\":517:536  x = (y / x + x) / 2 */\n      swap1\n      pop\n        /* \"bitlime-core/contracts/libraries/Math.sol\":460:552  while (x < z) {\r... */\n      jump(tag_328)\n    tag_329:\n        /* \"bitlime-core/contracts/libraries/Math.sol\":381:613  if (y > 3) {\r... */\n      pop\n      jump(tag_333)\n    tag_326:\n        /* \"bitlime-core/contracts/libraries/Math.sol\":573:579  y != 0 */\n      dup2\n      iszero\n        /* \"bitlime-core/contracts/libraries/Math.sol\":569:613  if (y != 0) {\r... */\n      tag_333\n      jumpi\n      pop\n        /* \"bitlime-core/contracts/libraries/Math.sol\":600:601  1 */\n      0x01\n        /* \"bitlime-core/contracts/libraries/Math.sol\":569:613  if (y != 0) {\r... */\n    tag_333:\n        /* \"bitlime-core/contracts/libraries/Math.sol\":317:620  function sqrt(uint y) internal pure returns (uint z) {\r... */\n      swap2\n      swap1\n      pop\n      jump\t// out\n        /* \"bitlime-core/contracts/BitlimeV2ERC20.sol\":1409:1610  function _mint(address to, uint value) internal {\r... */\n    tag_196:\n        /* \"bitlime-core/contracts/BitlimeV2ERC20.sol\":1482:1493  totalSupply */\n      sload(0x00)\n        /* \"bitlime-core/contracts/BitlimeV2ERC20.sol\":1482:1504  totalSupply.add(value) */\n      tag_335\n      swap1\n        /* \"bitlime-core/contracts/BitlimeV2ERC20.sol\":1498:1503  value */\n      dup3\n        /* \"bitlime-core/contracts/BitlimeV2ERC20.sol\":1482:1504  totalSupply.add(value) */\n      0xffffffff\n        /* \"bitlime-core/contracts/BitlimeV2ERC20.sol\":1482:1497  totalSupply.add */\n      tag_305\n        /* \"bitlime-core/contracts/BitlimeV2ERC20.sol\":1482:1504  totalSupply.add(value) */\n      and\n      jump\t// in\n    tag_335:\n        /* \"bitlime-core/contracts/BitlimeV2ERC20.sol\":1468:1479  totalSupply */\n      0x00\n        /* \"bitlime-core/contracts/BitlimeV2ERC20.sol\":1468:1504  totalSupply = totalSupply.add(value) */\n      swap1\n      dup2\n      sstore\n      sub(shl(0xa0, 0x01), 0x01)\n        /* \"bitlime-core/contracts/BitlimeV2ERC20.sol\":1531:1544  balanceOf[to] */\n      dup4\n      and\n      dup2\n      mstore\n      mstore(0x20, 0x01)\n      0x40\n      swap1\n      keccak256\n      sload\n        /* \"bitlime-core/contracts/BitlimeV2ERC20.sol\":1531:1555  balanceOf[to].add(value) */\n      tag_336\n      swap1\n        /* \"bitlime-core/contracts/BitlimeV2ERC20.sol\":1549:1554  value */\n      dup3\n        /* \"bitlime-core/contracts/BitlimeV2ERC20.sol\":1531:1548  balanceOf[to].add */\n      tag_305\n        /* \"bitlime-core/contracts/BitlimeV2ERC20.sol\":1531:1555  balanceOf[to].add(value) */\n      jump\t// in\n    tag_336:\n      sub(shl(0xa0, 0x01), 0x01)\n        /* \"bitlime-core/contracts/BitlimeV2ERC20.sol\":1515:1528  balanceOf[to] */\n      dup4\n      and\n      0x00\n      dup2\n      dup2\n      mstore\n      0x01\n      0x20\n      swap1\n      dup2\n      mstore\n      0x40\n      dup1\n      dup4\n      keccak256\n        /* \"bitlime-core/contracts/BitlimeV2ERC20.sol\":1515:1555  balanceOf[to] = balanceOf[to].add(value) */\n      swap5\n      swap1\n      swap5\n      sstore\n        /* \"bitlime-core/contracts/BitlimeV2ERC20.sol\":1571:1602  Transfer(address(0), to, value) */\n      dup4\n      mload\n      dup6\n      dup2\n      mstore\n      swap4\n      mload\n        /* \"bitlime-core/contracts/BitlimeV2ERC20.sol\":1515:1528  balanceOf[to] */\n      swap3\n      swap4\n      swap2\n      swap3\n        /* \"bitlime-core/contracts/BitlimeV2ERC20.sol\":1571:1602  Transfer(address(0), to, value) */\n      0xddf252ad1be2c89b69c2b068fc378daa952ba7f163c4a11628f55a4df523b3ef\n      swap3\n      dup2\n      swap1\n      sub\n      swap1\n      swap2\n      add\n      swap1\n      log3\n        /* \"bitlime-core/contracts/BitlimeV2ERC20.sol\":1409:1610  function _mint(address to, uint value) internal {\r... */\n      pop\n      pop\n      jump\t// out\n        /* \"bitlime-core/contracts/libraries/Math.sol\":103:199  function min(uint x, uint y) internal pure returns (uint z) {\r... */\n    tag_203:\n        /* \"bitlime-core/contracts/libraries/Math.sol\":155:161  uint z */\n      0x00\n        /* \"bitlime-core/contracts/libraries/Math.sol\":182:183  y */\n      dup2\n        /* \"bitlime-core/contracts/libraries/Math.sol\":178:179  x */\n      dup4\n        /* \"bitlime-core/contracts/libraries/Math.sol\":178:183  x < y */\n      lt\n        /* \"bitlime-core/contracts/libraries/Math.sol\":178:191  x < y ? x : y */\n      tag_338\n      jumpi\n        /* \"bitlime-core/contracts/libraries/Math.sol\":190:191  y */\n      dup2\n        /* \"bitlime-core/contracts/libraries/Math.sol\":178:191  x < y ? x : y */\n      jump(tag_339)\n    tag_338:\n        /* \"bitlime-core/contracts/libraries/Math.sol\":186:187  x */\n      dup3\n        /* \"bitlime-core/contracts/libraries/Math.sol\":178:191  x < y ? x : y */\n    tag_339:\n        /* \"bitlime-core/contracts/libraries/Math.sol\":174:191  z = x < y ? x : y */\n      swap4\n        /* \"bitlime-core/contracts/libraries/Math.sol\":103:199  function min(uint x, uint y) internal pure returns (uint z) {\r... */\n      swap3\n      pop\n      pop\n      pop\n      jump\t// out\n        /* \"bitlime-core/contracts/BitlimeV2ERC20.sol\":1618:1827  function _burn(address from, uint value) internal {\r... */\n    tag_227:\n      sub(shl(0xa0, 0x01), 0x01)\n        /* \"bitlime-core/contracts/BitlimeV2ERC20.sol\":1697:1712  balanceOf[from] */\n      dup3\n      and\n      0x00\n      swap1\n      dup2\n      mstore\n      mstore(0x20, 0x01)\n      0x40\n      swap1\n      keccak256\n      sload\n        /* \"bitlime-core/contracts/BitlimeV2ERC20.sol\":1697:1723  balanceOf[from].sub(value) */\n      tag_341\n      swap1\n        /* \"bitlime-core/contracts/BitlimeV2ERC20.sol\":1717:1722  value */\n      dup3\n        /* \"bitlime-core/contracts/BitlimeV2ERC20.sol\":1697:1716  balanceOf[from].sub */\n      tag_155\n        /* \"bitlime-core/contracts/BitlimeV2ERC20.sol\":1697:1723  balanceOf[from].sub(value) */\n      jump\t// in\n    tag_341:\n      sub(shl(0xa0, 0x01), 0x01)\n        /* \"bitlime-core/contracts/BitlimeV2ERC20.sol\":1679:1694  balanceOf[from] */\n      dup4\n      and\n      0x00\n      swap1\n      dup2\n      mstore\n      mstore(0x20, 0x01)\n      0x40\n      dup2\n      keccak256\n        /* \"bitlime-core/contracts/BitlimeV2ERC20.sol\":1679:1723  balanceOf[from] = balanceOf[from].sub(value) */\n      swap2\n      swap1\n      swap2\n      sstore\n        /* \"bitlime-core/contracts/BitlimeV2ERC20.sol\":1748:1759  totalSupply */\n      sload\n        /* \"bitlime-core/contracts/BitlimeV2ERC20.sol\":1748:1770  totalSupply.sub(value) */\n      tag_342\n      swap1\n        /* \"bitlime-core/contracts/BitlimeV2ERC20.sol\":1764:1769  value */\n      dup3\n        /* \"bitlime-core/contracts/BitlimeV2ERC20.sol\":1748:1763  totalSupply.sub */\n      tag_155\n        /* \"bitlime-core/contracts/BitlimeV2ERC20.sol\":1748:1770  totalSupply.sub(value) */\n      jump\t// in\n    tag_342:\n        /* \"bitlime-core/contracts/BitlimeV2ERC20.sol\":1734:1745  totalSupply */\n      0x00\n        /* \"bitlime-core/contracts/BitlimeV2ERC20.sol\":1734:1770  totalSupply = totalSupply.sub(value) */\n      swap1\n      dup2\n      sstore\n        /* \"bitlime-core/contracts/BitlimeV2ERC20.sol\":1786:1819  Transfer(from, address(0), value) */\n      0x40\n      dup1\n      mload\n      dup4\n      dup2\n      mstore\n      swap1\n      mload\n      sub(shl(0xa0, 0x01), 0x01)\n      dup6\n      and\n      swap2\n      0xddf252ad1be2c89b69c2b068fc378daa952ba7f163c4a11628f55a4df523b3ef\n      swap2\n      swap1\n      dup2\n      swap1\n      sub\n      0x20\n      add\n      swap1\n      log3\n        /* \"bitlime-core/contracts/BitlimeV2ERC20.sol\":1618:1827  function _burn(address from, uint value) internal {\r... */\n      pop\n      pop\n      jump\t// out\n        /* \"bitlime-core/contracts/libraries/UQ112x112.sol\":294:414  function encode(uint112 y) internal pure returns (uint224 z) {\r... */\n    tag_297:\n      sub(shl(0x70, 0x01), 0x01)\n        /* \"bitlime-core/contracts/libraries/UQ112x112.sol\":370:380  uint224(y) */\n      and\n      shl(0x70, 0x01)\n        /* \"bitlime-core/contracts/libraries/UQ112x112.sol\":370:387  uint224(y) * Q112 */\n      mul\n      swap1\n        /* \"bitlime-core/contracts/libraries/UQ112x112.sol\":294:414  function encode(uint112 y) internal pure returns (uint224 z) {\r... */\n      jump\t// out\n        /* \"bitlime-core/contracts/libraries/UQ112x112.sol\":485:593  function uqdiv(uint224 x, uint112 y) internal pure returns (uint224 z) {\r... */\n    tag_298:\n        /* \"bitlime-core/contracts/libraries/UQ112x112.sol\":545:554  uint224 z */\n      0x00\n      sub(shl(0x70, 0x01), 0x01)\n        /* \"bitlime-core/contracts/libraries/UQ112x112.sol\":575:585  uint224(y) */\n      dup3\n      and\n      sub(shl(0xe0, 0x01), 0x01)\n        /* \"bitlime-core/contracts/libraries/UQ112x112.sol\":571:585  x / uint224(y) */\n      dup5\n      and\n        /* \"bitlime-core/contracts/libraries/UQ112x112.sol\":575:585  uint224(y) */\n      dup2\n        /* \"bitlime-core/contracts/libraries/UQ112x112.sol\":571:585  x / uint224(y) */\n      tag_345\n      jumpi\n      invalid\n    tag_345:\n      div\n      swap4\n        /* \"bitlime-core/contracts/libraries/UQ112x112.sol\":485:593  function uqdiv(uint224 x, uint112 y) internal pure returns (uint224 z) {\r... */\n      swap3\n      pop\n      pop\n      pop\n      jump\t// out\n        /* \"bitlime-core/contracts/libraries/SafeMath.sol\":160:288  function add(uint x, uint y) internal pure returns (uint z) {\r... */\n    tag_305:\n        /* \"bitlime-core/contracts/libraries/SafeMath.sol\":244:249  x + y */\n      dup1\n      dup3\n      add\n        /* \"bitlime-core/contracts/libraries/SafeMath.sol\":239:255  (z = x + y) >= x */\n      dup3\n      dup2\n      lt\n      iszero\n        /* \"bitlime-core/contracts/libraries/SafeMath.sol\":231:280  require((z = x + y) >= x, 'ds-math-add-overflow') */\n      tag_166\n      jumpi\n      0x40\n      dup1\n      mload\n      shl(0xe5, 0x461bcd)\n      dup2\n      mstore\n      0x20\n      0x04\n      dup3\n      add\n      mstore\n      0x14\n      0x24\n      dup3\n      add\n      mstore\n      shl(0x60, 0x64732d6d6174682d6164642d6f766572666c6f77)\n      0x44\n      dup3\n      add\n      mstore\n      swap1\n      mload\n      swap1\n      dup2\n      swap1\n      sub\n      0x64\n      add\n      swap1\n      revert\n    stop\n    data_11aae1451e92178ca9557b0da8e89c1a0cb66439f2c79e2c015b2b1c66f8c10e 4269746c696d6556323a20494e53554646494349454e545f4c49515549444954595f4d494e544544\n    data_2e659678d10ece155b14bdac98ce93e7bff4499e732071af82c61e52a437e847 4269746c696d6556323a20494e53554646494349454e545f494e5055545f414d4f554e54\n    data_9c31f546836fef68e48c77674d61c5187863c856fd31a93ea5e92163d3264089 4269746c696d6556323a20494e53554646494349454e545f4f55545055545f414d4f554e54\n    data_ad84f473b4861a87a7c2e9e59f92cb79221bbc15014bdee38cdd94fc09af824b 4269746c696d6556323a20494e53554646494349454e545f4c49515549444954595f4255524e4544\n    data_d5323258f0a8544d611f8358491cb469df3ed77d3f47339d7596e213964c6862 4269746c696d6556323a20494e53554646494349454e545f4c4951554944495459\n\n    auxdata: 0xa265627a7a72315820934a29c98683750cca349e1d238195352e766ae1fa881a9817c977325ae28ff764736f6c63430005100032\n}\n",
				"bytecode": {
					"linkReferences": {},
					"object": "60806040526001600d5534801561001557600080fd5b506040516124ac3803806124ac8339818101604052602081101561003857600080fd5b5051604051469080605261245a8239604080519182900360520182208282018252600a8352692134ba3634b6b2902b1960b11b6020938401528151808301835260018152603160f81b908401528151808401919091527f446e80230380561d906573d2b5dbfc9fadb3f5adee8411e56a4c6511d92876e3818301527fc89efdaa54c0f20c7adf612882df0950f5a951637e0307cdcb4c672f298b8bc6606082015260808101949094523060a0808601919091528151808603909101815260c09094019052825192019190912060035550600680546001600160a01b0319163317905560055561232e8061012c6000396000f3fe608060405234801561001057600080fd5b50600436106101cf5760003560e01c806370a0823111610104578063bc25cf77116100a2578063dd62ed3e11610071578063dd62ed3e146105b3578063df922f3a146105e1578063e1489191146105fe578063fff6cae914610606576101cf565b8063bc25cf771461052c578063c45a015514610552578063d21220a71461055a578063d505accf14610562576101cf565b806389afcb44116100de57806389afcb44146104b157806395d89b41146104f0578063a9059cbb146104f8578063ba9a7a5614610524576101cf565b806370a082311461045d5780637464fc3d146104835780637ecebe001461048b576101cf565b806330adf81f11610171578063485cc9551161014b578063485cc955146103f95780635909c0d5146104275780635a3d54931461042f5780636a62784214610437576101cf565b806330adf81f146103cb578063313ce567146103d35780633644e515146103f1576101cf565b8063095ea7b3116101ad578063095ea7b3146103175780630dfe16811461035757806318160ddd1461037b57806323b872dd14610395576101cf565b8063022c0d9f146101d457806306fdde03146102625780630902f1ac146102df575b600080fd5b610260600480360360808110156101ea57600080fd5b8135916020810135916001600160a01b03604083013516919081019060808101606082013564010000000081111561022157600080fd5b82018360208201111561023357600080fd5b8035906020019184600183028401116401000000008311171561025557600080fd5b50909250905061060e565b005b61026a610b49565b6040805160208082528351818301528351919283929083019185019080838360005b838110156102a457818101518382015260200161028c565b50505050905090810190601f1680156102d15780820380516001836020036101000a031916815260200191505b509250505060405180910390f35b6102e7610b6f565b604080516001600160701b03948516815292909316602083015263ffffffff168183015290519081900360600190f35b6103436004803603604081101561032d57600080fd5b506001600160a01b038135169060200135610b99565b604080519115158252519081900360200190f35b61035f610bb0565b604080516001600160a01b039092168252519081900360200190f35b610383610bbf565b60408051918252519081900360200190f35b610343600480360360608110156103ab57600080fd5b506001600160a01b03813581169160208101359091169060400135610bc5565b610383610c5f565b6103db610c83565b6040805160ff9092168252519081900360200190f35b610383610c88565b6102606004803603604081101561040f57600080fd5b506001600160a01b0381358116916020013516610c8e565b610383610d12565b610383610d18565b6103836004803603602081101561044d57600080fd5b50356001600160a01b0316610d1e565b6103836004803603602081101561047357600080fd5b50356001600160a01b031661101e565b610383611030565b610383600480360360208110156104a157600080fd5b50356001600160a01b0316611036565b6104d7600480360360208110156104c757600080fd5b50356001600160a01b0316611048565b6040805192835260208301919091528051918290030190f35b61026a6113ee565b6103436004803603604081101561050e57600080fd5b506001600160a01b038135169060200135611411565b61038361141e565b6102606004803603602081101561054257600080fd5b50356001600160a01b0316611424565b61035f61158f565b61035f61159e565b610260600480360360e081101561057857600080fd5b506001600160a01b03813581169160208101359091169060408101359060608101359060ff6080820135169060a08101359060c001356115ad565b610383600480360360408110156105c957600080fd5b506001600160a01b03813581169160200135166117af565b610260600480360360208110156105f757600080fd5b50356117cc565b610383611827565b61026061182d565b600d54600114610659576040805162461bcd60e51b8152602060048201526011602482015270109a5d1b1a5b59558c8e881313d0d2d151607a1b604482015290519081900360640190fd5b6000600d558415158061066c5750600084115b6106a75760405162461bcd60e51b815260040180806020018281038252602581526020018061228c6025913960400191505060405180910390fd5b6000806106b2610b6f565b5091509150816001600160701b0316871080156106d75750806001600160701b031686105b6107125760405162461bcd60e51b81526004018080602001828103825260218152602001806122d96021913960400191505060405180910390fd5b60075460085460009182916001600160a01b039182169190811690891682148015906107505750806001600160a01b0316896001600160a01b031614155b610799576040805162461bcd60e51b81526020600482015260156024820152744269746c696d6556323a20494e56414c49445f544f60581b604482015290519081900360640190fd5b8a156107aa576107aa828a8d61198f565b89156107bb576107bb818a8c61198f565b861561087657886001600160a01b03166342dc568e338d8d8c8c6040518663ffffffff1660e01b815260040180866001600160a01b03166001600160a01b03168152602001858152602001848152602001806020018281038252848482818152602001925080828437600081840152601f19601f8201169050808301925050509650505050505050600060405180830381600087803b15801561085d57600080fd5b505af1158015610871573d6000803e3d6000fd5b505050505b604080516370a0823160e01b815230600482015290516001600160a01b038416916370a08231916024808301926020929190829003018186803b1580156108bc57600080fd5b505afa1580156108d0573d6000803e3d6000fd5b505050506040513d60208110156108e657600080fd5b5051604080516370a0823160e01b815230600482015290519195506001600160a01b038316916370a0823191602480820192602092909190829003018186803b15801561093257600080fd5b505afa158015610946573d6000803e3d6000fd5b505050506040513d602081101561095c57600080fd5b5051925060009150506001600160701b0385168a9003831161097f57600061098e565b89856001600160701b03160383035b9050600089856001600160701b03160383116109ab5760006109ba565b89856001600160701b03160383035b905060008211806109cb5750600081115b610a065760405162461bcd60e51b81526004018080602001828103825260248152602001806122686024913960400191505060405180910390fd5b6000610a3a610a1c84601963ffffffff611b2916565b610a2e8761271063ffffffff611b2916565b9063ffffffff611b8c16565b90506000610a52610a1c84601963ffffffff611b2916565b9050610a83620f4240610a776001600160701b038b8116908b1663ffffffff611b2916565b9063ffffffff611b2916565b610a93838363ffffffff611b2916565b1015610ad5576040805162461bcd60e51b815260206004820152600c60248201526b4269746c696d6556323a204b60a01b604482015290519081900360640190fd5b5050610ae384848888611bdc565b60408051838152602081018390528082018d9052606081018c905290516001600160a01b038b169133917fd78ad95fa46c994b6551d0da85fc275fe613ce37657fb8d5e3d130840159d8229181900360800190a350506001600d55505050505050505050565b6040518060400160405280600a8152602001692134ba3634b6b2902b1960b11b81525081565b6009546001600160701b0380821692600160701b830490911691600160e01b900463ffffffff1690565b6000610ba6338484611da1565b5060015b92915050565b6007546001600160a01b031681565b60005481565b6001600160a01b038316600090815260026020908152604080832033845290915281205460001914610c4a576001600160a01b0384166000908152600260209081526040808320338452909152902054610c25908363ffffffff611b8c16565b6001600160a01b03851660009081526002602090815260408083203384529091529020555b610c55848484611e03565b5060019392505050565b7f6e71edae12b1b97f4d1f60370fef10105fa2faae0126114a169c64845d6126c981565b601281565b60035481565b6006546001600160a01b03163314610ce4576040805162461bcd60e51b81526020600482015260146024820152732134ba3634b6b2ab191d102327a92124a22222a760611b604482015290519081900360640190fd5b600780546001600160a01b039384166001600160a01b03199182161790915560088054929093169116179055565b600a5481565b600b5481565b6000600d54600114610d6b576040805162461bcd60e51b8152602060048201526011602482015270109a5d1b1a5b59558c8e881313d0d2d151607a1b604482015290519081900360640190fd5b6000600d81905580610d7b610b6f565b50600754604080516370a0823160e01b815230600482015290519395509193506000926001600160a01b03909116916370a08231916024808301926020929190829003018186803b158015610dcf57600080fd5b505afa158015610de3573d6000803e3d6000fd5b505050506040513d6020811015610df957600080fd5b5051600854604080516370a0823160e01b815230600482015290519293506000926001600160a01b03909216916370a0823191602480820192602092909190829003018186803b158015610e4c57600080fd5b505afa158015610e60573d6000803e3d6000fd5b505050506040513d6020811015610e7657600080fd5b505190506000610e95836001600160701b03871663ffffffff611b8c16565b90506000610eb2836001600160701b03871663ffffffff611b8c16565b90506000610ec08787611ebd565b60005490915080610efd57610ee96103e8610a2e610ee4878763ffffffff611b2916565b61201b565b9850610ef860006103e861206d565b610f4c565b610f496001600160701b038916610f1a868463ffffffff611b2916565b81610f2157fe5b046001600160701b038916610f3c868563ffffffff611b2916565b81610f4357fe5b04612103565b98505b60008911610f8b5760405162461bcd60e51b81526004018080602001828103825260288152602001806122406028913960400191505060405180910390fd5b610f958a8a61206d565b610fa186868a8a611bdc565b8115610fd157600954610fcd906001600160701b0380821691600160701b90041663ffffffff611b2916565b600c555b6040805185815260208101859052815133927f4c209b5fc8ad50758f13e2e1088ba56a560dff690a1c6fef26394f4c03821c4f928290030190a250506001600d5550949695505050505050565b60016020526000908152604090205481565b600c5481565b60046020526000908152604090205481565b600080600d54600114611096576040805162461bcd60e51b8152602060048201526011602482015270109a5d1b1a5b59558c8e881313d0d2d151607a1b604482015290519081900360640190fd5b6000600d819055806110a6610b6f565b50600754600854604080516370a0823160e01b815230600482015290519496509294506001600160a01b039182169391169160009184916370a08231916024808301926020929190829003018186803b15801561110257600080fd5b505afa158015611116573d6000803e3d6000fd5b505050506040513d602081101561112c57600080fd5b5051604080516370a0823160e01b815230600482015290519192506000916001600160a01b038516916370a08231916024808301926020929190829003018186803b15801561117a57600080fd5b505afa15801561118e573d6000803e3d6000fd5b505050506040513d60208110156111a457600080fd5b5051306000908152600160205260408120549192506111c38888611ebd565b600054909150806111da848763ffffffff611b2916565b816111e157fe5b049a50806111f5848663ffffffff611b2916565b816111fc57fe5b04995060008b11801561120f575060008a115b61124a5760405162461bcd60e51b81526004018080602001828103825260288152602001806122b16028913960400191505060405180910390fd5b611254308461211b565b61125f878d8d61198f565b61126a868d8c61198f565b604080516370a0823160e01b815230600482015290516001600160a01b038916916370a08231916024808301926020929190829003018186803b1580156112b057600080fd5b505afa1580156112c4573d6000803e3d6000fd5b505050506040513d60208110156112da57600080fd5b5051604080516370a0823160e01b815230600482015290519196506001600160a01b038816916370a0823191602480820192602092909190829003018186803b15801561132657600080fd5b505afa15801561133a573d6000803e3d6000fd5b505050506040513d602081101561135057600080fd5b5051935061136085858b8b611bdc565b81156113905760095461138c906001600160701b0380821691600160701b90041663ffffffff611b2916565b600c555b604080518c8152602081018c905281516001600160a01b038f169233927fdccd412f0b1252819cb1fd330b93224ca42612892bb3f4f789976e6d81936496929081900390910190a35050505050505050506001600d81905550915091565b604051806040016040528060078152602001662624a6a296ab1960c91b81525081565b6000610ba6338484611e03565b6103e881565b600d5460011461146f576040805162461bcd60e51b8152602060048201526011602482015270109a5d1b1a5b59558c8e881313d0d2d151607a1b604482015290519081900360640190fd5b6000600d55600754600854600954604080516370a0823160e01b815230600482015290516001600160a01b03948516949093169261151e9285928792611519926001600160701b03169185916370a0823191602480820192602092909190829003018186803b1580156114e157600080fd5b505afa1580156114f5573d6000803e3d6000fd5b505050506040513d602081101561150b57600080fd5b50519063ffffffff611b8c16565b61198f565b600954604080516370a0823160e01b81523060048201529051611585928492879261151992600160701b90046001600160701b0316916001600160a01b038616916370a0823191602480820192602092909190829003018186803b1580156114e157600080fd5b50506001600d5550565b6006546001600160a01b031681565b6008546001600160a01b031681565b428410156115f7576040805162461bcd60e51b8152602060048201526012602482015271109a5d1b1a5b59558c8e881156141254915160721b604482015290519081900360640190fd5b6003546001600160a01b0380891660008181526004602090815260408083208054600180820190925582517f6e71edae12b1b97f4d1f60370fef10105fa2faae0126114a169c64845d6126c98186015280840196909652958d166060860152608085018c905260a085019590955260c08085018b90528151808603909101815260e08501825280519083012061190160f01b6101008601526101028501969096526101228085019690965280518085039096018652610142840180825286519683019690962095839052610162840180825286905260ff89166101828501526101a284018890526101c28401879052519193926101e280820193601f1981019281900390910190855afa158015611712573d6000803e3d6000fd5b5050604051601f1901519150506001600160a01b038116158015906117485750886001600160a01b0316816001600160a01b0316145b611799576040805162461bcd60e51b815260206004820152601c60248201527f4269746c696d6556323a20494e56414c49445f5349474e415455524500000000604482015290519081900360640190fd5b6117a4898989611da1565b505050505050505050565b600260209081526000928352604080842090915290825290205481565b6006546001600160a01b03163314611822576040805162461bcd60e51b81526020600482015260146024820152732134ba3634b6b2ab191d102327a92124a22222a760611b604482015290519081900360640190fd5b600555565b60055481565b600d54600114611878576040805162461bcd60e51b8152602060048201526011602482015270109a5d1b1a5b59558c8e881313d0d2d151607a1b604482015290519081900360640190fd5b6000600d55600754604080516370a0823160e01b81523060048201529051611988926001600160a01b0316916370a08231916024808301926020929190829003018186803b1580156118c957600080fd5b505afa1580156118dd573d6000803e3d6000fd5b505050506040513d60208110156118f357600080fd5b5051600854604080516370a0823160e01b815230600482015290516001600160a01b03909216916370a0823191602480820192602092909190829003018186803b15801561194057600080fd5b505afa158015611954573d6000803e3d6000fd5b505050506040513d602081101561196a57600080fd5b50516009546001600160701b0380821691600160701b900416611bdc565b6001600d55565b604080518082018252601981527f7472616e7366657228616464726573732c75696e74323536290000000000000060209182015281516001600160a01b0385811660248301526044808301869052845180840390910181526064909201845291810180516001600160e01b031663a9059cbb60e01b1781529251815160009460609489169392918291908083835b60208310611a3c5780518252601f199092019160209182019101611a1d565b6001836020036101000a0380198251168184511680821785525050505050509050019150506000604051808303816000865af19150503d8060008114611a9e576040519150601f19603f3d011682016040523d82523d6000602084013e611aa3565b606091505b5091509150818015611ad1575080511580611ad15750808060200190516020811015611ace57600080fd5b50515b611b22576040805162461bcd60e51b815260206004820152601a60248201527f4269746c696d6556323a205452414e534645525f4641494c4544000000000000604482015290519081900360640190fd5b5050505050565b6000811580611b4457505080820282828281611b4157fe5b04145b610baa576040805162461bcd60e51b815260206004820152601460248201527364732d6d6174682d6d756c2d6f766572666c6f7760601b604482015290519081900360640190fd5b80820382811115610baa576040805162461bcd60e51b815260206004820152601560248201527464732d6d6174682d7375622d756e646572666c6f7760581b604482015290519081900360640190fd5b6001600160701b038411801590611bfa57506001600160701b038311155b611c41576040805162461bcd60e51b81526020600482015260136024820152724269746c696d6556323a204f564552464c4f5760681b604482015290519081900360640190fd5b60095463ffffffff42811691600160e01b90048116820390811615801590611c7157506001600160701b03841615155b8015611c8557506001600160701b03831615155b15611cf6578063ffffffff16611cb385611c9e866121b9565b6001600160e01b03169063ffffffff6121cb16565b600a80546001600160e01b03929092169290920201905563ffffffff8116611cde84611c9e876121b9565b600b80546001600160e01b0392909216929092020190555b600980546dffffffffffffffffffffffffffff19166001600160701b03888116919091176dffffffffffffffffffffffffffff60701b1916600160701b8883168102919091176001600160e01b0316600160e01b63ffffffff871602179283905560408051848416815291909304909116602082015281517f1c411e9a96e071241c2f21f7726b17ae89e3cab4c78be50e062b03a9fffbbad1929181900390910190a1505050505050565b6001600160a01b03808416600081815260026020908152604080832094871680845294825291829020859055815185815291517f8c5be1e5ebec7d5bd14f71427d1e84f3dd0314c0f7b2291e5b200ac8c7c3b9259281900390910190a3505050565b6001600160a01b038316600090815260016020526040902054611e2c908263ffffffff611b8c16565b6001600160a01b038085166000908152600160205260408082209390935590841681522054611e61908263ffffffff6121f016565b6001600160a01b0380841660008181526001602090815260409182902094909455805185815290519193928716927fddf252ad1be2c89b69c2b068fc378daa952ba7f163c4a11628f55a4df523b3ef92918290030190a3505050565b600080600660009054906101000a90046001600160a01b03166001600160a01b031663017e7e586040518163ffffffff1660e01b815260040160206040518083038186803b158015611f0e57600080fd5b505afa158015611f22573d6000803e3d6000fd5b505050506040513d6020811015611f3857600080fd5b5051600c546001600160a01b038216158015945091925090612007578015612002576000611f7b610ee46001600160701b0388811690881663ffffffff611b2916565b90506000611f888361201b565b905080821115611fff576000611fb6611fa7848463ffffffff611b8c16565b6000549063ffffffff611b2916565b90506000611fdb83611fcf86600563ffffffff611b2916565b9063ffffffff6121f016565b90506000818381611fe857fe5b0490508015611ffb57611ffb878261206d565b5050505b50505b612013565b8015612013576000600c555b505092915050565b6000600382111561205e575080600160028204015b818110156120585780915060028182858161204757fe5b04018161205057fe5b049050612030565b50612068565b8115612068575060015b919050565b600054612080908263ffffffff6121f016565b60009081556001600160a01b0383168152600160205260409020546120ab908263ffffffff6121f016565b6001600160a01b03831660008181526001602090815260408083209490945583518581529351929391927fddf252ad1be2c89b69c2b068fc378daa952ba7f163c4a11628f55a4df523b3ef9281900390910190a35050565b60008183106121125781612114565b825b9392505050565b6001600160a01b038216600090815260016020526040902054612144908263ffffffff611b8c16565b6001600160a01b03831660009081526001602052604081209190915554612171908263ffffffff611b8c16565b60009081556040805183815290516001600160a01b038516917fddf252ad1be2c89b69c2b068fc378daa952ba7f163c4a11628f55a4df523b3ef919081900360200190a35050565b6001600160701b0316600160701b0290565b60006001600160701b0382166001600160e01b038416816121e857fe5b049392505050565b80820182811015610baa576040805162461bcd60e51b815260206004820152601460248201527364732d6d6174682d6164642d6f766572666c6f7760601b604482015290519081900360640190fdfe4269746c696d6556323a20494e53554646494349454e545f4c49515549444954595f4d494e5445444269746c696d6556323a20494e53554646494349454e545f494e5055545f414d4f554e544269746c696d6556323a20494e53554646494349454e545f4f55545055545f414d4f554e544269746c696d6556323a20494e53554646494349454e545f4c49515549444954595f4255524e45444269746c696d6556323a20494e53554646494349454e545f4c4951554944495459a265627a7a72315820934a29c98683750cca349e1d238195352e766ae1fa881a9817c977325ae28ff764736f6c63430005100032454950373132446f6d61696e28737472696e67206e616d652c737472696e672076657273696f6e2c75696e7432353620636861696e49642c6164647265737320766572696679696e67436f6e747261637429",
					"opcodes": "PUSH1 0x80 PUSH1 0x40 MSTORE PUSH1 0x1 PUSH1 0xD SSTORE CALLVALUE DUP1 ISZERO PUSH2 0x15 JUMPI PUSH1 0x0 DUP1 REVERT JUMPDEST POP PUSH1 0x40 MLOAD PUSH2 0x24AC CODESIZE SUB DUP1 PUSH2 0x24AC DUP4 CODECOPY DUP2 DUP2 ADD PUSH1 0x40 MSTORE PUSH1 0x20 DUP2 LT ISZERO PUSH2 0x38 JUMPI PUSH1 0x0 DUP1 REVERT JUMPDEST POP MLOAD PUSH1 0x40 MLOAD CHAINID SWAP1 DUP1 PUSH1 0x52 PUSH2 0x245A DUP3 CODECOPY PUSH1 0x40 DUP1 MLOAD SWAP2 DUP3 SWAP1 SUB PUSH1 0x52 ADD DUP3 KECCAK256 DUP3 DUP3 ADD DUP3 MSTORE PUSH1 0xA DUP4 MSTORE PUSH10 0x2134BA3634B6B2902B19 PUSH1 0xB1 SHL PUSH1 0x20 SWAP4 DUP5 ADD MSTORE DUP2 MLOAD DUP1 DUP4 ADD DUP4 MSTORE PUSH1 0x1 DUP2 MSTORE PUSH1 0x31 PUSH1 0xF8 SHL SWAP1 DUP5 ADD MSTORE DUP2 MLOAD DUP1 DUP5 ADD SWAP2 SWAP1 SWAP2 MSTORE PUSH32 0x446E80230380561D906573D2B5DBFC9FADB3F5ADEE8411E56A4C6511D92876E3 DUP2 DUP4 ADD MSTORE PUSH32 0xC89EFDAA54C0F20C7ADF612882DF0950F5A951637E0307CDCB4C672F298B8BC6 PUSH1 0x60 DUP3 ADD MSTORE PUSH1 0x80 DUP2 ADD SWAP5 SWAP1 SWAP5 MSTORE ADDRESS PUSH1 0xA0 DUP1 DUP7 ADD SWAP2 SWAP1 SWAP2 MSTORE DUP2 MLOAD DUP1 DUP7 SUB SWAP1 SWAP2 ADD DUP2 MSTORE PUSH1 0xC0 SWAP1 SWAP5 ADD SWAP1 MSTORE DUP3 MLOAD SWAP3 ADD SWAP2 SWAP1 SWAP2 KECCAK256 PUSH1 0x3 SSTORE POP PUSH1 0x6 DUP1 SLOAD PUSH1 0x1 PUSH1 0x1 PUSH1 0xA0 SHL SUB NOT AND CALLER OR SWAP1 SSTORE PUSH1 0x5 SSTORE PUSH2 0x232E DUP1 PUSH2 0x12C PUSH1 0x0 CODECOPY PUSH1 0x0 RETURN INVALID PUSH1 0x80 PUSH1 0x40 MSTORE CALLVALUE DUP1 ISZERO PUSH2 0x10 JUMPI PUSH1 0x0 DUP1 REVERT JUMPDEST POP PUSH1 0x4 CALLDATASIZE LT PUSH2 0x1CF JUMPI PUSH1 0x0 CALLDATALOAD PUSH1 0xE0 SHR DUP1 PUSH4 0x70A08231 GT PUSH2 0x104 JUMPI DUP1 PUSH4 0xBC25CF77 GT PUSH2 0xA2 JUMPI DUP1 PUSH4 0xDD62ED3E GT PUSH2 0x71 JUMPI DUP1 PUSH4 0xDD62ED3E EQ PUSH2 0x5B3 JUMPI DUP1 PUSH4 0xDF922F3A EQ PUSH2 0x5E1 JUMPI DUP1 PUSH4 0xE1489191 EQ PUSH2 0x5FE JUMPI DUP1 PUSH4 0xFFF6CAE9 EQ PUSH2 0x606 JUMPI PUSH2 0x1CF JUMP JUMPDEST DUP1 PUSH4 0xBC25CF77 EQ PUSH2 0x52C JUMPI DUP1 PUSH4 0xC45A0155 EQ PUSH2 0x552 JUMPI DUP1 PUSH4 0xD21220A7 EQ PUSH2 0x55A JUMPI DUP1 PUSH4 0xD505ACCF EQ PUSH2 0x562 JUMPI PUSH2 0x1CF JUMP JUMPDEST DUP1 PUSH4 0x89AFCB44 GT PUSH2 0xDE JUMPI DUP1 PUSH4 0x89AFCB44 EQ PUSH2 0x4B1 JUMPI DUP1 PUSH4 0x95D89B41 EQ PUSH2 0x4F0 JUMPI DUP1 PUSH4 0xA9059CBB EQ PUSH2 0x4F8 JUMPI DUP1 PUSH4 0xBA9A7A56 EQ PUSH2 0x524 JUMPI PUSH2 0x1CF JUMP JUMPDEST DUP1 PUSH4 0x70A08231 EQ PUSH2 0x45D JUMPI DUP1 PUSH4 0x7464FC3D EQ PUSH2 0x483 JUMPI DUP1 PUSH4 0x7ECEBE00 EQ PUSH2 0x48B JUMPI PUSH2 0x1CF JUMP JUMPDEST DUP1 PUSH4 0x30ADF81F GT PUSH2 0x171 JUMPI DUP1 PUSH4 0x485CC955 GT PUSH2 0x14B JUMPI DUP1 PUSH4 0x485CC955 EQ PUSH2 0x3F9 JUMPI DUP1 PUSH4 0x5909C0D5 EQ PUSH2 0x427 JUMPI DUP1 PUSH4 0x5A3D5493 EQ PUSH2 0x42F JUMPI DUP1 PUSH4 0x6A627842 EQ PUSH2 0x437 JUMPI PUSH2 0x1CF JUMP JUMPDEST DUP1 PUSH4 0x30ADF81F EQ PUSH2 0x3CB JUMPI DUP1 PUSH4 0x313CE567 EQ PUSH2 0x3D3 JUMPI DUP1 PUSH4 0x3644E515 EQ PUSH2 0x3F1 JUMPI PUSH2 0x1CF JUMP JUMPDEST DUP1 PUSH4 0x95EA7B3 GT PUSH2 0x1AD JUMPI DUP1 PUSH4 0x95EA7B3 EQ PUSH2 0x317 JUMPI DUP1 PUSH4 0xDFE1681 EQ PUSH2 0x357 JUMPI DUP1 PUSH4 0x18160DDD EQ PUSH2 0x37B JUMPI DUP1 PUSH4 0x23B872DD EQ PUSH2 0x395 JUMPI PUSH2 0x1CF JUMP JUMPDEST DUP1 PUSH4 0x22C0D9F EQ PUSH2 0x1D4 JUMPI DUP1 PUSH4 0x6FDDE03 EQ PUSH2 0x262 JUMPI DUP1 PUSH4 0x902F1AC EQ PUSH2 0x2DF JUMPI JUMPDEST PUSH1 0x0 DUP1 REVERT JUMPDEST PUSH2 0x260 PUSH1 0x4 DUP1 CALLDATASIZE SUB PUSH1 0x80 DUP2 LT ISZERO PUSH2 0x1EA JUMPI PUSH1 0x0 DUP1 REVERT JUMPDEST DUP2 CALLDATALOAD SWAP2 PUSH1 0x20 DUP2 ADD CALLDATALOAD SWAP2 PUSH1 0x1 PUSH1 0x1 PUSH1 0xA0 SHL SUB PUSH1 0x40 DUP4 ADD CALLDATALOAD AND SWAP2 SWAP1 DUP2 ADD SWAP1 PUSH1 0x80 DUP2 ADD PUSH1 0x60 DUP3 ADD CALLDATALOAD PUSH5 0x100000000 DUP2 GT ISZERO PUSH2 0x221 JUMPI PUSH1 0x0 DUP1 REVERT JUMPDEST DUP3 ADD DUP4 PUSH1 0x20 DUP3 ADD GT ISZERO PUSH2 0x233 JUMPI PUSH1 0x0 DUP1 REVERT JUMPDEST DUP1 CALLDATALOAD SWAP1 PUSH1 0x20 ADD SWAP2 DUP5 PUSH1 0x1 DUP4 MUL DUP5 ADD GT PUSH5 0x100000000 DUP4 GT OR ISZERO PUSH2 0x255 JUMPI PUSH1 0x0 DUP1 REVERT JUMPDEST POP SWAP1 SWAP3 POP SWAP1 POP PUSH2 0x60E JUMP JUMPDEST STOP JUMPDEST PUSH2 0x26A PUSH2 0xB49 JUMP JUMPDEST PUSH1 0x40 DUP1 MLOAD PUSH1 0x20 DUP1 DUP3 MSTORE DUP4 MLOAD DUP2 DUP4 ADD MSTORE DUP4 MLOAD SWAP2 SWAP3 DUP4 SWAP3 SWAP1 DUP4 ADD SWAP2 DUP6 ADD SWAP1 DUP1 DUP4 DUP4 PUSH1 0x0 JUMPDEST DUP4 DUP2 LT ISZERO PUSH2 0x2A4 JUMPI DUP2 DUP2 ADD MLOAD DUP4 DUP3 ADD MSTORE PUSH1 0x20 ADD PUSH2 0x28C JUMP JUMPDEST POP POP POP POP SWAP1 POP SWAP1 DUP2 ADD SWAP1 PUSH1 0x1F AND DUP1 ISZERO PUSH2 0x2D1 JUMPI DUP1 DUP3 SUB DUP1 MLOAD PUSH1 0x1 DUP4 PUSH1 0x20 SUB PUSH2 0x100 EXP SUB NOT AND DUP2 MSTORE PUSH1 0x20 ADD SWAP2 POP JUMPDEST POP SWAP3 POP POP POP PUSH1 0x40 MLOAD DUP1 SWAP2 SUB SWAP1 RETURN JUMPDEST PUSH2 0x2E7 PUSH2 0xB6F JUMP JUMPDEST PUSH1 0x40 DUP1 MLOAD PUSH1 0x1 PUSH1 0x1 PUSH1 0x70 SHL SUB SWAP5 DUP6 AND DUP2 MSTORE SWAP3 SWAP1 SWAP4 AND PUSH1 0x20 DUP4 ADD MSTORE PUSH4 0xFFFFFFFF AND DUP2 DUP4 ADD MSTORE SWAP1 MLOAD SWAP1 DUP2 SWAP1 SUB PUSH1 0x60 ADD SWAP1 RETURN JUMPDEST PUSH2 0x343 PUSH1 0x4 DUP1 CALLDATASIZE SUB PUSH1 0x40 DUP2 LT ISZERO PUSH2 0x32D JUMPI PUSH1 0x0 DUP1 REVERT JUMPDEST POP PUSH1 0x1 PUSH1 0x1 PUSH1 0xA0 SHL SUB DUP2 CALLDATALOAD AND SWAP1 PUSH1 0x20 ADD CALLDATALOAD PUSH2 0xB99 JUMP JUMPDEST PUSH1 0x40 DUP1 MLOAD SWAP2 ISZERO ISZERO DUP3 MSTORE MLOAD SWAP1 DUP2 SWAP1 SUB PUSH1 0x20 ADD SWAP1 RETURN JUMPDEST PUSH2 0x35F PUSH2 0xBB0 JUMP JUMPDEST PUSH1 0x40 DUP1 MLOAD PUSH1 0x1 PUSH1 0x1 PUSH1 0xA0 SHL SUB SWAP1 SWAP3 AND DUP3 MSTORE MLOAD SWAP1 DUP2 SWAP1 SUB PUSH1 0x20 ADD SWAP1 RETURN JUMPDEST PUSH2 0x383 PUSH2 0xBBF JUMP JUMPDEST PUSH1 0x40 DUP1 MLOAD SWAP2 DUP3 MSTORE MLOAD SWAP1 DUP2 SWAP1 SUB PUSH1 0x20 ADD SWAP1 RETURN JUMPDEST PUSH2 0x343 PUSH1 0x4 DUP1 CALLDATASIZE SUB PUSH1 0x60 DUP2 LT ISZERO PUSH2 0x3AB JUMPI PUSH1 0x0 DUP1 REVERT JUMPDEST POP PUSH1 0x1 PUSH1 0x1 PUSH1 0xA0 SHL SUB DUP2 CALLDATALOAD DUP2 AND SWAP2 PUSH1 0x20 DUP2 ADD CALLDATALOAD SWAP1 SWAP2 AND SWAP1 PUSH1 0x40 ADD CALLDATALOAD PUSH2 0xBC5 JUMP JUMPDEST PUSH2 0x383 PUSH2 0xC5F JUMP JUMPDEST PUSH2 0x3DB PUSH2 0xC83 JUMP JUMPDEST PUSH1 0x40 DUP1 MLOAD PUSH1 0xFF SWAP1 SWAP3 AND DUP3 MSTORE MLOAD SWAP1 DUP2 SWAP1 SUB PUSH1 0x20 ADD SWAP1 RETURN JUMPDEST PUSH2 0x383 PUSH2 0xC88 JUMP JUMPDEST PUSH2 0x260 PUSH1 0x4 DUP1 CALLDATASIZE SUB PUSH1 0x40 DUP2 LT ISZERO PUSH2 0x40F JUMPI PUSH1 0x0 DUP1 REVERT JUMPDEST POP PUSH1 0x1 PUSH1 0x1 PUSH1 0xA0 SHL SUB DUP2 CALLDATALOAD DUP2 AND SWAP2 PUSH1 0x20 ADD CALLDATALOAD AND PUSH2 0xC8E JUMP JUMPDEST PUSH2 0x383 PUSH2 0xD12 JUMP JUMPDEST PUSH2 0x383 PUSH2 0xD18 JUMP JUMPDEST PUSH2 0x383 PUSH1 0x4 DUP1 CALLDATASIZE SUB PUSH1 0x20 DUP2 LT ISZERO PUSH2 0x44D JUMPI PUSH1 0x0 DUP1 REVERT JUMPDEST POP CALLDATALOAD PUSH1 0x1 PUSH1 0x1 PUSH1 0xA0 SHL SUB AND PUSH2 0xD1E JUMP JUMPDEST PUSH2 0x383 PUSH1 0x4 DUP1 CALLDATASIZE SUB PUSH1 0x20 DUP2 LT ISZERO PUSH2 0x473 JUMPI PUSH1 0x0 DUP1 REVERT JUMPDEST POP CALLDATALOAD PUSH1 0x1 PUSH1 0x1 PUSH1 0xA0 SHL SUB AND PUSH2 0x101E JUMP JUMPDEST PUSH2 0x383 PUSH2 0x1030 JUMP JUMPDEST PUSH2 0x383 PUSH1 0x4 DUP1 CALLDATASIZE SUB PUSH1 0x20 DUP2 LT ISZERO PUSH2 0x4A1 JUMPI PUSH1 0x0 DUP1 REVERT JUMPDEST POP CALLDATALOAD PUSH1 0x1 PUSH1 0x1 PUSH1 0xA0 SHL SUB AND PUSH2 0x1036 JUMP JUMPDEST PUSH2 0x4D7 PUSH1 0x4 DUP1 CALLDATASIZE SUB PUSH1 0x20 DUP2 LT ISZERO PUSH2 0x4C7 JUMPI PUSH1 0x0 DUP1 REVERT JUMPDEST POP CALLDATALOAD PUSH1 0x1 PUSH1 0x1 PUSH1 0xA0 SHL SUB AND PUSH2 0x1048 JUMP JUMPDEST PUSH1 0x40 DUP1 MLOAD SWAP3 DUP4 MSTORE PUSH1 0x20 DUP4 ADD SWAP2 SWAP1 SWAP2 MSTORE DUP1 MLOAD SWAP2 DUP3 SWAP1 SUB ADD SWAP1 RETURN JUMPDEST PUSH2 0x26A PUSH2 0x13EE JUMP JUMPDEST PUSH2 0x343 PUSH1 0x4 DUP1 CALLDATASIZE SUB PUSH1 0x40 DUP2 LT ISZERO PUSH2 0x50E JUMPI PUSH1 0x0 DUP1 REVERT JUMPDEST POP PUSH1 0x1 PUSH1 0x1 PUSH1 0xA0 SHL SUB DUP2 CALLDATALOAD AND SWAP1 PUSH1 0x20 ADD CALLDATALOAD PUSH2 0x1411 JUMP JUMPDEST PUSH2 0x383 PUSH2 0x141E JUMP JUMPDEST PUSH2 0x260 PUSH1 0x4 DUP1 CALLDATASIZE SUB PUSH1 0x20 DUP2 LT ISZERO PUSH2 0x542 JUMPI PUSH1 0x0 DUP1 REVERT JUMPDEST POP CALLDATALOAD PUSH1 0x1 PUSH1 0x1 PUSH1 0xA0 SHL SUB AND PUSH2 0x1424 JUMP JUMPDEST PUSH2 0x35F PUSH2 0x158F JUMP JUMPDEST PUSH2 0x35F PUSH2 0x159E JUMP JUMPDEST PUSH2 0x260 PUSH1 0x4 DUP1 CALLDATASIZE SUB PUSH1 0xE0 DUP2 LT ISZERO PUSH2 0x578 JUMPI PUSH1 0x0 DUP1 REVERT JUMPDEST POP PUSH1 0x1 PUSH1 0x1 PUSH1 0xA0 SHL SUB DUP2 CALLDATALOAD DUP2 AND SWAP2 PUSH1 0x20 DUP2 ADD CALLDATALOAD SWAP1 SWAP2 AND SWAP1 PUSH1 0x40 DUP2 ADD CALLDATALOAD SWAP1 PUSH1 0x60 DUP2 ADD CALLDATALOAD SWAP1 PUSH1 0xFF PUSH1 0x80 DUP3 ADD CALLDATALOAD AND SWAP1 PUSH1 0xA0 DUP2 ADD CALLDATALOAD SWAP1 PUSH1 0xC0 ADD CALLDATALOAD PUSH2 0x15AD JUMP JUMPDEST PUSH2 0x383 PUSH1 0x4 DUP1 CALLDATASIZE SUB PUSH1 0x40 DUP2 LT ISZERO PUSH2 0x5C9 JUMPI PUSH1 0x0 DUP1 REVERT JUMPDEST POP PUSH1 0x1 PUSH1 0x1 PUSH1 0xA0 SHL SUB DUP2 CALLDATALOAD DUP2 AND SWAP2 PUSH1 0x20 ADD CALLDATALOAD AND PUSH2 0x17AF JUMP JUMPDEST PUSH2 0x260 PUSH1 0x4 DUP1 CALLDATASIZE SUB PUSH1 0x20 DUP2 LT ISZERO PUSH2 0x5F7 JUMPI PUSH1 0x0 DUP1 REVERT JUMPDEST POP CALLDATALOAD PUSH2 0x17CC JUMP JUMPDEST PUSH2 0x383 PUSH2 0x1827 JUMP JUMPDEST PUSH2 0x260 PUSH2 0x182D JUMP JUMPDEST PUSH1 0xD SLOAD PUSH1 0x1 EQ PUSH2 0x659 JUMPI PUSH1 0x40 DUP1 MLOAD PUSH3 0x461BCD PUSH1 0xE5 SHL DUP2 MSTORE PUSH1 0x20 PUSH1 0x4 DUP3 ADD MSTORE PUSH1 0x11 PUSH1 0x24 DUP3 ADD MSTORE PUSH17 0x109A5D1B1A5B59558C8E881313D0D2D151 PUSH1 0x7A SHL PUSH1 0x44 DUP3 ADD MSTORE SWAP1 MLOAD SWAP1 DUP2 SWAP1 SUB PUSH1 0x64 ADD SWAP1 REVERT JUMPDEST PUSH1 0x0 PUSH1 0xD SSTORE DUP5 ISZERO ISZERO DUP1 PUSH2 0x66C JUMPI POP PUSH1 0x0 DUP5 GT JUMPDEST PUSH2 0x6A7 JUMPI PUSH1 0x40 MLOAD PUSH3 0x461BCD PUSH1 0xE5 SHL DUP2 MSTORE PUSH1 0x4 ADD DUP1 DUP1 PUSH1 0x20 ADD DUP3 DUP2 SUB DUP3 MSTORE PUSH1 0x25 DUP2 MSTORE PUSH1 0x20 ADD DUP1 PUSH2 0x228C PUSH1 0x25 SWAP2 CODECOPY PUSH1 0x40 ADD SWAP2 POP POP PUSH1 0x40 MLOAD DUP1 SWAP2 SUB SWAP1 REVERT JUMPDEST PUSH1 0x0 DUP1 PUSH2 0x6B2 PUSH2 0xB6F JUMP JUMPDEST POP SWAP2 POP SWAP2 POP DUP2 PUSH1 0x1 PUSH1 0x1 PUSH1 0x70 SHL SUB AND DUP8 LT DUP1 ISZERO PUSH2 0x6D7 JUMPI POP DUP1 PUSH1 0x1 PUSH1 0x1 PUSH1 0x70 SHL SUB AND DUP7 LT JUMPDEST PUSH2 0x712 JUMPI PUSH1 0x40 MLOAD PUSH3 0x461BCD PUSH1 0xE5 SHL DUP2 MSTORE PUSH1 0x4 ADD DUP1 DUP1 PUSH1 0x20 ADD DUP3 DUP2 SUB DUP3 MSTORE PUSH1 0x21 DUP2 MSTORE PUSH1 0x20 ADD DUP1 PUSH2 0x22D9 PUSH1 0x21 SWAP2 CODECOPY PUSH1 0x40 ADD SWAP2 POP POP PUSH1 0x40 MLOAD DUP1 SWAP2 SUB SWAP1 REVERT JUMPDEST PUSH1 0x7 SLOAD PUSH1 0x8 SLOAD PUSH1 0x0 SWAP2 DUP3 SWAP2 PUSH1 0x1 PUSH1 0x1 PUSH1 0xA0 SHL SUB SWAP2 DUP3 AND SWAP2 SWAP1 DUP2 AND SWAP1 DUP10 AND DUP3 EQ DUP1 ISZERO SWAP1 PUSH2 0x750 JUMPI POP DUP1 PUSH1 0x1 PUSH1 0x1 PUSH1 0xA0 SHL SUB AND DUP10 PUSH1 0x1 PUSH1 0x1 PUSH1 0xA0 SHL SUB AND EQ ISZERO JUMPDEST PUSH2 0x799 JUMPI PUSH1 0x40 DUP1 MLOAD PUSH3 0x461BCD PUSH1 0xE5 SHL DUP2 MSTORE PUSH1 0x20 PUSH1 0x4 DUP3 ADD MSTORE PUSH1 0x15 PUSH1 0x24 DUP3 ADD MSTORE PUSH21 0x4269746C696D6556323A20494E56414C49445F544F PUSH1 0x58 SHL PUSH1 0x44 DUP3 ADD MSTORE SWAP1 MLOAD SWAP1 DUP2 SWAP1 SUB PUSH1 0x64 ADD SWAP1 REVERT JUMPDEST DUP11 ISZERO PUSH2 0x7AA JUMPI PUSH2 0x7AA DUP3 DUP11 DUP14 PUSH2 0x198F JUMP JUMPDEST DUP10 ISZERO PUSH2 0x7BB JUMPI PUSH2 0x7BB DUP2 DUP11 DUP13 PUSH2 0x198F JUMP JUMPDEST DUP7 ISZERO PUSH2 0x876 JUMPI DUP9 PUSH1 0x1 PUSH1 0x1 PUSH1 0xA0 SHL SUB AND PUSH4 0x42DC568E CALLER DUP14 DUP14 DUP13 DUP13 PUSH1 0x40 MLOAD DUP7 PUSH4 0xFFFFFFFF AND PUSH1 0xE0 SHL DUP2 MSTORE PUSH1 0x4 ADD DUP1 DUP7 PUSH1 0x1 PUSH1 0x1 PUSH1 0xA0 SHL SUB AND PUSH1 0x1 PUSH1 0x1 PUSH1 0xA0 SHL SUB AND DUP2 MSTORE PUSH1 0x20 ADD DUP6 DUP2 MSTORE PUSH1 0x20 ADD DUP5 DUP2 MSTORE PUSH1 0x20 ADD DUP1 PUSH1 0x20 ADD DUP3 DUP2 SUB DUP3 MSTORE DUP5 DUP5 DUP3 DUP2 DUP2 MSTORE PUSH1 0x20 ADD SWAP3 POP DUP1 DUP3 DUP5 CALLDATACOPY PUSH1 0x0 DUP2 DUP5 ADD MSTORE PUSH1 0x1F NOT PUSH1 0x1F DUP3 ADD AND SWAP1 POP DUP1 DUP4 ADD SWAP3 POP POP POP SWAP7 POP POP POP POP POP POP POP PUSH1 0x0 PUSH1 0x40 MLOAD DUP1 DUP4 SUB DUP2 PUSH1 0x0 DUP8 DUP1 EXTCODESIZE ISZERO DUP1 ISZERO PUSH2 0x85D JUMPI PUSH1 0x0 DUP1 REVERT JUMPDEST POP GAS CALL ISZERO DUP1 ISZERO PUSH2 0x871 JUMPI RETURNDATASIZE PUSH1 0x0 DUP1 RETURNDATACOPY RETURNDATASIZE PUSH1 0x0 REVERT JUMPDEST POP POP POP POP JUMPDEST PUSH1 0x40 DUP1 MLOAD PUSH4 0x70A08231 PUSH1 0xE0 SHL DUP2 MSTORE ADDRESS PUSH1 0x4 DUP3 ADD MSTORE SWAP1 MLOAD PUSH1 0x1 PUSH1 0x1 PUSH1 0xA0 SHL SUB DUP5 AND SWAP2 PUSH4 0x70A08231 SWAP2 PUSH1 0x24 DUP1 DUP4 ADD SWAP3 PUSH1 0x20 SWAP3 SWAP2 SWAP1 DUP3 SWAP1 SUB ADD DUP2 DUP7 DUP1 EXTCODESIZE ISZERO DUP1 ISZERO PUSH2 0x8BC JUMPI PUSH1 0x0 DUP1 REVERT JUMPDEST POP GAS STATICCALL ISZERO DUP1 ISZERO PUSH2 0x8D0 JUMPI RETURNDATASIZE PUSH1 0x0 DUP1 RETURNDATACOPY RETURNDATASIZE PUSH1 0x0 REVERT JUMPDEST POP POP POP POP PUSH1 0x40 MLOAD RETURNDATASIZE PUSH1 0x20 DUP2 LT ISZERO PUSH2 0x8E6 JUMPI PUSH1 0x0 DUP1 REVERT JUMPDEST POP MLOAD PUSH1 0x40 DUP1 MLOAD PUSH4 0x70A08231 PUSH1 0xE0 SHL DUP2 MSTORE ADDRESS PUSH1 0x4 DUP3 ADD MSTORE SWAP1 MLOAD SWAP2 SWAP6 POP PUSH1 0x1 PUSH1 0x1 PUSH1 0xA0 SHL SUB DUP4 AND SWAP2 PUSH4 0x70A08231 SWAP2 PUSH1 0x24 DUP1 DUP3 ADD SWAP3 PUSH1 0x20 SWAP3 SWAP1 SWAP2 SWAP1 DUP3 SWAP1 SUB ADD DUP2 DUP7 DUP1 EXTCODESIZE ISZERO DUP1 ISZERO PUSH2 0x932 JUMPI PUSH1 0x0 DUP1 REVERT JUMPDEST POP GAS STATICCALL ISZERO DUP1 ISZERO PUSH2 0x946 JUMPI RETURNDATASIZE PUSH1 0x0 DUP1 RETURNDATACOPY RETURNDATASIZE PUSH1 0x0 REVERT JUMPDEST POP POP POP POP PUSH1 0x40 MLOAD RETURNDATASIZE PUSH1 0x20 DUP2 LT ISZERO PUSH2 0x95C JUMPI PUSH1 0x0 DUP1 REVERT JUMPDEST POP MLOAD SWAP3 POP PUSH1 0x0 SWAP2 POP POP PUSH1 0x1 PUSH1 0x1 PUSH1 0x70 SHL SUB DUP6 AND DUP11 SWAP1 SUB DUP4 GT PUSH2 0x97F JUMPI PUSH1 0x0 PUSH2 0x98E JUMP JUMPDEST DUP10 DUP6 PUSH1 0x1 PUSH1 0x1 PUSH1 0x70 SHL SUB AND SUB DUP4 SUB JUMPDEST SWAP1 POP PUSH1 0x0 DUP10 DUP6 PUSH1 0x1 PUSH1 0x1 PUSH1 0x70 SHL SUB AND SUB DUP4 GT PUSH2 0x9AB JUMPI PUSH1 0x0 PUSH2 0x9BA JUMP JUMPDEST DUP10 DUP6 PUSH1 0x1 PUSH1 0x1 PUSH1 0x70 SHL SUB AND SUB DUP4 SUB JUMPDEST SWAP1 POP PUSH1 0x0 DUP3 GT DUP1 PUSH2 0x9CB JUMPI POP PUSH1 0x0 DUP2 GT JUMPDEST PUSH2 0xA06 JUMPI PUSH1 0x40 MLOAD PUSH3 0x461BCD PUSH1 0xE5 SHL DUP2 MSTORE PUSH1 0x4 ADD DUP1 DUP1 PUSH1 0x20 ADD DUP3 DUP2 SUB DUP3 MSTORE PUSH1 0x24 DUP2 MSTORE PUSH1 0x20 ADD DUP1 PUSH2 0x2268 PUSH1 0x24 SWAP2 CODECOPY PUSH1 0x40 ADD SWAP2 POP POP PUSH1 0x40 MLOAD DUP1 SWAP2 SUB SWAP1 REVERT JUMPDEST PUSH1 0x0 PUSH2 0xA3A PUSH2 0xA1C DUP5 PUSH1 0x19 PUSH4 0xFFFFFFFF PUSH2 0x1B29 AND JUMP JUMPDEST PUSH2 0xA2E DUP8 PUSH2 0x2710 PUSH4 0xFFFFFFFF PUSH2 0x1B29 AND JUMP JUMPDEST SWAP1 PUSH4 0xFFFFFFFF PUSH2 0x1B8C AND JUMP JUMPDEST SWAP1 POP PUSH1 0x0 PUSH2 0xA52 PUSH2 0xA1C DUP5 PUSH1 0x19 PUSH4 0xFFFFFFFF PUSH2 0x1B29 AND JUMP JUMPDEST SWAP1 POP PUSH2 0xA83 PUSH3 0xF4240 PUSH2 0xA77 PUSH1 0x1 PUSH1 0x1 PUSH1 0x70 SHL SUB DUP12 DUP2 AND SWAP1 DUP12 AND PUSH4 0xFFFFFFFF PUSH2 0x1B29 AND JUMP JUMPDEST SWAP1 PUSH4 0xFFFFFFFF PUSH2 0x1B29 AND JUMP JUMPDEST PUSH2 0xA93 DUP4 DUP4 PUSH4 0xFFFFFFFF PUSH2 0x1B29 AND JUMP JUMPDEST LT ISZERO PUSH2 0xAD5 JUMPI PUSH1 0x40 DUP1 MLOAD PUSH3 0x461BCD PUSH1 0xE5 SHL DUP2 MSTORE PUSH1 0x20 PUSH1 0x4 DUP3 ADD MSTORE PUSH1 0xC PUSH1 0x24 DUP3 ADD MSTORE PUSH12 0x4269746C696D6556323A204B PUSH1 0xA0 SHL PUSH1 0x44 DUP3 ADD MSTORE SWAP1 MLOAD SWAP1 DUP2 SWAP1 SUB PUSH1 0x64 ADD SWAP1 REVERT JUMPDEST POP POP PUSH2 0xAE3 DUP5 DUP5 DUP9 DUP9 PUSH2 0x1BDC JUMP JUMPDEST PUSH1 0x40 DUP1 MLOAD DUP4 DUP2 MSTORE PUSH1 0x20 DUP2 ADD DUP4 SWAP1 MSTORE DUP1 DUP3 ADD DUP14 SWAP1 MSTORE PUSH1 0x60 DUP2 ADD DUP13 SWAP1 MSTORE SWAP1 MLOAD PUSH1 0x1 PUSH1 0x1 PUSH1 0xA0 SHL SUB DUP12 AND SWAP2 CALLER SWAP2 PUSH32 0xD78AD95FA46C994B6551D0DA85FC275FE613CE37657FB8D5E3D130840159D822 SWAP2 DUP2 SWAP1 SUB PUSH1 0x80 ADD SWAP1 LOG3 POP POP PUSH1 0x1 PUSH1 0xD SSTORE POP POP POP POP POP POP POP POP POP JUMP JUMPDEST PUSH1 0x40 MLOAD DUP1 PUSH1 0x40 ADD PUSH1 0x40 MSTORE DUP1 PUSH1 0xA DUP2 MSTORE PUSH1 0x20 ADD PUSH10 0x2134BA3634B6B2902B19 PUSH1 0xB1 SHL DUP2 MSTORE POP DUP2 JUMP JUMPDEST PUSH1 0x9 SLOAD PUSH1 0x1 PUSH1 0x1 PUSH1 0x70 SHL SUB DUP1 DUP3 AND SWAP3 PUSH1 0x1 PUSH1 0x70 SHL DUP4 DIV SWAP1 SWAP2 AND SWAP2 PUSH1 0x1 PUSH1 0xE0 SHL SWAP1 DIV PUSH4 0xFFFFFFFF AND SWAP1 JUMP JUMPDEST PUSH1 0x0 PUSH2 0xBA6 CALLER DUP5 DUP5 PUSH2 0x1DA1 JUMP JUMPDEST POP PUSH1 0x1 JUMPDEST SWAP3 SWAP2 POP POP JUMP JUMPDEST PUSH1 0x7 SLOAD PUSH1 0x1 PUSH1 0x1 PUSH1 0xA0 SHL SUB AND DUP2 JUMP JUMPDEST PUSH1 0x0 SLOAD DUP2 JUMP JUMPDEST PUSH1 0x1 PUSH1 0x1 PUSH1 0xA0 SHL SUB DUP4 AND PUSH1 0x0 SWAP1 DUP2 MSTORE PUSH1 0x2 PUSH1 0x20 SWAP1 DUP2 MSTORE PUSH1 0x40 DUP1 DUP4 KECCAK256 CALLER DUP5 MSTORE SWAP1 SWAP2 MSTORE DUP2 KECCAK256 SLOAD PUSH1 0x0 NOT EQ PUSH2 0xC4A JUMPI PUSH1 0x1 PUSH1 0x1 PUSH1 0xA0 SHL SUB DUP5 AND PUSH1 0x0 SWAP1 DUP2 MSTORE PUSH1 0x2 PUSH1 0x20 SWAP1 DUP2 MSTORE PUSH1 0x40 DUP1 DUP4 KECCAK256 CALLER DUP5 MSTORE SWAP1 SWAP2 MSTORE SWAP1 KECCAK256 SLOAD PUSH2 0xC25 SWAP1 DUP4 PUSH4 0xFFFFFFFF PUSH2 0x1B8C AND JUMP JUMPDEST PUSH1 0x1 PUSH1 0x1 PUSH1 0xA0 SHL SUB DUP6 AND PUSH1 0x0 SWAP1 DUP2 MSTORE PUSH1 0x2 PUSH1 0x20 SWAP1 DUP2 MSTORE PUSH1 0x40 DUP1 DUP4 KECCAK256 CALLER DUP5 MSTORE SWAP1 SWAP2 MSTORE SWAP1 KECCAK256 SSTORE JUMPDEST PUSH2 0xC55 DUP5 DUP5 DUP5 PUSH2 0x1E03 JUMP JUMPDEST POP PUSH1 0x1 SWAP4 SWAP3 POP POP POP JUMP JUMPDEST PUSH32 0x6E71EDAE12B1B97F4D1F60370FEF10105FA2FAAE0126114A169C64845D6126C9 DUP2 JUMP JUMPDEST PUSH1 0x12 DUP2 JUMP JUMPDEST PUSH1 0x3 SLOAD DUP2 JUMP JUMPDEST PUSH1 0x6 SLOAD PUSH1 0x1 PUSH1 0x1 PUSH1 0xA0 SHL SUB AND CALLER EQ PUSH2 0xCE4 JUMPI PUSH1 0x40 DUP1 MLOAD PUSH3 0x461BCD PUSH1 0xE5 SHL DUP2 MSTORE PUSH1 0x20 PUSH1 0x4 DUP3 ADD MSTORE PUSH1 0x14 PUSH1 0x24 DUP3 ADD MSTORE PUSH20 0x2134BA3634B6B2AB191D102327A92124A22222A7 PUSH1 0x61 SHL PUSH1 0x44 DUP3 ADD MSTORE SWAP1 MLOAD SWAP1 DUP2 SWAP1 SUB PUSH1 0x64 ADD SWAP1 REVERT JUMPDEST PUSH1 0x7 DUP1 SLOAD PUSH1 0x1 PUSH1 0x1 PUSH1 0xA0 SHL SUB SWAP4 DUP5 AND PUSH1 0x1 PUSH1 0x1 PUSH1 0xA0 SHL SUB NOT SWAP2 DUP3 AND OR SWAP1 SWAP2 SSTORE PUSH1 0x8 DUP1 SLOAD SWAP3 SWAP1 SWAP4 AND SWAP2 AND OR SWAP1 SSTORE JUMP JUMPDEST PUSH1 0xA SLOAD DUP2 JUMP JUMPDEST PUSH1 0xB SLOAD DUP2 JUMP JUMPDEST PUSH1 0x0 PUSH1 0xD SLOAD PUSH1 0x1 EQ PUSH2 0xD6B JUMPI PUSH1 0x40 DUP1 MLOAD PUSH3 0x461BCD PUSH1 0xE5 SHL DUP2 MSTORE PUSH1 0x20 PUSH1 0x4 DUP3 ADD MSTORE PUSH1 0x11 PUSH1 0x24 DUP3 ADD MSTORE PUSH17 0x109A5D1B1A5B59558C8E881313D0D2D151 PUSH1 0x7A SHL PUSH1 0x44 DUP3 ADD MSTORE SWAP1 MLOAD SWAP1 DUP2 SWAP1 SUB PUSH1 0x64 ADD SWAP1 REVERT JUMPDEST PUSH1 0x0 PUSH1 0xD DUP2 SWAP1 SSTORE DUP1 PUSH2 0xD7B PUSH2 0xB6F JUMP JUMPDEST POP PUSH1 0x7 SLOAD PUSH1 0x40 DUP1 MLOAD PUSH4 0x70A08231 PUSH1 0xE0 SHL DUP2 MSTORE ADDRESS PUSH1 0x4 DUP3 ADD MSTORE SWAP1 MLOAD SWAP4 SWAP6 POP SWAP2 SWAP4 POP PUSH1 0x0 SWAP3 PUSH1 0x1 PUSH1 0x1 PUSH1 0xA0 SHL SUB SWAP1 SWAP2 AND SWAP2 PUSH4 0x70A08231 SWAP2 PUSH1 0x24 DUP1 DUP4 ADD SWAP3 PUSH1 0x20 SWAP3 SWAP2 SWAP1 DUP3 SWAP1 SUB ADD DUP2 DUP7 DUP1 EXTCODESIZE ISZERO DUP1 ISZERO PUSH2 0xDCF JUMPI PUSH1 0x0 DUP1 REVERT JUMPDEST POP GAS STATICCALL ISZERO DUP1 ISZERO PUSH2 0xDE3 JUMPI RETURNDATASIZE PUSH1 0x0 DUP1 RETURNDATACOPY RETURNDATASIZE PUSH1 0x0 REVERT JUMPDEST POP POP POP POP PUSH1 0x40 MLOAD RETURNDATASIZE PUSH1 0x20 DUP2 LT ISZERO PUSH2 0xDF9 JUMPI PUSH1 0x0 DUP1 REVERT JUMPDEST POP MLOAD PUSH1 0x8 SLOAD PUSH1 0x40 DUP1 MLOAD PUSH4 0x70A08231 PUSH1 0xE0 SHL DUP2 MSTORE ADDRESS PUSH1 0x4 DUP3 ADD MSTORE SWAP1 MLOAD SWAP3 SWAP4 POP PUSH1 0x0 SWAP3 PUSH1 0x1 PUSH1 0x1 PUSH1 0xA0 SHL SUB SWAP1 SWAP3 AND SWAP2 PUSH4 0x70A08231 SWAP2 PUSH1 0x24 DUP1 DUP3 ADD SWAP3 PUSH1 0x20 SWAP3 SWAP1 SWAP2 SWAP1 DUP3 SWAP1 SUB ADD DUP2 DUP7 DUP1 EXTCODESIZE ISZERO DUP1 ISZERO PUSH2 0xE4C JUMPI PUSH1 0x0 DUP1 REVERT JUMPDEST POP GAS STATICCALL ISZERO DUP1 ISZERO PUSH2 0xE60 JUMPI RETURNDATASIZE PUSH1 0x0 DUP1 RETURNDATACOPY RETURNDATASIZE PUSH1 0x0 REVERT JUMPDEST POP POP POP POP PUSH1 0x40 MLOAD RETURNDATASIZE PUSH1 0x20 DUP2 LT ISZERO PUSH2 0xE76 JUMPI PUSH1 0x0 DUP1 REVERT JUMPDEST POP MLOAD SWAP1 POP PUSH1 0x0 PUSH2 0xE95 DUP4 PUSH1 0x1 PUSH1 0x1 PUSH1 0x70 SHL SUB DUP8 AND PUSH4 0xFFFFFFFF PUSH2 0x1B8C AND JUMP JUMPDEST SWAP1 POP PUSH1 0x0 PUSH2 0xEB2 DUP4 PUSH1 0x1 PUSH1 0x1 PUSH1 0x70 SHL SUB DUP8 AND PUSH4 0xFFFFFFFF PUSH2 0x1B8C AND JUMP JUMPDEST SWAP1 POP PUSH1 0x0 PUSH2 0xEC0 DUP8 DUP8 PUSH2 0x1EBD JUMP JUMPDEST PUSH1 0x0 SLOAD SWAP1 SWAP2 POP DUP1 PUSH2 0xEFD JUMPI PUSH2 0xEE9 PUSH2 0x3E8 PUSH2 0xA2E PUSH2 0xEE4 DUP8 DUP8 PUSH4 0xFFFFFFFF PUSH2 0x1B29 AND JUMP JUMPDEST PUSH2 0x201B JUMP JUMPDEST SWAP9 POP PUSH2 0xEF8 PUSH1 0x0 PUSH2 0x3E8 PUSH2 0x206D JUMP JUMPDEST PUSH2 0xF4C JUMP JUMPDEST PUSH2 0xF49 PUSH1 0x1 PUSH1 0x1 PUSH1 0x70 SHL SUB DUP10 AND PUSH2 0xF1A DUP7 DUP5 PUSH4 0xFFFFFFFF PUSH2 0x1B29 AND JUMP JUMPDEST DUP2 PUSH2 0xF21 JUMPI INVALID JUMPDEST DIV PUSH1 0x1 PUSH1 0x1 PUSH1 0x70 SHL SUB DUP10 AND PUSH2 0xF3C DUP7 DUP6 PUSH4 0xFFFFFFFF PUSH2 0x1B29 AND JUMP JUMPDEST DUP2 PUSH2 0xF43 JUMPI INVALID JUMPDEST DIV PUSH2 0x2103 JUMP JUMPDEST SWAP9 POP JUMPDEST PUSH1 0x0 DUP10 GT PUSH2 0xF8B JUMPI PUSH1 0x40 MLOAD PUSH3 0x461BCD PUSH1 0xE5 SHL DUP2 MSTORE PUSH1 0x4 ADD DUP1 DUP1 PUSH1 0x20 ADD DUP3 DUP2 SUB DUP3 MSTORE PUSH1 0x28 DUP2 MSTORE PUSH1 0x20 ADD DUP1 PUSH2 0x2240 PUSH1 0x28 SWAP2 CODECOPY PUSH1 0x40 ADD SWAP2 POP POP PUSH1 0x40 MLOAD DUP1 SWAP2 SUB SWAP1 REVERT JUMPDEST PUSH2 0xF95 DUP11 DUP11 PUSH2 0x206D JUMP JUMPDEST PUSH2 0xFA1 DUP7 DUP7 DUP11 DUP11 PUSH2 0x1BDC JUMP JUMPDEST DUP2 ISZERO PUSH2 0xFD1 JUMPI PUSH1 0x9 SLOAD PUSH2 0xFCD SWAP1 PUSH1 0x1 PUSH1 0x1 PUSH1 0x70 SHL SUB DUP1 DUP3 AND SWAP2 PUSH1 0x1 PUSH1 0x70 SHL SWAP1 DIV AND PUSH4 0xFFFFFFFF PUSH2 0x1B29 AND JUMP JUMPDEST PUSH1 0xC SSTORE JUMPDEST PUSH1 0x40 DUP1 MLOAD DUP6 DUP2 MSTORE PUSH1 0x20 DUP2 ADD DUP6 SWAP1 MSTORE DUP2 MLOAD CALLER SWAP3 PUSH32 0x4C209B5FC8AD50758F13E2E1088BA56A560DFF690A1C6FEF26394F4C03821C4F SWAP3 DUP3 SWAP1 SUB ADD SWAP1 LOG2 POP POP PUSH1 0x1 PUSH1 0xD SSTORE POP SWAP5 SWAP7 SWAP6 POP POP POP POP POP POP JUMP JUMPDEST PUSH1 0x1 PUSH1 0x20 MSTORE PUSH1 0x0 SWAP1 DUP2 MSTORE PUSH1 0x40 SWAP1 KECCAK256 SLOAD DUP2 JUMP JUMPDEST PUSH1 0xC SLOAD DUP2 JUMP JUMPDEST PUSH1 0x4 PUSH1 0x20 MSTORE PUSH1 0x0 SWAP1 DUP2 MSTORE PUSH1 0x40 SWAP1 KECCAK256 SLOAD DUP2 JUMP JUMPDEST PUSH1 0x0 DUP1 PUSH1 0xD SLOAD PUSH1 0x1 EQ PUSH2 0x1096 JUMPI PUSH1 0x40 DUP1 MLOAD PUSH3 0x461BCD PUSH1 0xE5 SHL DUP2 MSTORE PUSH1 0x20 PUSH1 0x4 DUP3 ADD MSTORE PUSH1 0x11 PUSH1 0x24 DUP3 ADD MSTORE PUSH17 0x109A5D1B1A5B59558C8E881313D0D2D151 PUSH1 0x7A SHL PUSH1 0x44 DUP3 ADD MSTORE SWAP1 MLOAD SWAP1 DUP2 SWAP1 SUB PUSH1 0x64 ADD SWAP1 REVERT JUMPDEST PUSH1 0x0 PUSH1 0xD DUP2 SWAP1 SSTORE DUP1 PUSH2 0x10A6 PUSH2 0xB6F JUMP JUMPDEST POP PUSH1 0x7 SLOAD PUSH1 0x8 SLOAD PUSH1 0x40 DUP1 MLOAD PUSH4 0x70A08231 PUSH1 0xE0 SHL DUP2 MSTORE ADDRESS PUSH1 0x4 DUP3 ADD MSTORE SWAP1 MLOAD SWAP5 SWAP7 POP SWAP3 SWAP5 POP PUSH1 0x1 PUSH1 0x1 PUSH1 0xA0 SHL SUB SWAP2 DUP3 AND SWAP4 SWAP2 AND SWAP2 PUSH1 0x0 SWAP2 DUP5 SWAP2 PUSH4 0x70A08231 SWAP2 PUSH1 0x24 DUP1 DUP4 ADD SWAP3 PUSH1 0x20 SWAP3 SWAP2 SWAP1 DUP3 SWAP1 SUB ADD DUP2 DUP7 DUP1 EXTCODESIZE ISZERO DUP1 ISZERO PUSH2 0x1102 JUMPI PUSH1 0x0 DUP1 REVERT JUMPDEST POP GAS STATICCALL ISZERO DUP1 ISZERO PUSH2 0x1116 JUMPI RETURNDATASIZE PUSH1 0x0 DUP1 RETURNDATACOPY RETURNDATASIZE PUSH1 0x0 REVERT JUMPDEST POP POP POP POP PUSH1 0x40 MLOAD RETURNDATASIZE PUSH1 0x20 DUP2 LT ISZERO PUSH2 0x112C JUMPI PUSH1 0x0 DUP1 REVERT JUMPDEST POP MLOAD PUSH1 0x40 DUP1 MLOAD PUSH4 0x70A08231 PUSH1 0xE0 SHL DUP2 MSTORE ADDRESS PUSH1 0x4 DUP3 ADD MSTORE SWAP1 MLOAD SWAP2 SWAP3 POP PUSH1 0x0 SWAP2 PUSH1 0x1 PUSH1 0x1 PUSH1 0xA0 SHL SUB DUP6 AND SWAP2 PUSH4 0x70A08231 SWAP2 PUSH1 0x24 DUP1 DUP4 ADD SWAP3 PUSH1 0x20 SWAP3 SWAP2 SWAP1 DUP3 SWAP1 SUB ADD DUP2 DUP7 DUP1 EXTCODESIZE ISZERO DUP1 ISZERO PUSH2 0x117A JUMPI PUSH1 0x0 DUP1 REVERT JUMPDEST POP GAS STATICCALL ISZERO DUP1 ISZERO PUSH2 0x118E JUMPI RETURNDATASIZE PUSH1 0x0 DUP1 RETURNDATACOPY RETURNDATASIZE PUSH1 0x0 REVERT JUMPDEST POP POP POP POP PUSH1 0x40 MLOAD RETURNDATASIZE PUSH1 0x20 DUP2 LT ISZERO PUSH2 0x11A4 JUMPI PUSH1 0x0 DUP1 REVERT JUMPDEST POP MLOAD ADDRESS PUSH1 0x0 SWAP1 DUP2 MSTORE PUSH1 0x1 PUSH1 0x20 MSTORE PUSH1 0x40 DUP2 KECCAK256 SLOAD SWAP2 SWAP3 POP PUSH2 0x11C3 DUP9 DUP9 PUSH2 0x1EBD JUMP JUMPDEST PUSH1 0x0 SLOAD SWAP1 SWAP2 POP DUP1 PUSH2 0x11DA DUP5 DUP8 PUSH4 0xFFFFFFFF PUSH2 0x1B29 AND JUMP JUMPDEST DUP2 PUSH2 0x11E1 JUMPI INVALID JUMPDEST DIV SWAP11 POP DUP1 PUSH2 0x11F5 DUP5 DUP7 PUSH4 0xFFFFFFFF PUSH2 0x1B29 AND JUMP JUMPDEST DUP2 PUSH2 0x11FC JUMPI INVALID JUMPDEST DIV SWAP10 POP PUSH1 0x0 DUP12 GT DUP1 ISZERO PUSH2 0x120F JUMPI POP PUSH1 0x0 DUP11 GT JUMPDEST PUSH2 0x124A JUMPI PUSH1 0x40 MLOAD PUSH3 0x461BCD PUSH1 0xE5 SHL DUP2 MSTORE PUSH1 0x4 ADD DUP1 DUP1 PUSH1 0x20 ADD DUP3 DUP2 SUB DUP3 MSTORE PUSH1 0x28 DUP2 MSTORE PUSH1 0x20 ADD DUP1 PUSH2 0x22B1 PUSH1 0x28 SWAP2 CODECOPY PUSH1 0x40 ADD SWAP2 POP POP PUSH1 0x40 MLOAD DUP1 SWAP2 SUB SWAP1 REVERT JUMPDEST PUSH2 0x1254 ADDRESS DUP5 PUSH2 0x211B JUMP JUMPDEST PUSH2 0x125F DUP8 DUP14 DUP14 PUSH2 0x198F JUMP JUMPDEST PUSH2 0x126A DUP7 DUP14 DUP13 PUSH2 0x198F JUMP JUMPDEST PUSH1 0x40 DUP1 MLOAD PUSH4 0x70A08231 PUSH1 0xE0 SHL DUP2 MSTORE ADDRESS PUSH1 0x4 DUP3 ADD MSTORE SWAP1 MLOAD PUSH1 0x1 PUSH1 0x1 PUSH1 0xA0 SHL SUB DUP10 AND SWAP2 PUSH4 0x70A08231 SWAP2 PUSH1 0x24 DUP1 DUP4 ADD SWAP3 PUSH1 0x20 SWAP3 SWAP2 SWAP1 DUP3 SWAP1 SUB ADD DUP2 DUP7 DUP1 EXTCODESIZE ISZERO DUP1 ISZERO PUSH2 0x12B0 JUMPI PUSH1 0x0 DUP1 REVERT JUMPDEST POP GAS STATICCALL ISZERO DUP1 ISZERO PUSH2 0x12C4 JUMPI RETURNDATASIZE PUSH1 0x0 DUP1 RETURNDATACOPY RETURNDATASIZE PUSH1 0x0 REVERT JUMPDEST POP POP POP POP PUSH1 0x40 MLOAD RETURNDATASIZE PUSH1 0x20 DUP2 LT ISZERO PUSH2 0x12DA JUMPI PUSH1 0x0 DUP1 REVERT JUMPDEST POP MLOAD PUSH1 0x40 DUP1 MLOAD PUSH4 0x70A08231 PUSH1 0xE0 SHL DUP2 MSTORE ADDRESS PUSH1 0x4 DUP3 ADD MSTORE SWAP1 MLOAD SWAP2 SWAP7 POP PUSH1 0x1 PUSH1 0x1 PUSH1 0xA0 SHL SUB DUP9 AND SWAP2 PUSH4 0x70A08231 SWAP2 PUSH1 0x24 DUP1 DUP3 ADD SWAP3 PUSH1 0x20 SWAP3 SWAP1 SWAP2 SWAP1 DUP3 SWAP1 SUB ADD DUP2 DUP7 DUP1 EXTCODESIZE ISZERO DUP1 ISZERO PUSH2 0x1326 JUMPI PUSH1 0x0 DUP1 REVERT JUMPDEST POP GAS STATICCALL ISZERO DUP1 ISZERO PUSH2 0x133A JUMPI RETURNDATASIZE PUSH1 0x0 DUP1 RETURNDATACOPY RETURNDATASIZE PUSH1 0x0 REVERT JUMPDEST POP POP POP POP PUSH1 0x40 MLOAD RETURNDATASIZE PUSH1 0x20 DUP2 LT ISZERO PUSH2 0x1350 JUMPI PUSH1 0x0 DUP1 REVERT JUMPDEST POP MLOAD SWAP4 POP PUSH2 0x1360 DUP6 DUP6 DUP12 DUP12 PUSH2 0x1BDC JUMP JUMPDEST DUP2 ISZERO PUSH2 0x1390 JUMPI PUSH1 0x9 SLOAD PUSH2 0x138C SWAP1 PUSH1 0x1 PUSH1 0x1 PUSH1 0x70 SHL SUB DUP1 DUP3 AND SWAP2 PUSH1 0x1 PUSH1 0x70 SHL SWAP1 DIV AND PUSH4 0xFFFFFFFF PUSH2 0x1B29 AND JUMP JUMPDEST PUSH1 0xC SSTORE JUMPDEST PUSH1 0x40 DUP1 MLOAD DUP13 DUP2 MSTORE PUSH1 0x20 DUP2 ADD DUP13 SWAP1 MSTORE DUP2 MLOAD PUSH1 0x1 PUSH1 0x1 PUSH1 0xA0 SHL SUB DUP16 AND SWAP3 CALLER SWAP3 PUSH32 0xDCCD412F0B1252819CB1FD330B93224CA42612892BB3F4F789976E6D81936496 SWAP3 SWAP1 DUP2 SWAP1 SUB SWAP1 SWAP2 ADD SWAP1 LOG3 POP POP POP POP POP POP POP POP POP PUSH1 0x1 PUSH1 0xD DUP2 SWAP1 SSTORE POP SWAP2 POP SWAP2 JUMP JUMPDEST PUSH1 0x40 MLOAD DUP1 PUSH1 0x40 ADD PUSH1 0x40 MSTORE DUP1 PUSH1 0x7 DUP2 MSTORE PUSH1 0x20 ADD PUSH7 0x2624A6A296AB19 PUSH1 0xC9 SHL DUP2 MSTORE POP DUP2 JUMP JUMPDEST PUSH1 0x0 PUSH2 0xBA6 CALLER DUP5 DUP5 PUSH2 0x1E03 JUMP JUMPDEST PUSH2 0x3E8 DUP2 JUMP JUMPDEST PUSH1 0xD SLOAD PUSH1 0x1 EQ PUSH2 0x146F JUMPI PUSH1 0x40 DUP1 MLOAD PUSH3 0x461BCD PUSH1 0xE5 SHL DUP2 MSTORE PUSH1 0x20 PUSH1 0x4 DUP3 ADD MSTORE PUSH1 0x11 PUSH1 0x24 DUP3 ADD MSTORE PUSH17 0x109A5D1B1A5B59558C8E881313D0D2D151 PUSH1 0x7A SHL PUSH1 0x44 DUP3 ADD MSTORE SWAP1 MLOAD SWAP1 DUP2 SWAP1 SUB PUSH1 0x64 ADD SWAP1 REVERT JUMPDEST PUSH1 0x0 PUSH1 0xD SSTORE PUSH1 0x7 SLOAD PUSH1 0x8 SLOAD PUSH1 0x9 SLOAD PUSH1 0x40 DUP1 MLOAD PUSH4 0x70A08231 PUSH1 0xE0 SHL DUP2 MSTORE ADDRESS PUSH1 0x4 DUP3 ADD MSTORE SWAP1 MLOAD PUSH1 0x1 PUSH1 0x1 PUSH1 0xA0 SHL SUB SWAP5 DUP6 AND SWAP5 SWAP1 SWAP4 AND SWAP3 PUSH2 0x151E SWAP3 DUP6 SWAP3 DUP8 SWAP3 PUSH2 0x1519 SWAP3 PUSH1 0x1 PUSH1 0x1 PUSH1 0x70 SHL SUB AND SWAP2 DUP6 SWAP2 PUSH4 0x70A08231 SWAP2 PUSH1 0x24 DUP1 DUP3 ADD SWAP3 PUSH1 0x20 SWAP3 SWAP1 SWAP2 SWAP1 DUP3 SWAP1 SUB ADD DUP2 DUP7 DUP1 EXTCODESIZE ISZERO DUP1 ISZERO PUSH2 0x14E1 JUMPI PUSH1 0x0 DUP1 REVERT JUMPDEST POP GAS STATICCALL ISZERO DUP1 ISZERO PUSH2 0x14F5 JUMPI RETURNDATASIZE PUSH1 0x0 DUP1 RETURNDATACOPY RETURNDATASIZE PUSH1 0x0 REVERT JUMPDEST POP POP POP POP PUSH1 0x40 MLOAD RETURNDATASIZE PUSH1 0x20 DUP2 LT ISZERO PUSH2 0x150B JUMPI PUSH1 0x0 DUP1 REVERT JUMPDEST POP MLOAD SWAP1 PUSH4 0xFFFFFFFF PUSH2 0x1B8C AND JUMP JUMPDEST PUSH2 0x198F JUMP JUMPDEST PUSH1 0x9 SLOAD PUSH1 0x40 DUP1 MLOAD PUSH4 0x70A08231 PUSH1 0xE0 SHL DUP2 MSTORE ADDRESS PUSH1 0x4 DUP3 ADD MSTORE SWAP1 MLOAD PUSH2 0x1585 SWAP3 DUP5 SWAP3 DUP8 SWAP3 PUSH2 0x1519 SWAP3 PUSH1 0x1 PUSH1 0x70 SHL SWAP1 DIV PUSH1 0x1 PUSH1 0x1 PUSH1 0x70 SHL SUB AND SWAP2 PUSH1 0x1 PUSH1 0x1 PUSH1 0xA0 SHL SUB DUP7 AND SWAP2 PUSH4 0x70A08231 SWAP2 PUSH1 0x24 DUP1 DUP3 ADD SWAP3 PUSH1 0x20 SWAP3 SWAP1 SWAP2 SWAP1 DUP3 SWAP1 SUB ADD DUP2 DUP7 DUP1 EXTCODESIZE ISZERO DUP1 ISZERO PUSH2 0x14E1 JUMPI PUSH1 0x0 DUP1 REVERT JUMPDEST POP POP PUSH1 0x1 PUSH1 0xD SSTORE POP JUMP JUMPDEST PUSH1 0x6 SLOAD PUSH1 0x1 PUSH1 0x1 PUSH1 0xA0 SHL SUB AND DUP2 JUMP JUMPDEST PUSH1 0x8 SLOAD PUSH1 0x1 PUSH1 0x1 PUSH1 0xA0 SHL SUB AND DUP2 JUMP JUMPDEST TIMESTAMP DUP5 LT ISZERO PUSH2 0x15F7 JUMPI PUSH1 0x40 DUP1 MLOAD PUSH3 0x461BCD PUSH1 0xE5 SHL DUP2 MSTORE PUSH1 0x20 PUSH1 0x4 DUP3 ADD MSTORE PUSH1 0x12 PUSH1 0x24 DUP3 ADD MSTORE PUSH18 0x109A5D1B1A5B59558C8E8811561412549151 PUSH1 0x72 SHL PUSH1 0x44 DUP3 ADD MSTORE SWAP1 MLOAD SWAP1 DUP2 SWAP1 SUB PUSH1 0x64 ADD SWAP1 REVERT JUMPDEST PUSH1 0x3 SLOAD PUSH1 0x1 PUSH1 0x1 PUSH1 0xA0 SHL SUB DUP1 DUP10 AND PUSH1 0x0 DUP2 DUP2 MSTORE PUSH1 0x4 PUSH1 0x20 SWAP1 DUP2 MSTORE PUSH1 0x40 DUP1 DUP4 KECCAK256 DUP1 SLOAD PUSH1 0x1 DUP1 DUP3 ADD SWAP1 SWAP3 SSTORE DUP3 MLOAD PUSH32 0x6E71EDAE12B1B97F4D1F60370FEF10105FA2FAAE0126114A169C64845D6126C9 DUP2 DUP7 ADD MSTORE DUP1 DUP5 ADD SWAP7 SWAP1 SWAP7 MSTORE SWAP6 DUP14 AND PUSH1 0x60 DUP7 ADD MSTORE PUSH1 0x80 DUP6 ADD DUP13 SWAP1 MSTORE PUSH1 0xA0 DUP6 ADD SWAP6 SWAP1 SWAP6 MSTORE PUSH1 0xC0 DUP1 DUP6 ADD DUP12 SWAP1 MSTORE DUP2 MLOAD DUP1 DUP7 SUB SWAP1 SWAP2 ADD DUP2 MSTORE PUSH1 0xE0 DUP6 ADD DUP3 MSTORE DUP1 MLOAD SWAP1 DUP4 ADD KECCAK256 PUSH2 0x1901 PUSH1 0xF0 SHL PUSH2 0x100 DUP7 ADD MSTORE PUSH2 0x102 DUP6 ADD SWAP7 SWAP1 SWAP7 MSTORE PUSH2 0x122 DUP1 DUP6 ADD SWAP7 SWAP1 SWAP7 MSTORE DUP1 MLOAD DUP1 DUP6 SUB SWAP1 SWAP7 ADD DUP7 MSTORE PUSH2 0x142 DUP5 ADD DUP1 DUP3 MSTORE DUP7 MLOAD SWAP7 DUP4 ADD SWAP7 SWAP1 SWAP7 KECCAK256 SWAP6 DUP4 SWAP1 MSTORE PUSH2 0x162 DUP5 ADD DUP1 DUP3 MSTORE DUP7 SWAP1 MSTORE PUSH1 0xFF DUP10 AND PUSH2 0x182 DUP6 ADD MSTORE PUSH2 0x1A2 DUP5 ADD DUP9 SWAP1 MSTORE PUSH2 0x1C2 DUP5 ADD DUP8 SWAP1 MSTORE MLOAD SWAP2 SWAP4 SWAP3 PUSH2 0x1E2 DUP1 DUP3 ADD SWAP4 PUSH1 0x1F NOT DUP2 ADD SWAP3 DUP2 SWAP1 SUB SWAP1 SWAP2 ADD SWAP1 DUP6 GAS STATICCALL ISZERO DUP1 ISZERO PUSH2 0x1712 JUMPI RETURNDATASIZE PUSH1 0x0 DUP1 RETURNDATACOPY RETURNDATASIZE PUSH1 0x0 REVERT JUMPDEST POP POP PUSH1 0x40 MLOAD PUSH1 0x1F NOT ADD MLOAD SWAP2 POP POP PUSH1 0x1 PUSH1 0x1 PUSH1 0xA0 SHL SUB DUP2 AND ISZERO DUP1 ISZERO SWAP1 PUSH2 0x1748 JUMPI POP DUP9 PUSH1 0x1 PUSH1 0x1 PUSH1 0xA0 SHL SUB AND DUP2 PUSH1 0x1 PUSH1 0x1 PUSH1 0xA0 SHL SUB AND EQ JUMPDEST PUSH2 0x1799 JUMPI PUSH1 0x40 DUP1 MLOAD PUSH3 0x461BCD PUSH1 0xE5 SHL DUP2 MSTORE PUSH1 0x20 PUSH1 0x4 DUP3 ADD MSTORE PUSH1 0x1C PUSH1 0x24 DUP3 ADD MSTORE PUSH32 0x4269746C696D6556323A20494E56414C49445F5349474E415455524500000000 PUSH1 0x44 DUP3 ADD MSTORE SWAP1 MLOAD SWAP1 DUP2 SWAP1 SUB PUSH1 0x64 ADD SWAP1 REVERT JUMPDEST PUSH2 0x17A4 DUP10 DUP10 DUP10 PUSH2 0x1DA1 JUMP JUMPDEST POP POP POP POP POP POP POP POP POP JUMP JUMPDEST PUSH1 0x2 PUSH1 0x20 SWAP1 DUP2 MSTORE PUSH1 0x0 SWAP3 DUP4 MSTORE PUSH1 0x40 DUP1 DUP5 KECCAK256 SWAP1 SWAP2 MSTORE SWAP1 DUP3 MSTORE SWAP1 KECCAK256 SLOAD DUP2 JUMP JUMPDEST PUSH1 0x6 SLOAD PUSH1 0x1 PUSH1 0x1 PUSH1 0xA0 SHL SUB AND CALLER EQ PUSH2 0x1822 JUMPI PUSH1 0x40 DUP1 MLOAD PUSH3 0x461BCD PUSH1 0xE5 SHL DUP2 MSTORE PUSH1 0x20 PUSH1 0x4 DUP3 ADD MSTORE PUSH1 0x14 PUSH1 0x24 DUP3 ADD MSTORE PUSH20 0x2134BA3634B6B2AB191D102327A92124A22222A7 PUSH1 0x61 SHL PUSH1 0x44 DUP3 ADD MSTORE SWAP1 MLOAD SWAP1 DUP2 SWAP1 SUB PUSH1 0x64 ADD SWAP1 REVERT JUMPDEST PUSH1 0x5 SSTORE JUMP JUMPDEST PUSH1 0x5 SLOAD DUP2 JUMP JUMPDEST PUSH1 0xD SLOAD PUSH1 0x1 EQ PUSH2 0x1878 JUMPI PUSH1 0x40 DUP1 MLOAD PUSH3 0x461BCD PUSH1 0xE5 SHL DUP2 MSTORE PUSH1 0x20 PUSH1 0x4 DUP3 ADD MSTORE PUSH1 0x11 PUSH1 0x24 DUP3 ADD MSTORE PUSH17 0x109A5D1B1A5B59558C8E881313D0D2D151 PUSH1 0x7A SHL PUSH1 0x44 DUP3 ADD MSTORE SWAP1 MLOAD SWAP1 DUP2 SWAP1 SUB PUSH1 0x64 ADD SWAP1 REVERT JUMPDEST PUSH1 0x0 PUSH1 0xD SSTORE PUSH1 0x7 SLOAD PUSH1 0x40 DUP1 MLOAD PUSH4 0x70A08231 PUSH1 0xE0 SHL DUP2 MSTORE ADDRESS PUSH1 0x4 DUP3 ADD MSTORE SWAP1 MLOAD PUSH2 0x1988 SWAP3 PUSH1 0x1 PUSH1 0x1 PUSH1 0xA0 SHL SUB AND SWAP2 PUSH4 0x70A08231 SWAP2 PUSH1 0x24 DUP1 DUP4 ADD SWAP3 PUSH1 0x20 SWAP3 SWAP2 SWAP1 DUP3 SWAP1 SUB ADD DUP2 DUP7 DUP1 EXTCODESIZE ISZERO DUP1 ISZERO PUSH2 0x18C9 JUMPI PUSH1 0x0 DUP1 REVERT JUMPDEST POP GAS STATICCALL ISZERO DUP1 ISZERO PUSH2 0x18DD JUMPI RETURNDATASIZE PUSH1 0x0 DUP1 RETURNDATACOPY RETURNDATASIZE PUSH1 0x0 REVERT JUMPDEST POP POP POP POP PUSH1 0x40 MLOAD RETURNDATASIZE PUSH1 0x20 DUP2 LT ISZERO PUSH2 0x18F3 JUMPI PUSH1 0x0 DUP1 REVERT JUMPDEST POP MLOAD PUSH1 0x8 SLOAD PUSH1 0x40 DUP1 MLOAD PUSH4 0x70A08231 PUSH1 0xE0 SHL DUP2 MSTORE ADDRESS PUSH1 0x4 DUP3 ADD MSTORE SWAP1 MLOAD PUSH1 0x1 PUSH1 0x1 PUSH1 0xA0 SHL SUB SWAP1 SWAP3 AND SWAP2 PUSH4 0x70A08231 SWAP2 PUSH1 0x24 DUP1 DUP3 ADD SWAP3 PUSH1 0x20 SWAP3 SWAP1 SWAP2 SWAP1 DUP3 SWAP1 SUB ADD DUP2 DUP7 DUP1 EXTCODESIZE ISZERO DUP1 ISZERO PUSH2 0x1940 JUMPI PUSH1 0x0 DUP1 REVERT JUMPDEST POP GAS STATICCALL ISZERO DUP1 ISZERO PUSH2 0x1954 JUMPI RETURNDATASIZE PUSH1 0x0 DUP1 RETURNDATACOPY RETURNDATASIZE PUSH1 0x0 REVERT JUMPDEST POP POP POP POP PUSH1 0x40 MLOAD RETURNDATASIZE PUSH1 0x20 DUP2 LT ISZERO PUSH2 0x196A JUMPI PUSH1 0x0 DUP1 REVERT JUMPDEST POP MLOAD PUSH1 0x9 SLOAD PUSH1 0x1 PUSH1 0x1 PUSH1 0x70 SHL SUB DUP1 DUP3 AND SWAP2 PUSH1 0x1 PUSH1 0x70 SHL SWAP1 DIV AND PUSH2 0x1BDC JUMP JUMPDEST PUSH1 0x1 PUSH1 0xD SSTORE JUMP JUMPDEST PUSH1 0x40 DUP1 MLOAD DUP1 DUP3 ADD DUP3 MSTORE PUSH1 0x19 DUP2 MSTORE PUSH32 0x7472616E7366657228616464726573732C75696E743235362900000000000000 PUSH1 0x20 SWAP2 DUP3 ADD MSTORE DUP2 MLOAD PUSH1 0x1 PUSH1 0x1 PUSH1 0xA0 SHL SUB DUP6 DUP2 AND PUSH1 0x24 DUP4 ADD MSTORE PUSH1 0x44 DUP1 DUP4 ADD DUP7 SWAP1 MSTORE DUP5 MLOAD DUP1 DUP5 SUB SWAP1 SWAP2 ADD DUP2 MSTORE PUSH1 0x64 SWAP1 SWAP3 ADD DUP5 MSTORE SWAP2 DUP2 ADD DUP1 MLOAD PUSH1 0x1 PUSH1 0x1 PUSH1 0xE0 SHL SUB AND PUSH4 0xA9059CBB PUSH1 0xE0 SHL OR DUP2 MSTORE SWAP3 MLOAD DUP2 MLOAD PUSH1 0x0 SWAP5 PUSH1 0x60 SWAP5 DUP10 AND SWAP4 SWAP3 SWAP2 DUP3 SWAP2 SWAP1 DUP1 DUP4 DUP4 JUMPDEST PUSH1 0x20 DUP4 LT PUSH2 0x1A3C JUMPI DUP1 MLOAD DUP3 MSTORE PUSH1 0x1F NOT SWAP1 SWAP3 ADD SWAP2 PUSH1 0x20 SWAP2 DUP3 ADD SWAP2 ADD PUSH2 0x1A1D JUMP JUMPDEST PUSH1 0x1 DUP4 PUSH1 0x20 SUB PUSH2 0x100 EXP SUB DUP1 NOT DUP3 MLOAD AND DUP2 DUP5 MLOAD AND DUP1 DUP3 OR DUP6 MSTORE POP POP POP POP POP POP SWAP1 POP ADD SWAP2 POP POP PUSH1 0x0 PUSH1 0x40 MLOAD DUP1 DUP4 SUB DUP2 PUSH1 0x0 DUP7 GAS CALL SWAP2 POP POP RETURNDATASIZE DUP1 PUSH1 0x0 DUP2 EQ PUSH2 0x1A9E JUMPI PUSH1 0x40 MLOAD SWAP2 POP PUSH1 0x1F NOT PUSH1 0x3F RETURNDATASIZE ADD AND DUP3 ADD PUSH1 0x40 MSTORE RETURNDATASIZE DUP3 MSTORE RETURNDATASIZE PUSH1 0x0 PUSH1 0x20 DUP5 ADD RETURNDATACOPY PUSH2 0x1AA3 JUMP JUMPDEST PUSH1 0x60 SWAP2 POP JUMPDEST POP SWAP2 POP SWAP2 POP DUP2 DUP1 ISZERO PUSH2 0x1AD1 JUMPI POP DUP1 MLOAD ISZERO DUP1 PUSH2 0x1AD1 JUMPI POP DUP1 DUP1 PUSH1 0x20 ADD SWAP1 MLOAD PUSH1 0x20 DUP2 LT ISZERO PUSH2 0x1ACE JUMPI PUSH1 0x0 DUP1 REVERT JUMPDEST POP MLOAD JUMPDEST PUSH2 0x1B22 JUMPI PUSH1 0x40 DUP1 MLOAD PUSH3 0x461BCD PUSH1 0xE5 SHL DUP2 MSTORE PUSH1 0x20 PUSH1 0x4 DUP3 ADD MSTORE PUSH1 0x1A PUSH1 0x24 DUP3 ADD MSTORE PUSH32 0x4269746C696D6556323A205452414E534645525F4641494C4544000000000000 PUSH1 0x44 DUP3 ADD MSTORE SWAP1 MLOAD SWAP1 DUP2 SWAP1 SUB PUSH1 0x64 ADD SWAP1 REVERT JUMPDEST POP POP POP POP POP JUMP JUMPDEST PUSH1 0x0 DUP2 ISZERO DUP1 PUSH2 0x1B44 JUMPI POP POP DUP1 DUP3 MUL DUP3 DUP3 DUP3 DUP2 PUSH2 0x1B41 JUMPI INVALID JUMPDEST DIV EQ JUMPDEST PUSH2 0xBAA JUMPI PUSH1 0x40 DUP1 MLOAD PUSH3 0x461BCD PUSH1 0xE5 SHL DUP2 MSTORE PUSH1 0x20 PUSH1 0x4 DUP3 ADD MSTORE PUSH1 0x14 PUSH1 0x24 DUP3 ADD MSTORE PUSH20 0x64732D6D6174682D6D756C2D6F766572666C6F77 PUSH1 0x60 SHL PUSH1 0x44 DUP3 ADD MSTORE SWAP1 MLOAD SWAP1 DUP2 SWAP1 SUB PUSH1 0x64 ADD SWAP1 REVERT JUMPDEST DUP1 DUP3 SUB DUP3 DUP2 GT ISZERO PUSH2 0xBAA JUMPI PUSH1 0x40 DUP1 MLOAD PUSH3 0x461BCD PUSH1 0xE5 SHL DUP2 MSTORE PUSH1 0x20 PUSH1 0x4 DUP3 ADD MSTORE PUSH1 0x15 PUSH1 0x24 DUP3 ADD MSTORE PUSH21 0x64732D6D6174682D7375622D756E646572666C6F77 PUSH1 0x58 SHL PUSH1 0x44 DUP3 ADD MSTORE SWAP1 MLOAD SWAP1 DUP2 SWAP1 SUB PUSH1 0x64 ADD SWAP1 REVERT JUMPDEST PUSH1 0x1 PUSH1 0x1 PUSH1 0x70 SHL SUB DUP5 GT DUP1 ISZERO SWAP1 PUSH2 0x1BFA JUMPI POP PUSH1 0x1 PUSH1 0x1 PUSH1 0x70 SHL SUB DUP4 GT ISZERO JUMPDEST PUSH2 0x1C41 JUMPI PUSH1 0x40 DUP1 MLOAD PUSH3 0x461BCD PUSH1 0xE5 SHL DUP2 MSTORE PUSH1 0x20 PUSH1 0x4 DUP3 ADD MSTORE PUSH1 0x13 PUSH1 0x24 DUP3 ADD MSTORE PUSH19 0x4269746C696D6556323A204F564552464C4F57 PUSH1 0x68 SHL PUSH1 0x44 DUP3 ADD MSTORE SWAP1 MLOAD SWAP1 DUP2 SWAP1 SUB PUSH1 0x64 ADD SWAP1 REVERT JUMPDEST PUSH1 0x9 SLOAD PUSH4 0xFFFFFFFF TIMESTAMP DUP2 AND SWAP2 PUSH1 0x1 PUSH1 0xE0 SHL SWAP1 DIV DUP2 AND DUP3 SUB SWAP1 DUP2 AND ISZERO DUP1 ISZERO SWAP1 PUSH2 0x1C71 JUMPI POP PUSH1 0x1 PUSH1 0x1 PUSH1 0x70 SHL SUB DUP5 AND ISZERO ISZERO JUMPDEST DUP1 ISZERO PUSH2 0x1C85 JUMPI POP PUSH1 0x1 PUSH1 0x1 PUSH1 0x70 SHL SUB DUP4 AND ISZERO ISZERO JUMPDEST ISZERO PUSH2 0x1CF6 JUMPI DUP1 PUSH4 0xFFFFFFFF AND PUSH2 0x1CB3 DUP6 PUSH2 0x1C9E DUP7 PUSH2 0x21B9 JUMP JUMPDEST PUSH1 0x1 PUSH1 0x1 PUSH1 0xE0 SHL SUB AND SWAP1 PUSH4 0xFFFFFFFF PUSH2 0x21CB AND JUMP JUMPDEST PUSH1 0xA DUP1 SLOAD PUSH1 0x1 PUSH1 0x1 PUSH1 0xE0 SHL SUB SWAP3 SWAP1 SWAP3 AND SWAP3 SWAP1 SWAP3 MUL ADD SWAP1 SSTORE PUSH4 0xFFFFFFFF DUP2 AND PUSH2 0x1CDE DUP5 PUSH2 0x1C9E DUP8 PUSH2 0x21B9 JUMP JUMPDEST PUSH1 0xB DUP1 SLOAD PUSH1 0x1 PUSH1 0x1 PUSH1 0xE0 SHL SUB SWAP3 SWAP1 SWAP3 AND SWAP3 SWAP1 SWAP3 MUL ADD SWAP1 SSTORE JUMPDEST PUSH1 0x9 DUP1 SLOAD PUSH14 0xFFFFFFFFFFFFFFFFFFFFFFFFFFFF NOT AND PUSH1 0x1 PUSH1 0x1 PUSH1 0x70 SHL SUB DUP9 DUP2 AND SWAP2 SWAP1 SWAP2 OR PUSH14 0xFFFFFFFFFFFFFFFFFFFFFFFFFFFF PUSH1 0x70 SHL NOT AND PUSH1 0x1 PUSH1 0x70 SHL DUP9 DUP4 AND DUP2 MUL SWAP2 SWAP1 SWAP2 OR PUSH1 0x1 PUSH1 0x1 PUSH1 0xE0 SHL SUB AND PUSH1 0x1 PUSH1 0xE0 SHL PUSH4 0xFFFFFFFF DUP8 AND MUL OR SWAP3 DUP4 SWAP1 SSTORE PUSH1 0x40 DUP1 MLOAD DUP5 DUP5 AND DUP2 MSTORE SWAP2 SWAP1 SWAP4 DIV SWAP1 SWAP2 AND PUSH1 0x20 DUP3 ADD MSTORE DUP2 MLOAD PUSH32 0x1C411E9A96E071241C2F21F7726B17AE89E3CAB4C78BE50E062B03A9FFFBBAD1 SWAP3 SWAP2 DUP2 SWAP1 SUB SWAP1 SWAP2 ADD SWAP1 LOG1 POP POP POP POP POP POP JUMP JUMPDEST PUSH1 0x1 PUSH1 0x1 PUSH1 0xA0 SHL SUB DUP1 DUP5 AND PUSH1 0x0 DUP2 DUP2 MSTORE PUSH1 0x2 PUSH1 0x20 SWAP1 DUP2 MSTORE PUSH1 0x40 DUP1 DUP4 KECCAK256 SWAP5 DUP8 AND DUP1 DUP5 MSTORE SWAP5 DUP3 MSTORE SWAP2 DUP3 SWAP1 KECCAK256 DUP6 SWAP1 SSTORE DUP2 MLOAD DUP6 DUP2 MSTORE SWAP2 MLOAD PUSH32 0x8C5BE1E5EBEC7D5BD14F71427D1E84F3DD0314C0F7B2291E5B200AC8C7C3B925 SWAP3 DUP2 SWAP1 SUB SWAP1 SWAP2 ADD SWAP1 LOG3 POP POP POP JUMP JUMPDEST PUSH1 0x1 PUSH1 0x1 PUSH1 0xA0 SHL SUB DUP4 AND PUSH1 0x0 SWAP1 DUP2 MSTORE PUSH1 0x1 PUSH1 0x20 MSTORE PUSH1 0x40 SWAP1 KECCAK256 SLOAD PUSH2 0x1E2C SWAP1 DUP3 PUSH4 0xFFFFFFFF PUSH2 0x1B8C AND JUMP JUMPDEST PUSH1 0x1 PUSH1 0x1 PUSH1 0xA0 SHL SUB DUP1 DUP6 AND PUSH1 0x0 SWAP1 DUP2 MSTORE PUSH1 0x1 PUSH1 0x20 MSTORE PUSH1 0x40 DUP1 DUP3 KECCAK256 SWAP4 SWAP1 SWAP4 SSTORE SWAP1 DUP5 AND DUP2 MSTORE KECCAK256 SLOAD PUSH2 0x1E61 SWAP1 DUP3 PUSH4 0xFFFFFFFF PUSH2 0x21F0 AND JUMP JUMPDEST PUSH1 0x1 PUSH1 0x1 PUSH1 0xA0 SHL SUB DUP1 DUP5 AND PUSH1 0x0 DUP2 DUP2 MSTORE PUSH1 0x1 PUSH1 0x20 SWAP1 DUP2 MSTORE PUSH1 0x40 SWAP2 DUP3 SWAP1 KECCAK256 SWAP5 SWAP1 SWAP5 SSTORE DUP1 MLOAD DUP6 DUP2 MSTORE SWAP1 MLOAD SWAP2 SWAP4 SWAP3 DUP8 AND SWAP3 PUSH32 0xDDF252AD1BE2C89B69C2B068FC378DAA952BA7F163C4A11628F55A4DF523B3EF SWAP3 SWAP2 DUP3 SWAP1 SUB ADD SWAP1 LOG3 POP POP POP JUMP JUMPDEST PUSH1 0x0 DUP1 PUSH1 0x6 PUSH1 0x0 SWAP1 SLOAD SWAP1 PUSH2 0x100 EXP SWAP1 DIV PUSH1 0x1 PUSH1 0x1 PUSH1 0xA0 SHL SUB AND PUSH1 0x1 PUSH1 0x1 PUSH1 0xA0 SHL SUB AND PUSH4 0x17E7E58 PUSH1 0x40 MLOAD DUP2 PUSH4 0xFFFFFFFF AND PUSH1 0xE0 SHL DUP2 MSTORE PUSH1 0x4 ADD PUSH1 0x20 PUSH1 0x40 MLOAD DUP1 DUP4 SUB DUP2 DUP7 DUP1 EXTCODESIZE ISZERO DUP1 ISZERO PUSH2 0x1F0E JUMPI PUSH1 0x0 DUP1 REVERT JUMPDEST POP GAS STATICCALL ISZERO DUP1 ISZERO PUSH2 0x1F22 JUMPI RETURNDATASIZE PUSH1 0x0 DUP1 RETURNDATACOPY RETURNDATASIZE PUSH1 0x0 REVERT JUMPDEST POP POP POP POP PUSH1 0x40 MLOAD RETURNDATASIZE PUSH1 0x20 DUP2 LT ISZERO PUSH2 0x1F38 JUMPI PUSH1 0x0 DUP1 REVERT JUMPDEST POP MLOAD PUSH1 0xC SLOAD PUSH1 0x1 PUSH1 0x1 PUSH1 0xA0 SHL SUB DUP3 AND ISZERO DUP1 ISZERO SWAP5 POP SWAP2 SWAP3 POP SWAP1 PUSH2 0x2007 JUMPI DUP1 ISZERO PUSH2 0x2002 JUMPI PUSH1 0x0 PUSH2 0x1F7B PUSH2 0xEE4 PUSH1 0x1 PUSH1 0x1 PUSH1 0x70 SHL SUB DUP9 DUP2 AND SWAP1 DUP9 AND PUSH4 0xFFFFFFFF PUSH2 0x1B29 AND JUMP JUMPDEST SWAP1 POP PUSH1 0x0 PUSH2 0x1F88 DUP4 PUSH2 0x201B JUMP JUMPDEST SWAP1 POP DUP1 DUP3 GT ISZERO PUSH2 0x1FFF JUMPI PUSH1 0x0 PUSH2 0x1FB6 PUSH2 0x1FA7 DUP5 DUP5 PUSH4 0xFFFFFFFF PUSH2 0x1B8C AND JUMP JUMPDEST PUSH1 0x0 SLOAD SWAP1 PUSH4 0xFFFFFFFF PUSH2 0x1B29 AND JUMP JUMPDEST SWAP1 POP PUSH1 0x0 PUSH2 0x1FDB DUP4 PUSH2 0x1FCF DUP7 PUSH1 0x5 PUSH4 0xFFFFFFFF PUSH2 0x1B29 AND JUMP JUMPDEST SWAP1 PUSH4 0xFFFFFFFF PUSH2 0x21F0 AND JUMP JUMPDEST SWAP1 POP PUSH1 0x0 DUP2 DUP4 DUP2 PUSH2 0x1FE8 JUMPI INVALID JUMPDEST DIV SWAP1 POP DUP1 ISZERO PUSH2 0x1FFB JUMPI PUSH2 0x1FFB DUP8 DUP3 PUSH2 0x206D JUMP JUMPDEST POP POP POP JUMPDEST POP POP JUMPDEST PUSH2 0x2013 JUMP JUMPDEST DUP1 ISZERO PUSH2 0x2013 JUMPI PUSH1 0x0 PUSH1 0xC SSTORE JUMPDEST POP POP SWAP3 SWAP2 POP POP JUMP JUMPDEST PUSH1 0x0 PUSH1 0x3 DUP3 GT ISZERO PUSH2 0x205E JUMPI POP DUP1 PUSH1 0x1 PUSH1 0x2 DUP3 DIV ADD JUMPDEST DUP2 DUP2 LT ISZERO PUSH2 0x2058 JUMPI DUP1 SWAP2 POP PUSH1 0x2 DUP2 DUP3 DUP6 DUP2 PUSH2 0x2047 JUMPI INVALID JUMPDEST DIV ADD DUP2 PUSH2 0x2050 JUMPI INVALID JUMPDEST DIV SWAP1 POP PUSH2 0x2030 JUMP JUMPDEST POP PUSH2 0x2068 JUMP JUMPDEST DUP2 ISZERO PUSH2 0x2068 JUMPI POP PUSH1 0x1 JUMPDEST SWAP2 SWAP1 POP JUMP JUMPDEST PUSH1 0x0 SLOAD PUSH2 0x2080 SWAP1 DUP3 PUSH4 0xFFFFFFFF PUSH2 0x21F0 AND JUMP JUMPDEST PUSH1 0x0 SWAP1 DUP2 SSTORE PUSH1 0x1 PUSH1 0x1 PUSH1 0xA0 SHL SUB DUP4 AND DUP2 MSTORE PUSH1 0x1 PUSH1 0x20 MSTORE PUSH1 0x40 SWAP1 KECCAK256 SLOAD PUSH2 0x20AB SWAP1 DUP3 PUSH4 0xFFFFFFFF PUSH2 0x21F0 AND JUMP JUMPDEST PUSH1 0x1 PUSH1 0x1 PUSH1 0xA0 SHL SUB DUP4 AND PUSH1 0x0 DUP2 DUP2 MSTORE PUSH1 0x1 PUSH1 0x20 SWAP1 DUP2 MSTORE PUSH1 0x40 DUP1 DUP4 KECCAK256 SWAP5 SWAP1 SWAP5 SSTORE DUP4 MLOAD DUP6 DUP2 MSTORE SWAP4 MLOAD SWAP3 SWAP4 SWAP2 SWAP3 PUSH32 0xDDF252AD1BE2C89B69C2B068FC378DAA952BA7F163C4A11628F55A4DF523B3EF SWAP3 DUP2 SWAP1 SUB SWAP1 SWAP2 ADD SWAP1 LOG3 POP POP JUMP JUMPDEST PUSH1 0x0 DUP2 DUP4 LT PUSH2 0x2112 JUMPI DUP2 PUSH2 0x2114 JUMP JUMPDEST DUP3 JUMPDEST SWAP4 SWAP3 POP POP POP JUMP JUMPDEST PUSH1 0x1 PUSH1 0x1 PUSH1 0xA0 SHL SUB DUP3 AND PUSH1 0x0 SWAP1 DUP2 MSTORE PUSH1 0x1 PUSH1 0x20 MSTORE PUSH1 0x40 SWAP1 KECCAK256 SLOAD PUSH2 0x2144 SWAP1 DUP3 PUSH4 0xFFFFFFFF PUSH2 0x1B8C AND JUMP JUMPDEST PUSH1 0x1 PUSH1 0x1 PUSH1 0xA0 SHL SUB DUP4 AND PUSH1 0x0 SWAP1 DUP2 MSTORE PUSH1 0x1 PUSH1 0x20 MSTORE PUSH1 0x40 DUP2 KECCAK256 SWAP2 SWAP1 SWAP2 SSTORE SLOAD PUSH2 0x2171 SWAP1 DUP3 PUSH4 0xFFFFFFFF PUSH2 0x1B8C AND JUMP JUMPDEST PUSH1 0x0 SWAP1 DUP2 SSTORE PUSH1 0x40 DUP1 MLOAD DUP4 DUP2 MSTORE SWAP1 MLOAD PUSH1 0x1 PUSH1 0x1 PUSH1 0xA0 SHL SUB DUP6 AND SWAP2 PUSH32 0xDDF252AD1BE2C89B69C2B068FC378DAA952BA7F163C4A11628F55A4DF523B3EF SWAP2 SWAP1 DUP2 SWAP1 SUB PUSH1 0x20 ADD SWAP1 LOG3 POP POP JUMP JUMPDEST PUSH1 0x1 PUSH1 0x1 PUSH1 0x70 SHL SUB AND PUSH1 0x1 PUSH1 0x70 SHL MUL SWAP1 JUMP JUMPDEST PUSH1 0x0 PUSH1 0x1 PUSH1 0x1 PUSH1 0x70 SHL SUB DUP3 AND PUSH1 0x1 PUSH1 0x1 PUSH1 0xE0 SHL SUB DUP5 AND DUP2 PUSH2 0x21E8 JUMPI INVALID JUMPDEST DIV SWAP4 SWAP3 POP POP POP JUMP JUMPDEST DUP1 DUP3 ADD DUP3 DUP2 LT ISZERO PUSH2 0xBAA JUMPI PUSH1 0x40 DUP1 MLOAD PUSH3 0x461BCD PUSH1 0xE5 SHL DUP2 MSTORE PUSH1 0x20 PUSH1 0x4 DUP3 ADD MSTORE PUSH1 0x14 PUSH1 0x24 DUP3 ADD MSTORE PUSH20 0x64732D6D6174682D6164642D6F766572666C6F77 PUSH1 0x60 SHL PUSH1 0x44 DUP3 ADD MSTORE SWAP1 MLOAD SWAP1 DUP2 SWAP1 SUB PUSH1 0x64 ADD SWAP1 REVERT INVALID TIMESTAMP PUSH10 0x746C696D6556323A2049 0x4E MSTORE8 SSTORE CHAINID CHAINID 0x49 NUMBER 0x49 GASLIMIT 0x4E SLOAD 0x5F 0x4C 0x49 MLOAD SSTORE 0x49 DIFFICULTY 0x49 SLOAD MSIZE 0x5F 0x4D 0x49 0x4E SLOAD GASLIMIT DIFFICULTY TIMESTAMP PUSH10 0x746C696D6556323A2049 0x4E MSTORE8 SSTORE CHAINID CHAINID 0x49 NUMBER 0x49 GASLIMIT 0x4E SLOAD 0x5F 0x49 0x4E POP SSTORE SLOAD 0x5F COINBASE 0x4D 0x4F SSTORE 0x4E SLOAD TIMESTAMP PUSH10 0x746C696D6556323A2049 0x4E MSTORE8 SSTORE CHAINID CHAINID 0x49 NUMBER 0x49 GASLIMIT 0x4E SLOAD 0x5F 0x4F SSTORE SLOAD POP SSTORE SLOAD 0x5F COINBASE 0x4D 0x4F SSTORE 0x4E SLOAD TIMESTAMP PUSH10 0x746C696D6556323A2049 0x4E MSTORE8 SSTORE CHAINID CHAINID 0x49 NUMBER 0x49 GASLIMIT 0x4E SLOAD 0x5F 0x4C 0x49 MLOAD SSTORE 0x49 DIFFICULTY 0x49 SLOAD MSIZE 0x5F TIMESTAMP SSTORE MSTORE 0x4E GASLIMIT DIFFICULTY TIMESTAMP PUSH10 0x746C696D6556323A2049 0x4E MSTORE8 SSTORE CHAINID CHAINID 0x49 NUMBER 0x49 GASLIMIT 0x4E SLOAD 0x5F 0x4C 0x49 MLOAD SSTORE 0x49 DIFFICULTY 0x49 SLOAD MSIZE LOG2 PUSH6 0x627A7A723158 KECCAK256 SWAP4 0x4A 0x29 0xC9 DUP7 DUP4 PUSH22 0xCCA349E1D238195352E766AE1FA881A9817C977325A 0xE2 DUP16 0xF7 PUSH5 0x736F6C6343 STOP SDIV LT STOP ORIGIN GASLIMIT 0x49 POP CALLDATACOPY BALANCE ORIGIN DIFFICULTY PUSH16 0x6D61696E28737472696E67206E616D65 0x2C PUSH20 0x7472696E672076657273696F6E2C75696E743235 CALLDATASIZE KECCAK256 PUSH4 0x6861696E 0x49 PUSH5 0x2C61646472 PUSH6 0x737320766572 PUSH10 0x6679696E67436F6E7472 PUSH2 0x6374 0x29 "
				},
				"gasEstimates": {
					"creation": {
						"codeDepositCost": "1801200",
						"executionCost": "infinite",
						"totalCost": "infinite"
					},
					"external": {
						"DOMAIN_SEPARATOR()": "1088",
						"MINIMUM_LIQUIDITY()": "309",
						"PERMIT_TYPEHASH()": "244",
						"allowance(address,address)": "1261",
						"approve(address,uint256)": "22366",
						"balanceOf(address)": "1170",
						"burn(address)": "infinite",
						"changeCommission(uint256)": "21095",
						"commission()": "1086",
						"decimals()": "275",
						"factory()": "1104",
						"getReserves()": "1240",
						"initialize(address,address)": "42806",
						"kLast()": "1066",
						"mint(address)": "infinite",
						"name()": "infinite",
						"nonces(address)": "1214",
						"permit(address,address,uint256,uint256,uint8,bytes32,bytes32)": "infinite",
						"price0CumulativeLast()": "1065",
						"price1CumulativeLast()": "1087",
						"skim(address)": "infinite",
						"swap(uint256,uint256,address,bytes)": "infinite",
						"symbol()": "infinite",
						"sync()": "infinite",
						"token0()": "1105",
						"token1()": "1126",
						"totalSupply()": "1088",
						"transfer(address,uint256)": "infinite",
						"transferFrom(address,address,uint256)": "infinite"
					},
					"internal": {
						"_mintFee(uint112,uint112)": "infinite",
						"_safeTransfer(address,address,uint256)": "infinite",
						"_update(uint256,uint256,uint112,uint112)": "infinite"
					}
				},
				"methodIdentifiers": {
					"DOMAIN_SEPARATOR()": "3644e515",
					"MINIMUM_LIQUIDITY()": "ba9a7a56",
					"PERMIT_TYPEHASH()": "30adf81f",
					"allowance(address,address)": "dd62ed3e",
					"approve(address,uint256)": "095ea7b3",
					"balanceOf(address)": "70a08231",
					"burn(address)": "89afcb44",
					"changeCommission(uint256)": "df922f3a",
					"commission()": "e1489191",
					"decimals()": "313ce567",
					"factory()": "c45a0155",
					"getReserves()": "0902f1ac",
					"initialize(address,address)": "485cc955",
					"kLast()": "7464fc3d",
					"mint(address)": "6a627842",
					"name()": "06fdde03",
					"nonces(address)": "7ecebe00",
					"permit(address,address,uint256,uint256,uint8,bytes32,bytes32)": "d505accf",
					"price0CumulativeLast()": "5909c0d5",
					"price1CumulativeLast()": "5a3d5493",
					"skim(address)": "bc25cf77",
					"swap(uint256,uint256,address,bytes)": "022c0d9f",
					"symbol()": "95d89b41",
					"sync()": "fff6cae9",
					"token0()": "0dfe1681",
					"token1()": "d21220a7",
					"totalSupply()": "18160ddd",
					"transfer(address,uint256)": "a9059cbb",
					"transferFrom(address,address,uint256)": "23b872dd"
				}
			},
			"storageLayout": {
				"storage": [
					{
						"astId": 19,
						"contract": "bitlime-core/contracts/BitlimeV2Pair.sol:BitlimeV2Pair",
						"label": "totalSupply",
						"offset": 0,
						"slot": "0",
						"type": "t_uint256"
					},
					{
						"astId": 23,
						"contract": "bitlime-core/contracts/BitlimeV2Pair.sol:BitlimeV2Pair",
						"label": "balanceOf",
						"offset": 0,
						"slot": "1",
						"type": "t_mapping(t_address,t_uint256)"
					},
					{
						"astId": 29,
						"contract": "bitlime-core/contracts/BitlimeV2Pair.sol:BitlimeV2Pair",
						"label": "allowance",
						"offset": 0,
						"slot": "2",
						"type": "t_mapping(t_address,t_mapping(t_address,t_uint256))"
					},
					{
						"astId": 31,
						"contract": "bitlime-core/contracts/BitlimeV2Pair.sol:BitlimeV2Pair",
						"label": "DOMAIN_SEPARATOR",
						"offset": 0,
						"slot": "3",
						"type": "t_bytes32"
					},
					{
						"astId": 38,
						"contract": "bitlime-core/contracts/BitlimeV2Pair.sol:BitlimeV2Pair",
						"label": "nonces",
						"offset": 0,
						"slot": "4",
						"type": "t_mapping(t_address,t_uint256)"
					},
					{
						"astId": 611,
						"contract": "bitlime-core/contracts/BitlimeV2Pair.sol:BitlimeV2Pair",
						"label": "commission",
						"offset": 0,
						"slot": "5",
						"type": "t_uint256"
					},
					{
						"astId": 627,
						"contract": "bitlime-core/contracts/BitlimeV2Pair.sol:BitlimeV2Pair",
						"label": "factory",
						"offset": 0,
						"slot": "6",
						"type": "t_address"
					},
					{
						"astId": 629,
						"contract": "bitlime-core/contracts/BitlimeV2Pair.sol:BitlimeV2Pair",
						"label": "token0",
						"offset": 0,
						"slot": "7",
						"type": "t_address"
					},
					{
						"astId": 631,
						"contract": "bitlime-core/contracts/BitlimeV2Pair.sol:BitlimeV2Pair",
						"label": "token1",
						"offset": 0,
						"slot": "8",
						"type": "t_address"
					},
					{
						"astId": 633,
						"contract": "bitlime-core/contracts/BitlimeV2Pair.sol:BitlimeV2Pair",
						"label": "reserve0",
						"offset": 0,
						"slot": "9",
						"type": "t_uint112"
					},
					{
						"astId": 635,
						"contract": "bitlime-core/contracts/BitlimeV2Pair.sol:BitlimeV2Pair",
						"label": "reserve1",
						"offset": 14,
						"slot": "9",
						"type": "t_uint112"
					},
					{
						"astId": 637,
						"contract": "bitlime-core/contracts/BitlimeV2Pair.sol:BitlimeV2Pair",
						"label": "blockTimestampLast",
						"offset": 28,
						"slot": "9",
						"type": "t_uint32"
					},
					{
						"astId": 639,
						"contract": "bitlime-core/contracts/BitlimeV2Pair.sol:BitlimeV2Pair",
						"label": "price0CumulativeLast",
						"offset": 0,
						"slot": "10",
						"type": "t_uint256"
					},
					{
						"astId": 641,
						"contract": "bitlime-core/contracts/BitlimeV2Pair.sol:BitlimeV2Pair",
						"label": "price1CumulativeLast",
						"offset": 0,
						"slot": "11",
						"type": "t_uint256"
					},
					{
						"astId": 643,
						"contract": "bitlime-core/contracts/BitlimeV2Pair.sol:BitlimeV2Pair",
						"label": "kLast",
						"offset": 0,
						"slot": "12",
						"type": "t_uint256"
					},
					{
						"astId": 646,
						"contract": "bitlime-core/contracts/BitlimeV2Pair.sol:BitlimeV2Pair",
						"label": "unlocked",
						"offset": 0,
						"slot": "13",
						"type": "t_uint256"
					}
				],
				"types": {
					"t_address": {
						"encoding": "inplace",
						"label": "address",
						"numberOfBytes": "20"
					},
					"t_bytes32": {
						"encoding": "inplace",
						"label": "bytes32",
						"numberOfBytes": "32"
					},
					"t_mapping(t_address,t_mapping(t_address,t_uint256))": {
						"encoding": "mapping",
						"key": "t_address",
						"label": "mapping(address => mapping(address => uint256))",
						"numberOfBytes": "32",
						"value": "t_mapping(t_address,t_uint256)"
					},
					"t_mapping(t_address,t_uint256)": {
						"encoding": "mapping",
						"key": "t_address",
						"label": "mapping(address => uint256)",
						"numberOfBytes": "32",
						"value": "t_uint256"
					},
					"t_uint112": {
						"encoding": "inplace",
						"label": "uint112",
						"numberOfBytes": "14"
					},
					"t_uint256": {
						"encoding": "inplace",
						"label": "uint256",
						"numberOfBytes": "32"
					},
					"t_uint32": {
						"encoding": "inplace",
						"label": "uint32",
						"numberOfBytes": "4"
					}
				}
			},
			"userdoc": {
				"methods": {}
			}
		}
	}
}