{
	"v2-core-master/contracts/FeeToSetter.sol": {
		"FeeToSetter": {
			"abi": [
				{
					"inputs": [
						{
							"internalType": "address",
							"name": "factory_",
							"type": "address"
						},
						{
							"internalType": "uint256",
							"name": "vestingEnd_",
							"type": "uint256"
						},
						{
							"internalType": "address",
							"name": "owner_",
							"type": "address"
						},
						{
							"internalType": "address",
							"name": "feeTo_",
							"type": "address"
						}
					],
					"payable": false,
					"stateMutability": "nonpayable",
					"type": "constructor"
				},
				{
					"constant": true,
					"inputs": [],
					"name": "factory",
					"outputs": [
						{
							"internalType": "address",
							"name": "",
							"type": "address"
						}
					],
					"payable": false,
					"stateMutability": "view",
					"type": "function"
				},
				{
					"constant": true,
					"inputs": [],
					"name": "feeTo",
					"outputs": [
						{
							"internalType": "address",
							"name": "",
							"type": "address"
						}
					],
					"payable": false,
					"stateMutability": "view",
					"type": "function"
				},
				{
					"constant": true,
					"inputs": [],
					"name": "owner",
					"outputs": [
						{
							"internalType": "address",
							"name": "",
							"type": "address"
						}
					],
					"payable": false,
					"stateMutability": "view",
					"type": "function"
				},
				{
					"constant": false,
					"inputs": [
						{
							"internalType": "address",
							"name": "feeToSetter_",
							"type": "address"
						}
					],
					"name": "setFeeToSetter",
					"outputs": [],
					"payable": false,
					"stateMutability": "nonpayable",
					"type": "function"
				},
				{
					"constant": false,
					"inputs": [
						{
							"internalType": "address",
							"name": "owner_",
							"type": "address"
						}
					],
					"name": "setOwner",
					"outputs": [],
					"payable": false,
					"stateMutability": "nonpayable",
					"type": "function"
				},
				{
					"constant": false,
					"inputs": [
						{
							"internalType": "bool",
							"name": "on",
							"type": "bool"
						}
					],
					"name": "toggleFees",
					"outputs": [],
					"payable": false,
					"stateMutability": "nonpayable",
					"type": "function"
				},
				{
					"constant": true,
					"inputs": [],
					"name": "vestingEnd",
					"outputs": [
						{
							"internalType": "uint256",
							"name": "",
							"type": "uint256"
						}
					],
					"payable": false,
					"stateMutability": "view",
					"type": "function"
				}
			],
			"devdoc": {
				"methods": {}
			},
			"evm": {
				"assembly": "    /* \"v2-core-master/contracts/FeeToSetter.sol\":220:1632  contract FeeToSetter {\r... */\n  mstore(0x40, 0x80)\n    /* \"v2-core-master/contracts/FeeToSetter.sol\":383:704  constructor(address factory_, uint vestingEnd_, address owner_, address feeTo_) public {\r... */\n  callvalue\n    /* \"--CODEGEN--\":8:17   */\n  dup1\n    /* \"--CODEGEN--\":5:7   */\n  iszero\n  tag_1\n  jumpi\n    /* \"--CODEGEN--\":30:31   */\n  0x00\n    /* \"--CODEGEN--\":27:28   */\n  dup1\n    /* \"--CODEGEN--\":20:32   */\n  revert\n    /* \"--CODEGEN--\":5:7   */\ntag_1:\n    /* \"v2-core-master/contracts/FeeToSetter.sol\":383:704  constructor(address factory_, uint vestingEnd_, address owner_, address feeTo_) public {\r... */\n  pop\n  mload(0x40)\n  sub(codesize, bytecodeSize)\n  dup1\n  bytecodeSize\n  dup4\n  codecopy\n  dup2\n  dup2\n  add\n  0x40\n  mstore\n    /* \"--CODEGEN--\":13:16   */\n  0x80\n    /* \"--CODEGEN--\":8:11   */\n  dup2\n    /* \"--CODEGEN--\":5:17   */\n  lt\n    /* \"--CODEGEN--\":2:4   */\n  iszero\n  tag_2\n  jumpi\n    /* \"--CODEGEN--\":30:31   */\n  0x00\n    /* \"--CODEGEN--\":27:28   */\n  dup1\n    /* \"--CODEGEN--\":20:32   */\n  revert\n    /* \"--CODEGEN--\":2:4   */\ntag_2:\n  pop\n    /* \"v2-core-master/contracts/FeeToSetter.sol\":383:704  constructor(address factory_, uint vestingEnd_, address owner_, address feeTo_) public {\r... */\n  dup1\n  mload\n  0x20\n  dup3\n  add\n  mload\n  0x40\n  dup4\n  add\n  mload\n  0x60\n  swap1\n  swap4\n  add\n  mload\n  swap2\n  swap3\n  swap1\n  swap2\n    /* \"v2-core-master/contracts/FeeToSetter.sol\":503:518  block.timestamp */\n  timestamp\n    /* \"v2-core-master/contracts/FeeToSetter.sol\":489:518  vestingEnd_ > block.timestamp */\n  dup4\n  gt\n    /* \"v2-core-master/contracts/FeeToSetter.sol\":481:582  require(vestingEnd_ > block.timestamp, 'FeeToSetter::constructor: vesting must end after deployment') */\n  tag_5\n  jumpi\n  mload(0x40)\n  shl(0xe5, 0x461bcd)\n  dup2\n  mstore\n  0x04\n  add\n  dup1\n  dup1\n  0x20\n  add\n  dup3\n  dup2\n  sub\n  dup3\n  mstore\n  0x3b\n  dup2\n  mstore\n  0x20\n  add\n  dup1\n  data_fdf0f7b9f310dd6831811f6ed102504e8689d888b3abcbbe644d0f572d3aa063\n  0x3b\n  swap2\n  codecopy\n  0x40\n  add\n  swap2\n  pop\n  pop\n  mload(0x40)\n  dup1\n  swap2\n  sub\n  swap1\n  revert\ntag_5:\n    /* \"v2-core-master/contracts/FeeToSetter.sol\":593:600  factory */\n  0x00\n    /* \"v2-core-master/contracts/FeeToSetter.sol\":593:611  factory = factory_ */\n  dup1\n  sload\n  sub(shl(0xa0, 0x01), 0x01)\n  swap6\n  dup7\n  and\n  not(sub(shl(0xa0, 0x01), 0x01))\n  swap2\n  dup3\n  and\n  or\n  swap1\n  swap2\n  sstore\n  0x01\n    /* \"v2-core-master/contracts/FeeToSetter.sol\":622:646  vestingEnd = vestingEnd_ */\n  swap4\n  swap1\n  swap4\n  sstore\n    /* \"v2-core-master/contracts/FeeToSetter.sol\":657:662  owner */\n  0x03\n    /* \"v2-core-master/contracts/FeeToSetter.sol\":657:671  owner = owner_ */\n  dup1\n  sload\n  swap3\n  dup6\n  and\n  swap3\n  dup5\n  and\n  swap3\n  swap1\n  swap3\n  or\n  swap1\n  swap2\n  sstore\n    /* \"v2-core-master/contracts/FeeToSetter.sol\":682:687  feeTo */\n  0x02\n    /* \"v2-core-master/contracts/FeeToSetter.sol\":682:696  feeTo = feeTo_ */\n  dup1\n  sload\n  swap2\n  swap1\n  swap4\n  and\n  swap2\n  and\n  or\n  swap1\n  sstore\n    /* \"v2-core-master/contracts/FeeToSetter.sol\":220:1632  contract FeeToSetter {\r... */\n  dataSize(sub_0)\n  dup1\n  dataOffset(sub_0)\n  0x00\n  codecopy\n  0x00\n  return\nstop\ndata_fdf0f7b9f310dd6831811f6ed102504e8689d888b3abcbbe644d0f572d3aa063 466565546f5365747465723a3a636f6e7374727563746f723a2076657374696e67206d75737420656e64206166746572206465706c6f796d656e74\n\nsub_0: assembly {\n        /* \"v2-core-master/contracts/FeeToSetter.sol\":220:1632  contract FeeToSetter {\r... */\n      mstore(0x40, 0x80)\n      callvalue\n        /* \"--CODEGEN--\":8:17   */\n      dup1\n        /* \"--CODEGEN--\":5:7   */\n      iszero\n      tag_1\n      jumpi\n        /* \"--CODEGEN--\":30:31   */\n      0x00\n        /* \"--CODEGEN--\":27:28   */\n      dup1\n        /* \"--CODEGEN--\":20:32   */\n      revert\n        /* \"--CODEGEN--\":5:7   */\n    tag_1:\n        /* \"v2-core-master/contracts/FeeToSetter.sol\":220:1632  contract FeeToSetter {\r... */\n      pop\n      jumpi(tag_2, lt(calldatasize, 0x04))\n      shr(0xe0, calldataload(0x00))\n      dup1\n      0x8da5cb5b\n      gt\n      tag_10\n      jumpi\n      dup1\n      0x8da5cb5b\n      eq\n      tag_6\n      jumpi\n      dup1\n      0xa2e74af6\n      eq\n      tag_7\n      jumpi\n      dup1\n      0xa69ea776\n      eq\n      tag_8\n      jumpi\n      dup1\n      0xc45a0155\n      eq\n      tag_9\n      jumpi\n      jump(tag_2)\n    tag_10:\n      dup1\n      0x017e7e58\n      eq\n      tag_3\n      jumpi\n      dup1\n      0x13af4035\n      eq\n      tag_4\n      jumpi\n      dup1\n      0x84a1931f\n      eq\n      tag_5\n      jumpi\n    tag_2:\n      0x00\n      dup1\n      revert\n        /* \"v2-core-master/contracts/FeeToSetter.sol\":325:345  address public feeTo */\n    tag_3:\n      tag_11\n      tag_12\n      jump\t// in\n    tag_11:\n      0x40\n      dup1\n      mload\n      sub(shl(0xa0, 0x01), 0x01)\n      swap1\n      swap3\n      and\n      dup3\n      mstore\n      mload\n      swap1\n      dup2\n      swap1\n      sub\n      0x20\n      add\n      swap1\n      return\n        /* \"v2-core-master/contracts/FeeToSetter.sol\":762:913  function setOwner(address owner_) public {\r... */\n    tag_4:\n      tag_13\n      0x04\n      dup1\n      calldatasize\n      sub\n        /* \"--CODEGEN--\":13:15   */\n      0x20\n        /* \"--CODEGEN--\":8:11   */\n      dup2\n        /* \"--CODEGEN--\":5:16   */\n      lt\n        /* \"--CODEGEN--\":2:4   */\n      iszero\n      tag_14\n      jumpi\n        /* \"--CODEGEN--\":29:30   */\n      0x00\n        /* \"--CODEGEN--\":26:27   */\n      dup1\n        /* \"--CODEGEN--\":19:31   */\n      revert\n        /* \"--CODEGEN--\":2:4   */\n    tag_14:\n      pop\n        /* \"v2-core-master/contracts/FeeToSetter.sol\":762:913  function setOwner(address owner_) public {\r... */\n      calldataload\n      sub(shl(0xa0, 0x01), 0x01)\n      and\n      tag_15\n      jump\t// in\n    tag_13:\n      stop\n        /* \"v2-core-master/contracts/FeeToSetter.sol\":296:318  uint public vestingEnd */\n    tag_5:\n      tag_16\n      tag_17\n      jump\t// in\n    tag_16:\n      0x40\n      dup1\n      mload\n      swap2\n      dup3\n      mstore\n      mload\n      swap1\n      dup2\n      swap1\n      sub\n      0x20\n      add\n      swap1\n      return\n        /* \"v2-core-master/contracts/FeeToSetter.sol\":354:374  address public owner */\n    tag_6:\n      tag_11\n      tag_19\n      jump\t// in\n        /* \"v2-core-master/contracts/FeeToSetter.sol\":978:1282  function setFeeToSetter(address feeToSetter_) public {\r... */\n    tag_7:\n      tag_13\n      0x04\n      dup1\n      calldatasize\n      sub\n        /* \"--CODEGEN--\":13:15   */\n      0x20\n        /* \"--CODEGEN--\":8:11   */\n      dup2\n        /* \"--CODEGEN--\":5:16   */\n      lt\n        /* \"--CODEGEN--\":2:4   */\n      iszero\n      tag_21\n      jumpi\n        /* \"--CODEGEN--\":29:30   */\n      0x00\n        /* \"--CODEGEN--\":26:27   */\n      dup1\n        /* \"--CODEGEN--\":19:31   */\n      revert\n        /* \"--CODEGEN--\":2:4   */\n    tag_21:\n      pop\n        /* \"v2-core-master/contracts/FeeToSetter.sol\":978:1282  function setFeeToSetter(address feeToSetter_) public {\r... */\n      calldataload\n      sub(shl(0xa0, 0x01), 0x01)\n      and\n      tag_22\n      jump\t// in\n        /* \"v2-core-master/contracts/FeeToSetter.sol\":1345:1629  function toggleFees(bool on) public {\r... */\n    tag_8:\n      tag_13\n      0x04\n      dup1\n      calldatasize\n      sub\n        /* \"--CODEGEN--\":13:15   */\n      0x20\n        /* \"--CODEGEN--\":8:11   */\n      dup2\n        /* \"--CODEGEN--\":5:16   */\n      lt\n        /* \"--CODEGEN--\":2:4   */\n      iszero\n      tag_24\n      jumpi\n        /* \"--CODEGEN--\":29:30   */\n      0x00\n        /* \"--CODEGEN--\":26:27   */\n      dup1\n        /* \"--CODEGEN--\":19:31   */\n      revert\n        /* \"--CODEGEN--\":2:4   */\n    tag_24:\n      pop\n        /* \"v2-core-master/contracts/FeeToSetter.sol\":1345:1629  function toggleFees(bool on) public {\r... */\n      calldataload\n      iszero\n      iszero\n      tag_25\n      jump\t// in\n        /* \"v2-core-master/contracts/FeeToSetter.sol\":267:289  address public factory */\n    tag_9:\n      tag_11\n      tag_27\n      jump\t// in\n        /* \"v2-core-master/contracts/FeeToSetter.sol\":325:345  address public feeTo */\n    tag_12:\n      and(sub(shl(0xa0, 0x01), 0x01), sload(0x02))\n      dup2\n      jump\t// out\n        /* \"v2-core-master/contracts/FeeToSetter.sol\":762:913  function setOwner(address owner_) public {\r... */\n    tag_15:\n        /* \"v2-core-master/contracts/FeeToSetter.sol\":836:841  owner */\n      and(sub(shl(0xa0, 0x01), 0x01), sload(0x03))\n        /* \"v2-core-master/contracts/FeeToSetter.sol\":822:832  msg.sender */\n      caller\n        /* \"v2-core-master/contracts/FeeToSetter.sol\":822:841  msg.sender == owner */\n      eq\n        /* \"v2-core-master/contracts/FeeToSetter.sol\":814:880  require(msg.sender == owner, 'FeeToSetter::setOwner: not allowed') */\n      tag_29\n      jumpi\n      mload(0x40)\n      shl(0xe5, 0x461bcd)\n      dup2\n      mstore\n      0x04\n      add\n      dup1\n      dup1\n      0x20\n      add\n      dup3\n      dup2\n      sub\n      dup3\n      mstore\n      0x22\n      dup2\n      mstore\n      0x20\n      add\n      dup1\n      data_e551fe4035a057c6fc549b98884c58c7c9c64f5abd2b2e2ef64692a4e8af7583\n      0x22\n      swap2\n      codecopy\n      0x40\n      add\n      swap2\n      pop\n      pop\n      mload(0x40)\n      dup1\n      swap2\n      sub\n      swap1\n      revert\n    tag_29:\n        /* \"v2-core-master/contracts/FeeToSetter.sol\":891:896  owner */\n      0x03\n        /* \"v2-core-master/contracts/FeeToSetter.sol\":891:905  owner = owner_ */\n      dup1\n      sload\n      not(sub(shl(0xa0, 0x01), 0x01))\n      and\n      sub(shl(0xa0, 0x01), 0x01)\n      swap3\n      swap1\n      swap3\n      and\n      swap2\n      swap1\n      swap2\n      or\n      swap1\n      sstore\n        /* \"v2-core-master/contracts/FeeToSetter.sol\":762:913  function setOwner(address owner_) public {\r... */\n      jump\t// out\n        /* \"v2-core-master/contracts/FeeToSetter.sol\":296:318  uint public vestingEnd */\n    tag_17:\n      sload(0x01)\n      dup2\n      jump\t// out\n        /* \"v2-core-master/contracts/FeeToSetter.sol\":354:374  address public owner */\n    tag_19:\n      and(sub(shl(0xa0, 0x01), 0x01), sload(0x03))\n      dup2\n      jump\t// out\n        /* \"v2-core-master/contracts/FeeToSetter.sol\":978:1282  function setFeeToSetter(address feeToSetter_) public {\r... */\n    tag_22:\n        /* \"v2-core-master/contracts/FeeToSetter.sol\":1069:1079  vestingEnd */\n      sload(0x01)\n        /* \"v2-core-master/contracts/FeeToSetter.sol\":1050:1065  block.timestamp */\n      timestamp\n        /* \"v2-core-master/contracts/FeeToSetter.sol\":1050:1079  block.timestamp >= vestingEnd */\n      lt\n      iszero\n        /* \"v2-core-master/contracts/FeeToSetter.sol\":1042:1125  require(block.timestamp >= vestingEnd, 'FeeToSetter::setFeeToSetter: not time yet') */\n      tag_31\n      jumpi\n      mload(0x40)\n      shl(0xe5, 0x461bcd)\n      dup2\n      mstore\n      0x04\n      add\n      dup1\n      dup1\n      0x20\n      add\n      dup3\n      dup2\n      sub\n      dup3\n      mstore\n      0x29\n      dup2\n      mstore\n      0x20\n      add\n      dup1\n      data_4910d84aaa25e9c0a011002e287dbe144c3d39000fddc04ab7f72702c55c90b5\n      0x29\n      swap2\n      codecopy\n      0x40\n      add\n      swap2\n      pop\n      pop\n      mload(0x40)\n      dup1\n      swap2\n      sub\n      swap1\n      revert\n    tag_31:\n        /* \"v2-core-master/contracts/FeeToSetter.sol\":1158:1163  owner */\n      and(sub(shl(0xa0, 0x01), 0x01), sload(0x03))\n        /* \"v2-core-master/contracts/FeeToSetter.sol\":1144:1154  msg.sender */\n      caller\n        /* \"v2-core-master/contracts/FeeToSetter.sol\":1144:1163  msg.sender == owner */\n      eq\n        /* \"v2-core-master/contracts/FeeToSetter.sol\":1136:1208  require(msg.sender == owner, 'FeeToSetter::setFeeToSetter: not allowed') */\n      tag_32\n      jumpi\n      mload(0x40)\n      shl(0xe5, 0x461bcd)\n      dup2\n      mstore\n      0x04\n      add\n      dup1\n      dup1\n      0x20\n      add\n      dup3\n      dup2\n      sub\n      dup3\n      mstore\n      0x28\n      dup2\n      mstore\n      0x20\n      add\n      dup1\n      data_6c3dd794ea6d620763ca35d7419278f8b1943da52338944e50531161ae13c7dc\n      0x28\n      swap2\n      codecopy\n      0x40\n      add\n      swap2\n      pop\n      pop\n      mload(0x40)\n      dup1\n      swap2\n      sub\n      swap1\n      revert\n    tag_32:\n        /* \"v2-core-master/contracts/FeeToSetter.sol\":1237:1244  factory */\n      0x00\n      dup1\n      sload\n        /* \"v2-core-master/contracts/FeeToSetter.sol\":1219:1274  IUniswapV2Factory(factory).setFeeToSetter(feeToSetter_) */\n      0x40\n      dup1\n      mload\n      shl(0xe1, 0x5173a57b)\n      dup2\n      mstore\n      sub(shl(0xa0, 0x01), 0x01)\n      dup6\n      dup2\n      and\n      0x04\n      dup4\n      add\n      mstore\n      swap2\n      mload\n        /* \"v2-core-master/contracts/FeeToSetter.sol\":1237:1244  factory */\n      swap2\n      swap1\n      swap3\n      and\n      swap3\n        /* \"v2-core-master/contracts/FeeToSetter.sol\":1219:1260  IUniswapV2Factory(factory).setFeeToSetter */\n      0xa2e74af6\n      swap3\n        /* \"v2-core-master/contracts/FeeToSetter.sol\":1219:1274  IUniswapV2Factory(factory).setFeeToSetter(feeToSetter_) */\n      0x24\n      dup1\n      dup3\n      add\n      swap4\n      swap2\n      dup3\n      swap1\n      sub\n      add\n      dup2\n        /* \"v2-core-master/contracts/FeeToSetter.sol\":1237:1244  factory */\n      dup4\n      dup8\n        /* \"v2-core-master/contracts/FeeToSetter.sol\":1219:1274  IUniswapV2Factory(factory).setFeeToSetter(feeToSetter_) */\n      dup1\n      extcodesize\n      iszero\n        /* \"--CODEGEN--\":5:7   */\n      dup1\n      iszero\n      tag_33\n      jumpi\n        /* \"--CODEGEN--\":30:31   */\n      0x00\n        /* \"--CODEGEN--\":27:28   */\n      dup1\n        /* \"--CODEGEN--\":20:32   */\n      revert\n        /* \"--CODEGEN--\":5:7   */\n    tag_33:\n        /* \"v2-core-master/contracts/FeeToSetter.sol\":1219:1274  IUniswapV2Factory(factory).setFeeToSetter(feeToSetter_) */\n      pop\n      gas\n      call\n      iszero\n        /* \"--CODEGEN--\":8:17   */\n      dup1\n        /* \"--CODEGEN--\":5:7   */\n      iszero\n      tag_34\n      jumpi\n        /* \"--CODEGEN--\":45:61   */\n      returndatasize\n        /* \"--CODEGEN--\":42:43   */\n      0x00\n        /* \"--CODEGEN--\":39:40   */\n      dup1\n        /* \"--CODEGEN--\":24:62   */\n      returndatacopy\n        /* \"--CODEGEN--\":77:93   */\n      returndatasize\n        /* \"--CODEGEN--\":74:75   */\n      0x00\n        /* \"--CODEGEN--\":67:94   */\n      revert\n        /* \"--CODEGEN--\":5:7   */\n    tag_34:\n        /* \"v2-core-master/contracts/FeeToSetter.sol\":1219:1274  IUniswapV2Factory(factory).setFeeToSetter(feeToSetter_) */\n      pop\n      pop\n      pop\n      pop\n        /* \"v2-core-master/contracts/FeeToSetter.sol\":978:1282  function setFeeToSetter(address feeToSetter_) public {\r... */\n      pop\n      jump\t// out\n        /* \"v2-core-master/contracts/FeeToSetter.sol\":1345:1629  function toggleFees(bool on) public {\r... */\n    tag_25:\n        /* \"v2-core-master/contracts/FeeToSetter.sol\":1419:1429  vestingEnd */\n      sload(0x01)\n        /* \"v2-core-master/contracts/FeeToSetter.sol\":1400:1415  block.timestamp */\n      timestamp\n        /* \"v2-core-master/contracts/FeeToSetter.sol\":1400:1429  block.timestamp >= vestingEnd */\n      lt\n      iszero\n        /* \"v2-core-master/contracts/FeeToSetter.sol\":1392:1471  require(block.timestamp >= vestingEnd, 'FeeToSetter::toggleFees: not time yet') */\n      tag_36\n      jumpi\n      mload(0x40)\n      shl(0xe5, 0x461bcd)\n      dup2\n      mstore\n      0x04\n      add\n      dup1\n      dup1\n      0x20\n      add\n      dup3\n      dup2\n      sub\n      dup3\n      mstore\n      0x25\n      dup2\n      mstore\n      0x20\n      add\n      dup1\n      data_4629354d289e140d82720501f6a220f2d7436e24f3add5a3f74cf16f9142e9f6\n      0x25\n      swap2\n      codecopy\n      0x40\n      add\n      swap2\n      pop\n      pop\n      mload(0x40)\n      dup1\n      swap2\n      sub\n      swap1\n      revert\n    tag_36:\n        /* \"v2-core-master/contracts/FeeToSetter.sol\":1504:1509  owner */\n      and(sub(shl(0xa0, 0x01), 0x01), sload(0x03))\n        /* \"v2-core-master/contracts/FeeToSetter.sol\":1490:1500  msg.sender */\n      caller\n        /* \"v2-core-master/contracts/FeeToSetter.sol\":1490:1509  msg.sender == owner */\n      eq\n        /* \"v2-core-master/contracts/FeeToSetter.sol\":1482:1550  require(msg.sender == owner, 'FeeToSetter::toggleFees: not allowed') */\n      tag_37\n      jumpi\n      mload(0x40)\n      shl(0xe5, 0x461bcd)\n      dup2\n      mstore\n      0x04\n      add\n      dup1\n      dup1\n      0x20\n      add\n      dup3\n      dup2\n      sub\n      dup3\n      mstore\n      0x24\n      dup2\n      mstore\n      0x20\n      add\n      dup1\n      data_69f0fe33328fcf87fcc722e32edf28546f10d20fdc8675aaf57fadd4b8514832\n      0x24\n      swap2\n      codecopy\n      0x40\n      add\n      swap2\n      pop\n      pop\n      mload(0x40)\n      dup1\n      swap2\n      sub\n      swap1\n      revert\n    tag_37:\n        /* \"v2-core-master/contracts/FeeToSetter.sol\":1579:1586  factory */\n      and(sub(shl(0xa0, 0x01), 0x01), sload(0x00))\n        /* \"v2-core-master/contracts/FeeToSetter.sol\":1561:1596  IUniswapV2Factory(factory).setFeeTo */\n      0xf46901ed\n        /* \"v2-core-master/contracts/FeeToSetter.sol\":1597:1599  on */\n      dup3\n        /* \"v2-core-master/contracts/FeeToSetter.sol\":1597:1620  on ? feeTo : address(0) */\n      tag_38\n      jumpi\n        /* \"v2-core-master/contracts/FeeToSetter.sol\":1618:1619  0 */\n      0x00\n        /* \"v2-core-master/contracts/FeeToSetter.sol\":1597:1620  on ? feeTo : address(0) */\n      jump(tag_39)\n    tag_38:\n        /* \"v2-core-master/contracts/FeeToSetter.sol\":1602:1607  feeTo */\n      and(sub(shl(0xa0, 0x01), 0x01), sload(0x02))\n        /* \"v2-core-master/contracts/FeeToSetter.sol\":1597:1620  on ? feeTo : address(0) */\n    tag_39:\n        /* \"v2-core-master/contracts/FeeToSetter.sol\":1561:1621  IUniswapV2Factory(factory).setFeeTo(on ? feeTo : address(0)) */\n      mload(0x40)\n      dup3\n      0xffffffff\n      and\n      0xe0\n      shl\n      dup2\n      mstore\n      0x04\n      add\n      dup1\n      dup3\n      sub(shl(0xa0, 0x01), 0x01)\n      and\n      sub(shl(0xa0, 0x01), 0x01)\n      and\n      dup2\n      mstore\n      0x20\n      add\n      swap2\n      pop\n      pop\n      0x00\n      mload(0x40)\n      dup1\n      dup4\n      sub\n      dup2\n      0x00\n      dup8\n      dup1\n      extcodesize\n      iszero\n        /* \"--CODEGEN--\":8:17   */\n      dup1\n        /* \"--CODEGEN--\":5:7   */\n      iszero\n      tag_33\n      jumpi\n        /* \"--CODEGEN--\":30:31   */\n      0x00\n        /* \"--CODEGEN--\":27:28   */\n      dup1\n        /* \"--CODEGEN--\":20:32   */\n      revert\n        /* \"v2-core-master/contracts/FeeToSetter.sol\":267:289  address public factory */\n    tag_27:\n      and(sub(shl(0xa0, 0x01), 0x01), sload(0x00))\n      dup2\n      jump\t// out\n    stop\n    data_4629354d289e140d82720501f6a220f2d7436e24f3add5a3f74cf16f9142e9f6 466565546f5365747465723a3a746f67676c65466565733a206e6f742074696d6520796574\n    data_4910d84aaa25e9c0a011002e287dbe144c3d39000fddc04ab7f72702c55c90b5 466565546f5365747465723a3a736574466565546f5365747465723a206e6f742074696d6520796574\n    data_69f0fe33328fcf87fcc722e32edf28546f10d20fdc8675aaf57fadd4b8514832 466565546f5365747465723a3a746f67676c65466565733a206e6f7420616c6c6f776564\n    data_6c3dd794ea6d620763ca35d7419278f8b1943da52338944e50531161ae13c7dc 466565546f5365747465723a3a736574466565546f5365747465723a206e6f7420616c6c6f776564\n    data_e551fe4035a057c6fc549b98884c58c7c9c64f5abd2b2e2ef64692a4e8af7583 466565546f5365747465723a3a7365744f776e65723a206e6f7420616c6c6f776564\n\n    auxdata: 0xa265627a7a72315820c45dd9b6c89835b5f47bd74b7f996f394744a5cc2c177bc356284bf7f5528ca964736f6c63430005100032\n}\n",
				"bytecode": {
					"linkReferences": {},
					"object": "608060405234801561001057600080fd5b506040516105cd3803806105cd8339818101604052608081101561003357600080fd5b50805160208201516040830151606090930151919290914283116100885760405162461bcd60e51b815260040180806020018281038252603b815260200180610592603b913960400191505060405180910390fd5b600080546001600160a01b039586166001600160a01b0319918216179091556001939093556003805492851692841692909217909155600280549190931691161790556104b8806100da6000396000f3fe608060405234801561001057600080fd5b506004361061007d5760003560e01c80638da5cb5b1161005b5780638da5cb5b146100e8578063a2e74af6146100f0578063a69ea77614610116578063c45a0155146101355761007d565b8063017e7e581461008257806313af4035146100a657806384a1931f146100ce575b600080fd5b61008a61013d565b604080516001600160a01b039092168252519081900360200190f35b6100cc600480360360208110156100bc57600080fd5b50356001600160a01b031661014c565b005b6100d66101b7565b60408051918252519081900360200190f35b61008a6101bd565b6100cc6004803603602081101561010657600080fd5b50356001600160a01b03166101cc565b6100cc6004803603602081101561012c57600080fd5b503515156102bc565b61008a6103b8565b6002546001600160a01b031681565b6003546001600160a01b031633146101955760405162461bcd60e51b81526004018080602001828103825260228152602001806104626022913960400191505060405180910390fd5b600380546001600160a01b0319166001600160a01b0392909216919091179055565b60015481565b6003546001600160a01b031681565b60015442101561020d5760405162461bcd60e51b81526004018080602001828103825260298152602001806103ed6029913960400191505060405180910390fd5b6003546001600160a01b031633146102565760405162461bcd60e51b815260040180806020018281038252602881526020018061043a6028913960400191505060405180910390fd5b6000805460408051635173a57b60e11b81526001600160a01b0385811660048301529151919092169263a2e74af6926024808201939182900301818387803b1580156102a157600080fd5b505af11580156102b5573d6000803e3d6000fd5b5050505050565b6001544210156102fd5760405162461bcd60e51b81526004018080602001828103825260258152602001806103c86025913960400191505060405180910390fd5b6003546001600160a01b031633146103465760405162461bcd60e51b81526004018080602001828103825260248152602001806104166024913960400191505060405180910390fd5b6000546001600160a01b031663f46901ed82610363576000610370565b6002546001600160a01b03165b6040518263ffffffff1660e01b815260040180826001600160a01b03166001600160a01b03168152602001915050600060405180830381600087803b1580156102a157600080fd5b6000546001600160a01b03168156fe466565546f5365747465723a3a746f67676c65466565733a206e6f742074696d6520796574466565546f5365747465723a3a736574466565546f5365747465723a206e6f742074696d6520796574466565546f5365747465723a3a746f67676c65466565733a206e6f7420616c6c6f776564466565546f5365747465723a3a736574466565546f5365747465723a206e6f7420616c6c6f776564466565546f5365747465723a3a7365744f776e65723a206e6f7420616c6c6f776564a265627a7a72315820c45dd9b6c89835b5f47bd74b7f996f394744a5cc2c177bc356284bf7f5528ca964736f6c63430005100032466565546f5365747465723a3a636f6e7374727563746f723a2076657374696e67206d75737420656e64206166746572206465706c6f796d656e74",
					"opcodes": "PUSH1 0x80 PUSH1 0x40 MSTORE CALLVALUE DUP1 ISZERO PUSH2 0x10 JUMPI PUSH1 0x0 DUP1 REVERT JUMPDEST POP PUSH1 0x40 MLOAD PUSH2 0x5CD CODESIZE SUB DUP1 PUSH2 0x5CD DUP4 CODECOPY DUP2 DUP2 ADD PUSH1 0x40 MSTORE PUSH1 0x80 DUP2 LT ISZERO PUSH2 0x33 JUMPI PUSH1 0x0 DUP1 REVERT JUMPDEST POP DUP1 MLOAD PUSH1 0x20 DUP3 ADD MLOAD PUSH1 0x40 DUP4 ADD MLOAD PUSH1 0x60 SWAP1 SWAP4 ADD MLOAD SWAP2 SWAP3 SWAP1 SWAP2 TIMESTAMP DUP4 GT PUSH2 0x88 JUMPI PUSH1 0x40 MLOAD PUSH3 0x461BCD PUSH1 0xE5 SHL DUP2 MSTORE PUSH1 0x4 ADD DUP1 DUP1 PUSH1 0x20 ADD DUP3 DUP2 SUB DUP3 MSTORE PUSH1 0x3B DUP2 MSTORE PUSH1 0x20 ADD DUP1 PUSH2 0x592 PUSH1 0x3B SWAP2 CODECOPY PUSH1 0x40 ADD SWAP2 POP POP PUSH1 0x40 MLOAD DUP1 SWAP2 SUB SWAP1 REVERT JUMPDEST PUSH1 0x0 DUP1 SLOAD PUSH1 0x1 PUSH1 0x1 PUSH1 0xA0 SHL SUB SWAP6 DUP7 AND PUSH1 0x1 PUSH1 0x1 PUSH1 0xA0 SHL SUB NOT SWAP2 DUP3 AND OR SWAP1 SWAP2 SSTORE PUSH1 0x1 SWAP4 SWAP1 SWAP4 SSTORE PUSH1 0x3 DUP1 SLOAD SWAP3 DUP6 AND SWAP3 DUP5 AND SWAP3 SWAP1 SWAP3 OR SWAP1 SWAP2 SSTORE PUSH1 0x2 DUP1 SLOAD SWAP2 SWAP1 SWAP4 AND SWAP2 AND OR SWAP1 SSTORE PUSH2 0x4B8 DUP1 PUSH2 0xDA PUSH1 0x0 CODECOPY PUSH1 0x0 RETURN INVALID PUSH1 0x80 PUSH1 0x40 MSTORE CALLVALUE DUP1 ISZERO PUSH2 0x10 JUMPI PUSH1 0x0 DUP1 REVERT JUMPDEST POP PUSH1 0x4 CALLDATASIZE LT PUSH2 0x7D JUMPI PUSH1 0x0 CALLDATALOAD PUSH1 0xE0 SHR DUP1 PUSH4 0x8DA5CB5B GT PUSH2 0x5B JUMPI DUP1 PUSH4 0x8DA5CB5B EQ PUSH2 0xE8 JUMPI DUP1 PUSH4 0xA2E74AF6 EQ PUSH2 0xF0 JUMPI DUP1 PUSH4 0xA69EA776 EQ PUSH2 0x116 JUMPI DUP1 PUSH4 0xC45A0155 EQ PUSH2 0x135 JUMPI PUSH2 0x7D JUMP JUMPDEST DUP1 PUSH4 0x17E7E58 EQ PUSH2 0x82 JUMPI DUP1 PUSH4 0x13AF4035 EQ PUSH2 0xA6 JUMPI DUP1 PUSH4 0x84A1931F EQ PUSH2 0xCE JUMPI JUMPDEST PUSH1 0x0 DUP1 REVERT JUMPDEST PUSH2 0x8A PUSH2 0x13D JUMP JUMPDEST PUSH1 0x40 DUP1 MLOAD PUSH1 0x1 PUSH1 0x1 PUSH1 0xA0 SHL SUB SWAP1 SWAP3 AND DUP3 MSTORE MLOAD SWAP1 DUP2 SWAP1 SUB PUSH1 0x20 ADD SWAP1 RETURN JUMPDEST PUSH2 0xCC PUSH1 0x4 DUP1 CALLDATASIZE SUB PUSH1 0x20 DUP2 LT ISZERO PUSH2 0xBC JUMPI PUSH1 0x0 DUP1 REVERT JUMPDEST POP CALLDATALOAD PUSH1 0x1 PUSH1 0x1 PUSH1 0xA0 SHL SUB AND PUSH2 0x14C JUMP JUMPDEST STOP JUMPDEST PUSH2 0xD6 PUSH2 0x1B7 JUMP JUMPDEST PUSH1 0x40 DUP1 MLOAD SWAP2 DUP3 MSTORE MLOAD SWAP1 DUP2 SWAP1 SUB PUSH1 0x20 ADD SWAP1 RETURN JUMPDEST PUSH2 0x8A PUSH2 0x1BD JUMP JUMPDEST PUSH2 0xCC PUSH1 0x4 DUP1 CALLDATASIZE SUB PUSH1 0x20 DUP2 LT ISZERO PUSH2 0x106 JUMPI PUSH1 0x0 DUP1 REVERT JUMPDEST POP CALLDATALOAD PUSH1 0x1 PUSH1 0x1 PUSH1 0xA0 SHL SUB AND PUSH2 0x1CC JUMP JUMPDEST PUSH2 0xCC PUSH1 0x4 DUP1 CALLDATASIZE SUB PUSH1 0x20 DUP2 LT ISZERO PUSH2 0x12C JUMPI PUSH1 0x0 DUP1 REVERT JUMPDEST POP CALLDATALOAD ISZERO ISZERO PUSH2 0x2BC JUMP JUMPDEST PUSH2 0x8A PUSH2 0x3B8 JUMP JUMPDEST PUSH1 0x2 SLOAD PUSH1 0x1 PUSH1 0x1 PUSH1 0xA0 SHL SUB AND DUP2 JUMP JUMPDEST PUSH1 0x3 SLOAD PUSH1 0x1 PUSH1 0x1 PUSH1 0xA0 SHL SUB AND CALLER EQ PUSH2 0x195 JUMPI PUSH1 0x40 MLOAD PUSH3 0x461BCD PUSH1 0xE5 SHL DUP2 MSTORE PUSH1 0x4 ADD DUP1 DUP1 PUSH1 0x20 ADD DUP3 DUP2 SUB DUP3 MSTORE PUSH1 0x22 DUP2 MSTORE PUSH1 0x20 ADD DUP1 PUSH2 0x462 PUSH1 0x22 SWAP2 CODECOPY PUSH1 0x40 ADD SWAP2 POP POP PUSH1 0x40 MLOAD DUP1 SWAP2 SUB SWAP1 REVERT JUMPDEST PUSH1 0x3 DUP1 SLOAD PUSH1 0x1 PUSH1 0x1 PUSH1 0xA0 SHL SUB NOT AND PUSH1 0x1 PUSH1 0x1 PUSH1 0xA0 SHL SUB SWAP3 SWAP1 SWAP3 AND SWAP2 SWAP1 SWAP2 OR SWAP1 SSTORE JUMP JUMPDEST PUSH1 0x1 SLOAD DUP2 JUMP JUMPDEST PUSH1 0x3 SLOAD PUSH1 0x1 PUSH1 0x1 PUSH1 0xA0 SHL SUB AND DUP2 JUMP JUMPDEST PUSH1 0x1 SLOAD TIMESTAMP LT ISZERO PUSH2 0x20D JUMPI PUSH1 0x40 MLOAD PUSH3 0x461BCD PUSH1 0xE5 SHL DUP2 MSTORE PUSH1 0x4 ADD DUP1 DUP1 PUSH1 0x20 ADD DUP3 DUP2 SUB DUP3 MSTORE PUSH1 0x29 DUP2 MSTORE PUSH1 0x20 ADD DUP1 PUSH2 0x3ED PUSH1 0x29 SWAP2 CODECOPY PUSH1 0x40 ADD SWAP2 POP POP PUSH1 0x40 MLOAD DUP1 SWAP2 SUB SWAP1 REVERT JUMPDEST PUSH1 0x3 SLOAD PUSH1 0x1 PUSH1 0x1 PUSH1 0xA0 SHL SUB AND CALLER EQ PUSH2 0x256 JUMPI PUSH1 0x40 MLOAD PUSH3 0x461BCD PUSH1 0xE5 SHL DUP2 MSTORE PUSH1 0x4 ADD DUP1 DUP1 PUSH1 0x20 ADD DUP3 DUP2 SUB DUP3 MSTORE PUSH1 0x28 DUP2 MSTORE PUSH1 0x20 ADD DUP1 PUSH2 0x43A PUSH1 0x28 SWAP2 CODECOPY PUSH1 0x40 ADD SWAP2 POP POP PUSH1 0x40 MLOAD DUP1 SWAP2 SUB SWAP1 REVERT JUMPDEST PUSH1 0x0 DUP1 SLOAD PUSH1 0x40 DUP1 MLOAD PUSH4 0x5173A57B PUSH1 0xE1 SHL DUP2 MSTORE PUSH1 0x1 PUSH1 0x1 PUSH1 0xA0 SHL SUB DUP6 DUP2 AND PUSH1 0x4 DUP4 ADD MSTORE SWAP2 MLOAD SWAP2 SWAP1 SWAP3 AND SWAP3 PUSH4 0xA2E74AF6 SWAP3 PUSH1 0x24 DUP1 DUP3 ADD SWAP4 SWAP2 DUP3 SWAP1 SUB ADD DUP2 DUP4 DUP8 DUP1 EXTCODESIZE ISZERO DUP1 ISZERO PUSH2 0x2A1 JUMPI PUSH1 0x0 DUP1 REVERT JUMPDEST POP GAS CALL ISZERO DUP1 ISZERO PUSH2 0x2B5 JUMPI RETURNDATASIZE PUSH1 0x0 DUP1 RETURNDATACOPY RETURNDATASIZE PUSH1 0x0 REVERT JUMPDEST POP POP POP POP POP JUMP JUMPDEST PUSH1 0x1 SLOAD TIMESTAMP LT ISZERO PUSH2 0x2FD JUMPI PUSH1 0x40 MLOAD PUSH3 0x461BCD PUSH1 0xE5 SHL DUP2 MSTORE PUSH1 0x4 ADD DUP1 DUP1 PUSH1 0x20 ADD DUP3 DUP2 SUB DUP3 MSTORE PUSH1 0x25 DUP2 MSTORE PUSH1 0x20 ADD DUP1 PUSH2 0x3C8 PUSH1 0x25 SWAP2 CODECOPY PUSH1 0x40 ADD SWAP2 POP POP PUSH1 0x40 MLOAD DUP1 SWAP2 SUB SWAP1 REVERT JUMPDEST PUSH1 0x3 SLOAD PUSH1 0x1 PUSH1 0x1 PUSH1 0xA0 SHL SUB AND CALLER EQ PUSH2 0x346 JUMPI PUSH1 0x40 MLOAD PUSH3 0x461BCD PUSH1 0xE5 SHL DUP2 MSTORE PUSH1 0x4 ADD DUP1 DUP1 PUSH1 0x20 ADD DUP3 DUP2 SUB DUP3 MSTORE PUSH1 0x24 DUP2 MSTORE PUSH1 0x20 ADD DUP1 PUSH2 0x416 PUSH1 0x24 SWAP2 CODECOPY PUSH1 0x40 ADD SWAP2 POP POP PUSH1 0x40 MLOAD DUP1 SWAP2 SUB SWAP1 REVERT JUMPDEST PUSH1 0x0 SLOAD PUSH1 0x1 PUSH1 0x1 PUSH1 0xA0 SHL SUB AND PUSH4 0xF46901ED DUP3 PUSH2 0x363 JUMPI PUSH1 0x0 PUSH2 0x370 JUMP JUMPDEST PUSH1 0x2 SLOAD PUSH1 0x1 PUSH1 0x1 PUSH1 0xA0 SHL SUB AND JUMPDEST PUSH1 0x40 MLOAD DUP3 PUSH4 0xFFFFFFFF AND PUSH1 0xE0 SHL DUP2 MSTORE PUSH1 0x4 ADD DUP1 DUP3 PUSH1 0x1 PUSH1 0x1 PUSH1 0xA0 SHL SUB AND PUSH1 0x1 PUSH1 0x1 PUSH1 0xA0 SHL SUB AND DUP2 MSTORE PUSH1 0x20 ADD SWAP2 POP POP PUSH1 0x0 PUSH1 0x40 MLOAD DUP1 DUP4 SUB DUP2 PUSH1 0x0 DUP8 DUP1 EXTCODESIZE ISZERO DUP1 ISZERO PUSH2 0x2A1 JUMPI PUSH1 0x0 DUP1 REVERT JUMPDEST PUSH1 0x0 SLOAD PUSH1 0x1 PUSH1 0x1 PUSH1 0xA0 SHL SUB AND DUP2 JUMP INVALID CHAINID PUSH6 0x65546F536574 PUSH21 0x65723A3A746F67676C65466565733A206E6F742074 PUSH10 0x6D652079657446656554 PUSH16 0x5365747465723A3A736574466565546F MSTORE8 PUSH6 0x747465723A20 PUSH15 0x6F742074696D652079657446656554 PUSH16 0x5365747465723A3A746F67676C654665 PUSH6 0x733A206E6F74 KECCAK256 PUSH2 0x6C6C PUSH16 0x776564466565546F5365747465723A3A PUSH20 0x6574466565546F5365747465723A206E6F742061 PUSH13 0x6C6F776564466565546F536574 PUSH21 0x65723A3A7365744F776E65723A206E6F7420616C6C PUSH16 0x776564A265627A7A72315820C45DD9B6 0xC8 SWAP9 CALLDATALOAD 0xB5 DELEGATECALL PUSH28 0xD74B7F996F394744A5CC2C177BC356284BF7F5528CA964736F6C6343 STOP SDIV LT STOP ORIGIN CHAINID PUSH6 0x65546F536574 PUSH21 0x65723A3A636F6E7374727563746F723A2076657374 PUSH10 0x6E67206D75737420656E PUSH5 0x2061667465 PUSH19 0x206465706C6F796D656E740000000000000000 "
				},
				"gasEstimates": {
					"creation": {
						"codeDepositCost": "241600",
						"executionCost": "infinite",
						"totalCost": "infinite"
					},
					"external": {
						"factory()": "1103",
						"feeTo()": "1038",
						"owner()": "1037",
						"setFeeToSetter(address)": "infinite",
						"setOwner(address)": "infinite",
						"toggleFees(bool)": "infinite",
						"vestingEnd()": "1043"
					}
				},
				"methodIdentifiers": {
					"factory()": "c45a0155",
					"feeTo()": "017e7e58",
					"owner()": "8da5cb5b",
					"setFeeToSetter(address)": "a2e74af6",
					"setOwner(address)": "13af4035",
					"toggleFees(bool)": "a69ea776",
					"vestingEnd()": "84a1931f"
				}
			},
			"storageLayout": {
				"storage": [
					{
						"astId": 3,
						"contract": "v2-core-master/contracts/FeeToSetter.sol:FeeToSetter",
						"label": "factory",
						"offset": 0,
						"slot": "0",
						"type": "t_address"
					},
					{
						"astId": 5,
						"contract": "v2-core-master/contracts/FeeToSetter.sol:FeeToSetter",
						"label": "vestingEnd",
						"offset": 0,
						"slot": "1",
						"type": "t_uint256"
					},
					{
						"astId": 7,
						"contract": "v2-core-master/contracts/FeeToSetter.sol:FeeToSetter",
						"label": "feeTo",
						"offset": 0,
						"slot": "2",
						"type": "t_address"
					},
					{
						"astId": 9,
						"contract": "v2-core-master/contracts/FeeToSetter.sol:FeeToSetter",
						"label": "owner",
						"offset": 0,
						"slot": "3",
						"type": "t_address"
					}
				],
				"types": {
					"t_address": {
						"encoding": "inplace",
						"label": "address",
						"numberOfBytes": "20"
					},
					"t_uint256": {
						"encoding": "inplace",
						"label": "uint256",
						"numberOfBytes": "32"
					}
				}
			},
			"userdoc": {
				"methods": {}
			}
		}
	}
}