{
	"bitlime-core/contracts/BitlimeV2Factory.sol": {
		"BitlimeV2Factory": {
			"abi": [
				{
					"inputs": [
						{
							"internalType": "address",
							"name": "_feeToSetter",
							"type": "address"
						}
					],
					"payable": false,
					"stateMutability": "nonpayable",
					"type": "constructor"
				},
				{
					"anonymous": false,
					"inputs": [
						{
							"indexed": true,
							"internalType": "address",
							"name": "token0",
							"type": "address"
						},
						{
							"indexed": true,
							"internalType": "address",
							"name": "token1",
							"type": "address"
						},
						{
							"indexed": false,
							"internalType": "address",
							"name": "pair",
							"type": "address"
						},
						{
							"indexed": false,
							"internalType": "uint256",
							"name": "",
							"type": "uint256"
						}
					],
					"name": "PairCreated",
					"type": "event"
				},
				{
					"constant": true,
					"inputs": [],
					"name": "INIT_CODE_PAIR_HASH",
					"outputs": [
						{
							"internalType": "bytes32",
							"name": "",
							"type": "bytes32"
						}
					],
					"payable": false,
					"stateMutability": "view",
					"type": "function"
				},
				{
					"constant": true,
					"inputs": [
						{
							"internalType": "uint256",
							"name": "",
							"type": "uint256"
						}
					],
					"name": "allPairs",
					"outputs": [
						{
							"internalType": "address",
							"name": "",
							"type": "address"
						}
					],
					"payable": false,
					"stateMutability": "view",
					"type": "function"
				},
				{
					"constant": true,
					"inputs": [],
					"name": "allPairsLength",
					"outputs": [
						{
							"internalType": "uint256",
							"name": "",
							"type": "uint256"
						}
					],
					"payable": false,
					"stateMutability": "view",
					"type": "function"
				},
				{
					"constant": false,
					"inputs": [
						{
							"internalType": "address",
							"name": "tokenA",
							"type": "address"
						},
						{
							"internalType": "address",
							"name": "tokenB",
							"type": "address"
						}
					],
					"name": "createPair",
					"outputs": [
						{
							"internalType": "address",
							"name": "pair",
							"type": "address"
						}
					],
					"payable": false,
					"stateMutability": "nonpayable",
					"type": "function"
				},
				{
					"constant": true,
					"inputs": [],
					"name": "fee",
					"outputs": [
						{
							"internalType": "uint256",
							"name": "",
							"type": "uint256"
						}
					],
					"payable": false,
					"stateMutability": "view",
					"type": "function"
				},
				{
					"constant": true,
					"inputs": [],
					"name": "feeTo",
					"outputs": [
						{
							"internalType": "address",
							"name": "",
							"type": "address"
						}
					],
					"payable": false,
					"stateMutability": "view",
					"type": "function"
				},
				{
					"constant": true,
					"inputs": [],
					"name": "feeToSetter",
					"outputs": [
						{
							"internalType": "address",
							"name": "",
							"type": "address"
						}
					],
					"payable": false,
					"stateMutability": "view",
					"type": "function"
				},
				{
					"constant": true,
					"inputs": [
						{
							"internalType": "address",
							"name": "",
							"type": "address"
						},
						{
							"internalType": "address",
							"name": "",
							"type": "address"
						}
					],
					"name": "getPair",
					"outputs": [
						{
							"internalType": "address",
							"name": "",
							"type": "address"
						}
					],
					"payable": false,
					"stateMutability": "view",
					"type": "function"
				},
				{
					"constant": false,
					"inputs": [
						{
							"internalType": "uint256",
							"name": "_fee",
							"type": "uint256"
						}
					],
					"name": "setFee",
					"outputs": [],
					"payable": false,
					"stateMutability": "nonpayable",
					"type": "function"
				},
				{
					"constant": false,
					"inputs": [
						{
							"internalType": "address",
							"name": "_feeTo",
							"type": "address"
						}
					],
					"name": "setFeeTo",
					"outputs": [],
					"payable": false,
					"stateMutability": "nonpayable",
					"type": "function"
				},
				{
					"constant": false,
					"inputs": [
						{
							"internalType": "address",
							"name": "_feeToSetter",
							"type": "address"
						}
					],
					"name": "setFeeToSetter",
					"outputs": [],
					"payable": false,
					"stateMutability": "nonpayable",
					"type": "function"
				}
			],
			"devdoc": {
				"methods": {}
			},
			"evm": {
				"assembly": "    /* \"bitlime-core/contracts/BitlimeV2Factory.sol\":107:2232  contract BitlimeV2Factory is IBitlimeV2Factory {\r... */\n  mstore(0x40, 0x80)\n    /* \"bitlime-core/contracts/BitlimeV2Factory.sol\":295:297  25 */\n  0x19\n    /* \"bitlime-core/contracts/BitlimeV2Factory.sol\":277:297  uint public fee = 25 */\n  0x00\n  sstore\n    /* \"bitlime-core/contracts/BitlimeV2Factory.sol\":563:649  constructor(address _feeToSetter) public {\r... */\n  callvalue\n    /* \"--CODEGEN--\":8:17   */\n  dup1\n    /* \"--CODEGEN--\":5:7   */\n  iszero\n  tag_1\n  jumpi\n    /* \"--CODEGEN--\":30:31   */\n  0x00\n    /* \"--CODEGEN--\":27:28   */\n  dup1\n    /* \"--CODEGEN--\":20:32   */\n  revert\n    /* \"--CODEGEN--\":5:7   */\ntag_1:\n    /* \"bitlime-core/contracts/BitlimeV2Factory.sol\":563:649  constructor(address _feeToSetter) public {\r... */\n  pop\n  mload(0x40)\n  sub(codesize, bytecodeSize)\n  dup1\n  bytecodeSize\n  dup4\n  codecopy\n  dup2\n  dup2\n  add\n  0x40\n  mstore\n    /* \"--CODEGEN--\":13:15   */\n  0x20\n    /* \"--CODEGEN--\":8:11   */\n  dup2\n    /* \"--CODEGEN--\":5:16   */\n  lt\n    /* \"--CODEGEN--\":2:4   */\n  iszero\n  tag_2\n  jumpi\n    /* \"--CODEGEN--\":29:30   */\n  0x00\n    /* \"--CODEGEN--\":26:27   */\n  dup1\n    /* \"--CODEGEN--\":19:31   */\n  revert\n    /* \"--CODEGEN--\":2:4   */\ntag_2:\n  pop\n    /* \"bitlime-core/contracts/BitlimeV2Factory.sol\":563:649  constructor(address _feeToSetter) public {\r... */\n  mload\n    /* \"bitlime-core/contracts/BitlimeV2Factory.sol\":615:626  feeToSetter */\n  0x02\n    /* \"bitlime-core/contracts/BitlimeV2Factory.sol\":615:641  feeToSetter = _feeToSetter */\n  dup1\n  sload\n  not(sub(shl(0xa0, 0x01), 0x01))\n  and\n  sub(shl(0xa0, 0x01), 0x01)\n  swap1\n  swap3\n  and\n  swap2\n  swap1\n  swap2\n  or\n  swap1\n  sstore\n    /* \"bitlime-core/contracts/BitlimeV2Factory.sol\":107:2232  contract BitlimeV2Factory is IBitlimeV2Factory {\r... */\n  dataSize(sub_0)\n  dup1\n  dataOffset(sub_0)\n  0x00\n  codecopy\n  0x00\n  return\nstop\n\nsub_0: assembly {\n        /* \"bitlime-core/contracts/BitlimeV2Factory.sol\":107:2232  contract BitlimeV2Factory is IBitlimeV2Factory {\r... */\n      mstore(0x40, 0x80)\n      callvalue\n        /* \"--CODEGEN--\":8:17   */\n      dup1\n        /* \"--CODEGEN--\":5:7   */\n      iszero\n      tag_1\n      jumpi\n        /* \"--CODEGEN--\":30:31   */\n      0x00\n        /* \"--CODEGEN--\":27:28   */\n      dup1\n        /* \"--CODEGEN--\":20:32   */\n      revert\n        /* \"--CODEGEN--\":5:7   */\n    tag_1:\n        /* \"bitlime-core/contracts/BitlimeV2Factory.sol\":107:2232  contract BitlimeV2Factory is IBitlimeV2Factory {\r... */\n      pop\n      jumpi(tag_2, lt(calldatasize, 0x04))\n      shr(0xe0, calldataload(0x00))\n      dup1\n      0x69fe0e2d\n      gt\n      tag_14\n      jumpi\n      dup1\n      0x69fe0e2d\n      eq\n      tag_8\n      jumpi\n      dup1\n      0xa2e74af6\n      eq\n      tag_9\n      jumpi\n      dup1\n      0xc9c65396\n      eq\n      tag_10\n      jumpi\n      dup1\n      0xddca3f43\n      eq\n      tag_11\n      jumpi\n      dup1\n      0xe6a43905\n      eq\n      tag_12\n      jumpi\n      dup1\n      0xf46901ed\n      eq\n      tag_13\n      jumpi\n      jump(tag_2)\n    tag_14:\n      dup1\n      0x017e7e58\n      eq\n      tag_3\n      jumpi\n      dup1\n      0x094b7415\n      eq\n      tag_4\n      jumpi\n      dup1\n      0x1e3dd18b\n      eq\n      tag_5\n      jumpi\n      dup1\n      0x574f2ba3\n      eq\n      tag_6\n      jumpi\n      dup1\n      0x5855a25a\n      eq\n      tag_7\n      jumpi\n    tag_2:\n      0x00\n      dup1\n      revert\n        /* \"bitlime-core/contracts/BitlimeV2Factory.sol\":304:324  address public feeTo */\n    tag_3:\n      tag_15\n      tag_16\n      jump\t// in\n    tag_15:\n      0x40\n      dup1\n      mload\n      sub(shl(0xa0, 0x01), 0x01)\n      swap1\n      swap3\n      and\n      dup3\n      mstore\n      mload\n      swap1\n      dup2\n      swap1\n      sub\n      0x20\n      add\n      swap1\n      return\n        /* \"bitlime-core/contracts/BitlimeV2Factory.sol\":331:357  address public feeToSetter */\n    tag_4:\n      tag_15\n      tag_18\n      jump\t// in\n        /* \"bitlime-core/contracts/BitlimeV2Factory.sol\":435:460  address[] public allPairs */\n    tag_5:\n      tag_15\n      0x04\n      dup1\n      calldatasize\n      sub\n        /* \"--CODEGEN--\":13:15   */\n      0x20\n        /* \"--CODEGEN--\":8:11   */\n      dup2\n        /* \"--CODEGEN--\":5:16   */\n      lt\n        /* \"--CODEGEN--\":2:4   */\n      iszero\n      tag_20\n      jumpi\n        /* \"--CODEGEN--\":29:30   */\n      0x00\n        /* \"--CODEGEN--\":26:27   */\n      dup1\n        /* \"--CODEGEN--\":19:31   */\n      revert\n        /* \"--CODEGEN--\":2:4   */\n    tag_20:\n      pop\n        /* \"bitlime-core/contracts/BitlimeV2Factory.sol\":435:460  address[] public allPairs */\n      calldataload\n      tag_21\n      jump\t// in\n        /* \"bitlime-core/contracts/BitlimeV2Factory.sol\":657:753  function allPairsLength() external view returns (uint) {\r... */\n    tag_6:\n      tag_22\n      tag_23\n      jump\t// in\n    tag_22:\n      0x40\n      dup1\n      mload\n      swap2\n      dup3\n      mstore\n      mload\n      swap1\n      dup2\n      swap1\n      sub\n      0x20\n      add\n      swap1\n      return\n        /* \"bitlime-core/contracts/BitlimeV2Factory.sol\":161:268  bytes32 public constant INIT_CODE_PAIR_HASH = keccak256(abi.encodePacked(type(BitlimeV2Pair).creationCode)) */\n    tag_7:\n      tag_22\n      tag_25\n      jump\t// in\n        /* \"bitlime-core/contracts/BitlimeV2Factory.sol\":1918:2052  function setFee(uint _fee) external {\r... */\n    tag_8:\n      tag_26\n      0x04\n      dup1\n      calldatasize\n      sub\n        /* \"--CODEGEN--\":13:15   */\n      0x20\n        /* \"--CODEGEN--\":8:11   */\n      dup2\n        /* \"--CODEGEN--\":5:16   */\n      lt\n        /* \"--CODEGEN--\":2:4   */\n      iszero\n      tag_27\n      jumpi\n        /* \"--CODEGEN--\":29:30   */\n      0x00\n        /* \"--CODEGEN--\":26:27   */\n      dup1\n        /* \"--CODEGEN--\":19:31   */\n      revert\n        /* \"--CODEGEN--\":2:4   */\n    tag_27:\n      pop\n        /* \"bitlime-core/contracts/BitlimeV2Factory.sol\":1918:2052  function setFee(uint _fee) external {\r... */\n      calldataload\n      tag_28\n      jump\t// in\n    tag_26:\n      stop\n        /* \"bitlime-core/contracts/BitlimeV2Factory.sol\":2060:2229  function setFeeToSetter(address _feeToSetter) external {\r... */\n    tag_9:\n      tag_26\n      0x04\n      dup1\n      calldatasize\n      sub\n        /* \"--CODEGEN--\":13:15   */\n      0x20\n        /* \"--CODEGEN--\":8:11   */\n      dup2\n        /* \"--CODEGEN--\":5:16   */\n      lt\n        /* \"--CODEGEN--\":2:4   */\n      iszero\n      tag_30\n      jumpi\n        /* \"--CODEGEN--\":29:30   */\n      0x00\n        /* \"--CODEGEN--\":26:27   */\n      dup1\n        /* \"--CODEGEN--\":19:31   */\n      revert\n        /* \"--CODEGEN--\":2:4   */\n    tag_30:\n      pop\n        /* \"bitlime-core/contracts/BitlimeV2Factory.sol\":2060:2229  function setFeeToSetter(address _feeToSetter) external {\r... */\n      calldataload\n      sub(shl(0xa0, 0x01), 0x01)\n      and\n      tag_31\n      jump\t// in\n        /* \"bitlime-core/contracts/BitlimeV2Factory.sol\":761:1724  function createPair(address tokenA, address tokenB) external returns (address pair) {\r... */\n    tag_10:\n      tag_15\n      0x04\n      dup1\n      calldatasize\n      sub\n        /* \"--CODEGEN--\":13:15   */\n      0x40\n        /* \"--CODEGEN--\":8:11   */\n      dup2\n        /* \"--CODEGEN--\":5:16   */\n      lt\n        /* \"--CODEGEN--\":2:4   */\n      iszero\n      tag_33\n      jumpi\n        /* \"--CODEGEN--\":29:30   */\n      0x00\n        /* \"--CODEGEN--\":26:27   */\n      dup1\n        /* \"--CODEGEN--\":19:31   */\n      revert\n        /* \"--CODEGEN--\":2:4   */\n    tag_33:\n      pop\n      sub(shl(0xa0, 0x01), 0x01)\n        /* \"bitlime-core/contracts/BitlimeV2Factory.sol\":761:1724  function createPair(address tokenA, address tokenB) external returns (address pair) {\r... */\n      dup2\n      calldataload\n      dup2\n      and\n      swap2\n      0x20\n      add\n      calldataload\n      and\n      tag_34\n      jump\t// in\n        /* \"bitlime-core/contracts/BitlimeV2Factory.sol\":277:297  uint public fee = 25 */\n    tag_11:\n      tag_22\n      tag_36\n      jump\t// in\n        /* \"bitlime-core/contracts/BitlimeV2Factory.sol\":366:428  mapping(address => mapping(address => address)) public getPair */\n    tag_12:\n      tag_15\n      0x04\n      dup1\n      calldatasize\n      sub\n        /* \"--CODEGEN--\":13:15   */\n      0x40\n        /* \"--CODEGEN--\":8:11   */\n      dup2\n        /* \"--CODEGEN--\":5:16   */\n      lt\n        /* \"--CODEGEN--\":2:4   */\n      iszero\n      tag_38\n      jumpi\n        /* \"--CODEGEN--\":29:30   */\n      0x00\n        /* \"--CODEGEN--\":26:27   */\n      dup1\n        /* \"--CODEGEN--\":19:31   */\n      revert\n        /* \"--CODEGEN--\":2:4   */\n    tag_38:\n      pop\n      sub(shl(0xa0, 0x01), 0x01)\n        /* \"bitlime-core/contracts/BitlimeV2Factory.sol\":366:428  mapping(address => mapping(address => address)) public getPair */\n      dup2\n      calldataload\n      dup2\n      and\n      swap2\n      0x20\n      add\n      calldataload\n      and\n      tag_39\n      jump\t// in\n        /* \"bitlime-core/contracts/BitlimeV2Factory.sol\":1732:1877  function setFeeTo(address _feeTo) external {\r... */\n    tag_13:\n      tag_26\n      0x04\n      dup1\n      calldatasize\n      sub\n        /* \"--CODEGEN--\":13:15   */\n      0x20\n        /* \"--CODEGEN--\":8:11   */\n      dup2\n        /* \"--CODEGEN--\":5:16   */\n      lt\n        /* \"--CODEGEN--\":2:4   */\n      iszero\n      tag_41\n      jumpi\n        /* \"--CODEGEN--\":29:30   */\n      0x00\n        /* \"--CODEGEN--\":26:27   */\n      dup1\n        /* \"--CODEGEN--\":19:31   */\n      revert\n        /* \"--CODEGEN--\":2:4   */\n    tag_41:\n      pop\n        /* \"bitlime-core/contracts/BitlimeV2Factory.sol\":1732:1877  function setFeeTo(address _feeTo) external {\r... */\n      calldataload\n      sub(shl(0xa0, 0x01), 0x01)\n      and\n      tag_42\n      jump\t// in\n        /* \"bitlime-core/contracts/BitlimeV2Factory.sol\":304:324  address public feeTo */\n    tag_16:\n      and(sub(shl(0xa0, 0x01), 0x01), sload(0x01))\n      dup2\n      jump\t// out\n        /* \"bitlime-core/contracts/BitlimeV2Factory.sol\":331:357  address public feeToSetter */\n    tag_18:\n      and(sub(shl(0xa0, 0x01), 0x01), sload(0x02))\n      dup2\n      jump\t// out\n        /* \"bitlime-core/contracts/BitlimeV2Factory.sol\":435:460  address[] public allPairs */\n    tag_21:\n      0x04\n      dup2\n      dup2\n      sload\n      dup2\n      lt\n      tag_43\n      jumpi\n      invalid\n    tag_43:\n      0x00\n      swap2\n      dup3\n      mstore\n      0x20\n      swap1\n      swap2\n      keccak256\n      add\n      sload\n      sub(shl(0xa0, 0x01), 0x01)\n      and\n      swap1\n      pop\n      dup2\n      jump\t// out\n        /* \"bitlime-core/contracts/BitlimeV2Factory.sol\":657:753  function allPairsLength() external view returns (uint) {\r... */\n    tag_23:\n        /* \"bitlime-core/contracts/BitlimeV2Factory.sol\":730:738  allPairs */\n      0x04\n        /* \"bitlime-core/contracts/BitlimeV2Factory.sol\":730:745  allPairs.length */\n      sload\n        /* \"bitlime-core/contracts/BitlimeV2Factory.sol\":657:753  function allPairsLength() external view returns (uint) {\r... */\n      swap1\n      jump\t// out\n        /* \"bitlime-core/contracts/BitlimeV2Factory.sol\":161:268  bytes32 public constant INIT_CODE_PAIR_HASH = keccak256(abi.encodePacked(type(BitlimeV2Pair).creationCode)) */\n    tag_25:\n        /* \"bitlime-core/contracts/BitlimeV2Factory.sol\":234:266  type(BitlimeV2Pair).creationCode */\n      mload(0x40)\n      tag_46\n      0x20\n      dup3\n      add\n      tag_47\n      jump\t// in\n    tag_46:\n        /* \"--CODEGEN--\":41:45   */\n      0x20\n        /* \"--CODEGEN--\":34:39   */\n      dup3\n        /* \"--CODEGEN--\":30:46   */\n      add\n        /* \"--CODEGEN--\":25:28   */\n      dup2\n        /* \"--CODEGEN--\":21:47   */\n      sub\n        /* \"--CODEGEN--\":14:19   */\n      dup3\n        /* \"--CODEGEN--\":7:48   */\n      mstore\n        /* \"--CODEGEN--\":87:89   */\n      0x1f\n        /* \"--CODEGEN--\":83:90   */\n      not\n        /* \"--CODEGEN--\":78:80   */\n      0x1f\n        /* \"--CODEGEN--\":73:76   */\n      dup3\n        /* \"--CODEGEN--\":69:81   */\n      add\n        /* \"--CODEGEN--\":65:91   */\n      and\n        /* \"--CODEGEN--\":61:63   */\n      0x40\n        /* \"--CODEGEN--\":54:92   */\n      mstore\n        /* \"bitlime-core/contracts/BitlimeV2Factory.sol\":234:266  type(BitlimeV2Pair).creationCode */\n      pop\n        /* \"bitlime-core/contracts/BitlimeV2Factory.sol\":217:267  abi.encodePacked(type(BitlimeV2Pair).creationCode) */\n      add(0x20, mload(0x40))\n      dup1\n      dup3\n      dup1\n      mload\n      swap1\n      0x20\n      add\n      swap1\n      dup1\n      dup4\n      dup4\n        /* \"--CODEGEN--\":36:189   */\n    tag_48:\n        /* \"--CODEGEN--\":66:68   */\n      0x20\n        /* \"--CODEGEN--\":61:64   */\n      dup4\n        /* \"--CODEGEN--\":58:69   */\n      lt\n        /* \"--CODEGEN--\":36:189   */\n      tag_50\n      jumpi\n        /* \"--CODEGEN--\":176:186   */\n      dup1\n      mload\n        /* \"--CODEGEN--\":164:187   */\n      dup3\n      mstore\n      not(0x1f)\n        /* \"--CODEGEN--\":139:151   */\n      swap1\n      swap3\n      add\n      swap2\n        /* \"--CODEGEN--\":98:100   */\n      0x20\n        /* \"--CODEGEN--\":89:101   */\n      swap2\n      dup3\n      add\n      swap2\n        /* \"--CODEGEN--\":114:126   */\n      add\n        /* \"--CODEGEN--\":36:189   */\n      jump(tag_48)\n    tag_50:\n        /* \"--CODEGEN--\":274:275   */\n      0x01\n        /* \"--CODEGEN--\":267:270   */\n      dup4\n        /* \"--CODEGEN--\":263:265   */\n      0x20\n        /* \"--CODEGEN--\":259:271   */\n      sub\n        /* \"--CODEGEN--\":254:257   */\n      0x0100\n        /* \"--CODEGEN--\":250:272   */\n      exp\n        /* \"--CODEGEN--\":246:276   */\n      sub\n        /* \"--CODEGEN--\":315:319   */\n      dup1\n        /* \"--CODEGEN--\":311:320   */\n      not\n        /* \"--CODEGEN--\":305:308   */\n      dup3\n        /* \"--CODEGEN--\":299:309   */\n      mload\n        /* \"--CODEGEN--\":295:321   */\n      and\n        /* \"--CODEGEN--\":356:360   */\n      dup2\n        /* \"--CODEGEN--\":350:353   */\n      dup5\n        /* \"--CODEGEN--\":344:354   */\n      mload\n        /* \"--CODEGEN--\":340:361   */\n      and\n        /* \"--CODEGEN--\":389:396   */\n      dup1\n        /* \"--CODEGEN--\":380:387   */\n      dup3\n        /* \"--CODEGEN--\":377:397   */\n      or\n        /* \"--CODEGEN--\":372:375   */\n      dup6\n        /* \"--CODEGEN--\":365:398   */\n      mstore\n        /* \"--CODEGEN--\":3:402   */\n      pop\n      pop\n      pop\n        /* \"bitlime-core/contracts/BitlimeV2Factory.sol\":217:267  abi.encodePacked(type(BitlimeV2Pair).creationCode) */\n      pop\n      pop\n      pop\n      swap1\n      pop\n      add\n      swap2\n      pop\n      pop\n      mload(0x40)\n        /* \"--CODEGEN--\":49:53   */\n      0x20\n        /* \"--CODEGEN--\":39:46   */\n      dup2\n        /* \"--CODEGEN--\":30:37   */\n      dup4\n        /* \"--CODEGEN--\":26:47   */\n      sub\n        /* \"--CODEGEN--\":22:54   */\n      sub\n        /* \"--CODEGEN--\":13:20   */\n      dup2\n        /* \"--CODEGEN--\":6:55   */\n      mstore\n        /* \"bitlime-core/contracts/BitlimeV2Factory.sol\":217:267  abi.encodePacked(type(BitlimeV2Pair).creationCode) */\n      swap1\n      0x40\n      mstore\n        /* \"bitlime-core/contracts/BitlimeV2Factory.sol\":207:268  keccak256(abi.encodePacked(type(BitlimeV2Pair).creationCode)) */\n      dup1\n      mload\n      swap1\n      0x20\n      add\n      keccak256\n        /* \"bitlime-core/contracts/BitlimeV2Factory.sol\":161:268  bytes32 public constant INIT_CODE_PAIR_HASH = keccak256(abi.encodePacked(type(BitlimeV2Pair).creationCode)) */\n      dup2\n      jump\t// out\n        /* \"bitlime-core/contracts/BitlimeV2Factory.sol\":1918:2052  function setFee(uint _fee) external {\r... */\n    tag_28:\n        /* \"bitlime-core/contracts/BitlimeV2Factory.sol\":1987:1998  feeToSetter */\n      and(sub(shl(0xa0, 0x01), 0x01), sload(0x02))\n        /* \"bitlime-core/contracts/BitlimeV2Factory.sol\":1973:1983  msg.sender */\n      caller\n        /* \"bitlime-core/contracts/BitlimeV2Factory.sol\":1973:1998  msg.sender == feeToSetter */\n      eq\n        /* \"bitlime-core/contracts/BitlimeV2Factory.sol\":1965:2023  require(msg.sender == feeToSetter, 'BitlimeV2: FORBIDDEN') */\n      tag_52\n      jumpi\n      0x40\n      dup1\n      mload\n      shl(0xe5, 0x461bcd)\n      dup2\n      mstore\n      0x20\n      0x04\n      dup3\n      add\n      mstore\n      0x14\n      0x24\n      dup3\n      add\n      mstore\n      shl(0x61, 0x2134ba3634b6b2ab191d102327a92124a22222a7)\n      0x44\n      dup3\n      add\n      mstore\n      swap1\n      mload\n      swap1\n      dup2\n      swap1\n      sub\n      0x64\n      add\n      swap1\n      revert\n    tag_52:\n        /* \"bitlime-core/contracts/BitlimeV2Factory.sol\":2034:2037  fee */\n      0x00\n        /* \"bitlime-core/contracts/BitlimeV2Factory.sol\":2034:2044  fee = _fee */\n      sstore\n        /* \"bitlime-core/contracts/BitlimeV2Factory.sol\":1918:2052  function setFee(uint _fee) external {\r... */\n      jump\t// out\n        /* \"bitlime-core/contracts/BitlimeV2Factory.sol\":2060:2229  function setFeeToSetter(address _feeToSetter) external {\r... */\n    tag_31:\n        /* \"bitlime-core/contracts/BitlimeV2Factory.sol\":2148:2159  feeToSetter */\n      and(sub(shl(0xa0, 0x01), 0x01), sload(0x02))\n        /* \"bitlime-core/contracts/BitlimeV2Factory.sol\":2134:2144  msg.sender */\n      caller\n        /* \"bitlime-core/contracts/BitlimeV2Factory.sol\":2134:2159  msg.sender == feeToSetter */\n      eq\n        /* \"bitlime-core/contracts/BitlimeV2Factory.sol\":2126:2184  require(msg.sender == feeToSetter, 'BitlimeV2: FORBIDDEN') */\n      tag_54\n      jumpi\n      0x40\n      dup1\n      mload\n      shl(0xe5, 0x461bcd)\n      dup2\n      mstore\n      0x20\n      0x04\n      dup3\n      add\n      mstore\n      0x14\n      0x24\n      dup3\n      add\n      mstore\n      shl(0x61, 0x2134ba3634b6b2ab191d102327a92124a22222a7)\n      0x44\n      dup3\n      add\n      mstore\n      swap1\n      mload\n      swap1\n      dup2\n      swap1\n      sub\n      0x64\n      add\n      swap1\n      revert\n    tag_54:\n        /* \"bitlime-core/contracts/BitlimeV2Factory.sol\":2195:2206  feeToSetter */\n      0x02\n        /* \"bitlime-core/contracts/BitlimeV2Factory.sol\":2195:2221  feeToSetter = _feeToSetter */\n      dup1\n      sload\n      not(sub(shl(0xa0, 0x01), 0x01))\n      and\n      sub(shl(0xa0, 0x01), 0x01)\n      swap3\n      swap1\n      swap3\n      and\n      swap2\n      swap1\n      swap2\n      or\n      swap1\n      sstore\n        /* \"bitlime-core/contracts/BitlimeV2Factory.sol\":2060:2229  function setFeeToSetter(address _feeToSetter) external {\r... */\n      jump\t// out\n        /* \"bitlime-core/contracts/BitlimeV2Factory.sol\":761:1724  function createPair(address tokenA, address tokenB) external returns (address pair) {\r... */\n    tag_34:\n        /* \"bitlime-core/contracts/BitlimeV2Factory.sol\":831:843  address pair */\n      0x00\n        /* \"bitlime-core/contracts/BitlimeV2Factory.sol\":874:880  tokenB */\n      dup2\n      sub(shl(0xa0, 0x01), 0x01)\n        /* \"bitlime-core/contracts/BitlimeV2Factory.sol\":864:880  tokenA != tokenB */\n      and\n        /* \"bitlime-core/contracts/BitlimeV2Factory.sol\":864:870  tokenA */\n      dup4\n      sub(shl(0xa0, 0x01), 0x01)\n        /* \"bitlime-core/contracts/BitlimeV2Factory.sol\":864:880  tokenA != tokenB */\n      and\n      eq\n      iszero\n        /* \"bitlime-core/contracts/BitlimeV2Factory.sol\":856:915  require(tokenA != tokenB, 'BitlimeV2: IDENTICAL_ADDRESSES') */\n      tag_56\n      jumpi\n      0x40\n      dup1\n      mload\n      shl(0xe5, 0x461bcd)\n      dup2\n      mstore\n      0x20\n      0x04\n      dup3\n      add\n      mstore\n      0x1e\n      0x24\n      dup3\n      add\n      mstore\n      0x4269746c696d6556323a204944454e544943414c5f4144445245535345530000\n      0x44\n      dup3\n      add\n      mstore\n      swap1\n      mload\n      swap1\n      dup2\n      swap1\n      sub\n      0x64\n      add\n      swap1\n      revert\n    tag_56:\n        /* \"bitlime-core/contracts/BitlimeV2Factory.sol\":927:941  address token0 */\n      0x00\n        /* \"bitlime-core/contracts/BitlimeV2Factory.sol\":943:957  address token1 */\n      dup1\n        /* \"bitlime-core/contracts/BitlimeV2Factory.sol\":970:976  tokenB */\n      dup4\n      sub(shl(0xa0, 0x01), 0x01)\n        /* \"bitlime-core/contracts/BitlimeV2Factory.sol\":961:976  tokenA < tokenB */\n      and\n        /* \"bitlime-core/contracts/BitlimeV2Factory.sol\":961:967  tokenA */\n      dup6\n      sub(shl(0xa0, 0x01), 0x01)\n        /* \"bitlime-core/contracts/BitlimeV2Factory.sol\":961:976  tokenA < tokenB */\n      and\n      lt\n        /* \"bitlime-core/contracts/BitlimeV2Factory.sol\":961:1014  tokenA < tokenB ? (tokenA, tokenB) : (tokenB, tokenA) */\n      tag_57\n      jumpi\n        /* \"bitlime-core/contracts/BitlimeV2Factory.sol\":999:1005  tokenB */\n      dup4\n        /* \"bitlime-core/contracts/BitlimeV2Factory.sol\":1007:1013  tokenA */\n      dup6\n        /* \"bitlime-core/contracts/BitlimeV2Factory.sol\":961:1014  tokenA < tokenB ? (tokenA, tokenB) : (tokenB, tokenA) */\n      jump(tag_58)\n    tag_57:\n        /* \"bitlime-core/contracts/BitlimeV2Factory.sol\":980:986  tokenA */\n      dup5\n        /* \"bitlime-core/contracts/BitlimeV2Factory.sol\":988:994  tokenB */\n      dup5\n        /* \"bitlime-core/contracts/BitlimeV2Factory.sol\":961:1014  tokenA < tokenB ? (tokenA, tokenB) : (tokenB, tokenA) */\n    tag_58:\n        /* \"bitlime-core/contracts/BitlimeV2Factory.sol\":926:1014  (address token0, address token1) = tokenA < tokenB ? (tokenA, tokenB) : (tokenB, tokenA) */\n      swap1\n      swap3\n      pop\n      swap1\n      pop\n      sub(shl(0xa0, 0x01), 0x01)\n        /* \"bitlime-core/contracts/BitlimeV2Factory.sol\":1033:1053  token0 != address(0) */\n      dup3\n      and\n        /* \"bitlime-core/contracts/BitlimeV2Factory.sol\":1025:1081  require(token0 != address(0), 'BitlimeV2: ZERO_ADDRESS') */\n      tag_59\n      jumpi\n      0x40\n      dup1\n      mload\n      shl(0xe5, 0x461bcd)\n      dup2\n      mstore\n      0x20\n      0x04\n      dup3\n      add\n      mstore\n      0x17\n      0x24\n      dup3\n      add\n      mstore\n      0x4269746c696d6556323a205a45524f5f41444452455353000000000000000000\n      0x44\n      dup3\n      add\n      mstore\n      swap1\n      mload\n      swap1\n      dup2\n      swap1\n      sub\n      0x64\n      add\n      swap1\n      revert\n    tag_59:\n      sub(shl(0xa0, 0x01), 0x01)\n        /* \"bitlime-core/contracts/BitlimeV2Factory.sol\":1100:1115  getPair[token0] */\n      dup3\n      dup2\n      and\n        /* \"bitlime-core/contracts/BitlimeV2Factory.sol\":1135:1136  0 */\n      0x00\n        /* \"bitlime-core/contracts/BitlimeV2Factory.sol\":1100:1115  getPair[token0] */\n      swap1\n      dup2\n      mstore\n        /* \"bitlime-core/contracts/BitlimeV2Factory.sol\":1100:1107  getPair */\n      0x03\n        /* \"bitlime-core/contracts/BitlimeV2Factory.sol\":1100:1115  getPair[token0] */\n      0x20\n      swap1\n      dup2\n      mstore\n      0x40\n      dup1\n      dup4\n      keccak256\n        /* \"bitlime-core/contracts/BitlimeV2Factory.sol\":1100:1123  getPair[token0][token1] */\n      dup6\n      dup6\n      and\n      dup5\n      mstore\n      swap1\n      swap2\n      mstore\n      swap1\n      keccak256\n      sload\n      and\n        /* \"bitlime-core/contracts/BitlimeV2Factory.sol\":1100:1137  getPair[token0][token1] == address(0) */\n      iszero\n        /* \"bitlime-core/contracts/BitlimeV2Factory.sol\":1092:1164  require(getPair[token0][token1] == address(0), 'BitlimeV2: PAIR_EXISTS') */\n      tag_60\n      jumpi\n      0x40\n      dup1\n      mload\n      shl(0xe5, 0x461bcd)\n      dup2\n      mstore\n      0x20\n      0x04\n      dup3\n      add\n      mstore\n      0x16\n      0x24\n      dup3\n      add\n      mstore\n      shl(0x50, 0x4269746c696d6556323a20504149525f455849535453)\n      0x44\n      dup3\n      add\n      mstore\n      swap1\n      mload\n      swap1\n      dup2\n      swap1\n      sub\n      0x64\n      add\n      swap1\n      revert\n    tag_60:\n        /* \"bitlime-core/contracts/BitlimeV2Factory.sol\":1205:1226  bytes memory bytecode */\n      0x60\n        /* \"bitlime-core/contracts/BitlimeV2Factory.sol\":1229:1261  type(BitlimeV2Pair).creationCode */\n      mload(0x40)\n      dup1\n      0x20\n      add\n      tag_61\n      swap1\n      tag_47\n      jump\t// in\n    tag_61:\n        /* \"--CODEGEN--\":41:45   */\n      0x20\n        /* \"--CODEGEN--\":34:39   */\n      dup3\n        /* \"--CODEGEN--\":30:46   */\n      add\n        /* \"--CODEGEN--\":25:28   */\n      dup2\n        /* \"--CODEGEN--\":21:47   */\n      sub\n        /* \"--CODEGEN--\":14:19   */\n      dup3\n        /* \"--CODEGEN--\":7:48   */\n      mstore\n        /* \"--CODEGEN--\":87:89   */\n      0x1f\n        /* \"--CODEGEN--\":83:90   */\n      not\n        /* \"--CODEGEN--\":78:80   */\n      0x1f\n        /* \"--CODEGEN--\":73:76   */\n      dup3\n        /* \"--CODEGEN--\":69:81   */\n      add\n        /* \"--CODEGEN--\":65:91   */\n      and\n        /* \"--CODEGEN--\":61:63   */\n      0x40\n        /* \"--CODEGEN--\":54:92   */\n      mstore\n        /* \"bitlime-core/contracts/BitlimeV2Factory.sol\":1229:1261  type(BitlimeV2Pair).creationCode */\n      pop\n        /* \"bitlime-core/contracts/BitlimeV2Factory.sol\":1205:1261  bytes memory bytecode = type(BitlimeV2Pair).creationCode */\n      swap1\n      pop\n        /* \"bitlime-core/contracts/BitlimeV2Factory.sol\":1272:1284  bytes32 salt */\n      0x00\n        /* \"bitlime-core/contracts/BitlimeV2Factory.sol\":1314:1320  token0 */\n      dup4\n        /* \"bitlime-core/contracts/BitlimeV2Factory.sol\":1322:1328  token1 */\n      dup4\n        /* \"bitlime-core/contracts/BitlimeV2Factory.sol\":1297:1329  abi.encodePacked(token0, token1) */\n      add(0x20, mload(0x40))\n      dup1\n      dup4\n      sub(shl(0xa0, 0x01), 0x01)\n      and\n      sub(shl(0xa0, 0x01), 0x01)\n      and\n      0x60\n      shl\n      dup2\n      mstore\n      0x14\n      add\n      dup3\n      sub(shl(0xa0, 0x01), 0x01)\n      and\n      sub(shl(0xa0, 0x01), 0x01)\n      and\n      0x60\n      shl\n      dup2\n      mstore\n      0x14\n      add\n      swap3\n      pop\n      pop\n      pop\n      mload(0x40)\n        /* \"--CODEGEN--\":49:53   */\n      0x20\n        /* \"--CODEGEN--\":39:46   */\n      dup2\n        /* \"--CODEGEN--\":30:37   */\n      dup4\n        /* \"--CODEGEN--\":26:47   */\n      sub\n        /* \"--CODEGEN--\":22:54   */\n      sub\n        /* \"--CODEGEN--\":13:20   */\n      dup2\n        /* \"--CODEGEN--\":6:55   */\n      mstore\n        /* \"bitlime-core/contracts/BitlimeV2Factory.sol\":1297:1329  abi.encodePacked(token0, token1) */\n      swap1\n      0x40\n      mstore\n        /* \"bitlime-core/contracts/BitlimeV2Factory.sol\":1287:1330  keccak256(abi.encodePacked(token0, token1)) */\n      dup1\n      mload\n      swap1\n      0x20\n      add\n      keccak256\n        /* \"bitlime-core/contracts/BitlimeV2Factory.sol\":1272:1330  bytes32 salt = keccak256(abi.encodePacked(token0, token1)) */\n      swap1\n      pop\n        /* \"bitlime-core/contracts/BitlimeV2Factory.sol\":1420:1424  salt */\n      dup1\n        /* \"bitlime-core/contracts/BitlimeV2Factory.sol\":1409:1417  bytecode */\n      dup3\n        /* \"bitlime-core/contracts/BitlimeV2Factory.sol\":1403:1418  mload(bytecode) */\n      mload\n        /* \"bitlime-core/contracts/BitlimeV2Factory.sol\":1398:1400  32 */\n      0x20\n        /* \"bitlime-core/contracts/BitlimeV2Factory.sol\":1388:1396  bytecode */\n      dup5\n        /* \"bitlime-core/contracts/BitlimeV2Factory.sol\":1384:1401  add(bytecode, 32) */\n      add\n        /* \"bitlime-core/contracts/BitlimeV2Factory.sol\":1381:1382  0 */\n      0x00\n        /* \"bitlime-core/contracts/BitlimeV2Factory.sol\":1373:1425  create2(0, add(bytecode, 32), mload(bytecode), salt) */\n      create2\n        /* \"bitlime-core/contracts/BitlimeV2Factory.sol\":1446:1493  IBitlimeV2Pair(pair).initialize(token0, token1) */\n      0x40\n      dup1\n      mload\n      shl(0xe0, 0x485cc955)\n      dup2\n      mstore\n      sub(shl(0xa0, 0x01), 0x01)\n      dup8\n      dup2\n      and\n      0x04\n      dup4\n      add\n      mstore\n      dup7\n      dup2\n      and\n      0x24\n      dup4\n      add\n      mstore\n      swap2\n      mload\n        /* \"bitlime-core/contracts/BitlimeV2Factory.sol\":1365:1425  pair := create2(0, add(bytecode, 32), mload(bytecode), salt) */\n      swap3\n      swap8\n      pop\n        /* \"bitlime-core/contracts/BitlimeV2Factory.sol\":1446:1477  IBitlimeV2Pair(pair).initialize */\n      swap1\n      dup8\n      and\n      swap2\n      0x485cc955\n      swap2\n        /* \"bitlime-core/contracts/BitlimeV2Factory.sol\":1446:1493  IBitlimeV2Pair(pair).initialize(token0, token1) */\n      0x44\n      dup1\n      dup3\n      add\n      swap3\n      0x00\n      swap3\n      swap1\n      swap2\n      swap1\n      dup3\n      swap1\n      sub\n      add\n      dup2\n      dup4\n        /* \"bitlime-core/contracts/BitlimeV2Factory.sol\":1446:1477  IBitlimeV2Pair(pair).initialize */\n      dup8\n        /* \"bitlime-core/contracts/BitlimeV2Factory.sol\":1446:1493  IBitlimeV2Pair(pair).initialize(token0, token1) */\n      dup1\n      extcodesize\n      iszero\n        /* \"--CODEGEN--\":5:7   */\n      dup1\n      iszero\n      tag_62\n      jumpi\n        /* \"--CODEGEN--\":30:31   */\n      0x00\n        /* \"--CODEGEN--\":27:28   */\n      dup1\n        /* \"--CODEGEN--\":20:32   */\n      revert\n        /* \"--CODEGEN--\":5:7   */\n    tag_62:\n        /* \"bitlime-core/contracts/BitlimeV2Factory.sol\":1446:1493  IBitlimeV2Pair(pair).initialize(token0, token1) */\n      pop\n      gas\n      call\n      iszero\n        /* \"--CODEGEN--\":8:17   */\n      dup1\n        /* \"--CODEGEN--\":5:7   */\n      iszero\n      tag_63\n      jumpi\n        /* \"--CODEGEN--\":45:61   */\n      returndatasize\n        /* \"--CODEGEN--\":42:43   */\n      0x00\n        /* \"--CODEGEN--\":39:40   */\n      dup1\n        /* \"--CODEGEN--\":24:62   */\n      returndatacopy\n        /* \"--CODEGEN--\":77:93   */\n      returndatasize\n        /* \"--CODEGEN--\":74:75   */\n      0x00\n        /* \"--CODEGEN--\":67:94   */\n      revert\n        /* \"--CODEGEN--\":5:7   */\n    tag_63:\n      pop\n      pop\n      pop\n      pop\n      sub(shl(0xa0, 0x01), 0x01)\n        /* \"bitlime-core/contracts/BitlimeV2Factory.sol\":1504:1519  getPair[token0] */\n      dup5\n      dup2\n      and\n      0x00\n      dup2\n      dup2\n      mstore\n        /* \"bitlime-core/contracts/BitlimeV2Factory.sol\":1504:1511  getPair */\n      0x03\n        /* \"bitlime-core/contracts/BitlimeV2Factory.sol\":1504:1519  getPair[token0] */\n      0x20\n      dup2\n      dup2\n      mstore\n      0x40\n      dup1\n      dup5\n      keccak256\n        /* \"bitlime-core/contracts/BitlimeV2Factory.sol\":1504:1527  getPair[token0][token1] */\n      dup10\n      dup8\n      and\n      dup1\n      dup7\n      mstore\n      swap1\n      dup4\n      mstore\n      dup2\n      dup6\n      keccak256\n        /* \"bitlime-core/contracts/BitlimeV2Factory.sol\":1504:1534  getPair[token0][token1] = pair */\n      dup1\n      sload\n      swap8\n      dup14\n      and\n      not(sub(shl(0xa0, 0x01), 0x01))\n      swap9\n      dup10\n      and\n      dup2\n      or\n      swap1\n      swap2\n      sstore\n        /* \"bitlime-core/contracts/BitlimeV2Factory.sol\":1545:1560  getPair[token1] */\n      swap4\n      dup4\n      mstore\n      dup2\n      dup6\n      keccak256\n        /* \"bitlime-core/contracts/BitlimeV2Factory.sol\":1545:1568  getPair[token1][token0] */\n      dup7\n      dup7\n      mstore\n      dup4\n      mstore\n      dup2\n      dup6\n      keccak256\n        /* \"bitlime-core/contracts/BitlimeV2Factory.sol\":1545:1575  getPair[token1][token0] = pair */\n      dup1\n      sload\n      dup9\n      and\n      dup6\n      or\n      swap1\n      sstore\n        /* \"bitlime-core/contracts/BitlimeV2Factory.sol\":1631:1639  allPairs */\n      0x04\n        /* \"--CODEGEN--\":27:37   */\n      dup1\n      sload\n      0x01\n        /* \"--CODEGEN--\":23:41   */\n      dup2\n      add\n        /* \"--CODEGEN--\":45:68   */\n      dup3\n      sstore\n        /* \"bitlime-core/contracts/BitlimeV2Factory.sol\":1631:1650  allPairs.push(pair) */\n      swap6\n      dup2\n      swap1\n      mstore\n      0x8a35acfbc15ff81a39ae7d344fd709f28e8600b4aa8c65c6b64bfe7fe36bd19b\n      swap1\n      swap6\n      add\n      dup1\n      sload\n      swap1\n      swap8\n      and\n      dup5\n      or\n      swap1\n      swap7\n      sstore\n        /* \"bitlime-core/contracts/BitlimeV2Factory.sol\":1700:1715  allPairs.length */\n      swap3\n      sload\n        /* \"bitlime-core/contracts/BitlimeV2Factory.sol\":1666:1716  PairCreated(token0, token1, pair, allPairs.length) */\n      dup4\n      mload\n      swap3\n      dup4\n      mstore\n      swap1\n      dup3\n      add\n      mstore\n      dup2\n      mload\n      0x0d3648bd0f6ba80134a33ba9275ac585d9d315f0ad8355cddefde31afa28d0e9\n      swap3\n      swap2\n      dup2\n      swap1\n      sub\n      swap1\n      swap2\n      add\n      swap1\n      log3\n        /* \"bitlime-core/contracts/BitlimeV2Factory.sol\":761:1724  function createPair(address tokenA, address tokenB) external returns (address pair) {\r... */\n      pop\n      pop\n      pop\n      pop\n      swap3\n      swap2\n      pop\n      pop\n      jump\t// out\n        /* \"bitlime-core/contracts/BitlimeV2Factory.sol\":277:297  uint public fee = 25 */\n    tag_36:\n      sload(0x00)\n      dup2\n      jump\t// out\n        /* \"bitlime-core/contracts/BitlimeV2Factory.sol\":366:428  mapping(address => mapping(address => address)) public getPair */\n    tag_39:\n      0x03\n      0x20\n      swap1\n      dup2\n      mstore\n      0x00\n      swap3\n      dup4\n      mstore\n      0x40\n      dup1\n      dup5\n      keccak256\n      swap1\n      swap2\n      mstore\n      swap1\n      dup3\n      mstore\n      swap1\n      keccak256\n      sload\n      sub(shl(0xa0, 0x01), 0x01)\n      and\n      dup2\n      jump\t// out\n        /* \"bitlime-core/contracts/BitlimeV2Factory.sol\":1732:1877  function setFeeTo(address _feeTo) external {\r... */\n    tag_42:\n        /* \"bitlime-core/contracts/BitlimeV2Factory.sol\":1808:1819  feeToSetter */\n      and(sub(shl(0xa0, 0x01), 0x01), sload(0x02))\n        /* \"bitlime-core/contracts/BitlimeV2Factory.sol\":1794:1804  msg.sender */\n      caller\n        /* \"bitlime-core/contracts/BitlimeV2Factory.sol\":1794:1819  msg.sender == feeToSetter */\n      eq\n        /* \"bitlime-core/contracts/BitlimeV2Factory.sol\":1786:1844  require(msg.sender == feeToSetter, 'BitlimeV2: FORBIDDEN') */\n      tag_66\n      jumpi\n      0x40\n      dup1\n      mload\n      shl(0xe5, 0x461bcd)\n      dup2\n      mstore\n      0x20\n      0x04\n      dup3\n      add\n      mstore\n      0x14\n      0x24\n      dup3\n      add\n      mstore\n      shl(0x61, 0x2134ba3634b6b2ab191d102327a92124a22222a7)\n      0x44\n      dup3\n      add\n      mstore\n      swap1\n      mload\n      swap1\n      dup2\n      swap1\n      sub\n      0x64\n      add\n      swap1\n      revert\n    tag_66:\n        /* \"bitlime-core/contracts/BitlimeV2Factory.sol\":1855:1860  feeTo */\n      0x01\n        /* \"bitlime-core/contracts/BitlimeV2Factory.sol\":1855:1869  feeTo = _feeTo */\n      dup1\n      sload\n      not(sub(shl(0xa0, 0x01), 0x01))\n      and\n      sub(shl(0xa0, 0x01), 0x01)\n      swap3\n      swap1\n      swap3\n      and\n      swap2\n      swap1\n      swap2\n      or\n      swap1\n      sstore\n        /* \"bitlime-core/contracts/BitlimeV2Factory.sol\":1732:1877  function setFeeTo(address _feeTo) external {\r... */\n      jump\t// out\n        /* \"bitlime-core/contracts/BitlimeV2Factory.sol\":107:2232  contract BitlimeV2Factory is IBitlimeV2Factory {\r... */\n    tag_47:\n      dataSize(sub_0)\n      dup1\n      dataOffset(sub_0)\n      dup4\n      codecopy\n      add\n      swap1\n      jump\t// out\n    stop\n\n    sub_0: assembly {\n            /* \"bitlime-core/contracts/BitlimeV2Pair.sol\":300:9991  contract BitlimeV2Pair is IBitlimeV2Pair, BitlimeV2ERC20 {\r... */\n          mstore(0x40, 0x80)\n            /* \"bitlime-core/contracts/BitlimeV2Pair.sol\":1169:1170  1 */\n          0x01\n            /* \"bitlime-core/contracts/BitlimeV2Pair.sol\":1145:1170  uint private unlocked = 1 */\n          0x0c\n          sstore\n            /* \"bitlime-core/contracts/BitlimeV2Pair.sol\":2256:2316  constructor() public {\r... */\n          callvalue\n            /* \"--CODEGEN--\":8:17   */\n          dup1\n            /* \"--CODEGEN--\":5:7   */\n          iszero\n          tag_1\n          jumpi\n            /* \"--CODEGEN--\":30:31   */\n          0x00\n            /* \"--CODEGEN--\":27:28   */\n          dup1\n            /* \"--CODEGEN--\":20:32   */\n          revert\n            /* \"--CODEGEN--\":5:7   */\n        tag_1:\n          pop\n            /* \"bitlime-core/contracts/BitlimeV2ERC20.sol\":1133:1228  keccak256('EIP712Domain(string name,string version,uint256 chainId,address verifyingContract)') */\n          mload(0x40)\n            /* \"bitlime-core/contracts/BitlimeV2ERC20.sol\":1033:1040  chainid */\n          chainid\n          swap1\n            /* \"bitlime-core/contracts/BitlimeV2ERC20.sol\":1133:1228  keccak256('EIP712Domain(string name,string version,uint256 chainId,address verifyingContract)') */\n          dup1\n          0x52\n          data_8b73c3c69bb8fe3d512ecc4cf759cc79239f7b179b0ffacaa9a75d522b39400f\n          dup3\n          codecopy\n          0x40\n          dup1\n          mload\n          swap2\n          dup3\n          swap1\n          sub\n          0x52\n          add\n          dup3\n          keccak256\n            /* \"bitlime-core/contracts/BitlimeV2ERC20.sol\":1263:1267  name */\n          dup3\n          dup3\n          add\n          dup3\n          mstore\n          0x0a\n          dup4\n          mstore\n          shl(0xb1, 0x2134ba3634b6b2902b19)\n          0x20\n          swap4\n          dup5\n          add\n          mstore\n            /* \"bitlime-core/contracts/BitlimeV2ERC20.sol\":1298:1308  bytes('1') */\n          dup2\n          mload\n          dup1\n          dup4\n          add\n          dup4\n          mstore\n          0x01\n          dup2\n          mstore\n          shl(0xf8, 0x31)\n          swap1\n          dup5\n          add\n          mstore\n            /* \"bitlime-core/contracts/BitlimeV2ERC20.sol\":1104:1382  abi.encode(\r... */\n          dup2\n          mload\n          dup1\n          dup5\n          add\n          swap2\n          swap1\n          swap2\n          mstore\n            /* \"bitlime-core/contracts/BitlimeV2ERC20.sol\":1247:1269  keccak256(bytes(name)) */\n          0x446e80230380561d906573d2b5dbfc9fadb3f5adee8411e56a4c6511d92876e3\n            /* \"bitlime-core/contracts/BitlimeV2ERC20.sol\":1104:1382  abi.encode(\r... */\n          dup2\n          dup4\n          add\n          mstore\n            /* \"bitlime-core/contracts/BitlimeV2ERC20.sol\":1288:1309  keccak256(bytes('1')) */\n          0xc89efdaa54c0f20c7adf612882df0950f5a951637e0307cdcb4c672f298b8bc6\n            /* \"bitlime-core/contracts/BitlimeV2ERC20.sol\":1104:1382  abi.encode(\r... */\n          0x60\n          dup3\n          add\n          mstore\n          0x80\n          dup2\n          add\n          swap5\n          swap1\n          swap5\n          mstore\n            /* \"bitlime-core/contracts/BitlimeV2ERC20.sol\":1362:1366  this */\n          address\n            /* \"bitlime-core/contracts/BitlimeV2ERC20.sol\":1104:1382  abi.encode(\r... */\n          0xa0\n          dup1\n          dup7\n          add\n          swap2\n          swap1\n          swap2\n          mstore\n          dup2\n          mload\n            /* \"--CODEGEN--\":26:47   */\n          dup1\n          dup7\n          sub\n            /* \"--CODEGEN--\":22:54   */\n          swap1\n          swap2\n          add\n            /* \"--CODEGEN--\":6:55   */\n          dup2\n          mstore\n            /* \"bitlime-core/contracts/BitlimeV2ERC20.sol\":1104:1382  abi.encode(\r... */\n          0xc0\n          swap1\n          swap5\n          add\n          swap1\n          mstore\n            /* \"bitlime-core/contracts/BitlimeV2ERC20.sol\":1080:1393  keccak256(\r... */\n          dup3\n          mload\n          swap3\n          add\n          swap2\n          swap1\n          swap2\n          keccak256\n            /* \"bitlime-core/contracts/BitlimeV2ERC20.sol\":1061:1077  DOMAIN_SEPARATOR */\n          0x03\n            /* \"bitlime-core/contracts/BitlimeV2ERC20.sol\":1061:1393  DOMAIN_SEPARATOR = keccak256(\r... */\n          sstore\n          pop\n            /* \"bitlime-core/contracts/BitlimeV2Pair.sol\":2288:2295  factory */\n          0x05\n            /* \"bitlime-core/contracts/BitlimeV2Pair.sol\":2288:2308  factory = msg.sender */\n          dup1\n          sload\n          not(sub(shl(0xa0, 0x01), 0x01))\n          and\n            /* \"bitlime-core/contracts/BitlimeV2Pair.sol\":2298:2308  msg.sender */\n          caller\n            /* \"bitlime-core/contracts/BitlimeV2Pair.sol\":2288:2308  factory = msg.sender */\n          or\n          swap1\n          sstore\n          0x2282\n          dup1\n            /* \"bitlime-core/contracts/BitlimeV2Pair.sol\":300:9991  contract BitlimeV2Pair is IBitlimeV2Pair, BitlimeV2ERC20 {\r... */\n          dataOffset(sub_0)\n          0x00\n          codecopy\n          0x00\n          return\n        stop\n        data_8b73c3c69bb8fe3d512ecc4cf759cc79239f7b179b0ffacaa9a75d522b39400f 454950373132446f6d61696e28737472696e67206e616d652c737472696e672076657273696f6e2c75696e7432353620636861696e49642c6164647265737320766572696679696e67436f6e747261637429\n\n        sub_0: assembly {\n                /* \"bitlime-core/contracts/BitlimeV2Pair.sol\":300:9991  contract BitlimeV2Pair is IBitlimeV2Pair, BitlimeV2ERC20 {\r... */\n              mstore(0x40, 0x80)\n              callvalue\n                /* \"--CODEGEN--\":8:17   */\n              dup1\n                /* \"--CODEGEN--\":5:7   */\n              iszero\n              tag_1\n              jumpi\n                /* \"--CODEGEN--\":30:31   */\n              0x00\n                /* \"--CODEGEN--\":27:28   */\n              dup1\n                /* \"--CODEGEN--\":20:32   */\n              revert\n                /* \"--CODEGEN--\":5:7   */\n            tag_1:\n                /* \"bitlime-core/contracts/BitlimeV2Pair.sol\":300:9991  contract BitlimeV2Pair is IBitlimeV2Pair, BitlimeV2ERC20 {\r... */\n              pop\n              jumpi(tag_2, lt(calldatasize, 0x04))\n              shr(0xe0, calldataload(0x00))\n              dup1\n              0x6a627842\n              gt\n              tag_30\n              jumpi\n              dup1\n              0xba9a7a56\n              gt\n              tag_31\n              jumpi\n              dup1\n              0xd21220a7\n              gt\n              tag_32\n              jumpi\n              dup1\n              0xd21220a7\n              eq\n              tag_26\n              jumpi\n              dup1\n              0xd505accf\n              eq\n              tag_27\n              jumpi\n              dup1\n              0xdd62ed3e\n              eq\n              tag_28\n              jumpi\n              dup1\n              0xfff6cae9\n              eq\n              tag_29\n              jumpi\n              jump(tag_2)\n            tag_32:\n              dup1\n              0xba9a7a56\n              eq\n              tag_23\n              jumpi\n              dup1\n              0xbc25cf77\n              eq\n              tag_24\n              jumpi\n              dup1\n              0xc45a0155\n              eq\n              tag_25\n              jumpi\n              jump(tag_2)\n            tag_31:\n              dup1\n              0x7ecebe00\n              gt\n              tag_33\n              jumpi\n              dup1\n              0x7ecebe00\n              eq\n              tag_19\n              jumpi\n              dup1\n              0x89afcb44\n              eq\n              tag_20\n              jumpi\n              dup1\n              0x95d89b41\n              eq\n              tag_21\n              jumpi\n              dup1\n              0xa9059cbb\n              eq\n              tag_22\n              jumpi\n              jump(tag_2)\n            tag_33:\n              dup1\n              0x6a627842\n              eq\n              tag_16\n              jumpi\n              dup1\n              0x70a08231\n              eq\n              tag_17\n              jumpi\n              dup1\n              0x7464fc3d\n              eq\n              tag_18\n              jumpi\n              jump(tag_2)\n            tag_30:\n              dup1\n              0x23b872dd\n              gt\n              tag_34\n              jumpi\n              dup1\n              0x3644e515\n              gt\n              tag_35\n              jumpi\n              dup1\n              0x3644e515\n              eq\n              tag_12\n              jumpi\n              dup1\n              0x485cc955\n              eq\n              tag_13\n              jumpi\n              dup1\n              0x5909c0d5\n              eq\n              tag_14\n              jumpi\n              dup1\n              0x5a3d5493\n              eq\n              tag_15\n              jumpi\n              jump(tag_2)\n            tag_35:\n              dup1\n              0x23b872dd\n              eq\n              tag_9\n              jumpi\n              dup1\n              0x30adf81f\n              eq\n              tag_10\n              jumpi\n              dup1\n              0x313ce567\n              eq\n              tag_11\n              jumpi\n              jump(tag_2)\n            tag_34:\n              dup1\n              0x022c0d9f\n              eq\n              tag_3\n              jumpi\n              dup1\n              0x06fdde03\n              eq\n              tag_4\n              jumpi\n              dup1\n              0x0902f1ac\n              eq\n              tag_5\n              jumpi\n              dup1\n              0x095ea7b3\n              eq\n              tag_6\n              jumpi\n              dup1\n              0x0dfe1681\n              eq\n              tag_7\n              jumpi\n              dup1\n              0x18160ddd\n              eq\n              tag_8\n              jumpi\n            tag_2:\n              0x00\n              dup1\n              revert\n                /* \"bitlime-core/contracts/BitlimeV2Pair.sol\":7505:9398  function swap(uint amount0Out, uint amount1Out, address to, bytes calldata data) external lock {\r... */\n            tag_3:\n              tag_36\n              0x04\n              dup1\n              calldatasize\n              sub\n                /* \"--CODEGEN--\":13:16   */\n              0x80\n                /* \"--CODEGEN--\":8:11   */\n              dup2\n                /* \"--CODEGEN--\":5:17   */\n              lt\n                /* \"--CODEGEN--\":2:4   */\n              iszero\n              tag_37\n              jumpi\n                /* \"--CODEGEN--\":30:31   */\n              0x00\n                /* \"--CODEGEN--\":27:28   */\n              dup1\n                /* \"--CODEGEN--\":20:32   */\n              revert\n                /* \"--CODEGEN--\":2:4   */\n            tag_37:\n                /* \"bitlime-core/contracts/BitlimeV2Pair.sol\":7505:9398  function swap(uint amount0Out, uint amount1Out, address to, bytes calldata data) external lock {\r... */\n              dup2\n              calldataload\n              swap2\n              0x20\n              dup2\n              add\n              calldataload\n              swap2\n              0x40\n              dup3\n              add\n              calldataload\n              sub(shl(0xa0, 0x01), 0x01)\n              and\n              swap2\n              swap1\n              dup2\n              add\n              swap1\n              0x80\n              dup2\n              add\n              0x60\n              dup3\n              add\n              calldataload\n                /* \"--CODEGEN--\":21:32   */\n              0x0100000000\n                /* \"--CODEGEN--\":5:33   */\n              dup2\n              gt\n                /* \"--CODEGEN--\":2:4   */\n              iszero\n              tag_38\n              jumpi\n                /* \"--CODEGEN--\":46:47   */\n              0x00\n                /* \"--CODEGEN--\":43:44   */\n              dup1\n                /* \"--CODEGEN--\":36:48   */\n              revert\n                /* \"--CODEGEN--\":2:4   */\n            tag_38:\n                /* \"bitlime-core/contracts/BitlimeV2Pair.sol\":7505:9398  function swap(uint amount0Out, uint amount1Out, address to, bytes calldata data) external lock {\r... */\n              dup3\n              add\n                /* \"--CODEGEN--\":35:44   */\n              dup4\n                /* \"--CODEGEN--\":28:32   */\n              0x20\n                /* \"--CODEGEN--\":12:26   */\n              dup3\n                /* \"--CODEGEN--\":8:33   */\n              add\n                /* \"--CODEGEN--\":5:45   */\n              gt\n                /* \"--CODEGEN--\":2:4   */\n              iszero\n              tag_39\n              jumpi\n                /* \"--CODEGEN--\":58:59   */\n              0x00\n                /* \"--CODEGEN--\":55:56   */\n              dup1\n                /* \"--CODEGEN--\":48:60   */\n              revert\n                /* \"--CODEGEN--\":2:4   */\n            tag_39:\n                /* \"bitlime-core/contracts/BitlimeV2Pair.sol\":7505:9398  function swap(uint amount0Out, uint amount1Out, address to, bytes calldata data) external lock {\r... */\n              dup1\n              calldataload\n              swap1\n              0x20\n              add\n              swap2\n                /* \"--CODEGEN--\":100:109   */\n              dup5\n                /* \"--CODEGEN--\":95:96   */\n              0x01\n                /* \"--CODEGEN--\":81:93   */\n              dup4\n                /* \"--CODEGEN--\":77:97   */\n              mul\n                /* \"--CODEGEN--\":67:75   */\n              dup5\n                /* \"--CODEGEN--\":63:98   */\n              add\n                /* \"--CODEGEN--\":60:110   */\n              gt\n                /* \"--CODEGEN--\":39:50   */\n              0x0100000000\n                /* \"--CODEGEN--\":25:37   */\n              dup4\n                /* \"--CODEGEN--\":22:51   */\n              gt\n                /* \"--CODEGEN--\":11:118   */\n              or\n                /* \"--CODEGEN--\":8:10   */\n              iszero\n              tag_40\n              jumpi\n                /* \"--CODEGEN--\":131:132   */\n              0x00\n                /* \"--CODEGEN--\":128:129   */\n              dup1\n                /* \"--CODEGEN--\":121:133   */\n              revert\n                /* \"--CODEGEN--\":8:10   */\n            tag_40:\n              pop\n                /* \"bitlime-core/contracts/BitlimeV2Pair.sol\":7505:9398  function swap(uint amount0Out, uint amount1Out, address to, bytes calldata data) external lock {\r... */\n              swap1\n              swap3\n              pop\n              swap1\n              pop\n              tag_41\n              jump\t// in\n            tag_36:\n              stop\n                /* \"bitlime-core/contracts/BitlimeV2ERC20.sol\":192:234  string public constant name = 'Bitlime V2' */\n            tag_4:\n              tag_42\n              tag_43\n              jump\t// in\n            tag_42:\n              0x40\n              dup1\n              mload\n              0x20\n              dup1\n              dup3\n              mstore\n              dup4\n              mload\n              dup2\n              dup4\n              add\n              mstore\n              dup4\n              mload\n              swap2\n              swap3\n              dup4\n              swap3\n              swap1\n              dup4\n              add\n              swap2\n              dup6\n              add\n              swap1\n              dup1\n              dup4\n              dup4\n              0x00\n                /* \"--CODEGEN--\":8:108   */\n            tag_44:\n                /* \"--CODEGEN--\":33:36   */\n              dup4\n                /* \"--CODEGEN--\":30:31   */\n              dup2\n                /* \"--CODEGEN--\":27:37   */\n              lt\n                /* \"--CODEGEN--\":8:108   */\n              iszero\n              tag_46\n              jumpi\n                /* \"--CODEGEN--\":90:101   */\n              dup2\n              dup2\n              add\n                /* \"--CODEGEN--\":84:102   */\n              mload\n                /* \"--CODEGEN--\":71:82   */\n              dup4\n              dup3\n              add\n                /* \"--CODEGEN--\":64:103   */\n              mstore\n                /* \"--CODEGEN--\":52:54   */\n              0x20\n                /* \"--CODEGEN--\":45:55   */\n              add\n                /* \"--CODEGEN--\":8:108   */\n              jump(tag_44)\n            tag_46:\n                /* \"--CODEGEN--\":12:26   */\n              pop\n                /* \"bitlime-core/contracts/BitlimeV2ERC20.sol\":192:234  string public constant name = 'Bitlime V2' */\n              pop\n              pop\n              pop\n              swap1\n              pop\n              swap1\n              dup2\n              add\n              swap1\n              0x1f\n              and\n              dup1\n              iszero\n              tag_47\n              jumpi\n              dup1\n              dup3\n              sub\n              dup1\n              mload\n              0x01\n              dup4\n              0x20\n              sub\n              0x0100\n              exp\n              sub\n              not\n              and\n              dup2\n              mstore\n              0x20\n              add\n              swap2\n              pop\n            tag_47:\n              pop\n              swap3\n              pop\n              pop\n              pop\n              mload(0x40)\n              dup1\n              swap2\n              sub\n              swap1\n              return\n                /* \"bitlime-core/contracts/BitlimeV2Pair.sol\":1321:1552  function getReserves() public view returns (uint112 _reserve0, uint112 _reserve1, uint32 _blockTimestampLast) {\r... */\n            tag_5:\n              tag_48\n              tag_49\n              jump\t// in\n            tag_48:\n              0x40\n              dup1\n              mload\n              sub(shl(0x70, 0x01), 0x01)\n              swap5\n              dup6\n              and\n              dup2\n              mstore\n              swap3\n              swap1\n              swap4\n              and\n              0x20\n              dup4\n              add\n              mstore\n              0xffffffff\n              and\n              dup2\n              dup4\n              add\n              mstore\n              swap1\n              mload\n              swap1\n              dup2\n              swap1\n              sub\n              0x60\n              add\n              swap1\n              return\n                /* \"bitlime-core/contracts/BitlimeV2ERC20.sol\":2240:2387  function approve(address spender, uint value) external returns (bool) {\r... */\n            tag_6:\n              tag_50\n              0x04\n              dup1\n              calldatasize\n              sub\n                /* \"--CODEGEN--\":13:15   */\n              0x40\n                /* \"--CODEGEN--\":8:11   */\n              dup2\n                /* \"--CODEGEN--\":5:16   */\n              lt\n                /* \"--CODEGEN--\":2:4   */\n              iszero\n              tag_51\n              jumpi\n                /* \"--CODEGEN--\":29:30   */\n              0x00\n                /* \"--CODEGEN--\":26:27   */\n              dup1\n                /* \"--CODEGEN--\":19:31   */\n              revert\n                /* \"--CODEGEN--\":2:4   */\n            tag_51:\n              pop\n                /* \"bitlime-core/contracts/BitlimeV2ERC20.sol\":2240:2387  function approve(address spender, uint value) external returns (bool) {\r... */\n              dup1\n              calldataload\n              sub(shl(0xa0, 0x01), 0x01)\n              and\n              swap1\n              0x20\n              add\n              calldataload\n              tag_52\n              jump\t// in\n            tag_50:\n              0x40\n              dup1\n              mload\n              swap2\n              iszero\n              iszero\n              dup3\n              mstore\n              mload\n              swap1\n              dup2\n              swap1\n              sub\n              0x20\n              add\n              swap1\n              return\n                /* \"bitlime-core/contracts/BitlimeV2Pair.sol\":610:631  address public token0 */\n            tag_7:\n              tag_53\n              tag_54\n              jump\t// in\n            tag_53:\n              0x40\n              dup1\n              mload\n              0x01\n              dup1\n              0xa0\n              shl\n              sub\n              swap1\n              swap3\n              and\n              dup3\n              mstore\n              mload\n              swap1\n              dup2\n              swap1\n              sub\n              0x20\n              add\n              swap1\n              return\n                /* \"bitlime-core/contracts/BitlimeV2ERC20.sol\":331:355  uint  public totalSupply */\n            tag_8:\n              tag_55\n              tag_56\n              jump\t// in\n            tag_55:\n              0x40\n              dup1\n              mload\n              swap2\n              dup3\n              mstore\n              mload\n              swap1\n              dup2\n              swap1\n              sub\n              0x20\n              add\n              swap1\n              return\n                /* \"bitlime-core/contracts/BitlimeV2ERC20.sol\":2542:2843  function transferFrom(address from, address to, uint value) external returns (bool) {\r... */\n            tag_9:\n              tag_50\n              0x04\n              dup1\n              calldatasize\n              sub\n                /* \"--CODEGEN--\":13:15   */\n              0x60\n                /* \"--CODEGEN--\":8:11   */\n              dup2\n                /* \"--CODEGEN--\":5:16   */\n              lt\n                /* \"--CODEGEN--\":2:4   */\n              iszero\n              tag_58\n              jumpi\n                /* \"--CODEGEN--\":29:30   */\n              0x00\n                /* \"--CODEGEN--\":26:27   */\n              dup1\n                /* \"--CODEGEN--\":19:31   */\n              revert\n                /* \"--CODEGEN--\":2:4   */\n            tag_58:\n              pop\n              sub(shl(0xa0, 0x01), 0x01)\n                /* \"bitlime-core/contracts/BitlimeV2ERC20.sol\":2542:2843  function transferFrom(address from, address to, uint value) external returns (bool) {\r... */\n              dup2\n              calldataload\n              dup2\n              and\n              swap2\n              0x20\n              dup2\n              add\n              calldataload\n              swap1\n              swap2\n              and\n              swap1\n              0x40\n              add\n              calldataload\n              tag_59\n              jump\t// in\n                /* \"bitlime-core/contracts/BitlimeV2ERC20.sol\":623:731  bytes32 public constant PERMIT_TYPEHASH = 0x6e71edae12b1b97f4d1f60370fef10105fa2faae0126114a169c64845d6126c9 */\n            tag_10:\n              tag_55\n              tag_61\n              jump\t// in\n                /* \"bitlime-core/contracts/BitlimeV2ERC20.sol\":289:324  uint8 public constant decimals = 18 */\n            tag_11:\n              tag_62\n              tag_63\n              jump\t// in\n            tag_62:\n              0x40\n              dup1\n              mload\n              0xff\n              swap1\n              swap3\n              and\n              dup3\n              mstore\n              mload\n              swap1\n              dup2\n              swap1\n              sub\n              0x20\n              add\n              swap1\n              return\n                /* \"bitlime-core/contracts/BitlimeV2ERC20.sol\":480:511  bytes32 public DOMAIN_SEPARATOR */\n            tag_12:\n              tag_55\n              tag_65\n              jump\t// in\n                /* \"bitlime-core/contracts/BitlimeV2Pair.sol\":2381:2591  function initialize(address _token0, address _token1) external {\r... */\n            tag_13:\n              tag_36\n              0x04\n              dup1\n              calldatasize\n              sub\n                /* \"--CODEGEN--\":13:15   */\n              0x40\n                /* \"--CODEGEN--\":8:11   */\n              dup2\n                /* \"--CODEGEN--\":5:16   */\n              lt\n                /* \"--CODEGEN--\":2:4   */\n              iszero\n              tag_67\n              jumpi\n                /* \"--CODEGEN--\":29:30   */\n              0x00\n                /* \"--CODEGEN--\":26:27   */\n              dup1\n                /* \"--CODEGEN--\":19:31   */\n              revert\n                /* \"--CODEGEN--\":2:4   */\n            tag_67:\n              pop\n              sub(shl(0xa0, 0x01), 0x01)\n                /* \"bitlime-core/contracts/BitlimeV2Pair.sol\":2381:2591  function initialize(address _token0, address _token1) external {\r... */\n              dup2\n              calldataload\n              dup2\n              and\n              swap2\n              0x20\n              add\n              calldataload\n              and\n              tag_68\n              jump\t// in\n                /* \"bitlime-core/contracts/BitlimeV2Pair.sol\":961:993  uint public price0CumulativeLast */\n            tag_14:\n              tag_55\n              tag_70\n              jump\t// in\n                /* \"bitlime-core/contracts/BitlimeV2Pair.sol\":1000:1032  uint public price1CumulativeLast */\n            tag_15:\n              tag_55\n              tag_72\n              jump\t// in\n                /* \"bitlime-core/contracts/BitlimeV2Pair.sol\":4575:5815  function mint(address to) external lock returns (uint liquidity) {\r... */\n            tag_16:\n              tag_55\n              0x04\n              dup1\n              calldatasize\n              sub\n                /* \"--CODEGEN--\":13:15   */\n              0x20\n                /* \"--CODEGEN--\":8:11   */\n              dup2\n                /* \"--CODEGEN--\":5:16   */\n              lt\n                /* \"--CODEGEN--\":2:4   */\n              iszero\n              tag_74\n              jumpi\n                /* \"--CODEGEN--\":29:30   */\n              0x00\n                /* \"--CODEGEN--\":26:27   */\n              dup1\n                /* \"--CODEGEN--\":19:31   */\n              revert\n                /* \"--CODEGEN--\":2:4   */\n            tag_74:\n              pop\n                /* \"bitlime-core/contracts/BitlimeV2Pair.sol\":4575:5815  function mint(address to) external lock returns (uint liquidity) {\r... */\n              calldataload\n              sub(shl(0xa0, 0x01), 0x01)\n              and\n              tag_75\n              jump\t// in\n                /* \"bitlime-core/contracts/BitlimeV2ERC20.sol\":362:403  mapping(address => uint) public balanceOf */\n            tag_17:\n              tag_55\n              0x04\n              dup1\n              calldatasize\n              sub\n                /* \"--CODEGEN--\":13:15   */\n              0x20\n                /* \"--CODEGEN--\":8:11   */\n              dup2\n                /* \"--CODEGEN--\":5:16   */\n              lt\n                /* \"--CODEGEN--\":2:4   */\n              iszero\n              tag_77\n              jumpi\n                /* \"--CODEGEN--\":29:30   */\n              0x00\n                /* \"--CODEGEN--\":26:27   */\n              dup1\n                /* \"--CODEGEN--\":19:31   */\n              revert\n                /* \"--CODEGEN--\":2:4   */\n            tag_77:\n              pop\n                /* \"bitlime-core/contracts/BitlimeV2ERC20.sol\":362:403  mapping(address => uint) public balanceOf */\n              calldataload\n              sub(shl(0xa0, 0x01), 0x01)\n              and\n              tag_78\n              jump\t// in\n                /* \"bitlime-core/contracts/BitlimeV2Pair.sol\":1039:1056  uint public kLast */\n            tag_18:\n              tag_55\n              tag_80\n              jump\t// in\n                /* \"bitlime-core/contracts/BitlimeV2ERC20.sol\":738:776  mapping(address => uint) public nonces */\n            tag_19:\n              tag_55\n              0x04\n              dup1\n              calldatasize\n              sub\n                /* \"--CODEGEN--\":13:15   */\n              0x20\n                /* \"--CODEGEN--\":8:11   */\n              dup2\n                /* \"--CODEGEN--\":5:16   */\n              lt\n                /* \"--CODEGEN--\":2:4   */\n              iszero\n              tag_82\n              jumpi\n                /* \"--CODEGEN--\":29:30   */\n              0x00\n                /* \"--CODEGEN--\":26:27   */\n              dup1\n                /* \"--CODEGEN--\":19:31   */\n              revert\n                /* \"--CODEGEN--\":2:4   */\n            tag_82:\n              pop\n                /* \"bitlime-core/contracts/BitlimeV2ERC20.sol\":738:776  mapping(address => uint) public nonces */\n              calldataload\n              sub(shl(0xa0, 0x01), 0x01)\n              and\n              tag_83\n              jump\t// in\n                /* \"bitlime-core/contracts/BitlimeV2Pair.sol\":5927:7393  function burn(address to) external lock returns (uint amount0, uint amount1) {\r... */\n            tag_20:\n              tag_84\n              0x04\n              dup1\n              calldatasize\n              sub\n                /* \"--CODEGEN--\":13:15   */\n              0x20\n                /* \"--CODEGEN--\":8:11   */\n              dup2\n                /* \"--CODEGEN--\":5:16   */\n              lt\n                /* \"--CODEGEN--\":2:4   */\n              iszero\n              tag_85\n              jumpi\n                /* \"--CODEGEN--\":29:30   */\n              0x00\n                /* \"--CODEGEN--\":26:27   */\n              dup1\n                /* \"--CODEGEN--\":19:31   */\n              revert\n                /* \"--CODEGEN--\":2:4   */\n            tag_85:\n              pop\n                /* \"bitlime-core/contracts/BitlimeV2Pair.sol\":5927:7393  function burn(address to) external lock returns (uint amount0, uint amount1) {\r... */\n              calldataload\n              sub(shl(0xa0, 0x01), 0x01)\n              and\n              tag_86\n              jump\t// in\n            tag_84:\n              0x40\n              dup1\n              mload\n              swap3\n              dup4\n              mstore\n              0x20\n              dup4\n              add\n              swap2\n              swap1\n              swap2\n              mstore\n              dup1\n              mload\n              swap2\n              dup3\n              swap1\n              sub\n              add\n              swap1\n              return\n                /* \"bitlime-core/contracts/BitlimeV2ERC20.sol\":241:282  string public constant symbol = 'LIME-V2' */\n            tag_21:\n              tag_42\n              tag_88\n              jump\t// in\n                /* \"bitlime-core/contracts/BitlimeV2ERC20.sol\":2395:2534  function transfer(address to, uint value) external returns (bool) {\r... */\n            tag_22:\n              tag_50\n              0x04\n              dup1\n              calldatasize\n              sub\n                /* \"--CODEGEN--\":13:15   */\n              0x40\n                /* \"--CODEGEN--\":8:11   */\n              dup2\n                /* \"--CODEGEN--\":5:16   */\n              lt\n                /* \"--CODEGEN--\":2:4   */\n              iszero\n              tag_94\n              jumpi\n                /* \"--CODEGEN--\":29:30   */\n              0x00\n                /* \"--CODEGEN--\":26:27   */\n              dup1\n                /* \"--CODEGEN--\":19:31   */\n              revert\n                /* \"--CODEGEN--\":2:4   */\n            tag_94:\n              pop\n                /* \"bitlime-core/contracts/BitlimeV2ERC20.sol\":2395:2534  function transfer(address to, uint value) external returns (bool) {\r... */\n              dup1\n              calldataload\n              sub(shl(0xa0, 0x01), 0x01)\n              and\n              swap1\n              0x20\n              add\n              calldataload\n              tag_95\n              jump\t// in\n                /* \"bitlime-core/contracts/BitlimeV2Pair.sol\":431:477  uint public constant MINIMUM_LIQUIDITY = 10**3 */\n            tag_23:\n              tag_55\n              tag_97\n              jump\t// in\n                /* \"bitlime-core/contracts/BitlimeV2Pair.sol\":9447:9781  function skim(address to) external lock {\r... */\n            tag_24:\n              tag_36\n              0x04\n              dup1\n              calldatasize\n              sub\n                /* \"--CODEGEN--\":13:15   */\n              0x20\n                /* \"--CODEGEN--\":8:11   */\n              dup2\n                /* \"--CODEGEN--\":5:16   */\n              lt\n                /* \"--CODEGEN--\":2:4   */\n              iszero\n              tag_99\n              jumpi\n                /* \"--CODEGEN--\":29:30   */\n              0x00\n                /* \"--CODEGEN--\":26:27   */\n              dup1\n                /* \"--CODEGEN--\":19:31   */\n              revert\n                /* \"--CODEGEN--\":2:4   */\n            tag_99:\n              pop\n                /* \"bitlime-core/contracts/BitlimeV2Pair.sol\":9447:9781  function skim(address to) external lock {\r... */\n              calldataload\n              sub(shl(0xa0, 0x01), 0x01)\n              and\n              tag_100\n              jump\t// in\n                /* \"bitlime-core/contracts/BitlimeV2Pair.sol\":581:603  address public factory */\n            tag_25:\n              tag_53\n              tag_102\n              jump\t// in\n                /* \"bitlime-core/contracts/BitlimeV2Pair.sol\":638:659  address public token1 */\n            tag_26:\n              tag_53\n              tag_104\n              jump\t// in\n                /* \"bitlime-core/contracts/BitlimeV2ERC20.sol\":2851:3525  function permit(address owner, address spender, uint value, uint deadline, uint8 v, bytes32 r, bytes32 s) external {\r... */\n            tag_27:\n              tag_36\n              0x04\n              dup1\n              calldatasize\n              sub\n                /* \"--CODEGEN--\":13:16   */\n              0xe0\n                /* \"--CODEGEN--\":8:11   */\n              dup2\n                /* \"--CODEGEN--\":5:17   */\n              lt\n                /* \"--CODEGEN--\":2:4   */\n              iszero\n              tag_106\n              jumpi\n                /* \"--CODEGEN--\":30:31   */\n              0x00\n                /* \"--CODEGEN--\":27:28   */\n              dup1\n                /* \"--CODEGEN--\":20:32   */\n              revert\n                /* \"--CODEGEN--\":2:4   */\n            tag_106:\n              pop\n              sub(shl(0xa0, 0x01), 0x01)\n                /* \"bitlime-core/contracts/BitlimeV2ERC20.sol\":2851:3525  function permit(address owner, address spender, uint value, uint deadline, uint8 v, bytes32 r, bytes32 s) external {\r... */\n              dup2\n              calldataload\n              dup2\n              and\n              swap2\n              0x20\n              dup2\n              add\n              calldataload\n              swap1\n              swap2\n              and\n              swap1\n              0x40\n              dup2\n              add\n              calldataload\n              swap1\n              0x60\n              dup2\n              add\n              calldataload\n              swap1\n              0xff\n              0x80\n              dup3\n              add\n              calldataload\n              and\n              swap1\n              0xa0\n              dup2\n              add\n              calldataload\n              swap1\n              0xc0\n              add\n              calldataload\n              tag_107\n              jump\t// in\n                /* \"bitlime-core/contracts/BitlimeV2ERC20.sol\":410:471  mapping(address => mapping(address => uint)) public allowance */\n            tag_28:\n              tag_55\n              0x04\n              dup1\n              calldatasize\n              sub\n                /* \"--CODEGEN--\":13:15   */\n              0x40\n                /* \"--CODEGEN--\":8:11   */\n              dup2\n                /* \"--CODEGEN--\":5:16   */\n              lt\n                /* \"--CODEGEN--\":2:4   */\n              iszero\n              tag_109\n              jumpi\n                /* \"--CODEGEN--\":29:30   */\n              0x00\n                /* \"--CODEGEN--\":26:27   */\n              dup1\n                /* \"--CODEGEN--\":19:31   */\n              revert\n                /* \"--CODEGEN--\":2:4   */\n            tag_109:\n              pop\n              sub(shl(0xa0, 0x01), 0x01)\n                /* \"bitlime-core/contracts/BitlimeV2ERC20.sol\":410:471  mapping(address => mapping(address => uint)) public allowance */\n              dup2\n              calldataload\n              dup2\n              and\n              swap2\n              0x20\n              add\n              calldataload\n              and\n              tag_110\n              jump\t// in\n                /* \"bitlime-core/contracts/BitlimeV2Pair.sol\":9830:9988  function sync() external lock {\r... */\n            tag_29:\n              tag_36\n              tag_112\n              jump\t// in\n                /* \"bitlime-core/contracts/BitlimeV2Pair.sol\":7505:9398  function swap(uint amount0Out, uint amount1Out, address to, bytes calldata data) external lock {\r... */\n            tag_41:\n                /* \"bitlime-core/contracts/BitlimeV2Pair.sol\":1212:1220  unlocked */\n              sload(0x0c)\n                /* \"bitlime-core/contracts/BitlimeV2Pair.sol\":1224:1225  1 */\n              0x01\n                /* \"bitlime-core/contracts/BitlimeV2Pair.sol\":1212:1225  unlocked == 1 */\n              eq\n                /* \"bitlime-core/contracts/BitlimeV2Pair.sol\":1204:1247  require(unlocked == 1, 'BitlimeV2: LOCKED') */\n              tag_114\n              jumpi\n              0x40\n              dup1\n              mload\n              shl(0xe5, 0x461bcd)\n              dup2\n              mstore\n              0x20\n              0x04\n              dup3\n              add\n              mstore\n              0x11\n              0x24\n              dup3\n              add\n              mstore\n              shl(0x7a, 0x109a5d1b1a5b59558c8e881313d0d2d151)\n              0x44\n              dup3\n              add\n              mstore\n              swap1\n              mload\n              swap1\n              dup2\n              swap1\n              sub\n              0x64\n              add\n              swap1\n              revert\n            tag_114:\n                /* \"bitlime-core/contracts/BitlimeV2Pair.sol\":1269:1270  0 */\n              0x00\n                /* \"bitlime-core/contracts/BitlimeV2Pair.sol\":1258:1266  unlocked */\n              0x0c\n                /* \"bitlime-core/contracts/BitlimeV2Pair.sol\":1258:1270  unlocked = 0 */\n              sstore\n                /* \"bitlime-core/contracts/BitlimeV2Pair.sol\":7619:7633  amount0Out > 0 */\n              dup5\n              iszero\n              iszero\n              dup1\n                /* \"bitlime-core/contracts/BitlimeV2Pair.sol\":7619:7651  amount0Out > 0 || amount1Out > 0 */\n              tag_116\n              jumpi\n              pop\n                /* \"bitlime-core/contracts/BitlimeV2Pair.sol\":7650:7651  0 */\n              0x00\n                /* \"bitlime-core/contracts/BitlimeV2Pair.sol\":7637:7647  amount1Out */\n              dup5\n                /* \"bitlime-core/contracts/BitlimeV2Pair.sol\":7637:7651  amount1Out > 0 */\n              gt\n                /* \"bitlime-core/contracts/BitlimeV2Pair.sol\":7619:7651  amount0Out > 0 || amount1Out > 0 */\n            tag_116:\n                /* \"bitlime-core/contracts/BitlimeV2Pair.sol\":7611:7693  require(amount0Out > 0 || amount1Out > 0, 'BitlimeV2: INSUFFICIENT_OUTPUT_AMOUNT') */\n              tag_117\n              jumpi\n              mload(0x40)\n              shl(0xe5, 0x461bcd)\n              dup2\n              mstore\n              0x04\n              add\n              dup1\n              dup1\n              0x20\n              add\n              dup3\n              dup2\n              sub\n              dup3\n              mstore\n              0x25\n              dup2\n              mstore\n              0x20\n              add\n              dup1\n              data_9c31f546836fef68e48c77674d61c5187863c856fd31a93ea5e92163d3264089\n              0x25\n              swap2\n              codecopy\n              0x40\n              add\n              swap2\n              pop\n              pop\n              mload(0x40)\n              dup1\n              swap2\n              sub\n              swap1\n              revert\n            tag_117:\n                /* \"bitlime-core/contracts/BitlimeV2Pair.sol\":7705:7722  uint112 _reserve0 */\n              0x00\n                /* \"bitlime-core/contracts/BitlimeV2Pair.sol\":7724:7741  uint112 _reserve1 */\n              dup1\n                /* \"bitlime-core/contracts/BitlimeV2Pair.sol\":7746:7759  getReserves() */\n              tag_118\n                /* \"bitlime-core/contracts/BitlimeV2Pair.sol\":7746:7757  getReserves */\n              tag_49\n                /* \"bitlime-core/contracts/BitlimeV2Pair.sol\":7746:7759  getReserves() */\n              jump\t// in\n            tag_118:\n              pop\n                /* \"bitlime-core/contracts/BitlimeV2Pair.sol\":7704:7759  (uint112 _reserve0, uint112 _reserve1,) = getReserves() */\n              swap1\n              swap3\n              pop\n              swap1\n              pop\n              sub(shl(0x70, 0x01), 0x01)\n                /* \"bitlime-core/contracts/BitlimeV2Pair.sol\":7793:7815  amount0Out < _reserve0 */\n              dup3\n              and\n              dup8\n              lt\n                /* \"bitlime-core/contracts/BitlimeV2Pair.sol\":7793:7841  amount0Out < _reserve0 && amount1Out < _reserve1 */\n              dup1\n              iszero\n              tag_119\n              jumpi\n              pop\n              sub(shl(0x70, 0x01), 0x01)\n                /* \"bitlime-core/contracts/BitlimeV2Pair.sol\":7819:7841  amount1Out < _reserve1 */\n              dup2\n              and\n              dup7\n              lt\n                /* \"bitlime-core/contracts/BitlimeV2Pair.sol\":7793:7841  amount0Out < _reserve0 && amount1Out < _reserve1 */\n            tag_119:\n                /* \"bitlime-core/contracts/BitlimeV2Pair.sol\":7785:7879  require(amount0Out < _reserve0 && amount1Out < _reserve1, 'BitlimeV2: INSUFFICIENT_LIQUIDITY') */\n              tag_120\n              jumpi\n              mload(0x40)\n              shl(0xe5, 0x461bcd)\n              dup2\n              mstore\n              0x04\n              add\n              dup1\n              dup1\n              0x20\n              add\n              dup3\n              dup2\n              sub\n              dup3\n              mstore\n              0x21\n              dup2\n              mstore\n              0x20\n              add\n              dup1\n              data_d5323258f0a8544d611f8358491cb469df3ed77d3f47339d7596e213964c6862\n              0x21\n              swap2\n              codecopy\n              0x40\n              add\n              swap2\n              pop\n              pop\n              mload(0x40)\n              dup1\n              swap2\n              sub\n              swap1\n              revert\n            tag_120:\n                /* \"bitlime-core/contracts/BitlimeV2Pair.sol\":8024:8030  token0 */\n              sload(0x06)\n                /* \"bitlime-core/contracts/BitlimeV2Pair.sol\":8059:8065  token1 */\n              sload(0x07)\n                /* \"bitlime-core/contracts/BitlimeV2Pair.sol\":7892:7905  uint balance0 */\n              0x00\n              swap2\n              dup3\n              swap2\n              sub(shl(0xa0, 0x01), 0x01)\n                /* \"bitlime-core/contracts/BitlimeV2Pair.sol\":8024:8030  token0 */\n              swap2\n              dup3\n              and\n              swap2\n                /* \"bitlime-core/contracts/BitlimeV2Pair.sol\":8059:8065  token1 */\n              swap1\n              dup2\n              and\n              swap1\n                /* \"bitlime-core/contracts/BitlimeV2Pair.sol\":8084:8097  to != _token0 */\n              dup10\n              and\n              dup3\n              eq\n              dup1\n              iszero\n              swap1\n                /* \"bitlime-core/contracts/BitlimeV2Pair.sol\":8084:8114  to != _token0 && to != _token1 */\n              tag_121\n              jumpi\n              pop\n              sub(shl(0xa0, 0x01), 0x01)\n                /* \"bitlime-core/contracts/BitlimeV2Pair.sol\":8101:8114  to != _token1 */\n              dup10\n              dup2\n              and\n              swap1\n              dup3\n              and\n              eq\n              iszero\n                /* \"bitlime-core/contracts/BitlimeV2Pair.sol\":8084:8114  to != _token0 && to != _token1 */\n            tag_121:\n                /* \"bitlime-core/contracts/BitlimeV2Pair.sol\":8076:8140  require(to != _token0 && to != _token1, 'BitlimeV2: INVALID_TO') */\n              tag_122\n              jumpi\n              0x40\n              dup1\n              mload\n              shl(0xe5, 0x461bcd)\n              dup2\n              mstore\n              0x20\n              0x04\n              dup3\n              add\n              mstore\n              0x15\n              0x24\n              dup3\n              add\n              mstore\n              shl(0x58, 0x4269746c696d6556323a20494e56414c49445f544f)\n              0x44\n              dup3\n              add\n              mstore\n              swap1\n              mload\n              swap1\n              dup2\n              swap1\n              sub\n              0x64\n              add\n              swap1\n              revert\n            tag_122:\n                /* \"bitlime-core/contracts/BitlimeV2Pair.sol\":8155:8169  amount0Out > 0 */\n              dup11\n              iszero\n                /* \"bitlime-core/contracts/BitlimeV2Pair.sol\":8151:8209  if (amount0Out > 0) _safeTransfer(_token0, to, amount0Out) */\n              tag_124\n              jumpi\n                /* \"bitlime-core/contracts/BitlimeV2Pair.sol\":8171:8209  _safeTransfer(_token0, to, amount0Out) */\n              tag_124\n                /* \"bitlime-core/contracts/BitlimeV2Pair.sol\":8185:8192  _token0 */\n              dup3\n                /* \"bitlime-core/contracts/BitlimeV2Pair.sol\":8194:8196  to */\n              dup11\n                /* \"bitlime-core/contracts/BitlimeV2Pair.sol\":8198:8208  amount0Out */\n              dup14\n                /* \"bitlime-core/contracts/BitlimeV2Pair.sol\":8171:8184  _safeTransfer */\n              tag_125\n                /* \"bitlime-core/contracts/BitlimeV2Pair.sol\":8171:8209  _safeTransfer(_token0, to, amount0Out) */\n              jump\t// in\n            tag_124:\n                /* \"bitlime-core/contracts/BitlimeV2Pair.sol\":8258:8272  amount1Out > 0 */\n              dup10\n              iszero\n                /* \"bitlime-core/contracts/BitlimeV2Pair.sol\":8254:8312  if (amount1Out > 0) _safeTransfer(_token1, to, amount1Out) */\n              tag_127\n              jumpi\n                /* \"bitlime-core/contracts/BitlimeV2Pair.sol\":8274:8312  _safeTransfer(_token1, to, amount1Out) */\n              tag_127\n                /* \"bitlime-core/contracts/BitlimeV2Pair.sol\":8288:8295  _token1 */\n              dup2\n                /* \"bitlime-core/contracts/BitlimeV2Pair.sol\":8297:8299  to */\n              dup11\n                /* \"bitlime-core/contracts/BitlimeV2Pair.sol\":8301:8311  amount1Out */\n              dup13\n                /* \"bitlime-core/contracts/BitlimeV2Pair.sol\":8274:8287  _safeTransfer */\n              tag_125\n                /* \"bitlime-core/contracts/BitlimeV2Pair.sol\":8274:8312  _safeTransfer(_token1, to, amount1Out) */\n              jump\t// in\n            tag_127:\n                /* \"bitlime-core/contracts/BitlimeV2Pair.sol\":8361:8376  data.length > 0 */\n              dup7\n              iszero\n                /* \"bitlime-core/contracts/BitlimeV2Pair.sol\":8357:8454  if (data.length > 0) IBitlimeV2Callee(to).BitlimeV2Call(msg.sender, amount0Out, amount1Out, data) */\n              tag_128\n              jumpi\n                /* \"bitlime-core/contracts/BitlimeV2Pair.sol\":8395:8397  to */\n              dup9\n              0x01\n              dup1\n              0xa0\n              shl\n              sub\n                /* \"bitlime-core/contracts/BitlimeV2Pair.sol\":8378:8412  IBitlimeV2Callee(to).BitlimeV2Call */\n              and\n              0x42dc568e\n                /* \"bitlime-core/contracts/BitlimeV2Pair.sol\":8413:8423  msg.sender */\n              caller\n                /* \"bitlime-core/contracts/BitlimeV2Pair.sol\":8425:8435  amount0Out */\n              dup14\n                /* \"bitlime-core/contracts/BitlimeV2Pair.sol\":8437:8447  amount1Out */\n              dup14\n                /* \"bitlime-core/contracts/BitlimeV2Pair.sol\":8449:8453  data */\n              dup13\n              dup13\n                /* \"bitlime-core/contracts/BitlimeV2Pair.sol\":8378:8454  IBitlimeV2Callee(to).BitlimeV2Call(msg.sender, amount0Out, amount1Out, data) */\n              mload(0x40)\n              dup7\n              0xffffffff\n              and\n              0xe0\n              shl\n              dup2\n              mstore\n              0x04\n              add\n              dup1\n              dup7\n              0x01\n              dup1\n              0xa0\n              shl\n              sub\n              and\n              0x01\n              dup1\n              0xa0\n              shl\n              sub\n              and\n              dup2\n              mstore\n              0x20\n              add\n              dup6\n              dup2\n              mstore\n              0x20\n              add\n              dup5\n              dup2\n              mstore\n              0x20\n              add\n              dup1\n              0x20\n              add\n              dup3\n              dup2\n              sub\n              dup3\n              mstore\n              dup5\n              dup5\n              dup3\n              dup2\n              dup2\n              mstore\n              0x20\n              add\n              swap3\n              pop\n                /* \"--CODEGEN--\":30:33   */\n              dup1\n                /* \"--CODEGEN--\":22:28   */\n              dup3\n                /* \"--CODEGEN--\":14:20   */\n              dup5\n                /* \"--CODEGEN--\":1:34   */\n              calldatacopy\n                /* \"--CODEGEN--\":99:100   */\n              0x00\n                /* \"--CODEGEN--\":93:96   */\n              dup2\n                /* \"--CODEGEN--\":85:91   */\n              dup5\n                /* \"--CODEGEN--\":81:97   */\n              add\n                /* \"--CODEGEN--\":74:101   */\n              mstore\n                /* \"--CODEGEN--\":137:141   */\n              0x1f\n                /* \"--CODEGEN--\":133:142   */\n              not\n                /* \"--CODEGEN--\":126:130   */\n              0x1f\n                /* \"--CODEGEN--\":121:124   */\n              dup3\n                /* \"--CODEGEN--\":117:131   */\n              add\n                /* \"--CODEGEN--\":113:143   */\n              and\n                /* \"--CODEGEN--\":106:143   */\n              swap1\n              pop\n                /* \"--CODEGEN--\":169:172   */\n              dup1\n                /* \"--CODEGEN--\":161:167   */\n              dup4\n                /* \"--CODEGEN--\":157:173   */\n              add\n                /* \"--CODEGEN--\":147:173   */\n              swap3\n              pop\n                /* \"bitlime-core/contracts/BitlimeV2Pair.sol\":8378:8454  IBitlimeV2Callee(to).BitlimeV2Call(msg.sender, amount0Out, amount1Out, data) */\n              pop\n              pop\n              swap7\n              pop\n              pop\n              pop\n              pop\n              pop\n              pop\n              pop\n              0x00\n              mload(0x40)\n              dup1\n              dup4\n              sub\n              dup2\n              0x00\n              dup8\n              dup1\n              extcodesize\n              iszero\n                /* \"--CODEGEN--\":8:17   */\n              dup1\n                /* \"--CODEGEN--\":5:7   */\n              iszero\n              tag_129\n              jumpi\n                /* \"--CODEGEN--\":30:31   */\n              0x00\n                /* \"--CODEGEN--\":27:28   */\n              dup1\n                /* \"--CODEGEN--\":20:32   */\n              revert\n                /* \"--CODEGEN--\":5:7   */\n            tag_129:\n                /* \"bitlime-core/contracts/BitlimeV2Pair.sol\":8378:8454  IBitlimeV2Callee(to).BitlimeV2Call(msg.sender, amount0Out, amount1Out, data) */\n              pop\n              gas\n              call\n              iszero\n                /* \"--CODEGEN--\":8:17   */\n              dup1\n                /* \"--CODEGEN--\":5:7   */\n              iszero\n              tag_130\n              jumpi\n                /* \"--CODEGEN--\":45:61   */\n              returndatasize\n                /* \"--CODEGEN--\":42:43   */\n              0x00\n                /* \"--CODEGEN--\":39:40   */\n              dup1\n                /* \"--CODEGEN--\":24:62   */\n              returndatacopy\n                /* \"--CODEGEN--\":77:93   */\n              returndatasize\n                /* \"--CODEGEN--\":74:75   */\n              0x00\n                /* \"--CODEGEN--\":67:94   */\n              revert\n                /* \"--CODEGEN--\":5:7   */\n            tag_130:\n                /* \"bitlime-core/contracts/BitlimeV2Pair.sol\":8378:8454  IBitlimeV2Callee(to).BitlimeV2Call(msg.sender, amount0Out, amount1Out, data) */\n              pop\n              pop\n              pop\n              pop\n                /* \"bitlime-core/contracts/BitlimeV2Pair.sol\":8357:8454  if (data.length > 0) IBitlimeV2Callee(to).BitlimeV2Call(msg.sender, amount0Out, amount1Out, data) */\n            tag_128:\n                /* \"bitlime-core/contracts/BitlimeV2Pair.sol\":8476:8516  IERC20(_token0).balanceOf(address(this)) */\n              0x40\n              dup1\n              mload\n              shl(0xe0, 0x70a08231)\n              dup2\n              mstore\n                /* \"bitlime-core/contracts/BitlimeV2Pair.sol\":8510:8514  this */\n              address\n                /* \"bitlime-core/contracts/BitlimeV2Pair.sol\":8476:8516  IERC20(_token0).balanceOf(address(this)) */\n              0x04\n              dup3\n              add\n              mstore\n              swap1\n              mload\n              sub(shl(0xa0, 0x01), 0x01)\n                /* \"bitlime-core/contracts/BitlimeV2Pair.sol\":8476:8501  IERC20(_token0).balanceOf */\n              dup5\n              and\n              swap2\n              0x70a08231\n              swap2\n                /* \"bitlime-core/contracts/BitlimeV2Pair.sol\":8476:8516  IERC20(_token0).balanceOf(address(this)) */\n              0x24\n              dup1\n              dup4\n              add\n              swap3\n              0x20\n              swap3\n              swap2\n              swap1\n              dup3\n              swap1\n              sub\n              add\n              dup2\n                /* \"bitlime-core/contracts/BitlimeV2Pair.sol\":8476:8501  IERC20(_token0).balanceOf */\n              dup7\n                /* \"bitlime-core/contracts/BitlimeV2Pair.sol\":8476:8516  IERC20(_token0).balanceOf(address(this)) */\n              dup1\n              extcodesize\n              iszero\n                /* \"--CODEGEN--\":5:7   */\n              dup1\n              iszero\n              tag_131\n              jumpi\n                /* \"--CODEGEN--\":30:31   */\n              0x00\n                /* \"--CODEGEN--\":27:28   */\n              dup1\n                /* \"--CODEGEN--\":20:32   */\n              revert\n                /* \"--CODEGEN--\":5:7   */\n            tag_131:\n                /* \"bitlime-core/contracts/BitlimeV2Pair.sol\":8476:8516  IERC20(_token0).balanceOf(address(this)) */\n              pop\n              gas\n              staticcall\n              iszero\n                /* \"--CODEGEN--\":8:17   */\n              dup1\n                /* \"--CODEGEN--\":5:7   */\n              iszero\n              tag_132\n              jumpi\n                /* \"--CODEGEN--\":45:61   */\n              returndatasize\n                /* \"--CODEGEN--\":42:43   */\n              0x00\n                /* \"--CODEGEN--\":39:40   */\n              dup1\n                /* \"--CODEGEN--\":24:62   */\n              returndatacopy\n                /* \"--CODEGEN--\":77:93   */\n              returndatasize\n                /* \"--CODEGEN--\":74:75   */\n              0x00\n                /* \"--CODEGEN--\":67:94   */\n              revert\n                /* \"--CODEGEN--\":5:7   */\n            tag_132:\n                /* \"bitlime-core/contracts/BitlimeV2Pair.sol\":8476:8516  IERC20(_token0).balanceOf(address(this)) */\n              pop\n              pop\n              pop\n              pop\n              mload(0x40)\n              returndatasize\n                /* \"--CODEGEN--\":13:15   */\n              0x20\n                /* \"--CODEGEN--\":8:11   */\n              dup2\n                /* \"--CODEGEN--\":5:16   */\n              lt\n                /* \"--CODEGEN--\":2:4   */\n              iszero\n              tag_133\n              jumpi\n                /* \"--CODEGEN--\":29:30   */\n              0x00\n                /* \"--CODEGEN--\":26:27   */\n              dup1\n                /* \"--CODEGEN--\":19:31   */\n              revert\n                /* \"--CODEGEN--\":2:4   */\n            tag_133:\n              pop\n                /* \"bitlime-core/contracts/BitlimeV2Pair.sol\":8476:8516  IERC20(_token0).balanceOf(address(this)) */\n              mload\n                /* \"bitlime-core/contracts/BitlimeV2Pair.sol\":8538:8578  IERC20(_token1).balanceOf(address(this)) */\n              0x40\n              dup1\n              mload\n              shl(0xe0, 0x70a08231)\n              dup2\n              mstore\n                /* \"bitlime-core/contracts/BitlimeV2Pair.sol\":8572:8576  this */\n              address\n                /* \"bitlime-core/contracts/BitlimeV2Pair.sol\":8538:8578  IERC20(_token1).balanceOf(address(this)) */\n              0x04\n              dup3\n              add\n              mstore\n              swap1\n              mload\n                /* \"bitlime-core/contracts/BitlimeV2Pair.sol\":8476:8516  IERC20(_token0).balanceOf(address(this)) */\n              swap2\n              swap6\n              pop\n              sub(shl(0xa0, 0x01), 0x01)\n                /* \"bitlime-core/contracts/BitlimeV2Pair.sol\":8538:8563  IERC20(_token1).balanceOf */\n              dup4\n              and\n              swap2\n              0x70a08231\n              swap2\n                /* \"bitlime-core/contracts/BitlimeV2Pair.sol\":8538:8578  IERC20(_token1).balanceOf(address(this)) */\n              0x24\n              dup1\n              dup3\n              add\n              swap3\n                /* \"bitlime-core/contracts/BitlimeV2Pair.sol\":8476:8516  IERC20(_token0).balanceOf(address(this)) */\n              0x20\n              swap3\n                /* \"bitlime-core/contracts/BitlimeV2Pair.sol\":8538:8578  IERC20(_token1).balanceOf(address(this)) */\n              swap1\n              swap2\n              swap1\n              dup3\n              swap1\n              sub\n              add\n              dup2\n                /* \"bitlime-core/contracts/BitlimeV2Pair.sol\":8538:8563  IERC20(_token1).balanceOf */\n              dup7\n                /* \"bitlime-core/contracts/BitlimeV2Pair.sol\":8538:8578  IERC20(_token1).balanceOf(address(this)) */\n              dup1\n              extcodesize\n              iszero\n                /* \"--CODEGEN--\":5:7   */\n              dup1\n              iszero\n              tag_134\n              jumpi\n                /* \"--CODEGEN--\":30:31   */\n              0x00\n                /* \"--CODEGEN--\":27:28   */\n              dup1\n                /* \"--CODEGEN--\":20:32   */\n              revert\n                /* \"--CODEGEN--\":5:7   */\n            tag_134:\n                /* \"bitlime-core/contracts/BitlimeV2Pair.sol\":8538:8578  IERC20(_token1).balanceOf(address(this)) */\n              pop\n              gas\n              staticcall\n              iszero\n                /* \"--CODEGEN--\":8:17   */\n              dup1\n                /* \"--CODEGEN--\":5:7   */\n              iszero\n              tag_135\n              jumpi\n                /* \"--CODEGEN--\":45:61   */\n              returndatasize\n                /* \"--CODEGEN--\":42:43   */\n              0x00\n                /* \"--CODEGEN--\":39:40   */\n              dup1\n                /* \"--CODEGEN--\":24:62   */\n              returndatacopy\n                /* \"--CODEGEN--\":77:93   */\n              returndatasize\n                /* \"--CODEGEN--\":74:75   */\n              0x00\n                /* \"--CODEGEN--\":67:94   */\n              revert\n                /* \"--CODEGEN--\":5:7   */\n            tag_135:\n                /* \"bitlime-core/contracts/BitlimeV2Pair.sol\":8538:8578  IERC20(_token1).balanceOf(address(this)) */\n              pop\n              pop\n              pop\n              pop\n              mload(0x40)\n              returndatasize\n                /* \"--CODEGEN--\":13:15   */\n              0x20\n                /* \"--CODEGEN--\":8:11   */\n              dup2\n                /* \"--CODEGEN--\":5:16   */\n              lt\n                /* \"--CODEGEN--\":2:4   */\n              iszero\n              tag_136\n              jumpi\n                /* \"--CODEGEN--\":29:30   */\n              0x00\n                /* \"--CODEGEN--\":26:27   */\n              dup1\n                /* \"--CODEGEN--\":19:31   */\n              revert\n                /* \"--CODEGEN--\":2:4   */\n            tag_136:\n              pop\n                /* \"bitlime-core/contracts/BitlimeV2Pair.sol\":8538:8578  IERC20(_token1).balanceOf(address(this)) */\n              mload\n              swap3\n              pop\n                /* \"bitlime-core/contracts/BitlimeV2Pair.sol\":8600:8614  uint amount0In */\n              0x00\n              swap2\n              pop\n              pop\n              sub(shl(0x70, 0x01), 0x01)\n                /* \"bitlime-core/contracts/BitlimeV2Pair.sol\":8628:8650  _reserve0 - amount0Out */\n              dup6\n              and\n              dup11\n              swap1\n              sub\n                /* \"bitlime-core/contracts/BitlimeV2Pair.sol\":8617:8650  balance0 > _reserve0 - amount0Out */\n              dup4\n              gt\n                /* \"bitlime-core/contracts/BitlimeV2Pair.sol\":8617:8692  balance0 > _reserve0 - amount0Out ? balance0 - (_reserve0 - amount0Out) : 0 */\n              tag_137\n              jumpi\n                /* \"bitlime-core/contracts/BitlimeV2Pair.sol\":8691:8692  0 */\n              0x00\n                /* \"bitlime-core/contracts/BitlimeV2Pair.sol\":8617:8692  balance0 > _reserve0 - amount0Out ? balance0 - (_reserve0 - amount0Out) : 0 */\n              jump(tag_138)\n            tag_137:\n              sub(shl(0x70, 0x01), 0x01)\n                /* \"bitlime-core/contracts/BitlimeV2Pair.sol\":8665:8687  _reserve0 - amount0Out */\n              dup6\n              and\n              dup11\n              swap1\n              sub\n                /* \"bitlime-core/contracts/BitlimeV2Pair.sol\":8653:8688  balance0 - (_reserve0 - amount0Out) */\n              dup4\n              sub\n                /* \"bitlime-core/contracts/BitlimeV2Pair.sol\":8617:8692  balance0 > _reserve0 - amount0Out ? balance0 - (_reserve0 - amount0Out) : 0 */\n            tag_138:\n                /* \"bitlime-core/contracts/BitlimeV2Pair.sol\":8600:8692  uint amount0In = balance0 > _reserve0 - amount0Out ? balance0 - (_reserve0 - amount0Out) : 0 */\n              swap1\n              pop\n                /* \"bitlime-core/contracts/BitlimeV2Pair.sol\":8703:8717  uint amount1In */\n              0x00\n              sub(shl(0x70, 0x01), 0x01)\n                /* \"bitlime-core/contracts/BitlimeV2Pair.sol\":8731:8753  _reserve1 - amount1Out */\n              dup6\n              and\n              dup11\n              swap1\n              sub\n                /* \"bitlime-core/contracts/BitlimeV2Pair.sol\":8720:8753  balance1 > _reserve1 - amount1Out */\n              dup4\n              gt\n                /* \"bitlime-core/contracts/BitlimeV2Pair.sol\":8720:8795  balance1 > _reserve1 - amount1Out ? balance1 - (_reserve1 - amount1Out) : 0 */\n              tag_139\n              jumpi\n                /* \"bitlime-core/contracts/BitlimeV2Pair.sol\":8794:8795  0 */\n              0x00\n                /* \"bitlime-core/contracts/BitlimeV2Pair.sol\":8720:8795  balance1 > _reserve1 - amount1Out ? balance1 - (_reserve1 - amount1Out) : 0 */\n              jump(tag_140)\n            tag_139:\n              sub(shl(0x70, 0x01), 0x01)\n                /* \"bitlime-core/contracts/BitlimeV2Pair.sol\":8768:8790  _reserve1 - amount1Out */\n              dup6\n              and\n              dup11\n              swap1\n              sub\n                /* \"bitlime-core/contracts/BitlimeV2Pair.sol\":8756:8791  balance1 - (_reserve1 - amount1Out) */\n              dup4\n              sub\n                /* \"bitlime-core/contracts/BitlimeV2Pair.sol\":8720:8795  balance1 > _reserve1 - amount1Out ? balance1 - (_reserve1 - amount1Out) : 0 */\n            tag_140:\n                /* \"bitlime-core/contracts/BitlimeV2Pair.sol\":8703:8795  uint amount1In = balance1 > _reserve1 - amount1Out ? balance1 - (_reserve1 - amount1Out) : 0 */\n              swap1\n              pop\n                /* \"bitlime-core/contracts/BitlimeV2Pair.sol\":8826:8827  0 */\n              0x00\n                /* \"bitlime-core/contracts/BitlimeV2Pair.sol\":8814:8823  amount0In */\n              dup3\n                /* \"bitlime-core/contracts/BitlimeV2Pair.sol\":8814:8827  amount0In > 0 */\n              gt\n                /* \"bitlime-core/contracts/BitlimeV2Pair.sol\":8814:8844  amount0In > 0 || amount1In > 0 */\n              dup1\n              tag_141\n              jumpi\n              pop\n                /* \"bitlime-core/contracts/BitlimeV2Pair.sol\":8843:8844  0 */\n              0x00\n                /* \"bitlime-core/contracts/BitlimeV2Pair.sol\":8831:8840  amount1In */\n              dup2\n                /* \"bitlime-core/contracts/BitlimeV2Pair.sol\":8831:8844  amount1In > 0 */\n              gt\n                /* \"bitlime-core/contracts/BitlimeV2Pair.sol\":8814:8844  amount0In > 0 || amount1In > 0 */\n            tag_141:\n                /* \"bitlime-core/contracts/BitlimeV2Pair.sol\":8806:8885  require(amount0In > 0 || amount1In > 0, 'BitlimeV2: INSUFFICIENT_INPUT_AMOUNT') */\n              tag_142\n              jumpi\n              mload(0x40)\n              shl(0xe5, 0x461bcd)\n              dup2\n              mstore\n              0x04\n              add\n              dup1\n              dup1\n              0x20\n              add\n              dup3\n              dup2\n              sub\n              dup3\n              mstore\n              0x24\n              dup2\n              mstore\n              0x20\n              add\n              dup1\n              data_2e659678d10ece155b14bdac98ce93e7bff4499e732071af82c61e52a437e847\n              0x24\n              swap2\n              codecopy\n              0x40\n              add\n              swap2\n              pop\n              pop\n              mload(0x40)\n              dup1\n              swap2\n              sub\n              swap1\n              revert\n            tag_142:\n                /* \"bitlime-core/contracts/BitlimeV2Pair.sol\":8971:8992  uint balance0Adjusted */\n              0x00\n                /* \"bitlime-core/contracts/BitlimeV2Pair.sol\":8995:9037  balance0.mul(10000).sub(amount0In.mul(25)) */\n              tag_143\n                /* \"bitlime-core/contracts/BitlimeV2Pair.sol\":9019:9036  amount0In.mul(25) */\n              tag_144\n                /* \"bitlime-core/contracts/BitlimeV2Pair.sol\":9019:9028  amount0In */\n              dup5\n                /* \"bitlime-core/contracts/BitlimeV2Pair.sol\":9033:9035  25 */\n              0x19\n                /* \"bitlime-core/contracts/BitlimeV2Pair.sol\":9019:9036  amount0In.mul(25) */\n              0xffffffff\n                /* \"bitlime-core/contracts/BitlimeV2Pair.sol\":9019:9032  amount0In.mul */\n              tag_145\n                /* \"bitlime-core/contracts/BitlimeV2Pair.sol\":9019:9036  amount0In.mul(25) */\n              and\n              jump\t// in\n            tag_144:\n                /* \"bitlime-core/contracts/BitlimeV2Pair.sol\":8995:9014  balance0.mul(10000) */\n              tag_146\n                /* \"bitlime-core/contracts/BitlimeV2Pair.sol\":8995:9003  balance0 */\n              dup8\n                /* \"bitlime-core/contracts/BitlimeV2Pair.sol\":9008:9013  10000 */\n              0x2710\n                /* \"bitlime-core/contracts/BitlimeV2Pair.sol\":8995:9014  balance0.mul(10000) */\n              0xffffffff\n                /* \"bitlime-core/contracts/BitlimeV2Pair.sol\":8995:9007  balance0.mul */\n              tag_145\n                /* \"bitlime-core/contracts/BitlimeV2Pair.sol\":8995:9014  balance0.mul(10000) */\n              and\n              jump\t// in\n            tag_146:\n                /* \"bitlime-core/contracts/BitlimeV2Pair.sol\":8995:9018  balance0.mul(10000).sub */\n              swap1\n                /* \"bitlime-core/contracts/BitlimeV2Pair.sol\":8995:9037  balance0.mul(10000).sub(amount0In.mul(25)) */\n              0xffffffff\n                /* \"bitlime-core/contracts/BitlimeV2Pair.sol\":8995:9018  balance0.mul(10000).sub */\n              tag_147\n                /* \"bitlime-core/contracts/BitlimeV2Pair.sol\":8995:9037  balance0.mul(10000).sub(amount0In.mul(25)) */\n              and\n              jump\t// in\n            tag_143:\n                /* \"bitlime-core/contracts/BitlimeV2Pair.sol\":8971:9037  uint balance0Adjusted = balance0.mul(10000).sub(amount0In.mul(25)) */\n              swap1\n              pop\n                /* \"bitlime-core/contracts/BitlimeV2Pair.sol\":9048:9069  uint balance1Adjusted */\n              0x00\n                /* \"bitlime-core/contracts/BitlimeV2Pair.sol\":9072:9114  balance1.mul(10000).sub(amount1In.mul(25)) */\n              tag_148\n                /* \"bitlime-core/contracts/BitlimeV2Pair.sol\":9096:9113  amount1In.mul(25) */\n              tag_144\n                /* \"bitlime-core/contracts/BitlimeV2Pair.sol\":9096:9105  amount1In */\n              dup5\n                /* \"bitlime-core/contracts/BitlimeV2Pair.sol\":9110:9112  25 */\n              0x19\n                /* \"bitlime-core/contracts/BitlimeV2Pair.sol\":9096:9113  amount1In.mul(25) */\n              0xffffffff\n                /* \"bitlime-core/contracts/BitlimeV2Pair.sol\":9096:9109  amount1In.mul */\n              tag_145\n                /* \"bitlime-core/contracts/BitlimeV2Pair.sol\":9096:9113  amount1In.mul(25) */\n              and\n              jump\t// in\n                /* \"bitlime-core/contracts/BitlimeV2Pair.sol\":9072:9114  balance1.mul(10000).sub(amount1In.mul(25)) */\n            tag_148:\n                /* \"bitlime-core/contracts/BitlimeV2Pair.sol\":9048:9114  uint balance1Adjusted = balance1.mul(10000).sub(amount1In.mul(25)) */\n              swap1\n              pop\n                /* \"bitlime-core/contracts/BitlimeV2Pair.sol\":9175:9218  uint(_reserve0).mul(_reserve1).mul(1000**2) */\n              tag_151\n                /* \"bitlime-core/contracts/BitlimeV2Pair.sol\":9210:9217  1000**2 */\n              0x0f4240\n                /* \"bitlime-core/contracts/BitlimeV2Pair.sol\":9175:9205  uint(_reserve0).mul(_reserve1) */\n              tag_152\n              sub(shl(0x70, 0x01), 0x01)\n                /* \"bitlime-core/contracts/BitlimeV2Pair.sol\":9175:9190  uint(_reserve0) */\n              dup12\n              dup2\n              and\n              swap1\n                /* \"bitlime-core/contracts/BitlimeV2Pair.sol\":9175:9205  uint(_reserve0).mul(_reserve1) */\n              dup12\n              and\n                /* \"bitlime-core/contracts/BitlimeV2Pair.sol\":9175:9194  uint(_reserve0).mul */\n              tag_145\n                /* \"bitlime-core/contracts/BitlimeV2Pair.sol\":9175:9205  uint(_reserve0).mul(_reserve1) */\n              jump\t// in\n            tag_152:\n                /* \"bitlime-core/contracts/BitlimeV2Pair.sol\":9175:9209  uint(_reserve0).mul(_reserve1).mul */\n              swap1\n                /* \"bitlime-core/contracts/BitlimeV2Pair.sol\":9175:9218  uint(_reserve0).mul(_reserve1).mul(1000**2) */\n              0xffffffff\n                /* \"bitlime-core/contracts/BitlimeV2Pair.sol\":9175:9209  uint(_reserve0).mul(_reserve1).mul */\n              tag_145\n                /* \"bitlime-core/contracts/BitlimeV2Pair.sol\":9175:9218  uint(_reserve0).mul(_reserve1).mul(1000**2) */\n              and\n              jump\t// in\n            tag_151:\n                /* \"bitlime-core/contracts/BitlimeV2Pair.sol\":9133:9171  balance0Adjusted.mul(balance1Adjusted) */\n              tag_153\n                /* \"bitlime-core/contracts/BitlimeV2Pair.sol\":9133:9149  balance0Adjusted */\n              dup4\n                /* \"bitlime-core/contracts/BitlimeV2Pair.sol\":9154:9170  balance1Adjusted */\n              dup4\n                /* \"bitlime-core/contracts/BitlimeV2Pair.sol\":9133:9171  balance0Adjusted.mul(balance1Adjusted) */\n              0xffffffff\n                /* \"bitlime-core/contracts/BitlimeV2Pair.sol\":9133:9153  balance0Adjusted.mul */\n              tag_145\n                /* \"bitlime-core/contracts/BitlimeV2Pair.sol\":9133:9171  balance0Adjusted.mul(balance1Adjusted) */\n              and\n              jump\t// in\n            tag_153:\n                /* \"bitlime-core/contracts/BitlimeV2Pair.sol\":9133:9218  balance0Adjusted.mul(balance1Adjusted) >= uint(_reserve0).mul(_reserve1).mul(1000**2) */\n              lt\n              iszero\n                /* \"bitlime-core/contracts/BitlimeV2Pair.sol\":9125:9235  require(balance0Adjusted.mul(balance1Adjusted) >= uint(_reserve0).mul(_reserve1).mul(1000**2), 'BitlimeV2: K') */\n              tag_154\n              jumpi\n              0x40\n              dup1\n              mload\n              shl(0xe5, 0x461bcd)\n              dup2\n              mstore\n              0x20\n              0x04\n              dup3\n              add\n              mstore\n              0x0c\n              0x24\n              dup3\n              add\n              mstore\n              shl(0xa0, 0x4269746c696d6556323a204b)\n              0x44\n              dup3\n              add\n              mstore\n              swap1\n              mload\n              swap1\n              dup2\n              swap1\n              sub\n              0x64\n              add\n              swap1\n              revert\n            tag_154:\n                /* \"bitlime-core/contracts/BitlimeV2Pair.sol\":1281:1282  _ */\n              pop\n              pop\n                /* \"bitlime-core/contracts/BitlimeV2Pair.sol\":9259:9308  _update(balance0, balance1, _reserve0, _reserve1) */\n              tag_155\n                /* \"bitlime-core/contracts/BitlimeV2Pair.sol\":9267:9275  balance0 */\n              dup5\n                /* \"bitlime-core/contracts/BitlimeV2Pair.sol\":9277:9285  balance1 */\n              dup5\n                /* \"bitlime-core/contracts/BitlimeV2Pair.sol\":9287:9296  _reserve0 */\n              dup9\n                /* \"bitlime-core/contracts/BitlimeV2Pair.sol\":9298:9307  _reserve1 */\n              dup9\n                /* \"bitlime-core/contracts/BitlimeV2Pair.sol\":9259:9266  _update */\n              tag_156\n                /* \"bitlime-core/contracts/BitlimeV2Pair.sol\":9259:9308  _update(balance0, balance1, _reserve0, _reserve1) */\n              jump\t// in\n            tag_155:\n                /* \"bitlime-core/contracts/BitlimeV2Pair.sol\":9324:9390  Swap(msg.sender, amount0In, amount1In, amount0Out, amount1Out, to) */\n              0x40\n              dup1\n              mload\n              dup4\n              dup2\n              mstore\n              0x20\n              dup2\n              add\n              dup4\n              swap1\n              mstore\n              dup1\n              dup3\n              add\n              dup14\n              swap1\n              mstore\n              0x60\n              dup2\n              add\n              dup13\n              swap1\n              mstore\n              swap1\n              mload\n              sub(shl(0xa0, 0x01), 0x01)\n              dup12\n              and\n              swap2\n                /* \"bitlime-core/contracts/BitlimeV2Pair.sol\":9329:9339  msg.sender */\n              caller\n              swap2\n                /* \"bitlime-core/contracts/BitlimeV2Pair.sol\":9324:9390  Swap(msg.sender, amount0In, amount1In, amount0Out, amount1Out, to) */\n              0xd78ad95fa46c994b6551d0da85fc275fe613ce37657fb8d5e3d130840159d822\n              swap2\n              dup2\n              swap1\n              sub\n              0x80\n              add\n              swap1\n              log3\n              pop\n              pop\n                /* \"bitlime-core/contracts/BitlimeV2Pair.sol\":1304:1305  1 */\n              0x01\n                /* \"bitlime-core/contracts/BitlimeV2Pair.sol\":1293:1301  unlocked */\n              0x0c\n                /* \"bitlime-core/contracts/BitlimeV2Pair.sol\":1293:1305  unlocked = 1 */\n              sstore\n              pop\n              pop\n              pop\n              pop\n              pop\n              pop\n              pop\n              pop\n              pop\n                /* \"bitlime-core/contracts/BitlimeV2Pair.sol\":7505:9398  function swap(uint amount0Out, uint amount1Out, address to, bytes calldata data) external lock {\r... */\n              jump\t// out\n                /* \"bitlime-core/contracts/BitlimeV2ERC20.sol\":192:234  string public constant name = 'Bitlime V2' */\n            tag_43:\n              0x40\n              dup1\n              mload\n              dup1\n              dup3\n              add\n              swap1\n              swap2\n              mstore\n              0x0a\n              dup2\n              mstore\n              shl(0xb1, 0x2134ba3634b6b2902b19)\n              0x20\n              dup3\n              add\n              mstore\n              dup2\n              jump\t// out\n                /* \"bitlime-core/contracts/BitlimeV2Pair.sol\":1321:1552  function getReserves() public view returns (uint112 _reserve0, uint112 _reserve1, uint32 _blockTimestampLast) {\r... */\n            tag_49:\n                /* \"bitlime-core/contracts/BitlimeV2Pair.sol\":1454:1462  reserve0 */\n              sload(0x08)\n              sub(shl(0x70, 0x01), 0x01)\n              dup1\n              dup3\n              and\n              swap3\n              shl(0x70, 0x01)\n                /* \"bitlime-core/contracts/BitlimeV2Pair.sol\":1485:1493  reserve1 */\n              dup4\n              div\n              swap1\n              swap2\n              and\n              swap2\n              shl(0xe0, 0x01)\n                /* \"bitlime-core/contracts/BitlimeV2Pair.sol\":1526:1544  blockTimestampLast */\n              swap1\n              div\n              0xffffffff\n              and\n              swap1\n                /* \"bitlime-core/contracts/BitlimeV2Pair.sol\":1321:1552  function getReserves() public view returns (uint112 _reserve0, uint112 _reserve1, uint32 _blockTimestampLast) {\r... */\n              jump\t// out\n                /* \"bitlime-core/contracts/BitlimeV2ERC20.sol\":2240:2387  function approve(address spender, uint value) external returns (bool) {\r... */\n            tag_52:\n                /* \"bitlime-core/contracts/BitlimeV2ERC20.sol\":2304:2308  bool */\n              0x00\n                /* \"bitlime-core/contracts/BitlimeV2ERC20.sol\":2321:2357  _approve(msg.sender, spender, value) */\n              tag_159\n                /* \"bitlime-core/contracts/BitlimeV2ERC20.sol\":2330:2340  msg.sender */\n              caller\n                /* \"bitlime-core/contracts/BitlimeV2ERC20.sol\":2342:2349  spender */\n              dup5\n                /* \"bitlime-core/contracts/BitlimeV2ERC20.sol\":2351:2356  value */\n              dup5\n                /* \"bitlime-core/contracts/BitlimeV2ERC20.sol\":2321:2329  _approve */\n              tag_160\n                /* \"bitlime-core/contracts/BitlimeV2ERC20.sol\":2321:2357  _approve(msg.sender, spender, value) */\n              jump\t// in\n            tag_159:\n              pop\n                /* \"bitlime-core/contracts/BitlimeV2ERC20.sol\":2375:2379  true */\n              0x01\n                /* \"bitlime-core/contracts/BitlimeV2ERC20.sol\":2240:2387  function approve(address spender, uint value) external returns (bool) {\r... */\n            tag_158:\n              swap3\n              swap2\n              pop\n              pop\n              jump\t// out\n                /* \"bitlime-core/contracts/BitlimeV2Pair.sol\":610:631  address public token0 */\n            tag_54:\n              and(sub(shl(0xa0, 0x01), 0x01), sload(0x06))\n              dup2\n              jump\t// out\n                /* \"bitlime-core/contracts/BitlimeV2ERC20.sol\":331:355  uint  public totalSupply */\n            tag_56:\n              sload(0x00)\n              dup2\n              jump\t// out\n                /* \"bitlime-core/contracts/BitlimeV2ERC20.sol\":2542:2843  function transferFrom(address from, address to, uint value) external returns (bool) {\r... */\n            tag_59:\n              sub(shl(0xa0, 0x01), 0x01)\n                /* \"bitlime-core/contracts/BitlimeV2ERC20.sol\":2641:2656  allowance[from] */\n              dup4\n              and\n                /* \"bitlime-core/contracts/BitlimeV2ERC20.sol\":2620:2624  bool */\n              0x00\n                /* \"bitlime-core/contracts/BitlimeV2ERC20.sol\":2641:2656  allowance[from] */\n              swap1\n              dup2\n              mstore\n                /* \"bitlime-core/contracts/BitlimeV2ERC20.sol\":2641:2650  allowance */\n              0x02\n                /* \"bitlime-core/contracts/BitlimeV2ERC20.sol\":2641:2656  allowance[from] */\n              0x20\n              swap1\n              dup2\n              mstore\n              0x40\n              dup1\n              dup4\n              keccak256\n                /* \"bitlime-core/contracts/BitlimeV2ERC20.sol\":2657:2667  msg.sender */\n              caller\n                /* \"bitlime-core/contracts/BitlimeV2ERC20.sol\":2641:2668  allowance[from][msg.sender] */\n              dup5\n              mstore\n              swap1\n              swap2\n              mstore\n              dup2\n              keccak256\n              sload\n              not(0x00)\n                /* \"bitlime-core/contracts/BitlimeV2ERC20.sol\":2641:2680  allowance[from][msg.sender] != uint(-1) */\n              eq\n                /* \"bitlime-core/contracts/BitlimeV2ERC20.sol\":2637:2777  if (allowance[from][msg.sender] != uint(-1)) {\r... */\n              tag_162\n              jumpi\n              sub(shl(0xa0, 0x01), 0x01)\n                /* \"bitlime-core/contracts/BitlimeV2ERC20.sol\":2727:2742  allowance[from] */\n              dup5\n              and\n              0x00\n              swap1\n              dup2\n              mstore\n                /* \"bitlime-core/contracts/BitlimeV2ERC20.sol\":2727:2736  allowance */\n              0x02\n                /* \"bitlime-core/contracts/BitlimeV2ERC20.sol\":2727:2742  allowance[from] */\n              0x20\n              swap1\n              dup2\n              mstore\n              0x40\n              dup1\n              dup4\n              keccak256\n                /* \"bitlime-core/contracts/BitlimeV2ERC20.sol\":2743:2753  msg.sender */\n              caller\n                /* \"bitlime-core/contracts/BitlimeV2ERC20.sol\":2727:2754  allowance[from][msg.sender] */\n              dup5\n              mstore\n              swap1\n              swap2\n              mstore\n              swap1\n              keccak256\n              sload\n                /* \"bitlime-core/contracts/BitlimeV2ERC20.sol\":2727:2765  allowance[from][msg.sender].sub(value) */\n              tag_163\n              swap1\n                /* \"bitlime-core/contracts/BitlimeV2ERC20.sol\":2759:2764  value */\n              dup4\n                /* \"bitlime-core/contracts/BitlimeV2ERC20.sol\":2727:2758  allowance[from][msg.sender].sub */\n              tag_147\n                /* \"bitlime-core/contracts/BitlimeV2ERC20.sol\":2727:2765  allowance[from][msg.sender].sub(value) */\n              jump\t// in\n            tag_163:\n              sub(shl(0xa0, 0x01), 0x01)\n                /* \"bitlime-core/contracts/BitlimeV2ERC20.sol\":2697:2712  allowance[from] */\n              dup6\n              and\n              0x00\n              swap1\n              dup2\n              mstore\n                /* \"bitlime-core/contracts/BitlimeV2ERC20.sol\":2697:2706  allowance */\n              0x02\n                /* \"bitlime-core/contracts/BitlimeV2ERC20.sol\":2697:2712  allowance[from] */\n              0x20\n              swap1\n              dup2\n              mstore\n              0x40\n              dup1\n              dup4\n              keccak256\n                /* \"bitlime-core/contracts/BitlimeV2ERC20.sol\":2713:2723  msg.sender */\n              caller\n                /* \"bitlime-core/contracts/BitlimeV2ERC20.sol\":2697:2724  allowance[from][msg.sender] */\n              dup5\n              mstore\n              swap1\n              swap2\n              mstore\n              swap1\n              keccak256\n                /* \"bitlime-core/contracts/BitlimeV2ERC20.sol\":2697:2765  allowance[from][msg.sender] = allowance[from][msg.sender].sub(value) */\n              sstore\n                /* \"bitlime-core/contracts/BitlimeV2ERC20.sol\":2637:2777  if (allowance[from][msg.sender] != uint(-1)) {\r... */\n            tag_162:\n                /* \"bitlime-core/contracts/BitlimeV2ERC20.sol\":2787:2813  _transfer(from, to, value) */\n              tag_164\n                /* \"bitlime-core/contracts/BitlimeV2ERC20.sol\":2797:2801  from */\n              dup5\n                /* \"bitlime-core/contracts/BitlimeV2ERC20.sol\":2803:2805  to */\n              dup5\n                /* \"bitlime-core/contracts/BitlimeV2ERC20.sol\":2807:2812  value */\n              dup5\n                /* \"bitlime-core/contracts/BitlimeV2ERC20.sol\":2787:2796  _transfer */\n              tag_165\n                /* \"bitlime-core/contracts/BitlimeV2ERC20.sol\":2787:2813  _transfer(from, to, value) */\n              jump\t// in\n            tag_164:\n              pop\n                /* \"bitlime-core/contracts/BitlimeV2ERC20.sol\":2831:2835  true */\n              0x01\n                /* \"bitlime-core/contracts/BitlimeV2ERC20.sol\":2542:2843  function transferFrom(address from, address to, uint value) external returns (bool) {\r... */\n              swap4\n              swap3\n              pop\n              pop\n              pop\n              jump\t// out\n                /* \"bitlime-core/contracts/BitlimeV2ERC20.sol\":623:731  bytes32 public constant PERMIT_TYPEHASH = 0x6e71edae12b1b97f4d1f60370fef10105fa2faae0126114a169c64845d6126c9 */\n            tag_61:\n                /* \"bitlime-core/contracts/BitlimeV2ERC20.sol\":665:731  0x6e71edae12b1b97f4d1f60370fef10105fa2faae0126114a169c64845d6126c9 */\n              0x6e71edae12b1b97f4d1f60370fef10105fa2faae0126114a169c64845d6126c9\n                /* \"bitlime-core/contracts/BitlimeV2ERC20.sol\":623:731  bytes32 public constant PERMIT_TYPEHASH = 0x6e71edae12b1b97f4d1f60370fef10105fa2faae0126114a169c64845d6126c9 */\n              dup2\n              jump\t// out\n                /* \"bitlime-core/contracts/BitlimeV2ERC20.sol\":289:324  uint8 public constant decimals = 18 */\n            tag_63:\n                /* \"bitlime-core/contracts/BitlimeV2ERC20.sol\":322:324  18 */\n              0x12\n                /* \"bitlime-core/contracts/BitlimeV2ERC20.sol\":289:324  uint8 public constant decimals = 18 */\n              dup2\n              jump\t// out\n                /* \"bitlime-core/contracts/BitlimeV2ERC20.sol\":480:511  bytes32 public DOMAIN_SEPARATOR */\n            tag_65:\n              sload(0x03)\n              dup2\n              jump\t// out\n                /* \"bitlime-core/contracts/BitlimeV2Pair.sol\":2381:2591  function initialize(address _token0, address _token1) external {\r... */\n            tag_68:\n                /* \"bitlime-core/contracts/BitlimeV2Pair.sol\":2477:2484  factory */\n              and(sub(shl(0xa0, 0x01), 0x01), sload(0x05))\n                /* \"bitlime-core/contracts/BitlimeV2Pair.sol\":2463:2473  msg.sender */\n              caller\n                /* \"bitlime-core/contracts/BitlimeV2Pair.sol\":2463:2484  msg.sender == factory */\n              eq\n                /* \"bitlime-core/contracts/BitlimeV2Pair.sol\":2455:2509  require(msg.sender == factory, 'BitlimeV2: FORBIDDEN') */\n              tag_167\n              jumpi\n              0x40\n              dup1\n              mload\n              shl(0xe5, 0x461bcd)\n              dup2\n              mstore\n              0x20\n              0x04\n              dup3\n              add\n              mstore\n              0x14\n              0x24\n              dup3\n              add\n              mstore\n              shl(0x61, 0x2134ba3634b6b2ab191d102327a92124a22222a7)\n              0x44\n              dup3\n              add\n              mstore\n              swap1\n              mload\n              swap1\n              dup2\n              swap1\n              sub\n              0x64\n              add\n              swap1\n              revert\n            tag_167:\n                /* \"bitlime-core/contracts/BitlimeV2Pair.sol\":2540:2546  token0 */\n              0x06\n                /* \"bitlime-core/contracts/BitlimeV2Pair.sol\":2540:2556  token0 = _token0 */\n              dup1\n              sload\n              sub(shl(0xa0, 0x01), 0x01)\n              swap4\n              dup5\n              and\n              not(sub(shl(0xa0, 0x01), 0x01))\n              swap2\n              dup3\n              and\n              or\n              swap1\n              swap2\n              sstore\n                /* \"bitlime-core/contracts/BitlimeV2Pair.sol\":2567:2573  token1 */\n              0x07\n                /* \"bitlime-core/contracts/BitlimeV2Pair.sol\":2567:2583  token1 = _token1 */\n              dup1\n              sload\n              swap3\n              swap1\n              swap4\n              and\n              swap2\n              and\n              or\n              swap1\n              sstore\n                /* \"bitlime-core/contracts/BitlimeV2Pair.sol\":2381:2591  function initialize(address _token0, address _token1) external {\r... */\n              jump\t// out\n                /* \"bitlime-core/contracts/BitlimeV2Pair.sol\":961:993  uint public price0CumulativeLast */\n            tag_70:\n              sload(0x09)\n              dup2\n              jump\t// out\n                /* \"bitlime-core/contracts/BitlimeV2Pair.sol\":1000:1032  uint public price1CumulativeLast */\n            tag_72:\n              sload(0x0a)\n              dup2\n              jump\t// out\n                /* \"bitlime-core/contracts/BitlimeV2Pair.sol\":4575:5815  function mint(address to) external lock returns (uint liquidity) {\r... */\n            tag_75:\n                /* \"bitlime-core/contracts/BitlimeV2Pair.sol\":4624:4638  uint liquidity */\n              0x00\n                /* \"bitlime-core/contracts/BitlimeV2Pair.sol\":1212:1220  unlocked */\n              sload(0x0c)\n                /* \"bitlime-core/contracts/BitlimeV2Pair.sol\":1224:1225  1 */\n              0x01\n                /* \"bitlime-core/contracts/BitlimeV2Pair.sol\":1212:1225  unlocked == 1 */\n              eq\n                /* \"bitlime-core/contracts/BitlimeV2Pair.sol\":1204:1247  require(unlocked == 1, 'BitlimeV2: LOCKED') */\n              tag_169\n              jumpi\n              0x40\n              dup1\n              mload\n              shl(0xe5, 0x461bcd)\n              dup2\n              mstore\n              0x20\n              0x04\n              dup3\n              add\n              mstore\n              0x11\n              0x24\n              dup3\n              add\n              mstore\n              shl(0x7a, 0x109a5d1b1a5b59558c8e881313d0d2d151)\n              0x44\n              dup3\n              add\n              mstore\n              swap1\n              mload\n              swap1\n              dup2\n              swap1\n              sub\n              0x64\n              add\n              swap1\n              revert\n            tag_169:\n                /* \"bitlime-core/contracts/BitlimeV2Pair.sol\":1269:1270  0 */\n              0x00\n                /* \"bitlime-core/contracts/BitlimeV2Pair.sol\":1258:1266  unlocked */\n              0x0c\n                /* \"bitlime-core/contracts/BitlimeV2Pair.sol\":1258:1270  unlocked = 0 */\n              dup2\n              swap1\n              sstore\n                /* \"bitlime-core/contracts/BitlimeV2Pair.sol\":1269:1270  0 */\n              dup1\n                /* \"bitlime-core/contracts/BitlimeV2Pair.sol\":4693:4706  getReserves() */\n              tag_171\n                /* \"bitlime-core/contracts/BitlimeV2Pair.sol\":4693:4704  getReserves */\n              tag_49\n                /* \"bitlime-core/contracts/BitlimeV2Pair.sol\":4693:4706  getReserves() */\n              jump\t// in\n            tag_171:\n              pop\n                /* \"bitlime-core/contracts/BitlimeV2Pair.sol\":4755:4761  token0 */\n              sload(0x06)\n                /* \"bitlime-core/contracts/BitlimeV2Pair.sol\":4748:4787  IERC20(token0).balanceOf(address(this)) */\n              0x40\n              dup1\n              mload\n              shl(0xe0, 0x70a08231)\n              dup2\n              mstore\n                /* \"bitlime-core/contracts/BitlimeV2Pair.sol\":4781:4785  this */\n              address\n                /* \"bitlime-core/contracts/BitlimeV2Pair.sol\":4748:4787  IERC20(token0).balanceOf(address(this)) */\n              0x04\n              dup3\n              add\n              mstore\n              swap1\n              mload\n                /* \"bitlime-core/contracts/BitlimeV2Pair.sol\":4651:4706  (uint112 _reserve0, uint112 _reserve1,) = getReserves() */\n              swap4\n              swap6\n              pop\n              swap2\n              swap4\n              pop\n              0x00\n              swap3\n              sub(shl(0xa0, 0x01), 0x01)\n                /* \"bitlime-core/contracts/BitlimeV2Pair.sol\":4755:4761  token0 */\n              swap1\n              swap2\n              and\n              swap2\n              0x70a08231\n              swap2\n                /* \"bitlime-core/contracts/BitlimeV2Pair.sol\":4748:4787  IERC20(token0).balanceOf(address(this)) */\n              0x24\n              dup1\n              dup4\n              add\n              swap3\n              0x20\n              swap3\n              swap2\n              swap1\n              dup3\n              swap1\n              sub\n              add\n              dup2\n                /* \"bitlime-core/contracts/BitlimeV2Pair.sol\":4755:4761  token0 */\n              dup7\n                /* \"bitlime-core/contracts/BitlimeV2Pair.sol\":4748:4787  IERC20(token0).balanceOf(address(this)) */\n              dup1\n              extcodesize\n              iszero\n                /* \"--CODEGEN--\":5:7   */\n              dup1\n              iszero\n              tag_172\n              jumpi\n                /* \"--CODEGEN--\":30:31   */\n              0x00\n                /* \"--CODEGEN--\":27:28   */\n              dup1\n                /* \"--CODEGEN--\":20:32   */\n              revert\n                /* \"--CODEGEN--\":5:7   */\n            tag_172:\n                /* \"bitlime-core/contracts/BitlimeV2Pair.sol\":4748:4787  IERC20(token0).balanceOf(address(this)) */\n              pop\n              gas\n              staticcall\n              iszero\n                /* \"--CODEGEN--\":8:17   */\n              dup1\n                /* \"--CODEGEN--\":5:7   */\n              iszero\n              tag_173\n              jumpi\n                /* \"--CODEGEN--\":45:61   */\n              returndatasize\n                /* \"--CODEGEN--\":42:43   */\n              0x00\n                /* \"--CODEGEN--\":39:40   */\n              dup1\n                /* \"--CODEGEN--\":24:62   */\n              returndatacopy\n                /* \"--CODEGEN--\":77:93   */\n              returndatasize\n                /* \"--CODEGEN--\":74:75   */\n              0x00\n                /* \"--CODEGEN--\":67:94   */\n              revert\n                /* \"--CODEGEN--\":5:7   */\n            tag_173:\n                /* \"bitlime-core/contracts/BitlimeV2Pair.sol\":4748:4787  IERC20(token0).balanceOf(address(this)) */\n              pop\n              pop\n              pop\n              pop\n              mload(0x40)\n              returndatasize\n                /* \"--CODEGEN--\":13:15   */\n              0x20\n                /* \"--CODEGEN--\":8:11   */\n              dup2\n                /* \"--CODEGEN--\":5:16   */\n              lt\n                /* \"--CODEGEN--\":2:4   */\n              iszero\n              tag_174\n              jumpi\n                /* \"--CODEGEN--\":29:30   */\n              0x00\n                /* \"--CODEGEN--\":26:27   */\n              dup1\n                /* \"--CODEGEN--\":19:31   */\n              revert\n                /* \"--CODEGEN--\":2:4   */\n            tag_174:\n              pop\n                /* \"bitlime-core/contracts/BitlimeV2Pair.sol\":4748:4787  IERC20(token0).balanceOf(address(this)) */\n              mload\n                /* \"bitlime-core/contracts/BitlimeV2Pair.sol\":4821:4827  token1 */\n              sload(0x07)\n                /* \"bitlime-core/contracts/BitlimeV2Pair.sol\":4814:4853  IERC20(token1).balanceOf(address(this)) */\n              0x40\n              dup1\n              mload\n              shl(0xe0, 0x70a08231)\n              dup2\n              mstore\n                /* \"bitlime-core/contracts/BitlimeV2Pair.sol\":4847:4851  this */\n              address\n                /* \"bitlime-core/contracts/BitlimeV2Pair.sol\":4814:4853  IERC20(token1).balanceOf(address(this)) */\n              0x04\n              dup3\n              add\n              mstore\n              swap1\n              mload\n                /* \"bitlime-core/contracts/BitlimeV2Pair.sol\":4748:4787  IERC20(token0).balanceOf(address(this)) */\n              swap3\n              swap4\n              pop\n              0x00\n              swap3\n              sub(shl(0xa0, 0x01), 0x01)\n                /* \"bitlime-core/contracts/BitlimeV2Pair.sol\":4821:4827  token1 */\n              swap1\n              swap3\n              and\n              swap2\n              0x70a08231\n              swap2\n                /* \"bitlime-core/contracts/BitlimeV2Pair.sol\":4814:4853  IERC20(token1).balanceOf(address(this)) */\n              0x24\n              dup1\n              dup3\n              add\n              swap3\n                /* \"bitlime-core/contracts/BitlimeV2Pair.sol\":4748:4787  IERC20(token0).balanceOf(address(this)) */\n              0x20\n              swap3\n                /* \"bitlime-core/contracts/BitlimeV2Pair.sol\":4814:4853  IERC20(token1).balanceOf(address(this)) */\n              swap1\n              swap2\n              swap1\n              dup3\n              swap1\n              sub\n              add\n              dup2\n                /* \"bitlime-core/contracts/BitlimeV2Pair.sol\":4821:4827  token1 */\n              dup7\n                /* \"bitlime-core/contracts/BitlimeV2Pair.sol\":4814:4853  IERC20(token1).balanceOf(address(this)) */\n              dup1\n              extcodesize\n              iszero\n                /* \"--CODEGEN--\":5:7   */\n              dup1\n              iszero\n              tag_175\n              jumpi\n                /* \"--CODEGEN--\":30:31   */\n              0x00\n                /* \"--CODEGEN--\":27:28   */\n              dup1\n                /* \"--CODEGEN--\":20:32   */\n              revert\n                /* \"--CODEGEN--\":5:7   */\n            tag_175:\n                /* \"bitlime-core/contracts/BitlimeV2Pair.sol\":4814:4853  IERC20(token1).balanceOf(address(this)) */\n              pop\n              gas\n              staticcall\n              iszero\n                /* \"--CODEGEN--\":8:17   */\n              dup1\n                /* \"--CODEGEN--\":5:7   */\n              iszero\n              tag_176\n              jumpi\n                /* \"--CODEGEN--\":45:61   */\n              returndatasize\n                /* \"--CODEGEN--\":42:43   */\n              0x00\n                /* \"--CODEGEN--\":39:40   */\n              dup1\n                /* \"--CODEGEN--\":24:62   */\n              returndatacopy\n                /* \"--CODEGEN--\":77:93   */\n              returndatasize\n                /* \"--CODEGEN--\":74:75   */\n              0x00\n                /* \"--CODEGEN--\":67:94   */\n              revert\n                /* \"--CODEGEN--\":5:7   */\n            tag_176:\n                /* \"bitlime-core/contracts/BitlimeV2Pair.sol\":4814:4853  IERC20(token1).balanceOf(address(this)) */\n              pop\n              pop\n              pop\n              pop\n              mload(0x40)\n              returndatasize\n                /* \"--CODEGEN--\":13:15   */\n              0x20\n                /* \"--CODEGEN--\":8:11   */\n              dup2\n                /* \"--CODEGEN--\":5:16   */\n              lt\n                /* \"--CODEGEN--\":2:4   */\n              iszero\n              tag_177\n              jumpi\n                /* \"--CODEGEN--\":29:30   */\n              0x00\n                /* \"--CODEGEN--\":26:27   */\n              dup1\n                /* \"--CODEGEN--\":19:31   */\n              revert\n                /* \"--CODEGEN--\":2:4   */\n            tag_177:\n              pop\n                /* \"bitlime-core/contracts/BitlimeV2Pair.sol\":4814:4853  IERC20(token1).balanceOf(address(this)) */\n              mload\n              swap1\n              pop\n                /* \"bitlime-core/contracts/BitlimeV2Pair.sol\":4864:4876  uint amount0 */\n              0x00\n                /* \"bitlime-core/contracts/BitlimeV2Pair.sol\":4879:4902  balance0.sub(_reserve0) */\n              tag_178\n                /* \"bitlime-core/contracts/BitlimeV2Pair.sol\":4879:4887  balance0 */\n              dup4\n              sub(shl(0x70, 0x01), 0x01)\n                /* \"bitlime-core/contracts/BitlimeV2Pair.sol\":4879:4902  balance0.sub(_reserve0) */\n              dup8\n              and\n                /* \"bitlime-core/contracts/BitlimeV2Pair.sol\":4879:4891  balance0.sub */\n              tag_147\n                /* \"bitlime-core/contracts/BitlimeV2Pair.sol\":4879:4902  balance0.sub(_reserve0) */\n              jump\t// in\n            tag_178:\n                /* \"bitlime-core/contracts/BitlimeV2Pair.sol\":4864:4902  uint amount0 = balance0.sub(_reserve0) */\n              swap1\n              pop\n                /* \"bitlime-core/contracts/BitlimeV2Pair.sol\":4913:4925  uint amount1 */\n              0x00\n                /* \"bitlime-core/contracts/BitlimeV2Pair.sol\":4928:4951  balance1.sub(_reserve1) */\n              tag_179\n                /* \"bitlime-core/contracts/BitlimeV2Pair.sol\":4928:4936  balance1 */\n              dup4\n              sub(shl(0x70, 0x01), 0x01)\n                /* \"bitlime-core/contracts/BitlimeV2Pair.sol\":4928:4951  balance1.sub(_reserve1) */\n              dup8\n              and\n                /* \"bitlime-core/contracts/BitlimeV2Pair.sol\":4928:4940  balance1.sub */\n              tag_147\n                /* \"bitlime-core/contracts/BitlimeV2Pair.sol\":4928:4951  balance1.sub(_reserve1) */\n              jump\t// in\n            tag_179:\n                /* \"bitlime-core/contracts/BitlimeV2Pair.sol\":4913:4951  uint amount1 = balance1.sub(_reserve1) */\n              swap1\n              pop\n                /* \"bitlime-core/contracts/BitlimeV2Pair.sol\":4964:4974  bool feeOn */\n              0x00\n                /* \"bitlime-core/contracts/BitlimeV2Pair.sol\":4977:5007  _mintFee(_reserve0, _reserve1) */\n              tag_180\n                /* \"bitlime-core/contracts/BitlimeV2Pair.sol\":4986:4995  _reserve0 */\n              dup8\n                /* \"bitlime-core/contracts/BitlimeV2Pair.sol\":4997:5006  _reserve1 */\n              dup8\n                /* \"bitlime-core/contracts/BitlimeV2Pair.sol\":4977:4985  _mintFee */\n              tag_181\n                /* \"bitlime-core/contracts/BitlimeV2Pair.sol\":4977:5007  _mintFee(_reserve0, _reserve1) */\n              jump\t// in\n            tag_180:\n                /* \"bitlime-core/contracts/BitlimeV2Pair.sol\":5018:5035  uint _totalSupply */\n              0x00\n                /* \"bitlime-core/contracts/BitlimeV2Pair.sol\":5038:5049  totalSupply */\n              sload\n                /* \"bitlime-core/contracts/BitlimeV2Pair.sol\":4964:5007  bool feeOn = _mintFee(_reserve0, _reserve1) */\n              swap1\n              swap2\n              pop\n                /* \"bitlime-core/contracts/BitlimeV2Pair.sol\":5142:5159  _totalSupply == 0 */\n              dup1\n                /* \"bitlime-core/contracts/BitlimeV2Pair.sol\":5138:5490  if (_totalSupply == 0) {\r... */\n              tag_182\n              jumpi\n                /* \"bitlime-core/contracts/BitlimeV2Pair.sol\":5188:5242  Math.sqrt(amount0.mul(amount1)).sub(MINIMUM_LIQUIDITY) */\n              tag_183\n                /* \"bitlime-core/contracts/BitlimeV2Pair.sol\":472:477  10**3 */\n              0x03e8\n                /* \"bitlime-core/contracts/BitlimeV2Pair.sol\":5188:5219  Math.sqrt(amount0.mul(amount1)) */\n              tag_146\n                /* \"bitlime-core/contracts/BitlimeV2Pair.sol\":5198:5218  amount0.mul(amount1) */\n              tag_185\n                /* \"bitlime-core/contracts/BitlimeV2Pair.sol\":5198:5205  amount0 */\n              dup8\n                /* \"bitlime-core/contracts/BitlimeV2Pair.sol\":5210:5217  amount1 */\n              dup8\n                /* \"bitlime-core/contracts/BitlimeV2Pair.sol\":5198:5218  amount0.mul(amount1) */\n              0xffffffff\n                /* \"bitlime-core/contracts/BitlimeV2Pair.sol\":5198:5209  amount0.mul */\n              tag_145\n                /* \"bitlime-core/contracts/BitlimeV2Pair.sol\":5198:5218  amount0.mul(amount1) */\n              and\n              jump\t// in\n            tag_185:\n                /* \"bitlime-core/contracts/BitlimeV2Pair.sol\":5188:5197  Math.sqrt */\n              tag_186\n                /* \"bitlime-core/contracts/BitlimeV2Pair.sol\":5188:5219  Math.sqrt(amount0.mul(amount1)) */\n              jump\t// in\n                /* \"bitlime-core/contracts/BitlimeV2Pair.sol\":5188:5242  Math.sqrt(amount0.mul(amount1)).sub(MINIMUM_LIQUIDITY) */\n            tag_183:\n                /* \"bitlime-core/contracts/BitlimeV2Pair.sol\":5176:5242  liquidity = Math.sqrt(amount0.mul(amount1)).sub(MINIMUM_LIQUIDITY) */\n              swap9\n              pop\n                /* \"bitlime-core/contracts/BitlimeV2Pair.sol\":5256:5292  _mint(address(0), MINIMUM_LIQUIDITY) */\n              tag_187\n                /* \"bitlime-core/contracts/BitlimeV2Pair.sol\":5270:5271  0 */\n              0x00\n                /* \"bitlime-core/contracts/BitlimeV2Pair.sol\":472:477  10**3 */\n              0x03e8\n                /* \"bitlime-core/contracts/BitlimeV2Pair.sol\":5256:5261  _mint */\n              tag_188\n                /* \"bitlime-core/contracts/BitlimeV2Pair.sol\":5256:5292  _mint(address(0), MINIMUM_LIQUIDITY) */\n              jump\t// in\n            tag_187:\n                /* \"bitlime-core/contracts/BitlimeV2Pair.sol\":5138:5490  if (_totalSupply == 0) {\r... */\n              jump(tag_189)\n            tag_182:\n                /* \"bitlime-core/contracts/BitlimeV2Pair.sol\":5392:5478  Math.min(amount0.mul(_totalSupply) / _reserve0, amount1.mul(_totalSupply) / _reserve1) */\n              tag_190\n              sub(shl(0x70, 0x01), 0x01)\n                /* \"bitlime-core/contracts/BitlimeV2Pair.sol\":5401:5438  amount0.mul(_totalSupply) / _reserve0 */\n              dup10\n              and\n                /* \"bitlime-core/contracts/BitlimeV2Pair.sol\":5401:5426  amount0.mul(_totalSupply) */\n              tag_191\n                /* \"bitlime-core/contracts/BitlimeV2Pair.sol\":5401:5408  amount0 */\n              dup7\n                /* \"bitlime-core/contracts/BitlimeV2Pair.sol\":5413:5425  _totalSupply */\n              dup5\n                /* \"bitlime-core/contracts/BitlimeV2Pair.sol\":5401:5412  amount0.mul */\n              tag_145\n                /* \"bitlime-core/contracts/BitlimeV2Pair.sol\":5401:5426  amount0.mul(_totalSupply) */\n              jump\t// in\n            tag_191:\n                /* \"bitlime-core/contracts/BitlimeV2Pair.sol\":5401:5438  amount0.mul(_totalSupply) / _reserve0 */\n              dup2\n              tag_192\n              jumpi\n              invalid\n            tag_192:\n              div\n              sub(shl(0x70, 0x01), 0x01)\n                /* \"bitlime-core/contracts/BitlimeV2Pair.sol\":5440:5477  amount1.mul(_totalSupply) / _reserve1 */\n              dup10\n              and\n                /* \"bitlime-core/contracts/BitlimeV2Pair.sol\":5440:5465  amount1.mul(_totalSupply) */\n              tag_193\n                /* \"bitlime-core/contracts/BitlimeV2Pair.sol\":5440:5447  amount1 */\n              dup7\n                /* \"bitlime-core/contracts/BitlimeV2Pair.sol\":5452:5464  _totalSupply */\n              dup6\n                /* \"bitlime-core/contracts/BitlimeV2Pair.sol\":5440:5451  amount1.mul */\n              tag_145\n                /* \"bitlime-core/contracts/BitlimeV2Pair.sol\":5440:5465  amount1.mul(_totalSupply) */\n              jump\t// in\n            tag_193:\n                /* \"bitlime-core/contracts/BitlimeV2Pair.sol\":5440:5477  amount1.mul(_totalSupply) / _reserve1 */\n              dup2\n              tag_194\n              jumpi\n              invalid\n            tag_194:\n              div\n                /* \"bitlime-core/contracts/BitlimeV2Pair.sol\":5392:5400  Math.min */\n              tag_195\n                /* \"bitlime-core/contracts/BitlimeV2Pair.sol\":5392:5478  Math.min(amount0.mul(_totalSupply) / _reserve0, amount1.mul(_totalSupply) / _reserve1) */\n              jump\t// in\n            tag_190:\n                /* \"bitlime-core/contracts/BitlimeV2Pair.sol\":5380:5478  liquidity = Math.min(amount0.mul(_totalSupply) / _reserve0, amount1.mul(_totalSupply) / _reserve1) */\n              swap9\n              pop\n                /* \"bitlime-core/contracts/BitlimeV2Pair.sol\":5138:5490  if (_totalSupply == 0) {\r... */\n            tag_189:\n                /* \"bitlime-core/contracts/BitlimeV2Pair.sol\":5520:5521  0 */\n              0x00\n                /* \"bitlime-core/contracts/BitlimeV2Pair.sol\":5508:5517  liquidity */\n              dup10\n                /* \"bitlime-core/contracts/BitlimeV2Pair.sol\":5508:5521  liquidity > 0 */\n              gt\n                /* \"bitlime-core/contracts/BitlimeV2Pair.sol\":5500:5566  require(liquidity > 0, 'BitlimeV2: INSUFFICIENT_LIQUIDITY_MINTED') */\n              tag_196\n              jumpi\n              mload(0x40)\n              shl(0xe5, 0x461bcd)\n              dup2\n              mstore\n              0x04\n              add\n              dup1\n              dup1\n              0x20\n              add\n              dup3\n              dup2\n              sub\n              dup3\n              mstore\n              0x28\n              dup2\n              mstore\n              0x20\n              add\n              dup1\n              data_11aae1451e92178ca9557b0da8e89c1a0cb66439f2c79e2c015b2b1c66f8c10e\n              0x28\n              swap2\n              codecopy\n              0x40\n              add\n              swap2\n              pop\n              pop\n              mload(0x40)\n              dup1\n              swap2\n              sub\n              swap1\n              revert\n            tag_196:\n                /* \"bitlime-core/contracts/BitlimeV2Pair.sol\":5577:5597  _mint(to, liquidity) */\n              tag_197\n                /* \"bitlime-core/contracts/BitlimeV2Pair.sol\":5583:5585  to */\n              dup11\n                /* \"bitlime-core/contracts/BitlimeV2Pair.sol\":5587:5596  liquidity */\n              dup11\n                /* \"bitlime-core/contracts/BitlimeV2Pair.sol\":5577:5582  _mint */\n              tag_188\n                /* \"bitlime-core/contracts/BitlimeV2Pair.sol\":5577:5597  _mint(to, liquidity) */\n              jump\t// in\n            tag_197:\n                /* \"bitlime-core/contracts/BitlimeV2Pair.sol\":5610:5659  _update(balance0, balance1, _reserve0, _reserve1) */\n              tag_198\n                /* \"bitlime-core/contracts/BitlimeV2Pair.sol\":5618:5626  balance0 */\n              dup7\n                /* \"bitlime-core/contracts/BitlimeV2Pair.sol\":5628:5636  balance1 */\n              dup7\n                /* \"bitlime-core/contracts/BitlimeV2Pair.sol\":5638:5647  _reserve0 */\n              dup11\n                /* \"bitlime-core/contracts/BitlimeV2Pair.sol\":5649:5658  _reserve1 */\n              dup11\n                /* \"bitlime-core/contracts/BitlimeV2Pair.sol\":5610:5617  _update */\n              tag_156\n                /* \"bitlime-core/contracts/BitlimeV2Pair.sol\":5610:5659  _update(balance0, balance1, _reserve0, _reserve1) */\n              jump\t// in\n            tag_198:\n                /* \"bitlime-core/contracts/BitlimeV2Pair.sol\":5674:5679  feeOn */\n              dup2\n                /* \"bitlime-core/contracts/BitlimeV2Pair.sol\":5670:5717  if (feeOn) kLast = uint(reserve0).mul(reserve1) */\n              iszero\n              tag_199\n              jumpi\n                /* \"bitlime-core/contracts/BitlimeV2Pair.sol\":5708:5716  reserve1 */\n              sload(0x08)\n                /* \"bitlime-core/contracts/BitlimeV2Pair.sol\":5689:5717  uint(reserve0).mul(reserve1) */\n              tag_200\n              swap1\n              sub(shl(0x70, 0x01), 0x01)\n                /* \"bitlime-core/contracts/BitlimeV2Pair.sol\":5694:5702  reserve0 */\n              dup1\n              dup3\n              and\n              swap2\n              shl(0x70, 0x01)\n                /* \"bitlime-core/contracts/BitlimeV2Pair.sol\":5708:5716  reserve1 */\n              swap1\n              div\n              and\n                /* \"bitlime-core/contracts/BitlimeV2Pair.sol\":5689:5707  uint(reserve0).mul */\n              tag_145\n                /* \"bitlime-core/contracts/BitlimeV2Pair.sol\":5689:5717  uint(reserve0).mul(reserve1) */\n              jump\t// in\n            tag_200:\n                /* \"bitlime-core/contracts/BitlimeV2Pair.sol\":5681:5686  kLast */\n              0x0b\n                /* \"bitlime-core/contracts/BitlimeV2Pair.sol\":5681:5717  kLast = uint(reserve0).mul(reserve1) */\n              sstore\n                /* \"bitlime-core/contracts/BitlimeV2Pair.sol\":5670:5717  if (feeOn) kLast = uint(reserve0).mul(reserve1) */\n            tag_199:\n                /* \"bitlime-core/contracts/BitlimeV2Pair.sol\":5773:5807  Mint(msg.sender, amount0, amount1) */\n              0x40\n              dup1\n              mload\n              dup6\n              dup2\n              mstore\n              0x20\n              dup2\n              add\n              dup6\n              swap1\n              mstore\n              dup2\n              mload\n                /* \"bitlime-core/contracts/BitlimeV2Pair.sol\":5778:5788  msg.sender */\n              caller\n              swap3\n                /* \"bitlime-core/contracts/BitlimeV2Pair.sol\":5773:5807  Mint(msg.sender, amount0, amount1) */\n              0x4c209b5fc8ad50758f13e2e1088ba56a560dff690a1c6fef26394f4c03821c4f\n              swap3\n              dup3\n              swap1\n              sub\n              add\n              swap1\n              log2\n              pop\n              pop\n                /* \"bitlime-core/contracts/BitlimeV2Pair.sol\":1304:1305  1 */\n              0x01\n                /* \"bitlime-core/contracts/BitlimeV2Pair.sol\":1293:1301  unlocked */\n              0x0c\n                /* \"bitlime-core/contracts/BitlimeV2Pair.sol\":1293:1305  unlocked = 1 */\n              sstore\n              pop\n                /* \"bitlime-core/contracts/BitlimeV2Pair.sol\":4575:5815  function mint(address to) external lock returns (uint liquidity) {\r... */\n              swap5\n              swap7\n              swap6\n              pop\n              pop\n              pop\n              pop\n              pop\n              pop\n              jump\t// out\n                /* \"bitlime-core/contracts/BitlimeV2ERC20.sol\":362:403  mapping(address => uint) public balanceOf */\n            tag_78:\n              mstore(0x20, 0x01)\n              0x00\n              swap1\n              dup2\n              mstore\n              0x40\n              swap1\n              keccak256\n              sload\n              dup2\n              jump\t// out\n                /* \"bitlime-core/contracts/BitlimeV2Pair.sol\":1039:1056  uint public kLast */\n            tag_80:\n              sload(0x0b)\n              dup2\n              jump\t// out\n                /* \"bitlime-core/contracts/BitlimeV2ERC20.sol\":738:776  mapping(address => uint) public nonces */\n            tag_83:\n              mstore(0x20, 0x04)\n              0x00\n              swap1\n              dup2\n              mstore\n              0x40\n              swap1\n              keccak256\n              sload\n              dup2\n              jump\t// out\n                /* \"bitlime-core/contracts/BitlimeV2Pair.sol\":5927:7393  function burn(address to) external lock returns (uint amount0, uint amount1) {\r... */\n            tag_86:\n                /* \"bitlime-core/contracts/BitlimeV2Pair.sol\":5976:5988  uint amount0 */\n              0x00\n                /* \"bitlime-core/contracts/BitlimeV2Pair.sol\":5990:6002  uint amount1 */\n              dup1\n                /* \"bitlime-core/contracts/BitlimeV2Pair.sol\":1212:1220  unlocked */\n              sload(0x0c)\n                /* \"bitlime-core/contracts/BitlimeV2Pair.sol\":1224:1225  1 */\n              0x01\n                /* \"bitlime-core/contracts/BitlimeV2Pair.sol\":1212:1225  unlocked == 1 */\n              eq\n                /* \"bitlime-core/contracts/BitlimeV2Pair.sol\":1204:1247  require(unlocked == 1, 'BitlimeV2: LOCKED') */\n              tag_202\n              jumpi\n              0x40\n              dup1\n              mload\n              shl(0xe5, 0x461bcd)\n              dup2\n              mstore\n              0x20\n              0x04\n              dup3\n              add\n              mstore\n              0x11\n              0x24\n              dup3\n              add\n              mstore\n              shl(0x7a, 0x109a5d1b1a5b59558c8e881313d0d2d151)\n              0x44\n              dup3\n              add\n              mstore\n              swap1\n              mload\n              swap1\n              dup2\n              swap1\n              sub\n              0x64\n              add\n              swap1\n              revert\n            tag_202:\n                /* \"bitlime-core/contracts/BitlimeV2Pair.sol\":1269:1270  0 */\n              0x00\n                /* \"bitlime-core/contracts/BitlimeV2Pair.sol\":1258:1266  unlocked */\n              0x0c\n                /* \"bitlime-core/contracts/BitlimeV2Pair.sol\":1258:1270  unlocked = 0 */\n              dup2\n              swap1\n              sstore\n                /* \"bitlime-core/contracts/BitlimeV2Pair.sol\":1269:1270  0 */\n              dup1\n                /* \"bitlime-core/contracts/BitlimeV2Pair.sol\":6057:6070  getReserves() */\n              tag_204\n                /* \"bitlime-core/contracts/BitlimeV2Pair.sol\":6057:6068  getReserves */\n              tag_49\n                /* \"bitlime-core/contracts/BitlimeV2Pair.sol\":6057:6070  getReserves() */\n              jump\t// in\n            tag_204:\n              pop\n                /* \"bitlime-core/contracts/BitlimeV2Pair.sol\":6114:6120  token0 */\n              sload(0x06)\n                /* \"bitlime-core/contracts/BitlimeV2Pair.sol\":6195:6201  token1 */\n              sload(0x07)\n                /* \"bitlime-core/contracts/BitlimeV2Pair.sol\":6274:6314  IERC20(_token0).balanceOf(address(this)) */\n              0x40\n              dup1\n              mload\n              shl(0xe0, 0x70a08231)\n              dup2\n              mstore\n                /* \"bitlime-core/contracts/BitlimeV2Pair.sol\":6308:6312  this */\n              address\n                /* \"bitlime-core/contracts/BitlimeV2Pair.sol\":6274:6314  IERC20(_token0).balanceOf(address(this)) */\n              0x04\n              dup3\n              add\n              mstore\n              swap1\n              mload\n                /* \"bitlime-core/contracts/BitlimeV2Pair.sol\":6015:6070  (uint112 _reserve0, uint112 _reserve1,) = getReserves() */\n              swap5\n              swap7\n              pop\n              swap3\n              swap5\n              pop\n              sub(shl(0xa0, 0x01), 0x01)\n                /* \"bitlime-core/contracts/BitlimeV2Pair.sol\":6114:6120  token0 */\n              swap2\n              dup3\n              and\n              swap4\n                /* \"bitlime-core/contracts/BitlimeV2Pair.sol\":6195:6201  token1 */\n              swap2\n              and\n              swap2\n              0x00\n              swap2\n                /* \"bitlime-core/contracts/BitlimeV2Pair.sol\":6114:6120  token0 */\n              dup5\n              swap2\n              0x70a08231\n              swap2\n                /* \"bitlime-core/contracts/BitlimeV2Pair.sol\":6274:6314  IERC20(_token0).balanceOf(address(this)) */\n              0x24\n              dup1\n              dup4\n              add\n              swap3\n              0x20\n              swap3\n              swap2\n              swap1\n              dup3\n              swap1\n              sub\n              add\n              dup2\n                /* \"bitlime-core/contracts/BitlimeV2Pair.sol\":6114:6120  token0 */\n              dup7\n                /* \"bitlime-core/contracts/BitlimeV2Pair.sol\":6274:6314  IERC20(_token0).balanceOf(address(this)) */\n              dup1\n              extcodesize\n              iszero\n                /* \"--CODEGEN--\":5:7   */\n              dup1\n              iszero\n              tag_205\n              jumpi\n                /* \"--CODEGEN--\":30:31   */\n              0x00\n                /* \"--CODEGEN--\":27:28   */\n              dup1\n                /* \"--CODEGEN--\":20:32   */\n              revert\n                /* \"--CODEGEN--\":5:7   */\n            tag_205:\n                /* \"bitlime-core/contracts/BitlimeV2Pair.sol\":6274:6314  IERC20(_token0).balanceOf(address(this)) */\n              pop\n              gas\n              staticcall\n              iszero\n                /* \"--CODEGEN--\":8:17   */\n              dup1\n                /* \"--CODEGEN--\":5:7   */\n              iszero\n              tag_206\n              jumpi\n                /* \"--CODEGEN--\":45:61   */\n              returndatasize\n                /* \"--CODEGEN--\":42:43   */\n              0x00\n                /* \"--CODEGEN--\":39:40   */\n              dup1\n                /* \"--CODEGEN--\":24:62   */\n              returndatacopy\n                /* \"--CODEGEN--\":77:93   */\n              returndatasize\n                /* \"--CODEGEN--\":74:75   */\n              0x00\n                /* \"--CODEGEN--\":67:94   */\n              revert\n                /* \"--CODEGEN--\":5:7   */\n            tag_206:\n                /* \"bitlime-core/contracts/BitlimeV2Pair.sol\":6274:6314  IERC20(_token0).balanceOf(address(this)) */\n              pop\n              pop\n              pop\n              pop\n              mload(0x40)\n              returndatasize\n                /* \"--CODEGEN--\":13:15   */\n              0x20\n                /* \"--CODEGEN--\":8:11   */\n              dup2\n                /* \"--CODEGEN--\":5:16   */\n              lt\n                /* \"--CODEGEN--\":2:4   */\n              iszero\n              tag_207\n              jumpi\n                /* \"--CODEGEN--\":29:30   */\n              0x00\n                /* \"--CODEGEN--\":26:27   */\n              dup1\n                /* \"--CODEGEN--\":19:31   */\n              revert\n                /* \"--CODEGEN--\":2:4   */\n            tag_207:\n              pop\n                /* \"bitlime-core/contracts/BitlimeV2Pair.sol\":6274:6314  IERC20(_token0).balanceOf(address(this)) */\n              mload\n                /* \"bitlime-core/contracts/BitlimeV2Pair.sol\":6341:6381  IERC20(_token1).balanceOf(address(this)) */\n              0x40\n              dup1\n              mload\n              shl(0xe0, 0x70a08231)\n              dup2\n              mstore\n                /* \"bitlime-core/contracts/BitlimeV2Pair.sol\":6375:6379  this */\n              address\n                /* \"bitlime-core/contracts/BitlimeV2Pair.sol\":6341:6381  IERC20(_token1).balanceOf(address(this)) */\n              0x04\n              dup3\n              add\n              mstore\n              swap1\n              mload\n                /* \"bitlime-core/contracts/BitlimeV2Pair.sol\":6274:6314  IERC20(_token0).balanceOf(address(this)) */\n              swap2\n              swap3\n              pop\n              0x00\n              swap2\n              sub(shl(0xa0, 0x01), 0x01)\n                /* \"bitlime-core/contracts/BitlimeV2Pair.sol\":6341:6366  IERC20(_token1).balanceOf */\n              dup6\n              and\n              swap2\n              0x70a08231\n              swap2\n                /* \"bitlime-core/contracts/BitlimeV2Pair.sol\":6341:6381  IERC20(_token1).balanceOf(address(this)) */\n              0x24\n              dup1\n              dup4\n              add\n              swap3\n                /* \"bitlime-core/contracts/BitlimeV2Pair.sol\":6274:6314  IERC20(_token0).balanceOf(address(this)) */\n              0x20\n              swap3\n                /* \"bitlime-core/contracts/BitlimeV2Pair.sol\":6341:6381  IERC20(_token1).balanceOf(address(this)) */\n              swap2\n              swap1\n              dup3\n              swap1\n              sub\n              add\n              dup2\n                /* \"bitlime-core/contracts/BitlimeV2Pair.sol\":6341:6366  IERC20(_token1).balanceOf */\n              dup7\n                /* \"bitlime-core/contracts/BitlimeV2Pair.sol\":6341:6381  IERC20(_token1).balanceOf(address(this)) */\n              dup1\n              extcodesize\n              iszero\n                /* \"--CODEGEN--\":5:7   */\n              dup1\n              iszero\n              tag_208\n              jumpi\n                /* \"--CODEGEN--\":30:31   */\n              0x00\n                /* \"--CODEGEN--\":27:28   */\n              dup1\n                /* \"--CODEGEN--\":20:32   */\n              revert\n                /* \"--CODEGEN--\":5:7   */\n            tag_208:\n                /* \"bitlime-core/contracts/BitlimeV2Pair.sol\":6341:6381  IERC20(_token1).balanceOf(address(this)) */\n              pop\n              gas\n              staticcall\n              iszero\n                /* \"--CODEGEN--\":8:17   */\n              dup1\n                /* \"--CODEGEN--\":5:7   */\n              iszero\n              tag_209\n              jumpi\n                /* \"--CODEGEN--\":45:61   */\n              returndatasize\n                /* \"--CODEGEN--\":42:43   */\n              0x00\n                /* \"--CODEGEN--\":39:40   */\n              dup1\n                /* \"--CODEGEN--\":24:62   */\n              returndatacopy\n                /* \"--CODEGEN--\":77:93   */\n              returndatasize\n                /* \"--CODEGEN--\":74:75   */\n              0x00\n                /* \"--CODEGEN--\":67:94   */\n              revert\n                /* \"--CODEGEN--\":5:7   */\n            tag_209:\n                /* \"bitlime-core/contracts/BitlimeV2Pair.sol\":6341:6381  IERC20(_token1).balanceOf(address(this)) */\n              pop\n              pop\n              pop\n              pop\n              mload(0x40)\n              returndatasize\n                /* \"--CODEGEN--\":13:15   */\n              0x20\n                /* \"--CODEGEN--\":8:11   */\n              dup2\n                /* \"--CODEGEN--\":5:16   */\n              lt\n                /* \"--CODEGEN--\":2:4   */\n              iszero\n              tag_210\n              jumpi\n                /* \"--CODEGEN--\":29:30   */\n              0x00\n                /* \"--CODEGEN--\":26:27   */\n              dup1\n                /* \"--CODEGEN--\":19:31   */\n              revert\n                /* \"--CODEGEN--\":2:4   */\n            tag_210:\n              pop\n                /* \"bitlime-core/contracts/BitlimeV2Pair.sol\":6341:6381  IERC20(_token1).balanceOf(address(this)) */\n              mload\n                /* \"bitlime-core/contracts/BitlimeV2Pair.sol\":6427:6431  this */\n              address\n                /* \"bitlime-core/contracts/BitlimeV2Pair.sol\":6392:6406  uint liquidity */\n              0x00\n                /* \"bitlime-core/contracts/BitlimeV2Pair.sol\":6409:6433  balanceOf[address(this)] */\n              swap1\n              dup2\n              mstore\n                /* \"bitlime-core/contracts/BitlimeV2Pair.sol\":6409:6418  balanceOf */\n              0x01\n                /* \"bitlime-core/contracts/BitlimeV2Pair.sol\":6341:6381  IERC20(_token1).balanceOf(address(this)) */\n              0x20\n                /* \"bitlime-core/contracts/BitlimeV2Pair.sol\":6409:6433  balanceOf[address(this)] */\n              mstore\n              0x40\n              dup2\n              keccak256\n              sload\n                /* \"bitlime-core/contracts/BitlimeV2Pair.sol\":6341:6381  IERC20(_token1).balanceOf(address(this)) */\n              swap2\n              swap3\n              pop\n                /* \"bitlime-core/contracts/BitlimeV2Pair.sol\":6459:6489  _mintFee(_reserve0, _reserve1) */\n              tag_211\n                /* \"bitlime-core/contracts/BitlimeV2Pair.sol\":6468:6477  _reserve0 */\n              dup9\n                /* \"bitlime-core/contracts/BitlimeV2Pair.sol\":6479:6488  _reserve1 */\n              dup9\n                /* \"bitlime-core/contracts/BitlimeV2Pair.sol\":6459:6467  _mintFee */\n              tag_181\n                /* \"bitlime-core/contracts/BitlimeV2Pair.sol\":6459:6489  _mintFee(_reserve0, _reserve1) */\n              jump\t// in\n            tag_211:\n                /* \"bitlime-core/contracts/BitlimeV2Pair.sol\":6500:6517  uint _totalSupply */\n              0x00\n                /* \"bitlime-core/contracts/BitlimeV2Pair.sol\":6520:6531  totalSupply */\n              sload\n                /* \"bitlime-core/contracts/BitlimeV2Pair.sol\":6446:6489  bool feeOn = _mintFee(_reserve0, _reserve1) */\n              swap1\n              swap2\n              pop\n                /* \"bitlime-core/contracts/BitlimeV2Pair.sol\":6520:6531  totalSupply */\n              dup1\n                /* \"bitlime-core/contracts/BitlimeV2Pair.sol\":6630:6653  liquidity.mul(balance0) */\n              tag_212\n                /* \"bitlime-core/contracts/BitlimeV2Pair.sol\":6630:6639  liquidity */\n              dup5\n                /* \"bitlime-core/contracts/BitlimeV2Pair.sol\":6644:6652  balance0 */\n              dup8\n                /* \"bitlime-core/contracts/BitlimeV2Pair.sol\":6630:6653  liquidity.mul(balance0) */\n              0xffffffff\n                /* \"bitlime-core/contracts/BitlimeV2Pair.sol\":6630:6643  liquidity.mul */\n              tag_145\n                /* \"bitlime-core/contracts/BitlimeV2Pair.sol\":6630:6653  liquidity.mul(balance0) */\n              and\n              jump\t// in\n            tag_212:\n                /* \"bitlime-core/contracts/BitlimeV2Pair.sol\":6630:6668  liquidity.mul(balance0) / _totalSupply */\n              dup2\n              tag_213\n              jumpi\n              invalid\n            tag_213:\n              div\n              swap11\n              pop\n                /* \"bitlime-core/contracts/BitlimeV2Pair.sol\":6763:6775  _totalSupply */\n              dup1\n                /* \"bitlime-core/contracts/BitlimeV2Pair.sol\":6737:6760  liquidity.mul(balance1) */\n              tag_214\n                /* \"bitlime-core/contracts/BitlimeV2Pair.sol\":6737:6746  liquidity */\n              dup5\n                /* \"bitlime-core/contracts/BitlimeV2Pair.sol\":6751:6759  balance1 */\n              dup7\n                /* \"bitlime-core/contracts/BitlimeV2Pair.sol\":6737:6760  liquidity.mul(balance1) */\n              0xffffffff\n                /* \"bitlime-core/contracts/BitlimeV2Pair.sol\":6737:6750  liquidity.mul */\n              tag_145\n                /* \"bitlime-core/contracts/BitlimeV2Pair.sol\":6737:6760  liquidity.mul(balance1) */\n              and\n              jump\t// in\n            tag_214:\n                /* \"bitlime-core/contracts/BitlimeV2Pair.sol\":6737:6775  liquidity.mul(balance1) / _totalSupply */\n              dup2\n              tag_215\n              jumpi\n              invalid\n            tag_215:\n              div\n                /* \"bitlime-core/contracts/BitlimeV2Pair.sol\":6727:6775  amount1 = liquidity.mul(balance1) / _totalSupply */\n              swap10\n              pop\n                /* \"bitlime-core/contracts/BitlimeV2Pair.sol\":6852:6853  0 */\n              0x00\n                /* \"bitlime-core/contracts/BitlimeV2Pair.sol\":6842:6849  amount0 */\n              dup12\n                /* \"bitlime-core/contracts/BitlimeV2Pair.sol\":6842:6853  amount0 > 0 */\n              gt\n                /* \"bitlime-core/contracts/BitlimeV2Pair.sol\":6842:6868  amount0 > 0 && amount1 > 0 */\n              dup1\n              iszero\n              tag_216\n              jumpi\n              pop\n                /* \"bitlime-core/contracts/BitlimeV2Pair.sol\":6867:6868  0 */\n              0x00\n                /* \"bitlime-core/contracts/BitlimeV2Pair.sol\":6857:6864  amount1 */\n              dup11\n                /* \"bitlime-core/contracts/BitlimeV2Pair.sol\":6857:6868  amount1 > 0 */\n              gt\n                /* \"bitlime-core/contracts/BitlimeV2Pair.sol\":6842:6868  amount0 > 0 && amount1 > 0 */\n            tag_216:\n                /* \"bitlime-core/contracts/BitlimeV2Pair.sol\":6834:6913  require(amount0 > 0 && amount1 > 0, 'BitlimeV2: INSUFFICIENT_LIQUIDITY_BURNED') */\n              tag_217\n              jumpi\n              mload(0x40)\n              shl(0xe5, 0x461bcd)\n              dup2\n              mstore\n              0x04\n              add\n              dup1\n              dup1\n              0x20\n              add\n              dup3\n              dup2\n              sub\n              dup3\n              mstore\n              0x28\n              dup2\n              mstore\n              0x20\n              add\n              dup1\n              data_ad84f473b4861a87a7c2e9e59f92cb79221bbc15014bdee38cdd94fc09af824b\n              0x28\n              swap2\n              codecopy\n              0x40\n              add\n              swap2\n              pop\n              pop\n              mload(0x40)\n              dup1\n              swap2\n              sub\n              swap1\n              revert\n            tag_217:\n                /* \"bitlime-core/contracts/BitlimeV2Pair.sol\":6924:6955  _burn(address(this), liquidity) */\n              tag_218\n                /* \"bitlime-core/contracts/BitlimeV2Pair.sol\":6938:6942  this */\n              address\n                /* \"bitlime-core/contracts/BitlimeV2Pair.sol\":6945:6954  liquidity */\n              dup5\n                /* \"bitlime-core/contracts/BitlimeV2Pair.sol\":6924:6929  _burn */\n              tag_219\n                /* \"bitlime-core/contracts/BitlimeV2Pair.sol\":6924:6955  _burn(address(this), liquidity) */\n              jump\t// in\n            tag_218:\n                /* \"bitlime-core/contracts/BitlimeV2Pair.sol\":6966:7001  _safeTransfer(_token0, to, amount0) */\n              tag_220\n                /* \"bitlime-core/contracts/BitlimeV2Pair.sol\":6980:6987  _token0 */\n              dup8\n                /* \"bitlime-core/contracts/BitlimeV2Pair.sol\":6989:6991  to */\n              dup14\n                /* \"bitlime-core/contracts/BitlimeV2Pair.sol\":6993:7000  amount0 */\n              dup14\n                /* \"bitlime-core/contracts/BitlimeV2Pair.sol\":6966:6979  _safeTransfer */\n              tag_125\n                /* \"bitlime-core/contracts/BitlimeV2Pair.sol\":6966:7001  _safeTransfer(_token0, to, amount0) */\n              jump\t// in\n            tag_220:\n                /* \"bitlime-core/contracts/BitlimeV2Pair.sol\":7012:7047  _safeTransfer(_token1, to, amount1) */\n              tag_221\n                /* \"bitlime-core/contracts/BitlimeV2Pair.sol\":7026:7033  _token1 */\n              dup7\n                /* \"bitlime-core/contracts/BitlimeV2Pair.sol\":7035:7037  to */\n              dup14\n                /* \"bitlime-core/contracts/BitlimeV2Pair.sol\":7039:7046  amount1 */\n              dup13\n                /* \"bitlime-core/contracts/BitlimeV2Pair.sol\":7012:7025  _safeTransfer */\n              tag_125\n                /* \"bitlime-core/contracts/BitlimeV2Pair.sol\":7012:7047  _safeTransfer(_token1, to, amount1) */\n              jump\t// in\n            tag_221:\n                /* \"bitlime-core/contracts/BitlimeV2Pair.sol\":7069:7109  IERC20(_token0).balanceOf(address(this)) */\n              0x40\n              dup1\n              mload\n              shl(0xe0, 0x70a08231)\n              dup2\n              mstore\n                /* \"bitlime-core/contracts/BitlimeV2Pair.sol\":7103:7107  this */\n              address\n                /* \"bitlime-core/contracts/BitlimeV2Pair.sol\":7069:7109  IERC20(_token0).balanceOf(address(this)) */\n              0x04\n              dup3\n              add\n              mstore\n              swap1\n              mload\n              sub(shl(0xa0, 0x01), 0x01)\n                /* \"bitlime-core/contracts/BitlimeV2Pair.sol\":7069:7094  IERC20(_token0).balanceOf */\n              dup10\n              and\n              swap2\n              0x70a08231\n              swap2\n                /* \"bitlime-core/contracts/BitlimeV2Pair.sol\":7069:7109  IERC20(_token0).balanceOf(address(this)) */\n              0x24\n              dup1\n              dup4\n              add\n              swap3\n              0x20\n              swap3\n              swap2\n              swap1\n              dup3\n              swap1\n              sub\n              add\n              dup2\n                /* \"bitlime-core/contracts/BitlimeV2Pair.sol\":7069:7094  IERC20(_token0).balanceOf */\n              dup7\n                /* \"bitlime-core/contracts/BitlimeV2Pair.sol\":7069:7109  IERC20(_token0).balanceOf(address(this)) */\n              dup1\n              extcodesize\n              iszero\n                /* \"--CODEGEN--\":5:7   */\n              dup1\n              iszero\n              tag_222\n              jumpi\n                /* \"--CODEGEN--\":30:31   */\n              0x00\n                /* \"--CODEGEN--\":27:28   */\n              dup1\n                /* \"--CODEGEN--\":20:32   */\n              revert\n                /* \"--CODEGEN--\":5:7   */\n            tag_222:\n                /* \"bitlime-core/contracts/BitlimeV2Pair.sol\":7069:7109  IERC20(_token0).balanceOf(address(this)) */\n              pop\n              gas\n              staticcall\n              iszero\n                /* \"--CODEGEN--\":8:17   */\n              dup1\n                /* \"--CODEGEN--\":5:7   */\n              iszero\n              tag_223\n              jumpi\n                /* \"--CODEGEN--\":45:61   */\n              returndatasize\n                /* \"--CODEGEN--\":42:43   */\n              0x00\n                /* \"--CODEGEN--\":39:40   */\n              dup1\n                /* \"--CODEGEN--\":24:62   */\n              returndatacopy\n                /* \"--CODEGEN--\":77:93   */\n              returndatasize\n                /* \"--CODEGEN--\":74:75   */\n              0x00\n                /* \"--CODEGEN--\":67:94   */\n              revert\n                /* \"--CODEGEN--\":5:7   */\n            tag_223:\n                /* \"bitlime-core/contracts/BitlimeV2Pair.sol\":7069:7109  IERC20(_token0).balanceOf(address(this)) */\n              pop\n              pop\n              pop\n              pop\n              mload(0x40)\n              returndatasize\n                /* \"--CODEGEN--\":13:15   */\n              0x20\n                /* \"--CODEGEN--\":8:11   */\n              dup2\n                /* \"--CODEGEN--\":5:16   */\n              lt\n                /* \"--CODEGEN--\":2:4   */\n              iszero\n              tag_224\n              jumpi\n                /* \"--CODEGEN--\":29:30   */\n              0x00\n                /* \"--CODEGEN--\":26:27   */\n              dup1\n                /* \"--CODEGEN--\":19:31   */\n              revert\n                /* \"--CODEGEN--\":2:4   */\n            tag_224:\n              pop\n                /* \"bitlime-core/contracts/BitlimeV2Pair.sol\":7069:7109  IERC20(_token0).balanceOf(address(this)) */\n              mload\n                /* \"bitlime-core/contracts/BitlimeV2Pair.sol\":7131:7171  IERC20(_token1).balanceOf(address(this)) */\n              0x40\n              dup1\n              mload\n              shl(0xe0, 0x70a08231)\n              dup2\n              mstore\n                /* \"bitlime-core/contracts/BitlimeV2Pair.sol\":7165:7169  this */\n              address\n                /* \"bitlime-core/contracts/BitlimeV2Pair.sol\":7131:7171  IERC20(_token1).balanceOf(address(this)) */\n              0x04\n              dup3\n              add\n              mstore\n              swap1\n              mload\n                /* \"bitlime-core/contracts/BitlimeV2Pair.sol\":7069:7109  IERC20(_token0).balanceOf(address(this)) */\n              swap2\n              swap7\n              pop\n              sub(shl(0xa0, 0x01), 0x01)\n                /* \"bitlime-core/contracts/BitlimeV2Pair.sol\":7131:7156  IERC20(_token1).balanceOf */\n              dup9\n              and\n              swap2\n              0x70a08231\n              swap2\n                /* \"bitlime-core/contracts/BitlimeV2Pair.sol\":7131:7171  IERC20(_token1).balanceOf(address(this)) */\n              0x24\n              dup1\n              dup3\n              add\n              swap3\n                /* \"bitlime-core/contracts/BitlimeV2Pair.sol\":7069:7109  IERC20(_token0).balanceOf(address(this)) */\n              0x20\n              swap3\n                /* \"bitlime-core/contracts/BitlimeV2Pair.sol\":7131:7171  IERC20(_token1).balanceOf(address(this)) */\n              swap1\n              swap2\n              swap1\n              dup3\n              swap1\n              sub\n              add\n              dup2\n                /* \"bitlime-core/contracts/BitlimeV2Pair.sol\":7131:7156  IERC20(_token1).balanceOf */\n              dup7\n                /* \"bitlime-core/contracts/BitlimeV2Pair.sol\":7131:7171  IERC20(_token1).balanceOf(address(this)) */\n              dup1\n              extcodesize\n              iszero\n                /* \"--CODEGEN--\":5:7   */\n              dup1\n              iszero\n              tag_225\n              jumpi\n                /* \"--CODEGEN--\":30:31   */\n              0x00\n                /* \"--CODEGEN--\":27:28   */\n              dup1\n                /* \"--CODEGEN--\":20:32   */\n              revert\n                /* \"--CODEGEN--\":5:7   */\n            tag_225:\n                /* \"bitlime-core/contracts/BitlimeV2Pair.sol\":7131:7171  IERC20(_token1).balanceOf(address(this)) */\n              pop\n              gas\n              staticcall\n              iszero\n                /* \"--CODEGEN--\":8:17   */\n              dup1\n                /* \"--CODEGEN--\":5:7   */\n              iszero\n              tag_226\n              jumpi\n                /* \"--CODEGEN--\":45:61   */\n              returndatasize\n                /* \"--CODEGEN--\":42:43   */\n              0x00\n                /* \"--CODEGEN--\":39:40   */\n              dup1\n                /* \"--CODEGEN--\":24:62   */\n              returndatacopy\n                /* \"--CODEGEN--\":77:93   */\n              returndatasize\n                /* \"--CODEGEN--\":74:75   */\n              0x00\n                /* \"--CODEGEN--\":67:94   */\n              revert\n                /* \"--CODEGEN--\":5:7   */\n            tag_226:\n                /* \"bitlime-core/contracts/BitlimeV2Pair.sol\":7131:7171  IERC20(_token1).balanceOf(address(this)) */\n              pop\n              pop\n              pop\n              pop\n              mload(0x40)\n              returndatasize\n                /* \"--CODEGEN--\":13:15   */\n              0x20\n                /* \"--CODEGEN--\":8:11   */\n              dup2\n                /* \"--CODEGEN--\":5:16   */\n              lt\n                /* \"--CODEGEN--\":2:4   */\n              iszero\n              tag_227\n              jumpi\n                /* \"--CODEGEN--\":29:30   */\n              0x00\n                /* \"--CODEGEN--\":26:27   */\n              dup1\n                /* \"--CODEGEN--\":19:31   */\n              revert\n                /* \"--CODEGEN--\":2:4   */\n            tag_227:\n              pop\n                /* \"bitlime-core/contracts/BitlimeV2Pair.sol\":7131:7171  IERC20(_token1).balanceOf(address(this)) */\n              mload\n              swap4\n              pop\n                /* \"bitlime-core/contracts/BitlimeV2Pair.sol\":7184:7233  _update(balance0, balance1, _reserve0, _reserve1) */\n              tag_228\n                /* \"bitlime-core/contracts/BitlimeV2Pair.sol\":7192:7200  balance0 */\n              dup6\n                /* \"bitlime-core/contracts/BitlimeV2Pair.sol\":7131:7171  IERC20(_token1).balanceOf(address(this)) */\n              dup6\n                /* \"bitlime-core/contracts/BitlimeV2Pair.sol\":7212:7221  _reserve0 */\n              dup12\n                /* \"bitlime-core/contracts/BitlimeV2Pair.sol\":7223:7232  _reserve1 */\n              dup12\n                /* \"bitlime-core/contracts/BitlimeV2Pair.sol\":7184:7191  _update */\n              tag_156\n                /* \"bitlime-core/contracts/BitlimeV2Pair.sol\":7184:7233  _update(balance0, balance1, _reserve0, _reserve1) */\n              jump\t// in\n            tag_228:\n                /* \"bitlime-core/contracts/BitlimeV2Pair.sol\":7248:7253  feeOn */\n              dup2\n                /* \"bitlime-core/contracts/BitlimeV2Pair.sol\":7244:7291  if (feeOn) kLast = uint(reserve0).mul(reserve1) */\n              iszero\n              tag_229\n              jumpi\n                /* \"bitlime-core/contracts/BitlimeV2Pair.sol\":7282:7290  reserve1 */\n              sload(0x08)\n                /* \"bitlime-core/contracts/BitlimeV2Pair.sol\":7263:7291  uint(reserve0).mul(reserve1) */\n              tag_230\n              swap1\n              sub(shl(0x70, 0x01), 0x01)\n                /* \"bitlime-core/contracts/BitlimeV2Pair.sol\":7268:7276  reserve0 */\n              dup1\n              dup3\n              and\n              swap2\n              shl(0x70, 0x01)\n                /* \"bitlime-core/contracts/BitlimeV2Pair.sol\":7282:7290  reserve1 */\n              swap1\n              div\n              and\n                /* \"bitlime-core/contracts/BitlimeV2Pair.sol\":7263:7281  uint(reserve0).mul */\n              tag_145\n                /* \"bitlime-core/contracts/BitlimeV2Pair.sol\":7263:7291  uint(reserve0).mul(reserve1) */\n              jump\t// in\n            tag_230:\n                /* \"bitlime-core/contracts/BitlimeV2Pair.sol\":7255:7260  kLast */\n              0x0b\n                /* \"bitlime-core/contracts/BitlimeV2Pair.sol\":7255:7291  kLast = uint(reserve0).mul(reserve1) */\n              sstore\n                /* \"bitlime-core/contracts/BitlimeV2Pair.sol\":7244:7291  if (feeOn) kLast = uint(reserve0).mul(reserve1) */\n            tag_229:\n                /* \"bitlime-core/contracts/BitlimeV2Pair.sol\":7347:7385  Burn(msg.sender, amount0, amount1, to) */\n              0x40\n              dup1\n              mload\n              dup13\n              dup2\n              mstore\n              0x20\n              dup2\n              add\n              dup13\n              swap1\n              mstore\n              dup2\n              mload\n              sub(shl(0xa0, 0x01), 0x01)\n              dup16\n              and\n              swap3\n                /* \"bitlime-core/contracts/BitlimeV2Pair.sol\":7352:7362  msg.sender */\n              caller\n              swap3\n                /* \"bitlime-core/contracts/BitlimeV2Pair.sol\":7347:7385  Burn(msg.sender, amount0, amount1, to) */\n              0xdccd412f0b1252819cb1fd330b93224ca42612892bb3f4f789976e6d81936496\n              swap3\n              swap1\n              dup2\n              swap1\n              sub\n              swap1\n              swap2\n              add\n              swap1\n              log3\n                /* \"bitlime-core/contracts/BitlimeV2Pair.sol\":1281:1282  _ */\n              pop\n              pop\n              pop\n              pop\n              pop\n              pop\n              pop\n              pop\n              pop\n                /* \"bitlime-core/contracts/BitlimeV2Pair.sol\":1304:1305  1 */\n              0x01\n                /* \"bitlime-core/contracts/BitlimeV2Pair.sol\":1293:1301  unlocked */\n              0x0c\n                /* \"bitlime-core/contracts/BitlimeV2Pair.sol\":1293:1305  unlocked = 1 */\n              dup2\n              swap1\n              sstore\n              pop\n                /* \"bitlime-core/contracts/BitlimeV2Pair.sol\":5927:7393  function burn(address to) external lock returns (uint amount0, uint amount1) {\r... */\n              swap2\n              pop\n              swap2\n              jump\t// out\n                /* \"bitlime-core/contracts/BitlimeV2ERC20.sol\":241:282  string public constant symbol = 'LIME-V2' */\n            tag_88:\n              0x40\n              dup1\n              mload\n              dup1\n              dup3\n              add\n              swap1\n              swap2\n              mstore\n              0x07\n              dup2\n              mstore\n              shl(0xc9, 0x2624a6a296ab19)\n              0x20\n              dup3\n              add\n              mstore\n              dup2\n              jump\t// out\n                /* \"bitlime-core/contracts/BitlimeV2ERC20.sol\":2395:2534  function transfer(address to, uint value) external returns (bool) {\r... */\n            tag_95:\n                /* \"bitlime-core/contracts/BitlimeV2ERC20.sol\":2455:2459  bool */\n              0x00\n                /* \"bitlime-core/contracts/BitlimeV2ERC20.sol\":2472:2504  _transfer(msg.sender, to, value) */\n              tag_159\n                /* \"bitlime-core/contracts/BitlimeV2ERC20.sol\":2482:2492  msg.sender */\n              caller\n                /* \"bitlime-core/contracts/BitlimeV2ERC20.sol\":2494:2496  to */\n              dup5\n                /* \"bitlime-core/contracts/BitlimeV2ERC20.sol\":2498:2503  value */\n              dup5\n                /* \"bitlime-core/contracts/BitlimeV2ERC20.sol\":2472:2481  _transfer */\n              tag_165\n                /* \"bitlime-core/contracts/BitlimeV2ERC20.sol\":2472:2504  _transfer(msg.sender, to, value) */\n              jump\t// in\n                /* \"bitlime-core/contracts/BitlimeV2Pair.sol\":431:477  uint public constant MINIMUM_LIQUIDITY = 10**3 */\n            tag_97:\n                /* \"bitlime-core/contracts/BitlimeV2Pair.sol\":472:477  10**3 */\n              0x03e8\n                /* \"bitlime-core/contracts/BitlimeV2Pair.sol\":431:477  uint public constant MINIMUM_LIQUIDITY = 10**3 */\n              dup2\n              jump\t// out\n                /* \"bitlime-core/contracts/BitlimeV2Pair.sol\":9447:9781  function skim(address to) external lock {\r... */\n            tag_100:\n                /* \"bitlime-core/contracts/BitlimeV2Pair.sol\":1212:1220  unlocked */\n              sload(0x0c)\n                /* \"bitlime-core/contracts/BitlimeV2Pair.sol\":1224:1225  1 */\n              0x01\n                /* \"bitlime-core/contracts/BitlimeV2Pair.sol\":1212:1225  unlocked == 1 */\n              eq\n                /* \"bitlime-core/contracts/BitlimeV2Pair.sol\":1204:1247  require(unlocked == 1, 'BitlimeV2: LOCKED') */\n              tag_234\n              jumpi\n              0x40\n              dup1\n              mload\n              shl(0xe5, 0x461bcd)\n              dup2\n              mstore\n              0x20\n              0x04\n              dup3\n              add\n              mstore\n              0x11\n              0x24\n              dup3\n              add\n              mstore\n              shl(0x7a, 0x109a5d1b1a5b59558c8e881313d0d2d151)\n              0x44\n              dup3\n              add\n              mstore\n              swap1\n              mload\n              swap1\n              dup2\n              swap1\n              sub\n              0x64\n              add\n              swap1\n              revert\n            tag_234:\n                /* \"bitlime-core/contracts/BitlimeV2Pair.sol\":1269:1270  0 */\n              0x00\n                /* \"bitlime-core/contracts/BitlimeV2Pair.sol\":1258:1266  unlocked */\n              0x0c\n                /* \"bitlime-core/contracts/BitlimeV2Pair.sol\":1258:1270  unlocked = 0 */\n              sstore\n                /* \"bitlime-core/contracts/BitlimeV2Pair.sol\":9516:9522  token0 */\n              sload(0x06)\n                /* \"bitlime-core/contracts/BitlimeV2Pair.sol\":9566:9572  token1 */\n              sload(0x07)\n                /* \"bitlime-core/contracts/BitlimeV2Pair.sol\":9670:9678  reserve0 */\n              sload(0x08)\n                /* \"bitlime-core/contracts/BitlimeV2Pair.sol\":9625:9665  IERC20(_token0).balanceOf(address(this)) */\n              0x40\n              dup1\n              mload\n              shl(0xe0, 0x70a08231)\n              dup2\n              mstore\n                /* \"bitlime-core/contracts/BitlimeV2Pair.sol\":9659:9663  this */\n              address\n                /* \"bitlime-core/contracts/BitlimeV2Pair.sol\":9625:9665  IERC20(_token0).balanceOf(address(this)) */\n              0x04\n              dup3\n              add\n              mstore\n              swap1\n              mload\n              sub(shl(0xa0, 0x01), 0x01)\n                /* \"bitlime-core/contracts/BitlimeV2Pair.sol\":9516:9522  token0 */\n              swap5\n              dup6\n              and\n              swap5\n                /* \"bitlime-core/contracts/BitlimeV2Pair.sol\":9566:9572  token1 */\n              swap1\n              swap4\n              and\n              swap3\n                /* \"bitlime-core/contracts/BitlimeV2Pair.sol\":9598:9680  _safeTransfer(_token0, to, IERC20(_token0).balanceOf(address(this)).sub(reserve0)) */\n              tag_236\n              swap3\n                /* \"bitlime-core/contracts/BitlimeV2Pair.sol\":9516:9522  token0 */\n              dup6\n              swap3\n                /* \"bitlime-core/contracts/BitlimeV2Pair.sol\":9621:9623  to */\n              dup8\n              swap3\n                /* \"bitlime-core/contracts/BitlimeV2Pair.sol\":9625:9679  IERC20(_token0).balanceOf(address(this)).sub(reserve0) */\n              tag_237\n              swap3\n              sub(shl(0x70, 0x01), 0x01)\n                /* \"bitlime-core/contracts/BitlimeV2Pair.sol\":9670:9678  reserve0 */\n              and\n              swap2\n                /* \"bitlime-core/contracts/BitlimeV2Pair.sol\":9516:9522  token0 */\n              dup6\n              swap2\n              0x70a08231\n              swap2\n                /* \"bitlime-core/contracts/BitlimeV2Pair.sol\":9625:9665  IERC20(_token0).balanceOf(address(this)) */\n              0x24\n              dup1\n              dup3\n              add\n              swap3\n              0x20\n              swap3\n              swap1\n              swap2\n              swap1\n              dup3\n              swap1\n              sub\n              add\n              dup2\n                /* \"bitlime-core/contracts/BitlimeV2Pair.sol\":9516:9522  token0 */\n              dup7\n                /* \"bitlime-core/contracts/BitlimeV2Pair.sol\":9625:9665  IERC20(_token0).balanceOf(address(this)) */\n              dup1\n              extcodesize\n              iszero\n                /* \"--CODEGEN--\":5:7   */\n              dup1\n              iszero\n              tag_238\n              jumpi\n                /* \"--CODEGEN--\":30:31   */\n              0x00\n                /* \"--CODEGEN--\":27:28   */\n              dup1\n                /* \"--CODEGEN--\":20:32   */\n              revert\n                /* \"--CODEGEN--\":5:7   */\n            tag_238:\n                /* \"bitlime-core/contracts/BitlimeV2Pair.sol\":9625:9665  IERC20(_token0).balanceOf(address(this)) */\n              pop\n              gas\n              staticcall\n              iszero\n                /* \"--CODEGEN--\":8:17   */\n              dup1\n                /* \"--CODEGEN--\":5:7   */\n              iszero\n              tag_239\n              jumpi\n                /* \"--CODEGEN--\":45:61   */\n              returndatasize\n                /* \"--CODEGEN--\":42:43   */\n              0x00\n                /* \"--CODEGEN--\":39:40   */\n              dup1\n                /* \"--CODEGEN--\":24:62   */\n              returndatacopy\n                /* \"--CODEGEN--\":77:93   */\n              returndatasize\n                /* \"--CODEGEN--\":74:75   */\n              0x00\n                /* \"--CODEGEN--\":67:94   */\n              revert\n                /* \"--CODEGEN--\":5:7   */\n            tag_239:\n                /* \"bitlime-core/contracts/BitlimeV2Pair.sol\":9625:9665  IERC20(_token0).balanceOf(address(this)) */\n              pop\n              pop\n              pop\n              pop\n              mload(0x40)\n              returndatasize\n                /* \"--CODEGEN--\":13:15   */\n              0x20\n                /* \"--CODEGEN--\":8:11   */\n              dup2\n                /* \"--CODEGEN--\":5:16   */\n              lt\n                /* \"--CODEGEN--\":2:4   */\n              iszero\n              tag_240\n              jumpi\n                /* \"--CODEGEN--\":29:30   */\n              0x00\n                /* \"--CODEGEN--\":26:27   */\n              dup1\n                /* \"--CODEGEN--\":19:31   */\n              revert\n                /* \"--CODEGEN--\":2:4   */\n            tag_240:\n              pop\n                /* \"bitlime-core/contracts/BitlimeV2Pair.sol\":9625:9665  IERC20(_token0).balanceOf(address(this)) */\n              mload\n              swap1\n                /* \"bitlime-core/contracts/BitlimeV2Pair.sol\":9625:9679  IERC20(_token0).balanceOf(address(this)).sub(reserve0) */\n              0xffffffff\n                /* \"bitlime-core/contracts/BitlimeV2Pair.sol\":9625:9669  IERC20(_token0).balanceOf(address(this)).sub */\n              tag_147\n                /* \"bitlime-core/contracts/BitlimeV2Pair.sol\":9625:9679  IERC20(_token0).balanceOf(address(this)).sub(reserve0) */\n              and\n              jump\t// in\n            tag_237:\n                /* \"bitlime-core/contracts/BitlimeV2Pair.sol\":9598:9611  _safeTransfer */\n              tag_125\n                /* \"bitlime-core/contracts/BitlimeV2Pair.sol\":9598:9680  _safeTransfer(_token0, to, IERC20(_token0).balanceOf(address(this)).sub(reserve0)) */\n              jump\t// in\n            tag_236:\n                /* \"bitlime-core/contracts/BitlimeV2Pair.sol\":9763:9771  reserve1 */\n              sload(0x08)\n                /* \"bitlime-core/contracts/BitlimeV2Pair.sol\":9718:9758  IERC20(_token1).balanceOf(address(this)) */\n              0x40\n              dup1\n              mload\n              shl(0xe0, 0x70a08231)\n              dup2\n              mstore\n                /* \"bitlime-core/contracts/BitlimeV2Pair.sol\":9752:9756  this */\n              address\n                /* \"bitlime-core/contracts/BitlimeV2Pair.sol\":9718:9758  IERC20(_token1).balanceOf(address(this)) */\n              0x04\n              dup3\n              add\n              mstore\n              swap1\n              mload\n                /* \"bitlime-core/contracts/BitlimeV2Pair.sol\":9691:9773  _safeTransfer(_token1, to, IERC20(_token1).balanceOf(address(this)).sub(reserve1)) */\n              tag_241\n              swap3\n                /* \"bitlime-core/contracts/BitlimeV2Pair.sol\":9705:9712  _token1 */\n              dup5\n              swap3\n                /* \"bitlime-core/contracts/BitlimeV2Pair.sol\":9714:9716  to */\n              dup8\n              swap3\n                /* \"bitlime-core/contracts/BitlimeV2Pair.sol\":9718:9772  IERC20(_token1).balanceOf(address(this)).sub(reserve1) */\n              tag_237\n              swap3\n              shl(0x70, 0x01)\n                /* \"bitlime-core/contracts/BitlimeV2Pair.sol\":9763:9771  reserve1 */\n              swap1\n              div\n              sub(shl(0x70, 0x01), 0x01)\n              and\n              swap2\n              sub(shl(0xa0, 0x01), 0x01)\n                /* \"bitlime-core/contracts/BitlimeV2Pair.sol\":9718:9743  IERC20(_token1).balanceOf */\n              dup7\n              and\n              swap2\n              0x70a08231\n              swap2\n                /* \"bitlime-core/contracts/BitlimeV2Pair.sol\":9718:9758  IERC20(_token1).balanceOf(address(this)) */\n              0x24\n              dup1\n              dup3\n              add\n              swap3\n              0x20\n              swap3\n              swap1\n              swap2\n              swap1\n              dup3\n              swap1\n              sub\n              add\n              dup2\n                /* \"bitlime-core/contracts/BitlimeV2Pair.sol\":9718:9743  IERC20(_token1).balanceOf */\n              dup7\n                /* \"bitlime-core/contracts/BitlimeV2Pair.sol\":9718:9758  IERC20(_token1).balanceOf(address(this)) */\n              dup1\n              extcodesize\n              iszero\n                /* \"--CODEGEN--\":5:7   */\n              dup1\n              iszero\n              tag_238\n              jumpi\n                /* \"--CODEGEN--\":30:31   */\n              0x00\n                /* \"--CODEGEN--\":27:28   */\n              dup1\n                /* \"--CODEGEN--\":20:32   */\n              revert\n                /* \"bitlime-core/contracts/BitlimeV2Pair.sol\":9691:9773  _safeTransfer(_token1, to, IERC20(_token1).balanceOf(address(this)).sub(reserve1)) */\n            tag_241:\n              pop\n              pop\n                /* \"bitlime-core/contracts/BitlimeV2Pair.sol\":1304:1305  1 */\n              0x01\n                /* \"bitlime-core/contracts/BitlimeV2Pair.sol\":1293:1301  unlocked */\n              0x0c\n                /* \"bitlime-core/contracts/BitlimeV2Pair.sol\":1293:1305  unlocked = 1 */\n              sstore\n              pop\n                /* \"bitlime-core/contracts/BitlimeV2Pair.sol\":9447:9781  function skim(address to) external lock {\r... */\n              jump\t// out\n                /* \"bitlime-core/contracts/BitlimeV2Pair.sol\":581:603  address public factory */\n            tag_102:\n              and(sub(shl(0xa0, 0x01), 0x01), sload(0x05))\n              dup2\n              jump\t// out\n                /* \"bitlime-core/contracts/BitlimeV2Pair.sol\":638:659  address public token1 */\n            tag_104:\n              and(sub(shl(0xa0, 0x01), 0x01), sload(0x07))\n              dup2\n              jump\t// out\n                /* \"bitlime-core/contracts/BitlimeV2ERC20.sol\":2851:3525  function permit(address owner, address spender, uint value, uint deadline, uint8 v, bytes32 r, bytes32 s) external {\r... */\n            tag_107:\n                /* \"bitlime-core/contracts/BitlimeV2ERC20.sol\":2997:3012  block.timestamp */\n              timestamp\n                /* \"bitlime-core/contracts/BitlimeV2ERC20.sol\":2985:2993  deadline */\n              dup5\n                /* \"bitlime-core/contracts/BitlimeV2ERC20.sol\":2985:3012  deadline >= block.timestamp */\n              lt\n              iszero\n                /* \"bitlime-core/contracts/BitlimeV2ERC20.sol\":2977:3035  require(deadline >= block.timestamp, 'BitlimeV2: EXPIRED') */\n              tag_247\n              jumpi\n              0x40\n              dup1\n              mload\n              shl(0xe5, 0x461bcd)\n              dup2\n              mstore\n              0x20\n              0x04\n              dup3\n              add\n              mstore\n              0x12\n              0x24\n              dup3\n              add\n              mstore\n              shl(0x72, 0x109a5d1b1a5b59558c8e8811561412549151)\n              0x44\n              dup3\n              add\n              mstore\n              swap1\n              mload\n              swap1\n              dup2\n              swap1\n              sub\n              0x64\n              add\n              swap1\n              revert\n            tag_247:\n                /* \"bitlime-core/contracts/BitlimeV2ERC20.sol\":3151:3167  DOMAIN_SEPARATOR */\n              sload(0x03)\n              sub(shl(0xa0, 0x01), 0x01)\n                /* \"bitlime-core/contracts/BitlimeV2ERC20.sol\":3247:3260  nonces[owner] */\n              dup9\n              dup2\n              and\n                /* \"bitlime-core/contracts/BitlimeV2ERC20.sol\":3046:3060  bytes32 digest */\n              0x00\n                /* \"bitlime-core/contracts/BitlimeV2ERC20.sol\":3247:3260  nonces[owner] */\n              dup2\n              dup2\n              mstore\n                /* \"bitlime-core/contracts/BitlimeV2ERC20.sol\":3247:3253  nonces */\n              0x04\n                /* \"bitlime-core/contracts/BitlimeV2ERC20.sol\":3247:3260  nonces[owner] */\n              0x20\n              swap1\n              dup2\n              mstore\n              0x40\n              dup1\n              dup4\n              keccak256\n                /* \"bitlime-core/contracts/BitlimeV2ERC20.sol\":3247:3262  nonces[owner]++ */\n              dup1\n              sload\n              0x01\n              dup2\n              dup2\n              add\n              swap1\n              swap3\n              sstore\n                /* \"bitlime-core/contracts/BitlimeV2ERC20.sol\":3196:3273  abi.encode(PERMIT_TYPEHASH, owner, spender, value, nonces[owner]++, deadline) */\n              dup3\n              mload\n                /* \"bitlime-core/contracts/BitlimeV2ERC20.sol\":665:731  0x6e71edae12b1b97f4d1f60370fef10105fa2faae0126114a169c64845d6126c9 */\n              0x6e71edae12b1b97f4d1f60370fef10105fa2faae0126114a169c64845d6126c9\n                /* \"bitlime-core/contracts/BitlimeV2ERC20.sol\":3196:3273  abi.encode(PERMIT_TYPEHASH, owner, spender, value, nonces[owner]++, deadline) */\n              dup2\n              dup7\n              add\n              mstore\n              dup1\n              dup5\n              add\n              swap7\n              swap1\n              swap7\n              mstore\n              swap6\n              dup14\n              and\n              0x60\n              dup7\n              add\n              mstore\n              0x80\n              dup6\n              add\n              dup13\n              swap1\n              mstore\n              0xa0\n              dup6\n              add\n              swap6\n              swap1\n              swap6\n              mstore\n              0xc0\n              dup1\n              dup6\n              add\n              dup12\n              swap1\n              mstore\n              dup2\n              mload\n                /* \"--CODEGEN--\":26:47   */\n              dup1\n              dup7\n              sub\n                /* \"--CODEGEN--\":22:54   */\n              swap1\n              swap2\n              add\n                /* \"--CODEGEN--\":6:55   */\n              dup2\n              mstore\n                /* \"bitlime-core/contracts/BitlimeV2ERC20.sol\":3196:3273  abi.encode(PERMIT_TYPEHASH, owner, spender, value, nonces[owner]++, deadline) */\n              0xe0\n              dup6\n              add\n              dup3\n              mstore\n                /* \"bitlime-core/contracts/BitlimeV2ERC20.sol\":3186:3274  keccak256(abi.encode(PERMIT_TYPEHASH, owner, spender, value, nonces[owner]++, deadline)) */\n              dup1\n              mload\n              swap1\n              dup4\n              add\n              keccak256\n              shl(0xf0, 0x1901)\n                /* \"bitlime-core/contracts/BitlimeV2ERC20.sol\":3087:3289  abi.encodePacked(\r... */\n              0x0100\n              dup7\n              add\n              mstore\n              0x0102\n              dup6\n              add\n              swap7\n              swap1\n              swap7\n              mstore\n              0x0122\n              dup1\n              dup6\n              add\n              swap7\n              swap1\n              swap7\n              mstore\n              dup1\n              mload\n                /* \"--CODEGEN--\":26:47   */\n              dup1\n              dup6\n              sub\n                /* \"--CODEGEN--\":22:54   */\n              swap1\n              swap7\n              add\n                /* \"--CODEGEN--\":6:55   */\n              dup7\n              mstore\n                /* \"bitlime-core/contracts/BitlimeV2ERC20.sol\":3087:3289  abi.encodePacked(\r... */\n              0x0142\n              dup5\n              add\n              dup1\n              dup3\n              mstore\n                /* \"bitlime-core/contracts/BitlimeV2ERC20.sol\":3063:3300  keccak256(\r... */\n              dup7\n              mload\n              swap7\n              dup4\n              add\n              swap7\n              swap1\n              swap7\n              keccak256\n                /* \"bitlime-core/contracts/BitlimeV2ERC20.sol\":3338:3364  ecrecover(digest, v, r, s) */\n              swap6\n              dup4\n              swap1\n              mstore\n              0x0162\n              dup5\n              add\n              dup1\n              dup3\n              mstore\n              dup7\n              swap1\n              mstore\n              0xff\n              dup10\n              and\n              0x0182\n              dup6\n              add\n              mstore\n              0x01a2\n              dup5\n              add\n              dup9\n              swap1\n              mstore\n              0x01c2\n              dup5\n              add\n              dup8\n              swap1\n              mstore\n              mload\n                /* \"bitlime-core/contracts/BitlimeV2ERC20.sol\":3046:3060  bytes32 digest */\n              swap2\n              swap4\n              swap3\n                /* \"bitlime-core/contracts/BitlimeV2ERC20.sol\":3338:3364  ecrecover(digest, v, r, s) */\n              0x01e2\n              dup1\n              dup3\n              add\n              swap4\n              not(0x1f)\n              dup2\n              add\n              swap3\n              dup2\n              swap1\n              sub\n              swap1\n              swap2\n              add\n              swap1\n              dup6\n              gas\n              staticcall\n              iszero\n                /* \"--CODEGEN--\":8:17   */\n              dup1\n                /* \"--CODEGEN--\":5:7   */\n              iszero\n              tag_248\n              jumpi\n                /* \"--CODEGEN--\":45:61   */\n              returndatasize\n                /* \"--CODEGEN--\":42:43   */\n              0x00\n                /* \"--CODEGEN--\":39:40   */\n              dup1\n                /* \"--CODEGEN--\":24:62   */\n              returndatacopy\n                /* \"--CODEGEN--\":77:93   */\n              returndatasize\n                /* \"--CODEGEN--\":74:75   */\n              0x00\n                /* \"--CODEGEN--\":67:94   */\n              revert\n                /* \"--CODEGEN--\":5:7   */\n            tag_248:\n              pop\n              pop\n                /* \"bitlime-core/contracts/BitlimeV2ERC20.sol\":3338:3364  ecrecover(digest, v, r, s) */\n              mload(add(not(0x1f), mload(0x40)))\n              swap2\n              pop\n              pop\n              sub(shl(0xa0, 0x01), 0x01)\n                /* \"bitlime-core/contracts/BitlimeV2ERC20.sol\":3383:3413  recoveredAddress != address(0) */\n              dup2\n              and\n              iszero\n              dup1\n              iszero\n              swap1\n                /* \"bitlime-core/contracts/BitlimeV2ERC20.sol\":3383:3442  recoveredAddress != address(0) && recoveredAddress == owner */\n              tag_249\n              jumpi\n              pop\n              sub(shl(0xa0, 0x01), 0x01)\n                /* \"bitlime-core/contracts/BitlimeV2ERC20.sol\":3417:3442  recoveredAddress == owner */\n              dup2\n              dup2\n              and\n              swap1\n              dup11\n              and\n              eq\n                /* \"bitlime-core/contracts/BitlimeV2ERC20.sol\":3383:3442  recoveredAddress != address(0) && recoveredAddress == owner */\n            tag_249:\n                /* \"bitlime-core/contracts/BitlimeV2ERC20.sol\":3375:3475  require(recoveredAddress != address(0) && recoveredAddress == owner, 'BitlimeV2: INVALID_SIGNATURE') */\n              tag_250\n              jumpi\n              0x40\n              dup1\n              mload\n              shl(0xe5, 0x461bcd)\n              dup2\n              mstore\n              0x20\n              0x04\n              dup3\n              add\n              mstore\n              0x1c\n              0x24\n              dup3\n              add\n              mstore\n              0x4269746c696d6556323a20494e56414c49445f5349474e415455524500000000\n              0x44\n              dup3\n              add\n              mstore\n              swap1\n              mload\n              swap1\n              dup2\n              swap1\n              sub\n              0x64\n              add\n              swap1\n              revert\n            tag_250:\n                /* \"bitlime-core/contracts/BitlimeV2ERC20.sol\":3486:3517  _approve(owner, spender, value) */\n              tag_251\n                /* \"bitlime-core/contracts/BitlimeV2ERC20.sol\":3495:3500  owner */\n              dup10\n                /* \"bitlime-core/contracts/BitlimeV2ERC20.sol\":3502:3509  spender */\n              dup10\n                /* \"bitlime-core/contracts/BitlimeV2ERC20.sol\":3511:3516  value */\n              dup10\n                /* \"bitlime-core/contracts/BitlimeV2ERC20.sol\":3486:3494  _approve */\n              tag_160\n                /* \"bitlime-core/contracts/BitlimeV2ERC20.sol\":3486:3517  _approve(owner, spender, value) */\n              jump\t// in\n            tag_251:\n                /* \"bitlime-core/contracts/BitlimeV2ERC20.sol\":2851:3525  function permit(address owner, address spender, uint value, uint deadline, uint8 v, bytes32 r, bytes32 s) external {\r... */\n              pop\n              pop\n              pop\n              pop\n              pop\n              pop\n              pop\n              pop\n              pop\n              jump\t// out\n                /* \"bitlime-core/contracts/BitlimeV2ERC20.sol\":410:471  mapping(address => mapping(address => uint)) public allowance */\n            tag_110:\n              0x02\n              0x20\n              swap1\n              dup2\n              mstore\n              0x00\n              swap3\n              dup4\n              mstore\n              0x40\n              dup1\n              dup5\n              keccak256\n              swap1\n              swap2\n              mstore\n              swap1\n              dup3\n              mstore\n              swap1\n              keccak256\n              sload\n              dup2\n              jump\t// out\n                /* \"bitlime-core/contracts/BitlimeV2Pair.sol\":9830:9988  function sync() external lock {\r... */\n            tag_112:\n                /* \"bitlime-core/contracts/BitlimeV2Pair.sol\":1212:1220  unlocked */\n              sload(0x0c)\n                /* \"bitlime-core/contracts/BitlimeV2Pair.sol\":1224:1225  1 */\n              0x01\n                /* \"bitlime-core/contracts/BitlimeV2Pair.sol\":1212:1225  unlocked == 1 */\n              eq\n                /* \"bitlime-core/contracts/BitlimeV2Pair.sol\":1204:1247  require(unlocked == 1, 'BitlimeV2: LOCKED') */\n              tag_253\n              jumpi\n              0x40\n              dup1\n              mload\n              shl(0xe5, 0x461bcd)\n              dup2\n              mstore\n              0x20\n              0x04\n              dup3\n              add\n              mstore\n              0x11\n              0x24\n              dup3\n              add\n              mstore\n              shl(0x7a, 0x109a5d1b1a5b59558c8e881313d0d2d151)\n              0x44\n              dup3\n              add\n              mstore\n              swap1\n              mload\n              swap1\n              dup2\n              swap1\n              sub\n              0x64\n              add\n              swap1\n              revert\n            tag_253:\n                /* \"bitlime-core/contracts/BitlimeV2Pair.sol\":1269:1270  0 */\n              0x00\n                /* \"bitlime-core/contracts/BitlimeV2Pair.sol\":1258:1266  unlocked */\n              0x0c\n                /* \"bitlime-core/contracts/BitlimeV2Pair.sol\":1258:1270  unlocked = 0 */\n              sstore\n                /* \"bitlime-core/contracts/BitlimeV2Pair.sol\":9886:9892  token0 */\n              sload(0x06)\n                /* \"bitlime-core/contracts/BitlimeV2Pair.sol\":9879:9918  IERC20(token0).balanceOf(address(this)) */\n              0x40\n              dup1\n              mload\n              shl(0xe0, 0x70a08231)\n              dup2\n              mstore\n                /* \"bitlime-core/contracts/BitlimeV2Pair.sol\":9912:9916  this */\n              address\n                /* \"bitlime-core/contracts/BitlimeV2Pair.sol\":9879:9918  IERC20(token0).balanceOf(address(this)) */\n              0x04\n              dup3\n              add\n              mstore\n              swap1\n              mload\n                /* \"bitlime-core/contracts/BitlimeV2Pair.sol\":9871:9980  _update(IERC20(token0).balanceOf(address(this)), IERC20(token1).balanceOf(address(this)), reserve0, reserve1) */\n              tag_255\n              swap3\n              sub(shl(0xa0, 0x01), 0x01)\n                /* \"bitlime-core/contracts/BitlimeV2Pair.sol\":9886:9892  token0 */\n              and\n              swap2\n              0x70a08231\n              swap2\n                /* \"bitlime-core/contracts/BitlimeV2Pair.sol\":9879:9918  IERC20(token0).balanceOf(address(this)) */\n              0x24\n              dup1\n              dup4\n              add\n              swap3\n              0x20\n              swap3\n              swap2\n              swap1\n              dup3\n              swap1\n              sub\n              add\n              dup2\n                /* \"bitlime-core/contracts/BitlimeV2Pair.sol\":9886:9892  token0 */\n              dup7\n                /* \"bitlime-core/contracts/BitlimeV2Pair.sol\":9879:9918  IERC20(token0).balanceOf(address(this)) */\n              dup1\n              extcodesize\n              iszero\n                /* \"--CODEGEN--\":5:7   */\n              dup1\n              iszero\n              tag_256\n              jumpi\n                /* \"--CODEGEN--\":30:31   */\n              0x00\n                /* \"--CODEGEN--\":27:28   */\n              dup1\n                /* \"--CODEGEN--\":20:32   */\n              revert\n                /* \"--CODEGEN--\":5:7   */\n            tag_256:\n                /* \"bitlime-core/contracts/BitlimeV2Pair.sol\":9879:9918  IERC20(token0).balanceOf(address(this)) */\n              pop\n              gas\n              staticcall\n              iszero\n                /* \"--CODEGEN--\":8:17   */\n              dup1\n                /* \"--CODEGEN--\":5:7   */\n              iszero\n              tag_257\n              jumpi\n                /* \"--CODEGEN--\":45:61   */\n              returndatasize\n                /* \"--CODEGEN--\":42:43   */\n              0x00\n                /* \"--CODEGEN--\":39:40   */\n              dup1\n                /* \"--CODEGEN--\":24:62   */\n              returndatacopy\n                /* \"--CODEGEN--\":77:93   */\n              returndatasize\n                /* \"--CODEGEN--\":74:75   */\n              0x00\n                /* \"--CODEGEN--\":67:94   */\n              revert\n                /* \"--CODEGEN--\":5:7   */\n            tag_257:\n                /* \"bitlime-core/contracts/BitlimeV2Pair.sol\":9879:9918  IERC20(token0).balanceOf(address(this)) */\n              pop\n              pop\n              pop\n              pop\n              mload(0x40)\n              returndatasize\n                /* \"--CODEGEN--\":13:15   */\n              0x20\n                /* \"--CODEGEN--\":8:11   */\n              dup2\n                /* \"--CODEGEN--\":5:16   */\n              lt\n                /* \"--CODEGEN--\":2:4   */\n              iszero\n              tag_258\n              jumpi\n                /* \"--CODEGEN--\":29:30   */\n              0x00\n                /* \"--CODEGEN--\":26:27   */\n              dup1\n                /* \"--CODEGEN--\":19:31   */\n              revert\n                /* \"--CODEGEN--\":2:4   */\n            tag_258:\n              pop\n                /* \"bitlime-core/contracts/BitlimeV2Pair.sol\":9879:9918  IERC20(token0).balanceOf(address(this)) */\n              mload\n                /* \"bitlime-core/contracts/BitlimeV2Pair.sol\":9927:9933  token1 */\n              sload(0x07)\n                /* \"bitlime-core/contracts/BitlimeV2Pair.sol\":9920:9959  IERC20(token1).balanceOf(address(this)) */\n              0x40\n              dup1\n              mload\n              shl(0xe0, 0x70a08231)\n              dup2\n              mstore\n                /* \"bitlime-core/contracts/BitlimeV2Pair.sol\":9953:9957  this */\n              address\n                /* \"bitlime-core/contracts/BitlimeV2Pair.sol\":9920:9959  IERC20(token1).balanceOf(address(this)) */\n              0x04\n              dup3\n              add\n              mstore\n              swap1\n              mload\n              sub(shl(0xa0, 0x01), 0x01)\n                /* \"bitlime-core/contracts/BitlimeV2Pair.sol\":9927:9933  token1 */\n              swap1\n              swap3\n              and\n              swap2\n              0x70a08231\n              swap2\n                /* \"bitlime-core/contracts/BitlimeV2Pair.sol\":9920:9959  IERC20(token1).balanceOf(address(this)) */\n              0x24\n              dup1\n              dup3\n              add\n              swap3\n                /* \"bitlime-core/contracts/BitlimeV2Pair.sol\":9879:9918  IERC20(token0).balanceOf(address(this)) */\n              0x20\n              swap3\n                /* \"bitlime-core/contracts/BitlimeV2Pair.sol\":9920:9959  IERC20(token1).balanceOf(address(this)) */\n              swap1\n              swap2\n              swap1\n              dup3\n              swap1\n              sub\n              add\n              dup2\n                /* \"bitlime-core/contracts/BitlimeV2Pair.sol\":9927:9933  token1 */\n              dup7\n                /* \"bitlime-core/contracts/BitlimeV2Pair.sol\":9920:9959  IERC20(token1).balanceOf(address(this)) */\n              dup1\n              extcodesize\n              iszero\n                /* \"--CODEGEN--\":5:7   */\n              dup1\n              iszero\n              tag_259\n              jumpi\n                /* \"--CODEGEN--\":30:31   */\n              0x00\n                /* \"--CODEGEN--\":27:28   */\n              dup1\n                /* \"--CODEGEN--\":20:32   */\n              revert\n                /* \"--CODEGEN--\":5:7   */\n            tag_259:\n                /* \"bitlime-core/contracts/BitlimeV2Pair.sol\":9920:9959  IERC20(token1).balanceOf(address(this)) */\n              pop\n              gas\n              staticcall\n              iszero\n                /* \"--CODEGEN--\":8:17   */\n              dup1\n                /* \"--CODEGEN--\":5:7   */\n              iszero\n              tag_260\n              jumpi\n                /* \"--CODEGEN--\":45:61   */\n              returndatasize\n                /* \"--CODEGEN--\":42:43   */\n              0x00\n                /* \"--CODEGEN--\":39:40   */\n              dup1\n                /* \"--CODEGEN--\":24:62   */\n              returndatacopy\n                /* \"--CODEGEN--\":77:93   */\n              returndatasize\n                /* \"--CODEGEN--\":74:75   */\n              0x00\n                /* \"--CODEGEN--\":67:94   */\n              revert\n                /* \"--CODEGEN--\":5:7   */\n            tag_260:\n                /* \"bitlime-core/contracts/BitlimeV2Pair.sol\":9920:9959  IERC20(token1).balanceOf(address(this)) */\n              pop\n              pop\n              pop\n              pop\n              mload(0x40)\n              returndatasize\n                /* \"--CODEGEN--\":13:15   */\n              0x20\n                /* \"--CODEGEN--\":8:11   */\n              dup2\n                /* \"--CODEGEN--\":5:16   */\n              lt\n                /* \"--CODEGEN--\":2:4   */\n              iszero\n              tag_261\n              jumpi\n                /* \"--CODEGEN--\":29:30   */\n              0x00\n                /* \"--CODEGEN--\":26:27   */\n              dup1\n                /* \"--CODEGEN--\":19:31   */\n              revert\n                /* \"--CODEGEN--\":2:4   */\n            tag_261:\n              pop\n                /* \"bitlime-core/contracts/BitlimeV2Pair.sol\":9920:9959  IERC20(token1).balanceOf(address(this)) */\n              mload\n                /* \"bitlime-core/contracts/BitlimeV2Pair.sol\":9961:9969  reserve0 */\n              sload(0x08)\n              sub(shl(0x70, 0x01), 0x01)\n              dup1\n              dup3\n              and\n              swap2\n              shl(0x70, 0x01)\n                /* \"bitlime-core/contracts/BitlimeV2Pair.sol\":9971:9979  reserve1 */\n              swap1\n              div\n              and\n                /* \"bitlime-core/contracts/BitlimeV2Pair.sol\":9871:9878  _update */\n              tag_156\n                /* \"bitlime-core/contracts/BitlimeV2Pair.sol\":9871:9980  _update(IERC20(token0).balanceOf(address(this)), IERC20(token1).balanceOf(address(this)), reserve0, reserve1) */\n              jump\t// in\n            tag_255:\n                /* \"bitlime-core/contracts/BitlimeV2Pair.sol\":1304:1305  1 */\n              0x01\n                /* \"bitlime-core/contracts/BitlimeV2Pair.sol\":1293:1301  unlocked */\n              0x0c\n                /* \"bitlime-core/contracts/BitlimeV2Pair.sol\":1293:1305  unlocked = 1 */\n              sstore\n                /* \"bitlime-core/contracts/BitlimeV2Pair.sol\":9830:9988  function sync() external lock {\r... */\n              jump\t// out\n                /* \"bitlime-core/contracts/BitlimeV2Pair.sol\":1560:1847  function _safeTransfer(address token, address to, uint value) private {\r... */\n            tag_125:\n                /* \"bitlime-core/contracts/BitlimeV2Pair.sol\":536:570  bytes('transfer(address,uint256)') */\n              0x40\n              dup1\n              mload\n              dup1\n              dup3\n              add\n              dup3\n              mstore\n              0x19\n              dup2\n              mstore\n              0x7472616e7366657228616464726573732c75696e743235362900000000000000\n              0x20\n              swap2\n              dup3\n              add\n              mstore\n                /* \"bitlime-core/contracts/BitlimeV2Pair.sol\":1688:1731  abi.encodeWithSelector(SELECTOR, to, value) */\n              dup2\n              mload\n              sub(shl(0xa0, 0x01), 0x01)\n              dup6\n              dup2\n              and\n              0x24\n              dup4\n              add\n              mstore\n              0x44\n              dup1\n              dup4\n              add\n              dup7\n              swap1\n              mstore\n              dup5\n              mload\n                /* \"--CODEGEN--\":26:47   */\n              dup1\n              dup5\n              sub\n                /* \"--CODEGEN--\":22:54   */\n              swap1\n              swap2\n              add\n                /* \"--CODEGEN--\":6:55   */\n              dup2\n              mstore\n                /* \"bitlime-core/contracts/BitlimeV2Pair.sol\":1688:1731  abi.encodeWithSelector(SELECTOR, to, value) */\n              0x64\n              swap1\n              swap3\n              add\n              dup5\n              mstore\n                /* \"--CODEGEN--\":25:43   */\n              swap2\n              dup2\n              add\n                /* \"--CODEGEN--\":61:78   */\n              dup1\n              mload\n              sub(shl(0xe0, 0x01), 0x01)\n                /* \"--CODEGEN--\":182:197   */\n              and\n              shl(0xe0, 0xa9059cbb)\n                /* \"--CODEGEN--\":179:208   */\n              or\n                /* \"--CODEGEN--\":160:209   */\n              dup2\n              mstore\n                /* \"bitlime-core/contracts/BitlimeV2Pair.sol\":1677:1732  token.call(abi.encodeWithSelector(SELECTOR, to, value)) */\n              swap3\n              mload\n              dup2\n              mload\n              0x00\n              swap5\n                /* \"bitlime-core/contracts/BitlimeV2Pair.sol\":1656:1673  bytes memory data */\n              0x60\n              swap5\n                /* \"bitlime-core/contracts/BitlimeV2Pair.sol\":1677:1687  token.call */\n              dup10\n              and\n              swap4\n                /* \"bitlime-core/contracts/BitlimeV2Pair.sol\":1688:1731  abi.encodeWithSelector(SELECTOR, to, value) */\n              swap3\n                /* \"bitlime-core/contracts/BitlimeV2Pair.sol\":1677:1732  token.call(abi.encodeWithSelector(SELECTOR, to, value)) */\n              swap2\n              dup3\n              swap2\n                /* \"--CODEGEN--\":25:43   */\n              swap1\n                /* \"bitlime-core/contracts/BitlimeV2Pair.sol\":1677:1732  token.call(abi.encodeWithSelector(SELECTOR, to, value)) */\n              dup1\n              dup4\n                /* \"--CODEGEN--\":25:43   */\n              dup4\n                /* \"--CODEGEN--\":36:189   */\n            tag_263:\n                /* \"--CODEGEN--\":66:68   */\n              0x20\n                /* \"--CODEGEN--\":61:64   */\n              dup4\n                /* \"--CODEGEN--\":58:69   */\n              lt\n                /* \"--CODEGEN--\":36:189   */\n              tag_265\n              jumpi\n                /* \"--CODEGEN--\":176:186   */\n              dup1\n              mload\n                /* \"--CODEGEN--\":164:187   */\n              dup3\n              mstore\n              not(0x1f)\n                /* \"--CODEGEN--\":139:151   */\n              swap1\n              swap3\n              add\n              swap2\n                /* \"--CODEGEN--\":98:100   */\n              0x20\n                /* \"--CODEGEN--\":89:101   */\n              swap2\n              dup3\n              add\n              swap2\n                /* \"--CODEGEN--\":114:126   */\n              add\n                /* \"--CODEGEN--\":36:189   */\n              jump(tag_263)\n            tag_265:\n                /* \"--CODEGEN--\":274:275   */\n              0x01\n                /* \"--CODEGEN--\":267:270   */\n              dup4\n                /* \"--CODEGEN--\":263:265   */\n              0x20\n                /* \"--CODEGEN--\":259:271   */\n              sub\n                /* \"--CODEGEN--\":254:257   */\n              0x0100\n                /* \"--CODEGEN--\":250:272   */\n              exp\n                /* \"--CODEGEN--\":246:276   */\n              sub\n                /* \"--CODEGEN--\":315:319   */\n              dup1\n                /* \"--CODEGEN--\":311:320   */\n              not\n                /* \"--CODEGEN--\":305:308   */\n              dup3\n                /* \"--CODEGEN--\":299:309   */\n              mload\n                /* \"--CODEGEN--\":295:321   */\n              and\n                /* \"--CODEGEN--\":356:360   */\n              dup2\n                /* \"--CODEGEN--\":350:353   */\n              dup5\n                /* \"--CODEGEN--\":344:354   */\n              mload\n                /* \"--CODEGEN--\":340:361   */\n              and\n                /* \"--CODEGEN--\":389:396   */\n              dup1\n                /* \"--CODEGEN--\":380:387   */\n              dup3\n                /* \"--CODEGEN--\":377:397   */\n              or\n                /* \"--CODEGEN--\":372:375   */\n              dup6\n                /* \"--CODEGEN--\":365:398   */\n              mstore\n                /* \"--CODEGEN--\":3:402   */\n              pop\n              pop\n              pop\n                /* \"bitlime-core/contracts/BitlimeV2Pair.sol\":1677:1732  token.call(abi.encodeWithSelector(SELECTOR, to, value)) */\n              pop\n              pop\n              pop\n              swap1\n              pop\n              add\n              swap2\n              pop\n              pop\n              0x00\n              mload(0x40)\n              dup1\n              dup4\n              sub\n              dup2\n              0x00\n              dup7\n              gas\n              call\n              swap2\n              pop\n              pop\n              returndatasize\n                /* \"--CODEGEN--\":14:15   */\n              dup1\n                /* \"--CODEGEN--\":21:22   */\n              0x00\n                /* \"--CODEGEN--\":16:47   */\n              dup2\n              eq\n              tag_267\n              jumpi\n                /* \"--CODEGEN--\":75:79   */\n              0x40\n                /* \"--CODEGEN--\":69:80   */\n              mload\n                /* \"--CODEGEN--\":64:80   */\n              swap2\n              pop\n                /* \"--CODEGEN--\":144:148   */\n              0x1f\n                /* \"--CODEGEN--\":140:149   */\n              not\n                /* \"--CODEGEN--\":133:137   */\n              0x3f\n                /* \"--CODEGEN--\":115:131   */\n              returndatasize\n                /* \"--CODEGEN--\":111:138   */\n              add\n                /* \"--CODEGEN--\":107:150   */\n              and\n                /* \"--CODEGEN--\":104:105   */\n              dup3\n                /* \"--CODEGEN--\":100:151   */\n              add\n                /* \"--CODEGEN--\":94:98   */\n              0x40\n                /* \"--CODEGEN--\":87:152   */\n              mstore\n                /* \"--CODEGEN--\":169:185   */\n              returndatasize\n                /* \"--CODEGEN--\":166:167   */\n              dup3\n                /* \"--CODEGEN--\":159:186   */\n              mstore\n                /* \"--CODEGEN--\":225:241   */\n              returndatasize\n                /* \"--CODEGEN--\":222:223   */\n              0x00\n                /* \"--CODEGEN--\":215:219   */\n              0x20\n                /* \"--CODEGEN--\":212:213   */\n              dup5\n                /* \"--CODEGEN--\":208:220   */\n              add\n                /* \"--CODEGEN--\":193:242   */\n              returndatacopy\n                /* \"--CODEGEN--\":7:249   */\n              jump(tag_266)\n                /* \"--CODEGEN--\":16:47   */\n            tag_267:\n                /* \"--CODEGEN--\":36:40   */\n              0x60\n                /* \"--CODEGEN--\":31:40   */\n              swap2\n              pop\n                /* \"--CODEGEN--\":7:249   */\n            tag_266:\n              pop\n                /* \"bitlime-core/contracts/BitlimeV2Pair.sol\":1641:1732  (bool success, bytes memory data) = token.call(abi.encodeWithSelector(SELECTOR, to, value)) */\n              swap2\n              pop\n              swap2\n              pop\n                /* \"bitlime-core/contracts/BitlimeV2Pair.sol\":1751:1758  success */\n              dup2\n                /* \"bitlime-core/contracts/BitlimeV2Pair.sol\":1751:1808  success && (data.length == 0 || abi.decode(data, (bool))) */\n              dup1\n              iszero\n              tag_269\n              jumpi\n              pop\n                /* \"bitlime-core/contracts/BitlimeV2Pair.sol\":1763:1774  data.length */\n              dup1\n              mload\n                /* \"bitlime-core/contracts/BitlimeV2Pair.sol\":1763:1779  data.length == 0 */\n              iszero\n              dup1\n                /* \"bitlime-core/contracts/BitlimeV2Pair.sol\":1763:1807  data.length == 0 || abi.decode(data, (bool)) */\n              tag_269\n              jumpi\n              pop\n                /* \"bitlime-core/contracts/BitlimeV2Pair.sol\":1794:1798  data */\n              dup1\n                /* \"bitlime-core/contracts/BitlimeV2Pair.sol\":1783:1807  abi.decode(data, (bool)) */\n              dup1\n              0x20\n              add\n              swap1\n              mload\n                /* \"--CODEGEN--\":13:15   */\n              0x20\n                /* \"--CODEGEN--\":8:11   */\n              dup2\n                /* \"--CODEGEN--\":5:16   */\n              lt\n                /* \"--CODEGEN--\":2:4   */\n              iszero\n              tag_270\n              jumpi\n                /* \"--CODEGEN--\":29:30   */\n              0x00\n                /* \"--CODEGEN--\":26:27   */\n              dup1\n                /* \"--CODEGEN--\":19:31   */\n              revert\n                /* \"--CODEGEN--\":2:4   */\n            tag_270:\n              pop\n                /* \"bitlime-core/contracts/BitlimeV2Pair.sol\":1783:1807  abi.decode(data, (bool)) */\n              mload\n                /* \"bitlime-core/contracts/BitlimeV2Pair.sol\":1763:1807  data.length == 0 || abi.decode(data, (bool)) */\n            tag_269:\n                /* \"bitlime-core/contracts/BitlimeV2Pair.sol\":1743:1839  require(success && (data.length == 0 || abi.decode(data, (bool))), 'BitlimeV2: TRANSFER_FAILED') */\n              tag_271\n              jumpi\n              0x40\n              dup1\n              mload\n              shl(0xe5, 0x461bcd)\n              dup2\n              mstore\n              0x20\n              0x04\n              dup3\n              add\n              mstore\n              0x1a\n              0x24\n              dup3\n              add\n              mstore\n              0x4269746c696d6556323a205452414e534645525f4641494c4544000000000000\n              0x44\n              dup3\n              add\n              mstore\n              swap1\n              mload\n              swap1\n              dup2\n              swap1\n              sub\n              0x64\n              add\n              swap1\n              revert\n            tag_271:\n                /* \"bitlime-core/contracts/BitlimeV2Pair.sol\":1560:1847  function _safeTransfer(address token, address to, uint value) private {\r... */\n              pop\n              pop\n              pop\n              pop\n              pop\n              jump\t// out\n                /* \"bitlime-core/contracts/libraries/SafeMath.sol\":433:575  function mul(uint x, uint y) internal pure returns (uint z) {\r... */\n            tag_145:\n                /* \"bitlime-core/contracts/libraries/SafeMath.sol\":485:491  uint z */\n              0x00\n                /* \"bitlime-core/contracts/libraries/SafeMath.sol\":512:518  y == 0 */\n              dup2\n              iszero\n              dup1\n                /* \"bitlime-core/contracts/libraries/SafeMath.sol\":512:542  y == 0 || (z = x * y) / y == x */\n              tag_273\n              jumpi\n              pop\n              pop\n                /* \"bitlime-core/contracts/libraries/SafeMath.sol\":527:532  x * y */\n              dup1\n              dup3\n              mul\n                /* \"bitlime-core/contracts/libraries/SafeMath.sol\":541:542  x */\n              dup3\n                /* \"bitlime-core/contracts/libraries/SafeMath.sol\":536:537  y */\n              dup3\n                /* \"bitlime-core/contracts/libraries/SafeMath.sol\":527:532  x * y */\n              dup3\n                /* \"bitlime-core/contracts/libraries/SafeMath.sol\":536:537  y */\n              dup2\n                /* \"bitlime-core/contracts/libraries/SafeMath.sol\":522:537  (z = x * y) / y */\n              tag_274\n              jumpi\n              invalid\n            tag_274:\n              div\n                /* \"bitlime-core/contracts/libraries/SafeMath.sol\":522:542  (z = x * y) / y == x */\n              eq\n                /* \"bitlime-core/contracts/libraries/SafeMath.sol\":512:542  y == 0 || (z = x * y) / y == x */\n            tag_273:\n                /* \"bitlime-core/contracts/libraries/SafeMath.sol\":504:567  require(y == 0 || (z = x * y) / y == x, 'ds-math-mul-overflow') */\n              tag_158\n              jumpi\n              0x40\n              dup1\n              mload\n              shl(0xe5, 0x461bcd)\n              dup2\n              mstore\n              0x20\n              0x04\n              dup3\n              add\n              mstore\n              0x14\n              0x24\n              dup3\n              add\n              mstore\n              shl(0x60, 0x64732d6d6174682d6d756c2d6f766572666c6f77)\n              0x44\n              dup3\n              add\n              mstore\n              swap1\n              mload\n              swap1\n              dup2\n              swap1\n              sub\n              0x64\n              add\n              swap1\n              revert\n                /* \"bitlime-core/contracts/libraries/SafeMath.sol\":296:425  function sub(uint x, uint y) internal pure returns (uint z) {\r... */\n            tag_147:\n                /* \"bitlime-core/contracts/libraries/SafeMath.sol\":380:385  x - y */\n              dup1\n              dup3\n              sub\n                /* \"bitlime-core/contracts/libraries/SafeMath.sol\":375:391  (z = x - y) <= x */\n              dup3\n              dup2\n              gt\n              iszero\n                /* \"bitlime-core/contracts/libraries/SafeMath.sol\":367:417  require((z = x - y) <= x, 'ds-math-sub-underflow') */\n              tag_158\n              jumpi\n              0x40\n              dup1\n              mload\n              shl(0xe5, 0x461bcd)\n              dup2\n              mstore\n              0x20\n              0x04\n              dup3\n              add\n              mstore\n              0x15\n              0x24\n              dup3\n              add\n              mstore\n              shl(0x58, 0x64732d6d6174682d7375622d756e646572666c6f77)\n              0x44\n              dup3\n              add\n              mstore\n              swap1\n              mload\n              swap1\n              dup2\n              swap1\n              sub\n              0x64\n              add\n              swap1\n              revert\n                /* \"bitlime-core/contracts/BitlimeV2Pair.sol\":2676:3536  function _update(uint balance0, uint balance1, uint112 _reserve0, uint112 _reserve1) private {\r... */\n            tag_156:\n              sub(shl(0x70, 0x01), 0x01)\n                /* \"bitlime-core/contracts/BitlimeV2Pair.sol\":2788:2811  balance0 <= uint112(-1) */\n              dup5\n              gt\n              dup1\n              iszero\n              swap1\n                /* \"bitlime-core/contracts/BitlimeV2Pair.sol\":2788:2838  balance0 <= uint112(-1) && balance1 <= uint112(-1) */\n              tag_279\n              jumpi\n              pop\n              sub(shl(0x70, 0x01), 0x01)\n                /* \"bitlime-core/contracts/BitlimeV2Pair.sol\":2815:2838  balance1 <= uint112(-1) */\n              dup4\n              gt\n              iszero\n                /* \"bitlime-core/contracts/BitlimeV2Pair.sol\":2788:2838  balance0 <= uint112(-1) && balance1 <= uint112(-1) */\n            tag_279:\n                /* \"bitlime-core/contracts/BitlimeV2Pair.sol\":2780:2862  require(balance0 <= uint112(-1) && balance1 <= uint112(-1), 'BitlimeV2: OVERFLOW') */\n              tag_280\n              jumpi\n              0x40\n              dup1\n              mload\n              shl(0xe5, 0x461bcd)\n              dup2\n              mstore\n              0x20\n              0x04\n              dup3\n              add\n              mstore\n              0x13\n              0x24\n              dup3\n              add\n              mstore\n              shl(0x68, 0x4269746c696d6556323a204f564552464c4f57)\n              0x44\n              dup3\n              add\n              mstore\n              swap1\n              mload\n              swap1\n              dup2\n              swap1\n              sub\n              0x64\n              add\n              swap1\n              revert\n            tag_280:\n                /* \"bitlime-core/contracts/BitlimeV2Pair.sol\":2977:2995  blockTimestampLast */\n              sload(0x08)\n                /* \"bitlime-core/contracts/BitlimeV2Pair.sol\":2904:2927  block.timestamp % 2**32 */\n              0xffffffff\n                /* \"bitlime-core/contracts/BitlimeV2Pair.sol\":2904:2919  block.timestamp */\n              timestamp\n                /* \"bitlime-core/contracts/BitlimeV2Pair.sol\":2904:2927  block.timestamp % 2**32 */\n              dup2\n              and\n              swap2\n              shl(0xe0, 0x01)\n                /* \"bitlime-core/contracts/BitlimeV2Pair.sol\":2977:2995  blockTimestampLast */\n              swap1\n              div\n              dup2\n              and\n                /* \"bitlime-core/contracts/BitlimeV2Pair.sol\":2960:2995  blockTimestamp - blockTimestampLast */\n              dup3\n              sub\n              swap1\n                /* \"bitlime-core/contracts/BitlimeV2Pair.sol\":3033:3048  timeElapsed > 0 */\n              dup2\n              and\n              iszero\n              dup1\n              iszero\n              swap1\n                /* \"bitlime-core/contracts/BitlimeV2Pair.sol\":3033:3066  timeElapsed > 0 && _reserve0 != 0 */\n              tag_282\n              jumpi\n              pop\n              sub(shl(0x70, 0x01), 0x01)\n                /* \"bitlime-core/contracts/BitlimeV2Pair.sol\":3052:3066  _reserve0 != 0 */\n              dup5\n              and\n              iszero\n              iszero\n                /* \"bitlime-core/contracts/BitlimeV2Pair.sol\":3033:3066  timeElapsed > 0 && _reserve0 != 0 */\n            tag_282:\n                /* \"bitlime-core/contracts/BitlimeV2Pair.sol\":3033:3084  timeElapsed > 0 && _reserve0 != 0 && _reserve1 != 0 */\n              dup1\n              iszero\n              tag_283\n              jumpi\n              pop\n              sub(shl(0x70, 0x01), 0x01)\n                /* \"bitlime-core/contracts/BitlimeV2Pair.sol\":3070:3084  _reserve1 != 0 */\n              dup4\n              and\n              iszero\n              iszero\n                /* \"bitlime-core/contracts/BitlimeV2Pair.sol\":3033:3084  timeElapsed > 0 && _reserve0 != 0 && _reserve1 != 0 */\n            tag_283:\n                /* \"bitlime-core/contracts/BitlimeV2Pair.sol\":3029:3365  if (timeElapsed > 0 && _reserve0 != 0 && _reserve1 != 0) {\r... */\n              iszero\n              tag_284\n              jumpi\n                /* \"bitlime-core/contracts/BitlimeV2Pair.sol\":3239:3250  timeElapsed */\n              dup1\n                /* \"bitlime-core/contracts/BitlimeV2Pair.sol\":3186:3250  uint(UQ112x112.encode(_reserve1).uqdiv(_reserve0)) * timeElapsed */\n              0xffffffff\n              and\n                /* \"bitlime-core/contracts/BitlimeV2Pair.sol\":3191:3235  UQ112x112.encode(_reserve1).uqdiv(_reserve0) */\n              tag_285\n                /* \"bitlime-core/contracts/BitlimeV2Pair.sol\":3225:3234  _reserve0 */\n              dup6\n                /* \"bitlime-core/contracts/BitlimeV2Pair.sol\":3191:3218  UQ112x112.encode(_reserve1) */\n              tag_286\n                /* \"bitlime-core/contracts/BitlimeV2Pair.sol\":3208:3217  _reserve1 */\n              dup7\n                /* \"bitlime-core/contracts/BitlimeV2Pair.sol\":3191:3207  UQ112x112.encode */\n              tag_287\n                /* \"bitlime-core/contracts/BitlimeV2Pair.sol\":3191:3218  UQ112x112.encode(_reserve1) */\n              jump\t// in\n            tag_286:\n              sub(shl(0xe0, 0x01), 0x01)\n                /* \"bitlime-core/contracts/BitlimeV2Pair.sol\":3191:3224  UQ112x112.encode(_reserve1).uqdiv */\n              and\n              swap1\n              tag_288\n                /* \"bitlime-core/contracts/BitlimeV2Pair.sol\":3191:3235  UQ112x112.encode(_reserve1).uqdiv(_reserve0) */\n              jump\t// in\n            tag_285:\n                /* \"bitlime-core/contracts/BitlimeV2Pair.sol\":3162:3182  price0CumulativeLast */\n              0x09\n                /* \"bitlime-core/contracts/BitlimeV2Pair.sol\":3162:3250  price0CumulativeLast += uint(UQ112x112.encode(_reserve1).uqdiv(_reserve0)) * timeElapsed */\n              dup1\n              sload\n              sub(shl(0xe0, 0x01), 0x01)\n                /* \"bitlime-core/contracts/BitlimeV2Pair.sol\":3186:3236  uint(UQ112x112.encode(_reserve1).uqdiv(_reserve0)) */\n              swap3\n              swap1\n              swap3\n              and\n                /* \"bitlime-core/contracts/BitlimeV2Pair.sol\":3186:3250  uint(UQ112x112.encode(_reserve1).uqdiv(_reserve0)) * timeElapsed */\n              swap3\n              swap1\n              swap3\n              mul\n                /* \"bitlime-core/contracts/BitlimeV2Pair.sol\":3162:3250  price0CumulativeLast += uint(UQ112x112.encode(_reserve1).uqdiv(_reserve0)) * timeElapsed */\n              add\n              swap1\n              sstore\n                /* \"bitlime-core/contracts/BitlimeV2Pair.sol\":3289:3353  uint(UQ112x112.encode(_reserve0).uqdiv(_reserve1)) * timeElapsed */\n              0xffffffff\n              dup2\n              and\n                /* \"bitlime-core/contracts/BitlimeV2Pair.sol\":3294:3338  UQ112x112.encode(_reserve0).uqdiv(_reserve1) */\n              tag_289\n                /* \"bitlime-core/contracts/BitlimeV2Pair.sol\":3328:3337  _reserve1 */\n              dup5\n                /* \"bitlime-core/contracts/BitlimeV2Pair.sol\":3294:3321  UQ112x112.encode(_reserve0) */\n              tag_286\n                /* \"bitlime-core/contracts/BitlimeV2Pair.sol\":3311:3320  _reserve0 */\n              dup8\n                /* \"bitlime-core/contracts/BitlimeV2Pair.sol\":3294:3310  UQ112x112.encode */\n              tag_287\n                /* \"bitlime-core/contracts/BitlimeV2Pair.sol\":3294:3321  UQ112x112.encode(_reserve0) */\n              jump\t// in\n                /* \"bitlime-core/contracts/BitlimeV2Pair.sol\":3294:3338  UQ112x112.encode(_reserve0).uqdiv(_reserve1) */\n            tag_289:\n                /* \"bitlime-core/contracts/BitlimeV2Pair.sol\":3265:3285  price1CumulativeLast */\n              0x0a\n                /* \"bitlime-core/contracts/BitlimeV2Pair.sol\":3265:3353  price1CumulativeLast += uint(UQ112x112.encode(_reserve0).uqdiv(_reserve1)) * timeElapsed */\n              dup1\n              sload\n              sub(shl(0xe0, 0x01), 0x01)\n                /* \"bitlime-core/contracts/BitlimeV2Pair.sol\":3289:3339  uint(UQ112x112.encode(_reserve0).uqdiv(_reserve1)) */\n              swap3\n              swap1\n              swap3\n              and\n                /* \"bitlime-core/contracts/BitlimeV2Pair.sol\":3289:3353  uint(UQ112x112.encode(_reserve0).uqdiv(_reserve1)) * timeElapsed */\n              swap3\n              swap1\n              swap3\n              mul\n                /* \"bitlime-core/contracts/BitlimeV2Pair.sol\":3265:3353  price1CumulativeLast += uint(UQ112x112.encode(_reserve0).uqdiv(_reserve1)) * timeElapsed */\n              add\n              swap1\n              sstore\n                /* \"bitlime-core/contracts/BitlimeV2Pair.sol\":3029:3365  if (timeElapsed > 0 && _reserve0 != 0 && _reserve1 != 0) {\r... */\n            tag_284:\n                /* \"bitlime-core/contracts/BitlimeV2Pair.sol\":3375:3383  reserve0 */\n              0x08\n                /* \"bitlime-core/contracts/BitlimeV2Pair.sol\":3375:3403  reserve0 = uint112(balance0) */\n              dup1\n              sload\n              not(0xffffffffffffffffffffffffffff)\n              and\n              sub(shl(0x70, 0x01), 0x01)\n              dup9\n              dup2\n              and\n              swap2\n              swap1\n              swap2\n              or\n              not(shl(0x70, 0xffffffffffffffffffffffffffff))\n                /* \"bitlime-core/contracts/BitlimeV2Pair.sol\":3414:3442  reserve1 = uint112(balance1) */\n              and\n              shl(0x70, 0x01)\n              dup9\n              dup4\n              and\n              dup2\n              mul\n              swap2\n              swap1\n              swap2\n              or\n              sub(shl(0xe0, 0x01), 0x01)\n                /* \"bitlime-core/contracts/BitlimeV2Pair.sol\":3453:3488  blockTimestampLast = blockTimestamp */\n              and\n              shl(0xe0, 0x01)\n              0xffffffff\n              dup8\n              and\n              mul\n              or\n              swap3\n              dup4\n              swap1\n              sstore\n                /* \"bitlime-core/contracts/BitlimeV2Pair.sol\":3504:3528  Sync(reserve0, reserve1) */\n              0x40\n              dup1\n              mload\n                /* \"bitlime-core/contracts/BitlimeV2Pair.sol\":3509:3517  reserve0 */\n              dup5\n              dup5\n              and\n                /* \"bitlime-core/contracts/BitlimeV2Pair.sol\":3504:3528  Sync(reserve0, reserve1) */\n              dup2\n              mstore\n                /* \"bitlime-core/contracts/BitlimeV2Pair.sol\":3519:3527  reserve1 */\n              swap2\n              swap1\n              swap4\n              div\n              swap1\n              swap2\n              and\n                /* \"bitlime-core/contracts/BitlimeV2Pair.sol\":3504:3528  Sync(reserve0, reserve1) */\n              0x20\n              dup3\n              add\n              mstore\n              dup2\n              mload\n              0x1c411e9a96e071241c2f21f7726b17ae89e3cab4c78be50e062b03a9fffbbad1\n              swap3\n              swap2\n              dup2\n              swap1\n              sub\n              swap1\n              swap2\n              add\n              swap1\n              log1\n                /* \"bitlime-core/contracts/BitlimeV2Pair.sol\":2676:3536  function _update(uint balance0, uint balance1, uint112 _reserve0, uint112 _reserve1) private {\r... */\n              pop\n              pop\n              pop\n              pop\n              pop\n              pop\n              jump\t// out\n                /* \"bitlime-core/contracts/BitlimeV2ERC20.sol\":1835:2004  function _approve(address owner, address spender, uint value) private {\r... */\n            tag_160:\n              sub(shl(0xa0, 0x01), 0x01)\n                /* \"bitlime-core/contracts/BitlimeV2ERC20.sol\":1916:1932  allowance[owner] */\n              dup4\n              dup2\n              and\n              0x00\n              dup2\n              dup2\n              mstore\n                /* \"bitlime-core/contracts/BitlimeV2ERC20.sol\":1916:1925  allowance */\n              0x02\n                /* \"bitlime-core/contracts/BitlimeV2ERC20.sol\":1916:1932  allowance[owner] */\n              0x20\n              swap1\n              dup2\n              mstore\n              0x40\n              dup1\n              dup4\n              keccak256\n                /* \"bitlime-core/contracts/BitlimeV2ERC20.sol\":1916:1941  allowance[owner][spender] */\n              swap5\n              dup8\n              and\n              dup1\n              dup5\n              mstore\n              swap5\n              dup3\n              mstore\n              swap2\n              dup3\n              swap1\n              keccak256\n                /* \"bitlime-core/contracts/BitlimeV2ERC20.sol\":1916:1949  allowance[owner][spender] = value */\n              dup6\n              swap1\n              sstore\n                /* \"bitlime-core/contracts/BitlimeV2ERC20.sol\":1965:1996  Approval(owner, spender, value) */\n              dup2\n              mload\n              dup6\n              dup2\n              mstore\n              swap2\n              mload\n              0x8c5be1e5ebec7d5bd14f71427d1e84f3dd0314c0f7b2291e5b200ac8c7c3b925\n              swap3\n              dup2\n              swap1\n              sub\n              swap1\n              swap2\n              add\n              swap1\n              log3\n                /* \"bitlime-core/contracts/BitlimeV2ERC20.sol\":1835:2004  function _approve(address owner, address spender, uint value) private {\r... */\n              pop\n              pop\n              pop\n              jump\t// out\n                /* \"bitlime-core/contracts/BitlimeV2ERC20.sol\":2012:2232  function _transfer(address from, address to, uint value) private {\r... */\n            tag_165:\n              sub(shl(0xa0, 0x01), 0x01)\n                /* \"bitlime-core/contracts/BitlimeV2ERC20.sol\":2106:2121  balanceOf[from] */\n              dup4\n              and\n              0x00\n              swap1\n              dup2\n              mstore\n              mstore(0x20, 0x01)\n              0x40\n              swap1\n              keccak256\n              sload\n                /* \"bitlime-core/contracts/BitlimeV2ERC20.sol\":2106:2132  balanceOf[from].sub(value) */\n              tag_293\n              swap1\n                /* \"bitlime-core/contracts/BitlimeV2ERC20.sol\":2126:2131  value */\n              dup3\n                /* \"bitlime-core/contracts/BitlimeV2ERC20.sol\":2106:2125  balanceOf[from].sub */\n              tag_147\n                /* \"bitlime-core/contracts/BitlimeV2ERC20.sol\":2106:2132  balanceOf[from].sub(value) */\n              jump\t// in\n            tag_293:\n              sub(shl(0xa0, 0x01), 0x01)\n                /* \"bitlime-core/contracts/BitlimeV2ERC20.sol\":2088:2103  balanceOf[from] */\n              dup5\n              dup2\n              and\n              0x00\n              swap1\n              dup2\n              mstore\n              mstore(0x20, 0x01)\n              0x40\n              dup1\n              dup3\n              keccak256\n                /* \"bitlime-core/contracts/BitlimeV2ERC20.sol\":2088:2132  balanceOf[from] = balanceOf[from].sub(value) */\n              swap4\n              swap1\n              swap4\n              sstore\n                /* \"bitlime-core/contracts/BitlimeV2ERC20.sol\":2159:2172  balanceOf[to] */\n              swap1\n              dup5\n              and\n              dup2\n              mstore\n              keccak256\n              sload\n                /* \"bitlime-core/contracts/BitlimeV2ERC20.sol\":2159:2183  balanceOf[to].add(value) */\n              tag_294\n              swap1\n                /* \"bitlime-core/contracts/BitlimeV2ERC20.sol\":2177:2182  value */\n              dup3\n                /* \"bitlime-core/contracts/BitlimeV2ERC20.sol\":2159:2176  balanceOf[to].add */\n              tag_295\n                /* \"bitlime-core/contracts/BitlimeV2ERC20.sol\":2159:2183  balanceOf[to].add(value) */\n              jump\t// in\n            tag_294:\n              sub(shl(0xa0, 0x01), 0x01)\n                /* \"bitlime-core/contracts/BitlimeV2ERC20.sol\":2143:2156  balanceOf[to] */\n              dup4\n              dup2\n              and\n              0x00\n              dup2\n              dup2\n              mstore\n              0x01\n              0x20\n              swap1\n              dup2\n              mstore\n              0x40\n              swap2\n              dup3\n              swap1\n              keccak256\n                /* \"bitlime-core/contracts/BitlimeV2ERC20.sol\":2143:2183  balanceOf[to] = balanceOf[to].add(value) */\n              swap5\n              swap1\n              swap5\n              sstore\n                /* \"bitlime-core/contracts/BitlimeV2ERC20.sol\":2199:2224  Transfer(from, to, value) */\n              dup1\n              mload\n              dup6\n              dup2\n              mstore\n              swap1\n              mload\n                /* \"bitlime-core/contracts/BitlimeV2ERC20.sol\":2143:2156  balanceOf[to] */\n              swap2\n              swap4\n                /* \"bitlime-core/contracts/BitlimeV2ERC20.sol\":2199:2224  Transfer(from, to, value) */\n              swap3\n              dup8\n              and\n              swap3\n              0xddf252ad1be2c89b69c2b068fc378daa952ba7f163c4a11628f55a4df523b3ef\n              swap3\n              swap2\n              dup3\n              swap1\n              sub\n              add\n              swap1\n              log3\n                /* \"bitlime-core/contracts/BitlimeV2ERC20.sol\":2012:2232  function _transfer(address from, address to, uint value) private {\r... */\n              pop\n              pop\n              pop\n              jump\t// out\n                /* \"bitlime-core/contracts/BitlimeV2Pair.sol\":3626:4463  function _mintFee(uint112 _reserve0, uint112 _reserve1) private returns (bool feeOn) {\r... */\n            tag_181:\n                /* \"bitlime-core/contracts/BitlimeV2Pair.sol\":3756:3763  factory */\n              sload(0x05)\n                /* \"bitlime-core/contracts/BitlimeV2Pair.sol\":3738:3772  IBitlimeV2Factory(factory).feeTo() */\n              0x40\n              dup1\n              mload\n              shl(0xe3, 0x2fcfcb)\n              dup2\n              mstore\n              swap1\n              mload\n                /* \"bitlime-core/contracts/BitlimeV2Pair.sol\":3699:3709  bool feeOn */\n              0x00\n              swap3\n              dup4\n              swap3\n              sub(shl(0xa0, 0x01), 0x01)\n                /* \"bitlime-core/contracts/BitlimeV2Pair.sol\":3756:3763  factory */\n              swap1\n              swap2\n              and\n              swap2\n                /* \"bitlime-core/contracts/BitlimeV2Pair.sol\":3738:3770  IBitlimeV2Factory(factory).feeTo */\n              0x017e7e58\n              swap2\n                /* \"bitlime-core/contracts/BitlimeV2Pair.sol\":3738:3772  IBitlimeV2Factory(factory).feeTo() */\n              0x04\n              dup1\n              dup3\n              add\n              swap3\n              0x20\n              swap3\n              swap1\n              swap2\n              swap1\n              dup3\n              swap1\n              sub\n              add\n              dup2\n                /* \"bitlime-core/contracts/BitlimeV2Pair.sol\":3756:3763  factory */\n              dup7\n                /* \"bitlime-core/contracts/BitlimeV2Pair.sol\":3738:3772  IBitlimeV2Factory(factory).feeTo() */\n              dup1\n              extcodesize\n              iszero\n                /* \"--CODEGEN--\":5:7   */\n              dup1\n              iszero\n              tag_297\n              jumpi\n                /* \"--CODEGEN--\":30:31   */\n              0x00\n                /* \"--CODEGEN--\":27:28   */\n              dup1\n                /* \"--CODEGEN--\":20:32   */\n              revert\n                /* \"--CODEGEN--\":5:7   */\n            tag_297:\n                /* \"bitlime-core/contracts/BitlimeV2Pair.sol\":3738:3772  IBitlimeV2Factory(factory).feeTo() */\n              pop\n              gas\n              staticcall\n              iszero\n                /* \"--CODEGEN--\":8:17   */\n              dup1\n                /* \"--CODEGEN--\":5:7   */\n              iszero\n              tag_298\n              jumpi\n                /* \"--CODEGEN--\":45:61   */\n              returndatasize\n                /* \"--CODEGEN--\":42:43   */\n              0x00\n                /* \"--CODEGEN--\":39:40   */\n              dup1\n                /* \"--CODEGEN--\":24:62   */\n              returndatacopy\n                /* \"--CODEGEN--\":77:93   */\n              returndatasize\n                /* \"--CODEGEN--\":74:75   */\n              0x00\n                /* \"--CODEGEN--\":67:94   */\n              revert\n                /* \"--CODEGEN--\":5:7   */\n            tag_298:\n                /* \"bitlime-core/contracts/BitlimeV2Pair.sol\":3738:3772  IBitlimeV2Factory(factory).feeTo() */\n              pop\n              pop\n              pop\n              pop\n              mload(0x40)\n              returndatasize\n                /* \"--CODEGEN--\":13:15   */\n              0x20\n                /* \"--CODEGEN--\":8:11   */\n              dup2\n                /* \"--CODEGEN--\":5:16   */\n              lt\n                /* \"--CODEGEN--\":2:4   */\n              iszero\n              tag_299\n              jumpi\n                /* \"--CODEGEN--\":29:30   */\n              0x00\n                /* \"--CODEGEN--\":26:27   */\n              dup1\n                /* \"--CODEGEN--\":19:31   */\n              revert\n                /* \"--CODEGEN--\":2:4   */\n            tag_299:\n              pop\n                /* \"bitlime-core/contracts/BitlimeV2Pair.sol\":3738:3772  IBitlimeV2Factory(factory).feeTo() */\n              mload\n                /* \"bitlime-core/contracts/BitlimeV2Pair.sol\":3835:3840  kLast */\n              sload(0x0b)\n              sub(shl(0xa0, 0x01), 0x01)\n                /* \"bitlime-core/contracts/BitlimeV2Pair.sol\":3791:3810  feeTo != address(0) */\n              dup3\n              and\n              iszero\n              dup1\n              iszero\n              swap5\n              pop\n                /* \"bitlime-core/contracts/BitlimeV2Pair.sol\":3738:3772  IBitlimeV2Factory(factory).feeTo() */\n              swap2\n              swap3\n              pop\n                /* \"bitlime-core/contracts/BitlimeV2Pair.sol\":3835:3840  kLast */\n              swap1\n                /* \"bitlime-core/contracts/BitlimeV2Pair.sol\":3866:4456  if (feeOn) {\r... */\n              tag_300\n              jumpi\n                /* \"bitlime-core/contracts/BitlimeV2Pair.sol\":3896:3907  _kLast != 0 */\n              dup1\n              iszero\n                /* \"bitlime-core/contracts/BitlimeV2Pair.sol\":3892:4386  if (_kLast != 0) {\r... */\n              tag_301\n              jumpi\n                /* \"bitlime-core/contracts/BitlimeV2Pair.sol\":3928:3938  uint rootK */\n              0x00\n                /* \"bitlime-core/contracts/BitlimeV2Pair.sol\":3941:3982  Math.sqrt(uint(_reserve0).mul(_reserve1)) */\n              tag_302\n                /* \"bitlime-core/contracts/BitlimeV2Pair.sol\":3951:3981  uint(_reserve0).mul(_reserve1) */\n              tag_185\n              sub(shl(0x70, 0x01), 0x01)\n                /* \"bitlime-core/contracts/BitlimeV2Pair.sol\":3951:3966  uint(_reserve0) */\n              dup9\n              dup2\n              and\n              swap1\n                /* \"bitlime-core/contracts/BitlimeV2Pair.sol\":3951:3981  uint(_reserve0).mul(_reserve1) */\n              dup9\n              and\n                /* \"bitlime-core/contracts/BitlimeV2Pair.sol\":3951:3970  uint(_reserve0).mul */\n              tag_145\n                /* \"bitlime-core/contracts/BitlimeV2Pair.sol\":3951:3981  uint(_reserve0).mul(_reserve1) */\n              jump\t// in\n                /* \"bitlime-core/contracts/BitlimeV2Pair.sol\":3941:3982  Math.sqrt(uint(_reserve0).mul(_reserve1)) */\n            tag_302:\n                /* \"bitlime-core/contracts/BitlimeV2Pair.sol\":3928:3982  uint rootK = Math.sqrt(uint(_reserve0).mul(_reserve1)) */\n              swap1\n              pop\n                /* \"bitlime-core/contracts/BitlimeV2Pair.sol\":4001:4015  uint rootKLast */\n              0x00\n                /* \"bitlime-core/contracts/BitlimeV2Pair.sol\":4018:4035  Math.sqrt(_kLast) */\n              tag_304\n                /* \"bitlime-core/contracts/BitlimeV2Pair.sol\":4028:4034  _kLast */\n              dup4\n                /* \"bitlime-core/contracts/BitlimeV2Pair.sol\":4018:4027  Math.sqrt */\n              tag_186\n                /* \"bitlime-core/contracts/BitlimeV2Pair.sol\":4018:4035  Math.sqrt(_kLast) */\n              jump\t// in\n            tag_304:\n                /* \"bitlime-core/contracts/BitlimeV2Pair.sol\":4001:4035  uint rootKLast = Math.sqrt(_kLast) */\n              swap1\n              pop\n                /* \"bitlime-core/contracts/BitlimeV2Pair.sol\":4066:4075  rootKLast */\n              dup1\n                /* \"bitlime-core/contracts/BitlimeV2Pair.sol\":4058:4063  rootK */\n              dup3\n                /* \"bitlime-core/contracts/BitlimeV2Pair.sol\":4058:4075  rootK > rootKLast */\n              gt\n                /* \"bitlime-core/contracts/BitlimeV2Pair.sol\":4054:4371  if (rootK > rootKLast) {\r... */\n              iszero\n              tag_305\n              jumpi\n                /* \"bitlime-core/contracts/BitlimeV2Pair.sol\":4100:4114  uint numerator */\n              0x00\n                /* \"bitlime-core/contracts/BitlimeV2Pair.sol\":4117:4154  totalSupply.mul(rootK.sub(rootKLast)) */\n              tag_306\n                /* \"bitlime-core/contracts/BitlimeV2Pair.sol\":4133:4153  rootK.sub(rootKLast) */\n              tag_307\n                /* \"bitlime-core/contracts/BitlimeV2Pair.sol\":4133:4138  rootK */\n              dup5\n                /* \"bitlime-core/contracts/BitlimeV2Pair.sol\":4143:4152  rootKLast */\n              dup5\n                /* \"bitlime-core/contracts/BitlimeV2Pair.sol\":4133:4153  rootK.sub(rootKLast) */\n              0xffffffff\n                /* \"bitlime-core/contracts/BitlimeV2Pair.sol\":4133:4142  rootK.sub */\n              tag_147\n                /* \"bitlime-core/contracts/BitlimeV2Pair.sol\":4133:4153  rootK.sub(rootKLast) */\n              and\n              jump\t// in\n            tag_307:\n                /* \"bitlime-core/contracts/BitlimeV2Pair.sol\":4117:4128  totalSupply */\n              sload(0x00)\n              swap1\n                /* \"bitlime-core/contracts/BitlimeV2Pair.sol\":4117:4154  totalSupply.mul(rootK.sub(rootKLast)) */\n              0xffffffff\n                /* \"bitlime-core/contracts/BitlimeV2Pair.sol\":4117:4132  totalSupply.mul */\n              tag_145\n                /* \"bitlime-core/contracts/BitlimeV2Pair.sol\":4117:4154  totalSupply.mul(rootK.sub(rootKLast)) */\n              and\n              jump\t// in\n            tag_306:\n                /* \"bitlime-core/contracts/BitlimeV2Pair.sol\":4100:4154  uint numerator = totalSupply.mul(rootK.sub(rootKLast)) */\n              swap1\n              pop\n                /* \"bitlime-core/contracts/BitlimeV2Pair.sol\":4177:4193  uint denominator */\n              0x00\n                /* \"bitlime-core/contracts/BitlimeV2Pair.sol\":4196:4223  rootK.mul(5).add(rootKLast) */\n              tag_308\n                /* \"bitlime-core/contracts/BitlimeV2Pair.sol\":4213:4222  rootKLast */\n              dup4\n                /* \"bitlime-core/contracts/BitlimeV2Pair.sol\":4196:4208  rootK.mul(5) */\n              tag_309\n                /* \"bitlime-core/contracts/BitlimeV2Pair.sol\":4196:4201  rootK */\n              dup7\n                /* \"bitlime-core/contracts/BitlimeV2Pair.sol\":4206:4207  5 */\n              0x05\n                /* \"bitlime-core/contracts/BitlimeV2Pair.sol\":4196:4208  rootK.mul(5) */\n              0xffffffff\n                /* \"bitlime-core/contracts/BitlimeV2Pair.sol\":4196:4205  rootK.mul */\n              tag_145\n                /* \"bitlime-core/contracts/BitlimeV2Pair.sol\":4196:4208  rootK.mul(5) */\n              and\n              jump\t// in\n            tag_309:\n                /* \"bitlime-core/contracts/BitlimeV2Pair.sol\":4196:4212  rootK.mul(5).add */\n              swap1\n                /* \"bitlime-core/contracts/BitlimeV2Pair.sol\":4196:4223  rootK.mul(5).add(rootKLast) */\n              0xffffffff\n                /* \"bitlime-core/contracts/BitlimeV2Pair.sol\":4196:4212  rootK.mul(5).add */\n              tag_295\n                /* \"bitlime-core/contracts/BitlimeV2Pair.sol\":4196:4223  rootK.mul(5).add(rootKLast) */\n              and\n              jump\t// in\n            tag_308:\n                /* \"bitlime-core/contracts/BitlimeV2Pair.sol\":4177:4223  uint denominator = rootK.mul(5).add(rootKLast) */\n              swap1\n              pop\n                /* \"bitlime-core/contracts/BitlimeV2Pair.sol\":4246:4260  uint liquidity */\n              0x00\n                /* \"bitlime-core/contracts/BitlimeV2Pair.sol\":4275:4286  denominator */\n              dup2\n                /* \"bitlime-core/contracts/BitlimeV2Pair.sol\":4263:4272  numerator */\n              dup4\n                /* \"bitlime-core/contracts/BitlimeV2Pair.sol\":4263:4286  numerator / denominator */\n              dup2\n              tag_310\n              jumpi\n              invalid\n            tag_310:\n              div\n              swap1\n              pop\n                /* \"bitlime-core/contracts/BitlimeV2Pair.sol\":4313:4326  liquidity > 0 */\n              dup1\n              iszero\n                /* \"bitlime-core/contracts/BitlimeV2Pair.sol\":4309:4351  if (liquidity > 0) _mint(feeTo, liquidity) */\n              tag_312\n              jumpi\n                /* \"bitlime-core/contracts/BitlimeV2Pair.sol\":4328:4351  _mint(feeTo, liquidity) */\n              tag_312\n                /* \"bitlime-core/contracts/BitlimeV2Pair.sol\":4334:4339  feeTo */\n              dup8\n                /* \"bitlime-core/contracts/BitlimeV2Pair.sol\":4341:4350  liquidity */\n              dup3\n                /* \"bitlime-core/contracts/BitlimeV2Pair.sol\":4328:4333  _mint */\n              tag_188\n                /* \"bitlime-core/contracts/BitlimeV2Pair.sol\":4328:4351  _mint(feeTo, liquidity) */\n              jump\t// in\n            tag_312:\n                /* \"bitlime-core/contracts/BitlimeV2Pair.sol\":4054:4371  if (rootK > rootKLast) {\r... */\n              pop\n              pop\n              pop\n            tag_305:\n                /* \"bitlime-core/contracts/BitlimeV2Pair.sol\":3892:4386  if (_kLast != 0) {\r... */\n              pop\n              pop\n            tag_301:\n                /* \"bitlime-core/contracts/BitlimeV2Pair.sol\":3866:4456  if (feeOn) {\r... */\n              jump(tag_314)\n            tag_300:\n                /* \"bitlime-core/contracts/BitlimeV2Pair.sol\":4407:4418  _kLast != 0 */\n              dup1\n              iszero\n                /* \"bitlime-core/contracts/BitlimeV2Pair.sol\":4403:4456  if (_kLast != 0) {\r... */\n              tag_314\n              jumpi\n                /* \"bitlime-core/contracts/BitlimeV2Pair.sol\":4443:4444  0 */\n              0x00\n                /* \"bitlime-core/contracts/BitlimeV2Pair.sol\":4435:4440  kLast */\n              0x0b\n                /* \"bitlime-core/contracts/BitlimeV2Pair.sol\":4435:4444  kLast = 0 */\n              sstore\n                /* \"bitlime-core/contracts/BitlimeV2Pair.sol\":4403:4456  if (_kLast != 0) {\r... */\n            tag_314:\n                /* \"bitlime-core/contracts/BitlimeV2Pair.sol\":3626:4463  function _mintFee(uint112 _reserve0, uint112 _reserve1) private returns (bool feeOn) {\r... */\n              pop\n              pop\n              swap3\n              swap2\n              pop\n              pop\n              jump\t// out\n                /* \"bitlime-core/contracts/libraries/Math.sol\":317:620  function sqrt(uint y) internal pure returns (uint z) {\r... */\n            tag_186:\n                /* \"bitlime-core/contracts/libraries/Math.sol\":362:368  uint z */\n              0x00\n                /* \"bitlime-core/contracts/libraries/Math.sol\":389:390  3 */\n              0x03\n                /* \"bitlime-core/contracts/libraries/Math.sol\":385:386  y */\n              dup3\n                /* \"bitlime-core/contracts/libraries/Math.sol\":385:390  y > 3 */\n              gt\n                /* \"bitlime-core/contracts/libraries/Math.sol\":381:613  if (y > 3) {\r... */\n              iszero\n              tag_316\n              jumpi\n              pop\n                /* \"bitlime-core/contracts/libraries/Math.sol\":411:412  y */\n              dup1\n                /* \"bitlime-core/contracts/libraries/Math.sol\":444:445  1 */\n              0x01\n                /* \"bitlime-core/contracts/libraries/Math.sol\":440:441  2 */\n              0x02\n                /* \"bitlime-core/contracts/libraries/Math.sol\":436:441  y / 2 */\n              dup3\n              div\n                /* \"bitlime-core/contracts/libraries/Math.sol\":436:445  y / 2 + 1 */\n              add\n                /* \"bitlime-core/contracts/libraries/Math.sol\":460:552  while (x < z) {\r... */\n            tag_318:\n                /* \"bitlime-core/contracts/libraries/Math.sol\":471:472  z */\n              dup2\n                /* \"bitlime-core/contracts/libraries/Math.sol\":467:468  x */\n              dup2\n                /* \"bitlime-core/contracts/libraries/Math.sol\":467:472  x < z */\n              lt\n                /* \"bitlime-core/contracts/libraries/Math.sol\":460:552  while (x < z) {\r... */\n              iszero\n              tag_319\n              jumpi\n                /* \"bitlime-core/contracts/libraries/Math.sol\":497:498  x */\n              dup1\n                /* \"bitlime-core/contracts/libraries/Math.sol\":493:498  z = x */\n              swap2\n              pop\n                /* \"bitlime-core/contracts/libraries/Math.sol\":535:536  2 */\n              0x02\n                /* \"bitlime-core/contracts/libraries/Math.sol\":530:531  x */\n              dup2\n                /* \"bitlime-core/contracts/libraries/Math.sol\":526:527  x */\n              dup3\n                /* \"bitlime-core/contracts/libraries/Math.sol\":522:523  y */\n              dup6\n                /* \"bitlime-core/contracts/libraries/Math.sol\":522:527  y / x */\n              dup2\n              tag_320\n              jumpi\n              invalid\n            tag_320:\n              div\n                /* \"bitlime-core/contracts/libraries/Math.sol\":522:531  y / x + x */\n              add\n                /* \"bitlime-core/contracts/libraries/Math.sol\":521:536  (y / x + x) / 2 */\n              dup2\n              tag_321\n              jumpi\n              invalid\n            tag_321:\n              div\n                /* \"bitlime-core/contracts/libraries/Math.sol\":517:536  x = (y / x + x) / 2 */\n              swap1\n              pop\n                /* \"bitlime-core/contracts/libraries/Math.sol\":460:552  while (x < z) {\r... */\n              jump(tag_318)\n            tag_319:\n                /* \"bitlime-core/contracts/libraries/Math.sol\":381:613  if (y > 3) {\r... */\n              pop\n              jump(tag_323)\n            tag_316:\n                /* \"bitlime-core/contracts/libraries/Math.sol\":573:579  y != 0 */\n              dup2\n              iszero\n                /* \"bitlime-core/contracts/libraries/Math.sol\":569:613  if (y != 0) {\r... */\n              tag_323\n              jumpi\n              pop\n                /* \"bitlime-core/contracts/libraries/Math.sol\":600:601  1 */\n              0x01\n                /* \"bitlime-core/contracts/libraries/Math.sol\":569:613  if (y != 0) {\r... */\n            tag_323:\n                /* \"bitlime-core/contracts/libraries/Math.sol\":317:620  function sqrt(uint y) internal pure returns (uint z) {\r... */\n              swap2\n              swap1\n              pop\n              jump\t// out\n                /* \"bitlime-core/contracts/BitlimeV2ERC20.sol\":1409:1610  function _mint(address to, uint value) internal {\r... */\n            tag_188:\n                /* \"bitlime-core/contracts/BitlimeV2ERC20.sol\":1482:1493  totalSupply */\n              sload(0x00)\n                /* \"bitlime-core/contracts/BitlimeV2ERC20.sol\":1482:1504  totalSupply.add(value) */\n              tag_325\n              swap1\n                /* \"bitlime-core/contracts/BitlimeV2ERC20.sol\":1498:1503  value */\n              dup3\n                /* \"bitlime-core/contracts/BitlimeV2ERC20.sol\":1482:1504  totalSupply.add(value) */\n              0xffffffff\n                /* \"bitlime-core/contracts/BitlimeV2ERC20.sol\":1482:1497  totalSupply.add */\n              tag_295\n                /* \"bitlime-core/contracts/BitlimeV2ERC20.sol\":1482:1504  totalSupply.add(value) */\n              and\n              jump\t// in\n            tag_325:\n                /* \"bitlime-core/contracts/BitlimeV2ERC20.sol\":1468:1479  totalSupply */\n              0x00\n                /* \"bitlime-core/contracts/BitlimeV2ERC20.sol\":1468:1504  totalSupply = totalSupply.add(value) */\n              swap1\n              dup2\n              sstore\n              sub(shl(0xa0, 0x01), 0x01)\n                /* \"bitlime-core/contracts/BitlimeV2ERC20.sol\":1531:1544  balanceOf[to] */\n              dup4\n              and\n              dup2\n              mstore\n              mstore(0x20, 0x01)\n              0x40\n              swap1\n              keccak256\n              sload\n                /* \"bitlime-core/contracts/BitlimeV2ERC20.sol\":1531:1555  balanceOf[to].add(value) */\n              tag_326\n              swap1\n                /* \"bitlime-core/contracts/BitlimeV2ERC20.sol\":1549:1554  value */\n              dup3\n                /* \"bitlime-core/contracts/BitlimeV2ERC20.sol\":1531:1548  balanceOf[to].add */\n              tag_295\n                /* \"bitlime-core/contracts/BitlimeV2ERC20.sol\":1531:1555  balanceOf[to].add(value) */\n              jump\t// in\n            tag_326:\n              sub(shl(0xa0, 0x01), 0x01)\n                /* \"bitlime-core/contracts/BitlimeV2ERC20.sol\":1515:1528  balanceOf[to] */\n              dup4\n              and\n              0x00\n              dup2\n              dup2\n              mstore\n              0x01\n              0x20\n              swap1\n              dup2\n              mstore\n              0x40\n              dup1\n              dup4\n              keccak256\n                /* \"bitlime-core/contracts/BitlimeV2ERC20.sol\":1515:1555  balanceOf[to] = balanceOf[to].add(value) */\n              swap5\n              swap1\n              swap5\n              sstore\n                /* \"bitlime-core/contracts/BitlimeV2ERC20.sol\":1571:1602  Transfer(address(0), to, value) */\n              dup4\n              mload\n              dup6\n              dup2\n              mstore\n              swap4\n              mload\n                /* \"bitlime-core/contracts/BitlimeV2ERC20.sol\":1515:1528  balanceOf[to] */\n              swap3\n              swap4\n              swap2\n              swap3\n                /* \"bitlime-core/contracts/BitlimeV2ERC20.sol\":1571:1602  Transfer(address(0), to, value) */\n              0xddf252ad1be2c89b69c2b068fc378daa952ba7f163c4a11628f55a4df523b3ef\n              swap3\n              dup2\n              swap1\n              sub\n              swap1\n              swap2\n              add\n              swap1\n              log3\n                /* \"bitlime-core/contracts/BitlimeV2ERC20.sol\":1409:1610  function _mint(address to, uint value) internal {\r... */\n              pop\n              pop\n              jump\t// out\n                /* \"bitlime-core/contracts/libraries/Math.sol\":103:199  function min(uint x, uint y) internal pure returns (uint z) {\r... */\n            tag_195:\n                /* \"bitlime-core/contracts/libraries/Math.sol\":155:161  uint z */\n              0x00\n                /* \"bitlime-core/contracts/libraries/Math.sol\":182:183  y */\n              dup2\n                /* \"bitlime-core/contracts/libraries/Math.sol\":178:179  x */\n              dup4\n                /* \"bitlime-core/contracts/libraries/Math.sol\":178:183  x < y */\n              lt\n                /* \"bitlime-core/contracts/libraries/Math.sol\":178:191  x < y ? x : y */\n              tag_328\n              jumpi\n                /* \"bitlime-core/contracts/libraries/Math.sol\":190:191  y */\n              dup2\n                /* \"bitlime-core/contracts/libraries/Math.sol\":178:191  x < y ? x : y */\n              jump(tag_329)\n            tag_328:\n                /* \"bitlime-core/contracts/libraries/Math.sol\":186:187  x */\n              dup3\n                /* \"bitlime-core/contracts/libraries/Math.sol\":178:191  x < y ? x : y */\n            tag_329:\n                /* \"bitlime-core/contracts/libraries/Math.sol\":174:191  z = x < y ? x : y */\n              swap4\n                /* \"bitlime-core/contracts/libraries/Math.sol\":103:199  function min(uint x, uint y) internal pure returns (uint z) {\r... */\n              swap3\n              pop\n              pop\n              pop\n              jump\t// out\n                /* \"bitlime-core/contracts/BitlimeV2ERC20.sol\":1618:1827  function _burn(address from, uint value) internal {\r... */\n            tag_219:\n              sub(shl(0xa0, 0x01), 0x01)\n                /* \"bitlime-core/contracts/BitlimeV2ERC20.sol\":1697:1712  balanceOf[from] */\n              dup3\n              and\n              0x00\n              swap1\n              dup2\n              mstore\n              mstore(0x20, 0x01)\n              0x40\n              swap1\n              keccak256\n              sload\n                /* \"bitlime-core/contracts/BitlimeV2ERC20.sol\":1697:1723  balanceOf[from].sub(value) */\n              tag_331\n              swap1\n                /* \"bitlime-core/contracts/BitlimeV2ERC20.sol\":1717:1722  value */\n              dup3\n                /* \"bitlime-core/contracts/BitlimeV2ERC20.sol\":1697:1716  balanceOf[from].sub */\n              tag_147\n                /* \"bitlime-core/contracts/BitlimeV2ERC20.sol\":1697:1723  balanceOf[from].sub(value) */\n              jump\t// in\n            tag_331:\n              sub(shl(0xa0, 0x01), 0x01)\n                /* \"bitlime-core/contracts/BitlimeV2ERC20.sol\":1679:1694  balanceOf[from] */\n              dup4\n              and\n              0x00\n              swap1\n              dup2\n              mstore\n              mstore(0x20, 0x01)\n              0x40\n              dup2\n              keccak256\n                /* \"bitlime-core/contracts/BitlimeV2ERC20.sol\":1679:1723  balanceOf[from] = balanceOf[from].sub(value) */\n              swap2\n              swap1\n              swap2\n              sstore\n                /* \"bitlime-core/contracts/BitlimeV2ERC20.sol\":1748:1759  totalSupply */\n              sload\n                /* \"bitlime-core/contracts/BitlimeV2ERC20.sol\":1748:1770  totalSupply.sub(value) */\n              tag_332\n              swap1\n                /* \"bitlime-core/contracts/BitlimeV2ERC20.sol\":1764:1769  value */\n              dup3\n                /* \"bitlime-core/contracts/BitlimeV2ERC20.sol\":1748:1763  totalSupply.sub */\n              tag_147\n                /* \"bitlime-core/contracts/BitlimeV2ERC20.sol\":1748:1770  totalSupply.sub(value) */\n              jump\t// in\n            tag_332:\n                /* \"bitlime-core/contracts/BitlimeV2ERC20.sol\":1734:1745  totalSupply */\n              0x00\n                /* \"bitlime-core/contracts/BitlimeV2ERC20.sol\":1734:1770  totalSupply = totalSupply.sub(value) */\n              swap1\n              dup2\n              sstore\n                /* \"bitlime-core/contracts/BitlimeV2ERC20.sol\":1786:1819  Transfer(from, address(0), value) */\n              0x40\n              dup1\n              mload\n              dup4\n              dup2\n              mstore\n              swap1\n              mload\n              sub(shl(0xa0, 0x01), 0x01)\n              dup6\n              and\n              swap2\n              0xddf252ad1be2c89b69c2b068fc378daa952ba7f163c4a11628f55a4df523b3ef\n              swap2\n              swap1\n              dup2\n              swap1\n              sub\n              0x20\n              add\n              swap1\n              log3\n                /* \"bitlime-core/contracts/BitlimeV2ERC20.sol\":1618:1827  function _burn(address from, uint value) internal {\r... */\n              pop\n              pop\n              jump\t// out\n                /* \"bitlime-core/contracts/libraries/UQ112x112.sol\":294:414  function encode(uint112 y) internal pure returns (uint224 z) {\r... */\n            tag_287:\n              sub(shl(0x70, 0x01), 0x01)\n                /* \"bitlime-core/contracts/libraries/UQ112x112.sol\":370:380  uint224(y) */\n              and\n              shl(0x70, 0x01)\n                /* \"bitlime-core/contracts/libraries/UQ112x112.sol\":370:387  uint224(y) * Q112 */\n              mul\n              swap1\n                /* \"bitlime-core/contracts/libraries/UQ112x112.sol\":294:414  function encode(uint112 y) internal pure returns (uint224 z) {\r... */\n              jump\t// out\n                /* \"bitlime-core/contracts/libraries/UQ112x112.sol\":485:593  function uqdiv(uint224 x, uint112 y) internal pure returns (uint224 z) {\r... */\n            tag_288:\n                /* \"bitlime-core/contracts/libraries/UQ112x112.sol\":545:554  uint224 z */\n              0x00\n              sub(shl(0x70, 0x01), 0x01)\n                /* \"bitlime-core/contracts/libraries/UQ112x112.sol\":575:585  uint224(y) */\n              dup3\n              and\n              sub(shl(0xe0, 0x01), 0x01)\n                /* \"bitlime-core/contracts/libraries/UQ112x112.sol\":571:585  x / uint224(y) */\n              dup5\n              and\n                /* \"bitlime-core/contracts/libraries/UQ112x112.sol\":575:585  uint224(y) */\n              dup2\n                /* \"bitlime-core/contracts/libraries/UQ112x112.sol\":571:585  x / uint224(y) */\n              tag_335\n              jumpi\n              invalid\n            tag_335:\n              div\n              swap4\n                /* \"bitlime-core/contracts/libraries/UQ112x112.sol\":485:593  function uqdiv(uint224 x, uint112 y) internal pure returns (uint224 z) {\r... */\n              swap3\n              pop\n              pop\n              pop\n              jump\t// out\n                /* \"bitlime-core/contracts/libraries/SafeMath.sol\":160:288  function add(uint x, uint y) internal pure returns (uint z) {\r... */\n            tag_295:\n                /* \"bitlime-core/contracts/libraries/SafeMath.sol\":244:249  x + y */\n              dup1\n              dup3\n              add\n                /* \"bitlime-core/contracts/libraries/SafeMath.sol\":239:255  (z = x + y) >= x */\n              dup3\n              dup2\n              lt\n              iszero\n                /* \"bitlime-core/contracts/libraries/SafeMath.sol\":231:280  require((z = x + y) >= x, 'ds-math-add-overflow') */\n              tag_158\n              jumpi\n              0x40\n              dup1\n              mload\n              shl(0xe5, 0x461bcd)\n              dup2\n              mstore\n              0x20\n              0x04\n              dup3\n              add\n              mstore\n              0x14\n              0x24\n              dup3\n              add\n              mstore\n              shl(0x60, 0x64732d6d6174682d6164642d6f766572666c6f77)\n              0x44\n              dup3\n              add\n              mstore\n              swap1\n              mload\n              swap1\n              dup2\n              swap1\n              sub\n              0x64\n              add\n              swap1\n              revert\n            stop\n            data_11aae1451e92178ca9557b0da8e89c1a0cb66439f2c79e2c015b2b1c66f8c10e 4269746c696d6556323a20494e53554646494349454e545f4c49515549444954595f4d494e544544\n            data_2e659678d10ece155b14bdac98ce93e7bff4499e732071af82c61e52a437e847 4269746c696d6556323a20494e53554646494349454e545f494e5055545f414d4f554e54\n            data_9c31f546836fef68e48c77674d61c5187863c856fd31a93ea5e92163d3264089 4269746c696d6556323a20494e53554646494349454e545f4f55545055545f414d4f554e54\n            data_ad84f473b4861a87a7c2e9e59f92cb79221bbc15014bdee38cdd94fc09af824b 4269746c696d6556323a20494e53554646494349454e545f4c49515549444954595f4255524e4544\n            data_d5323258f0a8544d611f8358491cb469df3ed77d3f47339d7596e213964c6862 4269746c696d6556323a20494e53554646494349454e545f4c4951554944495459\n\n            auxdata: 0xa265627a7a72315820f6ef9184442b3b686f51447ee02ee0d13214d0a3ab1328a65673167eb0d3b4dd64736f6c63430005100032\n        }\n    }\n\n    auxdata: 0xa265627a7a72315820b0e6616588b53457679b0f4a4d042707ad0a18fd549b5ac1a4f58f0830fc02f764736f6c63430005100032\n}\n",
				"bytecode": {
					"linkReferences": {},
					"object": "6080604052601960005534801561001557600080fd5b50604051612bf1380380612bf18339818101604052602081101561003857600080fd5b5051600280546001600160a01b0319166001600160a01b03909216919091179055612b89806100686000396000f3fe608060405234801561001057600080fd5b50600436106100a95760003560e01c806369fe0e2d1161007157806369fe0e2d14610119578063a2e74af614610138578063c9c653961461015e578063ddca3f431461018c578063e6a4390514610194578063f46901ed146101c2576100a9565b8063017e7e58146100ae578063094b7415146100d25780631e3dd18b146100da578063574f2ba3146100f75780635855a25a14610111575b600080fd5b6100b66101e8565b604080516001600160a01b039092168252519081900360200190f35b6100b66101f7565b6100b6600480360360208110156100f057600080fd5b5035610206565b6100ff61022d565b60408051918252519081900360200190f35b6100ff610233565b6101366004803603602081101561012f57600080fd5b50356102c6565b005b6101366004803603602081101561014e57600080fd5b50356001600160a01b0316610321565b6100b66004803603604081101561017457600080fd5b506001600160a01b0381358116916020013516610399565b6100ff6106ca565b6100b6600480360360408110156101aa57600080fd5b506001600160a01b03813581169160200135166106d0565b610136600480360360208110156101d857600080fd5b50356001600160a01b03166106f6565b6001546001600160a01b031681565b6002546001600160a01b031681565b6004818154811061021357fe5b6000918252602090912001546001600160a01b0316905081565b60045490565b6040516102426020820161076e565b6020820181038252601f19601f820116604052506040516020018082805190602001908083835b602083106102885780518252601f199092019160209182019101610269565b6001836020036101000a0380198251168184511680821785525050505050509050019150506040516020818303038152906040528051906020012081565b6002546001600160a01b0316331461031c576040805162461bcd60e51b81526020600482015260146024820152732134ba3634b6b2ab191d102327a92124a22222a760611b604482015290519081900360640190fd5b600055565b6002546001600160a01b03163314610377576040805162461bcd60e51b81526020600482015260146024820152732134ba3634b6b2ab191d102327a92124a22222a760611b604482015290519081900360640190fd5b600280546001600160a01b0319166001600160a01b0392909216919091179055565b6000816001600160a01b0316836001600160a01b03161415610402576040805162461bcd60e51b815260206004820152601e60248201527f4269746c696d6556323a204944454e544943414c5f4144445245535345530000604482015290519081900360640190fd5b600080836001600160a01b0316856001600160a01b031610610425578385610428565b84845b90925090506001600160a01b038216610488576040805162461bcd60e51b815260206004820152601760248201527f4269746c696d6556323a205a45524f5f41444452455353000000000000000000604482015290519081900360640190fd5b6001600160a01b038281166000908152600360209081526040808320858516845290915290205416156104fb576040805162461bcd60e51b81526020600482015260166024820152754269746c696d6556323a20504149525f45584953545360501b604482015290519081900360640190fd5b60606040518060200161050d9061076e565b6020820181038252601f19601f8201166040525090506000838360405160200180836001600160a01b03166001600160a01b031660601b8152601401826001600160a01b03166001600160a01b031660601b815260140192505050604051602081830303815290604052805190602001209050808251602084016000f56040805163485cc95560e01b81526001600160a01b038781166004830152868116602483015291519297509087169163485cc9559160448082019260009290919082900301818387803b1580156105e057600080fd5b505af11580156105f4573d6000803e3d6000fd5b505050506001600160a01b0384811660008181526003602081815260408084208987168086529083528185208054978d166001600160a01b031998891681179091559383528185208686528352818520805488168517905560048054600181018255958190527f8a35acfbc15ff81a39ae7d344fd709f28e8600b4aa8c65c6b64bfe7fe36bd19b90950180549097168417909655925483519283529082015281517f0d3648bd0f6ba80134a33ba9275ac585d9d315f0ad8355cddefde31afa28d0e9929181900390910190a35050505092915050565b60005481565b60036020908152600092835260408084209091529082529020546001600160a01b031681565b6002546001600160a01b0316331461074c576040805162461bcd60e51b81526020600482015260146024820152732134ba3634b6b2ab191d102327a92124a22222a760611b604482015290519081900360640190fd5b600180546001600160a01b0319166001600160a01b0392909216919091179055565b6123d98061077c8339019056fe60806040526001600c5534801561001557600080fd5b5060405146908060526123878239604080519182900360520182208282018252600a8352692134ba3634b6b2902b1960b11b6020938401528151808301835260018152603160f81b908401528151808401919091527f446e80230380561d906573d2b5dbfc9fadb3f5adee8411e56a4c6511d92876e3818301527fc89efdaa54c0f20c7adf612882df0950f5a951637e0307cdcb4c672f298b8bc6606082015260808101949094523060a0808601919091528151808603909101815260c09094019052825192019190912060035550600580546001600160a01b03191633179055612282806101056000396000f3fe608060405234801561001057600080fd5b50600436106101a95760003560e01c80636a627842116100f9578063ba9a7a5611610097578063d21220a711610071578063d21220a714610534578063d505accf1461053c578063dd62ed3e1461058d578063fff6cae9146105bb576101a9565b8063ba9a7a56146104fe578063bc25cf7714610506578063c45a01551461052c576101a9565b80637ecebe00116100d35780637ecebe001461046557806389afcb441461048b57806395d89b41146104ca578063a9059cbb146104d2576101a9565b80636a6278421461041157806370a08231146104375780637464fc3d1461045d576101a9565b806323b872dd116101665780633644e515116101405780633644e515146103cb578063485cc955146103d35780635909c0d5146104015780635a3d549314610409576101a9565b806323b872dd1461036f57806330adf81f146103a5578063313ce567146103ad576101a9565b8063022c0d9f146101ae57806306fdde031461023c5780630902f1ac146102b9578063095ea7b3146102f15780630dfe16811461033157806318160ddd14610355575b600080fd5b61023a600480360360808110156101c457600080fd5b8135916020810135916001600160a01b0360408301351691908101906080810160608201356401000000008111156101fb57600080fd5b82018360208201111561020d57600080fd5b8035906020019184600183028401116401000000008311171561022f57600080fd5b5090925090506105c3565b005b610244610afe565b6040805160208082528351818301528351919283929083019185019080838360005b8381101561027e578181015183820152602001610266565b50505050905090810190601f1680156102ab5780820380516001836020036101000a031916815260200191505b509250505060405180910390f35b6102c1610b24565b604080516001600160701b03948516815292909316602083015263ffffffff168183015290519081900360600190f35b61031d6004803603604081101561030757600080fd5b506001600160a01b038135169060200135610b4e565b604080519115158252519081900360200190f35b610339610b65565b604080516001600160a01b039092168252519081900360200190f35b61035d610b74565b60408051918252519081900360200190f35b61031d6004803603606081101561038557600080fd5b506001600160a01b03813581169160208101359091169060400135610b7a565b61035d610c14565b6103b5610c38565b6040805160ff9092168252519081900360200190f35b61035d610c3d565b61023a600480360360408110156103e957600080fd5b506001600160a01b0381358116916020013516610c43565b61035d610cc7565b61035d610ccd565b61035d6004803603602081101561042757600080fd5b50356001600160a01b0316610cd3565b61035d6004803603602081101561044d57600080fd5b50356001600160a01b0316610fd3565b61035d610fe5565b61035d6004803603602081101561047b57600080fd5b50356001600160a01b0316610feb565b6104b1600480360360208110156104a157600080fd5b50356001600160a01b0316610ffd565b6040805192835260208301919091528051918290030190f35b6102446113a3565b61031d600480360360408110156104e857600080fd5b506001600160a01b0381351690602001356113c6565b61035d6113d3565b61023a6004803603602081101561051c57600080fd5b50356001600160a01b03166113d9565b610339611544565b610339611553565b61023a600480360360e081101561055257600080fd5b506001600160a01b03813581169160208101359091169060408101359060608101359060ff6080820135169060a08101359060c00135611562565b61035d600480360360408110156105a357600080fd5b506001600160a01b0381358116916020013516611764565b61023a611781565b600c5460011461060e576040805162461bcd60e51b8152602060048201526011602482015270109a5d1b1a5b59558c8e881313d0d2d151607a1b604482015290519081900360640190fd5b6000600c55841515806106215750600084115b61065c5760405162461bcd60e51b81526004018080602001828103825260258152602001806121e06025913960400191505060405180910390fd5b600080610667610b24565b5091509150816001600160701b03168710801561068c5750806001600160701b031686105b6106c75760405162461bcd60e51b815260040180806020018281038252602181526020018061222d6021913960400191505060405180910390fd5b60065460075460009182916001600160a01b039182169190811690891682148015906107055750806001600160a01b0316896001600160a01b031614155b61074e576040805162461bcd60e51b81526020600482015260156024820152744269746c696d6556323a20494e56414c49445f544f60581b604482015290519081900360640190fd5b8a1561075f5761075f828a8d6118e3565b891561077057610770818a8c6118e3565b861561082b57886001600160a01b03166342dc568e338d8d8c8c6040518663ffffffff1660e01b815260040180866001600160a01b03166001600160a01b03168152602001858152602001848152602001806020018281038252848482818152602001925080828437600081840152601f19601f8201169050808301925050509650505050505050600060405180830381600087803b15801561081257600080fd5b505af1158015610826573d6000803e3d6000fd5b505050505b604080516370a0823160e01b815230600482015290516001600160a01b038416916370a08231916024808301926020929190829003018186803b15801561087157600080fd5b505afa158015610885573d6000803e3d6000fd5b505050506040513d602081101561089b57600080fd5b5051604080516370a0823160e01b815230600482015290519195506001600160a01b038316916370a0823191602480820192602092909190829003018186803b1580156108e757600080fd5b505afa1580156108fb573d6000803e3d6000fd5b505050506040513d602081101561091157600080fd5b5051925060009150506001600160701b0385168a90038311610934576000610943565b89856001600160701b03160383035b9050600089856001600160701b031603831161096057600061096f565b89856001600160701b03160383035b905060008211806109805750600081115b6109bb5760405162461bcd60e51b81526004018080602001828103825260248152602001806121bc6024913960400191505060405180910390fd5b60006109ef6109d184601963ffffffff611a7d16565b6109e38761271063ffffffff611a7d16565b9063ffffffff611ae016565b90506000610a076109d184601963ffffffff611a7d16565b9050610a38620f4240610a2c6001600160701b038b8116908b1663ffffffff611a7d16565b9063ffffffff611a7d16565b610a48838363ffffffff611a7d16565b1015610a8a576040805162461bcd60e51b815260206004820152600c60248201526b4269746c696d6556323a204b60a01b604482015290519081900360640190fd5b5050610a9884848888611b30565b60408051838152602081018390528082018d9052606081018c905290516001600160a01b038b169133917fd78ad95fa46c994b6551d0da85fc275fe613ce37657fb8d5e3d130840159d8229181900360800190a350506001600c55505050505050505050565b6040518060400160405280600a8152602001692134ba3634b6b2902b1960b11b81525081565b6008546001600160701b0380821692600160701b830490911691600160e01b900463ffffffff1690565b6000610b5b338484611cf5565b5060015b92915050565b6006546001600160a01b031681565b60005481565b6001600160a01b038316600090815260026020908152604080832033845290915281205460001914610bff576001600160a01b0384166000908152600260209081526040808320338452909152902054610bda908363ffffffff611ae016565b6001600160a01b03851660009081526002602090815260408083203384529091529020555b610c0a848484611d57565b5060019392505050565b7f6e71edae12b1b97f4d1f60370fef10105fa2faae0126114a169c64845d6126c981565b601281565b60035481565b6005546001600160a01b03163314610c99576040805162461bcd60e51b81526020600482015260146024820152732134ba3634b6b2ab191d102327a92124a22222a760611b604482015290519081900360640190fd5b600680546001600160a01b039384166001600160a01b03199182161790915560078054929093169116179055565b60095481565b600a5481565b6000600c54600114610d20576040805162461bcd60e51b8152602060048201526011602482015270109a5d1b1a5b59558c8e881313d0d2d151607a1b604482015290519081900360640190fd5b6000600c81905580610d30610b24565b50600654604080516370a0823160e01b815230600482015290519395509193506000926001600160a01b03909116916370a08231916024808301926020929190829003018186803b158015610d8457600080fd5b505afa158015610d98573d6000803e3d6000fd5b505050506040513d6020811015610dae57600080fd5b5051600754604080516370a0823160e01b815230600482015290519293506000926001600160a01b03909216916370a0823191602480820192602092909190829003018186803b158015610e0157600080fd5b505afa158015610e15573d6000803e3d6000fd5b505050506040513d6020811015610e2b57600080fd5b505190506000610e4a836001600160701b03871663ffffffff611ae016565b90506000610e67836001600160701b03871663ffffffff611ae016565b90506000610e758787611e11565b60005490915080610eb257610e9e6103e86109e3610e99878763ffffffff611a7d16565b611f6f565b9850610ead60006103e8611fc1565b610f01565b610efe6001600160701b038916610ecf868463ffffffff611a7d16565b81610ed657fe5b046001600160701b038916610ef1868563ffffffff611a7d16565b81610ef857fe5b04612057565b98505b60008911610f405760405162461bcd60e51b81526004018080602001828103825260288152602001806121946028913960400191505060405180910390fd5b610f4a8a8a611fc1565b610f5686868a8a611b30565b8115610f8657600854610f82906001600160701b0380821691600160701b90041663ffffffff611a7d16565b600b555b6040805185815260208101859052815133927f4c209b5fc8ad50758f13e2e1088ba56a560dff690a1c6fef26394f4c03821c4f928290030190a250506001600c5550949695505050505050565b60016020526000908152604090205481565b600b5481565b60046020526000908152604090205481565b600080600c5460011461104b576040805162461bcd60e51b8152602060048201526011602482015270109a5d1b1a5b59558c8e881313d0d2d151607a1b604482015290519081900360640190fd5b6000600c8190558061105b610b24565b50600654600754604080516370a0823160e01b815230600482015290519496509294506001600160a01b039182169391169160009184916370a08231916024808301926020929190829003018186803b1580156110b757600080fd5b505afa1580156110cb573d6000803e3d6000fd5b505050506040513d60208110156110e157600080fd5b5051604080516370a0823160e01b815230600482015290519192506000916001600160a01b038516916370a08231916024808301926020929190829003018186803b15801561112f57600080fd5b505afa158015611143573d6000803e3d6000fd5b505050506040513d602081101561115957600080fd5b5051306000908152600160205260408120549192506111788888611e11565b6000549091508061118f848763ffffffff611a7d16565b8161119657fe5b049a50806111aa848663ffffffff611a7d16565b816111b157fe5b04995060008b1180156111c4575060008a115b6111ff5760405162461bcd60e51b81526004018080602001828103825260288152602001806122056028913960400191505060405180910390fd5b611209308461206f565b611214878d8d6118e3565b61121f868d8c6118e3565b604080516370a0823160e01b815230600482015290516001600160a01b038916916370a08231916024808301926020929190829003018186803b15801561126557600080fd5b505afa158015611279573d6000803e3d6000fd5b505050506040513d602081101561128f57600080fd5b5051604080516370a0823160e01b815230600482015290519196506001600160a01b038816916370a0823191602480820192602092909190829003018186803b1580156112db57600080fd5b505afa1580156112ef573d6000803e3d6000fd5b505050506040513d602081101561130557600080fd5b5051935061131585858b8b611b30565b811561134557600854611341906001600160701b0380821691600160701b90041663ffffffff611a7d16565b600b555b604080518c8152602081018c905281516001600160a01b038f169233927fdccd412f0b1252819cb1fd330b93224ca42612892bb3f4f789976e6d81936496929081900390910190a35050505050505050506001600c81905550915091565b604051806040016040528060078152602001662624a6a296ab1960c91b81525081565b6000610b5b338484611d57565b6103e881565b600c54600114611424576040805162461bcd60e51b8152602060048201526011602482015270109a5d1b1a5b59558c8e881313d0d2d151607a1b604482015290519081900360640190fd5b6000600c55600654600754600854604080516370a0823160e01b815230600482015290516001600160a01b0394851694909316926114d392859287926114ce926001600160701b03169185916370a0823191602480820192602092909190829003018186803b15801561149657600080fd5b505afa1580156114aa573d6000803e3d6000fd5b505050506040513d60208110156114c057600080fd5b50519063ffffffff611ae016565b6118e3565b600854604080516370a0823160e01b8152306004820152905161153a92849287926114ce92600160701b90046001600160701b0316916001600160a01b038616916370a0823191602480820192602092909190829003018186803b15801561149657600080fd5b50506001600c5550565b6005546001600160a01b031681565b6007546001600160a01b031681565b428410156115ac576040805162461bcd60e51b8152602060048201526012602482015271109a5d1b1a5b59558c8e881156141254915160721b604482015290519081900360640190fd5b6003546001600160a01b0380891660008181526004602090815260408083208054600180820190925582517f6e71edae12b1b97f4d1f60370fef10105fa2faae0126114a169c64845d6126c98186015280840196909652958d166060860152608085018c905260a085019590955260c08085018b90528151808603909101815260e08501825280519083012061190160f01b6101008601526101028501969096526101228085019690965280518085039096018652610142840180825286519683019690962095839052610162840180825286905260ff89166101828501526101a284018890526101c28401879052519193926101e280820193601f1981019281900390910190855afa1580156116c7573d6000803e3d6000fd5b5050604051601f1901519150506001600160a01b038116158015906116fd5750886001600160a01b0316816001600160a01b0316145b61174e576040805162461bcd60e51b815260206004820152601c60248201527f4269746c696d6556323a20494e56414c49445f5349474e415455524500000000604482015290519081900360640190fd5b611759898989611cf5565b505050505050505050565b600260209081526000928352604080842090915290825290205481565b600c546001146117cc576040805162461bcd60e51b8152602060048201526011602482015270109a5d1b1a5b59558c8e881313d0d2d151607a1b604482015290519081900360640190fd5b6000600c55600654604080516370a0823160e01b815230600482015290516118dc926001600160a01b0316916370a08231916024808301926020929190829003018186803b15801561181d57600080fd5b505afa158015611831573d6000803e3d6000fd5b505050506040513d602081101561184757600080fd5b5051600754604080516370a0823160e01b815230600482015290516001600160a01b03909216916370a0823191602480820192602092909190829003018186803b15801561189457600080fd5b505afa1580156118a8573d6000803e3d6000fd5b505050506040513d60208110156118be57600080fd5b50516008546001600160701b0380821691600160701b900416611b30565b6001600c55565b604080518082018252601981527f7472616e7366657228616464726573732c75696e74323536290000000000000060209182015281516001600160a01b0385811660248301526044808301869052845180840390910181526064909201845291810180516001600160e01b031663a9059cbb60e01b1781529251815160009460609489169392918291908083835b602083106119905780518252601f199092019160209182019101611971565b6001836020036101000a0380198251168184511680821785525050505050509050019150506000604051808303816000865af19150503d80600081146119f2576040519150601f19603f3d011682016040523d82523d6000602084013e6119f7565b606091505b5091509150818015611a25575080511580611a255750808060200190516020811015611a2257600080fd5b50515b611a76576040805162461bcd60e51b815260206004820152601a60248201527f4269746c696d6556323a205452414e534645525f4641494c4544000000000000604482015290519081900360640190fd5b5050505050565b6000811580611a9857505080820282828281611a9557fe5b04145b610b5f576040805162461bcd60e51b815260206004820152601460248201527364732d6d6174682d6d756c2d6f766572666c6f7760601b604482015290519081900360640190fd5b80820382811115610b5f576040805162461bcd60e51b815260206004820152601560248201527464732d6d6174682d7375622d756e646572666c6f7760581b604482015290519081900360640190fd5b6001600160701b038411801590611b4e57506001600160701b038311155b611b95576040805162461bcd60e51b81526020600482015260136024820152724269746c696d6556323a204f564552464c4f5760681b604482015290519081900360640190fd5b60085463ffffffff42811691600160e01b90048116820390811615801590611bc557506001600160701b03841615155b8015611bd957506001600160701b03831615155b15611c4a578063ffffffff16611c0785611bf28661210d565b6001600160e01b03169063ffffffff61211f16565b600980546001600160e01b03929092169290920201905563ffffffff8116611c3284611bf28761210d565b600a80546001600160e01b0392909216929092020190555b600880546dffffffffffffffffffffffffffff19166001600160701b03888116919091176dffffffffffffffffffffffffffff60701b1916600160701b8883168102919091176001600160e01b0316600160e01b63ffffffff871602179283905560408051848416815291909304909116602082015281517f1c411e9a96e071241c2f21f7726b17ae89e3cab4c78be50e062b03a9fffbbad1929181900390910190a1505050505050565b6001600160a01b03808416600081815260026020908152604080832094871680845294825291829020859055815185815291517f8c5be1e5ebec7d5bd14f71427d1e84f3dd0314c0f7b2291e5b200ac8c7c3b9259281900390910190a3505050565b6001600160a01b038316600090815260016020526040902054611d80908263ffffffff611ae016565b6001600160a01b038085166000908152600160205260408082209390935590841681522054611db5908263ffffffff61214416565b6001600160a01b0380841660008181526001602090815260409182902094909455805185815290519193928716927fddf252ad1be2c89b69c2b068fc378daa952ba7f163c4a11628f55a4df523b3ef92918290030190a3505050565b600080600560009054906101000a90046001600160a01b03166001600160a01b031663017e7e586040518163ffffffff1660e01b815260040160206040518083038186803b158015611e6257600080fd5b505afa158015611e76573d6000803e3d6000fd5b505050506040513d6020811015611e8c57600080fd5b5051600b546001600160a01b038216158015945091925090611f5b578015611f56576000611ecf610e996001600160701b0388811690881663ffffffff611a7d16565b90506000611edc83611f6f565b905080821115611f53576000611f0a611efb848463ffffffff611ae016565b6000549063ffffffff611a7d16565b90506000611f2f83611f2386600563ffffffff611a7d16565b9063ffffffff61214416565b90506000818381611f3c57fe5b0490508015611f4f57611f4f8782611fc1565b5050505b50505b611f67565b8015611f67576000600b555b505092915050565b60006003821115611fb2575080600160028204015b81811015611fac57809150600281828581611f9b57fe5b040181611fa457fe5b049050611f84565b50611fbc565b8115611fbc575060015b919050565b600054611fd4908263ffffffff61214416565b60009081556001600160a01b038316815260016020526040902054611fff908263ffffffff61214416565b6001600160a01b03831660008181526001602090815260408083209490945583518581529351929391927fddf252ad1be2c89b69c2b068fc378daa952ba7f163c4a11628f55a4df523b3ef9281900390910190a35050565b60008183106120665781612068565b825b9392505050565b6001600160a01b038216600090815260016020526040902054612098908263ffffffff611ae016565b6001600160a01b038316600090815260016020526040812091909155546120c5908263ffffffff611ae016565b60009081556040805183815290516001600160a01b038516917fddf252ad1be2c89b69c2b068fc378daa952ba7f163c4a11628f55a4df523b3ef919081900360200190a35050565b6001600160701b0316600160701b0290565b60006001600160701b0382166001600160e01b0384168161213c57fe5b049392505050565b80820182811015610b5f576040805162461bcd60e51b815260206004820152601460248201527364732d6d6174682d6164642d6f766572666c6f7760601b604482015290519081900360640190fdfe4269746c696d6556323a20494e53554646494349454e545f4c49515549444954595f4d494e5445444269746c696d6556323a20494e53554646494349454e545f494e5055545f414d4f554e544269746c696d6556323a20494e53554646494349454e545f4f55545055545f414d4f554e544269746c696d6556323a20494e53554646494349454e545f4c49515549444954595f4255524e45444269746c696d6556323a20494e53554646494349454e545f4c4951554944495459a265627a7a72315820f6ef9184442b3b686f51447ee02ee0d13214d0a3ab1328a65673167eb0d3b4dd64736f6c63430005100032454950373132446f6d61696e28737472696e67206e616d652c737472696e672076657273696f6e2c75696e7432353620636861696e49642c6164647265737320766572696679696e67436f6e747261637429a265627a7a72315820b0e6616588b53457679b0f4a4d042707ad0a18fd549b5ac1a4f58f0830fc02f764736f6c63430005100032",
					"opcodes": "PUSH1 0x80 PUSH1 0x40 MSTORE PUSH1 0x19 PUSH1 0x0 SSTORE CALLVALUE DUP1 ISZERO PUSH2 0x15 JUMPI PUSH1 0x0 DUP1 REVERT JUMPDEST POP PUSH1 0x40 MLOAD PUSH2 0x2BF1 CODESIZE SUB DUP1 PUSH2 0x2BF1 DUP4 CODECOPY DUP2 DUP2 ADD PUSH1 0x40 MSTORE PUSH1 0x20 DUP2 LT ISZERO PUSH2 0x38 JUMPI PUSH1 0x0 DUP1 REVERT JUMPDEST POP MLOAD PUSH1 0x2 DUP1 SLOAD PUSH1 0x1 PUSH1 0x1 PUSH1 0xA0 SHL SUB NOT AND PUSH1 0x1 PUSH1 0x1 PUSH1 0xA0 SHL SUB SWAP1 SWAP3 AND SWAP2 SWAP1 SWAP2 OR SWAP1 SSTORE PUSH2 0x2B89 DUP1 PUSH2 0x68 PUSH1 0x0 CODECOPY PUSH1 0x0 RETURN INVALID PUSH1 0x80 PUSH1 0x40 MSTORE CALLVALUE DUP1 ISZERO PUSH2 0x10 JUMPI PUSH1 0x0 DUP1 REVERT JUMPDEST POP PUSH1 0x4 CALLDATASIZE LT PUSH2 0xA9 JUMPI PUSH1 0x0 CALLDATALOAD PUSH1 0xE0 SHR DUP1 PUSH4 0x69FE0E2D GT PUSH2 0x71 JUMPI DUP1 PUSH4 0x69FE0E2D EQ PUSH2 0x119 JUMPI DUP1 PUSH4 0xA2E74AF6 EQ PUSH2 0x138 JUMPI DUP1 PUSH4 0xC9C65396 EQ PUSH2 0x15E JUMPI DUP1 PUSH4 0xDDCA3F43 EQ PUSH2 0x18C JUMPI DUP1 PUSH4 0xE6A43905 EQ PUSH2 0x194 JUMPI DUP1 PUSH4 0xF46901ED EQ PUSH2 0x1C2 JUMPI PUSH2 0xA9 JUMP JUMPDEST DUP1 PUSH4 0x17E7E58 EQ PUSH2 0xAE JUMPI DUP1 PUSH4 0x94B7415 EQ PUSH2 0xD2 JUMPI DUP1 PUSH4 0x1E3DD18B EQ PUSH2 0xDA JUMPI DUP1 PUSH4 0x574F2BA3 EQ PUSH2 0xF7 JUMPI DUP1 PUSH4 0x5855A25A EQ PUSH2 0x111 JUMPI JUMPDEST PUSH1 0x0 DUP1 REVERT JUMPDEST PUSH2 0xB6 PUSH2 0x1E8 JUMP JUMPDEST PUSH1 0x40 DUP1 MLOAD PUSH1 0x1 PUSH1 0x1 PUSH1 0xA0 SHL SUB SWAP1 SWAP3 AND DUP3 MSTORE MLOAD SWAP1 DUP2 SWAP1 SUB PUSH1 0x20 ADD SWAP1 RETURN JUMPDEST PUSH2 0xB6 PUSH2 0x1F7 JUMP JUMPDEST PUSH2 0xB6 PUSH1 0x4 DUP1 CALLDATASIZE SUB PUSH1 0x20 DUP2 LT ISZERO PUSH2 0xF0 JUMPI PUSH1 0x0 DUP1 REVERT JUMPDEST POP CALLDATALOAD PUSH2 0x206 JUMP JUMPDEST PUSH2 0xFF PUSH2 0x22D JUMP JUMPDEST PUSH1 0x40 DUP1 MLOAD SWAP2 DUP3 MSTORE MLOAD SWAP1 DUP2 SWAP1 SUB PUSH1 0x20 ADD SWAP1 RETURN JUMPDEST PUSH2 0xFF PUSH2 0x233 JUMP JUMPDEST PUSH2 0x136 PUSH1 0x4 DUP1 CALLDATASIZE SUB PUSH1 0x20 DUP2 LT ISZERO PUSH2 0x12F JUMPI PUSH1 0x0 DUP1 REVERT JUMPDEST POP CALLDATALOAD PUSH2 0x2C6 JUMP JUMPDEST STOP JUMPDEST PUSH2 0x136 PUSH1 0x4 DUP1 CALLDATASIZE SUB PUSH1 0x20 DUP2 LT ISZERO PUSH2 0x14E JUMPI PUSH1 0x0 DUP1 REVERT JUMPDEST POP CALLDATALOAD PUSH1 0x1 PUSH1 0x1 PUSH1 0xA0 SHL SUB AND PUSH2 0x321 JUMP JUMPDEST PUSH2 0xB6 PUSH1 0x4 DUP1 CALLDATASIZE SUB PUSH1 0x40 DUP2 LT ISZERO PUSH2 0x174 JUMPI PUSH1 0x0 DUP1 REVERT JUMPDEST POP PUSH1 0x1 PUSH1 0x1 PUSH1 0xA0 SHL SUB DUP2 CALLDATALOAD DUP2 AND SWAP2 PUSH1 0x20 ADD CALLDATALOAD AND PUSH2 0x399 JUMP JUMPDEST PUSH2 0xFF PUSH2 0x6CA JUMP JUMPDEST PUSH2 0xB6 PUSH1 0x4 DUP1 CALLDATASIZE SUB PUSH1 0x40 DUP2 LT ISZERO PUSH2 0x1AA JUMPI PUSH1 0x0 DUP1 REVERT JUMPDEST POP PUSH1 0x1 PUSH1 0x1 PUSH1 0xA0 SHL SUB DUP2 CALLDATALOAD DUP2 AND SWAP2 PUSH1 0x20 ADD CALLDATALOAD AND PUSH2 0x6D0 JUMP JUMPDEST PUSH2 0x136 PUSH1 0x4 DUP1 CALLDATASIZE SUB PUSH1 0x20 DUP2 LT ISZERO PUSH2 0x1D8 JUMPI PUSH1 0x0 DUP1 REVERT JUMPDEST POP CALLDATALOAD PUSH1 0x1 PUSH1 0x1 PUSH1 0xA0 SHL SUB AND PUSH2 0x6F6 JUMP JUMPDEST PUSH1 0x1 SLOAD PUSH1 0x1 PUSH1 0x1 PUSH1 0xA0 SHL SUB AND DUP2 JUMP JUMPDEST PUSH1 0x2 SLOAD PUSH1 0x1 PUSH1 0x1 PUSH1 0xA0 SHL SUB AND DUP2 JUMP JUMPDEST PUSH1 0x4 DUP2 DUP2 SLOAD DUP2 LT PUSH2 0x213 JUMPI INVALID JUMPDEST PUSH1 0x0 SWAP2 DUP3 MSTORE PUSH1 0x20 SWAP1 SWAP2 KECCAK256 ADD SLOAD PUSH1 0x1 PUSH1 0x1 PUSH1 0xA0 SHL SUB AND SWAP1 POP DUP2 JUMP JUMPDEST PUSH1 0x4 SLOAD SWAP1 JUMP JUMPDEST PUSH1 0x40 MLOAD PUSH2 0x242 PUSH1 0x20 DUP3 ADD PUSH2 0x76E JUMP JUMPDEST PUSH1 0x20 DUP3 ADD DUP2 SUB DUP3 MSTORE PUSH1 0x1F NOT PUSH1 0x1F DUP3 ADD AND PUSH1 0x40 MSTORE POP PUSH1 0x40 MLOAD PUSH1 0x20 ADD DUP1 DUP3 DUP1 MLOAD SWAP1 PUSH1 0x20 ADD SWAP1 DUP1 DUP4 DUP4 JUMPDEST PUSH1 0x20 DUP4 LT PUSH2 0x288 JUMPI DUP1 MLOAD DUP3 MSTORE PUSH1 0x1F NOT SWAP1 SWAP3 ADD SWAP2 PUSH1 0x20 SWAP2 DUP3 ADD SWAP2 ADD PUSH2 0x269 JUMP JUMPDEST PUSH1 0x1 DUP4 PUSH1 0x20 SUB PUSH2 0x100 EXP SUB DUP1 NOT DUP3 MLOAD AND DUP2 DUP5 MLOAD AND DUP1 DUP3 OR DUP6 MSTORE POP POP POP POP POP POP SWAP1 POP ADD SWAP2 POP POP PUSH1 0x40 MLOAD PUSH1 0x20 DUP2 DUP4 SUB SUB DUP2 MSTORE SWAP1 PUSH1 0x40 MSTORE DUP1 MLOAD SWAP1 PUSH1 0x20 ADD KECCAK256 DUP2 JUMP JUMPDEST PUSH1 0x2 SLOAD PUSH1 0x1 PUSH1 0x1 PUSH1 0xA0 SHL SUB AND CALLER EQ PUSH2 0x31C JUMPI PUSH1 0x40 DUP1 MLOAD PUSH3 0x461BCD PUSH1 0xE5 SHL DUP2 MSTORE PUSH1 0x20 PUSH1 0x4 DUP3 ADD MSTORE PUSH1 0x14 PUSH1 0x24 DUP3 ADD MSTORE PUSH20 0x2134BA3634B6B2AB191D102327A92124A22222A7 PUSH1 0x61 SHL PUSH1 0x44 DUP3 ADD MSTORE SWAP1 MLOAD SWAP1 DUP2 SWAP1 SUB PUSH1 0x64 ADD SWAP1 REVERT JUMPDEST PUSH1 0x0 SSTORE JUMP JUMPDEST PUSH1 0x2 SLOAD PUSH1 0x1 PUSH1 0x1 PUSH1 0xA0 SHL SUB AND CALLER EQ PUSH2 0x377 JUMPI PUSH1 0x40 DUP1 MLOAD PUSH3 0x461BCD PUSH1 0xE5 SHL DUP2 MSTORE PUSH1 0x20 PUSH1 0x4 DUP3 ADD MSTORE PUSH1 0x14 PUSH1 0x24 DUP3 ADD MSTORE PUSH20 0x2134BA3634B6B2AB191D102327A92124A22222A7 PUSH1 0x61 SHL PUSH1 0x44 DUP3 ADD MSTORE SWAP1 MLOAD SWAP1 DUP2 SWAP1 SUB PUSH1 0x64 ADD SWAP1 REVERT JUMPDEST PUSH1 0x2 DUP1 SLOAD PUSH1 0x1 PUSH1 0x1 PUSH1 0xA0 SHL SUB NOT AND PUSH1 0x1 PUSH1 0x1 PUSH1 0xA0 SHL SUB SWAP3 SWAP1 SWAP3 AND SWAP2 SWAP1 SWAP2 OR SWAP1 SSTORE JUMP JUMPDEST PUSH1 0x0 DUP2 PUSH1 0x1 PUSH1 0x1 PUSH1 0xA0 SHL SUB AND DUP4 PUSH1 0x1 PUSH1 0x1 PUSH1 0xA0 SHL SUB AND EQ ISZERO PUSH2 0x402 JUMPI PUSH1 0x40 DUP1 MLOAD PUSH3 0x461BCD PUSH1 0xE5 SHL DUP2 MSTORE PUSH1 0x20 PUSH1 0x4 DUP3 ADD MSTORE PUSH1 0x1E PUSH1 0x24 DUP3 ADD MSTORE PUSH32 0x4269746C696D6556323A204944454E544943414C5F4144445245535345530000 PUSH1 0x44 DUP3 ADD MSTORE SWAP1 MLOAD SWAP1 DUP2 SWAP1 SUB PUSH1 0x64 ADD SWAP1 REVERT JUMPDEST PUSH1 0x0 DUP1 DUP4 PUSH1 0x1 PUSH1 0x1 PUSH1 0xA0 SHL SUB AND DUP6 PUSH1 0x1 PUSH1 0x1 PUSH1 0xA0 SHL SUB AND LT PUSH2 0x425 JUMPI DUP4 DUP6 PUSH2 0x428 JUMP JUMPDEST DUP5 DUP5 JUMPDEST SWAP1 SWAP3 POP SWAP1 POP PUSH1 0x1 PUSH1 0x1 PUSH1 0xA0 SHL SUB DUP3 AND PUSH2 0x488 JUMPI PUSH1 0x40 DUP1 MLOAD PUSH3 0x461BCD PUSH1 0xE5 SHL DUP2 MSTORE PUSH1 0x20 PUSH1 0x4 DUP3 ADD MSTORE PUSH1 0x17 PUSH1 0x24 DUP3 ADD MSTORE PUSH32 0x4269746C696D6556323A205A45524F5F41444452455353000000000000000000 PUSH1 0x44 DUP3 ADD MSTORE SWAP1 MLOAD SWAP1 DUP2 SWAP1 SUB PUSH1 0x64 ADD SWAP1 REVERT JUMPDEST PUSH1 0x1 PUSH1 0x1 PUSH1 0xA0 SHL SUB DUP3 DUP2 AND PUSH1 0x0 SWAP1 DUP2 MSTORE PUSH1 0x3 PUSH1 0x20 SWAP1 DUP2 MSTORE PUSH1 0x40 DUP1 DUP4 KECCAK256 DUP6 DUP6 AND DUP5 MSTORE SWAP1 SWAP2 MSTORE SWAP1 KECCAK256 SLOAD AND ISZERO PUSH2 0x4FB JUMPI PUSH1 0x40 DUP1 MLOAD PUSH3 0x461BCD PUSH1 0xE5 SHL DUP2 MSTORE PUSH1 0x20 PUSH1 0x4 DUP3 ADD MSTORE PUSH1 0x16 PUSH1 0x24 DUP3 ADD MSTORE PUSH22 0x4269746C696D6556323A20504149525F455849535453 PUSH1 0x50 SHL PUSH1 0x44 DUP3 ADD MSTORE SWAP1 MLOAD SWAP1 DUP2 SWAP1 SUB PUSH1 0x64 ADD SWAP1 REVERT JUMPDEST PUSH1 0x60 PUSH1 0x40 MLOAD DUP1 PUSH1 0x20 ADD PUSH2 0x50D SWAP1 PUSH2 0x76E JUMP JUMPDEST PUSH1 0x20 DUP3 ADD DUP2 SUB DUP3 MSTORE PUSH1 0x1F NOT PUSH1 0x1F DUP3 ADD AND PUSH1 0x40 MSTORE POP SWAP1 POP PUSH1 0x0 DUP4 DUP4 PUSH1 0x40 MLOAD PUSH1 0x20 ADD DUP1 DUP4 PUSH1 0x1 PUSH1 0x1 PUSH1 0xA0 SHL SUB AND PUSH1 0x1 PUSH1 0x1 PUSH1 0xA0 SHL SUB AND PUSH1 0x60 SHL DUP2 MSTORE PUSH1 0x14 ADD DUP3 PUSH1 0x1 PUSH1 0x1 PUSH1 0xA0 SHL SUB AND PUSH1 0x1 PUSH1 0x1 PUSH1 0xA0 SHL SUB AND PUSH1 0x60 SHL DUP2 MSTORE PUSH1 0x14 ADD SWAP3 POP POP POP PUSH1 0x40 MLOAD PUSH1 0x20 DUP2 DUP4 SUB SUB DUP2 MSTORE SWAP1 PUSH1 0x40 MSTORE DUP1 MLOAD SWAP1 PUSH1 0x20 ADD KECCAK256 SWAP1 POP DUP1 DUP3 MLOAD PUSH1 0x20 DUP5 ADD PUSH1 0x0 CREATE2 PUSH1 0x40 DUP1 MLOAD PUSH4 0x485CC955 PUSH1 0xE0 SHL DUP2 MSTORE PUSH1 0x1 PUSH1 0x1 PUSH1 0xA0 SHL SUB DUP8 DUP2 AND PUSH1 0x4 DUP4 ADD MSTORE DUP7 DUP2 AND PUSH1 0x24 DUP4 ADD MSTORE SWAP2 MLOAD SWAP3 SWAP8 POP SWAP1 DUP8 AND SWAP2 PUSH4 0x485CC955 SWAP2 PUSH1 0x44 DUP1 DUP3 ADD SWAP3 PUSH1 0x0 SWAP3 SWAP1 SWAP2 SWAP1 DUP3 SWAP1 SUB ADD DUP2 DUP4 DUP8 DUP1 EXTCODESIZE ISZERO DUP1 ISZERO PUSH2 0x5E0 JUMPI PUSH1 0x0 DUP1 REVERT JUMPDEST POP GAS CALL ISZERO DUP1 ISZERO PUSH2 0x5F4 JUMPI RETURNDATASIZE PUSH1 0x0 DUP1 RETURNDATACOPY RETURNDATASIZE PUSH1 0x0 REVERT JUMPDEST POP POP POP POP PUSH1 0x1 PUSH1 0x1 PUSH1 0xA0 SHL SUB DUP5 DUP2 AND PUSH1 0x0 DUP2 DUP2 MSTORE PUSH1 0x3 PUSH1 0x20 DUP2 DUP2 MSTORE PUSH1 0x40 DUP1 DUP5 KECCAK256 DUP10 DUP8 AND DUP1 DUP7 MSTORE SWAP1 DUP4 MSTORE DUP2 DUP6 KECCAK256 DUP1 SLOAD SWAP8 DUP14 AND PUSH1 0x1 PUSH1 0x1 PUSH1 0xA0 SHL SUB NOT SWAP9 DUP10 AND DUP2 OR SWAP1 SWAP2 SSTORE SWAP4 DUP4 MSTORE DUP2 DUP6 KECCAK256 DUP7 DUP7 MSTORE DUP4 MSTORE DUP2 DUP6 KECCAK256 DUP1 SLOAD DUP9 AND DUP6 OR SWAP1 SSTORE PUSH1 0x4 DUP1 SLOAD PUSH1 0x1 DUP2 ADD DUP3 SSTORE SWAP6 DUP2 SWAP1 MSTORE PUSH32 0x8A35ACFBC15FF81A39AE7D344FD709F28E8600B4AA8C65C6B64BFE7FE36BD19B SWAP1 SWAP6 ADD DUP1 SLOAD SWAP1 SWAP8 AND DUP5 OR SWAP1 SWAP7 SSTORE SWAP3 SLOAD DUP4 MLOAD SWAP3 DUP4 MSTORE SWAP1 DUP3 ADD MSTORE DUP2 MLOAD PUSH32 0xD3648BD0F6BA80134A33BA9275AC585D9D315F0AD8355CDDEFDE31AFA28D0E9 SWAP3 SWAP2 DUP2 SWAP1 SUB SWAP1 SWAP2 ADD SWAP1 LOG3 POP POP POP POP SWAP3 SWAP2 POP POP JUMP JUMPDEST PUSH1 0x0 SLOAD DUP2 JUMP JUMPDEST PUSH1 0x3 PUSH1 0x20 SWAP1 DUP2 MSTORE PUSH1 0x0 SWAP3 DUP4 MSTORE PUSH1 0x40 DUP1 DUP5 KECCAK256 SWAP1 SWAP2 MSTORE SWAP1 DUP3 MSTORE SWAP1 KECCAK256 SLOAD PUSH1 0x1 PUSH1 0x1 PUSH1 0xA0 SHL SUB AND DUP2 JUMP JUMPDEST PUSH1 0x2 SLOAD PUSH1 0x1 PUSH1 0x1 PUSH1 0xA0 SHL SUB AND CALLER EQ PUSH2 0x74C JUMPI PUSH1 0x40 DUP1 MLOAD PUSH3 0x461BCD PUSH1 0xE5 SHL DUP2 MSTORE PUSH1 0x20 PUSH1 0x4 DUP3 ADD MSTORE PUSH1 0x14 PUSH1 0x24 DUP3 ADD MSTORE PUSH20 0x2134BA3634B6B2AB191D102327A92124A22222A7 PUSH1 0x61 SHL PUSH1 0x44 DUP3 ADD MSTORE SWAP1 MLOAD SWAP1 DUP2 SWAP1 SUB PUSH1 0x64 ADD SWAP1 REVERT JUMPDEST PUSH1 0x1 DUP1 SLOAD PUSH1 0x1 PUSH1 0x1 PUSH1 0xA0 SHL SUB NOT AND PUSH1 0x1 PUSH1 0x1 PUSH1 0xA0 SHL SUB SWAP3 SWAP1 SWAP3 AND SWAP2 SWAP1 SWAP2 OR SWAP1 SSTORE JUMP JUMPDEST PUSH2 0x23D9 DUP1 PUSH2 0x77C DUP4 CODECOPY ADD SWAP1 JUMP INVALID PUSH1 0x80 PUSH1 0x40 MSTORE PUSH1 0x1 PUSH1 0xC SSTORE CALLVALUE DUP1 ISZERO PUSH2 0x15 JUMPI PUSH1 0x0 DUP1 REVERT JUMPDEST POP PUSH1 0x40 MLOAD CHAINID SWAP1 DUP1 PUSH1 0x52 PUSH2 0x2387 DUP3 CODECOPY PUSH1 0x40 DUP1 MLOAD SWAP2 DUP3 SWAP1 SUB PUSH1 0x52 ADD DUP3 KECCAK256 DUP3 DUP3 ADD DUP3 MSTORE PUSH1 0xA DUP4 MSTORE PUSH10 0x2134BA3634B6B2902B19 PUSH1 0xB1 SHL PUSH1 0x20 SWAP4 DUP5 ADD MSTORE DUP2 MLOAD DUP1 DUP4 ADD DUP4 MSTORE PUSH1 0x1 DUP2 MSTORE PUSH1 0x31 PUSH1 0xF8 SHL SWAP1 DUP5 ADD MSTORE DUP2 MLOAD DUP1 DUP5 ADD SWAP2 SWAP1 SWAP2 MSTORE PUSH32 0x446E80230380561D906573D2B5DBFC9FADB3F5ADEE8411E56A4C6511D92876E3 DUP2 DUP4 ADD MSTORE PUSH32 0xC89EFDAA54C0F20C7ADF612882DF0950F5A951637E0307CDCB4C672F298B8BC6 PUSH1 0x60 DUP3 ADD MSTORE PUSH1 0x80 DUP2 ADD SWAP5 SWAP1 SWAP5 MSTORE ADDRESS PUSH1 0xA0 DUP1 DUP7 ADD SWAP2 SWAP1 SWAP2 MSTORE DUP2 MLOAD DUP1 DUP7 SUB SWAP1 SWAP2 ADD DUP2 MSTORE PUSH1 0xC0 SWAP1 SWAP5 ADD SWAP1 MSTORE DUP3 MLOAD SWAP3 ADD SWAP2 SWAP1 SWAP2 KECCAK256 PUSH1 0x3 SSTORE POP PUSH1 0x5 DUP1 SLOAD PUSH1 0x1 PUSH1 0x1 PUSH1 0xA0 SHL SUB NOT AND CALLER OR SWAP1 SSTORE PUSH2 0x2282 DUP1 PUSH2 0x105 PUSH1 0x0 CODECOPY PUSH1 0x0 RETURN INVALID PUSH1 0x80 PUSH1 0x40 MSTORE CALLVALUE DUP1 ISZERO PUSH2 0x10 JUMPI PUSH1 0x0 DUP1 REVERT JUMPDEST POP PUSH1 0x4 CALLDATASIZE LT PUSH2 0x1A9 JUMPI PUSH1 0x0 CALLDATALOAD PUSH1 0xE0 SHR DUP1 PUSH4 0x6A627842 GT PUSH2 0xF9 JUMPI DUP1 PUSH4 0xBA9A7A56 GT PUSH2 0x97 JUMPI DUP1 PUSH4 0xD21220A7 GT PUSH2 0x71 JUMPI DUP1 PUSH4 0xD21220A7 EQ PUSH2 0x534 JUMPI DUP1 PUSH4 0xD505ACCF EQ PUSH2 0x53C JUMPI DUP1 PUSH4 0xDD62ED3E EQ PUSH2 0x58D JUMPI DUP1 PUSH4 0xFFF6CAE9 EQ PUSH2 0x5BB JUMPI PUSH2 0x1A9 JUMP JUMPDEST DUP1 PUSH4 0xBA9A7A56 EQ PUSH2 0x4FE JUMPI DUP1 PUSH4 0xBC25CF77 EQ PUSH2 0x506 JUMPI DUP1 PUSH4 0xC45A0155 EQ PUSH2 0x52C JUMPI PUSH2 0x1A9 JUMP JUMPDEST DUP1 PUSH4 0x7ECEBE00 GT PUSH2 0xD3 JUMPI DUP1 PUSH4 0x7ECEBE00 EQ PUSH2 0x465 JUMPI DUP1 PUSH4 0x89AFCB44 EQ PUSH2 0x48B JUMPI DUP1 PUSH4 0x95D89B41 EQ PUSH2 0x4CA JUMPI DUP1 PUSH4 0xA9059CBB EQ PUSH2 0x4D2 JUMPI PUSH2 0x1A9 JUMP JUMPDEST DUP1 PUSH4 0x6A627842 EQ PUSH2 0x411 JUMPI DUP1 PUSH4 0x70A08231 EQ PUSH2 0x437 JUMPI DUP1 PUSH4 0x7464FC3D EQ PUSH2 0x45D JUMPI PUSH2 0x1A9 JUMP JUMPDEST DUP1 PUSH4 0x23B872DD GT PUSH2 0x166 JUMPI DUP1 PUSH4 0x3644E515 GT PUSH2 0x140 JUMPI DUP1 PUSH4 0x3644E515 EQ PUSH2 0x3CB JUMPI DUP1 PUSH4 0x485CC955 EQ PUSH2 0x3D3 JUMPI DUP1 PUSH4 0x5909C0D5 EQ PUSH2 0x401 JUMPI DUP1 PUSH4 0x5A3D5493 EQ PUSH2 0x409 JUMPI PUSH2 0x1A9 JUMP JUMPDEST DUP1 PUSH4 0x23B872DD EQ PUSH2 0x36F JUMPI DUP1 PUSH4 0x30ADF81F EQ PUSH2 0x3A5 JUMPI DUP1 PUSH4 0x313CE567 EQ PUSH2 0x3AD JUMPI PUSH2 0x1A9 JUMP JUMPDEST DUP1 PUSH4 0x22C0D9F EQ PUSH2 0x1AE JUMPI DUP1 PUSH4 0x6FDDE03 EQ PUSH2 0x23C JUMPI DUP1 PUSH4 0x902F1AC EQ PUSH2 0x2B9 JUMPI DUP1 PUSH4 0x95EA7B3 EQ PUSH2 0x2F1 JUMPI DUP1 PUSH4 0xDFE1681 EQ PUSH2 0x331 JUMPI DUP1 PUSH4 0x18160DDD EQ PUSH2 0x355 JUMPI JUMPDEST PUSH1 0x0 DUP1 REVERT JUMPDEST PUSH2 0x23A PUSH1 0x4 DUP1 CALLDATASIZE SUB PUSH1 0x80 DUP2 LT ISZERO PUSH2 0x1C4 JUMPI PUSH1 0x0 DUP1 REVERT JUMPDEST DUP2 CALLDATALOAD SWAP2 PUSH1 0x20 DUP2 ADD CALLDATALOAD SWAP2 PUSH1 0x1 PUSH1 0x1 PUSH1 0xA0 SHL SUB PUSH1 0x40 DUP4 ADD CALLDATALOAD AND SWAP2 SWAP1 DUP2 ADD SWAP1 PUSH1 0x80 DUP2 ADD PUSH1 0x60 DUP3 ADD CALLDATALOAD PUSH5 0x100000000 DUP2 GT ISZERO PUSH2 0x1FB JUMPI PUSH1 0x0 DUP1 REVERT JUMPDEST DUP3 ADD DUP4 PUSH1 0x20 DUP3 ADD GT ISZERO PUSH2 0x20D JUMPI PUSH1 0x0 DUP1 REVERT JUMPDEST DUP1 CALLDATALOAD SWAP1 PUSH1 0x20 ADD SWAP2 DUP5 PUSH1 0x1 DUP4 MUL DUP5 ADD GT PUSH5 0x100000000 DUP4 GT OR ISZERO PUSH2 0x22F JUMPI PUSH1 0x0 DUP1 REVERT JUMPDEST POP SWAP1 SWAP3 POP SWAP1 POP PUSH2 0x5C3 JUMP JUMPDEST STOP JUMPDEST PUSH2 0x244 PUSH2 0xAFE JUMP JUMPDEST PUSH1 0x40 DUP1 MLOAD PUSH1 0x20 DUP1 DUP3 MSTORE DUP4 MLOAD DUP2 DUP4 ADD MSTORE DUP4 MLOAD SWAP2 SWAP3 DUP4 SWAP3 SWAP1 DUP4 ADD SWAP2 DUP6 ADD SWAP1 DUP1 DUP4 DUP4 PUSH1 0x0 JUMPDEST DUP4 DUP2 LT ISZERO PUSH2 0x27E JUMPI DUP2 DUP2 ADD MLOAD DUP4 DUP3 ADD MSTORE PUSH1 0x20 ADD PUSH2 0x266 JUMP JUMPDEST POP POP POP POP SWAP1 POP SWAP1 DUP2 ADD SWAP1 PUSH1 0x1F AND DUP1 ISZERO PUSH2 0x2AB JUMPI DUP1 DUP3 SUB DUP1 MLOAD PUSH1 0x1 DUP4 PUSH1 0x20 SUB PUSH2 0x100 EXP SUB NOT AND DUP2 MSTORE PUSH1 0x20 ADD SWAP2 POP JUMPDEST POP SWAP3 POP POP POP PUSH1 0x40 MLOAD DUP1 SWAP2 SUB SWAP1 RETURN JUMPDEST PUSH2 0x2C1 PUSH2 0xB24 JUMP JUMPDEST PUSH1 0x40 DUP1 MLOAD PUSH1 0x1 PUSH1 0x1 PUSH1 0x70 SHL SUB SWAP5 DUP6 AND DUP2 MSTORE SWAP3 SWAP1 SWAP4 AND PUSH1 0x20 DUP4 ADD MSTORE PUSH4 0xFFFFFFFF AND DUP2 DUP4 ADD MSTORE SWAP1 MLOAD SWAP1 DUP2 SWAP1 SUB PUSH1 0x60 ADD SWAP1 RETURN JUMPDEST PUSH2 0x31D PUSH1 0x4 DUP1 CALLDATASIZE SUB PUSH1 0x40 DUP2 LT ISZERO PUSH2 0x307 JUMPI PUSH1 0x0 DUP1 REVERT JUMPDEST POP PUSH1 0x1 PUSH1 0x1 PUSH1 0xA0 SHL SUB DUP2 CALLDATALOAD AND SWAP1 PUSH1 0x20 ADD CALLDATALOAD PUSH2 0xB4E JUMP JUMPDEST PUSH1 0x40 DUP1 MLOAD SWAP2 ISZERO ISZERO DUP3 MSTORE MLOAD SWAP1 DUP2 SWAP1 SUB PUSH1 0x20 ADD SWAP1 RETURN JUMPDEST PUSH2 0x339 PUSH2 0xB65 JUMP JUMPDEST PUSH1 0x40 DUP1 MLOAD PUSH1 0x1 PUSH1 0x1 PUSH1 0xA0 SHL SUB SWAP1 SWAP3 AND DUP3 MSTORE MLOAD SWAP1 DUP2 SWAP1 SUB PUSH1 0x20 ADD SWAP1 RETURN JUMPDEST PUSH2 0x35D PUSH2 0xB74 JUMP JUMPDEST PUSH1 0x40 DUP1 MLOAD SWAP2 DUP3 MSTORE MLOAD SWAP1 DUP2 SWAP1 SUB PUSH1 0x20 ADD SWAP1 RETURN JUMPDEST PUSH2 0x31D PUSH1 0x4 DUP1 CALLDATASIZE SUB PUSH1 0x60 DUP2 LT ISZERO PUSH2 0x385 JUMPI PUSH1 0x0 DUP1 REVERT JUMPDEST POP PUSH1 0x1 PUSH1 0x1 PUSH1 0xA0 SHL SUB DUP2 CALLDATALOAD DUP2 AND SWAP2 PUSH1 0x20 DUP2 ADD CALLDATALOAD SWAP1 SWAP2 AND SWAP1 PUSH1 0x40 ADD CALLDATALOAD PUSH2 0xB7A JUMP JUMPDEST PUSH2 0x35D PUSH2 0xC14 JUMP JUMPDEST PUSH2 0x3B5 PUSH2 0xC38 JUMP JUMPDEST PUSH1 0x40 DUP1 MLOAD PUSH1 0xFF SWAP1 SWAP3 AND DUP3 MSTORE MLOAD SWAP1 DUP2 SWAP1 SUB PUSH1 0x20 ADD SWAP1 RETURN JUMPDEST PUSH2 0x35D PUSH2 0xC3D JUMP JUMPDEST PUSH2 0x23A PUSH1 0x4 DUP1 CALLDATASIZE SUB PUSH1 0x40 DUP2 LT ISZERO PUSH2 0x3E9 JUMPI PUSH1 0x0 DUP1 REVERT JUMPDEST POP PUSH1 0x1 PUSH1 0x1 PUSH1 0xA0 SHL SUB DUP2 CALLDATALOAD DUP2 AND SWAP2 PUSH1 0x20 ADD CALLDATALOAD AND PUSH2 0xC43 JUMP JUMPDEST PUSH2 0x35D PUSH2 0xCC7 JUMP JUMPDEST PUSH2 0x35D PUSH2 0xCCD JUMP JUMPDEST PUSH2 0x35D PUSH1 0x4 DUP1 CALLDATASIZE SUB PUSH1 0x20 DUP2 LT ISZERO PUSH2 0x427 JUMPI PUSH1 0x0 DUP1 REVERT JUMPDEST POP CALLDATALOAD PUSH1 0x1 PUSH1 0x1 PUSH1 0xA0 SHL SUB AND PUSH2 0xCD3 JUMP JUMPDEST PUSH2 0x35D PUSH1 0x4 DUP1 CALLDATASIZE SUB PUSH1 0x20 DUP2 LT ISZERO PUSH2 0x44D JUMPI PUSH1 0x0 DUP1 REVERT JUMPDEST POP CALLDATALOAD PUSH1 0x1 PUSH1 0x1 PUSH1 0xA0 SHL SUB AND PUSH2 0xFD3 JUMP JUMPDEST PUSH2 0x35D PUSH2 0xFE5 JUMP JUMPDEST PUSH2 0x35D PUSH1 0x4 DUP1 CALLDATASIZE SUB PUSH1 0x20 DUP2 LT ISZERO PUSH2 0x47B JUMPI PUSH1 0x0 DUP1 REVERT JUMPDEST POP CALLDATALOAD PUSH1 0x1 PUSH1 0x1 PUSH1 0xA0 SHL SUB AND PUSH2 0xFEB JUMP JUMPDEST PUSH2 0x4B1 PUSH1 0x4 DUP1 CALLDATASIZE SUB PUSH1 0x20 DUP2 LT ISZERO PUSH2 0x4A1 JUMPI PUSH1 0x0 DUP1 REVERT JUMPDEST POP CALLDATALOAD PUSH1 0x1 PUSH1 0x1 PUSH1 0xA0 SHL SUB AND PUSH2 0xFFD JUMP JUMPDEST PUSH1 0x40 DUP1 MLOAD SWAP3 DUP4 MSTORE PUSH1 0x20 DUP4 ADD SWAP2 SWAP1 SWAP2 MSTORE DUP1 MLOAD SWAP2 DUP3 SWAP1 SUB ADD SWAP1 RETURN JUMPDEST PUSH2 0x244 PUSH2 0x13A3 JUMP JUMPDEST PUSH2 0x31D PUSH1 0x4 DUP1 CALLDATASIZE SUB PUSH1 0x40 DUP2 LT ISZERO PUSH2 0x4E8 JUMPI PUSH1 0x0 DUP1 REVERT JUMPDEST POP PUSH1 0x1 PUSH1 0x1 PUSH1 0xA0 SHL SUB DUP2 CALLDATALOAD AND SWAP1 PUSH1 0x20 ADD CALLDATALOAD PUSH2 0x13C6 JUMP JUMPDEST PUSH2 0x35D PUSH2 0x13D3 JUMP JUMPDEST PUSH2 0x23A PUSH1 0x4 DUP1 CALLDATASIZE SUB PUSH1 0x20 DUP2 LT ISZERO PUSH2 0x51C JUMPI PUSH1 0x0 DUP1 REVERT JUMPDEST POP CALLDATALOAD PUSH1 0x1 PUSH1 0x1 PUSH1 0xA0 SHL SUB AND PUSH2 0x13D9 JUMP JUMPDEST PUSH2 0x339 PUSH2 0x1544 JUMP JUMPDEST PUSH2 0x339 PUSH2 0x1553 JUMP JUMPDEST PUSH2 0x23A PUSH1 0x4 DUP1 CALLDATASIZE SUB PUSH1 0xE0 DUP2 LT ISZERO PUSH2 0x552 JUMPI PUSH1 0x0 DUP1 REVERT JUMPDEST POP PUSH1 0x1 PUSH1 0x1 PUSH1 0xA0 SHL SUB DUP2 CALLDATALOAD DUP2 AND SWAP2 PUSH1 0x20 DUP2 ADD CALLDATALOAD SWAP1 SWAP2 AND SWAP1 PUSH1 0x40 DUP2 ADD CALLDATALOAD SWAP1 PUSH1 0x60 DUP2 ADD CALLDATALOAD SWAP1 PUSH1 0xFF PUSH1 0x80 DUP3 ADD CALLDATALOAD AND SWAP1 PUSH1 0xA0 DUP2 ADD CALLDATALOAD SWAP1 PUSH1 0xC0 ADD CALLDATALOAD PUSH2 0x1562 JUMP JUMPDEST PUSH2 0x35D PUSH1 0x4 DUP1 CALLDATASIZE SUB PUSH1 0x40 DUP2 LT ISZERO PUSH2 0x5A3 JUMPI PUSH1 0x0 DUP1 REVERT JUMPDEST POP PUSH1 0x1 PUSH1 0x1 PUSH1 0xA0 SHL SUB DUP2 CALLDATALOAD DUP2 AND SWAP2 PUSH1 0x20 ADD CALLDATALOAD AND PUSH2 0x1764 JUMP JUMPDEST PUSH2 0x23A PUSH2 0x1781 JUMP JUMPDEST PUSH1 0xC SLOAD PUSH1 0x1 EQ PUSH2 0x60E JUMPI PUSH1 0x40 DUP1 MLOAD PUSH3 0x461BCD PUSH1 0xE5 SHL DUP2 MSTORE PUSH1 0x20 PUSH1 0x4 DUP3 ADD MSTORE PUSH1 0x11 PUSH1 0x24 DUP3 ADD MSTORE PUSH17 0x109A5D1B1A5B59558C8E881313D0D2D151 PUSH1 0x7A SHL PUSH1 0x44 DUP3 ADD MSTORE SWAP1 MLOAD SWAP1 DUP2 SWAP1 SUB PUSH1 0x64 ADD SWAP1 REVERT JUMPDEST PUSH1 0x0 PUSH1 0xC SSTORE DUP5 ISZERO ISZERO DUP1 PUSH2 0x621 JUMPI POP PUSH1 0x0 DUP5 GT JUMPDEST PUSH2 0x65C JUMPI PUSH1 0x40 MLOAD PUSH3 0x461BCD PUSH1 0xE5 SHL DUP2 MSTORE PUSH1 0x4 ADD DUP1 DUP1 PUSH1 0x20 ADD DUP3 DUP2 SUB DUP3 MSTORE PUSH1 0x25 DUP2 MSTORE PUSH1 0x20 ADD DUP1 PUSH2 0x21E0 PUSH1 0x25 SWAP2 CODECOPY PUSH1 0x40 ADD SWAP2 POP POP PUSH1 0x40 MLOAD DUP1 SWAP2 SUB SWAP1 REVERT JUMPDEST PUSH1 0x0 DUP1 PUSH2 0x667 PUSH2 0xB24 JUMP JUMPDEST POP SWAP2 POP SWAP2 POP DUP2 PUSH1 0x1 PUSH1 0x1 PUSH1 0x70 SHL SUB AND DUP8 LT DUP1 ISZERO PUSH2 0x68C JUMPI POP DUP1 PUSH1 0x1 PUSH1 0x1 PUSH1 0x70 SHL SUB AND DUP7 LT JUMPDEST PUSH2 0x6C7 JUMPI PUSH1 0x40 MLOAD PUSH3 0x461BCD PUSH1 0xE5 SHL DUP2 MSTORE PUSH1 0x4 ADD DUP1 DUP1 PUSH1 0x20 ADD DUP3 DUP2 SUB DUP3 MSTORE PUSH1 0x21 DUP2 MSTORE PUSH1 0x20 ADD DUP1 PUSH2 0x222D PUSH1 0x21 SWAP2 CODECOPY PUSH1 0x40 ADD SWAP2 POP POP PUSH1 0x40 MLOAD DUP1 SWAP2 SUB SWAP1 REVERT JUMPDEST PUSH1 0x6 SLOAD PUSH1 0x7 SLOAD PUSH1 0x0 SWAP2 DUP3 SWAP2 PUSH1 0x1 PUSH1 0x1 PUSH1 0xA0 SHL SUB SWAP2 DUP3 AND SWAP2 SWAP1 DUP2 AND SWAP1 DUP10 AND DUP3 EQ DUP1 ISZERO SWAP1 PUSH2 0x705 JUMPI POP DUP1 PUSH1 0x1 PUSH1 0x1 PUSH1 0xA0 SHL SUB AND DUP10 PUSH1 0x1 PUSH1 0x1 PUSH1 0xA0 SHL SUB AND EQ ISZERO JUMPDEST PUSH2 0x74E JUMPI PUSH1 0x40 DUP1 MLOAD PUSH3 0x461BCD PUSH1 0xE5 SHL DUP2 MSTORE PUSH1 0x20 PUSH1 0x4 DUP3 ADD MSTORE PUSH1 0x15 PUSH1 0x24 DUP3 ADD MSTORE PUSH21 0x4269746C696D6556323A20494E56414C49445F544F PUSH1 0x58 SHL PUSH1 0x44 DUP3 ADD MSTORE SWAP1 MLOAD SWAP1 DUP2 SWAP1 SUB PUSH1 0x64 ADD SWAP1 REVERT JUMPDEST DUP11 ISZERO PUSH2 0x75F JUMPI PUSH2 0x75F DUP3 DUP11 DUP14 PUSH2 0x18E3 JUMP JUMPDEST DUP10 ISZERO PUSH2 0x770 JUMPI PUSH2 0x770 DUP2 DUP11 DUP13 PUSH2 0x18E3 JUMP JUMPDEST DUP7 ISZERO PUSH2 0x82B JUMPI DUP9 PUSH1 0x1 PUSH1 0x1 PUSH1 0xA0 SHL SUB AND PUSH4 0x42DC568E CALLER DUP14 DUP14 DUP13 DUP13 PUSH1 0x40 MLOAD DUP7 PUSH4 0xFFFFFFFF AND PUSH1 0xE0 SHL DUP2 MSTORE PUSH1 0x4 ADD DUP1 DUP7 PUSH1 0x1 PUSH1 0x1 PUSH1 0xA0 SHL SUB AND PUSH1 0x1 PUSH1 0x1 PUSH1 0xA0 SHL SUB AND DUP2 MSTORE PUSH1 0x20 ADD DUP6 DUP2 MSTORE PUSH1 0x20 ADD DUP5 DUP2 MSTORE PUSH1 0x20 ADD DUP1 PUSH1 0x20 ADD DUP3 DUP2 SUB DUP3 MSTORE DUP5 DUP5 DUP3 DUP2 DUP2 MSTORE PUSH1 0x20 ADD SWAP3 POP DUP1 DUP3 DUP5 CALLDATACOPY PUSH1 0x0 DUP2 DUP5 ADD MSTORE PUSH1 0x1F NOT PUSH1 0x1F DUP3 ADD AND SWAP1 POP DUP1 DUP4 ADD SWAP3 POP POP POP SWAP7 POP POP POP POP POP POP POP PUSH1 0x0 PUSH1 0x40 MLOAD DUP1 DUP4 SUB DUP2 PUSH1 0x0 DUP8 DUP1 EXTCODESIZE ISZERO DUP1 ISZERO PUSH2 0x812 JUMPI PUSH1 0x0 DUP1 REVERT JUMPDEST POP GAS CALL ISZERO DUP1 ISZERO PUSH2 0x826 JUMPI RETURNDATASIZE PUSH1 0x0 DUP1 RETURNDATACOPY RETURNDATASIZE PUSH1 0x0 REVERT JUMPDEST POP POP POP POP JUMPDEST PUSH1 0x40 DUP1 MLOAD PUSH4 0x70A08231 PUSH1 0xE0 SHL DUP2 MSTORE ADDRESS PUSH1 0x4 DUP3 ADD MSTORE SWAP1 MLOAD PUSH1 0x1 PUSH1 0x1 PUSH1 0xA0 SHL SUB DUP5 AND SWAP2 PUSH4 0x70A08231 SWAP2 PUSH1 0x24 DUP1 DUP4 ADD SWAP3 PUSH1 0x20 SWAP3 SWAP2 SWAP1 DUP3 SWAP1 SUB ADD DUP2 DUP7 DUP1 EXTCODESIZE ISZERO DUP1 ISZERO PUSH2 0x871 JUMPI PUSH1 0x0 DUP1 REVERT JUMPDEST POP GAS STATICCALL ISZERO DUP1 ISZERO PUSH2 0x885 JUMPI RETURNDATASIZE PUSH1 0x0 DUP1 RETURNDATACOPY RETURNDATASIZE PUSH1 0x0 REVERT JUMPDEST POP POP POP POP PUSH1 0x40 MLOAD RETURNDATASIZE PUSH1 0x20 DUP2 LT ISZERO PUSH2 0x89B JUMPI PUSH1 0x0 DUP1 REVERT JUMPDEST POP MLOAD PUSH1 0x40 DUP1 MLOAD PUSH4 0x70A08231 PUSH1 0xE0 SHL DUP2 MSTORE ADDRESS PUSH1 0x4 DUP3 ADD MSTORE SWAP1 MLOAD SWAP2 SWAP6 POP PUSH1 0x1 PUSH1 0x1 PUSH1 0xA0 SHL SUB DUP4 AND SWAP2 PUSH4 0x70A08231 SWAP2 PUSH1 0x24 DUP1 DUP3 ADD SWAP3 PUSH1 0x20 SWAP3 SWAP1 SWAP2 SWAP1 DUP3 SWAP1 SUB ADD DUP2 DUP7 DUP1 EXTCODESIZE ISZERO DUP1 ISZERO PUSH2 0x8E7 JUMPI PUSH1 0x0 DUP1 REVERT JUMPDEST POP GAS STATICCALL ISZERO DUP1 ISZERO PUSH2 0x8FB JUMPI RETURNDATASIZE PUSH1 0x0 DUP1 RETURNDATACOPY RETURNDATASIZE PUSH1 0x0 REVERT JUMPDEST POP POP POP POP PUSH1 0x40 MLOAD RETURNDATASIZE PUSH1 0x20 DUP2 LT ISZERO PUSH2 0x911 JUMPI PUSH1 0x0 DUP1 REVERT JUMPDEST POP MLOAD SWAP3 POP PUSH1 0x0 SWAP2 POP POP PUSH1 0x1 PUSH1 0x1 PUSH1 0x70 SHL SUB DUP6 AND DUP11 SWAP1 SUB DUP4 GT PUSH2 0x934 JUMPI PUSH1 0x0 PUSH2 0x943 JUMP JUMPDEST DUP10 DUP6 PUSH1 0x1 PUSH1 0x1 PUSH1 0x70 SHL SUB AND SUB DUP4 SUB JUMPDEST SWAP1 POP PUSH1 0x0 DUP10 DUP6 PUSH1 0x1 PUSH1 0x1 PUSH1 0x70 SHL SUB AND SUB DUP4 GT PUSH2 0x960 JUMPI PUSH1 0x0 PUSH2 0x96F JUMP JUMPDEST DUP10 DUP6 PUSH1 0x1 PUSH1 0x1 PUSH1 0x70 SHL SUB AND SUB DUP4 SUB JUMPDEST SWAP1 POP PUSH1 0x0 DUP3 GT DUP1 PUSH2 0x980 JUMPI POP PUSH1 0x0 DUP2 GT JUMPDEST PUSH2 0x9BB JUMPI PUSH1 0x40 MLOAD PUSH3 0x461BCD PUSH1 0xE5 SHL DUP2 MSTORE PUSH1 0x4 ADD DUP1 DUP1 PUSH1 0x20 ADD DUP3 DUP2 SUB DUP3 MSTORE PUSH1 0x24 DUP2 MSTORE PUSH1 0x20 ADD DUP1 PUSH2 0x21BC PUSH1 0x24 SWAP2 CODECOPY PUSH1 0x40 ADD SWAP2 POP POP PUSH1 0x40 MLOAD DUP1 SWAP2 SUB SWAP1 REVERT JUMPDEST PUSH1 0x0 PUSH2 0x9EF PUSH2 0x9D1 DUP5 PUSH1 0x19 PUSH4 0xFFFFFFFF PUSH2 0x1A7D AND JUMP JUMPDEST PUSH2 0x9E3 DUP8 PUSH2 0x2710 PUSH4 0xFFFFFFFF PUSH2 0x1A7D AND JUMP JUMPDEST SWAP1 PUSH4 0xFFFFFFFF PUSH2 0x1AE0 AND JUMP JUMPDEST SWAP1 POP PUSH1 0x0 PUSH2 0xA07 PUSH2 0x9D1 DUP5 PUSH1 0x19 PUSH4 0xFFFFFFFF PUSH2 0x1A7D AND JUMP JUMPDEST SWAP1 POP PUSH2 0xA38 PUSH3 0xF4240 PUSH2 0xA2C PUSH1 0x1 PUSH1 0x1 PUSH1 0x70 SHL SUB DUP12 DUP2 AND SWAP1 DUP12 AND PUSH4 0xFFFFFFFF PUSH2 0x1A7D AND JUMP JUMPDEST SWAP1 PUSH4 0xFFFFFFFF PUSH2 0x1A7D AND JUMP JUMPDEST PUSH2 0xA48 DUP4 DUP4 PUSH4 0xFFFFFFFF PUSH2 0x1A7D AND JUMP JUMPDEST LT ISZERO PUSH2 0xA8A JUMPI PUSH1 0x40 DUP1 MLOAD PUSH3 0x461BCD PUSH1 0xE5 SHL DUP2 MSTORE PUSH1 0x20 PUSH1 0x4 DUP3 ADD MSTORE PUSH1 0xC PUSH1 0x24 DUP3 ADD MSTORE PUSH12 0x4269746C696D6556323A204B PUSH1 0xA0 SHL PUSH1 0x44 DUP3 ADD MSTORE SWAP1 MLOAD SWAP1 DUP2 SWAP1 SUB PUSH1 0x64 ADD SWAP1 REVERT JUMPDEST POP POP PUSH2 0xA98 DUP5 DUP5 DUP9 DUP9 PUSH2 0x1B30 JUMP JUMPDEST PUSH1 0x40 DUP1 MLOAD DUP4 DUP2 MSTORE PUSH1 0x20 DUP2 ADD DUP4 SWAP1 MSTORE DUP1 DUP3 ADD DUP14 SWAP1 MSTORE PUSH1 0x60 DUP2 ADD DUP13 SWAP1 MSTORE SWAP1 MLOAD PUSH1 0x1 PUSH1 0x1 PUSH1 0xA0 SHL SUB DUP12 AND SWAP2 CALLER SWAP2 PUSH32 0xD78AD95FA46C994B6551D0DA85FC275FE613CE37657FB8D5E3D130840159D822 SWAP2 DUP2 SWAP1 SUB PUSH1 0x80 ADD SWAP1 LOG3 POP POP PUSH1 0x1 PUSH1 0xC SSTORE POP POP POP POP POP POP POP POP POP JUMP JUMPDEST PUSH1 0x40 MLOAD DUP1 PUSH1 0x40 ADD PUSH1 0x40 MSTORE DUP1 PUSH1 0xA DUP2 MSTORE PUSH1 0x20 ADD PUSH10 0x2134BA3634B6B2902B19 PUSH1 0xB1 SHL DUP2 MSTORE POP DUP2 JUMP JUMPDEST PUSH1 0x8 SLOAD PUSH1 0x1 PUSH1 0x1 PUSH1 0x70 SHL SUB DUP1 DUP3 AND SWAP3 PUSH1 0x1 PUSH1 0x70 SHL DUP4 DIV SWAP1 SWAP2 AND SWAP2 PUSH1 0x1 PUSH1 0xE0 SHL SWAP1 DIV PUSH4 0xFFFFFFFF AND SWAP1 JUMP JUMPDEST PUSH1 0x0 PUSH2 0xB5B CALLER DUP5 DUP5 PUSH2 0x1CF5 JUMP JUMPDEST POP PUSH1 0x1 JUMPDEST SWAP3 SWAP2 POP POP JUMP JUMPDEST PUSH1 0x6 SLOAD PUSH1 0x1 PUSH1 0x1 PUSH1 0xA0 SHL SUB AND DUP2 JUMP JUMPDEST PUSH1 0x0 SLOAD DUP2 JUMP JUMPDEST PUSH1 0x1 PUSH1 0x1 PUSH1 0xA0 SHL SUB DUP4 AND PUSH1 0x0 SWAP1 DUP2 MSTORE PUSH1 0x2 PUSH1 0x20 SWAP1 DUP2 MSTORE PUSH1 0x40 DUP1 DUP4 KECCAK256 CALLER DUP5 MSTORE SWAP1 SWAP2 MSTORE DUP2 KECCAK256 SLOAD PUSH1 0x0 NOT EQ PUSH2 0xBFF JUMPI PUSH1 0x1 PUSH1 0x1 PUSH1 0xA0 SHL SUB DUP5 AND PUSH1 0x0 SWAP1 DUP2 MSTORE PUSH1 0x2 PUSH1 0x20 SWAP1 DUP2 MSTORE PUSH1 0x40 DUP1 DUP4 KECCAK256 CALLER DUP5 MSTORE SWAP1 SWAP2 MSTORE SWAP1 KECCAK256 SLOAD PUSH2 0xBDA SWAP1 DUP4 PUSH4 0xFFFFFFFF PUSH2 0x1AE0 AND JUMP JUMPDEST PUSH1 0x1 PUSH1 0x1 PUSH1 0xA0 SHL SUB DUP6 AND PUSH1 0x0 SWAP1 DUP2 MSTORE PUSH1 0x2 PUSH1 0x20 SWAP1 DUP2 MSTORE PUSH1 0x40 DUP1 DUP4 KECCAK256 CALLER DUP5 MSTORE SWAP1 SWAP2 MSTORE SWAP1 KECCAK256 SSTORE JUMPDEST PUSH2 0xC0A DUP5 DUP5 DUP5 PUSH2 0x1D57 JUMP JUMPDEST POP PUSH1 0x1 SWAP4 SWAP3 POP POP POP JUMP JUMPDEST PUSH32 0x6E71EDAE12B1B97F4D1F60370FEF10105FA2FAAE0126114A169C64845D6126C9 DUP2 JUMP JUMPDEST PUSH1 0x12 DUP2 JUMP JUMPDEST PUSH1 0x3 SLOAD DUP2 JUMP JUMPDEST PUSH1 0x5 SLOAD PUSH1 0x1 PUSH1 0x1 PUSH1 0xA0 SHL SUB AND CALLER EQ PUSH2 0xC99 JUMPI PUSH1 0x40 DUP1 MLOAD PUSH3 0x461BCD PUSH1 0xE5 SHL DUP2 MSTORE PUSH1 0x20 PUSH1 0x4 DUP3 ADD MSTORE PUSH1 0x14 PUSH1 0x24 DUP3 ADD MSTORE PUSH20 0x2134BA3634B6B2AB191D102327A92124A22222A7 PUSH1 0x61 SHL PUSH1 0x44 DUP3 ADD MSTORE SWAP1 MLOAD SWAP1 DUP2 SWAP1 SUB PUSH1 0x64 ADD SWAP1 REVERT JUMPDEST PUSH1 0x6 DUP1 SLOAD PUSH1 0x1 PUSH1 0x1 PUSH1 0xA0 SHL SUB SWAP4 DUP5 AND PUSH1 0x1 PUSH1 0x1 PUSH1 0xA0 SHL SUB NOT SWAP2 DUP3 AND OR SWAP1 SWAP2 SSTORE PUSH1 0x7 DUP1 SLOAD SWAP3 SWAP1 SWAP4 AND SWAP2 AND OR SWAP1 SSTORE JUMP JUMPDEST PUSH1 0x9 SLOAD DUP2 JUMP JUMPDEST PUSH1 0xA SLOAD DUP2 JUMP JUMPDEST PUSH1 0x0 PUSH1 0xC SLOAD PUSH1 0x1 EQ PUSH2 0xD20 JUMPI PUSH1 0x40 DUP1 MLOAD PUSH3 0x461BCD PUSH1 0xE5 SHL DUP2 MSTORE PUSH1 0x20 PUSH1 0x4 DUP3 ADD MSTORE PUSH1 0x11 PUSH1 0x24 DUP3 ADD MSTORE PUSH17 0x109A5D1B1A5B59558C8E881313D0D2D151 PUSH1 0x7A SHL PUSH1 0x44 DUP3 ADD MSTORE SWAP1 MLOAD SWAP1 DUP2 SWAP1 SUB PUSH1 0x64 ADD SWAP1 REVERT JUMPDEST PUSH1 0x0 PUSH1 0xC DUP2 SWAP1 SSTORE DUP1 PUSH2 0xD30 PUSH2 0xB24 JUMP JUMPDEST POP PUSH1 0x6 SLOAD PUSH1 0x40 DUP1 MLOAD PUSH4 0x70A08231 PUSH1 0xE0 SHL DUP2 MSTORE ADDRESS PUSH1 0x4 DUP3 ADD MSTORE SWAP1 MLOAD SWAP4 SWAP6 POP SWAP2 SWAP4 POP PUSH1 0x0 SWAP3 PUSH1 0x1 PUSH1 0x1 PUSH1 0xA0 SHL SUB SWAP1 SWAP2 AND SWAP2 PUSH4 0x70A08231 SWAP2 PUSH1 0x24 DUP1 DUP4 ADD SWAP3 PUSH1 0x20 SWAP3 SWAP2 SWAP1 DUP3 SWAP1 SUB ADD DUP2 DUP7 DUP1 EXTCODESIZE ISZERO DUP1 ISZERO PUSH2 0xD84 JUMPI PUSH1 0x0 DUP1 REVERT JUMPDEST POP GAS STATICCALL ISZERO DUP1 ISZERO PUSH2 0xD98 JUMPI RETURNDATASIZE PUSH1 0x0 DUP1 RETURNDATACOPY RETURNDATASIZE PUSH1 0x0 REVERT JUMPDEST POP POP POP POP PUSH1 0x40 MLOAD RETURNDATASIZE PUSH1 0x20 DUP2 LT ISZERO PUSH2 0xDAE JUMPI PUSH1 0x0 DUP1 REVERT JUMPDEST POP MLOAD PUSH1 0x7 SLOAD PUSH1 0x40 DUP1 MLOAD PUSH4 0x70A08231 PUSH1 0xE0 SHL DUP2 MSTORE ADDRESS PUSH1 0x4 DUP3 ADD MSTORE SWAP1 MLOAD SWAP3 SWAP4 POP PUSH1 0x0 SWAP3 PUSH1 0x1 PUSH1 0x1 PUSH1 0xA0 SHL SUB SWAP1 SWAP3 AND SWAP2 PUSH4 0x70A08231 SWAP2 PUSH1 0x24 DUP1 DUP3 ADD SWAP3 PUSH1 0x20 SWAP3 SWAP1 SWAP2 SWAP1 DUP3 SWAP1 SUB ADD DUP2 DUP7 DUP1 EXTCODESIZE ISZERO DUP1 ISZERO PUSH2 0xE01 JUMPI PUSH1 0x0 DUP1 REVERT JUMPDEST POP GAS STATICCALL ISZERO DUP1 ISZERO PUSH2 0xE15 JUMPI RETURNDATASIZE PUSH1 0x0 DUP1 RETURNDATACOPY RETURNDATASIZE PUSH1 0x0 REVERT JUMPDEST POP POP POP POP PUSH1 0x40 MLOAD RETURNDATASIZE PUSH1 0x20 DUP2 LT ISZERO PUSH2 0xE2B JUMPI PUSH1 0x0 DUP1 REVERT JUMPDEST POP MLOAD SWAP1 POP PUSH1 0x0 PUSH2 0xE4A DUP4 PUSH1 0x1 PUSH1 0x1 PUSH1 0x70 SHL SUB DUP8 AND PUSH4 0xFFFFFFFF PUSH2 0x1AE0 AND JUMP JUMPDEST SWAP1 POP PUSH1 0x0 PUSH2 0xE67 DUP4 PUSH1 0x1 PUSH1 0x1 PUSH1 0x70 SHL SUB DUP8 AND PUSH4 0xFFFFFFFF PUSH2 0x1AE0 AND JUMP JUMPDEST SWAP1 POP PUSH1 0x0 PUSH2 0xE75 DUP8 DUP8 PUSH2 0x1E11 JUMP JUMPDEST PUSH1 0x0 SLOAD SWAP1 SWAP2 POP DUP1 PUSH2 0xEB2 JUMPI PUSH2 0xE9E PUSH2 0x3E8 PUSH2 0x9E3 PUSH2 0xE99 DUP8 DUP8 PUSH4 0xFFFFFFFF PUSH2 0x1A7D AND JUMP JUMPDEST PUSH2 0x1F6F JUMP JUMPDEST SWAP9 POP PUSH2 0xEAD PUSH1 0x0 PUSH2 0x3E8 PUSH2 0x1FC1 JUMP JUMPDEST PUSH2 0xF01 JUMP JUMPDEST PUSH2 0xEFE PUSH1 0x1 PUSH1 0x1 PUSH1 0x70 SHL SUB DUP10 AND PUSH2 0xECF DUP7 DUP5 PUSH4 0xFFFFFFFF PUSH2 0x1A7D AND JUMP JUMPDEST DUP2 PUSH2 0xED6 JUMPI INVALID JUMPDEST DIV PUSH1 0x1 PUSH1 0x1 PUSH1 0x70 SHL SUB DUP10 AND PUSH2 0xEF1 DUP7 DUP6 PUSH4 0xFFFFFFFF PUSH2 0x1A7D AND JUMP JUMPDEST DUP2 PUSH2 0xEF8 JUMPI INVALID JUMPDEST DIV PUSH2 0x2057 JUMP JUMPDEST SWAP9 POP JUMPDEST PUSH1 0x0 DUP10 GT PUSH2 0xF40 JUMPI PUSH1 0x40 MLOAD PUSH3 0x461BCD PUSH1 0xE5 SHL DUP2 MSTORE PUSH1 0x4 ADD DUP1 DUP1 PUSH1 0x20 ADD DUP3 DUP2 SUB DUP3 MSTORE PUSH1 0x28 DUP2 MSTORE PUSH1 0x20 ADD DUP1 PUSH2 0x2194 PUSH1 0x28 SWAP2 CODECOPY PUSH1 0x40 ADD SWAP2 POP POP PUSH1 0x40 MLOAD DUP1 SWAP2 SUB SWAP1 REVERT JUMPDEST PUSH2 0xF4A DUP11 DUP11 PUSH2 0x1FC1 JUMP JUMPDEST PUSH2 0xF56 DUP7 DUP7 DUP11 DUP11 PUSH2 0x1B30 JUMP JUMPDEST DUP2 ISZERO PUSH2 0xF86 JUMPI PUSH1 0x8 SLOAD PUSH2 0xF82 SWAP1 PUSH1 0x1 PUSH1 0x1 PUSH1 0x70 SHL SUB DUP1 DUP3 AND SWAP2 PUSH1 0x1 PUSH1 0x70 SHL SWAP1 DIV AND PUSH4 0xFFFFFFFF PUSH2 0x1A7D AND JUMP JUMPDEST PUSH1 0xB SSTORE JUMPDEST PUSH1 0x40 DUP1 MLOAD DUP6 DUP2 MSTORE PUSH1 0x20 DUP2 ADD DUP6 SWAP1 MSTORE DUP2 MLOAD CALLER SWAP3 PUSH32 0x4C209B5FC8AD50758F13E2E1088BA56A560DFF690A1C6FEF26394F4C03821C4F SWAP3 DUP3 SWAP1 SUB ADD SWAP1 LOG2 POP POP PUSH1 0x1 PUSH1 0xC SSTORE POP SWAP5 SWAP7 SWAP6 POP POP POP POP POP POP JUMP JUMPDEST PUSH1 0x1 PUSH1 0x20 MSTORE PUSH1 0x0 SWAP1 DUP2 MSTORE PUSH1 0x40 SWAP1 KECCAK256 SLOAD DUP2 JUMP JUMPDEST PUSH1 0xB SLOAD DUP2 JUMP JUMPDEST PUSH1 0x4 PUSH1 0x20 MSTORE PUSH1 0x0 SWAP1 DUP2 MSTORE PUSH1 0x40 SWAP1 KECCAK256 SLOAD DUP2 JUMP JUMPDEST PUSH1 0x0 DUP1 PUSH1 0xC SLOAD PUSH1 0x1 EQ PUSH2 0x104B JUMPI PUSH1 0x40 DUP1 MLOAD PUSH3 0x461BCD PUSH1 0xE5 SHL DUP2 MSTORE PUSH1 0x20 PUSH1 0x4 DUP3 ADD MSTORE PUSH1 0x11 PUSH1 0x24 DUP3 ADD MSTORE PUSH17 0x109A5D1B1A5B59558C8E881313D0D2D151 PUSH1 0x7A SHL PUSH1 0x44 DUP3 ADD MSTORE SWAP1 MLOAD SWAP1 DUP2 SWAP1 SUB PUSH1 0x64 ADD SWAP1 REVERT JUMPDEST PUSH1 0x0 PUSH1 0xC DUP2 SWAP1 SSTORE DUP1 PUSH2 0x105B PUSH2 0xB24 JUMP JUMPDEST POP PUSH1 0x6 SLOAD PUSH1 0x7 SLOAD PUSH1 0x40 DUP1 MLOAD PUSH4 0x70A08231 PUSH1 0xE0 SHL DUP2 MSTORE ADDRESS PUSH1 0x4 DUP3 ADD MSTORE SWAP1 MLOAD SWAP5 SWAP7 POP SWAP3 SWAP5 POP PUSH1 0x1 PUSH1 0x1 PUSH1 0xA0 SHL SUB SWAP2 DUP3 AND SWAP4 SWAP2 AND SWAP2 PUSH1 0x0 SWAP2 DUP5 SWAP2 PUSH4 0x70A08231 SWAP2 PUSH1 0x24 DUP1 DUP4 ADD SWAP3 PUSH1 0x20 SWAP3 SWAP2 SWAP1 DUP3 SWAP1 SUB ADD DUP2 DUP7 DUP1 EXTCODESIZE ISZERO DUP1 ISZERO PUSH2 0x10B7 JUMPI PUSH1 0x0 DUP1 REVERT JUMPDEST POP GAS STATICCALL ISZERO DUP1 ISZERO PUSH2 0x10CB JUMPI RETURNDATASIZE PUSH1 0x0 DUP1 RETURNDATACOPY RETURNDATASIZE PUSH1 0x0 REVERT JUMPDEST POP POP POP POP PUSH1 0x40 MLOAD RETURNDATASIZE PUSH1 0x20 DUP2 LT ISZERO PUSH2 0x10E1 JUMPI PUSH1 0x0 DUP1 REVERT JUMPDEST POP MLOAD PUSH1 0x40 DUP1 MLOAD PUSH4 0x70A08231 PUSH1 0xE0 SHL DUP2 MSTORE ADDRESS PUSH1 0x4 DUP3 ADD MSTORE SWAP1 MLOAD SWAP2 SWAP3 POP PUSH1 0x0 SWAP2 PUSH1 0x1 PUSH1 0x1 PUSH1 0xA0 SHL SUB DUP6 AND SWAP2 PUSH4 0x70A08231 SWAP2 PUSH1 0x24 DUP1 DUP4 ADD SWAP3 PUSH1 0x20 SWAP3 SWAP2 SWAP1 DUP3 SWAP1 SUB ADD DUP2 DUP7 DUP1 EXTCODESIZE ISZERO DUP1 ISZERO PUSH2 0x112F JUMPI PUSH1 0x0 DUP1 REVERT JUMPDEST POP GAS STATICCALL ISZERO DUP1 ISZERO PUSH2 0x1143 JUMPI RETURNDATASIZE PUSH1 0x0 DUP1 RETURNDATACOPY RETURNDATASIZE PUSH1 0x0 REVERT JUMPDEST POP POP POP POP PUSH1 0x40 MLOAD RETURNDATASIZE PUSH1 0x20 DUP2 LT ISZERO PUSH2 0x1159 JUMPI PUSH1 0x0 DUP1 REVERT JUMPDEST POP MLOAD ADDRESS PUSH1 0x0 SWAP1 DUP2 MSTORE PUSH1 0x1 PUSH1 0x20 MSTORE PUSH1 0x40 DUP2 KECCAK256 SLOAD SWAP2 SWAP3 POP PUSH2 0x1178 DUP9 DUP9 PUSH2 0x1E11 JUMP JUMPDEST PUSH1 0x0 SLOAD SWAP1 SWAP2 POP DUP1 PUSH2 0x118F DUP5 DUP8 PUSH4 0xFFFFFFFF PUSH2 0x1A7D AND JUMP JUMPDEST DUP2 PUSH2 0x1196 JUMPI INVALID JUMPDEST DIV SWAP11 POP DUP1 PUSH2 0x11AA DUP5 DUP7 PUSH4 0xFFFFFFFF PUSH2 0x1A7D AND JUMP JUMPDEST DUP2 PUSH2 0x11B1 JUMPI INVALID JUMPDEST DIV SWAP10 POP PUSH1 0x0 DUP12 GT DUP1 ISZERO PUSH2 0x11C4 JUMPI POP PUSH1 0x0 DUP11 GT JUMPDEST PUSH2 0x11FF JUMPI PUSH1 0x40 MLOAD PUSH3 0x461BCD PUSH1 0xE5 SHL DUP2 MSTORE PUSH1 0x4 ADD DUP1 DUP1 PUSH1 0x20 ADD DUP3 DUP2 SUB DUP3 MSTORE PUSH1 0x28 DUP2 MSTORE PUSH1 0x20 ADD DUP1 PUSH2 0x2205 PUSH1 0x28 SWAP2 CODECOPY PUSH1 0x40 ADD SWAP2 POP POP PUSH1 0x40 MLOAD DUP1 SWAP2 SUB SWAP1 REVERT JUMPDEST PUSH2 0x1209 ADDRESS DUP5 PUSH2 0x206F JUMP JUMPDEST PUSH2 0x1214 DUP8 DUP14 DUP14 PUSH2 0x18E3 JUMP JUMPDEST PUSH2 0x121F DUP7 DUP14 DUP13 PUSH2 0x18E3 JUMP JUMPDEST PUSH1 0x40 DUP1 MLOAD PUSH4 0x70A08231 PUSH1 0xE0 SHL DUP2 MSTORE ADDRESS PUSH1 0x4 DUP3 ADD MSTORE SWAP1 MLOAD PUSH1 0x1 PUSH1 0x1 PUSH1 0xA0 SHL SUB DUP10 AND SWAP2 PUSH4 0x70A08231 SWAP2 PUSH1 0x24 DUP1 DUP4 ADD SWAP3 PUSH1 0x20 SWAP3 SWAP2 SWAP1 DUP3 SWAP1 SUB ADD DUP2 DUP7 DUP1 EXTCODESIZE ISZERO DUP1 ISZERO PUSH2 0x1265 JUMPI PUSH1 0x0 DUP1 REVERT JUMPDEST POP GAS STATICCALL ISZERO DUP1 ISZERO PUSH2 0x1279 JUMPI RETURNDATASIZE PUSH1 0x0 DUP1 RETURNDATACOPY RETURNDATASIZE PUSH1 0x0 REVERT JUMPDEST POP POP POP POP PUSH1 0x40 MLOAD RETURNDATASIZE PUSH1 0x20 DUP2 LT ISZERO PUSH2 0x128F JUMPI PUSH1 0x0 DUP1 REVERT JUMPDEST POP MLOAD PUSH1 0x40 DUP1 MLOAD PUSH4 0x70A08231 PUSH1 0xE0 SHL DUP2 MSTORE ADDRESS PUSH1 0x4 DUP3 ADD MSTORE SWAP1 MLOAD SWAP2 SWAP7 POP PUSH1 0x1 PUSH1 0x1 PUSH1 0xA0 SHL SUB DUP9 AND SWAP2 PUSH4 0x70A08231 SWAP2 PUSH1 0x24 DUP1 DUP3 ADD SWAP3 PUSH1 0x20 SWAP3 SWAP1 SWAP2 SWAP1 DUP3 SWAP1 SUB ADD DUP2 DUP7 DUP1 EXTCODESIZE ISZERO DUP1 ISZERO PUSH2 0x12DB JUMPI PUSH1 0x0 DUP1 REVERT JUMPDEST POP GAS STATICCALL ISZERO DUP1 ISZERO PUSH2 0x12EF JUMPI RETURNDATASIZE PUSH1 0x0 DUP1 RETURNDATACOPY RETURNDATASIZE PUSH1 0x0 REVERT JUMPDEST POP POP POP POP PUSH1 0x40 MLOAD RETURNDATASIZE PUSH1 0x20 DUP2 LT ISZERO PUSH2 0x1305 JUMPI PUSH1 0x0 DUP1 REVERT JUMPDEST POP MLOAD SWAP4 POP PUSH2 0x1315 DUP6 DUP6 DUP12 DUP12 PUSH2 0x1B30 JUMP JUMPDEST DUP2 ISZERO PUSH2 0x1345 JUMPI PUSH1 0x8 SLOAD PUSH2 0x1341 SWAP1 PUSH1 0x1 PUSH1 0x1 PUSH1 0x70 SHL SUB DUP1 DUP3 AND SWAP2 PUSH1 0x1 PUSH1 0x70 SHL SWAP1 DIV AND PUSH4 0xFFFFFFFF PUSH2 0x1A7D AND JUMP JUMPDEST PUSH1 0xB SSTORE JUMPDEST PUSH1 0x40 DUP1 MLOAD DUP13 DUP2 MSTORE PUSH1 0x20 DUP2 ADD DUP13 SWAP1 MSTORE DUP2 MLOAD PUSH1 0x1 PUSH1 0x1 PUSH1 0xA0 SHL SUB DUP16 AND SWAP3 CALLER SWAP3 PUSH32 0xDCCD412F0B1252819CB1FD330B93224CA42612892BB3F4F789976E6D81936496 SWAP3 SWAP1 DUP2 SWAP1 SUB SWAP1 SWAP2 ADD SWAP1 LOG3 POP POP POP POP POP POP POP POP POP PUSH1 0x1 PUSH1 0xC DUP2 SWAP1 SSTORE POP SWAP2 POP SWAP2 JUMP JUMPDEST PUSH1 0x40 MLOAD DUP1 PUSH1 0x40 ADD PUSH1 0x40 MSTORE DUP1 PUSH1 0x7 DUP2 MSTORE PUSH1 0x20 ADD PUSH7 0x2624A6A296AB19 PUSH1 0xC9 SHL DUP2 MSTORE POP DUP2 JUMP JUMPDEST PUSH1 0x0 PUSH2 0xB5B CALLER DUP5 DUP5 PUSH2 0x1D57 JUMP JUMPDEST PUSH2 0x3E8 DUP2 JUMP JUMPDEST PUSH1 0xC SLOAD PUSH1 0x1 EQ PUSH2 0x1424 JUMPI PUSH1 0x40 DUP1 MLOAD PUSH3 0x461BCD PUSH1 0xE5 SHL DUP2 MSTORE PUSH1 0x20 PUSH1 0x4 DUP3 ADD MSTORE PUSH1 0x11 PUSH1 0x24 DUP3 ADD MSTORE PUSH17 0x109A5D1B1A5B59558C8E881313D0D2D151 PUSH1 0x7A SHL PUSH1 0x44 DUP3 ADD MSTORE SWAP1 MLOAD SWAP1 DUP2 SWAP1 SUB PUSH1 0x64 ADD SWAP1 REVERT JUMPDEST PUSH1 0x0 PUSH1 0xC SSTORE PUSH1 0x6 SLOAD PUSH1 0x7 SLOAD PUSH1 0x8 SLOAD PUSH1 0x40 DUP1 MLOAD PUSH4 0x70A08231 PUSH1 0xE0 SHL DUP2 MSTORE ADDRESS PUSH1 0x4 DUP3 ADD MSTORE SWAP1 MLOAD PUSH1 0x1 PUSH1 0x1 PUSH1 0xA0 SHL SUB SWAP5 DUP6 AND SWAP5 SWAP1 SWAP4 AND SWAP3 PUSH2 0x14D3 SWAP3 DUP6 SWAP3 DUP8 SWAP3 PUSH2 0x14CE SWAP3 PUSH1 0x1 PUSH1 0x1 PUSH1 0x70 SHL SUB AND SWAP2 DUP6 SWAP2 PUSH4 0x70A08231 SWAP2 PUSH1 0x24 DUP1 DUP3 ADD SWAP3 PUSH1 0x20 SWAP3 SWAP1 SWAP2 SWAP1 DUP3 SWAP1 SUB ADD DUP2 DUP7 DUP1 EXTCODESIZE ISZERO DUP1 ISZERO PUSH2 0x1496 JUMPI PUSH1 0x0 DUP1 REVERT JUMPDEST POP GAS STATICCALL ISZERO DUP1 ISZERO PUSH2 0x14AA JUMPI RETURNDATASIZE PUSH1 0x0 DUP1 RETURNDATACOPY RETURNDATASIZE PUSH1 0x0 REVERT JUMPDEST POP POP POP POP PUSH1 0x40 MLOAD RETURNDATASIZE PUSH1 0x20 DUP2 LT ISZERO PUSH2 0x14C0 JUMPI PUSH1 0x0 DUP1 REVERT JUMPDEST POP MLOAD SWAP1 PUSH4 0xFFFFFFFF PUSH2 0x1AE0 AND JUMP JUMPDEST PUSH2 0x18E3 JUMP JUMPDEST PUSH1 0x8 SLOAD PUSH1 0x40 DUP1 MLOAD PUSH4 0x70A08231 PUSH1 0xE0 SHL DUP2 MSTORE ADDRESS PUSH1 0x4 DUP3 ADD MSTORE SWAP1 MLOAD PUSH2 0x153A SWAP3 DUP5 SWAP3 DUP8 SWAP3 PUSH2 0x14CE SWAP3 PUSH1 0x1 PUSH1 0x70 SHL SWAP1 DIV PUSH1 0x1 PUSH1 0x1 PUSH1 0x70 SHL SUB AND SWAP2 PUSH1 0x1 PUSH1 0x1 PUSH1 0xA0 SHL SUB DUP7 AND SWAP2 PUSH4 0x70A08231 SWAP2 PUSH1 0x24 DUP1 DUP3 ADD SWAP3 PUSH1 0x20 SWAP3 SWAP1 SWAP2 SWAP1 DUP3 SWAP1 SUB ADD DUP2 DUP7 DUP1 EXTCODESIZE ISZERO DUP1 ISZERO PUSH2 0x1496 JUMPI PUSH1 0x0 DUP1 REVERT JUMPDEST POP POP PUSH1 0x1 PUSH1 0xC SSTORE POP JUMP JUMPDEST PUSH1 0x5 SLOAD PUSH1 0x1 PUSH1 0x1 PUSH1 0xA0 SHL SUB AND DUP2 JUMP JUMPDEST PUSH1 0x7 SLOAD PUSH1 0x1 PUSH1 0x1 PUSH1 0xA0 SHL SUB AND DUP2 JUMP JUMPDEST TIMESTAMP DUP5 LT ISZERO PUSH2 0x15AC JUMPI PUSH1 0x40 DUP1 MLOAD PUSH3 0x461BCD PUSH1 0xE5 SHL DUP2 MSTORE PUSH1 0x20 PUSH1 0x4 DUP3 ADD MSTORE PUSH1 0x12 PUSH1 0x24 DUP3 ADD MSTORE PUSH18 0x109A5D1B1A5B59558C8E8811561412549151 PUSH1 0x72 SHL PUSH1 0x44 DUP3 ADD MSTORE SWAP1 MLOAD SWAP1 DUP2 SWAP1 SUB PUSH1 0x64 ADD SWAP1 REVERT JUMPDEST PUSH1 0x3 SLOAD PUSH1 0x1 PUSH1 0x1 PUSH1 0xA0 SHL SUB DUP1 DUP10 AND PUSH1 0x0 DUP2 DUP2 MSTORE PUSH1 0x4 PUSH1 0x20 SWAP1 DUP2 MSTORE PUSH1 0x40 DUP1 DUP4 KECCAK256 DUP1 SLOAD PUSH1 0x1 DUP1 DUP3 ADD SWAP1 SWAP3 SSTORE DUP3 MLOAD PUSH32 0x6E71EDAE12B1B97F4D1F60370FEF10105FA2FAAE0126114A169C64845D6126C9 DUP2 DUP7 ADD MSTORE DUP1 DUP5 ADD SWAP7 SWAP1 SWAP7 MSTORE SWAP6 DUP14 AND PUSH1 0x60 DUP7 ADD MSTORE PUSH1 0x80 DUP6 ADD DUP13 SWAP1 MSTORE PUSH1 0xA0 DUP6 ADD SWAP6 SWAP1 SWAP6 MSTORE PUSH1 0xC0 DUP1 DUP6 ADD DUP12 SWAP1 MSTORE DUP2 MLOAD DUP1 DUP7 SUB SWAP1 SWAP2 ADD DUP2 MSTORE PUSH1 0xE0 DUP6 ADD DUP3 MSTORE DUP1 MLOAD SWAP1 DUP4 ADD KECCAK256 PUSH2 0x1901 PUSH1 0xF0 SHL PUSH2 0x100 DUP7 ADD MSTORE PUSH2 0x102 DUP6 ADD SWAP7 SWAP1 SWAP7 MSTORE PUSH2 0x122 DUP1 DUP6 ADD SWAP7 SWAP1 SWAP7 MSTORE DUP1 MLOAD DUP1 DUP6 SUB SWAP1 SWAP7 ADD DUP7 MSTORE PUSH2 0x142 DUP5 ADD DUP1 DUP3 MSTORE DUP7 MLOAD SWAP7 DUP4 ADD SWAP7 SWAP1 SWAP7 KECCAK256 SWAP6 DUP4 SWAP1 MSTORE PUSH2 0x162 DUP5 ADD DUP1 DUP3 MSTORE DUP7 SWAP1 MSTORE PUSH1 0xFF DUP10 AND PUSH2 0x182 DUP6 ADD MSTORE PUSH2 0x1A2 DUP5 ADD DUP9 SWAP1 MSTORE PUSH2 0x1C2 DUP5 ADD DUP8 SWAP1 MSTORE MLOAD SWAP2 SWAP4 SWAP3 PUSH2 0x1E2 DUP1 DUP3 ADD SWAP4 PUSH1 0x1F NOT DUP2 ADD SWAP3 DUP2 SWAP1 SUB SWAP1 SWAP2 ADD SWAP1 DUP6 GAS STATICCALL ISZERO DUP1 ISZERO PUSH2 0x16C7 JUMPI RETURNDATASIZE PUSH1 0x0 DUP1 RETURNDATACOPY RETURNDATASIZE PUSH1 0x0 REVERT JUMPDEST POP POP PUSH1 0x40 MLOAD PUSH1 0x1F NOT ADD MLOAD SWAP2 POP POP PUSH1 0x1 PUSH1 0x1 PUSH1 0xA0 SHL SUB DUP2 AND ISZERO DUP1 ISZERO SWAP1 PUSH2 0x16FD JUMPI POP DUP9 PUSH1 0x1 PUSH1 0x1 PUSH1 0xA0 SHL SUB AND DUP2 PUSH1 0x1 PUSH1 0x1 PUSH1 0xA0 SHL SUB AND EQ JUMPDEST PUSH2 0x174E JUMPI PUSH1 0x40 DUP1 MLOAD PUSH3 0x461BCD PUSH1 0xE5 SHL DUP2 MSTORE PUSH1 0x20 PUSH1 0x4 DUP3 ADD MSTORE PUSH1 0x1C PUSH1 0x24 DUP3 ADD MSTORE PUSH32 0x4269746C696D6556323A20494E56414C49445F5349474E415455524500000000 PUSH1 0x44 DUP3 ADD MSTORE SWAP1 MLOAD SWAP1 DUP2 SWAP1 SUB PUSH1 0x64 ADD SWAP1 REVERT JUMPDEST PUSH2 0x1759 DUP10 DUP10 DUP10 PUSH2 0x1CF5 JUMP JUMPDEST POP POP POP POP POP POP POP POP POP JUMP JUMPDEST PUSH1 0x2 PUSH1 0x20 SWAP1 DUP2 MSTORE PUSH1 0x0 SWAP3 DUP4 MSTORE PUSH1 0x40 DUP1 DUP5 KECCAK256 SWAP1 SWAP2 MSTORE SWAP1 DUP3 MSTORE SWAP1 KECCAK256 SLOAD DUP2 JUMP JUMPDEST PUSH1 0xC SLOAD PUSH1 0x1 EQ PUSH2 0x17CC JUMPI PUSH1 0x40 DUP1 MLOAD PUSH3 0x461BCD PUSH1 0xE5 SHL DUP2 MSTORE PUSH1 0x20 PUSH1 0x4 DUP3 ADD MSTORE PUSH1 0x11 PUSH1 0x24 DUP3 ADD MSTORE PUSH17 0x109A5D1B1A5B59558C8E881313D0D2D151 PUSH1 0x7A SHL PUSH1 0x44 DUP3 ADD MSTORE SWAP1 MLOAD SWAP1 DUP2 SWAP1 SUB PUSH1 0x64 ADD SWAP1 REVERT JUMPDEST PUSH1 0x0 PUSH1 0xC SSTORE PUSH1 0x6 SLOAD PUSH1 0x40 DUP1 MLOAD PUSH4 0x70A08231 PUSH1 0xE0 SHL DUP2 MSTORE ADDRESS PUSH1 0x4 DUP3 ADD MSTORE SWAP1 MLOAD PUSH2 0x18DC SWAP3 PUSH1 0x1 PUSH1 0x1 PUSH1 0xA0 SHL SUB AND SWAP2 PUSH4 0x70A08231 SWAP2 PUSH1 0x24 DUP1 DUP4 ADD SWAP3 PUSH1 0x20 SWAP3 SWAP2 SWAP1 DUP3 SWAP1 SUB ADD DUP2 DUP7 DUP1 EXTCODESIZE ISZERO DUP1 ISZERO PUSH2 0x181D JUMPI PUSH1 0x0 DUP1 REVERT JUMPDEST POP GAS STATICCALL ISZERO DUP1 ISZERO PUSH2 0x1831 JUMPI RETURNDATASIZE PUSH1 0x0 DUP1 RETURNDATACOPY RETURNDATASIZE PUSH1 0x0 REVERT JUMPDEST POP POP POP POP PUSH1 0x40 MLOAD RETURNDATASIZE PUSH1 0x20 DUP2 LT ISZERO PUSH2 0x1847 JUMPI PUSH1 0x0 DUP1 REVERT JUMPDEST POP MLOAD PUSH1 0x7 SLOAD PUSH1 0x40 DUP1 MLOAD PUSH4 0x70A08231 PUSH1 0xE0 SHL DUP2 MSTORE ADDRESS PUSH1 0x4 DUP3 ADD MSTORE SWAP1 MLOAD PUSH1 0x1 PUSH1 0x1 PUSH1 0xA0 SHL SUB SWAP1 SWAP3 AND SWAP2 PUSH4 0x70A08231 SWAP2 PUSH1 0x24 DUP1 DUP3 ADD SWAP3 PUSH1 0x20 SWAP3 SWAP1 SWAP2 SWAP1 DUP3 SWAP1 SUB ADD DUP2 DUP7 DUP1 EXTCODESIZE ISZERO DUP1 ISZERO PUSH2 0x1894 JUMPI PUSH1 0x0 DUP1 REVERT JUMPDEST POP GAS STATICCALL ISZERO DUP1 ISZERO PUSH2 0x18A8 JUMPI RETURNDATASIZE PUSH1 0x0 DUP1 RETURNDATACOPY RETURNDATASIZE PUSH1 0x0 REVERT JUMPDEST POP POP POP POP PUSH1 0x40 MLOAD RETURNDATASIZE PUSH1 0x20 DUP2 LT ISZERO PUSH2 0x18BE JUMPI PUSH1 0x0 DUP1 REVERT JUMPDEST POP MLOAD PUSH1 0x8 SLOAD PUSH1 0x1 PUSH1 0x1 PUSH1 0x70 SHL SUB DUP1 DUP3 AND SWAP2 PUSH1 0x1 PUSH1 0x70 SHL SWAP1 DIV AND PUSH2 0x1B30 JUMP JUMPDEST PUSH1 0x1 PUSH1 0xC SSTORE JUMP JUMPDEST PUSH1 0x40 DUP1 MLOAD DUP1 DUP3 ADD DUP3 MSTORE PUSH1 0x19 DUP2 MSTORE PUSH32 0x7472616E7366657228616464726573732C75696E743235362900000000000000 PUSH1 0x20 SWAP2 DUP3 ADD MSTORE DUP2 MLOAD PUSH1 0x1 PUSH1 0x1 PUSH1 0xA0 SHL SUB DUP6 DUP2 AND PUSH1 0x24 DUP4 ADD MSTORE PUSH1 0x44 DUP1 DUP4 ADD DUP7 SWAP1 MSTORE DUP5 MLOAD DUP1 DUP5 SUB SWAP1 SWAP2 ADD DUP2 MSTORE PUSH1 0x64 SWAP1 SWAP3 ADD DUP5 MSTORE SWAP2 DUP2 ADD DUP1 MLOAD PUSH1 0x1 PUSH1 0x1 PUSH1 0xE0 SHL SUB AND PUSH4 0xA9059CBB PUSH1 0xE0 SHL OR DUP2 MSTORE SWAP3 MLOAD DUP2 MLOAD PUSH1 0x0 SWAP5 PUSH1 0x60 SWAP5 DUP10 AND SWAP4 SWAP3 SWAP2 DUP3 SWAP2 SWAP1 DUP1 DUP4 DUP4 JUMPDEST PUSH1 0x20 DUP4 LT PUSH2 0x1990 JUMPI DUP1 MLOAD DUP3 MSTORE PUSH1 0x1F NOT SWAP1 SWAP3 ADD SWAP2 PUSH1 0x20 SWAP2 DUP3 ADD SWAP2 ADD PUSH2 0x1971 JUMP JUMPDEST PUSH1 0x1 DUP4 PUSH1 0x20 SUB PUSH2 0x100 EXP SUB DUP1 NOT DUP3 MLOAD AND DUP2 DUP5 MLOAD AND DUP1 DUP3 OR DUP6 MSTORE POP POP POP POP POP POP SWAP1 POP ADD SWAP2 POP POP PUSH1 0x0 PUSH1 0x40 MLOAD DUP1 DUP4 SUB DUP2 PUSH1 0x0 DUP7 GAS CALL SWAP2 POP POP RETURNDATASIZE DUP1 PUSH1 0x0 DUP2 EQ PUSH2 0x19F2 JUMPI PUSH1 0x40 MLOAD SWAP2 POP PUSH1 0x1F NOT PUSH1 0x3F RETURNDATASIZE ADD AND DUP3 ADD PUSH1 0x40 MSTORE RETURNDATASIZE DUP3 MSTORE RETURNDATASIZE PUSH1 0x0 PUSH1 0x20 DUP5 ADD RETURNDATACOPY PUSH2 0x19F7 JUMP JUMPDEST PUSH1 0x60 SWAP2 POP JUMPDEST POP SWAP2 POP SWAP2 POP DUP2 DUP1 ISZERO PUSH2 0x1A25 JUMPI POP DUP1 MLOAD ISZERO DUP1 PUSH2 0x1A25 JUMPI POP DUP1 DUP1 PUSH1 0x20 ADD SWAP1 MLOAD PUSH1 0x20 DUP2 LT ISZERO PUSH2 0x1A22 JUMPI PUSH1 0x0 DUP1 REVERT JUMPDEST POP MLOAD JUMPDEST PUSH2 0x1A76 JUMPI PUSH1 0x40 DUP1 MLOAD PUSH3 0x461BCD PUSH1 0xE5 SHL DUP2 MSTORE PUSH1 0x20 PUSH1 0x4 DUP3 ADD MSTORE PUSH1 0x1A PUSH1 0x24 DUP3 ADD MSTORE PUSH32 0x4269746C696D6556323A205452414E534645525F4641494C4544000000000000 PUSH1 0x44 DUP3 ADD MSTORE SWAP1 MLOAD SWAP1 DUP2 SWAP1 SUB PUSH1 0x64 ADD SWAP1 REVERT JUMPDEST POP POP POP POP POP JUMP JUMPDEST PUSH1 0x0 DUP2 ISZERO DUP1 PUSH2 0x1A98 JUMPI POP POP DUP1 DUP3 MUL DUP3 DUP3 DUP3 DUP2 PUSH2 0x1A95 JUMPI INVALID JUMPDEST DIV EQ JUMPDEST PUSH2 0xB5F JUMPI PUSH1 0x40 DUP1 MLOAD PUSH3 0x461BCD PUSH1 0xE5 SHL DUP2 MSTORE PUSH1 0x20 PUSH1 0x4 DUP3 ADD MSTORE PUSH1 0x14 PUSH1 0x24 DUP3 ADD MSTORE PUSH20 0x64732D6D6174682D6D756C2D6F766572666C6F77 PUSH1 0x60 SHL PUSH1 0x44 DUP3 ADD MSTORE SWAP1 MLOAD SWAP1 DUP2 SWAP1 SUB PUSH1 0x64 ADD SWAP1 REVERT JUMPDEST DUP1 DUP3 SUB DUP3 DUP2 GT ISZERO PUSH2 0xB5F JUMPI PUSH1 0x40 DUP1 MLOAD PUSH3 0x461BCD PUSH1 0xE5 SHL DUP2 MSTORE PUSH1 0x20 PUSH1 0x4 DUP3 ADD MSTORE PUSH1 0x15 PUSH1 0x24 DUP3 ADD MSTORE PUSH21 0x64732D6D6174682D7375622D756E646572666C6F77 PUSH1 0x58 SHL PUSH1 0x44 DUP3 ADD MSTORE SWAP1 MLOAD SWAP1 DUP2 SWAP1 SUB PUSH1 0x64 ADD SWAP1 REVERT JUMPDEST PUSH1 0x1 PUSH1 0x1 PUSH1 0x70 SHL SUB DUP5 GT DUP1 ISZERO SWAP1 PUSH2 0x1B4E JUMPI POP PUSH1 0x1 PUSH1 0x1 PUSH1 0x70 SHL SUB DUP4 GT ISZERO JUMPDEST PUSH2 0x1B95 JUMPI PUSH1 0x40 DUP1 MLOAD PUSH3 0x461BCD PUSH1 0xE5 SHL DUP2 MSTORE PUSH1 0x20 PUSH1 0x4 DUP3 ADD MSTORE PUSH1 0x13 PUSH1 0x24 DUP3 ADD MSTORE PUSH19 0x4269746C696D6556323A204F564552464C4F57 PUSH1 0x68 SHL PUSH1 0x44 DUP3 ADD MSTORE SWAP1 MLOAD SWAP1 DUP2 SWAP1 SUB PUSH1 0x64 ADD SWAP1 REVERT JUMPDEST PUSH1 0x8 SLOAD PUSH4 0xFFFFFFFF TIMESTAMP DUP2 AND SWAP2 PUSH1 0x1 PUSH1 0xE0 SHL SWAP1 DIV DUP2 AND DUP3 SUB SWAP1 DUP2 AND ISZERO DUP1 ISZERO SWAP1 PUSH2 0x1BC5 JUMPI POP PUSH1 0x1 PUSH1 0x1 PUSH1 0x70 SHL SUB DUP5 AND ISZERO ISZERO JUMPDEST DUP1 ISZERO PUSH2 0x1BD9 JUMPI POP PUSH1 0x1 PUSH1 0x1 PUSH1 0x70 SHL SUB DUP4 AND ISZERO ISZERO JUMPDEST ISZERO PUSH2 0x1C4A JUMPI DUP1 PUSH4 0xFFFFFFFF AND PUSH2 0x1C07 DUP6 PUSH2 0x1BF2 DUP7 PUSH2 0x210D JUMP JUMPDEST PUSH1 0x1 PUSH1 0x1 PUSH1 0xE0 SHL SUB AND SWAP1 PUSH4 0xFFFFFFFF PUSH2 0x211F AND JUMP JUMPDEST PUSH1 0x9 DUP1 SLOAD PUSH1 0x1 PUSH1 0x1 PUSH1 0xE0 SHL SUB SWAP3 SWAP1 SWAP3 AND SWAP3 SWAP1 SWAP3 MUL ADD SWAP1 SSTORE PUSH4 0xFFFFFFFF DUP2 AND PUSH2 0x1C32 DUP5 PUSH2 0x1BF2 DUP8 PUSH2 0x210D JUMP JUMPDEST PUSH1 0xA DUP1 SLOAD PUSH1 0x1 PUSH1 0x1 PUSH1 0xE0 SHL SUB SWAP3 SWAP1 SWAP3 AND SWAP3 SWAP1 SWAP3 MUL ADD SWAP1 SSTORE JUMPDEST PUSH1 0x8 DUP1 SLOAD PUSH14 0xFFFFFFFFFFFFFFFFFFFFFFFFFFFF NOT AND PUSH1 0x1 PUSH1 0x1 PUSH1 0x70 SHL SUB DUP9 DUP2 AND SWAP2 SWAP1 SWAP2 OR PUSH14 0xFFFFFFFFFFFFFFFFFFFFFFFFFFFF PUSH1 0x70 SHL NOT AND PUSH1 0x1 PUSH1 0x70 SHL DUP9 DUP4 AND DUP2 MUL SWAP2 SWAP1 SWAP2 OR PUSH1 0x1 PUSH1 0x1 PUSH1 0xE0 SHL SUB AND PUSH1 0x1 PUSH1 0xE0 SHL PUSH4 0xFFFFFFFF DUP8 AND MUL OR SWAP3 DUP4 SWAP1 SSTORE PUSH1 0x40 DUP1 MLOAD DUP5 DUP5 AND DUP2 MSTORE SWAP2 SWAP1 SWAP4 DIV SWAP1 SWAP2 AND PUSH1 0x20 DUP3 ADD MSTORE DUP2 MLOAD PUSH32 0x1C411E9A96E071241C2F21F7726B17AE89E3CAB4C78BE50E062B03A9FFFBBAD1 SWAP3 SWAP2 DUP2 SWAP1 SUB SWAP1 SWAP2 ADD SWAP1 LOG1 POP POP POP POP POP POP JUMP JUMPDEST PUSH1 0x1 PUSH1 0x1 PUSH1 0xA0 SHL SUB DUP1 DUP5 AND PUSH1 0x0 DUP2 DUP2 MSTORE PUSH1 0x2 PUSH1 0x20 SWAP1 DUP2 MSTORE PUSH1 0x40 DUP1 DUP4 KECCAK256 SWAP5 DUP8 AND DUP1 DUP5 MSTORE SWAP5 DUP3 MSTORE SWAP2 DUP3 SWAP1 KECCAK256 DUP6 SWAP1 SSTORE DUP2 MLOAD DUP6 DUP2 MSTORE SWAP2 MLOAD PUSH32 0x8C5BE1E5EBEC7D5BD14F71427D1E84F3DD0314C0F7B2291E5B200AC8C7C3B925 SWAP3 DUP2 SWAP1 SUB SWAP1 SWAP2 ADD SWAP1 LOG3 POP POP POP JUMP JUMPDEST PUSH1 0x1 PUSH1 0x1 PUSH1 0xA0 SHL SUB DUP4 AND PUSH1 0x0 SWAP1 DUP2 MSTORE PUSH1 0x1 PUSH1 0x20 MSTORE PUSH1 0x40 SWAP1 KECCAK256 SLOAD PUSH2 0x1D80 SWAP1 DUP3 PUSH4 0xFFFFFFFF PUSH2 0x1AE0 AND JUMP JUMPDEST PUSH1 0x1 PUSH1 0x1 PUSH1 0xA0 SHL SUB DUP1 DUP6 AND PUSH1 0x0 SWAP1 DUP2 MSTORE PUSH1 0x1 PUSH1 0x20 MSTORE PUSH1 0x40 DUP1 DUP3 KECCAK256 SWAP4 SWAP1 SWAP4 SSTORE SWAP1 DUP5 AND DUP2 MSTORE KECCAK256 SLOAD PUSH2 0x1DB5 SWAP1 DUP3 PUSH4 0xFFFFFFFF PUSH2 0x2144 AND JUMP JUMPDEST PUSH1 0x1 PUSH1 0x1 PUSH1 0xA0 SHL SUB DUP1 DUP5 AND PUSH1 0x0 DUP2 DUP2 MSTORE PUSH1 0x1 PUSH1 0x20 SWAP1 DUP2 MSTORE PUSH1 0x40 SWAP2 DUP3 SWAP1 KECCAK256 SWAP5 SWAP1 SWAP5 SSTORE DUP1 MLOAD DUP6 DUP2 MSTORE SWAP1 MLOAD SWAP2 SWAP4 SWAP3 DUP8 AND SWAP3 PUSH32 0xDDF252AD1BE2C89B69C2B068FC378DAA952BA7F163C4A11628F55A4DF523B3EF SWAP3 SWAP2 DUP3 SWAP1 SUB ADD SWAP1 LOG3 POP POP POP JUMP JUMPDEST PUSH1 0x0 DUP1 PUSH1 0x5 PUSH1 0x0 SWAP1 SLOAD SWAP1 PUSH2 0x100 EXP SWAP1 DIV PUSH1 0x1 PUSH1 0x1 PUSH1 0xA0 SHL SUB AND PUSH1 0x1 PUSH1 0x1 PUSH1 0xA0 SHL SUB AND PUSH4 0x17E7E58 PUSH1 0x40 MLOAD DUP2 PUSH4 0xFFFFFFFF AND PUSH1 0xE0 SHL DUP2 MSTORE PUSH1 0x4 ADD PUSH1 0x20 PUSH1 0x40 MLOAD DUP1 DUP4 SUB DUP2 DUP7 DUP1 EXTCODESIZE ISZERO DUP1 ISZERO PUSH2 0x1E62 JUMPI PUSH1 0x0 DUP1 REVERT JUMPDEST POP GAS STATICCALL ISZERO DUP1 ISZERO PUSH2 0x1E76 JUMPI RETURNDATASIZE PUSH1 0x0 DUP1 RETURNDATACOPY RETURNDATASIZE PUSH1 0x0 REVERT JUMPDEST POP POP POP POP PUSH1 0x40 MLOAD RETURNDATASIZE PUSH1 0x20 DUP2 LT ISZERO PUSH2 0x1E8C JUMPI PUSH1 0x0 DUP1 REVERT JUMPDEST POP MLOAD PUSH1 0xB SLOAD PUSH1 0x1 PUSH1 0x1 PUSH1 0xA0 SHL SUB DUP3 AND ISZERO DUP1 ISZERO SWAP5 POP SWAP2 SWAP3 POP SWAP1 PUSH2 0x1F5B JUMPI DUP1 ISZERO PUSH2 0x1F56 JUMPI PUSH1 0x0 PUSH2 0x1ECF PUSH2 0xE99 PUSH1 0x1 PUSH1 0x1 PUSH1 0x70 SHL SUB DUP9 DUP2 AND SWAP1 DUP9 AND PUSH4 0xFFFFFFFF PUSH2 0x1A7D AND JUMP JUMPDEST SWAP1 POP PUSH1 0x0 PUSH2 0x1EDC DUP4 PUSH2 0x1F6F JUMP JUMPDEST SWAP1 POP DUP1 DUP3 GT ISZERO PUSH2 0x1F53 JUMPI PUSH1 0x0 PUSH2 0x1F0A PUSH2 0x1EFB DUP5 DUP5 PUSH4 0xFFFFFFFF PUSH2 0x1AE0 AND JUMP JUMPDEST PUSH1 0x0 SLOAD SWAP1 PUSH4 0xFFFFFFFF PUSH2 0x1A7D AND JUMP JUMPDEST SWAP1 POP PUSH1 0x0 PUSH2 0x1F2F DUP4 PUSH2 0x1F23 DUP7 PUSH1 0x5 PUSH4 0xFFFFFFFF PUSH2 0x1A7D AND JUMP JUMPDEST SWAP1 PUSH4 0xFFFFFFFF PUSH2 0x2144 AND JUMP JUMPDEST SWAP1 POP PUSH1 0x0 DUP2 DUP4 DUP2 PUSH2 0x1F3C JUMPI INVALID JUMPDEST DIV SWAP1 POP DUP1 ISZERO PUSH2 0x1F4F JUMPI PUSH2 0x1F4F DUP8 DUP3 PUSH2 0x1FC1 JUMP JUMPDEST POP POP POP JUMPDEST POP POP JUMPDEST PUSH2 0x1F67 JUMP JUMPDEST DUP1 ISZERO PUSH2 0x1F67 JUMPI PUSH1 0x0 PUSH1 0xB SSTORE JUMPDEST POP POP SWAP3 SWAP2 POP POP JUMP JUMPDEST PUSH1 0x0 PUSH1 0x3 DUP3 GT ISZERO PUSH2 0x1FB2 JUMPI POP DUP1 PUSH1 0x1 PUSH1 0x2 DUP3 DIV ADD JUMPDEST DUP2 DUP2 LT ISZERO PUSH2 0x1FAC JUMPI DUP1 SWAP2 POP PUSH1 0x2 DUP2 DUP3 DUP6 DUP2 PUSH2 0x1F9B JUMPI INVALID JUMPDEST DIV ADD DUP2 PUSH2 0x1FA4 JUMPI INVALID JUMPDEST DIV SWAP1 POP PUSH2 0x1F84 JUMP JUMPDEST POP PUSH2 0x1FBC JUMP JUMPDEST DUP2 ISZERO PUSH2 0x1FBC JUMPI POP PUSH1 0x1 JUMPDEST SWAP2 SWAP1 POP JUMP JUMPDEST PUSH1 0x0 SLOAD PUSH2 0x1FD4 SWAP1 DUP3 PUSH4 0xFFFFFFFF PUSH2 0x2144 AND JUMP JUMPDEST PUSH1 0x0 SWAP1 DUP2 SSTORE PUSH1 0x1 PUSH1 0x1 PUSH1 0xA0 SHL SUB DUP4 AND DUP2 MSTORE PUSH1 0x1 PUSH1 0x20 MSTORE PUSH1 0x40 SWAP1 KECCAK256 SLOAD PUSH2 0x1FFF SWAP1 DUP3 PUSH4 0xFFFFFFFF PUSH2 0x2144 AND JUMP JUMPDEST PUSH1 0x1 PUSH1 0x1 PUSH1 0xA0 SHL SUB DUP4 AND PUSH1 0x0 DUP2 DUP2 MSTORE PUSH1 0x1 PUSH1 0x20 SWAP1 DUP2 MSTORE PUSH1 0x40 DUP1 DUP4 KECCAK256 SWAP5 SWAP1 SWAP5 SSTORE DUP4 MLOAD DUP6 DUP2 MSTORE SWAP4 MLOAD SWAP3 SWAP4 SWAP2 SWAP3 PUSH32 0xDDF252AD1BE2C89B69C2B068FC378DAA952BA7F163C4A11628F55A4DF523B3EF SWAP3 DUP2 SWAP1 SUB SWAP1 SWAP2 ADD SWAP1 LOG3 POP POP JUMP JUMPDEST PUSH1 0x0 DUP2 DUP4 LT PUSH2 0x2066 JUMPI DUP2 PUSH2 0x2068 JUMP JUMPDEST DUP3 JUMPDEST SWAP4 SWAP3 POP POP POP JUMP JUMPDEST PUSH1 0x1 PUSH1 0x1 PUSH1 0xA0 SHL SUB DUP3 AND PUSH1 0x0 SWAP1 DUP2 MSTORE PUSH1 0x1 PUSH1 0x20 MSTORE PUSH1 0x40 SWAP1 KECCAK256 SLOAD PUSH2 0x2098 SWAP1 DUP3 PUSH4 0xFFFFFFFF PUSH2 0x1AE0 AND JUMP JUMPDEST PUSH1 0x1 PUSH1 0x1 PUSH1 0xA0 SHL SUB DUP4 AND PUSH1 0x0 SWAP1 DUP2 MSTORE PUSH1 0x1 PUSH1 0x20 MSTORE PUSH1 0x40 DUP2 KECCAK256 SWAP2 SWAP1 SWAP2 SSTORE SLOAD PUSH2 0x20C5 SWAP1 DUP3 PUSH4 0xFFFFFFFF PUSH2 0x1AE0 AND JUMP JUMPDEST PUSH1 0x0 SWAP1 DUP2 SSTORE PUSH1 0x40 DUP1 MLOAD DUP4 DUP2 MSTORE SWAP1 MLOAD PUSH1 0x1 PUSH1 0x1 PUSH1 0xA0 SHL SUB DUP6 AND SWAP2 PUSH32 0xDDF252AD1BE2C89B69C2B068FC378DAA952BA7F163C4A11628F55A4DF523B3EF SWAP2 SWAP1 DUP2 SWAP1 SUB PUSH1 0x20 ADD SWAP1 LOG3 POP POP JUMP JUMPDEST PUSH1 0x1 PUSH1 0x1 PUSH1 0x70 SHL SUB AND PUSH1 0x1 PUSH1 0x70 SHL MUL SWAP1 JUMP JUMPDEST PUSH1 0x0 PUSH1 0x1 PUSH1 0x1 PUSH1 0x70 SHL SUB DUP3 AND PUSH1 0x1 PUSH1 0x1 PUSH1 0xE0 SHL SUB DUP5 AND DUP2 PUSH2 0x213C JUMPI INVALID JUMPDEST DIV SWAP4 SWAP3 POP POP POP JUMP JUMPDEST DUP1 DUP3 ADD DUP3 DUP2 LT ISZERO PUSH2 0xB5F JUMPI PUSH1 0x40 DUP1 MLOAD PUSH3 0x461BCD PUSH1 0xE5 SHL DUP2 MSTORE PUSH1 0x20 PUSH1 0x4 DUP3 ADD MSTORE PUSH1 0x14 PUSH1 0x24 DUP3 ADD MSTORE PUSH20 0x64732D6D6174682D6164642D6F766572666C6F77 PUSH1 0x60 SHL PUSH1 0x44 DUP3 ADD MSTORE SWAP1 MLOAD SWAP1 DUP2 SWAP1 SUB PUSH1 0x64 ADD SWAP1 REVERT INVALID TIMESTAMP PUSH10 0x746C696D6556323A2049 0x4E MSTORE8 SSTORE CHAINID CHAINID 0x49 NUMBER 0x49 GASLIMIT 0x4E SLOAD 0x5F 0x4C 0x49 MLOAD SSTORE 0x49 DIFFICULTY 0x49 SLOAD MSIZE 0x5F 0x4D 0x49 0x4E SLOAD GASLIMIT DIFFICULTY TIMESTAMP PUSH10 0x746C696D6556323A2049 0x4E MSTORE8 SSTORE CHAINID CHAINID 0x49 NUMBER 0x49 GASLIMIT 0x4E SLOAD 0x5F 0x49 0x4E POP SSTORE SLOAD 0x5F COINBASE 0x4D 0x4F SSTORE 0x4E SLOAD TIMESTAMP PUSH10 0x746C696D6556323A2049 0x4E MSTORE8 SSTORE CHAINID CHAINID 0x49 NUMBER 0x49 GASLIMIT 0x4E SLOAD 0x5F 0x4F SSTORE SLOAD POP SSTORE SLOAD 0x5F COINBASE 0x4D 0x4F SSTORE 0x4E SLOAD TIMESTAMP PUSH10 0x746C696D6556323A2049 0x4E MSTORE8 SSTORE CHAINID CHAINID 0x49 NUMBER 0x49 GASLIMIT 0x4E SLOAD 0x5F 0x4C 0x49 MLOAD SSTORE 0x49 DIFFICULTY 0x49 SLOAD MSIZE 0x5F TIMESTAMP SSTORE MSTORE 0x4E GASLIMIT DIFFICULTY TIMESTAMP PUSH10 0x746C696D6556323A2049 0x4E MSTORE8 SSTORE CHAINID CHAINID 0x49 NUMBER 0x49 GASLIMIT 0x4E SLOAD 0x5F 0x4C 0x49 MLOAD SSTORE 0x49 DIFFICULTY 0x49 SLOAD MSIZE LOG2 PUSH6 0x627A7A723158 KECCAK256 0xF6 0xEF SWAP2 DUP5 DIFFICULTY 0x2B EXTCODESIZE PUSH9 0x6F51447EE02EE0D132 EQ 0xD0 LOG3 0xAB SGT 0x28 0xA6 JUMP PUSH20 0x167EB0D3B4DD64736F6C63430005100032454950 CALLDATACOPY BALANCE ORIGIN DIFFICULTY PUSH16 0x6D61696E28737472696E67206E616D65 0x2C PUSH20 0x7472696E672076657273696F6E2C75696E743235 CALLDATASIZE KECCAK256 PUSH4 0x6861696E 0x49 PUSH5 0x2C61646472 PUSH6 0x737320766572 PUSH10 0x6679696E67436F6E7472 PUSH2 0x6374 0x29 LOG2 PUSH6 0x627A7A723158 KECCAK256 0xB0 0xE6 PUSH2 0x6588 0xB5 CALLVALUE JUMPI PUSH8 0x9B0F4A4D042707AD EXP XOR REVERT SLOAD SWAP12 GAS 0xC1 LOG4 CREATE2 DUP16 ADDMOD ADDRESS 0xFC MUL 0xF7 PUSH5 0x736F6C6343 STOP SDIV LT STOP ORIGIN "
				},
				"gasEstimates": {
					"creation": {
						"codeDepositCost": "2229000",
						"executionCost": "infinite",
						"totalCost": "infinite"
					},
					"external": {
						"INIT_CODE_PAIR_HASH()": "infinite",
						"allPairs(uint256)": "2015",
						"allPairsLength()": "1065",
						"createPair(address,address)": "infinite",
						"fee()": "1064",
						"feeTo()": "1038",
						"feeToSetter()": "1060",
						"getPair(address,address)": "1344",
						"setFee(uint256)": "21029",
						"setFeeTo(address)": "22023",
						"setFeeToSetter(address)": "21935"
					}
				},
				"methodIdentifiers": {
					"INIT_CODE_PAIR_HASH()": "5855a25a",
					"allPairs(uint256)": "1e3dd18b",
					"allPairsLength()": "574f2ba3",
					"createPair(address,address)": "c9c65396",
					"fee()": "ddca3f43",
					"feeTo()": "017e7e58",
					"feeToSetter()": "094b7415",
					"getPair(address,address)": "e6a43905",
					"setFee(uint256)": "69fe0e2d",
					"setFeeTo(address)": "f46901ed",
					"setFeeToSetter(address)": "a2e74af6"
				}
			},
			"storageLayout": {
				"storage": [
					{
						"astId": 404,
						"contract": "bitlime-core/contracts/BitlimeV2Factory.sol:BitlimeV2Factory",
						"label": "fee",
						"offset": 0,
						"slot": "0",
						"type": "t_uint256"
					},
					{
						"astId": 406,
						"contract": "bitlime-core/contracts/BitlimeV2Factory.sol:BitlimeV2Factory",
						"label": "feeTo",
						"offset": 0,
						"slot": "1",
						"type": "t_address"
					},
					{
						"astId": 408,
						"contract": "bitlime-core/contracts/BitlimeV2Factory.sol:BitlimeV2Factory",
						"label": "feeToSetter",
						"offset": 0,
						"slot": "2",
						"type": "t_address"
					},
					{
						"astId": 414,
						"contract": "bitlime-core/contracts/BitlimeV2Factory.sol:BitlimeV2Factory",
						"label": "getPair",
						"offset": 0,
						"slot": "3",
						"type": "t_mapping(t_address,t_mapping(t_address,t_address))"
					},
					{
						"astId": 417,
						"contract": "bitlime-core/contracts/BitlimeV2Factory.sol:BitlimeV2Factory",
						"label": "allPairs",
						"offset": 0,
						"slot": "4",
						"type": "t_array(t_address)dyn_storage"
					}
				],
				"types": {
					"t_address": {
						"encoding": "inplace",
						"label": "address",
						"numberOfBytes": "20"
					},
					"t_array(t_address)dyn_storage": {
						"base": "t_address",
						"encoding": "dynamic_array",
						"label": "address[]",
						"numberOfBytes": "32"
					},
					"t_mapping(t_address,t_address)": {
						"encoding": "mapping",
						"key": "t_address",
						"label": "mapping(address => address)",
						"numberOfBytes": "32",
						"value": "t_address"
					},
					"t_mapping(t_address,t_mapping(t_address,t_address))": {
						"encoding": "mapping",
						"key": "t_address",
						"label": "mapping(address => mapping(address => address))",
						"numberOfBytes": "32",
						"value": "t_mapping(t_address,t_address)"
					},
					"t_uint256": {
						"encoding": "inplace",
						"label": "uint256",
						"numberOfBytes": "32"
					}
				}
			},
			"userdoc": {
				"methods": {}
			}
		}
	}
}