{
	"bitlime-core/contracts/BitlimeV2ERC20.sol": {
		"BitlimeV2ERC20": {
			"abi": [
				{
					"inputs": [],
					"payable": false,
					"stateMutability": "nonpayable",
					"type": "constructor"
				},
				{
					"anonymous": false,
					"inputs": [
						{
							"indexed": true,
							"internalType": "address",
							"name": "owner",
							"type": "address"
						},
						{
							"indexed": true,
							"internalType": "address",
							"name": "spender",
							"type": "address"
						},
						{
							"indexed": false,
							"internalType": "uint256",
							"name": "value",
							"type": "uint256"
						}
					],
					"name": "Approval",
					"type": "event"
				},
				{
					"anonymous": false,
					"inputs": [
						{
							"indexed": true,
							"internalType": "address",
							"name": "from",
							"type": "address"
						},
						{
							"indexed": true,
							"internalType": "address",
							"name": "to",
							"type": "address"
						},
						{
							"indexed": false,
							"internalType": "uint256",
							"name": "value",
							"type": "uint256"
						}
					],
					"name": "Transfer",
					"type": "event"
				},
				{
					"constant": true,
					"inputs": [],
					"name": "DOMAIN_SEPARATOR",
					"outputs": [
						{
							"internalType": "bytes32",
							"name": "",
							"type": "bytes32"
						}
					],
					"payable": false,
					"stateMutability": "view",
					"type": "function"
				},
				{
					"constant": true,
					"inputs": [],
					"name": "PERMIT_TYPEHASH",
					"outputs": [
						{
							"internalType": "bytes32",
							"name": "",
							"type": "bytes32"
						}
					],
					"payable": false,
					"stateMutability": "view",
					"type": "function"
				},
				{
					"constant": true,
					"inputs": [
						{
							"internalType": "address",
							"name": "",
							"type": "address"
						},
						{
							"internalType": "address",
							"name": "",
							"type": "address"
						}
					],
					"name": "allowance",
					"outputs": [
						{
							"internalType": "uint256",
							"name": "",
							"type": "uint256"
						}
					],
					"payable": false,
					"stateMutability": "view",
					"type": "function"
				},
				{
					"constant": false,
					"inputs": [
						{
							"internalType": "address",
							"name": "spender",
							"type": "address"
						},
						{
							"internalType": "uint256",
							"name": "value",
							"type": "uint256"
						}
					],
					"name": "approve",
					"outputs": [
						{
							"internalType": "bool",
							"name": "",
							"type": "bool"
						}
					],
					"payable": false,
					"stateMutability": "nonpayable",
					"type": "function"
				},
				{
					"constant": true,
					"inputs": [
						{
							"internalType": "address",
							"name": "",
							"type": "address"
						}
					],
					"name": "balanceOf",
					"outputs": [
						{
							"internalType": "uint256",
							"name": "",
							"type": "uint256"
						}
					],
					"payable": false,
					"stateMutability": "view",
					"type": "function"
				},
				{
					"constant": true,
					"inputs": [],
					"name": "decimals",
					"outputs": [
						{
							"internalType": "uint8",
							"name": "",
							"type": "uint8"
						}
					],
					"payable": false,
					"stateMutability": "view",
					"type": "function"
				},
				{
					"constant": true,
					"inputs": [],
					"name": "name",
					"outputs": [
						{
							"internalType": "string",
							"name": "",
							"type": "string"
						}
					],
					"payable": false,
					"stateMutability": "view",
					"type": "function"
				},
				{
					"constant": true,
					"inputs": [
						{
							"internalType": "address",
							"name": "",
							"type": "address"
						}
					],
					"name": "nonces",
					"outputs": [
						{
							"internalType": "uint256",
							"name": "",
							"type": "uint256"
						}
					],
					"payable": false,
					"stateMutability": "view",
					"type": "function"
				},
				{
					"constant": false,
					"inputs": [
						{
							"internalType": "address",
							"name": "owner",
							"type": "address"
						},
						{
							"internalType": "address",
							"name": "spender",
							"type": "address"
						},
						{
							"internalType": "uint256",
							"name": "value",
							"type": "uint256"
						},
						{
							"internalType": "uint256",
							"name": "deadline",
							"type": "uint256"
						},
						{
							"internalType": "uint8",
							"name": "v",
							"type": "uint8"
						},
						{
							"internalType": "bytes32",
							"name": "r",
							"type": "bytes32"
						},
						{
							"internalType": "bytes32",
							"name": "s",
							"type": "bytes32"
						}
					],
					"name": "permit",
					"outputs": [],
					"payable": false,
					"stateMutability": "nonpayable",
					"type": "function"
				},
				{
					"constant": true,
					"inputs": [],
					"name": "symbol",
					"outputs": [
						{
							"internalType": "string",
							"name": "",
							"type": "string"
						}
					],
					"payable": false,
					"stateMutability": "view",
					"type": "function"
				},
				{
					"constant": true,
					"inputs": [],
					"name": "totalSupply",
					"outputs": [
						{
							"internalType": "uint256",
							"name": "",
							"type": "uint256"
						}
					],
					"payable": false,
					"stateMutability": "view",
					"type": "function"
				},
				{
					"constant": false,
					"inputs": [
						{
							"internalType": "address",
							"name": "to",
							"type": "address"
						},
						{
							"internalType": "uint256",
							"name": "value",
							"type": "uint256"
						}
					],
					"name": "transfer",
					"outputs": [
						{
							"internalType": "bool",
							"name": "",
							"type": "bool"
						}
					],
					"payable": false,
					"stateMutability": "nonpayable",
					"type": "function"
				},
				{
					"constant": false,
					"inputs": [
						{
							"internalType": "address",
							"name": "from",
							"type": "address"
						},
						{
							"internalType": "address",
							"name": "to",
							"type": "address"
						},
						{
							"internalType": "uint256",
							"name": "value",
							"type": "uint256"
						}
					],
					"name": "transferFrom",
					"outputs": [
						{
							"internalType": "bool",
							"name": "",
							"type": "bool"
						}
					],
					"payable": false,
					"stateMutability": "nonpayable",
					"type": "function"
				}
			],
			"devdoc": {
				"methods": {}
			},
			"evm": {
				"assembly": "    /* \"bitlime-core/contracts/BitlimeV2ERC20.sol\":110:3528  contract BitlimeV2ERC20 is IBitlimeV2ERC20 {\r... */\n  mstore(0x40, 0x80)\n    /* \"bitlime-core/contracts/BitlimeV2ERC20.sol\":943:1401  constructor() public {\r... */\n  callvalue\n    /* \"--CODEGEN--\":8:17   */\n  dup1\n    /* \"--CODEGEN--\":5:7   */\n  iszero\n  tag_1\n  jumpi\n    /* \"--CODEGEN--\":30:31   */\n  0x00\n    /* \"--CODEGEN--\":27:28   */\n  dup1\n    /* \"--CODEGEN--\":20:32   */\n  revert\n    /* \"--CODEGEN--\":5:7   */\ntag_1:\n  pop\n    /* \"bitlime-core/contracts/BitlimeV2ERC20.sol\":1133:1228  keccak256('EIP712Domain(string name,string version,uint256 chainId,address verifyingContract)') */\n  mload(0x40)\n    /* \"bitlime-core/contracts/BitlimeV2ERC20.sol\":1033:1040  chainid */\n  chainid\n  swap1\n    /* \"bitlime-core/contracts/BitlimeV2ERC20.sol\":1133:1228  keccak256('EIP712Domain(string name,string version,uint256 chainId,address verifyingContract)') */\n  dup1\n  0x52\n  data_8b73c3c69bb8fe3d512ecc4cf759cc79239f7b179b0ffacaa9a75d522b39400f\n  dup3\n  codecopy\n  0x40\n  dup1\n  mload\n  swap2\n  dup3\n  swap1\n  sub\n  0x52\n  add\n  dup3\n  keccak256\n    /* \"bitlime-core/contracts/BitlimeV2ERC20.sol\":1263:1267  name */\n  dup3\n  dup3\n  add\n  dup3\n  mstore\n  0x0a\n  dup4\n  mstore\n  shl(0xb1, 0x2134ba3634b6b2902b19)\n  0x20\n  swap4\n  dup5\n  add\n  mstore\n    /* \"bitlime-core/contracts/BitlimeV2ERC20.sol\":1298:1308  bytes('1') */\n  dup2\n  mload\n  dup1\n  dup4\n  add\n  dup4\n  mstore\n  0x01\n  dup2\n  mstore\n  shl(0xf8, 0x31)\n  swap1\n  dup5\n  add\n  mstore\n    /* \"bitlime-core/contracts/BitlimeV2ERC20.sol\":1104:1382  abi.encode(\r... */\n  dup2\n  mload\n  dup1\n  dup5\n  add\n  swap2\n  swap1\n  swap2\n  mstore\n    /* \"bitlime-core/contracts/BitlimeV2ERC20.sol\":1247:1269  keccak256(bytes(name)) */\n  0x446e80230380561d906573d2b5dbfc9fadb3f5adee8411e56a4c6511d92876e3\n    /* \"bitlime-core/contracts/BitlimeV2ERC20.sol\":1104:1382  abi.encode(\r... */\n  dup2\n  dup4\n  add\n  mstore\n    /* \"bitlime-core/contracts/BitlimeV2ERC20.sol\":1288:1309  keccak256(bytes('1')) */\n  0xc89efdaa54c0f20c7adf612882df0950f5a951637e0307cdcb4c672f298b8bc6\n    /* \"bitlime-core/contracts/BitlimeV2ERC20.sol\":1104:1382  abi.encode(\r... */\n  0x60\n  dup3\n  add\n  mstore\n  0x80\n  dup2\n  add\n  swap5\n  swap1\n  swap5\n  mstore\n    /* \"bitlime-core/contracts/BitlimeV2ERC20.sol\":1362:1366  this */\n  address\n    /* \"bitlime-core/contracts/BitlimeV2ERC20.sol\":1104:1382  abi.encode(\r... */\n  0xa0\n  dup1\n  dup7\n  add\n  swap2\n  swap1\n  swap2\n  mstore\n  dup2\n  mload\n    /* \"--CODEGEN--\":26:47   */\n  dup1\n  dup7\n  sub\n    /* \"--CODEGEN--\":22:54   */\n  swap1\n  swap2\n  add\n    /* \"--CODEGEN--\":6:55   */\n  dup2\n  mstore\n    /* \"bitlime-core/contracts/BitlimeV2ERC20.sol\":1104:1382  abi.encode(\r... */\n  0xc0\n  swap1\n  swap5\n  add\n  swap1\n  mstore\n    /* \"bitlime-core/contracts/BitlimeV2ERC20.sol\":1080:1393  keccak256(\r... */\n  dup3\n  mload\n  swap3\n  add\n  swap2\n  swap1\n  swap2\n  keccak256\n    /* \"bitlime-core/contracts/BitlimeV2ERC20.sol\":1061:1077  DOMAIN_SEPARATOR */\n  0x03\n    /* \"bitlime-core/contracts/BitlimeV2ERC20.sol\":1061:1393  DOMAIN_SEPARATOR = keccak256(\r... */\n  sstore\n  pop\n    /* \"bitlime-core/contracts/BitlimeV2ERC20.sol\":110:3528  contract BitlimeV2ERC20 is IBitlimeV2ERC20 {\r... */\n  dataSize(sub_0)\n  dup1\n  dataOffset(sub_0)\n  0x00\n  codecopy\n  0x00\n  return\nstop\ndata_8b73c3c69bb8fe3d512ecc4cf759cc79239f7b179b0ffacaa9a75d522b39400f 454950373132446f6d61696e28737472696e67206e616d652c737472696e672076657273696f6e2c75696e7432353620636861696e49642c6164647265737320766572696679696e67436f6e747261637429\n\nsub_0: assembly {\n        /* \"bitlime-core/contracts/BitlimeV2ERC20.sol\":110:3528  contract BitlimeV2ERC20 is IBitlimeV2ERC20 {\r... */\n      mstore(0x40, 0x80)\n      callvalue\n        /* \"--CODEGEN--\":8:17   */\n      dup1\n        /* \"--CODEGEN--\":5:7   */\n      iszero\n      tag_1\n      jumpi\n        /* \"--CODEGEN--\":30:31   */\n      0x00\n        /* \"--CODEGEN--\":27:28   */\n      dup1\n        /* \"--CODEGEN--\":20:32   */\n      revert\n        /* \"--CODEGEN--\":5:7   */\n    tag_1:\n        /* \"bitlime-core/contracts/BitlimeV2ERC20.sol\":110:3528  contract BitlimeV2ERC20 is IBitlimeV2ERC20 {\r... */\n      pop\n      jumpi(tag_2, lt(calldatasize, 0x04))\n      shr(0xe0, calldataload(0x00))\n      dup1\n      0x3644e515\n      gt\n      tag_16\n      jumpi\n      dup1\n      0x95d89b41\n      gt\n      tag_17\n      jumpi\n      dup1\n      0x95d89b41\n      eq\n      tag_12\n      jumpi\n      dup1\n      0xa9059cbb\n      eq\n      tag_13\n      jumpi\n      dup1\n      0xd505accf\n      eq\n      tag_14\n      jumpi\n      dup1\n      0xdd62ed3e\n      eq\n      tag_15\n      jumpi\n      jump(tag_2)\n    tag_17:\n      dup1\n      0x3644e515\n      eq\n      tag_9\n      jumpi\n      dup1\n      0x70a08231\n      eq\n      tag_10\n      jumpi\n      dup1\n      0x7ecebe00\n      eq\n      tag_11\n      jumpi\n      jump(tag_2)\n    tag_16:\n      dup1\n      0x06fdde03\n      eq\n      tag_3\n      jumpi\n      dup1\n      0x095ea7b3\n      eq\n      tag_4\n      jumpi\n      dup1\n      0x18160ddd\n      eq\n      tag_5\n      jumpi\n      dup1\n      0x23b872dd\n      eq\n      tag_6\n      jumpi\n      dup1\n      0x30adf81f\n      eq\n      tag_7\n      jumpi\n      dup1\n      0x313ce567\n      eq\n      tag_8\n      jumpi\n    tag_2:\n      0x00\n      dup1\n      revert\n        /* \"bitlime-core/contracts/BitlimeV2ERC20.sol\":192:234  string public constant name = 'Bitlime V2' */\n    tag_3:\n      tag_18\n      tag_19\n      jump\t// in\n    tag_18:\n      0x40\n      dup1\n      mload\n      0x20\n      dup1\n      dup3\n      mstore\n      dup4\n      mload\n      dup2\n      dup4\n      add\n      mstore\n      dup4\n      mload\n      swap2\n      swap3\n      dup4\n      swap3\n      swap1\n      dup4\n      add\n      swap2\n      dup6\n      add\n      swap1\n      dup1\n      dup4\n      dup4\n      0x00\n        /* \"--CODEGEN--\":8:108   */\n    tag_20:\n        /* \"--CODEGEN--\":33:36   */\n      dup4\n        /* \"--CODEGEN--\":30:31   */\n      dup2\n        /* \"--CODEGEN--\":27:37   */\n      lt\n        /* \"--CODEGEN--\":8:108   */\n      iszero\n      tag_22\n      jumpi\n        /* \"--CODEGEN--\":90:101   */\n      dup2\n      dup2\n      add\n        /* \"--CODEGEN--\":84:102   */\n      mload\n        /* \"--CODEGEN--\":71:82   */\n      dup4\n      dup3\n      add\n        /* \"--CODEGEN--\":64:103   */\n      mstore\n        /* \"--CODEGEN--\":52:54   */\n      0x20\n        /* \"--CODEGEN--\":45:55   */\n      add\n        /* \"--CODEGEN--\":8:108   */\n      jump(tag_20)\n    tag_22:\n        /* \"--CODEGEN--\":12:26   */\n      pop\n        /* \"bitlime-core/contracts/BitlimeV2ERC20.sol\":192:234  string public constant name = 'Bitlime V2' */\n      pop\n      pop\n      pop\n      swap1\n      pop\n      swap1\n      dup2\n      add\n      swap1\n      0x1f\n      and\n      dup1\n      iszero\n      tag_23\n      jumpi\n      dup1\n      dup3\n      sub\n      dup1\n      mload\n      0x01\n      dup4\n      0x20\n      sub\n      0x0100\n      exp\n      sub\n      not\n      and\n      dup2\n      mstore\n      0x20\n      add\n      swap2\n      pop\n    tag_23:\n      pop\n      swap3\n      pop\n      pop\n      pop\n      mload(0x40)\n      dup1\n      swap2\n      sub\n      swap1\n      return\n        /* \"bitlime-core/contracts/BitlimeV2ERC20.sol\":2240:2387  function approve(address spender, uint value) external returns (bool) {\r... */\n    tag_4:\n      tag_24\n      0x04\n      dup1\n      calldatasize\n      sub\n        /* \"--CODEGEN--\":13:15   */\n      0x40\n        /* \"--CODEGEN--\":8:11   */\n      dup2\n        /* \"--CODEGEN--\":5:16   */\n      lt\n        /* \"--CODEGEN--\":2:4   */\n      iszero\n      tag_25\n      jumpi\n        /* \"--CODEGEN--\":29:30   */\n      0x00\n        /* \"--CODEGEN--\":26:27   */\n      dup1\n        /* \"--CODEGEN--\":19:31   */\n      revert\n        /* \"--CODEGEN--\":2:4   */\n    tag_25:\n      pop\n      sub(shl(0xa0, 0x01), 0x01)\n        /* \"bitlime-core/contracts/BitlimeV2ERC20.sol\":2240:2387  function approve(address spender, uint value) external returns (bool) {\r... */\n      dup2\n      calldataload\n      and\n      swap1\n      0x20\n      add\n      calldataload\n      tag_26\n      jump\t// in\n    tag_24:\n      0x40\n      dup1\n      mload\n      swap2\n      iszero\n      iszero\n      dup3\n      mstore\n      mload\n      swap1\n      dup2\n      swap1\n      sub\n      0x20\n      add\n      swap1\n      return\n        /* \"bitlime-core/contracts/BitlimeV2ERC20.sol\":331:355  uint  public totalSupply */\n    tag_5:\n      tag_27\n      tag_28\n      jump\t// in\n    tag_27:\n      0x40\n      dup1\n      mload\n      swap2\n      dup3\n      mstore\n      mload\n      swap1\n      dup2\n      swap1\n      sub\n      0x20\n      add\n      swap1\n      return\n        /* \"bitlime-core/contracts/BitlimeV2ERC20.sol\":2542:2843  function transferFrom(address from, address to, uint value) external returns (bool) {\r... */\n    tag_6:\n      tag_24\n      0x04\n      dup1\n      calldatasize\n      sub\n        /* \"--CODEGEN--\":13:15   */\n      0x60\n        /* \"--CODEGEN--\":8:11   */\n      dup2\n        /* \"--CODEGEN--\":5:16   */\n      lt\n        /* \"--CODEGEN--\":2:4   */\n      iszero\n      tag_30\n      jumpi\n        /* \"--CODEGEN--\":29:30   */\n      0x00\n        /* \"--CODEGEN--\":26:27   */\n      dup1\n        /* \"--CODEGEN--\":19:31   */\n      revert\n        /* \"--CODEGEN--\":2:4   */\n    tag_30:\n      pop\n      sub(shl(0xa0, 0x01), 0x01)\n        /* \"bitlime-core/contracts/BitlimeV2ERC20.sol\":2542:2843  function transferFrom(address from, address to, uint value) external returns (bool) {\r... */\n      dup2\n      calldataload\n      dup2\n      and\n      swap2\n      0x20\n      dup2\n      add\n      calldataload\n      swap1\n      swap2\n      and\n      swap1\n      0x40\n      add\n      calldataload\n      tag_31\n      jump\t// in\n        /* \"bitlime-core/contracts/BitlimeV2ERC20.sol\":623:731  bytes32 public constant PERMIT_TYPEHASH = 0x6e71edae12b1b97f4d1f60370fef10105fa2faae0126114a169c64845d6126c9 */\n    tag_7:\n      tag_27\n      tag_33\n      jump\t// in\n        /* \"bitlime-core/contracts/BitlimeV2ERC20.sol\":289:324  uint8 public constant decimals = 18 */\n    tag_8:\n      tag_34\n      tag_35\n      jump\t// in\n    tag_34:\n      0x40\n      dup1\n      mload\n      0xff\n      swap1\n      swap3\n      and\n      dup3\n      mstore\n      mload\n      swap1\n      dup2\n      swap1\n      sub\n      0x20\n      add\n      swap1\n      return\n        /* \"bitlime-core/contracts/BitlimeV2ERC20.sol\":480:511  bytes32 public DOMAIN_SEPARATOR */\n    tag_9:\n      tag_27\n      tag_37\n      jump\t// in\n        /* \"bitlime-core/contracts/BitlimeV2ERC20.sol\":362:403  mapping(address => uint) public balanceOf */\n    tag_10:\n      tag_27\n      0x04\n      dup1\n      calldatasize\n      sub\n        /* \"--CODEGEN--\":13:15   */\n      0x20\n        /* \"--CODEGEN--\":8:11   */\n      dup2\n        /* \"--CODEGEN--\":5:16   */\n      lt\n        /* \"--CODEGEN--\":2:4   */\n      iszero\n      tag_39\n      jumpi\n        /* \"--CODEGEN--\":29:30   */\n      0x00\n        /* \"--CODEGEN--\":26:27   */\n      dup1\n        /* \"--CODEGEN--\":19:31   */\n      revert\n        /* \"--CODEGEN--\":2:4   */\n    tag_39:\n      pop\n        /* \"bitlime-core/contracts/BitlimeV2ERC20.sol\":362:403  mapping(address => uint) public balanceOf */\n      calldataload\n      sub(shl(0xa0, 0x01), 0x01)\n      and\n      tag_40\n      jump\t// in\n        /* \"bitlime-core/contracts/BitlimeV2ERC20.sol\":738:776  mapping(address => uint) public nonces */\n    tag_11:\n      tag_27\n      0x04\n      dup1\n      calldatasize\n      sub\n        /* \"--CODEGEN--\":13:15   */\n      0x20\n        /* \"--CODEGEN--\":8:11   */\n      dup2\n        /* \"--CODEGEN--\":5:16   */\n      lt\n        /* \"--CODEGEN--\":2:4   */\n      iszero\n      tag_42\n      jumpi\n        /* \"--CODEGEN--\":29:30   */\n      0x00\n        /* \"--CODEGEN--\":26:27   */\n      dup1\n        /* \"--CODEGEN--\":19:31   */\n      revert\n        /* \"--CODEGEN--\":2:4   */\n    tag_42:\n      pop\n        /* \"bitlime-core/contracts/BitlimeV2ERC20.sol\":738:776  mapping(address => uint) public nonces */\n      calldataload\n      sub(shl(0xa0, 0x01), 0x01)\n      and\n      tag_43\n      jump\t// in\n        /* \"bitlime-core/contracts/BitlimeV2ERC20.sol\":241:282  string public constant symbol = 'LIME-V2' */\n    tag_12:\n      tag_18\n      tag_45\n      jump\t// in\n        /* \"bitlime-core/contracts/BitlimeV2ERC20.sol\":2395:2534  function transfer(address to, uint value) external returns (bool) {\r... */\n    tag_13:\n      tag_24\n      0x04\n      dup1\n      calldatasize\n      sub\n        /* \"--CODEGEN--\":13:15   */\n      0x40\n        /* \"--CODEGEN--\":8:11   */\n      dup2\n        /* \"--CODEGEN--\":5:16   */\n      lt\n        /* \"--CODEGEN--\":2:4   */\n      iszero\n      tag_51\n      jumpi\n        /* \"--CODEGEN--\":29:30   */\n      0x00\n        /* \"--CODEGEN--\":26:27   */\n      dup1\n        /* \"--CODEGEN--\":19:31   */\n      revert\n        /* \"--CODEGEN--\":2:4   */\n    tag_51:\n      pop\n      sub(shl(0xa0, 0x01), 0x01)\n        /* \"bitlime-core/contracts/BitlimeV2ERC20.sol\":2395:2534  function transfer(address to, uint value) external returns (bool) {\r... */\n      dup2\n      calldataload\n      and\n      swap1\n      0x20\n      add\n      calldataload\n      tag_52\n      jump\t// in\n        /* \"bitlime-core/contracts/BitlimeV2ERC20.sol\":2851:3525  function permit(address owner, address spender, uint value, uint deadline, uint8 v, bytes32 r, bytes32 s) external {\r... */\n    tag_14:\n      tag_53\n      0x04\n      dup1\n      calldatasize\n      sub\n        /* \"--CODEGEN--\":13:16   */\n      0xe0\n        /* \"--CODEGEN--\":8:11   */\n      dup2\n        /* \"--CODEGEN--\":5:17   */\n      lt\n        /* \"--CODEGEN--\":2:4   */\n      iszero\n      tag_54\n      jumpi\n        /* \"--CODEGEN--\":30:31   */\n      0x00\n        /* \"--CODEGEN--\":27:28   */\n      dup1\n        /* \"--CODEGEN--\":20:32   */\n      revert\n        /* \"--CODEGEN--\":2:4   */\n    tag_54:\n      pop\n      sub(shl(0xa0, 0x01), 0x01)\n        /* \"bitlime-core/contracts/BitlimeV2ERC20.sol\":2851:3525  function permit(address owner, address spender, uint value, uint deadline, uint8 v, bytes32 r, bytes32 s) external {\r... */\n      dup2\n      calldataload\n      dup2\n      and\n      swap2\n      0x20\n      dup2\n      add\n      calldataload\n      swap1\n      swap2\n      and\n      swap1\n      0x40\n      dup2\n      add\n      calldataload\n      swap1\n      0x60\n      dup2\n      add\n      calldataload\n      swap1\n      0xff\n      0x80\n      dup3\n      add\n      calldataload\n      and\n      swap1\n      0xa0\n      dup2\n      add\n      calldataload\n      swap1\n      0xc0\n      add\n      calldataload\n      tag_55\n      jump\t// in\n    tag_53:\n      stop\n        /* \"bitlime-core/contracts/BitlimeV2ERC20.sol\":410:471  mapping(address => mapping(address => uint)) public allowance */\n    tag_15:\n      tag_27\n      0x04\n      dup1\n      calldatasize\n      sub\n        /* \"--CODEGEN--\":13:15   */\n      0x40\n        /* \"--CODEGEN--\":8:11   */\n      dup2\n        /* \"--CODEGEN--\":5:16   */\n      lt\n        /* \"--CODEGEN--\":2:4   */\n      iszero\n      tag_57\n      jumpi\n        /* \"--CODEGEN--\":29:30   */\n      0x00\n        /* \"--CODEGEN--\":26:27   */\n      dup1\n        /* \"--CODEGEN--\":19:31   */\n      revert\n        /* \"--CODEGEN--\":2:4   */\n    tag_57:\n      pop\n      sub(shl(0xa0, 0x01), 0x01)\n        /* \"bitlime-core/contracts/BitlimeV2ERC20.sol\":410:471  mapping(address => mapping(address => uint)) public allowance */\n      dup2\n      calldataload\n      dup2\n      and\n      swap2\n      0x20\n      add\n      calldataload\n      and\n      tag_58\n      jump\t// in\n        /* \"bitlime-core/contracts/BitlimeV2ERC20.sol\":192:234  string public constant name = 'Bitlime V2' */\n    tag_19:\n      mload(0x40)\n      dup1\n      0x40\n      add\n      0x40\n      mstore\n      dup1\n      0x0a\n      dup2\n      mstore\n      0x20\n      add\n      shl(0xb1, 0x2134ba3634b6b2902b19)\n      dup2\n      mstore\n      pop\n      dup2\n      jump\t// out\n        /* \"bitlime-core/contracts/BitlimeV2ERC20.sol\":2240:2387  function approve(address spender, uint value) external returns (bool) {\r... */\n    tag_26:\n        /* \"bitlime-core/contracts/BitlimeV2ERC20.sol\":2304:2308  bool */\n      0x00\n        /* \"bitlime-core/contracts/BitlimeV2ERC20.sol\":2321:2357  _approve(msg.sender, spender, value) */\n      tag_60\n        /* \"bitlime-core/contracts/BitlimeV2ERC20.sol\":2330:2340  msg.sender */\n      caller\n        /* \"bitlime-core/contracts/BitlimeV2ERC20.sol\":2342:2349  spender */\n      dup5\n        /* \"bitlime-core/contracts/BitlimeV2ERC20.sol\":2351:2356  value */\n      dup5\n        /* \"bitlime-core/contracts/BitlimeV2ERC20.sol\":2321:2329  _approve */\n      tag_61\n        /* \"bitlime-core/contracts/BitlimeV2ERC20.sol\":2321:2357  _approve(msg.sender, spender, value) */\n      jump\t// in\n    tag_60:\n      pop\n        /* \"bitlime-core/contracts/BitlimeV2ERC20.sol\":2375:2379  true */\n      0x01\n        /* \"bitlime-core/contracts/BitlimeV2ERC20.sol\":2240:2387  function approve(address spender, uint value) external returns (bool) {\r... */\n    tag_59:\n      swap3\n      swap2\n      pop\n      pop\n      jump\t// out\n        /* \"bitlime-core/contracts/BitlimeV2ERC20.sol\":331:355  uint  public totalSupply */\n    tag_28:\n      sload(0x00)\n      dup2\n      jump\t// out\n        /* \"bitlime-core/contracts/BitlimeV2ERC20.sol\":2542:2843  function transferFrom(address from, address to, uint value) external returns (bool) {\r... */\n    tag_31:\n      sub(shl(0xa0, 0x01), 0x01)\n        /* \"bitlime-core/contracts/BitlimeV2ERC20.sol\":2641:2656  allowance[from] */\n      dup4\n      and\n        /* \"bitlime-core/contracts/BitlimeV2ERC20.sol\":2620:2624  bool */\n      0x00\n        /* \"bitlime-core/contracts/BitlimeV2ERC20.sol\":2641:2656  allowance[from] */\n      swap1\n      dup2\n      mstore\n        /* \"bitlime-core/contracts/BitlimeV2ERC20.sol\":2641:2650  allowance */\n      0x02\n        /* \"bitlime-core/contracts/BitlimeV2ERC20.sol\":2641:2656  allowance[from] */\n      0x20\n      swap1\n      dup2\n      mstore\n      0x40\n      dup1\n      dup4\n      keccak256\n        /* \"bitlime-core/contracts/BitlimeV2ERC20.sol\":2657:2667  msg.sender */\n      caller\n        /* \"bitlime-core/contracts/BitlimeV2ERC20.sol\":2641:2668  allowance[from][msg.sender] */\n      dup5\n      mstore\n      swap1\n      swap2\n      mstore\n      dup2\n      keccak256\n      sload\n      not(0x00)\n        /* \"bitlime-core/contracts/BitlimeV2ERC20.sol\":2641:2680  allowance[from][msg.sender] != uint(-1) */\n      eq\n        /* \"bitlime-core/contracts/BitlimeV2ERC20.sol\":2637:2777  if (allowance[from][msg.sender] != uint(-1)) {\r... */\n      tag_63\n      jumpi\n      sub(shl(0xa0, 0x01), 0x01)\n        /* \"bitlime-core/contracts/BitlimeV2ERC20.sol\":2727:2742  allowance[from] */\n      dup5\n      and\n      0x00\n      swap1\n      dup2\n      mstore\n        /* \"bitlime-core/contracts/BitlimeV2ERC20.sol\":2727:2736  allowance */\n      0x02\n        /* \"bitlime-core/contracts/BitlimeV2ERC20.sol\":2727:2742  allowance[from] */\n      0x20\n      swap1\n      dup2\n      mstore\n      0x40\n      dup1\n      dup4\n      keccak256\n        /* \"bitlime-core/contracts/BitlimeV2ERC20.sol\":2743:2753  msg.sender */\n      caller\n        /* \"bitlime-core/contracts/BitlimeV2ERC20.sol\":2727:2754  allowance[from][msg.sender] */\n      dup5\n      mstore\n      swap1\n      swap2\n      mstore\n      swap1\n      keccak256\n      sload\n        /* \"bitlime-core/contracts/BitlimeV2ERC20.sol\":2727:2765  allowance[from][msg.sender].sub(value) */\n      tag_64\n      swap1\n        /* \"bitlime-core/contracts/BitlimeV2ERC20.sol\":2759:2764  value */\n      dup4\n        /* \"bitlime-core/contracts/BitlimeV2ERC20.sol\":2727:2765  allowance[from][msg.sender].sub(value) */\n      0xffffffff\n        /* \"bitlime-core/contracts/BitlimeV2ERC20.sol\":2727:2758  allowance[from][msg.sender].sub */\n      tag_65\n        /* \"bitlime-core/contracts/BitlimeV2ERC20.sol\":2727:2765  allowance[from][msg.sender].sub(value) */\n      and\n      jump\t// in\n    tag_64:\n      sub(shl(0xa0, 0x01), 0x01)\n        /* \"bitlime-core/contracts/BitlimeV2ERC20.sol\":2697:2712  allowance[from] */\n      dup6\n      and\n      0x00\n      swap1\n      dup2\n      mstore\n        /* \"bitlime-core/contracts/BitlimeV2ERC20.sol\":2697:2706  allowance */\n      0x02\n        /* \"bitlime-core/contracts/BitlimeV2ERC20.sol\":2697:2712  allowance[from] */\n      0x20\n      swap1\n      dup2\n      mstore\n      0x40\n      dup1\n      dup4\n      keccak256\n        /* \"bitlime-core/contracts/BitlimeV2ERC20.sol\":2713:2723  msg.sender */\n      caller\n        /* \"bitlime-core/contracts/BitlimeV2ERC20.sol\":2697:2724  allowance[from][msg.sender] */\n      dup5\n      mstore\n      swap1\n      swap2\n      mstore\n      swap1\n      keccak256\n        /* \"bitlime-core/contracts/BitlimeV2ERC20.sol\":2697:2765  allowance[from][msg.sender] = allowance[from][msg.sender].sub(value) */\n      sstore\n        /* \"bitlime-core/contracts/BitlimeV2ERC20.sol\":2637:2777  if (allowance[from][msg.sender] != uint(-1)) {\r... */\n    tag_63:\n        /* \"bitlime-core/contracts/BitlimeV2ERC20.sol\":2787:2813  _transfer(from, to, value) */\n      tag_66\n        /* \"bitlime-core/contracts/BitlimeV2ERC20.sol\":2797:2801  from */\n      dup5\n        /* \"bitlime-core/contracts/BitlimeV2ERC20.sol\":2803:2805  to */\n      dup5\n        /* \"bitlime-core/contracts/BitlimeV2ERC20.sol\":2807:2812  value */\n      dup5\n        /* \"bitlime-core/contracts/BitlimeV2ERC20.sol\":2787:2796  _transfer */\n      tag_67\n        /* \"bitlime-core/contracts/BitlimeV2ERC20.sol\":2787:2813  _transfer(from, to, value) */\n      jump\t// in\n    tag_66:\n      pop\n        /* \"bitlime-core/contracts/BitlimeV2ERC20.sol\":2831:2835  true */\n      0x01\n        /* \"bitlime-core/contracts/BitlimeV2ERC20.sol\":2542:2843  function transferFrom(address from, address to, uint value) external returns (bool) {\r... */\n      swap4\n      swap3\n      pop\n      pop\n      pop\n      jump\t// out\n        /* \"bitlime-core/contracts/BitlimeV2ERC20.sol\":623:731  bytes32 public constant PERMIT_TYPEHASH = 0x6e71edae12b1b97f4d1f60370fef10105fa2faae0126114a169c64845d6126c9 */\n    tag_33:\n        /* \"bitlime-core/contracts/BitlimeV2ERC20.sol\":665:731  0x6e71edae12b1b97f4d1f60370fef10105fa2faae0126114a169c64845d6126c9 */\n      0x6e71edae12b1b97f4d1f60370fef10105fa2faae0126114a169c64845d6126c9\n        /* \"bitlime-core/contracts/BitlimeV2ERC20.sol\":623:731  bytes32 public constant PERMIT_TYPEHASH = 0x6e71edae12b1b97f4d1f60370fef10105fa2faae0126114a169c64845d6126c9 */\n      dup2\n      jump\t// out\n        /* \"bitlime-core/contracts/BitlimeV2ERC20.sol\":289:324  uint8 public constant decimals = 18 */\n    tag_35:\n        /* \"bitlime-core/contracts/BitlimeV2ERC20.sol\":322:324  18 */\n      0x12\n        /* \"bitlime-core/contracts/BitlimeV2ERC20.sol\":289:324  uint8 public constant decimals = 18 */\n      dup2\n      jump\t// out\n        /* \"bitlime-core/contracts/BitlimeV2ERC20.sol\":480:511  bytes32 public DOMAIN_SEPARATOR */\n    tag_37:\n      sload(0x03)\n      dup2\n      jump\t// out\n        /* \"bitlime-core/contracts/BitlimeV2ERC20.sol\":362:403  mapping(address => uint) public balanceOf */\n    tag_40:\n      mstore(0x20, 0x01)\n      0x00\n      swap1\n      dup2\n      mstore\n      0x40\n      swap1\n      keccak256\n      sload\n      dup2\n      jump\t// out\n        /* \"bitlime-core/contracts/BitlimeV2ERC20.sol\":738:776  mapping(address => uint) public nonces */\n    tag_43:\n      mstore(0x20, 0x04)\n      0x00\n      swap1\n      dup2\n      mstore\n      0x40\n      swap1\n      keccak256\n      sload\n      dup2\n      jump\t// out\n        /* \"bitlime-core/contracts/BitlimeV2ERC20.sol\":241:282  string public constant symbol = 'LIME-V2' */\n    tag_45:\n      mload(0x40)\n      dup1\n      0x40\n      add\n      0x40\n      mstore\n      dup1\n      0x07\n      dup2\n      mstore\n      0x20\n      add\n      shl(0xc9, 0x2624a6a296ab19)\n      dup2\n      mstore\n      pop\n      dup2\n      jump\t// out\n        /* \"bitlime-core/contracts/BitlimeV2ERC20.sol\":2395:2534  function transfer(address to, uint value) external returns (bool) {\r... */\n    tag_52:\n        /* \"bitlime-core/contracts/BitlimeV2ERC20.sol\":2455:2459  bool */\n      0x00\n        /* \"bitlime-core/contracts/BitlimeV2ERC20.sol\":2472:2504  _transfer(msg.sender, to, value) */\n      tag_60\n        /* \"bitlime-core/contracts/BitlimeV2ERC20.sol\":2482:2492  msg.sender */\n      caller\n        /* \"bitlime-core/contracts/BitlimeV2ERC20.sol\":2494:2496  to */\n      dup5\n        /* \"bitlime-core/contracts/BitlimeV2ERC20.sol\":2498:2503  value */\n      dup5\n        /* \"bitlime-core/contracts/BitlimeV2ERC20.sol\":2472:2481  _transfer */\n      tag_67\n        /* \"bitlime-core/contracts/BitlimeV2ERC20.sol\":2472:2504  _transfer(msg.sender, to, value) */\n      jump\t// in\n        /* \"bitlime-core/contracts/BitlimeV2ERC20.sol\":2851:3525  function permit(address owner, address spender, uint value, uint deadline, uint8 v, bytes32 r, bytes32 s) external {\r... */\n    tag_55:\n        /* \"bitlime-core/contracts/BitlimeV2ERC20.sol\":2997:3012  block.timestamp */\n      timestamp\n        /* \"bitlime-core/contracts/BitlimeV2ERC20.sol\":2985:2993  deadline */\n      dup5\n        /* \"bitlime-core/contracts/BitlimeV2ERC20.sol\":2985:3012  deadline >= block.timestamp */\n      lt\n      iszero\n        /* \"bitlime-core/contracts/BitlimeV2ERC20.sol\":2977:3035  require(deadline >= block.timestamp, 'BitlimeV2: EXPIRED') */\n      tag_71\n      jumpi\n      0x40\n      dup1\n      mload\n      shl(0xe5, 0x461bcd)\n      dup2\n      mstore\n      0x20\n      0x04\n      dup3\n      add\n      mstore\n      0x12\n      0x24\n      dup3\n      add\n      mstore\n      shl(0x72, 0x109a5d1b1a5b59558c8e8811561412549151)\n      0x44\n      dup3\n      add\n      mstore\n      swap1\n      mload\n      swap1\n      dup2\n      swap1\n      sub\n      0x64\n      add\n      swap1\n      revert\n    tag_71:\n        /* \"bitlime-core/contracts/BitlimeV2ERC20.sol\":3151:3167  DOMAIN_SEPARATOR */\n      sload(0x03)\n      sub(shl(0xa0, 0x01), 0x01)\n        /* \"bitlime-core/contracts/BitlimeV2ERC20.sol\":3247:3260  nonces[owner] */\n      dup1\n      dup10\n      and\n        /* \"bitlime-core/contracts/BitlimeV2ERC20.sol\":3046:3060  bytes32 digest */\n      0x00\n        /* \"bitlime-core/contracts/BitlimeV2ERC20.sol\":3247:3260  nonces[owner] */\n      dup2\n      dup2\n      mstore\n        /* \"bitlime-core/contracts/BitlimeV2ERC20.sol\":3247:3253  nonces */\n      0x04\n        /* \"bitlime-core/contracts/BitlimeV2ERC20.sol\":3247:3260  nonces[owner] */\n      0x20\n      swap1\n      dup2\n      mstore\n      0x40\n      dup1\n      dup4\n      keccak256\n        /* \"bitlime-core/contracts/BitlimeV2ERC20.sol\":3247:3262  nonces[owner]++ */\n      dup1\n      sload\n      0x01\n      dup1\n      dup3\n      add\n      swap1\n      swap3\n      sstore\n        /* \"bitlime-core/contracts/BitlimeV2ERC20.sol\":3196:3273  abi.encode(PERMIT_TYPEHASH, owner, spender, value, nonces[owner]++, deadline) */\n      dup3\n      mload\n        /* \"bitlime-core/contracts/BitlimeV2ERC20.sol\":665:731  0x6e71edae12b1b97f4d1f60370fef10105fa2faae0126114a169c64845d6126c9 */\n      0x6e71edae12b1b97f4d1f60370fef10105fa2faae0126114a169c64845d6126c9\n        /* \"bitlime-core/contracts/BitlimeV2ERC20.sol\":3196:3273  abi.encode(PERMIT_TYPEHASH, owner, spender, value, nonces[owner]++, deadline) */\n      dup2\n      dup7\n      add\n      mstore\n      dup1\n      dup5\n      add\n      swap7\n      swap1\n      swap7\n      mstore\n      swap6\n      dup14\n      and\n      0x60\n      dup7\n      add\n      mstore\n      0x80\n      dup6\n      add\n      dup13\n      swap1\n      mstore\n      0xa0\n      dup6\n      add\n      swap6\n      swap1\n      swap6\n      mstore\n      0xc0\n      dup1\n      dup6\n      add\n      dup12\n      swap1\n      mstore\n      dup2\n      mload\n        /* \"--CODEGEN--\":26:47   */\n      dup1\n      dup7\n      sub\n        /* \"--CODEGEN--\":22:54   */\n      swap1\n      swap2\n      add\n        /* \"--CODEGEN--\":6:55   */\n      dup2\n      mstore\n        /* \"bitlime-core/contracts/BitlimeV2ERC20.sol\":3196:3273  abi.encode(PERMIT_TYPEHASH, owner, spender, value, nonces[owner]++, deadline) */\n      0xe0\n      dup6\n      add\n      dup3\n      mstore\n        /* \"bitlime-core/contracts/BitlimeV2ERC20.sol\":3186:3274  keccak256(abi.encode(PERMIT_TYPEHASH, owner, spender, value, nonces[owner]++, deadline)) */\n      dup1\n      mload\n      swap1\n      dup4\n      add\n      keccak256\n      shl(0xf0, 0x1901)\n        /* \"bitlime-core/contracts/BitlimeV2ERC20.sol\":3087:3289  abi.encodePacked(\r... */\n      0x0100\n      dup7\n      add\n      mstore\n      0x0102\n      dup6\n      add\n      swap7\n      swap1\n      swap7\n      mstore\n      0x0122\n      dup1\n      dup6\n      add\n      swap7\n      swap1\n      swap7\n      mstore\n      dup1\n      mload\n        /* \"--CODEGEN--\":26:47   */\n      dup1\n      dup6\n      sub\n        /* \"--CODEGEN--\":22:54   */\n      swap1\n      swap7\n      add\n        /* \"--CODEGEN--\":6:55   */\n      dup7\n      mstore\n        /* \"bitlime-core/contracts/BitlimeV2ERC20.sol\":3087:3289  abi.encodePacked(\r... */\n      0x0142\n      dup5\n      add\n      dup1\n      dup3\n      mstore\n        /* \"bitlime-core/contracts/BitlimeV2ERC20.sol\":3063:3300  keccak256(\r... */\n      dup7\n      mload\n      swap7\n      dup4\n      add\n      swap7\n      swap1\n      swap7\n      keccak256\n        /* \"bitlime-core/contracts/BitlimeV2ERC20.sol\":3338:3364  ecrecover(digest, v, r, s) */\n      swap6\n      dup4\n      swap1\n      mstore\n      0x0162\n      dup5\n      add\n      dup1\n      dup3\n      mstore\n      dup7\n      swap1\n      mstore\n      0xff\n      dup10\n      and\n      0x0182\n      dup6\n      add\n      mstore\n      0x01a2\n      dup5\n      add\n      dup9\n      swap1\n      mstore\n      0x01c2\n      dup5\n      add\n      dup8\n      swap1\n      mstore\n      mload\n        /* \"bitlime-core/contracts/BitlimeV2ERC20.sol\":3046:3060  bytes32 digest */\n      swap2\n      swap4\n        /* \"bitlime-core/contracts/BitlimeV2ERC20.sol\":3247:3262  nonces[owner]++ */\n      swap3\n        /* \"bitlime-core/contracts/BitlimeV2ERC20.sol\":3338:3364  ecrecover(digest, v, r, s) */\n      0x01e2\n      dup1\n      dup3\n      add\n      swap4\n      not(0x1f)\n      dup2\n      add\n      swap3\n      dup2\n      swap1\n      sub\n      swap1\n      swap2\n      add\n      swap1\n        /* \"bitlime-core/contracts/BitlimeV2ERC20.sol\":3247:3262  nonces[owner]++ */\n      dup6\n        /* \"bitlime-core/contracts/BitlimeV2ERC20.sol\":3338:3364  ecrecover(digest, v, r, s) */\n      gas\n      staticcall\n      iszero\n        /* \"--CODEGEN--\":8:17   */\n      dup1\n        /* \"--CODEGEN--\":5:7   */\n      iszero\n      tag_72\n      jumpi\n        /* \"--CODEGEN--\":45:61   */\n      returndatasize\n        /* \"--CODEGEN--\":42:43   */\n      0x00\n        /* \"--CODEGEN--\":39:40   */\n      dup1\n        /* \"--CODEGEN--\":24:62   */\n      returndatacopy\n        /* \"--CODEGEN--\":77:93   */\n      returndatasize\n        /* \"--CODEGEN--\":74:75   */\n      0x00\n        /* \"--CODEGEN--\":67:94   */\n      revert\n        /* \"--CODEGEN--\":5:7   */\n    tag_72:\n      pop\n      pop\n        /* \"bitlime-core/contracts/BitlimeV2ERC20.sol\":3338:3364  ecrecover(digest, v, r, s) */\n      mload(add(not(0x1f), mload(0x40)))\n      swap2\n      pop\n      pop\n      sub(shl(0xa0, 0x01), 0x01)\n        /* \"bitlime-core/contracts/BitlimeV2ERC20.sol\":3383:3413  recoveredAddress != address(0) */\n      dup2\n      and\n      iszero\n      dup1\n      iszero\n      swap1\n        /* \"bitlime-core/contracts/BitlimeV2ERC20.sol\":3383:3442  recoveredAddress != address(0) && recoveredAddress == owner */\n      tag_73\n      jumpi\n      pop\n        /* \"bitlime-core/contracts/BitlimeV2ERC20.sol\":3437:3442  owner */\n      dup9\n      sub(shl(0xa0, 0x01), 0x01)\n        /* \"bitlime-core/contracts/BitlimeV2ERC20.sol\":3417:3442  recoveredAddress == owner */\n      and\n        /* \"bitlime-core/contracts/BitlimeV2ERC20.sol\":3417:3433  recoveredAddress */\n      dup2\n      sub(shl(0xa0, 0x01), 0x01)\n        /* \"bitlime-core/contracts/BitlimeV2ERC20.sol\":3417:3442  recoveredAddress == owner */\n      and\n      eq\n        /* \"bitlime-core/contracts/BitlimeV2ERC20.sol\":3383:3442  recoveredAddress != address(0) && recoveredAddress == owner */\n    tag_73:\n        /* \"bitlime-core/contracts/BitlimeV2ERC20.sol\":3375:3475  require(recoveredAddress != address(0) && recoveredAddress == owner, 'BitlimeV2: INVALID_SIGNATURE') */\n      tag_74\n      jumpi\n      0x40\n      dup1\n      mload\n      shl(0xe5, 0x461bcd)\n      dup2\n      mstore\n      0x20\n      0x04\n      dup3\n      add\n      mstore\n      0x1c\n      0x24\n      dup3\n      add\n      mstore\n      0x4269746c696d6556323a20494e56414c49445f5349474e415455524500000000\n      0x44\n      dup3\n      add\n      mstore\n      swap1\n      mload\n      swap1\n      dup2\n      swap1\n      sub\n      0x64\n      add\n      swap1\n      revert\n    tag_74:\n        /* \"bitlime-core/contracts/BitlimeV2ERC20.sol\":3486:3517  _approve(owner, spender, value) */\n      tag_75\n        /* \"bitlime-core/contracts/BitlimeV2ERC20.sol\":3495:3500  owner */\n      dup10\n        /* \"bitlime-core/contracts/BitlimeV2ERC20.sol\":3502:3509  spender */\n      dup10\n        /* \"bitlime-core/contracts/BitlimeV2ERC20.sol\":3511:3516  value */\n      dup10\n        /* \"bitlime-core/contracts/BitlimeV2ERC20.sol\":3486:3494  _approve */\n      tag_61\n        /* \"bitlime-core/contracts/BitlimeV2ERC20.sol\":3486:3517  _approve(owner, spender, value) */\n      jump\t// in\n    tag_75:\n        /* \"bitlime-core/contracts/BitlimeV2ERC20.sol\":2851:3525  function permit(address owner, address spender, uint value, uint deadline, uint8 v, bytes32 r, bytes32 s) external {\r... */\n      pop\n      pop\n      pop\n      pop\n      pop\n      pop\n      pop\n      pop\n      pop\n      jump\t// out\n        /* \"bitlime-core/contracts/BitlimeV2ERC20.sol\":410:471  mapping(address => mapping(address => uint)) public allowance */\n    tag_58:\n      0x02\n      0x20\n      swap1\n      dup2\n      mstore\n      0x00\n      swap3\n      dup4\n      mstore\n      0x40\n      dup1\n      dup5\n      keccak256\n      swap1\n      swap2\n      mstore\n      swap1\n      dup3\n      mstore\n      swap1\n      keccak256\n      sload\n      dup2\n      jump\t// out\n        /* \"bitlime-core/contracts/BitlimeV2ERC20.sol\":1835:2004  function _approve(address owner, address spender, uint value) private {\r... */\n    tag_61:\n      sub(shl(0xa0, 0x01), 0x01)\n        /* \"bitlime-core/contracts/BitlimeV2ERC20.sol\":1916:1932  allowance[owner] */\n      dup1\n      dup5\n      and\n      0x00\n      dup2\n      dup2\n      mstore\n        /* \"bitlime-core/contracts/BitlimeV2ERC20.sol\":1916:1925  allowance */\n      0x02\n        /* \"bitlime-core/contracts/BitlimeV2ERC20.sol\":1916:1932  allowance[owner] */\n      0x20\n      swap1\n      dup2\n      mstore\n      0x40\n      dup1\n      dup4\n      keccak256\n        /* \"bitlime-core/contracts/BitlimeV2ERC20.sol\":1916:1941  allowance[owner][spender] */\n      swap5\n      dup8\n      and\n      dup1\n      dup5\n      mstore\n      swap5\n      dup3\n      mstore\n      swap2\n      dup3\n      swap1\n      keccak256\n        /* \"bitlime-core/contracts/BitlimeV2ERC20.sol\":1916:1949  allowance[owner][spender] = value */\n      dup6\n      swap1\n      sstore\n        /* \"bitlime-core/contracts/BitlimeV2ERC20.sol\":1965:1996  Approval(owner, spender, value) */\n      dup2\n      mload\n      dup6\n      dup2\n      mstore\n      swap2\n      mload\n      0x8c5be1e5ebec7d5bd14f71427d1e84f3dd0314c0f7b2291e5b200ac8c7c3b925\n      swap3\n      dup2\n      swap1\n      sub\n      swap1\n      swap2\n      add\n      swap1\n      log3\n        /* \"bitlime-core/contracts/BitlimeV2ERC20.sol\":1835:2004  function _approve(address owner, address spender, uint value) private {\r... */\n      pop\n      pop\n      pop\n      jump\t// out\n        /* \"bitlime-core/contracts/libraries/SafeMath.sol\":296:425  function sub(uint x, uint y) internal pure returns (uint z) {\r... */\n    tag_65:\n        /* \"bitlime-core/contracts/libraries/SafeMath.sol\":380:385  x - y */\n      dup1\n      dup3\n      sub\n        /* \"bitlime-core/contracts/libraries/SafeMath.sol\":375:391  (z = x - y) <= x */\n      dup3\n      dup2\n      gt\n      iszero\n        /* \"bitlime-core/contracts/libraries/SafeMath.sol\":367:417  require((z = x - y) <= x, 'ds-math-sub-underflow') */\n      tag_59\n      jumpi\n      0x40\n      dup1\n      mload\n      shl(0xe5, 0x461bcd)\n      dup2\n      mstore\n      0x20\n      0x04\n      dup3\n      add\n      mstore\n      0x15\n      0x24\n      dup3\n      add\n      mstore\n      shl(0x58, 0x64732d6d6174682d7375622d756e646572666c6f77)\n      0x44\n      dup3\n      add\n      mstore\n      swap1\n      mload\n      swap1\n      dup2\n      swap1\n      sub\n      0x64\n      add\n      swap1\n      revert\n        /* \"bitlime-core/contracts/BitlimeV2ERC20.sol\":2012:2232  function _transfer(address from, address to, uint value) private {\r... */\n    tag_67:\n      sub(shl(0xa0, 0x01), 0x01)\n        /* \"bitlime-core/contracts/BitlimeV2ERC20.sol\":2106:2121  balanceOf[from] */\n      dup4\n      and\n      0x00\n      swap1\n      dup2\n      mstore\n        /* \"bitlime-core/contracts/BitlimeV2ERC20.sol\":2106:2115  balanceOf */\n      0x01\n        /* \"bitlime-core/contracts/BitlimeV2ERC20.sol\":2106:2121  balanceOf[from] */\n      0x20\n      mstore\n      0x40\n      swap1\n      keccak256\n      sload\n        /* \"bitlime-core/contracts/BitlimeV2ERC20.sol\":2106:2132  balanceOf[from].sub(value) */\n      tag_80\n      swap1\n        /* \"bitlime-core/contracts/BitlimeV2ERC20.sol\":2126:2131  value */\n      dup3\n        /* \"bitlime-core/contracts/BitlimeV2ERC20.sol\":2106:2132  balanceOf[from].sub(value) */\n      0xffffffff\n        /* \"bitlime-core/contracts/BitlimeV2ERC20.sol\":2106:2125  balanceOf[from].sub */\n      tag_65\n        /* \"bitlime-core/contracts/BitlimeV2ERC20.sol\":2106:2132  balanceOf[from].sub(value) */\n      and\n      jump\t// in\n    tag_80:\n      sub(shl(0xa0, 0x01), 0x01)\n        /* \"bitlime-core/contracts/BitlimeV2ERC20.sol\":2088:2103  balanceOf[from] */\n      dup1\n      dup6\n      and\n      0x00\n      swap1\n      dup2\n      mstore\n        /* \"bitlime-core/contracts/BitlimeV2ERC20.sol\":2088:2097  balanceOf */\n      0x01\n        /* \"bitlime-core/contracts/BitlimeV2ERC20.sol\":2088:2103  balanceOf[from] */\n      0x20\n      mstore\n      0x40\n      dup1\n      dup3\n      keccak256\n        /* \"bitlime-core/contracts/BitlimeV2ERC20.sol\":2088:2132  balanceOf[from] = balanceOf[from].sub(value) */\n      swap4\n      swap1\n      swap4\n      sstore\n        /* \"bitlime-core/contracts/BitlimeV2ERC20.sol\":2159:2172  balanceOf[to] */\n      swap1\n      dup5\n      and\n      dup2\n      mstore\n      keccak256\n      sload\n        /* \"bitlime-core/contracts/BitlimeV2ERC20.sol\":2159:2183  balanceOf[to].add(value) */\n      tag_81\n      swap1\n        /* \"bitlime-core/contracts/BitlimeV2ERC20.sol\":2177:2182  value */\n      dup3\n        /* \"bitlime-core/contracts/BitlimeV2ERC20.sol\":2159:2183  balanceOf[to].add(value) */\n      0xffffffff\n        /* \"bitlime-core/contracts/BitlimeV2ERC20.sol\":2159:2176  balanceOf[to].add */\n      tag_82\n        /* \"bitlime-core/contracts/BitlimeV2ERC20.sol\":2159:2183  balanceOf[to].add(value) */\n      and\n      jump\t// in\n    tag_81:\n      sub(shl(0xa0, 0x01), 0x01)\n        /* \"bitlime-core/contracts/BitlimeV2ERC20.sol\":2143:2156  balanceOf[to] */\n      dup1\n      dup5\n      and\n      0x00\n      dup2\n      dup2\n      mstore\n        /* \"bitlime-core/contracts/BitlimeV2ERC20.sol\":2143:2152  balanceOf */\n      0x01\n        /* \"bitlime-core/contracts/BitlimeV2ERC20.sol\":2143:2156  balanceOf[to] */\n      0x20\n      swap1\n      dup2\n      mstore\n      0x40\n      swap2\n      dup3\n      swap1\n      keccak256\n        /* \"bitlime-core/contracts/BitlimeV2ERC20.sol\":2143:2183  balanceOf[to] = balanceOf[to].add(value) */\n      swap5\n      swap1\n      swap5\n      sstore\n        /* \"bitlime-core/contracts/BitlimeV2ERC20.sol\":2199:2224  Transfer(from, to, value) */\n      dup1\n      mload\n      dup6\n      dup2\n      mstore\n      swap1\n      mload\n        /* \"bitlime-core/contracts/BitlimeV2ERC20.sol\":2143:2156  balanceOf[to] */\n      swap2\n      swap4\n        /* \"bitlime-core/contracts/BitlimeV2ERC20.sol\":2199:2224  Transfer(from, to, value) */\n      swap3\n      dup8\n      and\n      swap3\n      0xddf252ad1be2c89b69c2b068fc378daa952ba7f163c4a11628f55a4df523b3ef\n      swap3\n      swap2\n      dup3\n      swap1\n      sub\n      add\n      swap1\n      log3\n        /* \"bitlime-core/contracts/BitlimeV2ERC20.sol\":2012:2232  function _transfer(address from, address to, uint value) private {\r... */\n      pop\n      pop\n      pop\n      jump\t// out\n        /* \"bitlime-core/contracts/libraries/SafeMath.sol\":160:288  function add(uint x, uint y) internal pure returns (uint z) {\r... */\n    tag_82:\n        /* \"bitlime-core/contracts/libraries/SafeMath.sol\":244:249  x + y */\n      dup1\n      dup3\n      add\n        /* \"bitlime-core/contracts/libraries/SafeMath.sol\":239:255  (z = x + y) >= x */\n      dup3\n      dup2\n      lt\n      iszero\n        /* \"bitlime-core/contracts/libraries/SafeMath.sol\":231:280  require((z = x + y) >= x, 'ds-math-add-overflow') */\n      tag_59\n      jumpi\n      0x40\n      dup1\n      mload\n      shl(0xe5, 0x461bcd)\n      dup2\n      mstore\n      0x20\n      0x04\n      dup3\n      add\n      mstore\n      0x14\n      0x24\n      dup3\n      add\n      mstore\n      shl(0x60, 0x64732d6d6174682d6164642d6f766572666c6f77)\n      0x44\n      dup3\n      add\n      mstore\n      swap1\n      mload\n      swap1\n      dup2\n      swap1\n      sub\n      0x64\n      add\n      swap1\n      revert\n\n    auxdata: 0xa265627a7a723158206443c5b07a1d80c75add318226309ffc75ec5f5c0c7d78f82f8317e8a474e88964736f6c63430005100032\n}\n",
				"bytecode": {
					"linkReferences": {},
					"object": "608060405234801561001057600080fd5b50604051469080605261096d8239604080519182900360520182208282018252600a8352692134ba3634b6b2902b1960b11b6020938401528151808301835260018152603160f81b908401528151808401919091527f446e80230380561d906573d2b5dbfc9fadb3f5adee8411e56a4c6511d92876e3818301527fc89efdaa54c0f20c7adf612882df0950f5a951637e0307cdcb4c672f298b8bc6606082015260808101949094523060a0808601919091528151808603909101815260c0909401905282519201919091206003555061087f806100ee6000396000f3fe608060405234801561001057600080fd5b50600436106100cf5760003560e01c80633644e5151161008c57806395d89b411161006657806395d89b411461025b578063a9059cbb14610263578063d505accf1461028f578063dd62ed3e146102e2576100cf565b80633644e5151461020757806370a082311461020f5780637ecebe0014610235576100cf565b806306fdde03146100d4578063095ea7b31461015157806318160ddd1461019157806323b872dd146101ab57806330adf81f146101e1578063313ce567146101e9575b600080fd5b6100dc610310565b6040805160208082528351818301528351919283929083019185019080838360005b838110156101165781810151838201526020016100fe565b50505050905090810190601f1680156101435780820380516001836020036101000a031916815260200191505b509250505060405180910390f35b61017d6004803603604081101561016757600080fd5b506001600160a01b038135169060200135610336565b604080519115158252519081900360200190f35b61019961034d565b60408051918252519081900360200190f35b61017d600480360360608110156101c157600080fd5b506001600160a01b03813581169160208101359091169060400135610353565b6101996103ed565b6101f1610411565b6040805160ff9092168252519081900360200190f35b610199610416565b6101996004803603602081101561022557600080fd5b50356001600160a01b031661041c565b6101996004803603602081101561024b57600080fd5b50356001600160a01b031661042e565b6100dc610440565b61017d6004803603604081101561027957600080fd5b506001600160a01b038135169060200135610463565b6102e0600480360360e08110156102a557600080fd5b506001600160a01b03813581169160208101359091169060408101359060608101359060ff6080820135169060a08101359060c00135610470565b005b610199600480360360408110156102f857600080fd5b506001600160a01b0381358116916020013516610672565b6040518060400160405280600a8152602001692134ba3634b6b2902b1960b11b81525081565b600061034333848461068f565b5060015b92915050565b60005481565b6001600160a01b0383166000908152600260209081526040808320338452909152812054600019146103d8576001600160a01b03841660009081526002602090815260408083203384529091529020546103b3908363ffffffff6106f116565b6001600160a01b03851660009081526002602090815260408083203384529091529020555b6103e3848484610741565b5060019392505050565b7f6e71edae12b1b97f4d1f60370fef10105fa2faae0126114a169c64845d6126c981565b601281565b60035481565b60016020526000908152604090205481565b60046020526000908152604090205481565b604051806040016040528060078152602001662624a6a296ab1960c91b81525081565b6000610343338484610741565b428410156104ba576040805162461bcd60e51b8152602060048201526012602482015271109a5d1b1a5b59558c8e881156141254915160721b604482015290519081900360640190fd5b6003546001600160a01b0380891660008181526004602090815260408083208054600180820190925582517f6e71edae12b1b97f4d1f60370fef10105fa2faae0126114a169c64845d6126c98186015280840196909652958d166060860152608085018c905260a085019590955260c08085018b90528151808603909101815260e08501825280519083012061190160f01b6101008601526101028501969096526101228085019690965280518085039096018652610142840180825286519683019690962095839052610162840180825286905260ff89166101828501526101a284018890526101c28401879052519193926101e280820193601f1981019281900390910190855afa1580156105d5573d6000803e3d6000fd5b5050604051601f1901519150506001600160a01b0381161580159061060b5750886001600160a01b0316816001600160a01b0316145b61065c576040805162461bcd60e51b815260206004820152601c60248201527f4269746c696d6556323a20494e56414c49445f5349474e415455524500000000604482015290519081900360640190fd5b61066789898961068f565b505050505050505050565b600260209081526000928352604080842090915290825290205481565b6001600160a01b03808416600081815260026020908152604080832094871680845294825291829020859055815185815291517f8c5be1e5ebec7d5bd14f71427d1e84f3dd0314c0f7b2291e5b200ac8c7c3b9259281900390910190a3505050565b80820382811115610347576040805162461bcd60e51b815260206004820152601560248201527464732d6d6174682d7375622d756e646572666c6f7760581b604482015290519081900360640190fd5b6001600160a01b03831660009081526001602052604090205461076a908263ffffffff6106f116565b6001600160a01b03808516600090815260016020526040808220939093559084168152205461079f908263ffffffff6107fb16565b6001600160a01b0380841660008181526001602090815260409182902094909455805185815290519193928716927fddf252ad1be2c89b69c2b068fc378daa952ba7f163c4a11628f55a4df523b3ef92918290030190a3505050565b80820182811015610347576040805162461bcd60e51b815260206004820152601460248201527364732d6d6174682d6164642d6f766572666c6f7760601b604482015290519081900360640190fdfea265627a7a723158206443c5b07a1d80c75add318226309ffc75ec5f5c0c7d78f82f8317e8a474e88964736f6c63430005100032454950373132446f6d61696e28737472696e67206e616d652c737472696e672076657273696f6e2c75696e7432353620636861696e49642c6164647265737320766572696679696e67436f6e747261637429",
					"opcodes": "PUSH1 0x80 PUSH1 0x40 MSTORE CALLVALUE DUP1 ISZERO PUSH2 0x10 JUMPI PUSH1 0x0 DUP1 REVERT JUMPDEST POP PUSH1 0x40 MLOAD CHAINID SWAP1 DUP1 PUSH1 0x52 PUSH2 0x96D DUP3 CODECOPY PUSH1 0x40 DUP1 MLOAD SWAP2 DUP3 SWAP1 SUB PUSH1 0x52 ADD DUP3 KECCAK256 DUP3 DUP3 ADD DUP3 MSTORE PUSH1 0xA DUP4 MSTORE PUSH10 0x2134BA3634B6B2902B19 PUSH1 0xB1 SHL PUSH1 0x20 SWAP4 DUP5 ADD MSTORE DUP2 MLOAD DUP1 DUP4 ADD DUP4 MSTORE PUSH1 0x1 DUP2 MSTORE PUSH1 0x31 PUSH1 0xF8 SHL SWAP1 DUP5 ADD MSTORE DUP2 MLOAD DUP1 DUP5 ADD SWAP2 SWAP1 SWAP2 MSTORE PUSH32 0x446E80230380561D906573D2B5DBFC9FADB3F5ADEE8411E56A4C6511D92876E3 DUP2 DUP4 ADD MSTORE PUSH32 0xC89EFDAA54C0F20C7ADF612882DF0950F5A951637E0307CDCB4C672F298B8BC6 PUSH1 0x60 DUP3 ADD MSTORE PUSH1 0x80 DUP2 ADD SWAP5 SWAP1 SWAP5 MSTORE ADDRESS PUSH1 0xA0 DUP1 DUP7 ADD SWAP2 SWAP1 SWAP2 MSTORE DUP2 MLOAD DUP1 DUP7 SUB SWAP1 SWAP2 ADD DUP2 MSTORE PUSH1 0xC0 SWAP1 SWAP5 ADD SWAP1 MSTORE DUP3 MLOAD SWAP3 ADD SWAP2 SWAP1 SWAP2 KECCAK256 PUSH1 0x3 SSTORE POP PUSH2 0x87F DUP1 PUSH2 0xEE PUSH1 0x0 CODECOPY PUSH1 0x0 RETURN INVALID PUSH1 0x80 PUSH1 0x40 MSTORE CALLVALUE DUP1 ISZERO PUSH2 0x10 JUMPI PUSH1 0x0 DUP1 REVERT JUMPDEST POP PUSH1 0x4 CALLDATASIZE LT PUSH2 0xCF JUMPI PUSH1 0x0 CALLDATALOAD PUSH1 0xE0 SHR DUP1 PUSH4 0x3644E515 GT PUSH2 0x8C JUMPI DUP1 PUSH4 0x95D89B41 GT PUSH2 0x66 JUMPI DUP1 PUSH4 0x95D89B41 EQ PUSH2 0x25B JUMPI DUP1 PUSH4 0xA9059CBB EQ PUSH2 0x263 JUMPI DUP1 PUSH4 0xD505ACCF EQ PUSH2 0x28F JUMPI DUP1 PUSH4 0xDD62ED3E EQ PUSH2 0x2E2 JUMPI PUSH2 0xCF JUMP JUMPDEST DUP1 PUSH4 0x3644E515 EQ PUSH2 0x207 JUMPI DUP1 PUSH4 0x70A08231 EQ PUSH2 0x20F JUMPI DUP1 PUSH4 0x7ECEBE00 EQ PUSH2 0x235 JUMPI PUSH2 0xCF JUMP JUMPDEST DUP1 PUSH4 0x6FDDE03 EQ PUSH2 0xD4 JUMPI DUP1 PUSH4 0x95EA7B3 EQ PUSH2 0x151 JUMPI DUP1 PUSH4 0x18160DDD EQ PUSH2 0x191 JUMPI DUP1 PUSH4 0x23B872DD EQ PUSH2 0x1AB JUMPI DUP1 PUSH4 0x30ADF81F EQ PUSH2 0x1E1 JUMPI DUP1 PUSH4 0x313CE567 EQ PUSH2 0x1E9 JUMPI JUMPDEST PUSH1 0x0 DUP1 REVERT JUMPDEST PUSH2 0xDC PUSH2 0x310 JUMP JUMPDEST PUSH1 0x40 DUP1 MLOAD PUSH1 0x20 DUP1 DUP3 MSTORE DUP4 MLOAD DUP2 DUP4 ADD MSTORE DUP4 MLOAD SWAP2 SWAP3 DUP4 SWAP3 SWAP1 DUP4 ADD SWAP2 DUP6 ADD SWAP1 DUP1 DUP4 DUP4 PUSH1 0x0 JUMPDEST DUP4 DUP2 LT ISZERO PUSH2 0x116 JUMPI DUP2 DUP2 ADD MLOAD DUP4 DUP3 ADD MSTORE PUSH1 0x20 ADD PUSH2 0xFE JUMP JUMPDEST POP POP POP POP SWAP1 POP SWAP1 DUP2 ADD SWAP1 PUSH1 0x1F AND DUP1 ISZERO PUSH2 0x143 JUMPI DUP1 DUP3 SUB DUP1 MLOAD PUSH1 0x1 DUP4 PUSH1 0x20 SUB PUSH2 0x100 EXP SUB NOT AND DUP2 MSTORE PUSH1 0x20 ADD SWAP2 POP JUMPDEST POP SWAP3 POP POP POP PUSH1 0x40 MLOAD DUP1 SWAP2 SUB SWAP1 RETURN JUMPDEST PUSH2 0x17D PUSH1 0x4 DUP1 CALLDATASIZE SUB PUSH1 0x40 DUP2 LT ISZERO PUSH2 0x167 JUMPI PUSH1 0x0 DUP1 REVERT JUMPDEST POP PUSH1 0x1 PUSH1 0x1 PUSH1 0xA0 SHL SUB DUP2 CALLDATALOAD AND SWAP1 PUSH1 0x20 ADD CALLDATALOAD PUSH2 0x336 JUMP JUMPDEST PUSH1 0x40 DUP1 MLOAD SWAP2 ISZERO ISZERO DUP3 MSTORE MLOAD SWAP1 DUP2 SWAP1 SUB PUSH1 0x20 ADD SWAP1 RETURN JUMPDEST PUSH2 0x199 PUSH2 0x34D JUMP JUMPDEST PUSH1 0x40 DUP1 MLOAD SWAP2 DUP3 MSTORE MLOAD SWAP1 DUP2 SWAP1 SUB PUSH1 0x20 ADD SWAP1 RETURN JUMPDEST PUSH2 0x17D PUSH1 0x4 DUP1 CALLDATASIZE SUB PUSH1 0x60 DUP2 LT ISZERO PUSH2 0x1C1 JUMPI PUSH1 0x0 DUP1 REVERT JUMPDEST POP PUSH1 0x1 PUSH1 0x1 PUSH1 0xA0 SHL SUB DUP2 CALLDATALOAD DUP2 AND SWAP2 PUSH1 0x20 DUP2 ADD CALLDATALOAD SWAP1 SWAP2 AND SWAP1 PUSH1 0x40 ADD CALLDATALOAD PUSH2 0x353 JUMP JUMPDEST PUSH2 0x199 PUSH2 0x3ED JUMP JUMPDEST PUSH2 0x1F1 PUSH2 0x411 JUMP JUMPDEST PUSH1 0x40 DUP1 MLOAD PUSH1 0xFF SWAP1 SWAP3 AND DUP3 MSTORE MLOAD SWAP1 DUP2 SWAP1 SUB PUSH1 0x20 ADD SWAP1 RETURN JUMPDEST PUSH2 0x199 PUSH2 0x416 JUMP JUMPDEST PUSH2 0x199 PUSH1 0x4 DUP1 CALLDATASIZE SUB PUSH1 0x20 DUP2 LT ISZERO PUSH2 0x225 JUMPI PUSH1 0x0 DUP1 REVERT JUMPDEST POP CALLDATALOAD PUSH1 0x1 PUSH1 0x1 PUSH1 0xA0 SHL SUB AND PUSH2 0x41C JUMP JUMPDEST PUSH2 0x199 PUSH1 0x4 DUP1 CALLDATASIZE SUB PUSH1 0x20 DUP2 LT ISZERO PUSH2 0x24B JUMPI PUSH1 0x0 DUP1 REVERT JUMPDEST POP CALLDATALOAD PUSH1 0x1 PUSH1 0x1 PUSH1 0xA0 SHL SUB AND PUSH2 0x42E JUMP JUMPDEST PUSH2 0xDC PUSH2 0x440 JUMP JUMPDEST PUSH2 0x17D PUSH1 0x4 DUP1 CALLDATASIZE SUB PUSH1 0x40 DUP2 LT ISZERO PUSH2 0x279 JUMPI PUSH1 0x0 DUP1 REVERT JUMPDEST POP PUSH1 0x1 PUSH1 0x1 PUSH1 0xA0 SHL SUB DUP2 CALLDATALOAD AND SWAP1 PUSH1 0x20 ADD CALLDATALOAD PUSH2 0x463 JUMP JUMPDEST PUSH2 0x2E0 PUSH1 0x4 DUP1 CALLDATASIZE SUB PUSH1 0xE0 DUP2 LT ISZERO PUSH2 0x2A5 JUMPI PUSH1 0x0 DUP1 REVERT JUMPDEST POP PUSH1 0x1 PUSH1 0x1 PUSH1 0xA0 SHL SUB DUP2 CALLDATALOAD DUP2 AND SWAP2 PUSH1 0x20 DUP2 ADD CALLDATALOAD SWAP1 SWAP2 AND SWAP1 PUSH1 0x40 DUP2 ADD CALLDATALOAD SWAP1 PUSH1 0x60 DUP2 ADD CALLDATALOAD SWAP1 PUSH1 0xFF PUSH1 0x80 DUP3 ADD CALLDATALOAD AND SWAP1 PUSH1 0xA0 DUP2 ADD CALLDATALOAD SWAP1 PUSH1 0xC0 ADD CALLDATALOAD PUSH2 0x470 JUMP JUMPDEST STOP JUMPDEST PUSH2 0x199 PUSH1 0x4 DUP1 CALLDATASIZE SUB PUSH1 0x40 DUP2 LT ISZERO PUSH2 0x2F8 JUMPI PUSH1 0x0 DUP1 REVERT JUMPDEST POP PUSH1 0x1 PUSH1 0x1 PUSH1 0xA0 SHL SUB DUP2 CALLDATALOAD DUP2 AND SWAP2 PUSH1 0x20 ADD CALLDATALOAD AND PUSH2 0x672 JUMP JUMPDEST PUSH1 0x40 MLOAD DUP1 PUSH1 0x40 ADD PUSH1 0x40 MSTORE DUP1 PUSH1 0xA DUP2 MSTORE PUSH1 0x20 ADD PUSH10 0x2134BA3634B6B2902B19 PUSH1 0xB1 SHL DUP2 MSTORE POP DUP2 JUMP JUMPDEST PUSH1 0x0 PUSH2 0x343 CALLER DUP5 DUP5 PUSH2 0x68F JUMP JUMPDEST POP PUSH1 0x1 JUMPDEST SWAP3 SWAP2 POP POP JUMP JUMPDEST PUSH1 0x0 SLOAD DUP2 JUMP JUMPDEST PUSH1 0x1 PUSH1 0x1 PUSH1 0xA0 SHL SUB DUP4 AND PUSH1 0x0 SWAP1 DUP2 MSTORE PUSH1 0x2 PUSH1 0x20 SWAP1 DUP2 MSTORE PUSH1 0x40 DUP1 DUP4 KECCAK256 CALLER DUP5 MSTORE SWAP1 SWAP2 MSTORE DUP2 KECCAK256 SLOAD PUSH1 0x0 NOT EQ PUSH2 0x3D8 JUMPI PUSH1 0x1 PUSH1 0x1 PUSH1 0xA0 SHL SUB DUP5 AND PUSH1 0x0 SWAP1 DUP2 MSTORE PUSH1 0x2 PUSH1 0x20 SWAP1 DUP2 MSTORE PUSH1 0x40 DUP1 DUP4 KECCAK256 CALLER DUP5 MSTORE SWAP1 SWAP2 MSTORE SWAP1 KECCAK256 SLOAD PUSH2 0x3B3 SWAP1 DUP4 PUSH4 0xFFFFFFFF PUSH2 0x6F1 AND JUMP JUMPDEST PUSH1 0x1 PUSH1 0x1 PUSH1 0xA0 SHL SUB DUP6 AND PUSH1 0x0 SWAP1 DUP2 MSTORE PUSH1 0x2 PUSH1 0x20 SWAP1 DUP2 MSTORE PUSH1 0x40 DUP1 DUP4 KECCAK256 CALLER DUP5 MSTORE SWAP1 SWAP2 MSTORE SWAP1 KECCAK256 SSTORE JUMPDEST PUSH2 0x3E3 DUP5 DUP5 DUP5 PUSH2 0x741 JUMP JUMPDEST POP PUSH1 0x1 SWAP4 SWAP3 POP POP POP JUMP JUMPDEST PUSH32 0x6E71EDAE12B1B97F4D1F60370FEF10105FA2FAAE0126114A169C64845D6126C9 DUP2 JUMP JUMPDEST PUSH1 0x12 DUP2 JUMP JUMPDEST PUSH1 0x3 SLOAD DUP2 JUMP JUMPDEST PUSH1 0x1 PUSH1 0x20 MSTORE PUSH1 0x0 SWAP1 DUP2 MSTORE PUSH1 0x40 SWAP1 KECCAK256 SLOAD DUP2 JUMP JUMPDEST PUSH1 0x4 PUSH1 0x20 MSTORE PUSH1 0x0 SWAP1 DUP2 MSTORE PUSH1 0x40 SWAP1 KECCAK256 SLOAD DUP2 JUMP JUMPDEST PUSH1 0x40 MLOAD DUP1 PUSH1 0x40 ADD PUSH1 0x40 MSTORE DUP1 PUSH1 0x7 DUP2 MSTORE PUSH1 0x20 ADD PUSH7 0x2624A6A296AB19 PUSH1 0xC9 SHL DUP2 MSTORE POP DUP2 JUMP JUMPDEST PUSH1 0x0 PUSH2 0x343 CALLER DUP5 DUP5 PUSH2 0x741 JUMP JUMPDEST TIMESTAMP DUP5 LT ISZERO PUSH2 0x4BA JUMPI PUSH1 0x40 DUP1 MLOAD PUSH3 0x461BCD PUSH1 0xE5 SHL DUP2 MSTORE PUSH1 0x20 PUSH1 0x4 DUP3 ADD MSTORE PUSH1 0x12 PUSH1 0x24 DUP3 ADD MSTORE PUSH18 0x109A5D1B1A5B59558C8E8811561412549151 PUSH1 0x72 SHL PUSH1 0x44 DUP3 ADD MSTORE SWAP1 MLOAD SWAP1 DUP2 SWAP1 SUB PUSH1 0x64 ADD SWAP1 REVERT JUMPDEST PUSH1 0x3 SLOAD PUSH1 0x1 PUSH1 0x1 PUSH1 0xA0 SHL SUB DUP1 DUP10 AND PUSH1 0x0 DUP2 DUP2 MSTORE PUSH1 0x4 PUSH1 0x20 SWAP1 DUP2 MSTORE PUSH1 0x40 DUP1 DUP4 KECCAK256 DUP1 SLOAD PUSH1 0x1 DUP1 DUP3 ADD SWAP1 SWAP3 SSTORE DUP3 MLOAD PUSH32 0x6E71EDAE12B1B97F4D1F60370FEF10105FA2FAAE0126114A169C64845D6126C9 DUP2 DUP7 ADD MSTORE DUP1 DUP5 ADD SWAP7 SWAP1 SWAP7 MSTORE SWAP6 DUP14 AND PUSH1 0x60 DUP7 ADD MSTORE PUSH1 0x80 DUP6 ADD DUP13 SWAP1 MSTORE PUSH1 0xA0 DUP6 ADD SWAP6 SWAP1 SWAP6 MSTORE PUSH1 0xC0 DUP1 DUP6 ADD DUP12 SWAP1 MSTORE DUP2 MLOAD DUP1 DUP7 SUB SWAP1 SWAP2 ADD DUP2 MSTORE PUSH1 0xE0 DUP6 ADD DUP3 MSTORE DUP1 MLOAD SWAP1 DUP4 ADD KECCAK256 PUSH2 0x1901 PUSH1 0xF0 SHL PUSH2 0x100 DUP7 ADD MSTORE PUSH2 0x102 DUP6 ADD SWAP7 SWAP1 SWAP7 MSTORE PUSH2 0x122 DUP1 DUP6 ADD SWAP7 SWAP1 SWAP7 MSTORE DUP1 MLOAD DUP1 DUP6 SUB SWAP1 SWAP7 ADD DUP7 MSTORE PUSH2 0x142 DUP5 ADD DUP1 DUP3 MSTORE DUP7 MLOAD SWAP7 DUP4 ADD SWAP7 SWAP1 SWAP7 KECCAK256 SWAP6 DUP4 SWAP1 MSTORE PUSH2 0x162 DUP5 ADD DUP1 DUP3 MSTORE DUP7 SWAP1 MSTORE PUSH1 0xFF DUP10 AND PUSH2 0x182 DUP6 ADD MSTORE PUSH2 0x1A2 DUP5 ADD DUP9 SWAP1 MSTORE PUSH2 0x1C2 DUP5 ADD DUP8 SWAP1 MSTORE MLOAD SWAP2 SWAP4 SWAP3 PUSH2 0x1E2 DUP1 DUP3 ADD SWAP4 PUSH1 0x1F NOT DUP2 ADD SWAP3 DUP2 SWAP1 SUB SWAP1 SWAP2 ADD SWAP1 DUP6 GAS STATICCALL ISZERO DUP1 ISZERO PUSH2 0x5D5 JUMPI RETURNDATASIZE PUSH1 0x0 DUP1 RETURNDATACOPY RETURNDATASIZE PUSH1 0x0 REVERT JUMPDEST POP POP PUSH1 0x40 MLOAD PUSH1 0x1F NOT ADD MLOAD SWAP2 POP POP PUSH1 0x1 PUSH1 0x1 PUSH1 0xA0 SHL SUB DUP2 AND ISZERO DUP1 ISZERO SWAP1 PUSH2 0x60B JUMPI POP DUP9 PUSH1 0x1 PUSH1 0x1 PUSH1 0xA0 SHL SUB AND DUP2 PUSH1 0x1 PUSH1 0x1 PUSH1 0xA0 SHL SUB AND EQ JUMPDEST PUSH2 0x65C JUMPI PUSH1 0x40 DUP1 MLOAD PUSH3 0x461BCD PUSH1 0xE5 SHL DUP2 MSTORE PUSH1 0x20 PUSH1 0x4 DUP3 ADD MSTORE PUSH1 0x1C PUSH1 0x24 DUP3 ADD MSTORE PUSH32 0x4269746C696D6556323A20494E56414C49445F5349474E415455524500000000 PUSH1 0x44 DUP3 ADD MSTORE SWAP1 MLOAD SWAP1 DUP2 SWAP1 SUB PUSH1 0x64 ADD SWAP1 REVERT JUMPDEST PUSH2 0x667 DUP10 DUP10 DUP10 PUSH2 0x68F JUMP JUMPDEST POP POP POP POP POP POP POP POP POP JUMP JUMPDEST PUSH1 0x2 PUSH1 0x20 SWAP1 DUP2 MSTORE PUSH1 0x0 SWAP3 DUP4 MSTORE PUSH1 0x40 DUP1 DUP5 KECCAK256 SWAP1 SWAP2 MSTORE SWAP1 DUP3 MSTORE SWAP1 KECCAK256 SLOAD DUP2 JUMP JUMPDEST PUSH1 0x1 PUSH1 0x1 PUSH1 0xA0 SHL SUB DUP1 DUP5 AND PUSH1 0x0 DUP2 DUP2 MSTORE PUSH1 0x2 PUSH1 0x20 SWAP1 DUP2 MSTORE PUSH1 0x40 DUP1 DUP4 KECCAK256 SWAP5 DUP8 AND DUP1 DUP5 MSTORE SWAP5 DUP3 MSTORE SWAP2 DUP3 SWAP1 KECCAK256 DUP6 SWAP1 SSTORE DUP2 MLOAD DUP6 DUP2 MSTORE SWAP2 MLOAD PUSH32 0x8C5BE1E5EBEC7D5BD14F71427D1E84F3DD0314C0F7B2291E5B200AC8C7C3B925 SWAP3 DUP2 SWAP1 SUB SWAP1 SWAP2 ADD SWAP1 LOG3 POP POP POP JUMP JUMPDEST DUP1 DUP3 SUB DUP3 DUP2 GT ISZERO PUSH2 0x347 JUMPI PUSH1 0x40 DUP1 MLOAD PUSH3 0x461BCD PUSH1 0xE5 SHL DUP2 MSTORE PUSH1 0x20 PUSH1 0x4 DUP3 ADD MSTORE PUSH1 0x15 PUSH1 0x24 DUP3 ADD MSTORE PUSH21 0x64732D6D6174682D7375622D756E646572666C6F77 PUSH1 0x58 SHL PUSH1 0x44 DUP3 ADD MSTORE SWAP1 MLOAD SWAP1 DUP2 SWAP1 SUB PUSH1 0x64 ADD SWAP1 REVERT JUMPDEST PUSH1 0x1 PUSH1 0x1 PUSH1 0xA0 SHL SUB DUP4 AND PUSH1 0x0 SWAP1 DUP2 MSTORE PUSH1 0x1 PUSH1 0x20 MSTORE PUSH1 0x40 SWAP1 KECCAK256 SLOAD PUSH2 0x76A SWAP1 DUP3 PUSH4 0xFFFFFFFF PUSH2 0x6F1 AND JUMP JUMPDEST PUSH1 0x1 PUSH1 0x1 PUSH1 0xA0 SHL SUB DUP1 DUP6 AND PUSH1 0x0 SWAP1 DUP2 MSTORE PUSH1 0x1 PUSH1 0x20 MSTORE PUSH1 0x40 DUP1 DUP3 KECCAK256 SWAP4 SWAP1 SWAP4 SSTORE SWAP1 DUP5 AND DUP2 MSTORE KECCAK256 SLOAD PUSH2 0x79F SWAP1 DUP3 PUSH4 0xFFFFFFFF PUSH2 0x7FB AND JUMP JUMPDEST PUSH1 0x1 PUSH1 0x1 PUSH1 0xA0 SHL SUB DUP1 DUP5 AND PUSH1 0x0 DUP2 DUP2 MSTORE PUSH1 0x1 PUSH1 0x20 SWAP1 DUP2 MSTORE PUSH1 0x40 SWAP2 DUP3 SWAP1 KECCAK256 SWAP5 SWAP1 SWAP5 SSTORE DUP1 MLOAD DUP6 DUP2 MSTORE SWAP1 MLOAD SWAP2 SWAP4 SWAP3 DUP8 AND SWAP3 PUSH32 0xDDF252AD1BE2C89B69C2B068FC378DAA952BA7F163C4A11628F55A4DF523B3EF SWAP3 SWAP2 DUP3 SWAP1 SUB ADD SWAP1 LOG3 POP POP POP JUMP JUMPDEST DUP1 DUP3 ADD DUP3 DUP2 LT ISZERO PUSH2 0x347 JUMPI PUSH1 0x40 DUP1 MLOAD PUSH3 0x461BCD PUSH1 0xE5 SHL DUP2 MSTORE PUSH1 0x20 PUSH1 0x4 DUP3 ADD MSTORE PUSH1 0x14 PUSH1 0x24 DUP3 ADD MSTORE PUSH20 0x64732D6D6174682D6164642D6F766572666C6F77 PUSH1 0x60 SHL PUSH1 0x44 DUP3 ADD MSTORE SWAP1 MLOAD SWAP1 DUP2 SWAP1 SUB PUSH1 0x64 ADD SWAP1 REVERT INVALID LOG2 PUSH6 0x627A7A723158 KECCAK256 PUSH5 0x43C5B07A1D DUP1 0xC7 GAS 0xDD BALANCE DUP3 0x26 ADDRESS SWAP16 0xFC PUSH22 0xEC5F5C0C7D78F82F8317E8A474E88964736F6C634300 SDIV LT STOP ORIGIN GASLIMIT 0x49 POP CALLDATACOPY BALANCE ORIGIN DIFFICULTY PUSH16 0x6D61696E28737472696E67206E616D65 0x2C PUSH20 0x7472696E672076657273696F6E2C75696E743235 CALLDATASIZE KECCAK256 PUSH4 0x6861696E 0x49 PUSH5 0x2C61646472 PUSH6 0x737320766572 PUSH10 0x6679696E67436F6E7472 PUSH2 0x6374 0x29 "
				},
				"gasEstimates": {
					"creation": {
						"codeDepositCost": "435000",
						"executionCost": "infinite",
						"totalCost": "infinite"
					},
					"external": {
						"DOMAIN_SEPARATOR()": "1021",
						"PERMIT_TYPEHASH()": "287",
						"allowance(address,address)": "1305",
						"approve(address,uint256)": "22343",
						"balanceOf(address)": "1169",
						"decimals()": "318",
						"name()": "infinite",
						"nonces(address)": "1191",
						"permit(address,address,uint256,uint256,uint8,bytes32,bytes32)": "infinite",
						"symbol()": "infinite",
						"totalSupply()": "1043",
						"transfer(address,uint256)": "infinite",
						"transferFrom(address,address,uint256)": "infinite"
					},
					"internal": {
						"_approve(address,address,uint256)": "infinite",
						"_burn(address,uint256)": "infinite",
						"_mint(address,uint256)": "infinite",
						"_transfer(address,address,uint256)": "infinite"
					}
				},
				"methodIdentifiers": {
					"DOMAIN_SEPARATOR()": "3644e515",
					"PERMIT_TYPEHASH()": "30adf81f",
					"allowance(address,address)": "dd62ed3e",
					"approve(address,uint256)": "095ea7b3",
					"balanceOf(address)": "70a08231",
					"decimals()": "313ce567",
					"name()": "06fdde03",
					"nonces(address)": "7ecebe00",
					"permit(address,address,uint256,uint256,uint8,bytes32,bytes32)": "d505accf",
					"symbol()": "95d89b41",
					"totalSupply()": "18160ddd",
					"transfer(address,uint256)": "a9059cbb",
					"transferFrom(address,address,uint256)": "23b872dd"
				}
			},
			"storageLayout": {
				"storage": [
					{
						"astId": 19,
						"contract": "bitlime-core/contracts/BitlimeV2ERC20.sol:BitlimeV2ERC20",
						"label": "totalSupply",
						"offset": 0,
						"slot": "0",
						"type": "t_uint256"
					},
					{
						"astId": 23,
						"contract": "bitlime-core/contracts/BitlimeV2ERC20.sol:BitlimeV2ERC20",
						"label": "balanceOf",
						"offset": 0,
						"slot": "1",
						"type": "t_mapping(t_address,t_uint256)"
					},
					{
						"astId": 29,
						"contract": "bitlime-core/contracts/BitlimeV2ERC20.sol:BitlimeV2ERC20",
						"label": "allowance",
						"offset": 0,
						"slot": "2",
						"type": "t_mapping(t_address,t_mapping(t_address,t_uint256))"
					},
					{
						"astId": 31,
						"contract": "bitlime-core/contracts/BitlimeV2ERC20.sol:BitlimeV2ERC20",
						"label": "DOMAIN_SEPARATOR",
						"offset": 0,
						"slot": "3",
						"type": "t_bytes32"
					},
					{
						"astId": 38,
						"contract": "bitlime-core/contracts/BitlimeV2ERC20.sol:BitlimeV2ERC20",
						"label": "nonces",
						"offset": 0,
						"slot": "4",
						"type": "t_mapping(t_address,t_uint256)"
					}
				],
				"types": {
					"t_address": {
						"encoding": "inplace",
						"label": "address",
						"numberOfBytes": "20"
					},
					"t_bytes32": {
						"encoding": "inplace",
						"label": "bytes32",
						"numberOfBytes": "32"
					},
					"t_mapping(t_address,t_mapping(t_address,t_uint256))": {
						"encoding": "mapping",
						"key": "t_address",
						"label": "mapping(address => mapping(address => uint256))",
						"numberOfBytes": "32",
						"value": "t_mapping(t_address,t_uint256)"
					},
					"t_mapping(t_address,t_uint256)": {
						"encoding": "mapping",
						"key": "t_address",
						"label": "mapping(address => uint256)",
						"numberOfBytes": "32",
						"value": "t_uint256"
					},
					"t_uint256": {
						"encoding": "inplace",
						"label": "uint256",
						"numberOfBytes": "32"
					}
				}
			},
			"userdoc": {
				"methods": {}
			}
		}
	}
}