{
	"data": {
		"bytecode": {
			"linkReferences": {},
			"object": "608060405234801561001057600080fd5b50604051610c76380380610c768339818101604052602081101561003357600080fd5b5051600080546001600160a01b039092166001600160a01b0319909216919091179055610c11806100656000396000f3fe608060405234801561001057600080fd5b506004361061009e5760003560e01c80638d976172116100665780638d976172146101965780638da5cb5b1461023b578063df8ca76a14610243578063e359f0ed14610271578063e74b981b146102bd5761009e565b806313af4035146100a35780631e83409a146100cb5780631f76a7af146101035780633e2f3f2b146101295780634690484014610172575b600080fd5b6100c9600480360360208110156100b957600080fd5b50356001600160a01b03166102e3565b005b6100f1600480360360208110156100e157600080fd5b50356001600160a01b0316610364565b60408051918252519081900360200190f35b6100f16004803603602081101561011957600080fd5b50356001600160a01b031661062d565b61014f6004803603602081101561013f57600080fd5b50356001600160a01b03166109ac565b6040805192151583526001600160801b0390911660208301528051918290030190f35b61017a6109d1565b604080516001600160a01b039092168252519081900360200190f35b6100c9600480360360408110156101ac57600080fd5b8101906020810181356401000000008111156101c757600080fd5b8201836020820111156101d957600080fd5b803590602001918460208302840111640100000000831117156101fb57600080fd5b91908080602002602001604051908101604052809392919081815260200183836020028082843760009201919091525092955050505035151590506109e0565b61017a610a16565b6100c96004803603604081101561025957600080fd5b506001600160a01b0381351690602001351515610a25565b6102976004803603602081101561028757600080fd5b50356001600160a01b0316610aff565b604080516001600160801b03938416815291909216602082015281519081900390910190f35b6100c9600480360360208110156102d357600080fd5b50356001600160a01b0316610b25565b6000546001600160a01b03163314610342576040805162461bcd60e51b815260206004820152601c60248201527f466565546f3a3a7365744f776e65723a206e6f7420616c6c6f77656400000000604482015290519081900360640190fd5b600080546001600160a01b0319166001600160a01b0392909216919091179055565b60008060036000846001600160a01b03166001600160a01b031681526020019081526020016000209050600060026000856001600160a01b0316630dfe16816040518163ffffffff1660e01b815260040160206040518083038186803b1580156103cd57600080fd5b505afa1580156103e1573d6000803e3d6000fd5b505050506040513d60208110156103f757600080fd5b81019080805190602001909291905050506001600160a01b03166001600160a01b031681526020019081526020016000209050600060026000866001600160a01b031663d21220a76040518163ffffffff1660e01b815260040160206040518083038186803b15801561046957600080fd5b505afa15801561047d573d6000803e3d6000fd5b505050506040513d602081101561049357600080fd5b50516001600160a01b031681526020810191909152604001600020825490915060ff1680156104c35750805460ff165b80156104e257508254825461010090046001600160801b039081169116145b801561050857508254815461010090046001600160801b03908116600160801b90920416145b801561051e57506001546001600160a01b031615155b1561062557604080516370a0823160e01b815230600482015290516001600160a01b038716916370a08231916024808301926020929190829003018186803b15801561056957600080fd5b505afa15801561057d573d6000803e3d6000fd5b505050506040513d602081101561059357600080fd5b505193508315610625576001546040805163a9059cbb60e01b81526001600160a01b0392831660048201526024810187905290519187169163a9059cbb916044808201926020929091908290030181600087803b1580156105f357600080fd5b505af1158015610607573d6000803e3d6000fd5b505050506040513d602081101561061d57600080fd5b505161062557fe5b505050919050565b60008060036000846001600160a01b03166001600160a01b031681526020019081526020016000209050600060026000856001600160a01b0316630dfe16816040518163ffffffff1660e01b815260040160206040518083038186803b15801561069657600080fd5b505afa1580156106aa573d6000803e3d6000fd5b505050506040513d60208110156106c057600080fd5b81019080805190602001909291905050506001600160a01b03166001600160a01b031681526020019081526020016000209050600060026000866001600160a01b031663d21220a76040518163ffffffff1660e01b815260040160206040518083038186803b15801561073257600080fd5b505afa158015610746573d6000803e3d6000fd5b505050506040513d602081101561075c57600080fd5b50516001600160a01b031681526020810191909152604001600020825490915060ff16158061078d5750805460ff16155b806107ad5750825482546001600160801b03918216610100909104909116115b806107d3575082548154600160801b9091046001600160801b0390811661010090920416115b1561062557604080516370a0823160e01b815230600482015290516001600160a01b038716916370a08231916024808301926020929190829003018186803b15801561081e57600080fd5b505afa158015610832573d6000803e3d6000fd5b505050506040513d602081101561084857600080fd5b505193508315610947576040805163a9059cbb60e01b81526001600160a01b0387166004820181905260248201879052915163a9059cbb916044808201926020929091908290030181600087803b1580156108a257600080fd5b505af11580156108b6573d6000803e3d6000fd5b505050506040513d60208110156108cc57600080fd5b50516108d457fe5b6040805163226bf2d160e21b81526001600160a01b03871660048201819052825190926389afcb4492602480820193918290030181600087803b15801561091a57600080fd5b505af115801561092e573d6000803e3d6000fd5b505050506040513d604081101561094457600080fd5b50505b815460ff161561097d57815483546101009091046001600160801b03166fffffffffffffffffffffffffffffffff199091161783555b805460ff1615610625575482546001600160801b0390811661010090920416600160801b021790915550919050565b60026020526000908152604090205460ff81169061010090046001600160801b031682565b6001546001600160a01b031681565b60005b8251811015610a1157610a098382815181106109fb57fe5b602002602001015183610a25565b6001016109e3565b505050565b6000546001600160a01b031681565b6000546001600160a01b03163314610a6e5760405162461bcd60e51b8152600401808060200182810382526029815260200180610bb46029913960400191505060405180910390fd5b6001600160a01b0382166000908152600260205260409020805460ff16151582151514610a1157805460ff19168215151780825561010090046001600160801b0316610acc578054610100600160881b031916610100178155610a11565b81610a115780546001600160801b03610100808304821660010190911602610100600160881b0319909116178155505050565b6003602052600090815260409020546001600160801b0380821691600160801b90041682565b6000546001600160a01b03163314610b6e5760405162461bcd60e51b8152600401808060200182810382526023815260200180610b916023913960400191505060405180910390fd5b600180546001600160a01b0319166001600160a01b039290921691909117905556fe466565546f3a3a736574466565526563697069656e743a206e6f7420616c6c6f776564466565546f3a3a757064617465546f6b656e416c6c6f7753746174653a206e6f7420616c6c6f776564a265627a7a7231582087d534ab3fc46f633794d26597f977532f17b5b47343d4151087f2aa15e2c6ef64736f6c63430005100032",
			"opcodes": "PUSH1 0x80 PUSH1 0x40 MSTORE CALLVALUE DUP1 ISZERO PUSH2 0x10 JUMPI PUSH1 0x0 DUP1 REVERT JUMPDEST POP PUSH1 0x40 MLOAD PUSH2 0xC76 CODESIZE SUB DUP1 PUSH2 0xC76 DUP4 CODECOPY DUP2 DUP2 ADD PUSH1 0x40 MSTORE PUSH1 0x20 DUP2 LT ISZERO PUSH2 0x33 JUMPI PUSH1 0x0 DUP1 REVERT JUMPDEST POP MLOAD PUSH1 0x0 DUP1 SLOAD PUSH1 0x1 PUSH1 0x1 PUSH1 0xA0 SHL SUB SWAP1 SWAP3 AND PUSH1 0x1 PUSH1 0x1 PUSH1 0xA0 SHL SUB NOT SWAP1 SWAP3 AND SWAP2 SWAP1 SWAP2 OR SWAP1 SSTORE PUSH2 0xC11 DUP1 PUSH2 0x65 PUSH1 0x0 CODECOPY PUSH1 0x0 RETURN INVALID PUSH1 0x80 PUSH1 0x40 MSTORE CALLVALUE DUP1 ISZERO PUSH2 0x10 JUMPI PUSH1 0x0 DUP1 REVERT JUMPDEST POP PUSH1 0x4 CALLDATASIZE LT PUSH2 0x9E JUMPI PUSH1 0x0 CALLDATALOAD PUSH1 0xE0 SHR DUP1 PUSH4 0x8D976172 GT PUSH2 0x66 JUMPI DUP1 PUSH4 0x8D976172 EQ PUSH2 0x196 JUMPI DUP1 PUSH4 0x8DA5CB5B EQ PUSH2 0x23B JUMPI DUP1 PUSH4 0xDF8CA76A EQ PUSH2 0x243 JUMPI DUP1 PUSH4 0xE359F0ED EQ PUSH2 0x271 JUMPI DUP1 PUSH4 0xE74B981B EQ PUSH2 0x2BD JUMPI PUSH2 0x9E JUMP JUMPDEST DUP1 PUSH4 0x13AF4035 EQ PUSH2 0xA3 JUMPI DUP1 PUSH4 0x1E83409A EQ PUSH2 0xCB JUMPI DUP1 PUSH4 0x1F76A7AF EQ PUSH2 0x103 JUMPI DUP1 PUSH4 0x3E2F3F2B EQ PUSH2 0x129 JUMPI DUP1 PUSH4 0x46904840 EQ PUSH2 0x172 JUMPI JUMPDEST PUSH1 0x0 DUP1 REVERT JUMPDEST PUSH2 0xC9 PUSH1 0x4 DUP1 CALLDATASIZE SUB PUSH1 0x20 DUP2 LT ISZERO PUSH2 0xB9 JUMPI PUSH1 0x0 DUP1 REVERT JUMPDEST POP CALLDATALOAD PUSH1 0x1 PUSH1 0x1 PUSH1 0xA0 SHL SUB AND PUSH2 0x2E3 JUMP JUMPDEST STOP JUMPDEST PUSH2 0xF1 PUSH1 0x4 DUP1 CALLDATASIZE SUB PUSH1 0x20 DUP2 LT ISZERO PUSH2 0xE1 JUMPI PUSH1 0x0 DUP1 REVERT JUMPDEST POP CALLDATALOAD PUSH1 0x1 PUSH1 0x1 PUSH1 0xA0 SHL SUB AND PUSH2 0x364 JUMP JUMPDEST PUSH1 0x40 DUP1 MLOAD SWAP2 DUP3 MSTORE MLOAD SWAP1 DUP2 SWAP1 SUB PUSH1 0x20 ADD SWAP1 RETURN JUMPDEST PUSH2 0xF1 PUSH1 0x4 DUP1 CALLDATASIZE SUB PUSH1 0x20 DUP2 LT ISZERO PUSH2 0x119 JUMPI PUSH1 0x0 DUP1 REVERT JUMPDEST POP CALLDATALOAD PUSH1 0x1 PUSH1 0x1 PUSH1 0xA0 SHL SUB AND PUSH2 0x62D JUMP JUMPDEST PUSH2 0x14F PUSH1 0x4 DUP1 CALLDATASIZE SUB PUSH1 0x20 DUP2 LT ISZERO PUSH2 0x13F JUMPI PUSH1 0x0 DUP1 REVERT JUMPDEST POP CALLDATALOAD PUSH1 0x1 PUSH1 0x1 PUSH1 0xA0 SHL SUB AND PUSH2 0x9AC JUMP JUMPDEST PUSH1 0x40 DUP1 MLOAD SWAP3 ISZERO ISZERO DUP4 MSTORE PUSH1 0x1 PUSH1 0x1 PUSH1 0x80 SHL SUB SWAP1 SWAP2 AND PUSH1 0x20 DUP4 ADD MSTORE DUP1 MLOAD SWAP2 DUP3 SWAP1 SUB ADD SWAP1 RETURN JUMPDEST PUSH2 0x17A PUSH2 0x9D1 JUMP JUMPDEST PUSH1 0x40 DUP1 MLOAD PUSH1 0x1 PUSH1 0x1 PUSH1 0xA0 SHL SUB SWAP1 SWAP3 AND DUP3 MSTORE MLOAD SWAP1 DUP2 SWAP1 SUB PUSH1 0x20 ADD SWAP1 RETURN JUMPDEST PUSH2 0xC9 PUSH1 0x4 DUP1 CALLDATASIZE SUB PUSH1 0x40 DUP2 LT ISZERO PUSH2 0x1AC JUMPI PUSH1 0x0 DUP1 REVERT JUMPDEST DUP2 ADD SWAP1 PUSH1 0x20 DUP2 ADD DUP2 CALLDATALOAD PUSH5 0x100000000 DUP2 GT ISZERO PUSH2 0x1C7 JUMPI PUSH1 0x0 DUP1 REVERT JUMPDEST DUP3 ADD DUP4 PUSH1 0x20 DUP3 ADD GT ISZERO PUSH2 0x1D9 JUMPI PUSH1 0x0 DUP1 REVERT JUMPDEST DUP1 CALLDATALOAD SWAP1 PUSH1 0x20 ADD SWAP2 DUP5 PUSH1 0x20 DUP4 MUL DUP5 ADD GT PUSH5 0x100000000 DUP4 GT OR ISZERO PUSH2 0x1FB JUMPI PUSH1 0x0 DUP1 REVERT JUMPDEST SWAP2 SWAP1 DUP1 DUP1 PUSH1 0x20 MUL PUSH1 0x20 ADD PUSH1 0x40 MLOAD SWAP1 DUP2 ADD PUSH1 0x40 MSTORE DUP1 SWAP4 SWAP3 SWAP2 SWAP1 DUP2 DUP2 MSTORE PUSH1 0x20 ADD DUP4 DUP4 PUSH1 0x20 MUL DUP1 DUP3 DUP5 CALLDATACOPY PUSH1 0x0 SWAP3 ADD SWAP2 SWAP1 SWAP2 MSTORE POP SWAP3 SWAP6 POP POP POP POP CALLDATALOAD ISZERO ISZERO SWAP1 POP PUSH2 0x9E0 JUMP JUMPDEST PUSH2 0x17A PUSH2 0xA16 JUMP JUMPDEST PUSH2 0xC9 PUSH1 0x4 DUP1 CALLDATASIZE SUB PUSH1 0x40 DUP2 LT ISZERO PUSH2 0x259 JUMPI PUSH1 0x0 DUP1 REVERT JUMPDEST POP PUSH1 0x1 PUSH1 0x1 PUSH1 0xA0 SHL SUB DUP2 CALLDATALOAD AND SWAP1 PUSH1 0x20 ADD CALLDATALOAD ISZERO ISZERO PUSH2 0xA25 JUMP JUMPDEST PUSH2 0x297 PUSH1 0x4 DUP1 CALLDATASIZE SUB PUSH1 0x20 DUP2 LT ISZERO PUSH2 0x287 JUMPI PUSH1 0x0 DUP1 REVERT JUMPDEST POP CALLDATALOAD PUSH1 0x1 PUSH1 0x1 PUSH1 0xA0 SHL SUB AND PUSH2 0xAFF JUMP JUMPDEST PUSH1 0x40 DUP1 MLOAD PUSH1 0x1 PUSH1 0x1 PUSH1 0x80 SHL SUB SWAP4 DUP5 AND DUP2 MSTORE SWAP2 SWAP1 SWAP3 AND PUSH1 0x20 DUP3 ADD MSTORE DUP2 MLOAD SWAP1 DUP2 SWAP1 SUB SWAP1 SWAP2 ADD SWAP1 RETURN JUMPDEST PUSH2 0xC9 PUSH1 0x4 DUP1 CALLDATASIZE SUB PUSH1 0x20 DUP2 LT ISZERO PUSH2 0x2D3 JUMPI PUSH1 0x0 DUP1 REVERT JUMPDEST POP CALLDATALOAD PUSH1 0x1 PUSH1 0x1 PUSH1 0xA0 SHL SUB AND PUSH2 0xB25 JUMP JUMPDEST PUSH1 0x0 SLOAD PUSH1 0x1 PUSH1 0x1 PUSH1 0xA0 SHL SUB AND CALLER EQ PUSH2 0x342 JUMPI PUSH1 0x40 DUP1 MLOAD PUSH3 0x461BCD PUSH1 0xE5 SHL DUP2 MSTORE PUSH1 0x20 PUSH1 0x4 DUP3 ADD MSTORE PUSH1 0x1C PUSH1 0x24 DUP3 ADD MSTORE PUSH32 0x466565546F3A3A7365744F776E65723A206E6F7420616C6C6F77656400000000 PUSH1 0x44 DUP3 ADD MSTORE SWAP1 MLOAD SWAP1 DUP2 SWAP1 SUB PUSH1 0x64 ADD SWAP1 REVERT JUMPDEST PUSH1 0x0 DUP1 SLOAD PUSH1 0x1 PUSH1 0x1 PUSH1 0xA0 SHL SUB NOT AND PUSH1 0x1 PUSH1 0x1 PUSH1 0xA0 SHL SUB SWAP3 SWAP1 SWAP3 AND SWAP2 SWAP1 SWAP2 OR SWAP1 SSTORE JUMP JUMPDEST PUSH1 0x0 DUP1 PUSH1 0x3 PUSH1 0x0 DUP5 PUSH1 0x1 PUSH1 0x1 PUSH1 0xA0 SHL SUB AND PUSH1 0x1 PUSH1 0x1 PUSH1 0xA0 SHL SUB AND DUP2 MSTORE PUSH1 0x20 ADD SWAP1 DUP2 MSTORE PUSH1 0x20 ADD PUSH1 0x0 KECCAK256 SWAP1 POP PUSH1 0x0 PUSH1 0x2 PUSH1 0x0 DUP6 PUSH1 0x1 PUSH1 0x1 PUSH1 0xA0 SHL SUB AND PUSH4 0xDFE1681 PUSH1 0x40 MLOAD DUP2 PUSH4 0xFFFFFFFF AND PUSH1 0xE0 SHL DUP2 MSTORE PUSH1 0x4 ADD PUSH1 0x20 PUSH1 0x40 MLOAD DUP1 DUP4 SUB DUP2 DUP7 DUP1 EXTCODESIZE ISZERO DUP1 ISZERO PUSH2 0x3CD JUMPI PUSH1 0x0 DUP1 REVERT JUMPDEST POP GAS STATICCALL ISZERO DUP1 ISZERO PUSH2 0x3E1 JUMPI RETURNDATASIZE PUSH1 0x0 DUP1 RETURNDATACOPY RETURNDATASIZE PUSH1 0x0 REVERT JUMPDEST POP POP POP POP PUSH1 0x40 MLOAD RETURNDATASIZE PUSH1 0x20 DUP2 LT ISZERO PUSH2 0x3F7 JUMPI PUSH1 0x0 DUP1 REVERT JUMPDEST DUP2 ADD SWAP1 DUP1 DUP1 MLOAD SWAP1 PUSH1 0x20 ADD SWAP1 SWAP3 SWAP2 SWAP1 POP POP POP PUSH1 0x1 PUSH1 0x1 PUSH1 0xA0 SHL SUB AND PUSH1 0x1 PUSH1 0x1 PUSH1 0xA0 SHL SUB AND DUP2 MSTORE PUSH1 0x20 ADD SWAP1 DUP2 MSTORE PUSH1 0x20 ADD PUSH1 0x0 KECCAK256 SWAP1 POP PUSH1 0x0 PUSH1 0x2 PUSH1 0x0 DUP7 PUSH1 0x1 PUSH1 0x1 PUSH1 0xA0 SHL SUB AND PUSH4 0xD21220A7 PUSH1 0x40 MLOAD DUP2 PUSH4 0xFFFFFFFF AND PUSH1 0xE0 SHL DUP2 MSTORE PUSH1 0x4 ADD PUSH1 0x20 PUSH1 0x40 MLOAD DUP1 DUP4 SUB DUP2 DUP7 DUP1 EXTCODESIZE ISZERO DUP1 ISZERO PUSH2 0x469 JUMPI PUSH1 0x0 DUP1 REVERT JUMPDEST POP GAS STATICCALL ISZERO DUP1 ISZERO PUSH2 0x47D JUMPI RETURNDATASIZE PUSH1 0x0 DUP1 RETURNDATACOPY RETURNDATASIZE PUSH1 0x0 REVERT JUMPDEST POP POP POP POP PUSH1 0x40 MLOAD RETURNDATASIZE PUSH1 0x20 DUP2 LT ISZERO PUSH2 0x493 JUMPI PUSH1 0x0 DUP1 REVERT JUMPDEST POP MLOAD PUSH1 0x1 PUSH1 0x1 PUSH1 0xA0 SHL SUB AND DUP2 MSTORE PUSH1 0x20 DUP2 ADD SWAP2 SWAP1 SWAP2 MSTORE PUSH1 0x40 ADD PUSH1 0x0 KECCAK256 DUP3 SLOAD SWAP1 SWAP2 POP PUSH1 0xFF AND DUP1 ISZERO PUSH2 0x4C3 JUMPI POP DUP1 SLOAD PUSH1 0xFF AND JUMPDEST DUP1 ISZERO PUSH2 0x4E2 JUMPI POP DUP3 SLOAD DUP3 SLOAD PUSH2 0x100 SWAP1 DIV PUSH1 0x1 PUSH1 0x1 PUSH1 0x80 SHL SUB SWAP1 DUP2 AND SWAP2 AND EQ JUMPDEST DUP1 ISZERO PUSH2 0x508 JUMPI POP DUP3 SLOAD DUP2 SLOAD PUSH2 0x100 SWAP1 DIV PUSH1 0x1 PUSH1 0x1 PUSH1 0x80 SHL SUB SWAP1 DUP2 AND PUSH1 0x1 PUSH1 0x80 SHL SWAP1 SWAP3 DIV AND EQ JUMPDEST DUP1 ISZERO PUSH2 0x51E JUMPI POP PUSH1 0x1 SLOAD PUSH1 0x1 PUSH1 0x1 PUSH1 0xA0 SHL SUB AND ISZERO ISZERO JUMPDEST ISZERO PUSH2 0x625 JUMPI PUSH1 0x40 DUP1 MLOAD PUSH4 0x70A08231 PUSH1 0xE0 SHL DUP2 MSTORE ADDRESS PUSH1 0x4 DUP3 ADD MSTORE SWAP1 MLOAD PUSH1 0x1 PUSH1 0x1 PUSH1 0xA0 SHL SUB DUP8 AND SWAP2 PUSH4 0x70A08231 SWAP2 PUSH1 0x24 DUP1 DUP4 ADD SWAP3 PUSH1 0x20 SWAP3 SWAP2 SWAP1 DUP3 SWAP1 SUB ADD DUP2 DUP7 DUP1 EXTCODESIZE ISZERO DUP1 ISZERO PUSH2 0x569 JUMPI PUSH1 0x0 DUP1 REVERT JUMPDEST POP GAS STATICCALL ISZERO DUP1 ISZERO PUSH2 0x57D JUMPI RETURNDATASIZE PUSH1 0x0 DUP1 RETURNDATACOPY RETURNDATASIZE PUSH1 0x0 REVERT JUMPDEST POP POP POP POP PUSH1 0x40 MLOAD RETURNDATASIZE PUSH1 0x20 DUP2 LT ISZERO PUSH2 0x593 JUMPI PUSH1 0x0 DUP1 REVERT JUMPDEST POP MLOAD SWAP4 POP DUP4 ISZERO PUSH2 0x625 JUMPI PUSH1 0x1 SLOAD PUSH1 0x40 DUP1 MLOAD PUSH4 0xA9059CBB PUSH1 0xE0 SHL DUP2 MSTORE PUSH1 0x1 PUSH1 0x1 PUSH1 0xA0 SHL SUB SWAP3 DUP4 AND PUSH1 0x4 DUP3 ADD MSTORE PUSH1 0x24 DUP2 ADD DUP8 SWAP1 MSTORE SWAP1 MLOAD SWAP2 DUP8 AND SWAP2 PUSH4 0xA9059CBB SWAP2 PUSH1 0x44 DUP1 DUP3 ADD SWAP3 PUSH1 0x20 SWAP3 SWAP1 SWAP2 SWAP1 DUP3 SWAP1 SUB ADD DUP2 PUSH1 0x0 DUP8 DUP1 EXTCODESIZE ISZERO DUP1 ISZERO PUSH2 0x5F3 JUMPI PUSH1 0x0 DUP1 REVERT JUMPDEST POP GAS CALL ISZERO DUP1 ISZERO PUSH2 0x607 JUMPI RETURNDATASIZE PUSH1 0x0 DUP1 RETURNDATACOPY RETURNDATASIZE PUSH1 0x0 REVERT JUMPDEST POP POP POP POP PUSH1 0x40 MLOAD RETURNDATASIZE PUSH1 0x20 DUP2 LT ISZERO PUSH2 0x61D JUMPI PUSH1 0x0 DUP1 REVERT JUMPDEST POP MLOAD PUSH2 0x625 JUMPI INVALID JUMPDEST POP POP POP SWAP2 SWAP1 POP JUMP JUMPDEST PUSH1 0x0 DUP1 PUSH1 0x3 PUSH1 0x0 DUP5 PUSH1 0x1 PUSH1 0x1 PUSH1 0xA0 SHL SUB AND PUSH1 0x1 PUSH1 0x1 PUSH1 0xA0 SHL SUB AND DUP2 MSTORE PUSH1 0x20 ADD SWAP1 DUP2 MSTORE PUSH1 0x20 ADD PUSH1 0x0 KECCAK256 SWAP1 POP PUSH1 0x0 PUSH1 0x2 PUSH1 0x0 DUP6 PUSH1 0x1 PUSH1 0x1 PUSH1 0xA0 SHL SUB AND PUSH4 0xDFE1681 PUSH1 0x40 MLOAD DUP2 PUSH4 0xFFFFFFFF AND PUSH1 0xE0 SHL DUP2 MSTORE PUSH1 0x4 ADD PUSH1 0x20 PUSH1 0x40 MLOAD DUP1 DUP4 SUB DUP2 DUP7 DUP1 EXTCODESIZE ISZERO DUP1 ISZERO PUSH2 0x696 JUMPI PUSH1 0x0 DUP1 REVERT JUMPDEST POP GAS STATICCALL ISZERO DUP1 ISZERO PUSH2 0x6AA JUMPI RETURNDATASIZE PUSH1 0x0 DUP1 RETURNDATACOPY RETURNDATASIZE PUSH1 0x0 REVERT JUMPDEST POP POP POP POP PUSH1 0x40 MLOAD RETURNDATASIZE PUSH1 0x20 DUP2 LT ISZERO PUSH2 0x6C0 JUMPI PUSH1 0x0 DUP1 REVERT JUMPDEST DUP2 ADD SWAP1 DUP1 DUP1 MLOAD SWAP1 PUSH1 0x20 ADD SWAP1 SWAP3 SWAP2 SWAP1 POP POP POP PUSH1 0x1 PUSH1 0x1 PUSH1 0xA0 SHL SUB AND PUSH1 0x1 PUSH1 0x1 PUSH1 0xA0 SHL SUB AND DUP2 MSTORE PUSH1 0x20 ADD SWAP1 DUP2 MSTORE PUSH1 0x20 ADD PUSH1 0x0 KECCAK256 SWAP1 POP PUSH1 0x0 PUSH1 0x2 PUSH1 0x0 DUP7 PUSH1 0x1 PUSH1 0x1 PUSH1 0xA0 SHL SUB AND PUSH4 0xD21220A7 PUSH1 0x40 MLOAD DUP2 PUSH4 0xFFFFFFFF AND PUSH1 0xE0 SHL DUP2 MSTORE PUSH1 0x4 ADD PUSH1 0x20 PUSH1 0x40 MLOAD DUP1 DUP4 SUB DUP2 DUP7 DUP1 EXTCODESIZE ISZERO DUP1 ISZERO PUSH2 0x732 JUMPI PUSH1 0x0 DUP1 REVERT JUMPDEST POP GAS STATICCALL ISZERO DUP1 ISZERO PUSH2 0x746 JUMPI RETURNDATASIZE PUSH1 0x0 DUP1 RETURNDATACOPY RETURNDATASIZE PUSH1 0x0 REVERT JUMPDEST POP POP POP POP PUSH1 0x40 MLOAD RETURNDATASIZE PUSH1 0x20 DUP2 LT ISZERO PUSH2 0x75C JUMPI PUSH1 0x0 DUP1 REVERT JUMPDEST POP MLOAD PUSH1 0x1 PUSH1 0x1 PUSH1 0xA0 SHL SUB AND DUP2 MSTORE PUSH1 0x20 DUP2 ADD SWAP2 SWAP1 SWAP2 MSTORE PUSH1 0x40 ADD PUSH1 0x0 KECCAK256 DUP3 SLOAD SWAP1 SWAP2 POP PUSH1 0xFF AND ISZERO DUP1 PUSH2 0x78D JUMPI POP DUP1 SLOAD PUSH1 0xFF AND ISZERO JUMPDEST DUP1 PUSH2 0x7AD JUMPI POP DUP3 SLOAD DUP3 SLOAD PUSH1 0x1 PUSH1 0x1 PUSH1 0x80 SHL SUB SWAP2 DUP3 AND PUSH2 0x100 SWAP1 SWAP2 DIV SWAP1 SWAP2 AND GT JUMPDEST DUP1 PUSH2 0x7D3 JUMPI POP DUP3 SLOAD DUP2 SLOAD PUSH1 0x1 PUSH1 0x80 SHL SWAP1 SWAP2 DIV PUSH1 0x1 PUSH1 0x1 PUSH1 0x80 SHL SUB SWAP1 DUP2 AND PUSH2 0x100 SWAP1 SWAP3 DIV AND GT JUMPDEST ISZERO PUSH2 0x625 JUMPI PUSH1 0x40 DUP1 MLOAD PUSH4 0x70A08231 PUSH1 0xE0 SHL DUP2 MSTORE ADDRESS PUSH1 0x4 DUP3 ADD MSTORE SWAP1 MLOAD PUSH1 0x1 PUSH1 0x1 PUSH1 0xA0 SHL SUB DUP8 AND SWAP2 PUSH4 0x70A08231 SWAP2 PUSH1 0x24 DUP1 DUP4 ADD SWAP3 PUSH1 0x20 SWAP3 SWAP2 SWAP1 DUP3 SWAP1 SUB ADD DUP2 DUP7 DUP1 EXTCODESIZE ISZERO DUP1 ISZERO PUSH2 0x81E JUMPI PUSH1 0x0 DUP1 REVERT JUMPDEST POP GAS STATICCALL ISZERO DUP1 ISZERO PUSH2 0x832 JUMPI RETURNDATASIZE PUSH1 0x0 DUP1 RETURNDATACOPY RETURNDATASIZE PUSH1 0x0 REVERT JUMPDEST POP POP POP POP PUSH1 0x40 MLOAD RETURNDATASIZE PUSH1 0x20 DUP2 LT ISZERO PUSH2 0x848 JUMPI PUSH1 0x0 DUP1 REVERT JUMPDEST POP MLOAD SWAP4 POP DUP4 ISZERO PUSH2 0x947 JUMPI PUSH1 0x40 DUP1 MLOAD PUSH4 0xA9059CBB PUSH1 0xE0 SHL DUP2 MSTORE PUSH1 0x1 PUSH1 0x1 PUSH1 0xA0 SHL SUB DUP8 AND PUSH1 0x4 DUP3 ADD DUP2 SWAP1 MSTORE PUSH1 0x24 DUP3 ADD DUP8 SWAP1 MSTORE SWAP2 MLOAD PUSH4 0xA9059CBB SWAP2 PUSH1 0x44 DUP1 DUP3 ADD SWAP3 PUSH1 0x20 SWAP3 SWAP1 SWAP2 SWAP1 DUP3 SWAP1 SUB ADD DUP2 PUSH1 0x0 DUP8 DUP1 EXTCODESIZE ISZERO DUP1 ISZERO PUSH2 0x8A2 JUMPI PUSH1 0x0 DUP1 REVERT JUMPDEST POP GAS CALL ISZERO DUP1 ISZERO PUSH2 0x8B6 JUMPI RETURNDATASIZE PUSH1 0x0 DUP1 RETURNDATACOPY RETURNDATASIZE PUSH1 0x0 REVERT JUMPDEST POP POP POP POP PUSH1 0x40 MLOAD RETURNDATASIZE PUSH1 0x20 DUP2 LT ISZERO PUSH2 0x8CC JUMPI PUSH1 0x0 DUP1 REVERT JUMPDEST POP MLOAD PUSH2 0x8D4 JUMPI INVALID JUMPDEST PUSH1 0x40 DUP1 MLOAD PUSH4 0x226BF2D1 PUSH1 0xE2 SHL DUP2 MSTORE PUSH1 0x1 PUSH1 0x1 PUSH1 0xA0 SHL SUB DUP8 AND PUSH1 0x4 DUP3 ADD DUP2 SWAP1 MSTORE DUP3 MLOAD SWAP1 SWAP3 PUSH4 0x89AFCB44 SWAP3 PUSH1 0x24 DUP1 DUP3 ADD SWAP4 SWAP2 DUP3 SWAP1 SUB ADD DUP2 PUSH1 0x0 DUP8 DUP1 EXTCODESIZE ISZERO DUP1 ISZERO PUSH2 0x91A JUMPI PUSH1 0x0 DUP1 REVERT JUMPDEST POP GAS CALL ISZERO DUP1 ISZERO PUSH2 0x92E JUMPI RETURNDATASIZE PUSH1 0x0 DUP1 RETURNDATACOPY RETURNDATASIZE PUSH1 0x0 REVERT JUMPDEST POP POP POP POP PUSH1 0x40 MLOAD RETURNDATASIZE PUSH1 0x40 DUP2 LT ISZERO PUSH2 0x944 JUMPI PUSH1 0x0 DUP1 REVERT JUMPDEST POP POP JUMPDEST DUP2 SLOAD PUSH1 0xFF AND ISZERO PUSH2 0x97D JUMPI DUP2 SLOAD DUP4 SLOAD PUSH2 0x100 SWAP1 SWAP2 DIV PUSH1 0x1 PUSH1 0x1 PUSH1 0x80 SHL SUB AND PUSH16 0xFFFFFFFFFFFFFFFFFFFFFFFFFFFFFFFF NOT SWAP1 SWAP2 AND OR DUP4 SSTORE JUMPDEST DUP1 SLOAD PUSH1 0xFF AND ISZERO PUSH2 0x625 JUMPI SLOAD DUP3 SLOAD PUSH1 0x1 PUSH1 0x1 PUSH1 0x80 SHL SUB SWAP1 DUP2 AND PUSH2 0x100 SWAP1 SWAP3 DIV AND PUSH1 0x1 PUSH1 0x80 SHL MUL OR SWAP1 SWAP2 SSTORE POP SWAP2 SWAP1 POP JUMP JUMPDEST PUSH1 0x2 PUSH1 0x20 MSTORE PUSH1 0x0 SWAP1 DUP2 MSTORE PUSH1 0x40 SWAP1 KECCAK256 SLOAD PUSH1 0xFF DUP2 AND SWAP1 PUSH2 0x100 SWAP1 DIV PUSH1 0x1 PUSH1 0x1 PUSH1 0x80 SHL SUB AND DUP3 JUMP JUMPDEST PUSH1 0x1 SLOAD PUSH1 0x1 PUSH1 0x1 PUSH1 0xA0 SHL SUB AND DUP2 JUMP JUMPDEST PUSH1 0x0 JUMPDEST DUP3 MLOAD DUP2 LT ISZERO PUSH2 0xA11 JUMPI PUSH2 0xA09 DUP4 DUP3 DUP2 MLOAD DUP2 LT PUSH2 0x9FB JUMPI INVALID JUMPDEST PUSH1 0x20 MUL PUSH1 0x20 ADD ADD MLOAD DUP4 PUSH2 0xA25 JUMP JUMPDEST PUSH1 0x1 ADD PUSH2 0x9E3 JUMP JUMPDEST POP POP POP JUMP JUMPDEST PUSH1 0x0 SLOAD PUSH1 0x1 PUSH1 0x1 PUSH1 0xA0 SHL SUB AND DUP2 JUMP JUMPDEST PUSH1 0x0 SLOAD PUSH1 0x1 PUSH1 0x1 PUSH1 0xA0 SHL SUB AND CALLER EQ PUSH2 0xA6E JUMPI PUSH1 0x40 MLOAD PUSH3 0x461BCD PUSH1 0xE5 SHL DUP2 MSTORE PUSH1 0x4 ADD DUP1 DUP1 PUSH1 0x20 ADD DUP3 DUP2 SUB DUP3 MSTORE PUSH1 0x29 DUP2 MSTORE PUSH1 0x20 ADD DUP1 PUSH2 0xBB4 PUSH1 0x29 SWAP2 CODECOPY PUSH1 0x40 ADD SWAP2 POP POP PUSH1 0x40 MLOAD DUP1 SWAP2 SUB SWAP1 REVERT JUMPDEST PUSH1 0x1 PUSH1 0x1 PUSH1 0xA0 SHL SUB DUP3 AND PUSH1 0x0 SWAP1 DUP2 MSTORE PUSH1 0x2 PUSH1 0x20 MSTORE PUSH1 0x40 SWAP1 KECCAK256 DUP1 SLOAD PUSH1 0xFF AND ISZERO ISZERO DUP3 ISZERO ISZERO EQ PUSH2 0xA11 JUMPI DUP1 SLOAD PUSH1 0xFF NOT AND DUP3 ISZERO ISZERO OR DUP1 DUP3 SSTORE PUSH2 0x100 SWAP1 DIV PUSH1 0x1 PUSH1 0x1 PUSH1 0x80 SHL SUB AND PUSH2 0xACC JUMPI DUP1 SLOAD PUSH2 0x100 PUSH1 0x1 PUSH1 0x88 SHL SUB NOT AND PUSH2 0x100 OR DUP2 SSTORE PUSH2 0xA11 JUMP JUMPDEST DUP2 PUSH2 0xA11 JUMPI DUP1 SLOAD PUSH1 0x1 PUSH1 0x1 PUSH1 0x80 SHL SUB PUSH2 0x100 DUP1 DUP4 DIV DUP3 AND PUSH1 0x1 ADD SWAP1 SWAP2 AND MUL PUSH2 0x100 PUSH1 0x1 PUSH1 0x88 SHL SUB NOT SWAP1 SWAP2 AND OR DUP2 SSTORE POP POP POP JUMP JUMPDEST PUSH1 0x3 PUSH1 0x20 MSTORE PUSH1 0x0 SWAP1 DUP2 MSTORE PUSH1 0x40 SWAP1 KECCAK256 SLOAD PUSH1 0x1 PUSH1 0x1 PUSH1 0x80 SHL SUB DUP1 DUP3 AND SWAP2 PUSH1 0x1 PUSH1 0x80 SHL SWAP1 DIV AND DUP3 JUMP JUMPDEST PUSH1 0x0 SLOAD PUSH1 0x1 PUSH1 0x1 PUSH1 0xA0 SHL SUB AND CALLER EQ PUSH2 0xB6E JUMPI PUSH1 0x40 MLOAD PUSH3 0x461BCD PUSH1 0xE5 SHL DUP2 MSTORE PUSH1 0x4 ADD DUP1 DUP1 PUSH1 0x20 ADD DUP3 DUP2 SUB DUP3 MSTORE PUSH1 0x23 DUP2 MSTORE PUSH1 0x20 ADD DUP1 PUSH2 0xB91 PUSH1 0x23 SWAP2 CODECOPY PUSH1 0x40 ADD SWAP2 POP POP PUSH1 0x40 MLOAD DUP1 SWAP2 SUB SWAP1 REVERT JUMPDEST PUSH1 0x1 DUP1 SLOAD PUSH1 0x1 PUSH1 0x1 PUSH1 0xA0 SHL SUB NOT AND PUSH1 0x1 PUSH1 0x1 PUSH1 0xA0 SHL SUB SWAP3 SWAP1 SWAP3 AND SWAP2 SWAP1 SWAP2 OR SWAP1 SSTORE JUMP INVALID CHAINID PUSH6 0x65546F3A3A73 PUSH6 0x744665655265 PUSH4 0x69706965 PUSH15 0x743A206E6F7420616C6C6F77656446 PUSH6 0x65546F3A3A75 PUSH17 0x64617465546F6B656E416C6C6F77537461 PUSH21 0x653A206E6F7420616C6C6F776564A265627A7A7231 PC KECCAK256 DUP8 0xD5 CALLVALUE 0xAB EXTCODEHASH 0xC4 PUSH16 0x633794D26597F977532F17B5B47343D4 ISZERO LT DUP8 CALLCODE 0xAA ISZERO 0xE2 0xC6 0xEF PUSH5 0x736F6C6343 STOP SDIV LT STOP ORIGIN "
		},
		"gasEstimates": {
			"creation": {
				"codeDepositCost": "617800",
				"executionCost": "infinite",
				"totalCost": "infinite"
			},
			"external": {
				"claim(address)": "infinite",
				"feeRecipient()": "1126",
				"owner()": "1059",
				"pairAllowStates(address)": "1291",
				"renounce(address)": "infinite",
				"setFeeRecipient(address)": "infinite",
				"setOwner(address)": "21914",
				"tokenAllowStates(address)": "1277",
				"updateTokenAllowState(address,bool)": "infinite",
				"updateTokenAllowStates(address[],bool)": "infinite"
			}
		},
		"methodIdentifiers": {
			"claim(address)": "1e83409a",
			"feeRecipient()": "46904840",
			"owner()": "8da5cb5b",
			"pairAllowStates(address)": "e359f0ed",
			"renounce(address)": "1f76a7af",
			"setFeeRecipient(address)": "e74b981b",
			"setOwner(address)": "13af4035",
			"tokenAllowStates(address)": "3e2f3f2b",
			"updateTokenAllowState(address,bool)": "df8ca76a",
			"updateTokenAllowStates(address[],bool)": "8d976172"
		}
	},
	"abi": [
		{
			"inputs": [
				{
					"internalType": "address",
					"name": "owner_",
					"type": "address"
				}
			],
			"payable": false,
			"stateMutability": "nonpayable",
			"type": "constructor"
		},
		{
			"constant": false,
			"inputs": [
				{
					"internalType": "address",
					"name": "pair",
					"type": "address"
				}
			],
			"name": "claim",
			"outputs": [
				{
					"internalType": "uint256",
					"name": "value",
					"type": "uint256"
				}
			],
			"payable": false,
			"stateMutability": "nonpayable",
			"type": "function"
		},
		{
			"constant": true,
			"inputs": [],
			"name": "feeRecipient",
			"outputs": [
				{
					"internalType": "address",
					"name": "",
					"type": "address"
				}
			],
			"payable": false,
			"stateMutability": "view",
			"type": "function"
		},
		{
			"constant": true,
			"inputs": [],
			"name": "owner",
			"outputs": [
				{
					"internalType": "address",
					"name": "",
					"type": "address"
				}
			],
			"payable": false,
			"stateMutability": "view",
			"type": "function"
		},
		{
			"constant": true,
			"inputs": [
				{
					"internalType": "address",
					"name": "",
					"type": "address"
				}
			],
			"name": "pairAllowStates",
			"outputs": [
				{
					"internalType": "uint128",
					"name": "token0DisallowCount",
					"type": "uint128"
				},
				{
					"internalType": "uint128",
					"name": "token1DisallowCount",
					"type": "uint128"
				}
			],
			"payable": false,
			"stateMutability": "view",
			"type": "function"
		},
		{
			"constant": false,
			"inputs": [
				{
					"internalType": "address",
					"name": "pair",
					"type": "address"
				}
			],
			"name": "renounce",
			"outputs": [
				{
					"internalType": "uint256",
					"name": "value",
					"type": "uint256"
				}
			],
			"payable": false,
			"stateMutability": "nonpayable",
			"type": "function"
		},
		{
			"constant": false,
			"inputs": [
				{
					"internalType": "address",
					"name": "feeRecipient_",
					"type": "address"
				}
			],
			"name": "setFeeRecipient",
			"outputs": [],
			"payable": false,
			"stateMutability": "nonpayable",
			"type": "function"
		},
		{
			"constant": false,
			"inputs": [
				{
					"internalType": "address",
					"name": "owner_",
					"type": "address"
				}
			],
			"name": "setOwner",
			"outputs": [],
			"payable": false,
			"stateMutability": "nonpayable",
			"type": "function"
		},
		{
			"constant": true,
			"inputs": [
				{
					"internalType": "address",
					"name": "",
					"type": "address"
				}
			],
			"name": "tokenAllowStates",
			"outputs": [
				{
					"internalType": "bool",
					"name": "allowed",
					"type": "bool"
				},
				{
					"internalType": "uint128",
					"name": "disallowCount",
					"type": "uint128"
				}
			],
			"payable": false,
			"stateMutability": "view",
			"type": "function"
		},
		{
			"constant": false,
			"inputs": [
				{
					"internalType": "address",
					"name": "token",
					"type": "address"
				},
				{
					"internalType": "bool",
					"name": "allowed",
					"type": "bool"
				}
			],
			"name": "updateTokenAllowState",
			"outputs": [],
			"payable": false,
			"stateMutability": "nonpayable",
			"type": "function"
		},
		{
			"constant": false,
			"inputs": [
				{
					"internalType": "address[]",
					"name": "tokens",
					"type": "address[]"
				},
				{
					"internalType": "bool",
					"name": "allowed",
					"type": "bool"
				}
			],
			"name": "updateTokenAllowStates",
			"outputs": [],
			"payable": false,
			"stateMutability": "nonpayable",
			"type": "function"
		}
	]
}